{
  "abi": [
    {
      "anonymous": false,
      "inputs": [
        {
          "indexed": true,
          "internalType": "address",
          "name": "owner",
          "type": "address"
        },
        {
          "indexed": true,
          "internalType": "address",
          "name": "spender",
          "type": "address"
        },
        {
          "indexed": false,
          "internalType": "uint256",
          "name": "value",
          "type": "uint256"
        }
      ],
      "name": "Approval",
      "type": "event"
    },
    {
      "anonymous": false,
      "inputs": [
        {
          "indexed": true,
          "internalType": "address",
          "name": "player",
          "type": "address"
        },
        {
          "indexed": true,
          "internalType": "bytes32",
          "name": "orderid",
          "type": "bytes32"
        },
        {
          "indexed": false,
          "internalType": "bytes32",
          "name": "gameid",
          "type": "bytes32"
        }
      ],
      "name": "GameOn",
      "type": "event"
    },
    {
      "anonymous": false,
      "inputs": [
        {
          "indexed": true,
          "internalType": "bytes32",
          "name": "gameid",
          "type": "bytes32"
        },
        {
          "indexed": false,
          "internalType": "address",
          "name": "player",
          "type": "address"
        }
      ],
      "name": "Reveal",
      "type": "event"
    },
    {
      "anonymous": false,
      "inputs": [
        {
          "indexed": true,
          "internalType": "address",
          "name": "from",
          "type": "address"
        },
        {
          "indexed": true,
          "internalType": "address",
          "name": "to",
          "type": "address"
        },
        {
          "indexed": false,
          "internalType": "uint256",
          "name": "value",
          "type": "uint256"
        }
      ],
      "name": "Transfer",
      "type": "event"
    },
    {
      "constant": true,
      "inputs": [
        {
          "internalType": "address",
          "name": "owner",
          "type": "address"
        },
        {
          "internalType": "address",
          "name": "spender",
          "type": "address"
        }
      ],
      "name": "allowance",
      "outputs": [
        {
          "internalType": "uint256",
          "name": "",
          "type": "uint256"
        }
      ],
      "payable": false,
      "stateMutability": "view",
      "type": "function"
    },
    {
      "constant": false,
      "inputs": [
        {
          "internalType": "address",
          "name": "spender",
          "type": "address"
        },
        {
          "internalType": "uint256",
          "name": "amount",
          "type": "uint256"
        }
      ],
      "name": "approve",
      "outputs": [
        {
          "internalType": "bool",
          "name": "",
          "type": "bool"
        }
      ],
      "payable": false,
      "stateMutability": "nonpayable",
      "type": "function"
    },
    {
      "constant": true,
      "inputs": [
        {
          "internalType": "address",
          "name": "account",
          "type": "address"
        }
      ],
      "name": "balanceOf",
      "outputs": [
        {
          "internalType": "uint256",
          "name": "",
          "type": "uint256"
        }
      ],
      "payable": false,
      "stateMutability": "view",
      "type": "function"
    },
    {
      "constant": false,
      "inputs": [
        {
          "internalType": "bytes32",
          "name": "gameid",
          "type": "bytes32"
        }
      ],
      "name": "claim",
      "outputs": [],
      "payable": false,
      "stateMutability": "nonpayable",
      "type": "function"
    },
    {
      "constant": true,
      "inputs": [],
      "name": "decimals",
      "outputs": [
        {
          "internalType": "uint8",
          "name": "",
          "type": "uint8"
        }
      ],
      "payable": false,
      "stateMutability": "view",
      "type": "function"
    },
    {
      "constant": false,
      "inputs": [],
      "name": "deposit",
      "outputs": [],
      "payable": true,
      "stateMutability": "payable",
      "type": "function"
    },
    {
      "constant": false,
      "inputs": [
        {
          "internalType": "bytes32",
          "name": "gameid",
          "type": "bytes32"
        }
      ],
      "name": "finalize",
      "outputs": [],
      "payable": false,
      "stateMutability": "nonpayable",
      "type": "function"
    },
    {
      "constant": true,
      "inputs": [
        {
          "components": [
            {
              "internalType": "address",
              "name": "player",
              "type": "address"
            },
            {
              "internalType": "bytes32",
              "name": "commit",
              "type": "bytes32"
            },
            {
              "internalType": "uint256",
              "name": "bet",
              "type": "uint256"
            },
            {
              "internalType": "bytes",
              "name": "sign",
              "type": "bytes"
            }
          ],
          "internalType": "struct Betting.Order",
          "name": "o",
          "type": "tuple"
        }
      ],
      "name": "hashOrder",
      "outputs": [
        {
          "internalType": "bytes32",
          "name": "",
          "type": "bytes32"
        }
      ],
      "payable": false,
      "stateMutability": "view",
      "type": "function"
    },
    {
      "constant": false,
      "inputs": [
        {
          "components": [
            {
              "internalType": "address",
              "name": "player",
              "type": "address"
            },
            {
              "internalType": "bytes32",
              "name": "commit",
              "type": "bytes32"
            },
            {
              "internalType": "uint256",
              "name": "bet",
              "type": "uint256"
            },
            {
              "internalType": "bytes",
              "name": "sign",
              "type": "bytes"
            }
          ],
          "internalType": "struct Betting.Order",
          "name": "o1",
          "type": "tuple"
        },
        {
          "components": [
            {
              "internalType": "address",
              "name": "player",
              "type": "address"
            },
            {
              "internalType": "bytes32",
              "name": "commit",
              "type": "bytes32"
            },
            {
              "internalType": "uint256",
              "name": "bet",
              "type": "uint256"
            },
            {
              "internalType": "bytes",
              "name": "sign",
              "type": "bytes"
            }
          ],
          "internalType": "struct Betting.Order",
          "name": "o2",
          "type": "tuple"
        }
      ],
      "name": "matchOrders",
      "outputs": [],
      "payable": false,
      "stateMutability": "nonpayable",
      "type": "function"
    },
    {
      "constant": true,
      "inputs": [
        {
          "internalType": "bytes32",
          "name": "",
          "type": "bytes32"
        }
      ],
      "name": "matches",
      "outputs": [
        {
          "internalType": "address",
          "name": "player1",
          "type": "address"
        },
        {
          "internalType": "address",
          "name": "player2",
          "type": "address"
        },
        {
          "internalType": "bytes32",
          "name": "commit1",
          "type": "bytes32"
        },
        {
          "internalType": "bytes32",
          "name": "commit2",
          "type": "bytes32"
        },
        {
          "internalType": "bytes32",
          "name": "reveal1",
          "type": "bytes32"
        },
        {
          "internalType": "bytes32",
          "name": "reveal2",
          "type": "bytes32"
        },
        {
          "internalType": "uint256",
          "name": "reward",
          "type": "uint256"
        },
        {
          "internalType": "uint256",
          "name": "deadline",
          "type": "uint256"
        }
      ],
      "payable": false,
      "stateMutability": "view",
      "type": "function"
    },
    {
      "constant": true,
      "inputs": [],
      "name": "name",
      "outputs": [
        {
          "internalType": "string",
          "name": "",
          "type": "string"
        }
      ],
      "payable": false,
      "stateMutability": "view",
      "type": "function"
    },
    {
      "constant": true,
      "inputs": [
        {
          "internalType": "bytes32",
          "name": "",
          "type": "bytes32"
        }
      ],
      "name": "orderUsed",
      "outputs": [
        {
          "internalType": "bool",
          "name": "",
          "type": "bool"
        }
      ],
      "payable": false,
      "stateMutability": "view",
      "type": "function"
    },
    {
      "constant": false,
      "inputs": [],
      "name": "receive",
      "outputs": [],
      "payable": true,
      "stateMutability": "payable",
      "type": "function"
    },
    {
      "constant": false,
      "inputs": [
        {
          "internalType": "bytes32",
          "name": "gameid",
          "type": "bytes32"
        },
        {
          "internalType": "address",
          "name": "player",
          "type": "address"
        },
        {
          "internalType": "bytes32",
          "name": "secret",
          "type": "bytes32"
        }
      ],
      "name": "reveal",
      "outputs": [],
      "payable": false,
      "stateMutability": "nonpayable",
      "type": "function"
    },
    {
      "constant": true,
      "inputs": [],
      "name": "symbol",
      "outputs": [
        {
          "internalType": "string",
          "name": "",
          "type": "string"
        }
      ],
      "payable": false,
      "stateMutability": "view",
      "type": "function"
    },
    {
      "constant": true,
      "inputs": [],
      "name": "totalSupply",
      "outputs": [
        {
          "internalType": "uint256",
          "name": "",
          "type": "uint256"
        }
      ],
      "payable": false,
      "stateMutability": "view",
      "type": "function"
    },
    {
      "constant": false,
      "inputs": [
        {
          "internalType": "address",
          "name": "recipient",
          "type": "address"
        },
        {
          "internalType": "uint256",
          "name": "amount",
          "type": "uint256"
        }
      ],
      "name": "transfer",
      "outputs": [
        {
          "internalType": "bool",
          "name": "",
          "type": "bool"
        }
      ],
      "payable": false,
      "stateMutability": "nonpayable",
      "type": "function"
    },
    {
      "constant": false,
      "inputs": [
        {
          "internalType": "address",
          "name": "sender",
          "type": "address"
        },
        {
          "internalType": "address",
          "name": "recipient",
          "type": "address"
        },
        {
          "internalType": "uint256",
          "name": "amount",
          "type": "uint256"
        }
      ],
      "name": "transferFrom",
      "outputs": [
        {
          "internalType": "bool",
          "name": "",
          "type": "bool"
        }
      ],
      "payable": false,
      "stateMutability": "nonpayable",
      "type": "function"
    },
    {
      "constant": false,
      "inputs": [
        {
          "internalType": "uint256",
          "name": "amount",
          "type": "uint256"
        }
      ],
      "name": "withdraw",
      "outputs": [],
      "payable": false,
      "stateMutability": "nonpayable",
      "type": "function"
    }
  ],
  "devdoc": {
    "methods": {}
  },
  "evm": {
    "assembly": "    /* \"contracts/Betting.sol\":112:3434  contract Betting is Escrow... */\n  mstore(0x40, 0x80)\n    /* \"contracts/Escrow.sol\":140:141  0 */\n  0x00\n    /* \"contracts/ERC20.sol\":415:658  constructor(uint256 initialsupply, string memory name, uint8 decimals, string memory symbol)... */\n  mload(0x40)\n  dup1\n  0x40\n  add\n  0x40\n  mstore\n  dup1\n  0x06\n  dup2\n  mstore\n  0x20\n  add\n  0x657363726f770000000000000000000000000000000000000000000000000000\n  dup2\n  mstore\n  pop\n    /* \"contracts/Escrow.sol\":153:155  18 */\n  0x12\n    /* \"contracts/ERC20.sol\":415:658  constructor(uint256 initialsupply, string memory name, uint8 decimals, string memory symbol)... */\n  mload(0x40)\n  dup1\n  0x40\n  add\n  0x40\n  mstore\n  dup1\n  0x06\n  dup2\n  mstore\n  0x20\n  add\n  0x657363726f770000000000000000000000000000000000000000000000000000\n  dup2\n  mstore\n  pop\n    /* \"contracts/ERC20.sol\":533:537  name */\n  dup3\n    /* \"contracts/ERC20.sol\":521:526  _name */\n  0x03\n    /* \"contracts/ERC20.sol\":521:537  _name     = name */\n  swap1\n  dup1\n  mload\n  swap1\n  0x20\n  add\n  swap1\n  tag_4\n  swap3\n  swap2\n  swap1\n  tag_5\n  jump\t// in\ntag_4:\n  pop\n    /* \"contracts/ERC20.sol\":553:559  symbol */\n  dup1\n    /* \"contracts/ERC20.sol\":541:548  _symbol */\n  0x04\n    /* \"contracts/ERC20.sol\":541:559  _symbol   = symbol */\n  swap1\n  dup1\n  mload\n  swap1\n  0x20\n  add\n  swap1\n  tag_6\n  swap3\n  swap2\n  swap1\n  tag_5\n  jump\t// in\ntag_6:\n  pop\n    /* \"contracts/ERC20.sol\":575:583  decimals */\n  dup2\n    /* \"contracts/ERC20.sol\":563:572  _decimals */\n  0x05\n  0x00\n    /* \"contracts/ERC20.sol\":563:583  _decimals = decimals */\n  0x0100\n  exp\n  dup2\n  sload\n  dup2\n  0xff\n  mul\n  not\n  and\n  swap1\n  dup4\n  0xff\n  and\n  mul\n  or\n  swap1\n  sstore\n  pop\n    /* \"contracts/ERC20.sol\":608:609  0 */\n  0x00\n    /* \"contracts/ERC20.sol\":592:605  initialsupply */\n  dup5\n    /* \"contracts/ERC20.sol\":592:609  initialsupply > 0 */\n  gt\n    /* \"contracts/ERC20.sol\":588:655  if (initialsupply > 0)... */\n  iszero\n  tag_7\n  jumpi\n    /* \"contracts/ERC20.sol\":618:650  _mint(msg.sender, initialsupply) */\n  tag_8\n    /* \"contracts/ERC20.sol\":624:634  msg.sender */\n  caller\n    /* \"contracts/ERC20.sol\":636:649  initialsupply */\n  dup6\n    /* \"contracts/ERC20.sol\":618:623  _mint */\n  shl(0x20, tag_9)\n    /* \"contracts/ERC20.sol\":618:650  _mint(msg.sender, initialsupply) */\n  0x20\n  shr\n  jump\t// in\ntag_8:\n    /* \"contracts/ERC20.sol\":588:655  if (initialsupply > 0)... */\ntag_7:\n    /* \"contracts/ERC20.sol\":415:658  constructor(uint256 initialsupply, string memory name, uint8 decimals, string memory symbol)... */\n  pop\n  pop\n  pop\n  pop\n    /* \"contracts/Betting.sol\":112:3434  contract Betting is Escrow... */\n  jump(tag_11)\n    /* \"contracts/ERC20.sol\":2528:2811  function _mint(address account, uint256 amount)... */\ntag_9:\n    /* \"contracts/ERC20.sol\":2618:2619  0 */\n  0x00\n    /* \"contracts/ERC20.sol\":2599:2620  account != address(0) */\n  0xffffffffffffffffffffffffffffffffffffffff\n  and\n    /* \"contracts/ERC20.sol\":2599:2606  account */\n  dup3\n    /* \"contracts/ERC20.sol\":2599:2620  account != address(0) */\n  0xffffffffffffffffffffffffffffffffffffffff\n  and\n  eq\n  iszero\n    /* \"contracts/ERC20.sol\":2591:2656  require(account != address(0), \"ERC20: mint to the zero address\") */\n  tag_13\n  jumpi\n  mload(0x40)\n  0x08c379a000000000000000000000000000000000000000000000000000000000\n  dup2\n  mstore\n  0x04\n  add\n  tag_14\n  swap1\n  jump(tag_15)\ntag_14:\n  mload(0x40)\n  dup1\n  swap2\n  sub\n  swap1\n  revert\ntag_13:\n    /* \"contracts/ERC20.sol\":2682:2706  _totalSupply.add(amount) */\n  tag_16\n    /* \"contracts/ERC20.sol\":2699:2705  amount */\n  dup2\n    /* \"contracts/ERC20.sol\":2682:2694  _totalSupply */\n  sload(0x02)\n    /* \"contracts/ERC20.sol\":2682:2698  _totalSupply.add */\n  or(tag_0_253, shl(0x20, tag_17))\n  swap1\n    /* \"contracts/ERC20.sol\":2682:2706  _totalSupply.add(amount) */\n  swap2\n  swap1\n  0x20\n  shr\n  jump\t// in\ntag_16:\n    /* \"contracts/ERC20.sol\":2661:2673  _totalSupply */\n  0x02\n    /* \"contracts/ERC20.sol\":2661:2706  _totalSupply       = _totalSupply.add(amount) */\n  dup2\n  swap1\n  sstore\n  pop\n    /* \"contracts/ERC20.sol\":2731:2761  _balances[account].add(amount) */\n  tag_18\n    /* \"contracts/ERC20.sol\":2754:2760  amount */\n  dup2\n    /* \"contracts/ERC20.sol\":2731:2740  _balances */\n  0x00\n    /* \"contracts/ERC20.sol\":2731:2749  _balances[account] */\n  dup1\n    /* \"contracts/ERC20.sol\":2741:2748  account */\n  dup6\n    /* \"contracts/ERC20.sol\":2731:2749  _balances[account] */\n  0xffffffffffffffffffffffffffffffffffffffff\n  and\n  0xffffffffffffffffffffffffffffffffffffffff\n  and\n  dup2\n  mstore\n  0x20\n  add\n  swap1\n  dup2\n  mstore\n  0x20\n  add\n  0x00\n  keccak256\n  sload\n    /* \"contracts/ERC20.sol\":2731:2753  _balances[account].add */\n  or(tag_0_253, shl(0x20, tag_17))\n  swap1\n    /* \"contracts/ERC20.sol\":2731:2761  _balances[account].add(amount) */\n  swap2\n  swap1\n  0x20\n  shr\n  jump\t// in\ntag_18:\n    /* \"contracts/ERC20.sol\":2710:2719  _balances */\n  0x00\n    /* \"contracts/ERC20.sol\":2710:2728  _balances[account] */\n  dup1\n    /* \"contracts/ERC20.sol\":2720:2727  account */\n  dup5\n    /* \"contracts/ERC20.sol\":2710:2728  _balances[account] */\n  0xffffffffffffffffffffffffffffffffffffffff\n  and\n  0xffffffffffffffffffffffffffffffffffffffff\n  and\n  dup2\n  mstore\n  0x20\n  add\n  swap1\n  dup2\n  mstore\n  0x20\n  add\n  0x00\n  keccak256\n    /* \"contracts/ERC20.sol\":2710:2761  _balances[account] = _balances[account].add(amount) */\n  dup2\n  swap1\n  sstore\n  pop\n    /* \"contracts/ERC20.sol\":2791:2798  account */\n  dup2\n    /* \"contracts/ERC20.sol\":2770:2807  Transfer(address(0), account, amount) */\n  0xffffffffffffffffffffffffffffffffffffffff\n  and\n    /* \"contracts/ERC20.sol\":2787:2788  0 */\n  0x00\n    /* \"contracts/ERC20.sol\":2770:2807  Transfer(address(0), account, amount) */\n  0xffffffffffffffffffffffffffffffffffffffff\n  and\n  0xddf252ad1be2c89b69c2b068fc378daa952ba7f163c4a11628f55a4df523b3ef\n    /* \"contracts/ERC20.sol\":2800:2806  amount */\n  dup4\n    /* \"contracts/ERC20.sol\":2770:2807  Transfer(address(0), account, amount) */\n  mload(0x40)\n  tag_19\n  swap2\n  swap1\n  jump(tag_20)\ntag_19:\n  mload(0x40)\n  dup1\n  swap2\n  sub\n  swap1\n  log3\n    /* \"contracts/ERC20.sol\":2528:2811  function _mint(address account, uint256 amount)... */\n  pop\n  pop\n  jump\t// out\n    /* \"contracts/libs/SafeMath.sol\":798:923  function add(uint256 a, uint256 b) internal pure returns (uint256) { return add(a, b, \"SafeMath: addition overflow\");       } */\ntag_17:\n    /* \"contracts/libs/SafeMath.sol\":856:863  uint256 */\n  0x00\n    /* \"contracts/libs/SafeMath.sol\":874:914  add(a, b, \"SafeMath: addition overflow\") */\n  tag_22\n    /* \"contracts/libs/SafeMath.sol\":878:879  a */\n  dup4\n    /* \"contracts/libs/SafeMath.sol\":881:882  b */\n  dup4\n    /* \"contracts/libs/SafeMath.sol\":874:914  add(a, b, \"SafeMath: addition overflow\") */\n  mload(0x40)\n  dup1\n  0x40\n  add\n  0x40\n  mstore\n  dup1\n  0x1b\n  dup2\n  mstore\n  0x20\n  add\n  0x536166654d6174683a206164646974696f6e206f766572666c6f770000000000\n  dup2\n  mstore\n  pop\n    /* \"contracts/libs/SafeMath.sol\":874:877  add */\n  shl(0x20, tag_23)\n    /* \"contracts/libs/SafeMath.sol\":874:914  add(a, b, \"SafeMath: addition overflow\") */\n  0x20\n  shr\n  jump\t// in\ntag_22:\n    /* \"contracts/libs/SafeMath.sol\":867:914  return add(a, b, \"SafeMath: addition overflow\") */\n  swap1\n  pop\n    /* \"contracts/libs/SafeMath.sol\":798:923  function add(uint256 a, uint256 b) internal pure returns (uint256) { return add(a, b, \"SafeMath: addition overflow\");       } */\n  swap3\n  swap2\n  pop\n  pop\n  jump\t// out\n    /* \"contracts/libs/SafeMath.sol\":47:197  function add(uint256 a, uint256 b, string memory err)... */\ntag_23:\n    /* \"contracts/libs/SafeMath.sol\":125:132  uint256 */\n  0x00\n    /* \"contracts/libs/SafeMath.sol\":139:148  uint256 c */\n  dup1\n    /* \"contracts/libs/SafeMath.sol\":155:156  b */\n  dup4\n    /* \"contracts/libs/SafeMath.sol\":151:152  a */\n  dup6\n    /* \"contracts/libs/SafeMath.sol\":151:156  a + b */\n  add\n    /* \"contracts/libs/SafeMath.sol\":139:156  uint256 c = a + b */\n  swap1\n  pop\n    /* \"contracts/libs/SafeMath.sol\":173:174  a */\n  dup5\n    /* \"contracts/libs/SafeMath.sol\":168:169  c */\n  dup2\n    /* \"contracts/libs/SafeMath.sol\":168:174  c >= a */\n  lt\n  iszero\n    /* \"contracts/libs/SafeMath.sol\":176:179  err */\n  dup4\n    /* \"contracts/libs/SafeMath.sol\":160:180  require(c >= a, err) */\n  swap1\n  tag_25\n  jumpi\n  mload(0x40)\n  0x08c379a000000000000000000000000000000000000000000000000000000000\n  dup2\n  mstore\n  0x04\n  add\n  tag_26\n  swap2\n  swap1\n  jump(tag_27)\ntag_26:\n  mload(0x40)\n  dup1\n  swap2\n  sub\n  swap1\n  revert\ntag_25:\n  pop\n    /* \"contracts/libs/SafeMath.sol\":192:193  c */\n  dup1\n    /* \"contracts/libs/SafeMath.sol\":185:193  return c */\n  swap2\n  pop\n  pop\n    /* \"contracts/libs/SafeMath.sol\":47:197  function add(uint256 a, uint256 b, string memory err)... */\n  swap4\n  swap3\n  pop\n  pop\n  pop\n  jump\t// out\n    /* \"contracts/Betting.sol\":112:3434  contract Betting is Escrow... */\ntag_5:\n  dup3\n  dup1\n  sload\n  0x01\n  dup2\n  0x01\n  and\n  iszero\n  0x0100\n  mul\n  sub\n  and\n  0x02\n  swap1\n  div\n  swap1\n  0x00\n  mstore\n  keccak256(0x00, 0x20)\n  swap1\n  0x1f\n  add\n  0x20\n  swap1\n  div\n  dup2\n  add\n  swap3\n  dup3\n  0x1f\n  lt\n  tag_29\n  jumpi\n  dup1\n  mload\n  not(0xff)\n  and\n  dup4\n  dup1\n  add\n  or\n  dup6\n  sstore\n  jump(tag_28)\ntag_29:\n  dup3\n  dup1\n  add\n  0x01\n  add\n  dup6\n  sstore\n  dup3\n  iszero\n  tag_28\n  jumpi\n  swap2\n  dup3\n  add\ntag_30:\n  dup3\n  dup2\n  gt\n  iszero\n  tag_31\n  jumpi\n  dup3\n  mload\n  dup3\n  sstore\n  swap2\n  0x20\n  add\n  swap2\n  swap1\n  0x01\n  add\n  swap1\n  jump(tag_30)\ntag_31:\ntag_28:\n  pop\n  swap1\n  pop\n  tag_32\n  swap2\n  swap1\n  tag_33\n  jump\t// in\ntag_32:\n  pop\n  swap1\n  jump\t// out\ntag_33:\n  tag_34\n  swap2\n  swap1\ntag_35:\n  dup1\n  dup3\n  gt\n  iszero\n  tag_36\n  jumpi\n  0x00\n  dup2\n  0x00\n  swap1\n  sstore\n  pop\n  0x01\n  add\n  jump(tag_35)\ntag_36:\n  pop\n  swap1\n  jump\ntag_34:\n  swap1\n  jump\t// out\n    /* \"--CODEGEN--\":5:352   */\ntag_38:\n  0x00\n    /* \"--CODEGEN--\":117:156   */\n  tag_39\n    /* \"--CODEGEN--\":150:155   */\n  dup3\n    /* \"--CODEGEN--\":117:156   */\n  jump(tag_40)\ntag_39:\n    /* \"--CODEGEN--\":168:239   */\n  tag_41\n    /* \"--CODEGEN--\":232:238   */\n  dup2\n    /* \"--CODEGEN--\":227:230   */\n  dup6\n    /* \"--CODEGEN--\":168:239   */\n  jump(tag_42)\ntag_41:\n    /* \"--CODEGEN--\":161:239   */\n  swap4\n  pop\n    /* \"--CODEGEN--\":244:296   */\n  tag_43\n    /* \"--CODEGEN--\":289:295   */\n  dup2\n    /* \"--CODEGEN--\":284:287   */\n  dup6\n    /* \"--CODEGEN--\":277:281   */\n  0x20\n    /* \"--CODEGEN--\":270:275   */\n  dup7\n    /* \"--CODEGEN--\":266:282   */\n  add\n    /* \"--CODEGEN--\":244:296   */\n  jump(tag_44)\ntag_43:\n    /* \"--CODEGEN--\":317:346   */\n  tag_45\n    /* \"--CODEGEN--\":339:345   */\n  dup2\n    /* \"--CODEGEN--\":317:346   */\n  jump(tag_46)\ntag_45:\n    /* \"--CODEGEN--\":312:315   */\n  dup5\n    /* \"--CODEGEN--\":308:347   */\n  add\n    /* \"--CODEGEN--\":301:347   */\n  swap2\n  pop\n    /* \"--CODEGEN--\":97:352   */\n  pop\n  swap3\n  swap2\n  pop\n  pop\n  jump\n    /* \"--CODEGEN--\":360:691   */\ntag_47:\n  0x00\n    /* \"--CODEGEN--\":520:587   */\n  tag_48\n    /* \"--CODEGEN--\":584:586   */\n  0x1f\n    /* \"--CODEGEN--\":579:582   */\n  dup4\n    /* \"--CODEGEN--\":520:587   */\n  jump(tag_42)\ntag_48:\n    /* \"--CODEGEN--\":513:587   */\n  swap2\n  pop\n    /* \"--CODEGEN--\":620:653   */\n  0x45524332303a206d696e7420746f20746865207a65726f206164647265737300\n    /* \"--CODEGEN--\":616:617   */\n  0x00\n    /* \"--CODEGEN--\":611:614   */\n  dup4\n    /* \"--CODEGEN--\":607:618   */\n  add\n    /* \"--CODEGEN--\":600:654   */\n  mstore\n    /* \"--CODEGEN--\":682:684   */\n  0x20\n    /* \"--CODEGEN--\":677:680   */\n  dup3\n    /* \"--CODEGEN--\":673:685   */\n  add\n    /* \"--CODEGEN--\":666:685   */\n  swap1\n  pop\n    /* \"--CODEGEN--\":506:691   */\n  swap2\n  swap1\n  pop\n  jump\n    /* \"--CODEGEN--\":699:812   */\ntag_49:\n    /* \"--CODEGEN--\":782:806   */\n  tag_50\n    /* \"--CODEGEN--\":800:805   */\n  dup2\n    /* \"--CODEGEN--\":782:806   */\n  jump(tag_51)\ntag_50:\n    /* \"--CODEGEN--\":777:780   */\n  dup3\n    /* \"--CODEGEN--\":770:807   */\n  mstore\n    /* \"--CODEGEN--\":764:812   */\n  pop\n  pop\n  jump\n    /* \"--CODEGEN--\":819:1120   */\ntag_27:\n  0x00\n    /* \"--CODEGEN--\":957:959   */\n  0x20\n    /* \"--CODEGEN--\":946:955   */\n  dup3\n    /* \"--CODEGEN--\":942:960   */\n  add\n    /* \"--CODEGEN--\":934:960   */\n  swap1\n  pop\n    /* \"--CODEGEN--\":1007:1016   */\n  dup2\n    /* \"--CODEGEN--\":1001:1005   */\n  dup2\n    /* \"--CODEGEN--\":997:1017   */\n  sub\n    /* \"--CODEGEN--\":993:994   */\n  0x00\n    /* \"--CODEGEN--\":982:991   */\n  dup4\n    /* \"--CODEGEN--\":978:995   */\n  add\n    /* \"--CODEGEN--\":971:1018   */\n  mstore\n    /* \"--CODEGEN--\":1032:1110   */\n  tag_52\n    /* \"--CODEGEN--\":1105:1109   */\n  dup2\n    /* \"--CODEGEN--\":1096:1102   */\n  dup5\n    /* \"--CODEGEN--\":1032:1110   */\n  jump(tag_38)\ntag_52:\n    /* \"--CODEGEN--\":1024:1110   */\n  swap1\n  pop\n    /* \"--CODEGEN--\":928:1120   */\n  swap3\n  swap2\n  pop\n  pop\n  jump\n    /* \"--CODEGEN--\":1127:1534   */\ntag_15:\n  0x00\n    /* \"--CODEGEN--\":1318:1320   */\n  0x20\n    /* \"--CODEGEN--\":1307:1316   */\n  dup3\n    /* \"--CODEGEN--\":1303:1321   */\n  add\n    /* \"--CODEGEN--\":1295:1321   */\n  swap1\n  pop\n    /* \"--CODEGEN--\":1368:1377   */\n  dup2\n    /* \"--CODEGEN--\":1362:1366   */\n  dup2\n    /* \"--CODEGEN--\":1358:1378   */\n  sub\n    /* \"--CODEGEN--\":1354:1355   */\n  0x00\n    /* \"--CODEGEN--\":1343:1352   */\n  dup4\n    /* \"--CODEGEN--\":1339:1356   */\n  add\n    /* \"--CODEGEN--\":1332:1379   */\n  mstore\n    /* \"--CODEGEN--\":1393:1524   */\n  tag_53\n    /* \"--CODEGEN--\":1519:1523   */\n  dup2\n    /* \"--CODEGEN--\":1393:1524   */\n  jump(tag_47)\ntag_53:\n    /* \"--CODEGEN--\":1385:1524   */\n  swap1\n  pop\n    /* \"--CODEGEN--\":1289:1534   */\n  swap2\n  swap1\n  pop\n  jump\n    /* \"--CODEGEN--\":1541:1754   */\ntag_20:\n  0x00\n    /* \"--CODEGEN--\":1659:1661   */\n  0x20\n    /* \"--CODEGEN--\":1648:1657   */\n  dup3\n    /* \"--CODEGEN--\":1644:1662   */\n  add\n    /* \"--CODEGEN--\":1636:1662   */\n  swap1\n  pop\n    /* \"--CODEGEN--\":1673:1744   */\n  tag_54\n    /* \"--CODEGEN--\":1741:1742   */\n  0x00\n    /* \"--CODEGEN--\":1730:1739   */\n  dup4\n    /* \"--CODEGEN--\":1726:1743   */\n  add\n    /* \"--CODEGEN--\":1717:1723   */\n  dup5\n    /* \"--CODEGEN--\":1673:1744   */\n  jump(tag_49)\ntag_54:\n    /* \"--CODEGEN--\":1630:1754   */\n  swap3\n  swap2\n  pop\n  pop\n  jump\n    /* \"--CODEGEN--\":1761:1883   */\ntag_40:\n  0x00\n    /* \"--CODEGEN--\":1855:1860   */\n  dup2\n    /* \"--CODEGEN--\":1849:1861   */\n  mload\n    /* \"--CODEGEN--\":1839:1861   */\n  swap1\n  pop\n    /* \"--CODEGEN--\":1820:1883   */\n  swap2\n  swap1\n  pop\n  jump\n    /* \"--CODEGEN--\":1891:2054   */\ntag_42:\n  0x00\n    /* \"--CODEGEN--\":2006:2012   */\n  dup3\n    /* \"--CODEGEN--\":2001:2004   */\n  dup3\n    /* \"--CODEGEN--\":1994:2013   */\n  mstore\n    /* \"--CODEGEN--\":2043:2047   */\n  0x20\n    /* \"--CODEGEN--\":2038:2041   */\n  dup3\n    /* \"--CODEGEN--\":2034:2048   */\n  add\n    /* \"--CODEGEN--\":2019:2048   */\n  swap1\n  pop\n    /* \"--CODEGEN--\":1987:2054   */\n  swap3\n  swap2\n  pop\n  pop\n  jump\n    /* \"--CODEGEN--\":2062:2134   */\ntag_51:\n  0x00\n    /* \"--CODEGEN--\":2124:2129   */\n  dup2\n    /* \"--CODEGEN--\":2113:2129   */\n  swap1\n  pop\n    /* \"--CODEGEN--\":2107:2134   */\n  swap2\n  swap1\n  pop\n  jump\n    /* \"--CODEGEN--\":2142:2410   */\ntag_44:\n    /* \"--CODEGEN--\":2207:2208   */\n  0x00\n    /* \"--CODEGEN--\":2214:2315   */\ntag_55:\n    /* \"--CODEGEN--\":2228:2234   */\n  dup4\n    /* \"--CODEGEN--\":2225:2226   */\n  dup2\n    /* \"--CODEGEN--\":2222:2235   */\n  lt\n    /* \"--CODEGEN--\":2214:2315   */\n  iszero\n  tag_57\n  jumpi\n    /* \"--CODEGEN--\":2304:2305   */\n  dup1\n    /* \"--CODEGEN--\":2299:2302   */\n  dup3\n    /* \"--CODEGEN--\":2295:2306   */\n  add\n    /* \"--CODEGEN--\":2289:2307   */\n  mload\n    /* \"--CODEGEN--\":2285:2286   */\n  dup2\n    /* \"--CODEGEN--\":2280:2283   */\n  dup5\n    /* \"--CODEGEN--\":2276:2287   */\n  add\n    /* \"--CODEGEN--\":2269:2308   */\n  mstore\n    /* \"--CODEGEN--\":2250:2252   */\n  0x20\n    /* \"--CODEGEN--\":2247:2248   */\n  dup2\n    /* \"--CODEGEN--\":2243:2253   */\n  add\n    /* \"--CODEGEN--\":2238:2253   */\n  swap1\n  pop\n    /* \"--CODEGEN--\":2214:2315   */\n  jump(tag_55)\ntag_57:\n    /* \"--CODEGEN--\":2330:2336   */\n  dup4\n    /* \"--CODEGEN--\":2327:2328   */\n  dup2\n    /* \"--CODEGEN--\":2324:2337   */\n  gt\n    /* \"--CODEGEN--\":2321:2323   */\n  iszero\n  tag_58\n  jumpi\n    /* \"--CODEGEN--\":2395:2396   */\n  0x00\n    /* \"--CODEGEN--\":2386:2392   */\n  dup5\n    /* \"--CODEGEN--\":2381:2384   */\n  dup5\n    /* \"--CODEGEN--\":2377:2393   */\n  add\n    /* \"--CODEGEN--\":2370:2397   */\n  mstore\n    /* \"--CODEGEN--\":2321:2323   */\ntag_58:\n    /* \"--CODEGEN--\":2191:2410   */\n  pop\n  pop\n  pop\n  pop\n  jump\n    /* \"--CODEGEN--\":2418:2515   */\ntag_46:\n  0x00\n    /* \"--CODEGEN--\":2506:2508   */\n  0x1f\n    /* \"--CODEGEN--\":2502:2509   */\n  not\n    /* \"--CODEGEN--\":2497:2499   */\n  0x1f\n    /* \"--CODEGEN--\":2490:2495   */\n  dup4\n    /* \"--CODEGEN--\":2486:2500   */\n  add\n    /* \"--CODEGEN--\":2482:2510   */\n  and\n    /* \"--CODEGEN--\":2472:2510   */\n  swap1\n  pop\n    /* \"--CODEGEN--\":2466:2515   */\n  swap2\n  swap1\n  pop\n  jump\n    /* \"contracts/Betting.sol\":112:3434  contract Betting is Escrow... */\ntag_11:\n  dataSize(sub_0)\n  dup1\n  dataOffset(sub_0)\n  0x00\n  codecopy\n  0x00\n  return\nstop\n\nsub_0: assembly {\n        /* \"contracts/Betting.sol\":112:3434  contract Betting is Escrow... */\n      mstore(0x40, 0x80)\n      jumpi(tag_1, lt(calldatasize, 0x04))\n      shr(0xe0, calldataload(0x00))\n      dup1\n      0x877b954a\n      gt\n      tag_21\n      jumpi\n      dup1\n      0xa9059cbb\n      gt\n      tag_22\n      jumpi\n      dup1\n      0xa9059cbb\n      eq\n      tag_16\n      jumpi\n      dup1\n      0xae21875e\n      eq\n      tag_17\n      jumpi\n      dup1\n      0xbd66528a\n      eq\n      tag_18\n      jumpi\n      dup1\n      0xd0e30db0\n      eq\n      tag_19\n      jumpi\n      dup1\n      0xdd62ed3e\n      eq\n      tag_20\n      jumpi\n      jump(tag_1)\n    tag_22:\n      dup1\n      0x877b954a\n      eq\n      tag_11\n      jumpi\n      dup1\n      0x92584d80\n      eq\n      tag_12\n      jumpi\n      dup1\n      0x95d89b41\n      eq\n      tag_13\n      jumpi\n      dup1\n      0x9fe9ada3\n      eq\n      tag_14\n      jumpi\n      dup1\n      0xa3e76c0f\n      eq\n      tag_15\n      jumpi\n      jump(tag_1)\n    tag_21:\n      dup1\n      0x2e1a7d4d\n      gt\n      tag_23\n      jumpi\n      dup1\n      0x2e1a7d4d\n      eq\n      tag_6\n      jumpi\n      dup1\n      0x313ce567\n      eq\n      tag_7\n      jumpi\n      dup1\n      0x39a7aa23\n      eq\n      tag_8\n      jumpi\n      dup1\n      0x55640c4f\n      eq\n      tag_9\n      jumpi\n      dup1\n      0x70a08231\n      eq\n      tag_10\n      jumpi\n      jump(tag_1)\n    tag_23:\n      dup1\n      0x06fdde03\n      eq\n      tag_2\n      jumpi\n      dup1\n      0x095ea7b3\n      eq\n      tag_3\n      jumpi\n      dup1\n      0x18160ddd\n      eq\n      tag_4\n      jumpi\n      dup1\n      0x23b872dd\n      eq\n      tag_5\n      jumpi\n    tag_1:\n      0x00\n      dup1\n      revert\n        /* \"contracts/ERC20.sol\":661:735  function name()... */\n    tag_2:\n      callvalue\n        /* \"--CODEGEN--\":8:17   */\n      dup1\n        /* \"--CODEGEN--\":5:7   */\n      iszero\n      tag_24\n      jumpi\n        /* \"--CODEGEN--\":30:31   */\n      0x00\n        /* \"--CODEGEN--\":27:28   */\n      dup1\n        /* \"--CODEGEN--\":20:32   */\n      revert\n        /* \"--CODEGEN--\":5:7   */\n    tag_24:\n        /* \"contracts/ERC20.sol\":661:735  function name()... */\n      pop\n      tag_25\n      tag_26\n      jump\t// in\n    tag_25:\n      mload(0x40)\n      tag_27\n      swap2\n      swap1\n      jump(tag_28)\n    tag_27:\n      mload(0x40)\n      dup1\n      swap2\n      sub\n      swap1\n      return\n        /* \"contracts/ERC20.sol\":1213:1347  function approve(address spender, uint256 amount)... */\n    tag_3:\n      callvalue\n        /* \"--CODEGEN--\":8:17   */\n      dup1\n        /* \"--CODEGEN--\":5:7   */\n      iszero\n      tag_29\n      jumpi\n        /* \"--CODEGEN--\":30:31   */\n      0x00\n        /* \"--CODEGEN--\":27:28   */\n      dup1\n        /* \"--CODEGEN--\":20:32   */\n      revert\n        /* \"--CODEGEN--\":5:7   */\n    tag_29:\n        /* \"contracts/ERC20.sol\":1213:1347  function approve(address spender, uint256 amount)... */\n      pop\n      tag_30\n      0x04\n      dup1\n      calldatasize\n      sub\n      tag_31\n      swap2\n      swap1\n      dup2\n      add\n      swap1\n      jump(tag_32)\n    tag_31:\n      tag_33\n      jump\t// in\n    tag_30:\n      mload(0x40)\n      tag_34\n      swap2\n      swap1\n      jump(tag_35)\n    tag_34:\n      mload(0x40)\n      dup1\n      swap2\n      sub\n      swap1\n      return\n        /* \"contracts/ERC20.sol\":896:978  function totalSupply()... */\n    tag_4:\n      callvalue\n        /* \"--CODEGEN--\":8:17   */\n      dup1\n        /* \"--CODEGEN--\":5:7   */\n      iszero\n      tag_36\n      jumpi\n        /* \"--CODEGEN--\":30:31   */\n      0x00\n        /* \"--CODEGEN--\":27:28   */\n      dup1\n        /* \"--CODEGEN--\":20:32   */\n      revert\n        /* \"--CODEGEN--\":5:7   */\n    tag_36:\n        /* \"contracts/ERC20.sol\":896:978  function totalSupply()... */\n      pop\n      tag_37\n      tag_38\n      jump\t// in\n    tag_37:\n      mload(0x40)\n      tag_39\n      swap2\n      swap1\n      jump(tag_40)\n    tag_39:\n      mload(0x40)\n      dup1\n      swap2\n      sub\n      swap1\n      return\n        /* \"contracts/ERC20.sol\":1493:1770  function transferFrom(address sender, address recipient, uint256 amount)... */\n    tag_5:\n      callvalue\n        /* \"--CODEGEN--\":8:17   */\n      dup1\n        /* \"--CODEGEN--\":5:7   */\n      iszero\n      tag_41\n      jumpi\n        /* \"--CODEGEN--\":30:31   */\n      0x00\n        /* \"--CODEGEN--\":27:28   */\n      dup1\n        /* \"--CODEGEN--\":20:32   */\n      revert\n        /* \"--CODEGEN--\":5:7   */\n    tag_41:\n        /* \"contracts/ERC20.sol\":1493:1770  function transferFrom(address sender, address recipient, uint256 amount)... */\n      pop\n      tag_42\n      0x04\n      dup1\n      calldatasize\n      sub\n      tag_43\n      swap2\n      swap1\n      dup2\n      add\n      swap1\n      jump(tag_44)\n    tag_43:\n      tag_45\n      jump\t// in\n    tag_42:\n      mload(0x40)\n      tag_46\n      swap2\n      swap1\n      jump(tag_35)\n    tag_46:\n      mload(0x40)\n      dup1\n      swap2\n      sub\n      swap1\n      return\n        /* \"contracts/Escrow.sol\":327:524  function withdraw(uint256 amount)... */\n    tag_6:\n      callvalue\n        /* \"--CODEGEN--\":8:17   */\n      dup1\n        /* \"--CODEGEN--\":5:7   */\n      iszero\n      tag_47\n      jumpi\n        /* \"--CODEGEN--\":30:31   */\n      0x00\n        /* \"--CODEGEN--\":27:28   */\n      dup1\n        /* \"--CODEGEN--\":20:32   */\n      revert\n        /* \"--CODEGEN--\":5:7   */\n    tag_47:\n        /* \"contracts/Escrow.sol\":327:524  function withdraw(uint256 amount)... */\n      pop\n      tag_48\n      0x04\n      dup1\n      calldatasize\n      sub\n      tag_49\n      swap2\n      swap1\n      dup2\n      add\n      swap1\n      jump(tag_50)\n    tag_49:\n      tag_51\n      jump\t// in\n    tag_48:\n      stop\n        /* \"contracts/ERC20.sol\":819:893  function decimals()... */\n    tag_7:\n      callvalue\n        /* \"--CODEGEN--\":8:17   */\n      dup1\n        /* \"--CODEGEN--\":5:7   */\n      iszero\n      tag_52\n      jumpi\n        /* \"--CODEGEN--\":30:31   */\n      0x00\n        /* \"--CODEGEN--\":27:28   */\n      dup1\n        /* \"--CODEGEN--\":20:32   */\n      revert\n        /* \"--CODEGEN--\":5:7   */\n    tag_52:\n        /* \"contracts/ERC20.sol\":819:893  function decimals()... */\n      pop\n      tag_53\n      tag_54\n      jump\t// in\n    tag_53:\n      mload(0x40)\n      tag_55\n      swap2\n      swap1\n      jump(tag_56)\n    tag_55:\n      mload(0x40)\n      dup1\n      swap2\n      sub\n      swap1\n      return\n        /* \"contracts/Betting.sol\":1734:2307  function reveal(bytes32 gameid, address player, bytes32 secret)... */\n    tag_8:\n      callvalue\n        /* \"--CODEGEN--\":8:17   */\n      dup1\n        /* \"--CODEGEN--\":5:7   */\n      iszero\n      tag_57\n      jumpi\n        /* \"--CODEGEN--\":30:31   */\n      0x00\n        /* \"--CODEGEN--\":27:28   */\n      dup1\n        /* \"--CODEGEN--\":20:32   */\n      revert\n        /* \"--CODEGEN--\":5:7   */\n    tag_57:\n        /* \"contracts/Betting.sol\":1734:2307  function reveal(bytes32 gameid, address player, bytes32 secret)... */\n      pop\n      tag_58\n      0x04\n      dup1\n      calldatasize\n      sub\n      tag_59\n      swap2\n      swap1\n      dup2\n      add\n      swap1\n      jump(tag_60)\n    tag_59:\n      tag_61\n      jump\t// in\n    tag_58:\n      stop\n        /* \"contracts/Betting.sol\":655:1731  function matchOrders(Order memory o1, Order memory o2)... */\n    tag_9:\n      callvalue\n        /* \"--CODEGEN--\":8:17   */\n      dup1\n        /* \"--CODEGEN--\":5:7   */\n      iszero\n      tag_62\n      jumpi\n        /* \"--CODEGEN--\":30:31   */\n      0x00\n        /* \"--CODEGEN--\":27:28   */\n      dup1\n        /* \"--CODEGEN--\":20:32   */\n      revert\n        /* \"--CODEGEN--\":5:7   */\n    tag_62:\n        /* \"contracts/Betting.sol\":655:1731  function matchOrders(Order memory o1, Order memory o2)... */\n      pop\n      tag_63\n      0x04\n      dup1\n      calldatasize\n      sub\n      tag_64\n      swap2\n      swap1\n      dup2\n      add\n      swap1\n      jump(tag_65)\n    tag_64:\n      tag_66\n      jump\t// in\n    tag_63:\n      stop\n        /* \"contracts/ERC20.sol\":981:1082  function balanceOf(address account)... */\n    tag_10:\n      callvalue\n        /* \"--CODEGEN--\":8:17   */\n      dup1\n        /* \"--CODEGEN--\":5:7   */\n      iszero\n      tag_67\n      jumpi\n        /* \"--CODEGEN--\":30:31   */\n      0x00\n        /* \"--CODEGEN--\":27:28   */\n      dup1\n        /* \"--CODEGEN--\":20:32   */\n      revert\n        /* \"--CODEGEN--\":5:7   */\n    tag_67:\n        /* \"contracts/ERC20.sol\":981:1082  function balanceOf(address account)... */\n      pop\n      tag_68\n      0x04\n      dup1\n      calldatasize\n      sub\n      tag_69\n      swap2\n      swap1\n      dup2\n      add\n      swap1\n      jump(tag_70)\n    tag_69:\n      tag_71\n      jump\t// in\n    tag_68:\n      mload(0x40)\n      tag_72\n      swap2\n      swap1\n      jump(tag_40)\n    tag_72:\n      mload(0x40)\n      dup1\n      swap2\n      sub\n      swap1\n      return\n        /* \"contracts/Betting.sol\":430:472  mapping(bytes32 => bool)  public orderUsed */\n    tag_11:\n      callvalue\n        /* \"--CODEGEN--\":8:17   */\n      dup1\n        /* \"--CODEGEN--\":5:7   */\n      iszero\n      tag_73\n      jumpi\n        /* \"--CODEGEN--\":30:31   */\n      0x00\n        /* \"--CODEGEN--\":27:28   */\n      dup1\n        /* \"--CODEGEN--\":20:32   */\n      revert\n        /* \"--CODEGEN--\":5:7   */\n    tag_73:\n        /* \"contracts/Betting.sol\":430:472  mapping(bytes32 => bool)  public orderUsed */\n      pop\n      tag_74\n      0x04\n      dup1\n      calldatasize\n      sub\n      tag_75\n      swap2\n      swap1\n      dup2\n      add\n      swap1\n      jump(tag_76)\n    tag_75:\n      tag_77\n      jump\t// in\n    tag_74:\n      mload(0x40)\n      tag_78\n      swap2\n      swap1\n      jump(tag_35)\n    tag_78:\n      mload(0x40)\n      dup1\n      swap2\n      sub\n      swap1\n      return\n        /* \"contracts/Betting.sol\":2786:3220  function finalize(bytes32 gameid)... */\n    tag_12:\n      callvalue\n        /* \"--CODEGEN--\":8:17   */\n      dup1\n        /* \"--CODEGEN--\":5:7   */\n      iszero\n      tag_79\n      jumpi\n        /* \"--CODEGEN--\":30:31   */\n      0x00\n        /* \"--CODEGEN--\":27:28   */\n      dup1\n        /* \"--CODEGEN--\":20:32   */\n      revert\n        /* \"--CODEGEN--\":5:7   */\n    tag_79:\n        /* \"contracts/Betting.sol\":2786:3220  function finalize(bytes32 gameid)... */\n      pop\n      tag_80\n      0x04\n      dup1\n      calldatasize\n      sub\n      tag_81\n      swap2\n      swap1\n      dup2\n      add\n      swap1\n      jump(tag_76)\n    tag_81:\n      tag_82\n      jump\t// in\n    tag_80:\n      stop\n        /* \"contracts/ERC20.sol\":738:816  function symbol()... */\n    tag_13:\n      callvalue\n        /* \"--CODEGEN--\":8:17   */\n      dup1\n        /* \"--CODEGEN--\":5:7   */\n      iszero\n      tag_83\n      jumpi\n        /* \"--CODEGEN--\":30:31   */\n      0x00\n        /* \"--CODEGEN--\":27:28   */\n      dup1\n        /* \"--CODEGEN--\":20:32   */\n      revert\n        /* \"--CODEGEN--\":5:7   */\n    tag_83:\n        /* \"contracts/ERC20.sol\":738:816  function symbol()... */\n      pop\n      tag_84\n      tag_85\n      jump\t// in\n    tag_84:\n      mload(0x40)\n      tag_86\n      swap2\n      swap1\n      jump(tag_28)\n    tag_86:\n      mload(0x40)\n      dup1\n      swap2\n      sub\n      swap1\n      return\n        /* \"contracts/Betting.sol\":475:515  mapping(bytes32 => Match) public matches */\n    tag_14:\n      callvalue\n        /* \"--CODEGEN--\":8:17   */\n      dup1\n        /* \"--CODEGEN--\":5:7   */\n      iszero\n      tag_87\n      jumpi\n        /* \"--CODEGEN--\":30:31   */\n      0x00\n        /* \"--CODEGEN--\":27:28   */\n      dup1\n        /* \"--CODEGEN--\":20:32   */\n      revert\n        /* \"--CODEGEN--\":5:7   */\n    tag_87:\n        /* \"contracts/Betting.sol\":475:515  mapping(bytes32 => Match) public matches */\n      pop\n      tag_88\n      0x04\n      dup1\n      calldatasize\n      sub\n      tag_89\n      swap2\n      swap1\n      dup2\n      add\n      swap1\n      jump(tag_76)\n    tag_89:\n      tag_90\n      jump\t// in\n    tag_88:\n      mload(0x40)\n      tag_91\n      swap9\n      swap8\n      swap7\n      swap6\n      swap5\n      swap4\n      swap3\n      swap2\n      swap1\n      jump(tag_92)\n    tag_91:\n      mload(0x40)\n      dup1\n      swap2\n      sub\n      swap1\n      return\n        /* \"contracts/Escrow.sol\":173:247  function receive()... */\n    tag_15:\n      tag_93\n      tag_94\n      jump\t// in\n    tag_93:\n      stop\n        /* \"contracts/ERC20.sol\":1350:1490  function transfer(address recipient, uint256 amount)... */\n    tag_16:\n      callvalue\n        /* \"--CODEGEN--\":8:17   */\n      dup1\n        /* \"--CODEGEN--\":5:7   */\n      iszero\n      tag_95\n      jumpi\n        /* \"--CODEGEN--\":30:31   */\n      0x00\n        /* \"--CODEGEN--\":27:28   */\n      dup1\n        /* \"--CODEGEN--\":20:32   */\n      revert\n        /* \"--CODEGEN--\":5:7   */\n    tag_95:\n        /* \"contracts/ERC20.sol\":1350:1490  function transfer(address recipient, uint256 amount)... */\n      pop\n      tag_96\n      0x04\n      dup1\n      calldatasize\n      sub\n      tag_97\n      swap2\n      swap1\n      dup2\n      add\n      swap1\n      jump(tag_32)\n    tag_97:\n      tag_98\n      jump\t// in\n    tag_96:\n      mload(0x40)\n      tag_99\n      swap2\n      swap1\n      jump(tag_35)\n    tag_99:\n      mload(0x40)\n      dup1\n      swap2\n      sub\n      swap1\n      return\n        /* \"contracts/Betting.sol\":3223:3432  function hashOrder(Order memory o)... */\n    tag_17:\n      callvalue\n        /* \"--CODEGEN--\":8:17   */\n      dup1\n        /* \"--CODEGEN--\":5:7   */\n      iszero\n      tag_100\n      jumpi\n        /* \"--CODEGEN--\":30:31   */\n      0x00\n        /* \"--CODEGEN--\":27:28   */\n      dup1\n        /* \"--CODEGEN--\":20:32   */\n      revert\n        /* \"--CODEGEN--\":5:7   */\n    tag_100:\n        /* \"contracts/Betting.sol\":3223:3432  function hashOrder(Order memory o)... */\n      pop\n      tag_101\n      0x04\n      dup1\n      calldatasize\n      sub\n      tag_102\n      swap2\n      swap1\n      dup2\n      add\n      swap1\n      jump(tag_103)\n    tag_102:\n      tag_104\n      jump\t// in\n    tag_101:\n      mload(0x40)\n      tag_105\n      swap2\n      swap1\n      jump(tag_106)\n    tag_105:\n      mload(0x40)\n      dup1\n      swap2\n      sub\n      swap1\n      return\n        /* \"contracts/Betting.sol\":2310:2783  function claim(bytes32 gameid)... */\n    tag_18:\n      callvalue\n        /* \"--CODEGEN--\":8:17   */\n      dup1\n        /* \"--CODEGEN--\":5:7   */\n      iszero\n      tag_107\n      jumpi\n        /* \"--CODEGEN--\":30:31   */\n      0x00\n        /* \"--CODEGEN--\":27:28   */\n      dup1\n        /* \"--CODEGEN--\":20:32   */\n      revert\n        /* \"--CODEGEN--\":5:7   */\n    tag_107:\n        /* \"contracts/Betting.sol\":2310:2783  function claim(bytes32 gameid)... */\n      pop\n      tag_108\n      0x04\n      dup1\n      calldatasize\n      sub\n      tag_109\n      swap2\n      swap1\n      dup2\n      add\n      swap1\n      jump(tag_76)\n    tag_109:\n      tag_110\n      jump\t// in\n    tag_108:\n      stop\n        /* \"contracts/Escrow.sol\":250:324  function deposit()... */\n    tag_19:\n      tag_111\n      tag_112\n      jump\t// in\n    tag_111:\n      stop\n        /* \"contracts/ERC20.sol\":1085:1210  function allowance(address owner, address spender)... */\n    tag_20:\n      callvalue\n        /* \"--CODEGEN--\":8:17   */\n      dup1\n        /* \"--CODEGEN--\":5:7   */\n      iszero\n      tag_113\n      jumpi\n        /* \"--CODEGEN--\":30:31   */\n      0x00\n        /* \"--CODEGEN--\":27:28   */\n      dup1\n        /* \"--CODEGEN--\":20:32   */\n      revert\n        /* \"--CODEGEN--\":5:7   */\n    tag_113:\n        /* \"contracts/ERC20.sol\":1085:1210  function allowance(address owner, address spender)... */\n      pop\n      tag_114\n      0x04\n      dup1\n      calldatasize\n      sub\n      tag_115\n      swap2\n      swap1\n      dup2\n      add\n      swap1\n      jump(tag_116)\n    tag_115:\n      tag_117\n      jump\t// in\n    tag_114:\n      mload(0x40)\n      tag_118\n      swap2\n      swap1\n      jump(tag_40)\n    tag_118:\n      mload(0x40)\n      dup1\n      swap2\n      sub\n      swap1\n      return\n        /* \"contracts/ERC20.sol\":661:735  function name()... */\n    tag_26:\n        /* \"contracts/ERC20.sol\":699:712  string memory */\n      0x60\n        /* \"contracts/ERC20.sol\":726:731  _name */\n      0x03\n        /* \"contracts/ERC20.sol\":719:731  return _name */\n      dup1\n      sload\n      0x01\n      dup2\n      0x01\n      and\n      iszero\n      0x0100\n      mul\n      sub\n      and\n      0x02\n      swap1\n      div\n      dup1\n      0x1f\n      add\n      0x20\n      dup1\n      swap2\n      div\n      mul\n      0x20\n      add\n      mload(0x40)\n      swap1\n      dup2\n      add\n      0x40\n      mstore\n      dup1\n      swap3\n      swap2\n      swap1\n      dup2\n      dup2\n      mstore\n      0x20\n      add\n      dup3\n      dup1\n      sload\n      0x01\n      dup2\n      0x01\n      and\n      iszero\n      0x0100\n      mul\n      sub\n      and\n      0x02\n      swap1\n      div\n      dup1\n      iszero\n      tag_120\n      jumpi\n      dup1\n      0x1f\n      lt\n      tag_121\n      jumpi\n      0x0100\n      dup1\n      dup4\n      sload\n      div\n      mul\n      dup4\n      mstore\n      swap2\n      0x20\n      add\n      swap2\n      jump(tag_120)\n    tag_121:\n      dup3\n      add\n      swap2\n      swap1\n      0x00\n      mstore\n      keccak256(0x00, 0x20)\n      swap1\n    tag_122:\n      dup2\n      sload\n      dup2\n      mstore\n      swap1\n      0x01\n      add\n      swap1\n      0x20\n      add\n      dup1\n      dup4\n      gt\n      tag_122\n      jumpi\n      dup3\n      swap1\n      sub\n      0x1f\n      and\n      dup3\n      add\n      swap2\n    tag_120:\n      pop\n      pop\n      pop\n      pop\n      pop\n      swap1\n      pop\n        /* \"contracts/ERC20.sol\":661:735  function name()... */\n      swap1\n      jump\t// out\n        /* \"contracts/ERC20.sol\":1213:1347  function approve(address spender, uint256 amount)... */\n    tag_33:\n        /* \"contracts/ERC20.sol\":1280:1284  bool */\n      0x00\n        /* \"contracts/ERC20.sol\":1291:1328  _approve(msg.sender, spender, amount) */\n      tag_124\n        /* \"contracts/ERC20.sol\":1300:1310  msg.sender */\n      caller\n        /* \"contracts/ERC20.sol\":1312:1319  spender */\n      dup5\n        /* \"contracts/ERC20.sol\":1321:1327  amount */\n      dup5\n        /* \"contracts/ERC20.sol\":1291:1299  _approve */\n      tag_125\n        /* \"contracts/ERC20.sol\":1291:1328  _approve(msg.sender, spender, amount) */\n      jump\t// in\n    tag_124:\n        /* \"contracts/ERC20.sol\":1339:1343  true */\n      0x01\n        /* \"contracts/ERC20.sol\":1332:1343  return true */\n      swap1\n      pop\n        /* \"contracts/ERC20.sol\":1213:1347  function approve(address spender, uint256 amount)... */\n      swap3\n      swap2\n      pop\n      pop\n      jump\t// out\n        /* \"contracts/ERC20.sol\":896:978  function totalSupply()... */\n    tag_38:\n        /* \"contracts/ERC20.sol\":941:948  uint256 */\n      0x00\n        /* \"contracts/ERC20.sol\":962:974  _totalSupply */\n      sload(0x02)\n        /* \"contracts/ERC20.sol\":955:974  return _totalSupply */\n      swap1\n      pop\n        /* \"contracts/ERC20.sol\":896:978  function totalSupply()... */\n      swap1\n      jump\t// out\n        /* \"contracts/ERC20.sol\":1493:1770  function transferFrom(address sender, address recipient, uint256 amount)... */\n    tag_45:\n        /* \"contracts/ERC20.sol\":1583:1587  bool */\n      0x00\n        /* \"contracts/ERC20.sol\":1594:1630  _transfer(sender, recipient, amount) */\n      tag_128\n        /* \"contracts/ERC20.sol\":1604:1610  sender */\n      dup5\n        /* \"contracts/ERC20.sol\":1612:1621  recipient */\n      dup5\n        /* \"contracts/ERC20.sol\":1623:1629  amount */\n      dup5\n        /* \"contracts/ERC20.sol\":1594:1603  _transfer */\n      tag_129\n        /* \"contracts/ERC20.sol\":1594:1630  _transfer(sender, recipient, amount) */\n      jump\t// in\n    tag_128:\n        /* \"contracts/ERC20.sol\":1634:1751  _approve(sender, msg.sender, _allowances[sender][msg.sender].sub(amount, \"ERC20: transfer amount exceeds allowance\")) */\n      tag_130\n        /* \"contracts/ERC20.sol\":1643:1649  sender */\n      dup5\n        /* \"contracts/ERC20.sol\":1651:1661  msg.sender */\n      caller\n        /* \"contracts/ERC20.sol\":1663:1750  _allowances[sender][msg.sender].sub(amount, \"ERC20: transfer amount exceeds allowance\") */\n      tag_131\n        /* \"contracts/ERC20.sol\":1699:1705  amount */\n      dup6\n        /* \"contracts/ERC20.sol\":1663:1750  _allowances[sender][msg.sender].sub(amount, \"ERC20: transfer amount exceeds allowance\") */\n      mload(0x40)\n      dup1\n      0x60\n      add\n      0x40\n      mstore\n      dup1\n      0x28\n      dup2\n      mstore\n      0x20\n      add\n      data_974d1b4421da69cc60b481194f0dad36a5bb4e23da810da7a7fb30cdba178330\n      0x28\n      swap2\n      codecopy\n        /* \"contracts/ERC20.sol\":1663:1674  _allowances */\n      0x01\n        /* \"contracts/ERC20.sol\":1663:1682  _allowances[sender] */\n      0x00\n        /* \"contracts/ERC20.sol\":1675:1681  sender */\n      dup12\n        /* \"contracts/ERC20.sol\":1663:1682  _allowances[sender] */\n      0xffffffffffffffffffffffffffffffffffffffff\n      and\n      0xffffffffffffffffffffffffffffffffffffffff\n      and\n      dup2\n      mstore\n      0x20\n      add\n      swap1\n      dup2\n      mstore\n      0x20\n      add\n      0x00\n      keccak256\n        /* \"contracts/ERC20.sol\":1663:1694  _allowances[sender][msg.sender] */\n      0x00\n        /* \"contracts/ERC20.sol\":1683:1693  msg.sender */\n      caller\n        /* \"contracts/ERC20.sol\":1663:1694  _allowances[sender][msg.sender] */\n      0xffffffffffffffffffffffffffffffffffffffff\n      and\n      0xffffffffffffffffffffffffffffffffffffffff\n      and\n      dup2\n      mstore\n      0x20\n      add\n      swap1\n      dup2\n      mstore\n      0x20\n      add\n      0x00\n      keccak256\n      sload\n        /* \"contracts/ERC20.sol\":1663:1698  _allowances[sender][msg.sender].sub */\n      tag_132\n      swap1\n        /* \"contracts/ERC20.sol\":1663:1750  _allowances[sender][msg.sender].sub(amount, \"ERC20: transfer amount exceeds allowance\") */\n      swap3\n      swap2\n      swap1\n      0xffffffff\n      and\n      jump\t// in\n    tag_131:\n        /* \"contracts/ERC20.sol\":1634:1642  _approve */\n      tag_125\n        /* \"contracts/ERC20.sol\":1634:1751  _approve(sender, msg.sender, _allowances[sender][msg.sender].sub(amount, \"ERC20: transfer amount exceeds allowance\")) */\n      jump\t// in\n    tag_130:\n        /* \"contracts/ERC20.sol\":1762:1766  true */\n      0x01\n        /* \"contracts/ERC20.sol\":1755:1766  return true */\n      swap1\n      pop\n        /* \"contracts/ERC20.sol\":1493:1770  function transferFrom(address sender, address recipient, uint256 amount)... */\n      swap4\n      swap3\n      pop\n      pop\n      pop\n      jump\t// out\n        /* \"contracts/Escrow.sol\":327:524  function withdraw(uint256 amount)... */\n    tag_51:\n        /* \"contracts/Escrow.sol\":376:401  _burn(msg.sender, amount) */\n      tag_134\n        /* \"contracts/Escrow.sol\":382:392  msg.sender */\n      caller\n        /* \"contracts/Escrow.sol\":394:400  amount */\n      dup3\n        /* \"contracts/Escrow.sol\":376:381  _burn */\n      tag_135\n        /* \"contracts/Escrow.sol\":376:401  _burn(msg.sender, amount) */\n      jump\t// in\n    tag_134:\n        /* \"contracts/Escrow.sol\":406:418  bool success */\n      0x00\n        /* \"contracts/Escrow.sol\":420:443  bytes memory returndata */\n      0x60\n        /* \"contracts/Escrow.sol\":447:457  msg.sender */\n      caller\n        /* \"contracts/Escrow.sol\":447:462  msg.sender.call */\n      0xffffffffffffffffffffffffffffffffffffffff\n      and\n        /* \"contracts/Escrow.sol\":469:475  amount */\n      dup4\n        /* \"contracts/Escrow.sol\":447:480  msg.sender.call.value(amount)('') */\n      mload(0x40)\n      tag_136\n      swap1\n      jump(tag_137)\n    tag_136:\n      0x00\n      mload(0x40)\n      dup1\n      dup4\n      sub\n      dup2\n      dup6\n      dup8\n      gas\n      call\n      swap3\n      pop\n      pop\n      pop\n      returndatasize\n        /* \"--CODEGEN--\":14:15   */\n      dup1\n        /* \"--CODEGEN--\":21:22   */\n      0x00\n        /* \"--CODEGEN--\":16:47   */\n      dup2\n      eq\n      tag_139\n      jumpi\n        /* \"--CODEGEN--\":75:79   */\n      0x40\n        /* \"--CODEGEN--\":69:80   */\n      mload\n        /* \"--CODEGEN--\":64:80   */\n      swap2\n      pop\n        /* \"--CODEGEN--\":144:148   */\n      0x1f\n        /* \"--CODEGEN--\":140:149   */\n      not\n        /* \"--CODEGEN--\":133:137   */\n      0x3f\n        /* \"--CODEGEN--\":115:131   */\n      returndatasize\n        /* \"--CODEGEN--\":111:138   */\n      add\n        /* \"--CODEGEN--\":107:150   */\n      and\n        /* \"--CODEGEN--\":104:105   */\n      dup3\n        /* \"--CODEGEN--\":100:151   */\n      add\n        /* \"--CODEGEN--\":94:98   */\n      0x40\n        /* \"--CODEGEN--\":87:152   */\n      mstore\n        /* \"--CODEGEN--\":169:185   */\n      returndatasize\n        /* \"--CODEGEN--\":166:167   */\n      dup3\n        /* \"--CODEGEN--\":159:186   */\n      mstore\n        /* \"--CODEGEN--\":225:241   */\n      returndatasize\n        /* \"--CODEGEN--\":222:223   */\n      0x00\n        /* \"--CODEGEN--\":215:219   */\n      0x20\n        /* \"--CODEGEN--\":212:213   */\n      dup5\n        /* \"--CODEGEN--\":208:220   */\n      add\n        /* \"--CODEGEN--\":193:242   */\n      returndatacopy\n        /* \"--CODEGEN--\":7:249   */\n      jump(tag_138)\n        /* \"--CODEGEN--\":16:47   */\n    tag_139:\n        /* \"--CODEGEN--\":36:40   */\n      0x60\n        /* \"--CODEGEN--\":31:40   */\n      swap2\n      pop\n        /* \"--CODEGEN--\":7:249   */\n    tag_138:\n      pop\n        /* \"contracts/Escrow.sol\":405:480  (bool success, bytes memory returndata) = msg.sender.call.value(amount)('') */\n      swap2\n      pop\n      swap2\n      pop\n        /* \"contracts/Escrow.sol\":492:499  success */\n      dup2\n        /* \"contracts/Escrow.sol\":508:518  returndata */\n      dup2\n        /* \"contracts/Escrow.sol\":484:520  require(success, string(returndata)) */\n      swap1\n      tag_140\n      jumpi\n      mload(0x40)\n      0x08c379a000000000000000000000000000000000000000000000000000000000\n      dup2\n      mstore\n      0x04\n      add\n      tag_141\n      swap2\n      swap1\n      jump(tag_28)\n    tag_141:\n      mload(0x40)\n      dup1\n      swap2\n      sub\n      swap1\n      revert\n    tag_140:\n      pop\n        /* \"contracts/Escrow.sol\":327:524  function withdraw(uint256 amount)... */\n      pop\n      pop\n      pop\n      jump\t// out\n        /* \"contracts/ERC20.sol\":819:893  function decimals()... */\n    tag_54:\n        /* \"contracts/ERC20.sol\":861:866  uint8 */\n      0x00\n        /* \"contracts/ERC20.sol\":880:889  _decimals */\n      0x05\n      0x00\n      swap1\n      sload\n      swap1\n      0x0100\n      exp\n      swap1\n      div\n      0xff\n      and\n        /* \"contracts/ERC20.sol\":873:889  return _decimals */\n      swap1\n      pop\n        /* \"contracts/ERC20.sol\":819:893  function decimals()... */\n      swap1\n      jump\t// out\n        /* \"contracts/Betting.sol\":1734:2307  function reveal(bytes32 gameid, address player, bytes32 secret)... */\n    tag_61:\n        /* \"contracts/Betting.sol\":1811:1826  Match storage m */\n      0x00\n        /* \"contracts/Betting.sol\":1829:1836  matches */\n      0x07\n        /* \"contracts/Betting.sol\":1829:1844  matches[gameid] */\n      0x00\n        /* \"contracts/Betting.sol\":1837:1843  gameid */\n      dup6\n        /* \"contracts/Betting.sol\":1829:1844  matches[gameid] */\n      dup2\n      mstore\n      0x20\n      add\n      swap1\n      dup2\n      mstore\n      0x20\n      add\n      0x00\n      keccak256\n        /* \"contracts/Betting.sol\":1811:1844  Match storage m = matches[gameid] */\n      swap1\n      pop\n        /* \"contracts/Betting.sol\":1870:1873  now */\n      timestamp\n        /* \"contracts/Betting.sol\":1856:1857  m */\n      dup2\n        /* \"contracts/Betting.sol\":1856:1866  m.deadline */\n      0x07\n      add\n      sload\n        /* \"contracts/Betting.sol\":1856:1873  m.deadline >= now */\n      lt\n      iszero\n        /* \"contracts/Betting.sol\":1848:1890  require(m.deadline >= now, \"game is over\") */\n      tag_144\n      jumpi\n      mload(0x40)\n      0x08c379a000000000000000000000000000000000000000000000000000000000\n      dup2\n      mstore\n      0x04\n      add\n      tag_145\n      swap1\n      jump(tag_146)\n    tag_145:\n      mload(0x40)\n      dup1\n      swap2\n      sub\n      swap1\n      revert\n    tag_144:\n        /* \"contracts/Betting.sol\":1908:1909  m */\n      dup1\n        /* \"contracts/Betting.sol\":1908:1917  m.player1 */\n      0x00\n      add\n      0x00\n      swap1\n      sload\n      swap1\n      0x0100\n      exp\n      swap1\n      div\n      0xffffffffffffffffffffffffffffffffffffffff\n      and\n        /* \"contracts/Betting.sol\":1898:1917  player == m.player1 */\n      0xffffffffffffffffffffffffffffffffffffffff\n      and\n        /* \"contracts/Betting.sol\":1898:1904  player */\n      dup4\n        /* \"contracts/Betting.sol\":1898:1917  player == m.player1 */\n      0xffffffffffffffffffffffffffffffffffffffff\n      and\n      eq\n        /* \"contracts/Betting.sol\":1894:2304  if (player == m.player1)... */\n      iszero\n      tag_147\n      jumpi\n        /* \"contracts/Betting.sol\":1974:1980  secret */\n      dup2\n        /* \"contracts/Betting.sol\":1957:1981  abi.encodePacked(secret) */\n      add(0x20, mload(0x40))\n      tag_148\n      swap2\n      swap1\n      jump(tag_149)\n    tag_148:\n      mload(0x40)\n        /* \"--CODEGEN--\":49:53   */\n      0x20\n        /* \"--CODEGEN--\":39:46   */\n      dup2\n        /* \"--CODEGEN--\":30:37   */\n      dup4\n        /* \"--CODEGEN--\":26:47   */\n      sub\n        /* \"--CODEGEN--\":22:54   */\n      sub\n        /* \"--CODEGEN--\":13:20   */\n      dup2\n        /* \"--CODEGEN--\":6:55   */\n      mstore\n        /* \"contracts/Betting.sol\":1957:1981  abi.encodePacked(secret) */\n      swap1\n      0x40\n      mstore\n        /* \"contracts/Betting.sol\":1947:1982  keccak256(abi.encodePacked(secret)) */\n      dup1\n      mload\n      swap1\n      0x20\n      add\n      keccak256\n        /* \"contracts/Betting.sol\":1934:1935  m */\n      dup2\n        /* \"contracts/Betting.sol\":1934:1943  m.commit1 */\n      0x02\n      add\n      sload\n        /* \"contracts/Betting.sol\":1934:1982  m.commit1 == keccak256(abi.encodePacked(secret)) */\n      eq\n        /* \"contracts/Betting.sol\":1926:2013  require(m.commit1 == keccak256(abi.encodePacked(secret)), \"invalid secret for player1\") */\n      tag_150\n      jumpi\n      mload(0x40)\n      0x08c379a000000000000000000000000000000000000000000000000000000000\n      dup2\n      mstore\n      0x04\n      add\n      tag_151\n      swap1\n      jump(tag_152)\n    tag_151:\n      mload(0x40)\n      dup1\n      swap2\n      sub\n      swap1\n      revert\n    tag_150:\n        /* \"contracts/Betting.sol\":2030:2036  secret */\n      dup2\n        /* \"contracts/Betting.sol\":2018:2019  m */\n      dup2\n        /* \"contracts/Betting.sol\":2018:2027  m.reveal1 */\n      0x04\n      add\n        /* \"contracts/Betting.sol\":2018:2036  m.reveal1 = secret */\n      dup2\n      swap1\n      sstore\n      pop\n        /* \"contracts/Betting.sol\":2053:2059  gameid */\n      dup4\n        /* \"contracts/Betting.sol\":2046:2068  Reveal(gameid, player) */\n      0x3881c7c92c6bbf7be209f58096473fc13a008b026e68be078b406c4c612eecff\n        /* \"contracts/Betting.sol\":2061:2067  player */\n      dup5\n        /* \"contracts/Betting.sol\":2046:2068  Reveal(gameid, player) */\n      mload(0x40)\n      tag_153\n      swap2\n      swap1\n      jump(tag_154)\n    tag_153:\n      mload(0x40)\n      dup1\n      swap2\n      sub\n      swap1\n      log2\n        /* \"contracts/Betting.sol\":1894:2304  if (player == m.player1)... */\n      jump(tag_155)\n    tag_147:\n        /* \"contracts/Betting.sol\":2095:2096  m */\n      dup1\n        /* \"contracts/Betting.sol\":2095:2104  m.player2 */\n      0x01\n      add\n      0x00\n      swap1\n      sload\n      swap1\n      0x0100\n      exp\n      swap1\n      div\n      0xffffffffffffffffffffffffffffffffffffffff\n      and\n        /* \"contracts/Betting.sol\":2085:2104  player == m.player2 */\n      0xffffffffffffffffffffffffffffffffffffffff\n      and\n        /* \"contracts/Betting.sol\":2085:2091  player */\n      dup4\n        /* \"contracts/Betting.sol\":2085:2104  player == m.player2 */\n      0xffffffffffffffffffffffffffffffffffffffff\n      and\n      eq\n        /* \"contracts/Betting.sol\":2081:2304  if (player == m.player2)... */\n      iszero\n      tag_156\n      jumpi\n        /* \"contracts/Betting.sol\":2161:2167  secret */\n      dup2\n        /* \"contracts/Betting.sol\":2144:2168  abi.encodePacked(secret) */\n      add(0x20, mload(0x40))\n      tag_157\n      swap2\n      swap1\n      jump(tag_149)\n    tag_157:\n      mload(0x40)\n        /* \"--CODEGEN--\":49:53   */\n      0x20\n        /* \"--CODEGEN--\":39:46   */\n      dup2\n        /* \"--CODEGEN--\":30:37   */\n      dup4\n        /* \"--CODEGEN--\":26:47   */\n      sub\n        /* \"--CODEGEN--\":22:54   */\n      sub\n        /* \"--CODEGEN--\":13:20   */\n      dup2\n        /* \"--CODEGEN--\":6:55   */\n      mstore\n        /* \"contracts/Betting.sol\":2144:2168  abi.encodePacked(secret) */\n      swap1\n      0x40\n      mstore\n        /* \"contracts/Betting.sol\":2134:2169  keccak256(abi.encodePacked(secret)) */\n      dup1\n      mload\n      swap1\n      0x20\n      add\n      keccak256\n        /* \"contracts/Betting.sol\":2121:2122  m */\n      dup2\n        /* \"contracts/Betting.sol\":2121:2130  m.commit2 */\n      0x03\n      add\n      sload\n        /* \"contracts/Betting.sol\":2121:2169  m.commit2 == keccak256(abi.encodePacked(secret)) */\n      eq\n        /* \"contracts/Betting.sol\":2113:2200  require(m.commit2 == keccak256(abi.encodePacked(secret)), \"invalid secret for player2\") */\n      tag_158\n      jumpi\n      mload(0x40)\n      0x08c379a000000000000000000000000000000000000000000000000000000000\n      dup2\n      mstore\n      0x04\n      add\n      tag_159\n      swap1\n      jump(tag_160)\n    tag_159:\n      mload(0x40)\n      dup1\n      swap2\n      sub\n      swap1\n      revert\n    tag_158:\n        /* \"contracts/Betting.sol\":2217:2223  secret */\n      dup2\n        /* \"contracts/Betting.sol\":2205:2206  m */\n      dup2\n        /* \"contracts/Betting.sol\":2205:2214  m.reveal2 */\n      0x05\n      add\n        /* \"contracts/Betting.sol\":2205:2223  m.reveal2 = secret */\n      dup2\n      swap1\n      sstore\n      pop\n        /* \"contracts/Betting.sol\":2240:2246  gameid */\n      dup4\n        /* \"contracts/Betting.sol\":2233:2255  Reveal(gameid, player) */\n      0x3881c7c92c6bbf7be209f58096473fc13a008b026e68be078b406c4c612eecff\n        /* \"contracts/Betting.sol\":2248:2254  player */\n      dup5\n        /* \"contracts/Betting.sol\":2233:2255  Reveal(gameid, player) */\n      mload(0x40)\n      tag_161\n      swap2\n      swap1\n      jump(tag_154)\n    tag_161:\n      mload(0x40)\n      dup1\n      swap2\n      sub\n      swap1\n      log2\n        /* \"contracts/Betting.sol\":2081:2304  if (player == m.player2)... */\n      jump(tag_162)\n    tag_156:\n        /* \"contracts/Betting.sol\":2275:2299  revert(\"invalid player\") */\n      mload(0x40)\n      0x08c379a000000000000000000000000000000000000000000000000000000000\n      dup2\n      mstore\n      0x04\n      add\n      tag_163\n      swap1\n      jump(tag_164)\n    tag_163:\n      mload(0x40)\n      dup1\n      swap2\n      sub\n      swap1\n      revert\n        /* \"contracts/Betting.sol\":2081:2304  if (player == m.player2)... */\n    tag_162:\n        /* \"contracts/Betting.sol\":1894:2304  if (player == m.player1)... */\n    tag_155:\n        /* \"contracts/Betting.sol\":1734:2307  function reveal(bytes32 gameid, address player, bytes32 secret)... */\n      pop\n      pop\n      pop\n      pop\n      jump\t// out\n        /* \"contracts/Betting.sol\":655:1731  function matchOrders(Order memory o1, Order memory o2)... */\n    tag_66:\n        /* \"contracts/Betting.sol\":741:743  o2 */\n      dup1\n        /* \"contracts/Betting.sol\":741:747  o2.bet */\n      0x40\n      add\n      mload\n        /* \"contracts/Betting.sol\":731:733  o1 */\n      dup3\n        /* \"contracts/Betting.sol\":731:737  o1.bet */\n      0x40\n      add\n      mload\n        /* \"contracts/Betting.sol\":731:747  o1.bet == o2.bet */\n      eq\n        /* \"contracts/Betting.sol\":723:748  require(o1.bet == o2.bet) */\n      tag_166\n      jumpi\n      0x00\n      dup1\n      revert\n    tag_166:\n        /* \"contracts/Betting.sol\":753:769  bytes32 orderid1 */\n      0x00\n        /* \"contracts/Betting.sol\":772:810  hashOrder(o1).toEthSignedMessageHash() */\n      tag_167\n        /* \"contracts/Betting.sol\":772:785  hashOrder(o1) */\n      tag_168\n        /* \"contracts/Betting.sol\":782:784  o1 */\n      dup5\n        /* \"contracts/Betting.sol\":772:781  hashOrder */\n      tag_104\n        /* \"contracts/Betting.sol\":772:785  hashOrder(o1) */\n      jump\t// in\n    tag_168:\n        /* \"contracts/Betting.sol\":772:808  hashOrder(o1).toEthSignedMessageHash */\n      tag_169\n        /* \"contracts/Betting.sol\":772:810  hashOrder(o1).toEthSignedMessageHash() */\n      jump\t// in\n    tag_167:\n        /* \"contracts/Betting.sol\":753:810  bytes32 orderid1 = hashOrder(o1).toEthSignedMessageHash() */\n      swap1\n      pop\n        /* \"contracts/Betting.sol\":814:830  bytes32 orderid2 */\n      0x00\n        /* \"contracts/Betting.sol\":833:871  hashOrder(o2).toEthSignedMessageHash() */\n      tag_170\n        /* \"contracts/Betting.sol\":833:846  hashOrder(o2) */\n      tag_171\n        /* \"contracts/Betting.sol\":843:845  o2 */\n      dup5\n        /* \"contracts/Betting.sol\":833:842  hashOrder */\n      tag_104\n        /* \"contracts/Betting.sol\":833:846  hashOrder(o2) */\n      jump\t// in\n    tag_171:\n        /* \"contracts/Betting.sol\":833:869  hashOrder(o2).toEthSignedMessageHash */\n      tag_169\n        /* \"contracts/Betting.sol\":833:871  hashOrder(o2).toEthSignedMessageHash() */\n      jump\t// in\n    tag_170:\n        /* \"contracts/Betting.sol\":814:871  bytes32 orderid2 = hashOrder(o2).toEthSignedMessageHash() */\n      swap1\n      pop\n        /* \"contracts/Betting.sol\":875:889  bytes32 gameid */\n      0x00\n        /* \"contracts/Betting.sol\":921:929  orderid1 */\n      dup3\n        /* \"contracts/Betting.sol\":931:939  orderid2 */\n      dup3\n        /* \"contracts/Betting.sol\":904:940  abi.encodePacked(orderid1, orderid2) */\n      add(0x20, mload(0x40))\n      tag_172\n      swap3\n      swap2\n      swap1\n      jump(tag_173)\n    tag_172:\n      mload(0x40)\n        /* \"--CODEGEN--\":49:53   */\n      0x20\n        /* \"--CODEGEN--\":39:46   */\n      dup2\n        /* \"--CODEGEN--\":30:37   */\n      dup4\n        /* \"--CODEGEN--\":26:47   */\n      sub\n        /* \"--CODEGEN--\":22:54   */\n      sub\n        /* \"--CODEGEN--\":13:20   */\n      dup2\n        /* \"--CODEGEN--\":6:55   */\n      mstore\n        /* \"contracts/Betting.sol\":904:940  abi.encodePacked(orderid1, orderid2) */\n      swap1\n      0x40\n      mstore\n        /* \"contracts/Betting.sol\":894:941  keccak256(abi.encodePacked(orderid1, orderid2)) */\n      dup1\n      mload\n      swap1\n      0x20\n      add\n      keccak256\n        /* \"contracts/Betting.sol\":875:941  bytes32 gameid   = keccak256(abi.encodePacked(orderid1, orderid2)) */\n      swap1\n      pop\n        /* \"contracts/Betting.sol\":967:992  orderid1.recover(o1.sign) */\n      tag_174\n        /* \"contracts/Betting.sol\":984:986  o1 */\n      dup6\n        /* \"contracts/Betting.sol\":984:991  o1.sign */\n      0x60\n      add\n      mload\n        /* \"contracts/Betting.sol\":967:975  orderid1 */\n      dup5\n        /* \"contracts/Betting.sol\":967:983  orderid1.recover */\n      tag_175\n      swap1\n        /* \"contracts/Betting.sol\":967:992  orderid1.recover(o1.sign) */\n      swap2\n      swap1\n      0xffffffff\n      and\n      jump\t// in\n    tag_174:\n        /* \"contracts/Betting.sol\":954:992  o1.player == orderid1.recover(o1.sign) */\n      0xffffffffffffffffffffffffffffffffffffffff\n      and\n        /* \"contracts/Betting.sol\":954:956  o1 */\n      dup6\n        /* \"contracts/Betting.sol\":954:963  o1.player */\n      0x00\n      add\n      mload\n        /* \"contracts/Betting.sol\":954:992  o1.player == orderid1.recover(o1.sign) */\n      0xffffffffffffffffffffffffffffffffffffffff\n      and\n      eq\n        /* \"contracts/Betting.sol\":946:1026  require(o1.player == orderid1.recover(o1.sign), \"invalid signature for player1\") */\n      tag_176\n      jumpi\n      mload(0x40)\n      0x08c379a000000000000000000000000000000000000000000000000000000000\n      dup2\n      mstore\n      0x04\n      add\n      tag_177\n      swap1\n      jump(tag_178)\n    tag_177:\n      mload(0x40)\n      dup1\n      swap2\n      sub\n      swap1\n      revert\n    tag_176:\n        /* \"contracts/Betting.sol\":1051:1076  orderid2.recover(o2.sign) */\n      tag_179\n        /* \"contracts/Betting.sol\":1068:1070  o2 */\n      dup5\n        /* \"contracts/Betting.sol\":1068:1075  o2.sign */\n      0x60\n      add\n      mload\n        /* \"contracts/Betting.sol\":1051:1059  orderid2 */\n      dup4\n        /* \"contracts/Betting.sol\":1051:1067  orderid2.recover */\n      tag_175\n      swap1\n        /* \"contracts/Betting.sol\":1051:1076  orderid2.recover(o2.sign) */\n      swap2\n      swap1\n      0xffffffff\n      and\n      jump\t// in\n    tag_179:\n        /* \"contracts/Betting.sol\":1038:1076  o2.player == orderid2.recover(o2.sign) */\n      0xffffffffffffffffffffffffffffffffffffffff\n      and\n        /* \"contracts/Betting.sol\":1038:1040  o2 */\n      dup5\n        /* \"contracts/Betting.sol\":1038:1047  o2.player */\n      0x00\n      add\n      mload\n        /* \"contracts/Betting.sol\":1038:1076  o2.player == orderid2.recover(o2.sign) */\n      0xffffffffffffffffffffffffffffffffffffffff\n      and\n      eq\n        /* \"contracts/Betting.sol\":1030:1110  require(o2.player == orderid2.recover(o2.sign), \"invalid signature for player2\") */\n      tag_180\n      jumpi\n      mload(0x40)\n      0x08c379a000000000000000000000000000000000000000000000000000000000\n      dup2\n      mstore\n      0x04\n      add\n      tag_181\n      swap1\n      jump(tag_182)\n    tag_181:\n      mload(0x40)\n      dup1\n      swap2\n      sub\n      swap1\n      revert\n    tag_180:\n        /* \"contracts/Betting.sol\":1115:1138  lock(o1.player, o1.bet) */\n      tag_183\n        /* \"contracts/Betting.sol\":1120:1122  o1 */\n      dup6\n        /* \"contracts/Betting.sol\":1120:1129  o1.player */\n      0x00\n      add\n      mload\n        /* \"contracts/Betting.sol\":1131:1133  o1 */\n      dup7\n        /* \"contracts/Betting.sol\":1131:1137  o1.bet */\n      0x40\n      add\n      mload\n        /* \"contracts/Betting.sol\":1115:1119  lock */\n      tag_184\n        /* \"contracts/Betting.sol\":1115:1138  lock(o1.player, o1.bet) */\n      jump\t// in\n    tag_183:\n        /* \"contracts/Betting.sol\":1172:1195  lock(o2.player, o2.bet) */\n      tag_185\n        /* \"contracts/Betting.sol\":1177:1179  o2 */\n      dup5\n        /* \"contracts/Betting.sol\":1177:1186  o2.player */\n      0x00\n      add\n      mload\n        /* \"contracts/Betting.sol\":1188:1190  o2 */\n      dup6\n        /* \"contracts/Betting.sol\":1188:1194  o2.bet */\n      0x40\n      add\n      mload\n        /* \"contracts/Betting.sol\":1172:1176  lock */\n      tag_184\n        /* \"contracts/Betting.sol\":1172:1195  lock(o2.player, o2.bet) */\n      jump\t// in\n    tag_185:\n        /* \"contracts/Betting.sol\":1239:1248  orderUsed */\n      0x06\n        /* \"contracts/Betting.sol\":1239:1258  orderUsed[orderid1] */\n      0x00\n        /* \"contracts/Betting.sol\":1249:1257  orderid1 */\n      dup5\n        /* \"contracts/Betting.sol\":1239:1258  orderUsed[orderid1] */\n      dup2\n      mstore\n      0x20\n      add\n      swap1\n      dup2\n      mstore\n      0x20\n      add\n      0x00\n      keccak256\n      0x00\n      swap1\n      sload\n      swap1\n      0x0100\n      exp\n      swap1\n      div\n      0xff\n      and\n        /* \"contracts/Betting.sol\":1238:1258  !orderUsed[orderid1] */\n      iszero\n        /* \"contracts/Betting.sol\":1230:1293  require(!orderUsed[orderid1], \"order already used for player1\") */\n      tag_186\n      jumpi\n      mload(0x40)\n      0x08c379a000000000000000000000000000000000000000000000000000000000\n      dup2\n      mstore\n      0x04\n      add\n      tag_187\n      swap1\n      jump(tag_188)\n    tag_187:\n      mload(0x40)\n      dup1\n      swap2\n      sub\n      swap1\n      revert\n    tag_186:\n        /* \"contracts/Betting.sol\":1306:1315  orderUsed */\n      0x06\n        /* \"contracts/Betting.sol\":1306:1325  orderUsed[orderid2] */\n      0x00\n        /* \"contracts/Betting.sol\":1316:1324  orderid2 */\n      dup4\n        /* \"contracts/Betting.sol\":1306:1325  orderUsed[orderid2] */\n      dup2\n      mstore\n      0x20\n      add\n      swap1\n      dup2\n      mstore\n      0x20\n      add\n      0x00\n      keccak256\n      0x00\n      swap1\n      sload\n      swap1\n      0x0100\n      exp\n      swap1\n      div\n      0xff\n      and\n        /* \"contracts/Betting.sol\":1305:1325  !orderUsed[orderid2] */\n      iszero\n        /* \"contracts/Betting.sol\":1297:1360  require(!orderUsed[orderid2], \"order already used for player2\") */\n      tag_189\n      jumpi\n      mload(0x40)\n      0x08c379a000000000000000000000000000000000000000000000000000000000\n      dup2\n      mstore\n      0x04\n      add\n      tag_190\n      swap1\n      jump(tag_191)\n    tag_190:\n      mload(0x40)\n      dup1\n      swap2\n      sub\n      swap1\n      revert\n    tag_189:\n        /* \"contracts/Betting.sol\":1386:1390  true */\n      0x01\n        /* \"contracts/Betting.sol\":1364:1373  orderUsed */\n      0x06\n        /* \"contracts/Betting.sol\":1364:1383  orderUsed[orderid1] */\n      0x00\n        /* \"contracts/Betting.sol\":1374:1382  orderid1 */\n      dup6\n        /* \"contracts/Betting.sol\":1364:1383  orderUsed[orderid1] */\n      dup2\n      mstore\n      0x20\n      add\n      swap1\n      dup2\n      mstore\n      0x20\n      add\n      0x00\n      keccak256\n      0x00\n        /* \"contracts/Betting.sol\":1364:1390  orderUsed[orderid1] = true */\n      0x0100\n      exp\n      dup2\n      sload\n      dup2\n      0xff\n      mul\n      not\n      and\n      swap1\n      dup4\n      iszero\n      iszero\n      mul\n      or\n      swap1\n      sstore\n      pop\n        /* \"contracts/Betting.sol\":1416:1420  true */\n      0x01\n        /* \"contracts/Betting.sol\":1394:1403  orderUsed */\n      0x06\n        /* \"contracts/Betting.sol\":1394:1413  orderUsed[orderid2] */\n      0x00\n        /* \"contracts/Betting.sol\":1404:1412  orderid2 */\n      dup5\n        /* \"contracts/Betting.sol\":1394:1413  orderUsed[orderid2] */\n      dup2\n      mstore\n      0x20\n      add\n      swap1\n      dup2\n      mstore\n      0x20\n      add\n      0x00\n      keccak256\n      0x00\n        /* \"contracts/Betting.sol\":1394:1420  orderUsed[orderid2] = true */\n      0x0100\n      exp\n      dup2\n      sload\n      dup2\n      0xff\n      mul\n      not\n      and\n      swap1\n      dup4\n      iszero\n      iszero\n      mul\n      or\n      swap1\n      sstore\n      pop\n        /* \"contracts/Betting.sol\":1425:1440  Match storage m */\n      0x00\n        /* \"contracts/Betting.sol\":1443:1450  matches */\n      0x07\n        /* \"contracts/Betting.sol\":1443:1458  matches[gameid] */\n      0x00\n        /* \"contracts/Betting.sol\":1451:1457  gameid */\n      dup4\n        /* \"contracts/Betting.sol\":1443:1458  matches[gameid] */\n      dup2\n      mstore\n      0x20\n      add\n      swap1\n      dup2\n      mstore\n      0x20\n      add\n      0x00\n      keccak256\n        /* \"contracts/Betting.sol\":1425:1458  Match storage m = matches[gameid] */\n      swap1\n      pop\n        /* \"contracts/Betting.sol\":1475:1477  o1 */\n      dup6\n        /* \"contracts/Betting.sol\":1475:1484  o1.player */\n      0x00\n      add\n      mload\n        /* \"contracts/Betting.sol\":1462:1463  m */\n      dup2\n        /* \"contracts/Betting.sol\":1462:1471  m.player1 */\n      0x00\n      add\n      0x00\n        /* \"contracts/Betting.sol\":1462:1484  m.player1  = o1.player */\n      0x0100\n      exp\n      dup2\n      sload\n      dup2\n      0xffffffffffffffffffffffffffffffffffffffff\n      mul\n      not\n      and\n      swap1\n      dup4\n      0xffffffffffffffffffffffffffffffffffffffff\n      and\n      mul\n      or\n      swap1\n      sstore\n      pop\n        /* \"contracts/Betting.sol\":1501:1503  o2 */\n      dup5\n        /* \"contracts/Betting.sol\":1501:1510  o2.player */\n      0x00\n      add\n      mload\n        /* \"contracts/Betting.sol\":1488:1489  m */\n      dup2\n        /* \"contracts/Betting.sol\":1488:1497  m.player2 */\n      0x01\n      add\n      0x00\n        /* \"contracts/Betting.sol\":1488:1510  m.player2  = o2.player */\n      0x0100\n      exp\n      dup2\n      sload\n      dup2\n      0xffffffffffffffffffffffffffffffffffffffff\n      mul\n      not\n      and\n      swap1\n      dup4\n      0xffffffffffffffffffffffffffffffffffffffff\n      and\n      mul\n      or\n      swap1\n      sstore\n      pop\n        /* \"contracts/Betting.sol\":1527:1529  o1 */\n      dup6\n        /* \"contracts/Betting.sol\":1527:1536  o1.commit */\n      0x20\n      add\n      mload\n        /* \"contracts/Betting.sol\":1514:1515  m */\n      dup2\n        /* \"contracts/Betting.sol\":1514:1523  m.commit1 */\n      0x02\n      add\n        /* \"contracts/Betting.sol\":1514:1536  m.commit1  = o1.commit */\n      dup2\n      swap1\n      sstore\n      pop\n        /* \"contracts/Betting.sol\":1553:1555  o1 */\n      dup6\n        /* \"contracts/Betting.sol\":1553:1562  o1.commit */\n      0x20\n      add\n      mload\n        /* \"contracts/Betting.sol\":1540:1541  m */\n      dup2\n        /* \"contracts/Betting.sol\":1540:1549  m.commit1 */\n      0x02\n      add\n        /* \"contracts/Betting.sol\":1540:1562  m.commit1  = o1.commit */\n      dup2\n      swap1\n      sstore\n      pop\n        /* \"contracts/Betting.sol\":1588:1590  o2 */\n      dup5\n        /* \"contracts/Betting.sol\":1588:1594  o2.bet */\n      0x40\n      add\n      mload\n        /* \"contracts/Betting.sol\":1579:1581  o1 */\n      dup7\n        /* \"contracts/Betting.sol\":1579:1585  o1.bet */\n      0x40\n      add\n      mload\n        /* \"contracts/Betting.sol\":1579:1594  o1.bet + o2.bet */\n      add\n        /* \"contracts/Betting.sol\":1566:1567  m */\n      dup2\n        /* \"contracts/Betting.sol\":1566:1574  m.reward */\n      0x06\n      add\n        /* \"contracts/Betting.sol\":1566:1594  m.reward   = o1.bet + o2.bet */\n      dup2\n      swap1\n      sstore\n      pop\n        /* \"contracts/Betting.sol\":1632:1638  1 days */\n      0x015180\n        /* \"contracts/Betting.sol\":1626:1629  now */\n      timestamp\n        /* \"contracts/Betting.sol\":1626:1638  now + 1 days */\n      add\n        /* \"contracts/Betting.sol\":1613:1614  m */\n      dup2\n        /* \"contracts/Betting.sol\":1613:1623  m.deadline */\n      0x07\n      add\n        /* \"contracts/Betting.sol\":1613:1638  m.deadline = now + 1 days */\n      dup2\n      swap1\n      sstore\n      pop\n        /* \"contracts/Betting.sol\":1666:1674  orderid1 */\n      dup4\n        /* \"contracts/Betting.sol\":1655:1657  o1 */\n      dup7\n        /* \"contracts/Betting.sol\":1655:1664  o1.player */\n      0x00\n      add\n      mload\n        /* \"contracts/Betting.sol\":1648:1683  GameOn(o1.player, orderid1, gameid) */\n      0xffffffffffffffffffffffffffffffffffffffff\n      and\n      0x8086b247d8713c22b4656944fa5434755310eaa9fea73af477fe4f827b7e43bc\n        /* \"contracts/Betting.sol\":1676:1682  gameid */\n      dup5\n        /* \"contracts/Betting.sol\":1648:1683  GameOn(o1.player, orderid1, gameid) */\n      mload(0x40)\n      tag_192\n      swap2\n      swap1\n      jump(tag_106)\n    tag_192:\n      mload(0x40)\n      dup1\n      swap2\n      sub\n      swap1\n      log3\n        /* \"contracts/Betting.sol\":1710:1718  orderid2 */\n      dup3\n        /* \"contracts/Betting.sol\":1699:1701  o2 */\n      dup6\n        /* \"contracts/Betting.sol\":1699:1708  o2.player */\n      0x00\n      add\n      mload\n        /* \"contracts/Betting.sol\":1692:1727  GameOn(o2.player, orderid2, gameid) */\n      0xffffffffffffffffffffffffffffffffffffffff\n      and\n      0x8086b247d8713c22b4656944fa5434755310eaa9fea73af477fe4f827b7e43bc\n        /* \"contracts/Betting.sol\":1720:1726  gameid */\n      dup5\n        /* \"contracts/Betting.sol\":1692:1727  GameOn(o2.player, orderid2, gameid) */\n      mload(0x40)\n      tag_193\n      swap2\n      swap1\n      jump(tag_106)\n    tag_193:\n      mload(0x40)\n      dup1\n      swap2\n      sub\n      swap1\n      log3\n        /* \"contracts/Betting.sol\":655:1731  function matchOrders(Order memory o1, Order memory o2)... */\n      pop\n      pop\n      pop\n      pop\n      pop\n      pop\n      jump\t// out\n        /* \"contracts/ERC20.sol\":981:1082  function balanceOf(address account)... */\n    tag_71:\n        /* \"contracts/ERC20.sol\":1039:1046  uint256 */\n      0x00\n        /* \"contracts/ERC20.sol\":1060:1069  _balances */\n      dup1\n        /* \"contracts/ERC20.sol\":1060:1078  _balances[account] */\n      0x00\n        /* \"contracts/ERC20.sol\":1070:1077  account */\n      dup4\n        /* \"contracts/ERC20.sol\":1060:1078  _balances[account] */\n      0xffffffffffffffffffffffffffffffffffffffff\n      and\n      0xffffffffffffffffffffffffffffffffffffffff\n      and\n      dup2\n      mstore\n      0x20\n      add\n      swap1\n      dup2\n      mstore\n      0x20\n      add\n      0x00\n      keccak256\n      sload\n        /* \"contracts/ERC20.sol\":1053:1078  return _balances[account] */\n      swap1\n      pop\n        /* \"contracts/ERC20.sol\":981:1082  function balanceOf(address account)... */\n      swap2\n      swap1\n      pop\n      jump\t// out\n        /* \"contracts/Betting.sol\":430:472  mapping(bytes32 => bool)  public orderUsed */\n    tag_77:\n      mstore(0x20, 0x06)\n      dup1\n      0x00\n      mstore\n      keccak256(0x00, 0x40)\n      0x00\n      swap2\n      pop\n      sload\n      swap1\n      0x0100\n      exp\n      swap1\n      div\n      0xff\n      and\n      dup2\n      jump\t// out\n        /* \"contracts/Betting.sol\":2786:3220  function finalize(bytes32 gameid)... */\n    tag_82:\n        /* \"contracts/Betting.sol\":2833:2848  Match storage m */\n      0x00\n        /* \"contracts/Betting.sol\":2851:2858  matches */\n      0x07\n        /* \"contracts/Betting.sol\":2851:2866  matches[gameid] */\n      0x00\n        /* \"contracts/Betting.sol\":2859:2865  gameid */\n      dup4\n        /* \"contracts/Betting.sol\":2851:2866  matches[gameid] */\n      dup2\n      mstore\n      0x20\n      add\n      swap1\n      dup2\n      mstore\n      0x20\n      add\n      0x00\n      keccak256\n        /* \"contracts/Betting.sol\":2833:2866  Match storage m = matches[gameid] */\n      swap1\n      pop\n        /* \"contracts/Betting.sol\":2899:2900  0 */\n      0x00\n        /* \"contracts/Betting.sol\":2891:2901  bytes32(0) */\n      dup1\n      shl\n        /* \"contracts/Betting.sol\":2878:2879  m */\n      dup2\n        /* \"contracts/Betting.sol\":2878:2887  m.reveal1 */\n      0x04\n      add\n      sload\n        /* \"contracts/Betting.sol\":2878:2901  m.reveal1 != bytes32(0) */\n      eq\n      iszero\n        /* \"contracts/Betting.sol\":2878:2928  m.reveal1 != bytes32(0) && m.reveal2 != bytes32(0) */\n      dup1\n      iszero\n      tag_196\n      jumpi\n      pop\n        /* \"contracts/Betting.sol\":2926:2927  0 */\n      0x00\n        /* \"contracts/Betting.sol\":2918:2928  bytes32(0) */\n      dup1\n      shl\n        /* \"contracts/Betting.sol\":2905:2906  m */\n      dup2\n        /* \"contracts/Betting.sol\":2905:2914  m.reveal2 */\n      0x05\n      add\n      sload\n        /* \"contracts/Betting.sol\":2905:2928  m.reveal2 != bytes32(0) */\n      eq\n      iszero\n        /* \"contracts/Betting.sol\":2878:2928  m.reveal1 != bytes32(0) && m.reveal2 != bytes32(0) */\n    tag_196:\n        /* \"contracts/Betting.sol\":2870:2929  require(m.reveal1 != bytes32(0) && m.reveal2 != bytes32(0)) */\n      tag_197\n      jumpi\n      0x00\n      dup1\n      revert\n    tag_197:\n        /* \"contracts/Betting.sol\":2934:2948  uint256 score1 */\n      0x00\n        /* \"contracts/Betting.sol\":2986:2987  m */\n      dup2\n        /* \"contracts/Betting.sol\":2986:2995  m.player1 */\n      0x00\n      add\n      0x00\n      swap1\n      sload\n      swap1\n      0x0100\n      exp\n      swap1\n      div\n      0xffffffffffffffffffffffffffffffffffffffff\n      and\n        /* \"contracts/Betting.sol\":2997:2998  m */\n      dup3\n        /* \"contracts/Betting.sol\":2997:3006  m.reveal1 */\n      0x04\n      add\n      sload\n        /* \"contracts/Betting.sol\":3008:3009  m */\n      dup4\n        /* \"contracts/Betting.sol\":3008:3017  m.reveal2 */\n      0x05\n      add\n      sload\n        /* \"contracts/Betting.sol\":2969:3018  abi.encodePacked(m.player1, m.reveal1, m.reveal2) */\n      add(0x20, mload(0x40))\n      tag_198\n      swap4\n      swap3\n      swap2\n      swap1\n      jump(tag_199)\n    tag_198:\n      mload(0x40)\n        /* \"--CODEGEN--\":49:53   */\n      0x20\n        /* \"--CODEGEN--\":39:46   */\n      dup2\n        /* \"--CODEGEN--\":30:37   */\n      dup4\n        /* \"--CODEGEN--\":26:47   */\n      sub\n        /* \"--CODEGEN--\":22:54   */\n      sub\n        /* \"--CODEGEN--\":13:20   */\n      dup2\n        /* \"--CODEGEN--\":6:55   */\n      mstore\n        /* \"contracts/Betting.sol\":2969:3018  abi.encodePacked(m.player1, m.reveal1, m.reveal2) */\n      swap1\n      0x40\n      mstore\n        /* \"contracts/Betting.sol\":2959:3019  keccak256(abi.encodePacked(m.player1, m.reveal1, m.reveal2)) */\n      dup1\n      mload\n      swap1\n      0x20\n      add\n      keccak256\n        /* \"contracts/Betting.sol\":2951:3020  uint256(keccak256(abi.encodePacked(m.player1, m.reveal1, m.reveal2))) */\n      0x00\n      shr\n        /* \"contracts/Betting.sol\":2934:3020  uint256 score1 = uint256(keccak256(abi.encodePacked(m.player1, m.reveal1, m.reveal2))) */\n      swap1\n      pop\n        /* \"contracts/Betting.sol\":3024:3038  uint256 score2 */\n      0x00\n        /* \"contracts/Betting.sol\":3076:3077  m */\n      dup3\n        /* \"contracts/Betting.sol\":3076:3085  m.player2 */\n      0x01\n      add\n      0x00\n      swap1\n      sload\n      swap1\n      0x0100\n      exp\n      swap1\n      div\n      0xffffffffffffffffffffffffffffffffffffffff\n      and\n        /* \"contracts/Betting.sol\":3087:3088  m */\n      dup4\n        /* \"contracts/Betting.sol\":3087:3096  m.reveal1 */\n      0x04\n      add\n      sload\n        /* \"contracts/Betting.sol\":3098:3099  m */\n      dup5\n        /* \"contracts/Betting.sol\":3098:3107  m.reveal2 */\n      0x05\n      add\n      sload\n        /* \"contracts/Betting.sol\":3059:3108  abi.encodePacked(m.player2, m.reveal1, m.reveal2) */\n      add(0x20, mload(0x40))\n      tag_200\n      swap4\n      swap3\n      swap2\n      swap1\n      jump(tag_199)\n    tag_200:\n      mload(0x40)\n        /* \"--CODEGEN--\":49:53   */\n      0x20\n        /* \"--CODEGEN--\":39:46   */\n      dup2\n        /* \"--CODEGEN--\":30:37   */\n      dup4\n        /* \"--CODEGEN--\":26:47   */\n      sub\n        /* \"--CODEGEN--\":22:54   */\n      sub\n        /* \"--CODEGEN--\":13:20   */\n      dup2\n        /* \"--CODEGEN--\":6:55   */\n      mstore\n        /* \"contracts/Betting.sol\":3059:3108  abi.encodePacked(m.player2, m.reveal1, m.reveal2) */\n      swap1\n      0x40\n      mstore\n        /* \"contracts/Betting.sol\":3049:3109  keccak256(abi.encodePacked(m.player2, m.reveal1, m.reveal2)) */\n      dup1\n      mload\n      swap1\n      0x20\n      add\n      keccak256\n        /* \"contracts/Betting.sol\":3041:3110  uint256(keccak256(abi.encodePacked(m.player2, m.reveal1, m.reveal2))) */\n      0x00\n      shr\n        /* \"contracts/Betting.sol\":3024:3110  uint256 score2 = uint256(keccak256(abi.encodePacked(m.player2, m.reveal1, m.reveal2))) */\n      swap1\n      pop\n        /* \"contracts/Betting.sol\":3115:3172  unlock(score1 > score2 ? m.player1 : m.player2, m.reward) */\n      tag_201\n        /* \"contracts/Betting.sol\":3131:3137  score2 */\n      dup2\n        /* \"contracts/Betting.sol\":3122:3128  score1 */\n      dup4\n        /* \"contracts/Betting.sol\":3122:3137  score1 > score2 */\n      gt\n        /* \"contracts/Betting.sol\":3122:3161  score1 > score2 ? m.player1 : m.player2 */\n      tag_202\n      jumpi\n        /* \"contracts/Betting.sol\":3152:3153  m */\n      dup4\n        /* \"contracts/Betting.sol\":3152:3161  m.player2 */\n      0x01\n      add\n      0x00\n      swap1\n      sload\n      swap1\n      0x0100\n      exp\n      swap1\n      div\n      0xffffffffffffffffffffffffffffffffffffffff\n      and\n        /* \"contracts/Betting.sol\":3122:3161  score1 > score2 ? m.player1 : m.player2 */\n      jump(tag_203)\n    tag_202:\n        /* \"contracts/Betting.sol\":3140:3141  m */\n      dup4\n        /* \"contracts/Betting.sol\":3140:3149  m.player1 */\n      0x00\n      add\n      0x00\n      swap1\n      sload\n      swap1\n      0x0100\n      exp\n      swap1\n      div\n      0xffffffffffffffffffffffffffffffffffffffff\n      and\n        /* \"contracts/Betting.sol\":3122:3161  score1 > score2 ? m.player1 : m.player2 */\n    tag_203:\n        /* \"contracts/Betting.sol\":3163:3164  m */\n      dup5\n        /* \"contracts/Betting.sol\":3163:3171  m.reward */\n      0x06\n      add\n      sload\n        /* \"contracts/Betting.sol\":3115:3121  unlock */\n      tag_204\n        /* \"contracts/Betting.sol\":3115:3172  unlock(score1 > score2 ? m.player1 : m.player2, m.reward) */\n      jump\t// in\n    tag_201:\n        /* \"contracts/Betting.sol\":3187:3188  0 */\n      0x00\n        /* \"contracts/Betting.sol\":3176:3177  m */\n      dup4\n        /* \"contracts/Betting.sol\":3176:3184  m.reward */\n      0x06\n      add\n        /* \"contracts/Betting.sol\":3176:3188  m.reward = 0 */\n      dup2\n      swap1\n      sstore\n      pop\n        /* \"contracts/Betting.sol\":2786:3220  function finalize(bytes32 gameid)... */\n      pop\n      pop\n      pop\n      pop\n      jump\t// out\n        /* \"contracts/ERC20.sol\":738:816  function symbol()... */\n    tag_85:\n        /* \"contracts/ERC20.sol\":778:791  string memory */\n      0x60\n        /* \"contracts/ERC20.sol\":805:812  _symbol */\n      0x04\n        /* \"contracts/ERC20.sol\":798:812  return _symbol */\n      dup1\n      sload\n      0x01\n      dup2\n      0x01\n      and\n      iszero\n      0x0100\n      mul\n      sub\n      and\n      0x02\n      swap1\n      div\n      dup1\n      0x1f\n      add\n      0x20\n      dup1\n      swap2\n      div\n      mul\n      0x20\n      add\n      mload(0x40)\n      swap1\n      dup2\n      add\n      0x40\n      mstore\n      dup1\n      swap3\n      swap2\n      swap1\n      dup2\n      dup2\n      mstore\n      0x20\n      add\n      dup3\n      dup1\n      sload\n      0x01\n      dup2\n      0x01\n      and\n      iszero\n      0x0100\n      mul\n      sub\n      and\n      0x02\n      swap1\n      div\n      dup1\n      iszero\n      tag_206\n      jumpi\n      dup1\n      0x1f\n      lt\n      tag_207\n      jumpi\n      0x0100\n      dup1\n      dup4\n      sload\n      div\n      mul\n      dup4\n      mstore\n      swap2\n      0x20\n      add\n      swap2\n      jump(tag_206)\n    tag_207:\n      dup3\n      add\n      swap2\n      swap1\n      0x00\n      mstore\n      keccak256(0x00, 0x20)\n      swap1\n    tag_208:\n      dup2\n      sload\n      dup2\n      mstore\n      swap1\n      0x01\n      add\n      swap1\n      0x20\n      add\n      dup1\n      dup4\n      gt\n      tag_208\n      jumpi\n      dup3\n      swap1\n      sub\n      0x1f\n      and\n      dup3\n      add\n      swap2\n    tag_206:\n      pop\n      pop\n      pop\n      pop\n      pop\n      swap1\n      pop\n        /* \"contracts/ERC20.sol\":738:816  function symbol()... */\n      swap1\n      jump\t// out\n        /* \"contracts/Betting.sol\":475:515  mapping(bytes32 => Match) public matches */\n    tag_90:\n      mstore(0x20, 0x07)\n      dup1\n      0x00\n      mstore\n      keccak256(0x00, 0x40)\n      0x00\n      swap2\n      pop\n      swap1\n      pop\n      dup1\n      0x00\n      add\n      0x00\n      swap1\n      sload\n      swap1\n      0x0100\n      exp\n      swap1\n      div\n      0xffffffffffffffffffffffffffffffffffffffff\n      and\n      swap1\n      dup1\n      0x01\n      add\n      0x00\n      swap1\n      sload\n      swap1\n      0x0100\n      exp\n      swap1\n      div\n      0xffffffffffffffffffffffffffffffffffffffff\n      and\n      swap1\n      dup1\n      0x02\n      add\n      sload\n      swap1\n      dup1\n      0x03\n      add\n      sload\n      swap1\n      dup1\n      0x04\n      add\n      sload\n      swap1\n      dup1\n      0x05\n      add\n      sload\n      swap1\n      dup1\n      0x06\n      add\n      sload\n      swap1\n      dup1\n      0x07\n      add\n      sload\n      swap1\n      pop\n      dup9\n      jump\t// out\n        /* \"contracts/Escrow.sol\":173:247  function receive()... */\n    tag_94:\n        /* \"contracts/Escrow.sol\":215:243  _mint(msg.sender, msg.value) */\n      tag_210\n        /* \"contracts/Escrow.sol\":221:231  msg.sender */\n      caller\n        /* \"contracts/Escrow.sol\":233:242  msg.value */\n      callvalue\n        /* \"contracts/Escrow.sol\":215:220  _mint */\n      tag_211\n        /* \"contracts/Escrow.sol\":215:243  _mint(msg.sender, msg.value) */\n      jump\t// in\n    tag_210:\n        /* \"contracts/Escrow.sol\":173:247  function receive()... */\n      jump\t// out\n        /* \"contracts/ERC20.sol\":1350:1490  function transfer(address recipient, uint256 amount)... */\n    tag_98:\n        /* \"contracts/ERC20.sol\":1420:1424  bool */\n      0x00\n        /* \"contracts/ERC20.sol\":1431:1471  _transfer(msg.sender, recipient, amount) */\n      tag_213\n        /* \"contracts/ERC20.sol\":1441:1451  msg.sender */\n      caller\n        /* \"contracts/ERC20.sol\":1453:1462  recipient */\n      dup5\n        /* \"contracts/ERC20.sol\":1464:1470  amount */\n      dup5\n        /* \"contracts/ERC20.sol\":1431:1440  _transfer */\n      tag_129\n        /* \"contracts/ERC20.sol\":1431:1471  _transfer(msg.sender, recipient, amount) */\n      jump\t// in\n    tag_213:\n        /* \"contracts/ERC20.sol\":1482:1486  true */\n      0x01\n        /* \"contracts/ERC20.sol\":1475:1486  return true */\n      swap1\n      pop\n        /* \"contracts/ERC20.sol\":1350:1490  function transfer(address recipient, uint256 amount)... */\n      swap3\n      swap2\n      pop\n      pop\n      jump\t// out\n        /* \"contracts/Betting.sol\":3223:3432  function hashOrder(Order memory o)... */\n    tag_104:\n        /* \"contracts/Betting.sol\":3280:3287  bytes32 */\n      0x00\n        /* \"contracts/Betting.sol\":3340:3344  this */\n      address\n        /* \"contracts/Betting.sol\":3392:3393  o */\n      dup3\n        /* \"contracts/Betting.sol\":3392:3400  o.player */\n      0x00\n      add\n      mload\n        /* \"contracts/Betting.sol\":3405:3406  o */\n      dup4\n        /* \"contracts/Betting.sol\":3405:3413  o.commit */\n      0x20\n      add\n      mload\n        /* \"contracts/Betting.sol\":3418:3419  o */\n      dup5\n        /* \"contracts/Betting.sol\":3418:3423  o.bet */\n      0x40\n      add\n      mload\n        /* \"contracts/Betting.sol\":3311:3427  abi.encodePacked(... */\n      add(0x20, mload(0x40))\n      tag_215\n      swap5\n      swap4\n      swap3\n      swap2\n      swap1\n      jump(tag_216)\n    tag_215:\n      mload(0x40)\n        /* \"--CODEGEN--\":49:53   */\n      0x20\n        /* \"--CODEGEN--\":39:46   */\n      dup2\n        /* \"--CODEGEN--\":30:37   */\n      dup4\n        /* \"--CODEGEN--\":26:47   */\n      sub\n        /* \"--CODEGEN--\":22:54   */\n      sub\n        /* \"--CODEGEN--\":13:20   */\n      dup2\n        /* \"--CODEGEN--\":6:55   */\n      mstore\n        /* \"contracts/Betting.sol\":3311:3427  abi.encodePacked(... */\n      swap1\n      0x40\n      mstore\n        /* \"contracts/Betting.sol\":3301:3428  keccak256(abi.encodePacked(... */\n      dup1\n      mload\n      swap1\n      0x20\n      add\n      keccak256\n        /* \"contracts/Betting.sol\":3294:3428  return keccak256(abi.encodePacked(... */\n      swap1\n      pop\n        /* \"contracts/Betting.sol\":3223:3432  function hashOrder(Order memory o)... */\n      swap2\n      swap1\n      pop\n      jump\t// out\n        /* \"contracts/Betting.sol\":2310:2783  function claim(bytes32 gameid)... */\n    tag_110:\n        /* \"contracts/Betting.sol\":2354:2369  Match storage m */\n      0x00\n        /* \"contracts/Betting.sol\":2372:2379  matches */\n      0x07\n        /* \"contracts/Betting.sol\":2372:2387  matches[gameid] */\n      0x00\n        /* \"contracts/Betting.sol\":2380:2386  gameid */\n      dup4\n        /* \"contracts/Betting.sol\":2372:2387  matches[gameid] */\n      dup2\n      mstore\n      0x20\n      add\n      swap1\n      dup2\n      mstore\n      0x20\n      add\n      0x00\n      keccak256\n        /* \"contracts/Betting.sol\":2354:2387  Match storage m = matches[gameid] */\n      swap1\n      pop\n        /* \"contracts/Betting.sol\":2412:2415  now */\n      timestamp\n        /* \"contracts/Betting.sol\":2399:2400  m */\n      dup2\n        /* \"contracts/Betting.sol\":2399:2409  m.deadline */\n      0x07\n      add\n      sload\n        /* \"contracts/Betting.sol\":2399:2415  m.deadline < now */\n      lt\n        /* \"contracts/Betting.sol\":2391:2436  require(m.deadline < now, \"game is still on\") */\n      tag_218\n      jumpi\n      mload(0x40)\n      0x08c379a000000000000000000000000000000000000000000000000000000000\n      dup2\n      mstore\n      0x04\n      add\n      tag_219\n      swap1\n      jump(tag_220)\n    tag_219:\n      mload(0x40)\n      dup1\n      swap2\n      sub\n      swap1\n      revert\n    tag_218:\n        /* \"contracts/Betting.sol\":2469:2470  0 */\n      0x00\n        /* \"contracts/Betting.sol\":2461:2471  bytes32(0) */\n      dup1\n      shl\n        /* \"contracts/Betting.sol\":2448:2449  m */\n      dup2\n        /* \"contracts/Betting.sol\":2448:2457  m.reveal1 */\n      0x04\n      add\n      sload\n        /* \"contracts/Betting.sol\":2448:2471  m.reveal1 == bytes32(0) */\n      eq\n        /* \"contracts/Betting.sol\":2448:2498  m.reveal1 == bytes32(0) || m.reveal2 == bytes32(0) */\n      dup1\n      tag_221\n      jumpi\n      pop\n        /* \"contracts/Betting.sol\":2496:2497  0 */\n      0x00\n        /* \"contracts/Betting.sol\":2488:2498  bytes32(0) */\n      dup1\n      shl\n        /* \"contracts/Betting.sol\":2475:2476  m */\n      dup2\n        /* \"contracts/Betting.sol\":2475:2484  m.reveal2 */\n      0x05\n      add\n      sload\n        /* \"contracts/Betting.sol\":2475:2498  m.reveal2 == bytes32(0) */\n      eq\n        /* \"contracts/Betting.sol\":2448:2498  m.reveal1 == bytes32(0) || m.reveal2 == bytes32(0) */\n    tag_221:\n        /* \"contracts/Betting.sol\":2440:2499  require(m.reveal1 == bytes32(0) || m.reveal2 == bytes32(0)) */\n      tag_222\n      jumpi\n      0x00\n      dup1\n      revert\n    tag_222:\n        /* \"contracts/Betting.sol\":2530:2531  0 */\n      0x00\n        /* \"contracts/Betting.sol\":2522:2532  bytes32(0) */\n      dup1\n      shl\n        /* \"contracts/Betting.sol\":2509:2510  m */\n      dup2\n        /* \"contracts/Betting.sol\":2509:2518  m.reveal1 */\n      0x04\n      add\n      sload\n        /* \"contracts/Betting.sol\":2509:2532  m.reveal1 != bytes32(0) */\n      eq\n        /* \"contracts/Betting.sol\":2505:2736  if (m.reveal1 != bytes32(0))... */\n      tag_223\n      jumpi\n        /* \"contracts/Betting.sol\":2541:2568  unlock(m.player1, m.reward) */\n      tag_224\n        /* \"contracts/Betting.sol\":2548:2549  m */\n      dup2\n        /* \"contracts/Betting.sol\":2548:2557  m.player1 */\n      0x00\n      add\n      0x00\n      swap1\n      sload\n      swap1\n      0x0100\n      exp\n      swap1\n      div\n      0xffffffffffffffffffffffffffffffffffffffff\n      and\n        /* \"contracts/Betting.sol\":2559:2560  m */\n      dup3\n        /* \"contracts/Betting.sol\":2559:2567  m.reward */\n      0x06\n      add\n      sload\n        /* \"contracts/Betting.sol\":2541:2547  unlock */\n      tag_204\n        /* \"contracts/Betting.sol\":2541:2568  unlock(m.player1, m.reward) */\n      jump\t// in\n    tag_224:\n        /* \"contracts/Betting.sol\":2505:2736  if (m.reveal1 != bytes32(0))... */\n      jump(tag_225)\n    tag_223:\n        /* \"contracts/Betting.sol\":2606:2607  0 */\n      0x00\n        /* \"contracts/Betting.sol\":2598:2608  bytes32(0) */\n      dup1\n      shl\n        /* \"contracts/Betting.sol\":2585:2586  m */\n      dup2\n        /* \"contracts/Betting.sol\":2585:2594  m.reveal2 */\n      0x05\n      add\n      sload\n        /* \"contracts/Betting.sol\":2585:2608  m.reveal2 != bytes32(0) */\n      eq\n        /* \"contracts/Betting.sol\":2581:2736  if (m.reveal2 != bytes32(0))... */\n      tag_226\n      jumpi\n        /* \"contracts/Betting.sol\":2617:2644  unlock(m.player2, m.reward) */\n      tag_227\n        /* \"contracts/Betting.sol\":2624:2625  m */\n      dup2\n        /* \"contracts/Betting.sol\":2624:2633  m.player2 */\n      0x01\n      add\n      0x00\n      swap1\n      sload\n      swap1\n      0x0100\n      exp\n      swap1\n      div\n      0xffffffffffffffffffffffffffffffffffffffff\n      and\n        /* \"contracts/Betting.sol\":2635:2636  m */\n      dup3\n        /* \"contracts/Betting.sol\":2635:2643  m.reward */\n      0x06\n      add\n      sload\n        /* \"contracts/Betting.sol\":2617:2623  unlock */\n      tag_204\n        /* \"contracts/Betting.sol\":2617:2644  unlock(m.player2, m.reward) */\n      jump\t// in\n    tag_227:\n        /* \"contracts/Betting.sol\":2581:2736  if (m.reveal2 != bytes32(0))... */\n      jump(tag_228)\n    tag_226:\n        /* \"contracts/Betting.sol\":2664:2695  unlock(m.player1, m.reward / 2) */\n      tag_229\n        /* \"contracts/Betting.sol\":2671:2672  m */\n      dup2\n        /* \"contracts/Betting.sol\":2671:2680  m.player1 */\n      0x00\n      add\n      0x00\n      swap1\n      sload\n      swap1\n      0x0100\n      exp\n      swap1\n      div\n      0xffffffffffffffffffffffffffffffffffffffff\n      and\n        /* \"contracts/Betting.sol\":2693:2694  2 */\n      0x02\n        /* \"contracts/Betting.sol\":2682:2683  m */\n      dup4\n        /* \"contracts/Betting.sol\":2682:2690  m.reward */\n      0x06\n      add\n      sload\n        /* \"contracts/Betting.sol\":2682:2694  m.reward / 2 */\n      dup2\n      tag_230\n      jumpi\n      invalid\n    tag_230:\n      div\n        /* \"contracts/Betting.sol\":2664:2670  unlock */\n      tag_204\n        /* \"contracts/Betting.sol\":2664:2695  unlock(m.player1, m.reward / 2) */\n      jump\t// in\n    tag_229:\n        /* \"contracts/Betting.sol\":2700:2731  unlock(m.player2, m.reward / 2) */\n      tag_231\n        /* \"contracts/Betting.sol\":2707:2708  m */\n      dup2\n        /* \"contracts/Betting.sol\":2707:2716  m.player2 */\n      0x01\n      add\n      0x00\n      swap1\n      sload\n      swap1\n      0x0100\n      exp\n      swap1\n      div\n      0xffffffffffffffffffffffffffffffffffffffff\n      and\n        /* \"contracts/Betting.sol\":2729:2730  2 */\n      0x02\n        /* \"contracts/Betting.sol\":2718:2719  m */\n      dup4\n        /* \"contracts/Betting.sol\":2718:2726  m.reward */\n      0x06\n      add\n      sload\n        /* \"contracts/Betting.sol\":2718:2730  m.reward / 2 */\n      dup2\n      tag_232\n      jumpi\n      invalid\n    tag_232:\n      div\n        /* \"contracts/Betting.sol\":2700:2706  unlock */\n      tag_204\n        /* \"contracts/Betting.sol\":2700:2731  unlock(m.player2, m.reward / 2) */\n      jump\t// in\n    tag_231:\n        /* \"contracts/Betting.sol\":2581:2736  if (m.reveal2 != bytes32(0))... */\n    tag_228:\n        /* \"contracts/Betting.sol\":2505:2736  if (m.reveal1 != bytes32(0))... */\n    tag_225:\n        /* \"contracts/Betting.sol\":2750:2751  0 */\n      0x00\n        /* \"contracts/Betting.sol\":2739:2740  m */\n      dup2\n        /* \"contracts/Betting.sol\":2739:2747  m.reward */\n      0x06\n      add\n        /* \"contracts/Betting.sol\":2739:2751  m.reward = 0 */\n      dup2\n      swap1\n      sstore\n      pop\n        /* \"contracts/Betting.sol\":2310:2783  function claim(bytes32 gameid)... */\n      pop\n      pop\n      jump\t// out\n        /* \"contracts/Escrow.sol\":250:324  function deposit()... */\n    tag_112:\n        /* \"contracts/Escrow.sol\":292:320  _mint(msg.sender, msg.value) */\n      tag_234\n        /* \"contracts/Escrow.sol\":298:308  msg.sender */\n      caller\n        /* \"contracts/Escrow.sol\":310:319  msg.value */\n      callvalue\n        /* \"contracts/Escrow.sol\":292:297  _mint */\n      tag_211\n        /* \"contracts/Escrow.sol\":292:320  _mint(msg.sender, msg.value) */\n      jump\t// in\n    tag_234:\n        /* \"contracts/Escrow.sol\":250:324  function deposit()... */\n      jump\t// out\n        /* \"contracts/ERC20.sol\":1085:1210  function allowance(address owner, address spender)... */\n    tag_117:\n        /* \"contracts/ERC20.sol\":1158:1165  uint256 */\n      0x00\n        /* \"contracts/ERC20.sol\":1179:1190  _allowances */\n      0x01\n        /* \"contracts/ERC20.sol\":1179:1197  _allowances[owner] */\n      0x00\n        /* \"contracts/ERC20.sol\":1191:1196  owner */\n      dup5\n        /* \"contracts/ERC20.sol\":1179:1197  _allowances[owner] */\n      0xffffffffffffffffffffffffffffffffffffffff\n      and\n      0xffffffffffffffffffffffffffffffffffffffff\n      and\n      dup2\n      mstore\n      0x20\n      add\n      swap1\n      dup2\n      mstore\n      0x20\n      add\n      0x00\n      keccak256\n        /* \"contracts/ERC20.sol\":1179:1206  _allowances[owner][spender] */\n      0x00\n        /* \"contracts/ERC20.sol\":1198:1205  spender */\n      dup4\n        /* \"contracts/ERC20.sol\":1179:1206  _allowances[owner][spender] */\n      0xffffffffffffffffffffffffffffffffffffffff\n      and\n      0xffffffffffffffffffffffffffffffffffffffff\n      and\n      dup2\n      mstore\n      0x20\n      add\n      swap1\n      dup2\n      mstore\n      0x20\n      add\n      0x00\n      keccak256\n      sload\n        /* \"contracts/ERC20.sol\":1172:1206  return _allowances[owner][spender] */\n      swap1\n      pop\n        /* \"contracts/ERC20.sol\":1085:1210  function allowance(address owner, address spender)... */\n      swap3\n      swap2\n      pop\n      pop\n      jump\t// out\n        /* \"contracts/ERC20.sol\":1774:2083  function _approve(address owner, address spender, uint256 amount)... */\n    tag_125:\n        /* \"contracts/ERC20.sol\":1882:1883  0 */\n      0x00\n        /* \"contracts/ERC20.sol\":1863:1884  owner   != address(0) */\n      0xffffffffffffffffffffffffffffffffffffffff\n      and\n        /* \"contracts/ERC20.sol\":1863:1868  owner */\n      dup4\n        /* \"contracts/ERC20.sol\":1863:1884  owner   != address(0) */\n      0xffffffffffffffffffffffffffffffffffffffff\n      and\n      eq\n      iszero\n        /* \"contracts/ERC20.sol\":1855:1925  require(owner   != address(0), \"ERC20: approve from the zero address\") */\n      tag_237\n      jumpi\n      mload(0x40)\n      0x08c379a000000000000000000000000000000000000000000000000000000000\n      dup2\n      mstore\n      0x04\n      add\n      tag_238\n      swap1\n      jump(tag_239)\n    tag_238:\n      mload(0x40)\n      dup1\n      swap2\n      sub\n      swap1\n      revert\n    tag_237:\n        /* \"contracts/ERC20.sol\":1956:1957  0 */\n      0x00\n        /* \"contracts/ERC20.sol\":1937:1958  spender != address(0) */\n      0xffffffffffffffffffffffffffffffffffffffff\n      and\n        /* \"contracts/ERC20.sol\":1937:1944  spender */\n      dup3\n        /* \"contracts/ERC20.sol\":1937:1958  spender != address(0) */\n      0xffffffffffffffffffffffffffffffffffffffff\n      and\n      eq\n      iszero\n        /* \"contracts/ERC20.sol\":1929:1997  require(spender != address(0), \"ERC20: approve to the zero address\") */\n      tag_240\n      jumpi\n      mload(0x40)\n      0x08c379a000000000000000000000000000000000000000000000000000000000\n      dup2\n      mstore\n      0x04\n      add\n      tag_241\n      swap1\n      jump(tag_242)\n    tag_241:\n      mload(0x40)\n      dup1\n      swap2\n      sub\n      swap1\n      revert\n    tag_240:\n        /* \"contracts/ERC20.sol\":2032:2038  amount */\n      dup1\n        /* \"contracts/ERC20.sol\":2002:2013  _allowances */\n      0x01\n        /* \"contracts/ERC20.sol\":2002:2020  _allowances[owner] */\n      0x00\n        /* \"contracts/ERC20.sol\":2014:2019  owner */\n      dup6\n        /* \"contracts/ERC20.sol\":2002:2020  _allowances[owner] */\n      0xffffffffffffffffffffffffffffffffffffffff\n      and\n      0xffffffffffffffffffffffffffffffffffffffff\n      and\n      dup2\n      mstore\n      0x20\n      add\n      swap1\n      dup2\n      mstore\n      0x20\n      add\n      0x00\n      keccak256\n        /* \"contracts/ERC20.sol\":2002:2029  _allowances[owner][spender] */\n      0x00\n        /* \"contracts/ERC20.sol\":2021:2028  spender */\n      dup5\n        /* \"contracts/ERC20.sol\":2002:2029  _allowances[owner][spender] */\n      0xffffffffffffffffffffffffffffffffffffffff\n      and\n      0xffffffffffffffffffffffffffffffffffffffff\n      and\n      dup2\n      mstore\n      0x20\n      add\n      swap1\n      dup2\n      mstore\n      0x20\n      add\n      0x00\n      keccak256\n        /* \"contracts/ERC20.sol\":2002:2038  _allowances[owner][spender] = amount */\n      dup2\n      swap1\n      sstore\n      pop\n        /* \"contracts/ERC20.sol\":2063:2070  spender */\n      dup2\n        /* \"contracts/ERC20.sol\":2047:2079  Approval(owner, spender, amount) */\n      0xffffffffffffffffffffffffffffffffffffffff\n      and\n        /* \"contracts/ERC20.sol\":2056:2061  owner */\n      dup4\n        /* \"contracts/ERC20.sol\":2047:2079  Approval(owner, spender, amount) */\n      0xffffffffffffffffffffffffffffffffffffffff\n      and\n      0x8c5be1e5ebec7d5bd14f71427d1e84f3dd0314c0f7b2291e5b200ac8c7c3b925\n        /* \"contracts/ERC20.sol\":2072:2078  amount */\n      dup4\n        /* \"contracts/ERC20.sol\":2047:2079  Approval(owner, spender, amount) */\n      mload(0x40)\n      tag_243\n      swap2\n      swap1\n      jump(tag_40)\n    tag_243:\n      mload(0x40)\n      dup1\n      swap2\n      sub\n      swap1\n      log3\n        /* \"contracts/ERC20.sol\":1774:2083  function _approve(address owner, address spender, uint256 amount)... */\n      pop\n      pop\n      pop\n      jump\t// out\n        /* \"contracts/ERC20.sol\":2086:2525  function _transfer(address sender, address recipient, uint256 amount)... */\n    tag_129:\n        /* \"contracts/ERC20.sol\":2200:2201  0 */\n      0x00\n        /* \"contracts/ERC20.sol\":2179:2202  sender    != address(0) */\n      0xffffffffffffffffffffffffffffffffffffffff\n      and\n        /* \"contracts/ERC20.sol\":2179:2185  sender */\n      dup4\n        /* \"contracts/ERC20.sol\":2179:2202  sender    != address(0) */\n      0xffffffffffffffffffffffffffffffffffffffff\n      and\n      eq\n      iszero\n        /* \"contracts/ERC20.sol\":2171:2244  require(sender    != address(0), \"ERC20: transfer from the zero address\") */\n      tag_245\n      jumpi\n      mload(0x40)\n      0x08c379a000000000000000000000000000000000000000000000000000000000\n      dup2\n      mstore\n      0x04\n      add\n      tag_246\n      swap1\n      jump(tag_247)\n    tag_246:\n      mload(0x40)\n      dup1\n      swap2\n      sub\n      swap1\n      revert\n    tag_245:\n        /* \"contracts/ERC20.sol\":2277:2278  0 */\n      0x00\n        /* \"contracts/ERC20.sol\":2256:2279  recipient != address(0) */\n      0xffffffffffffffffffffffffffffffffffffffff\n      and\n        /* \"contracts/ERC20.sol\":2256:2265  recipient */\n      dup3\n        /* \"contracts/ERC20.sol\":2256:2279  recipient != address(0) */\n      0xffffffffffffffffffffffffffffffffffffffff\n      and\n      eq\n      iszero\n        /* \"contracts/ERC20.sol\":2248:2319  require(recipient != address(0), \"ERC20: transfer to the zero address\") */\n      tag_248\n      jumpi\n      mload(0x40)\n      0x08c379a000000000000000000000000000000000000000000000000000000000\n      dup2\n      mstore\n      0x04\n      add\n      tag_249\n      swap1\n      jump(tag_250)\n    tag_249:\n      mload(0x40)\n      dup1\n      swap2\n      sub\n      swap1\n      revert\n    tag_248:\n        /* \"contracts/ERC20.sol\":2347:2418  _balances[sender].sub(amount, \"ERC20: transfer amount exceeds balance\") */\n      tag_251\n        /* \"contracts/ERC20.sol\":2369:2375  amount */\n      dup2\n        /* \"contracts/ERC20.sol\":2347:2418  _balances[sender].sub(amount, \"ERC20: transfer amount exceeds balance\") */\n      mload(0x40)\n      dup1\n      0x60\n      add\n      0x40\n      mstore\n      dup1\n      0x26\n      dup2\n      mstore\n      0x20\n      add\n      data_4107e8a8b9e94bf8ff83080ddec1c0bffe897ebc2241b89d44f66b3d274088b6\n      0x26\n      swap2\n      codecopy\n        /* \"contracts/ERC20.sol\":2347:2356  _balances */\n      0x00\n        /* \"contracts/ERC20.sol\":2347:2364  _balances[sender] */\n      dup1\n        /* \"contracts/ERC20.sol\":2357:2363  sender */\n      dup8\n        /* \"contracts/ERC20.sol\":2347:2364  _balances[sender] */\n      0xffffffffffffffffffffffffffffffffffffffff\n      and\n      0xffffffffffffffffffffffffffffffffffffffff\n      and\n      dup2\n      mstore\n      0x20\n      add\n      swap1\n      dup2\n      mstore\n      0x20\n      add\n      0x00\n      keccak256\n      sload\n        /* \"contracts/ERC20.sol\":2347:2368  _balances[sender].sub */\n      tag_132\n      swap1\n        /* \"contracts/ERC20.sol\":2347:2418  _balances[sender].sub(amount, \"ERC20: transfer amount exceeds balance\") */\n      swap3\n      swap2\n      swap1\n      0xffffffff\n      and\n      jump\t// in\n    tag_251:\n        /* \"contracts/ERC20.sol\":2324:2333  _balances */\n      0x00\n        /* \"contracts/ERC20.sol\":2324:2341  _balances[sender] */\n      dup1\n        /* \"contracts/ERC20.sol\":2334:2340  sender */\n      dup6\n        /* \"contracts/ERC20.sol\":2324:2341  _balances[sender] */\n      0xffffffffffffffffffffffffffffffffffffffff\n      and\n      0xffffffffffffffffffffffffffffffffffffffff\n      and\n      dup2\n      mstore\n      0x20\n      add\n      swap1\n      dup2\n      mstore\n      0x20\n      add\n      0x00\n      keccak256\n        /* \"contracts/ERC20.sol\":2324:2418  _balances[sender]    = _balances[sender].sub(amount, \"ERC20: transfer amount exceeds balance\") */\n      dup2\n      swap1\n      sstore\n      pop\n        /* \"contracts/ERC20.sol\":2445:2477  _balances[recipient].add(amount) */\n      tag_252\n        /* \"contracts/ERC20.sol\":2470:2476  amount */\n      dup2\n        /* \"contracts/ERC20.sol\":2445:2454  _balances */\n      0x00\n        /* \"contracts/ERC20.sol\":2445:2465  _balances[recipient] */\n      dup1\n        /* \"contracts/ERC20.sol\":2455:2464  recipient */\n      dup6\n        /* \"contracts/ERC20.sol\":2445:2465  _balances[recipient] */\n      0xffffffffffffffffffffffffffffffffffffffff\n      and\n      0xffffffffffffffffffffffffffffffffffffffff\n      and\n      dup2\n      mstore\n      0x20\n      add\n      swap1\n      dup2\n      mstore\n      0x20\n      add\n      0x00\n      keccak256\n      sload\n        /* \"contracts/ERC20.sol\":2445:2469  _balances[recipient].add */\n      tag_253\n      swap1\n        /* \"contracts/ERC20.sol\":2445:2477  _balances[recipient].add(amount) */\n      swap2\n      swap1\n      0xffffffff\n      and\n      jump\t// in\n    tag_252:\n        /* \"contracts/ERC20.sol\":2422:2431  _balances */\n      0x00\n        /* \"contracts/ERC20.sol\":2422:2442  _balances[recipient] */\n      dup1\n        /* \"contracts/ERC20.sol\":2432:2441  recipient */\n      dup5\n        /* \"contracts/ERC20.sol\":2422:2442  _balances[recipient] */\n      0xffffffffffffffffffffffffffffffffffffffff\n      and\n      0xffffffffffffffffffffffffffffffffffffffff\n      and\n      dup2\n      mstore\n      0x20\n      add\n      swap1\n      dup2\n      mstore\n      0x20\n      add\n      0x00\n      keccak256\n        /* \"contracts/ERC20.sol\":2422:2477  _balances[recipient] = _balances[recipient].add(amount) */\n      dup2\n      swap1\n      sstore\n      pop\n        /* \"contracts/ERC20.sol\":2503:2512  recipient */\n      dup2\n        /* \"contracts/ERC20.sol\":2486:2521  Transfer(sender, recipient, amount) */\n      0xffffffffffffffffffffffffffffffffffffffff\n      and\n        /* \"contracts/ERC20.sol\":2495:2501  sender */\n      dup4\n        /* \"contracts/ERC20.sol\":2486:2521  Transfer(sender, recipient, amount) */\n      0xffffffffffffffffffffffffffffffffffffffff\n      and\n      0xddf252ad1be2c89b69c2b068fc378daa952ba7f163c4a11628f55a4df523b3ef\n        /* \"contracts/ERC20.sol\":2514:2520  amount */\n      dup4\n        /* \"contracts/ERC20.sol\":2486:2521  Transfer(sender, recipient, amount) */\n      mload(0x40)\n      tag_254\n      swap2\n      swap1\n      jump(tag_40)\n    tag_254:\n      mload(0x40)\n      dup1\n      swap2\n      sub\n      swap1\n      log3\n        /* \"contracts/ERC20.sol\":2086:2525  function _transfer(address sender, address recipient, uint256 amount)... */\n      pop\n      pop\n      pop\n      jump\t// out\n        /* \"contracts/libs/SafeMath.sol\":200:350  function sub(uint256 a, uint256 b, string memory err)... */\n    tag_132:\n        /* \"contracts/libs/SafeMath.sol\":278:285  uint256 */\n      0x00\n        /* \"contracts/libs/SafeMath.sol\":305:306  a */\n      dup4\n        /* \"contracts/libs/SafeMath.sol\":300:301  b */\n      dup4\n        /* \"contracts/libs/SafeMath.sol\":300:306  b <= a */\n      gt\n      iszero\n        /* \"contracts/libs/SafeMath.sol\":308:311  err */\n      dup3\n        /* \"contracts/libs/SafeMath.sol\":292:312  require(b <= a, err) */\n      swap1\n      tag_256\n      jumpi\n      mload(0x40)\n      0x08c379a000000000000000000000000000000000000000000000000000000000\n      dup2\n      mstore\n      0x04\n      add\n      tag_257\n      swap2\n      swap1\n      jump(tag_28)\n    tag_257:\n      mload(0x40)\n      dup1\n      swap2\n      sub\n      swap1\n      revert\n    tag_256:\n      pop\n        /* \"contracts/libs/SafeMath.sol\":316:325  uint256 c */\n      0x00\n        /* \"contracts/libs/SafeMath.sol\":332:333  b */\n      dup4\n        /* \"contracts/libs/SafeMath.sol\":328:329  a */\n      dup6\n        /* \"contracts/libs/SafeMath.sol\":328:333  a - b */\n      sub\n        /* \"contracts/libs/SafeMath.sol\":316:333  uint256 c = a - b */\n      swap1\n      pop\n        /* \"contracts/libs/SafeMath.sol\":345:346  c */\n      dup1\n        /* \"contracts/libs/SafeMath.sol\":338:346  return c */\n      swap2\n      pop\n      pop\n        /* \"contracts/libs/SafeMath.sol\":200:350  function sub(uint256 a, uint256 b, string memory err)... */\n      swap4\n      swap3\n      pop\n      pop\n      pop\n      jump\t// out\n        /* \"contracts/ERC20.sol\":2814:3137  function _burn(address account, uint256 amount)... */\n    tag_135:\n        /* \"contracts/ERC20.sol\":2904:2905  0 */\n      0x00\n        /* \"contracts/ERC20.sol\":2885:2906  account != address(0) */\n      0xffffffffffffffffffffffffffffffffffffffff\n      and\n        /* \"contracts/ERC20.sol\":2885:2892  account */\n      dup3\n        /* \"contracts/ERC20.sol\":2885:2906  account != address(0) */\n      0xffffffffffffffffffffffffffffffffffffffff\n      and\n      eq\n      iszero\n        /* \"contracts/ERC20.sol\":2877:2944  require(account != address(0), \"ERC20: burn from the zero address\") */\n      tag_259\n      jumpi\n      mload(0x40)\n      0x08c379a000000000000000000000000000000000000000000000000000000000\n      dup2\n      mstore\n      0x04\n      add\n      tag_260\n      swap1\n      jump(tag_261)\n    tag_260:\n      mload(0x40)\n      dup1\n      swap2\n      sub\n      swap1\n      revert\n    tag_259:\n        /* \"contracts/ERC20.sol\":2970:3038  _balances[account].sub(amount, \"ERC20: burn amount exceeds balance\") */\n      tag_262\n        /* \"contracts/ERC20.sol\":2993:2999  amount */\n      dup2\n        /* \"contracts/ERC20.sol\":2970:3038  _balances[account].sub(amount, \"ERC20: burn amount exceeds balance\") */\n      mload(0x40)\n      dup1\n      0x60\n      add\n      0x40\n      mstore\n      dup1\n      0x22\n      dup2\n      mstore\n      0x20\n      add\n      data_149b126e7125232b4200af45303d04fba8b74653b1a295a6a561a528c33fefdd\n      0x22\n      swap2\n      codecopy\n        /* \"contracts/ERC20.sol\":2970:2979  _balances */\n      0x00\n        /* \"contracts/ERC20.sol\":2970:2988  _balances[account] */\n      dup1\n        /* \"contracts/ERC20.sol\":2980:2987  account */\n      dup7\n        /* \"contracts/ERC20.sol\":2970:2988  _balances[account] */\n      0xffffffffffffffffffffffffffffffffffffffff\n      and\n      0xffffffffffffffffffffffffffffffffffffffff\n      and\n      dup2\n      mstore\n      0x20\n      add\n      swap1\n      dup2\n      mstore\n      0x20\n      add\n      0x00\n      keccak256\n      sload\n        /* \"contracts/ERC20.sol\":2970:2992  _balances[account].sub */\n      tag_132\n      swap1\n        /* \"contracts/ERC20.sol\":2970:3038  _balances[account].sub(amount, \"ERC20: burn amount exceeds balance\") */\n      swap3\n      swap2\n      swap1\n      0xffffffff\n      and\n      jump\t// in\n    tag_262:\n        /* \"contracts/ERC20.sol\":2949:2958  _balances */\n      0x00\n        /* \"contracts/ERC20.sol\":2949:2967  _balances[account] */\n      dup1\n        /* \"contracts/ERC20.sol\":2959:2966  account */\n      dup5\n        /* \"contracts/ERC20.sol\":2949:2967  _balances[account] */\n      0xffffffffffffffffffffffffffffffffffffffff\n      and\n      0xffffffffffffffffffffffffffffffffffffffff\n      and\n      dup2\n      mstore\n      0x20\n      add\n      swap1\n      dup2\n      mstore\n      0x20\n      add\n      0x00\n      keccak256\n        /* \"contracts/ERC20.sol\":2949:3038  _balances[account] = _balances[account].sub(amount, \"ERC20: burn amount exceeds balance\") */\n      dup2\n      swap1\n      sstore\n      pop\n        /* \"contracts/ERC20.sol\":3063:3087  _totalSupply.sub(amount) */\n      tag_263\n        /* \"contracts/ERC20.sol\":3080:3086  amount */\n      dup2\n        /* \"contracts/ERC20.sol\":3063:3075  _totalSupply */\n      sload(0x02)\n        /* \"contracts/ERC20.sol\":3063:3079  _totalSupply.sub */\n      tag_264\n      swap1\n        /* \"contracts/ERC20.sol\":3063:3087  _totalSupply.sub(amount) */\n      swap2\n      swap1\n      0xffffffff\n      and\n      jump\t// in\n    tag_263:\n        /* \"contracts/ERC20.sol\":3042:3054  _totalSupply */\n      0x02\n        /* \"contracts/ERC20.sol\":3042:3087  _totalSupply       = _totalSupply.sub(amount) */\n      dup2\n      swap1\n      sstore\n      pop\n        /* \"contracts/ERC20.sol\":3122:3123  0 */\n      0x00\n        /* \"contracts/ERC20.sol\":3096:3133  Transfer(account, address(0), amount) */\n      0xffffffffffffffffffffffffffffffffffffffff\n      and\n        /* \"contracts/ERC20.sol\":3105:3112  account */\n      dup3\n        /* \"contracts/ERC20.sol\":3096:3133  Transfer(account, address(0), amount) */\n      0xffffffffffffffffffffffffffffffffffffffff\n      and\n      0xddf252ad1be2c89b69c2b068fc378daa952ba7f163c4a11628f55a4df523b3ef\n        /* \"contracts/ERC20.sol\":3126:3132  amount */\n      dup4\n        /* \"contracts/ERC20.sol\":3096:3133  Transfer(account, address(0), amount) */\n      mload(0x40)\n      tag_265\n      swap2\n      swap1\n      jump(tag_40)\n    tag_265:\n      mload(0x40)\n      dup1\n      swap2\n      sub\n      swap1\n      log3\n        /* \"contracts/ERC20.sol\":2814:3137  function _burn(address account, uint256 amount)... */\n      pop\n      pop\n      jump\t// out\n        /* \"contracts/libs/ECDSA.sol\":911:1075  function toEthSignedMessageHash(bytes32 hash)... */\n    tag_169:\n        /* \"contracts/libs/ECDSA.sol\":981:988  bytes32 */\n      0x00\n        /* \"contracts/libs/ECDSA.sol\":1065:1069  hash */\n      dup2\n        /* \"contracts/libs/ECDSA.sol\":1012:1070  abi.encodePacked(\"\\x19Ethereum Signed Message:\\n32\", hash) */\n      add(0x20, mload(0x40))\n      tag_267\n      swap2\n      swap1\n      jump(tag_268)\n    tag_267:\n      mload(0x40)\n        /* \"--CODEGEN--\":49:53   */\n      0x20\n        /* \"--CODEGEN--\":39:46   */\n      dup2\n        /* \"--CODEGEN--\":30:37   */\n      dup4\n        /* \"--CODEGEN--\":26:47   */\n      sub\n        /* \"--CODEGEN--\":22:54   */\n      sub\n        /* \"--CODEGEN--\":13:20   */\n      dup2\n        /* \"--CODEGEN--\":6:55   */\n      mstore\n        /* \"contracts/libs/ECDSA.sol\":1012:1070  abi.encodePacked(\"\\x19Ethereum Signed Message:\\n32\", hash) */\n      swap1\n      0x40\n      mstore\n        /* \"contracts/libs/ECDSA.sol\":1002:1071  keccak256(abi.encodePacked(\"\\x19Ethereum Signed Message:\\n32\", hash)) */\n      dup1\n      mload\n      swap1\n      0x20\n      add\n      keccak256\n        /* \"contracts/libs/ECDSA.sol\":995:1071  return keccak256(abi.encodePacked(\"\\x19Ethereum Signed Message:\\n32\", hash)) */\n      swap1\n      pop\n        /* \"contracts/libs/ECDSA.sol\":911:1075  function toEthSignedMessageHash(bytes32 hash)... */\n      swap2\n      swap1\n      pop\n      jump\t// out\n        /* \"contracts/libs/ECDSA.sol\":78:908  function recover(bytes32 hash, bytes memory signature)... */\n    tag_175:\n        /* \"contracts/libs/ECDSA.sol\":157:164  address */\n      0x00\n        /* \"contracts/libs/ECDSA.sol\":171:180  bytes32 r */\n      dup1\n        /* \"contracts/libs/ECDSA.sol\":184:193  bytes32 s */\n      0x00\n        /* \"contracts/libs/ECDSA.sol\":197:206  uint8   v */\n      dup1\n        /* \"contracts/libs/ECDSA.sol\":235:237  65 */\n      0x41\n        /* \"contracts/libs/ECDSA.sol\":215:224  signature */\n      dup6\n        /* \"contracts/libs/ECDSA.sol\":215:231  signature.length */\n      mload\n        /* \"contracts/libs/ECDSA.sol\":215:237  signature.length == 65 */\n      eq\n        /* \"contracts/libs/ECDSA.sol\":211:815  if (signature.length == 65) // 65bytes: (r,s,v) form... */\n      iszero\n      tag_270\n      jumpi\n        /* \"contracts/libs/ECDSA.sol\":323:327  0x20 */\n      0x20\n        /* \"contracts/libs/ECDSA.sol\":312:321  signature */\n      dup6\n        /* \"contracts/libs/ECDSA.sol\":308:328  add(signature, 0x20) */\n      add\n        /* \"contracts/libs/ECDSA.sol\":302:329  mload(add(signature, 0x20)) */\n      mload\n        /* \"contracts/libs/ECDSA.sol\":289:329  r :=         mload(add(signature, 0x20)) */\n      swap3\n      pop\n        /* \"contracts/libs/ECDSA.sol\":368:372  0x40 */\n      0x40\n        /* \"contracts/libs/ECDSA.sol\":357:366  signature */\n      dup6\n        /* \"contracts/libs/ECDSA.sol\":353:373  add(signature, 0x40) */\n      add\n        /* \"contracts/libs/ECDSA.sol\":347:374  mload(add(signature, 0x40)) */\n      mload\n        /* \"contracts/libs/ECDSA.sol\":334:374  s :=         mload(add(signature, 0x40)) */\n      swap2\n      pop\n        /* \"contracts/libs/ECDSA.sol\":413:417  0x60 */\n      0x60\n        /* \"contracts/libs/ECDSA.sol\":402:411  signature */\n      dup6\n        /* \"contracts/libs/ECDSA.sol\":398:418  add(signature, 0x60) */\n      add\n        /* \"contracts/libs/ECDSA.sol\":392:419  mload(add(signature, 0x60)) */\n      mload\n        /* \"contracts/libs/ECDSA.sol\":389:390  0 */\n      0x00\n        /* \"contracts/libs/ECDSA.sol\":384:420  byte(0, mload(add(signature, 0x60))) */\n      byte\n        /* \"contracts/libs/ECDSA.sol\":379:420  v := byte(0, mload(add(signature, 0x60))) */\n      swap1\n      pop\n        /* \"contracts/libs/ECDSA.sol\":283:425  {... */\n      jump(tag_271)\n    tag_270:\n        /* \"contracts/libs/ECDSA.sol\":461:463  64 */\n      0x40\n        /* \"contracts/libs/ECDSA.sol\":441:450  signature */\n      dup6\n        /* \"contracts/libs/ECDSA.sol\":441:457  signature.length */\n      mload\n        /* \"contracts/libs/ECDSA.sol\":441:463  signature.length == 64 */\n      eq\n        /* \"contracts/libs/ECDSA.sol\":437:815  if (signature.length == 64) // 64bytes: (r,vs) form  see EIP2098... */\n      iszero\n      tag_272\n      jumpi\n        /* \"contracts/libs/ECDSA.sol\":571:575  0x20 */\n      0x20\n        /* \"contracts/libs/ECDSA.sol\":560:569  signature */\n      dup6\n        /* \"contracts/libs/ECDSA.sol\":556:576  add(signature, 0x20) */\n      add\n        /* \"contracts/libs/ECDSA.sol\":550:577  mload(add(signature, 0x20)) */\n      mload\n        /* \"contracts/libs/ECDSA.sol\":530:577  r :=                mload(add(signature, 0x20)) */\n      swap3\n      pop\n        /* \"contracts/libs/ECDSA.sol\":631:697  0x7fffffffffffffffffffffffffffffffffffffffffffffffffffffffffffffff */\n      0x7fffffffffffffffffffffffffffffffffffffffffffffffffffffffffffffff\n        /* \"contracts/libs/ECDSA.sol\":623:627  0x40 */\n      0x40\n        /* \"contracts/libs/ECDSA.sol\":612:621  signature */\n      dup7\n        /* \"contracts/libs/ECDSA.sol\":608:628  add(signature, 0x40) */\n      add\n        /* \"contracts/libs/ECDSA.sol\":602:629  mload(add(signature, 0x40)) */\n      mload\n        /* \"contracts/libs/ECDSA.sol\":587:698  and(           mload(add(signature, 0x40)), 0x7fffffffffffffffffffffffffffffffffffffffffffffffffffffffffffffff) */\n      and\n        /* \"contracts/libs/ECDSA.sol\":582:698  s := and(           mload(add(signature, 0x40)), 0x7fffffffffffffffffffffffffffffffffffffffffffffffffffffffffffffff) */\n      swap2\n      pop\n        /* \"contracts/libs/ECDSA.sol\":744:748  0x40 */\n      0x40\n        /* \"contracts/libs/ECDSA.sol\":733:742  signature */\n      dup6\n        /* \"contracts/libs/ECDSA.sol\":729:749  add(signature, 0x40) */\n      add\n        /* \"contracts/libs/ECDSA.sol\":723:750  mload(add(signature, 0x40)) */\n      mload\n        /* \"contracts/libs/ECDSA.sol\":720:721  0 */\n      0x00\n        /* \"contracts/libs/ECDSA.sol\":715:751  byte(0, mload(add(signature, 0x40))) */\n      byte\n        /* \"contracts/libs/ECDSA.sol\":712:713  7 */\n      0x07\n        /* \"contracts/libs/ECDSA.sol\":708:752  shr(7, byte(0, mload(add(signature, 0x40)))) */\n      shr\n        /* \"contracts/libs/ECDSA.sol\":703:752  v := shr(7, byte(0, mload(add(signature, 0x40)))) */\n      swap1\n      pop\n        /* \"contracts/libs/ECDSA.sol\":524:757  {... */\n      jump(tag_273)\n    tag_272:\n        /* \"contracts/libs/ECDSA.sol\":776:810  revert(\"invalid-signature-format\") */\n      mload(0x40)\n      0x08c379a000000000000000000000000000000000000000000000000000000000\n      dup2\n      mstore\n      0x04\n      add\n      tag_274\n      swap1\n      jump(tag_275)\n    tag_274:\n      mload(0x40)\n      dup1\n      swap2\n      sub\n      swap1\n      revert\n        /* \"contracts/libs/ECDSA.sol\":437:815  if (signature.length == 64) // 64bytes: (r,vs) form  see EIP2098... */\n    tag_273:\n        /* \"contracts/libs/ECDSA.sol\":211:815  if (signature.length == 65) // 65bytes: (r,s,v) form... */\n    tag_271:\n        /* \"contracts/libs/ECDSA.sol\":827:829  27 */\n      0x1b\n        /* \"contracts/libs/ECDSA.sol\":823:824  v */\n      dup2\n        /* \"contracts/libs/ECDSA.sol\":823:829  v < 27 */\n      0xff\n      and\n      lt\n        /* \"contracts/libs/ECDSA.sol\":819:838  if (v < 27) v += 27 */\n      iszero\n      tag_276\n      jumpi\n        /* \"contracts/libs/ECDSA.sol\":836:838  27 */\n      0x1b\n        /* \"contracts/libs/ECDSA.sol\":831:838  v += 27 */\n      dup2\n      add\n      swap1\n      pop\n        /* \"contracts/libs/ECDSA.sol\":819:838  if (v < 27) v += 27 */\n    tag_276:\n        /* \"contracts/libs/ECDSA.sol\":855:857  27 */\n      0x1b\n        /* \"contracts/libs/ECDSA.sol\":850:851  v */\n      dup2\n        /* \"contracts/libs/ECDSA.sol\":850:857  v == 27 */\n      0xff\n      and\n      eq\n        /* \"contracts/libs/ECDSA.sol\":850:868  v == 27 || v == 28 */\n      dup1\n      tag_277\n      jumpi\n      pop\n        /* \"contracts/libs/ECDSA.sol\":866:868  28 */\n      0x1c\n        /* \"contracts/libs/ECDSA.sol\":861:862  v */\n      dup2\n        /* \"contracts/libs/ECDSA.sol\":861:868  v == 28 */\n      0xff\n      and\n      eq\n        /* \"contracts/libs/ECDSA.sol\":850:868  v == 27 || v == 28 */\n    tag_277:\n        /* \"contracts/libs/ECDSA.sol\":842:869  require(v == 27 || v == 28) */\n      tag_278\n      jumpi\n      0x00\n      dup1\n      revert\n    tag_278:\n        /* \"contracts/libs/ECDSA.sol\":880:904  ecrecover(hash, v, r, s) */\n      0x01\n        /* \"contracts/libs/ECDSA.sol\":890:894  hash */\n      dup7\n        /* \"contracts/libs/ECDSA.sol\":896:897  v */\n      dup3\n        /* \"contracts/libs/ECDSA.sol\":899:900  r */\n      dup6\n        /* \"contracts/libs/ECDSA.sol\":902:903  s */\n      dup6\n        /* \"contracts/libs/ECDSA.sol\":880:904  ecrecover(hash, v, r, s) */\n      mload(0x40)\n      0x00\n      dup2\n      mstore\n      0x20\n      add\n      0x40\n      mstore\n      mload(0x40)\n      tag_279\n      swap5\n      swap4\n      swap3\n      swap2\n      swap1\n      jump(tag_280)\n    tag_279:\n      0x20\n      mload(0x40)\n      0x20\n      dup2\n      sub\n      swap1\n      dup1\n      dup5\n      sub\n      swap1\n      dup6\n      gas\n      staticcall\n      iszero\n        /* \"--CODEGEN--\":8:17   */\n      dup1\n        /* \"--CODEGEN--\":5:7   */\n      iszero\n      tag_281\n      jumpi\n        /* \"--CODEGEN--\":45:61   */\n      returndatasize\n        /* \"--CODEGEN--\":42:43   */\n      0x00\n        /* \"--CODEGEN--\":39:40   */\n      dup1\n        /* \"--CODEGEN--\":24:62   */\n      returndatacopy\n        /* \"--CODEGEN--\":77:93   */\n      returndatasize\n        /* \"--CODEGEN--\":74:75   */\n      0x00\n        /* \"--CODEGEN--\":67:94   */\n      revert\n        /* \"--CODEGEN--\":5:7   */\n    tag_281:\n        /* \"contracts/libs/ECDSA.sol\":880:904  ecrecover(hash, v, r, s) */\n      pop\n      pop\n      pop\n      mload(sub(mload(0x40), 0x20))\n        /* \"contracts/libs/ECDSA.sol\":873:904  return ecrecover(hash, v, r, s) */\n      swap4\n      pop\n      pop\n      pop\n      pop\n        /* \"contracts/libs/ECDSA.sol\":78:908  function recover(bytes32 hash, bytes memory signature)... */\n      swap3\n      swap2\n      pop\n      pop\n      jump\t// out\n        /* \"contracts/Escrow.sol\":527:628  function lock(address user, uint256 amount)... */\n    tag_184:\n        /* \"contracts/Escrow.sol\":586:624  _transfer(user, address(this), amount) */\n      tag_283\n        /* \"contracts/Escrow.sol\":596:600  user */\n      dup3\n        /* \"contracts/Escrow.sol\":610:614  this */\n      address\n        /* \"contracts/Escrow.sol\":617:623  amount */\n      dup4\n        /* \"contracts/Escrow.sol\":586:595  _transfer */\n      tag_129\n        /* \"contracts/Escrow.sol\":586:624  _transfer(user, address(this), amount) */\n      jump\t// in\n    tag_283:\n        /* \"contracts/Escrow.sol\":527:628  function lock(address user, uint256 amount)... */\n      pop\n      pop\n      jump\t// out\n        /* \"contracts/Escrow.sol\":631:734  function unlock(address user, uint256 amount)... */\n    tag_204:\n        /* \"contracts/Escrow.sol\":692:730  _transfer(address(this), user, amount) */\n      tag_285\n        /* \"contracts/Escrow.sol\":710:714  this */\n      address\n        /* \"contracts/Escrow.sol\":717:721  user */\n      dup4\n        /* \"contracts/Escrow.sol\":723:729  amount */\n      dup4\n        /* \"contracts/Escrow.sol\":692:701  _transfer */\n      tag_129\n        /* \"contracts/Escrow.sol\":692:730  _transfer(address(this), user, amount) */\n      jump\t// in\n    tag_285:\n        /* \"contracts/Escrow.sol\":631:734  function unlock(address user, uint256 amount)... */\n      pop\n      pop\n      jump\t// out\n        /* \"contracts/ERC20.sol\":2528:2811  function _mint(address account, uint256 amount)... */\n    tag_211:\n        /* \"contracts/ERC20.sol\":2618:2619  0 */\n      0x00\n        /* \"contracts/ERC20.sol\":2599:2620  account != address(0) */\n      0xffffffffffffffffffffffffffffffffffffffff\n      and\n        /* \"contracts/ERC20.sol\":2599:2606  account */\n      dup3\n        /* \"contracts/ERC20.sol\":2599:2620  account != address(0) */\n      0xffffffffffffffffffffffffffffffffffffffff\n      and\n      eq\n      iszero\n        /* \"contracts/ERC20.sol\":2591:2656  require(account != address(0), \"ERC20: mint to the zero address\") */\n      tag_287\n      jumpi\n      mload(0x40)\n      0x08c379a000000000000000000000000000000000000000000000000000000000\n      dup2\n      mstore\n      0x04\n      add\n      tag_288\n      swap1\n      jump(tag_289)\n    tag_288:\n      mload(0x40)\n      dup1\n      swap2\n      sub\n      swap1\n      revert\n    tag_287:\n        /* \"contracts/ERC20.sol\":2682:2706  _totalSupply.add(amount) */\n      tag_290\n        /* \"contracts/ERC20.sol\":2699:2705  amount */\n      dup2\n        /* \"contracts/ERC20.sol\":2682:2694  _totalSupply */\n      sload(0x02)\n        /* \"contracts/ERC20.sol\":2682:2698  _totalSupply.add */\n      tag_253\n      swap1\n        /* \"contracts/ERC20.sol\":2682:2706  _totalSupply.add(amount) */\n      swap2\n      swap1\n      0xffffffff\n      and\n      jump\t// in\n    tag_290:\n        /* \"contracts/ERC20.sol\":2661:2673  _totalSupply */\n      0x02\n        /* \"contracts/ERC20.sol\":2661:2706  _totalSupply       = _totalSupply.add(amount) */\n      dup2\n      swap1\n      sstore\n      pop\n        /* \"contracts/ERC20.sol\":2731:2761  _balances[account].add(amount) */\n      tag_291\n        /* \"contracts/ERC20.sol\":2754:2760  amount */\n      dup2\n        /* \"contracts/ERC20.sol\":2731:2740  _balances */\n      0x00\n        /* \"contracts/ERC20.sol\":2731:2749  _balances[account] */\n      dup1\n        /* \"contracts/ERC20.sol\":2741:2748  account */\n      dup6\n        /* \"contracts/ERC20.sol\":2731:2749  _balances[account] */\n      0xffffffffffffffffffffffffffffffffffffffff\n      and\n      0xffffffffffffffffffffffffffffffffffffffff\n      and\n      dup2\n      mstore\n      0x20\n      add\n      swap1\n      dup2\n      mstore\n      0x20\n      add\n      0x00\n      keccak256\n      sload\n        /* \"contracts/ERC20.sol\":2731:2753  _balances[account].add */\n      tag_253\n      swap1\n        /* \"contracts/ERC20.sol\":2731:2761  _balances[account].add(amount) */\n      swap2\n      swap1\n      0xffffffff\n      and\n      jump\t// in\n    tag_291:\n        /* \"contracts/ERC20.sol\":2710:2719  _balances */\n      0x00\n        /* \"contracts/ERC20.sol\":2710:2728  _balances[account] */\n      dup1\n        /* \"contracts/ERC20.sol\":2720:2727  account */\n      dup5\n        /* \"contracts/ERC20.sol\":2710:2728  _balances[account] */\n      0xffffffffffffffffffffffffffffffffffffffff\n      and\n      0xffffffffffffffffffffffffffffffffffffffff\n      and\n      dup2\n      mstore\n      0x20\n      add\n      swap1\n      dup2\n      mstore\n      0x20\n      add\n      0x00\n      keccak256\n        /* \"contracts/ERC20.sol\":2710:2761  _balances[account] = _balances[account].add(amount) */\n      dup2\n      swap1\n      sstore\n      pop\n        /* \"contracts/ERC20.sol\":2791:2798  account */\n      dup2\n        /* \"contracts/ERC20.sol\":2770:2807  Transfer(address(0), account, amount) */\n      0xffffffffffffffffffffffffffffffffffffffff\n      and\n        /* \"contracts/ERC20.sol\":2787:2788  0 */\n      0x00\n        /* \"contracts/ERC20.sol\":2770:2807  Transfer(address(0), account, amount) */\n      0xffffffffffffffffffffffffffffffffffffffff\n      and\n      0xddf252ad1be2c89b69c2b068fc378daa952ba7f163c4a11628f55a4df523b3ef\n        /* \"contracts/ERC20.sol\":2800:2806  amount */\n      dup4\n        /* \"contracts/ERC20.sol\":2770:2807  Transfer(address(0), account, amount) */\n      mload(0x40)\n      tag_292\n      swap2\n      swap1\n      jump(tag_40)\n    tag_292:\n      mload(0x40)\n      dup1\n      swap2\n      sub\n      swap1\n      log3\n        /* \"contracts/ERC20.sol\":2528:2811  function _mint(address account, uint256 amount)... */\n      pop\n      pop\n      jump\t// out\n        /* \"contracts/libs/SafeMath.sol\":798:923  function add(uint256 a, uint256 b) internal pure returns (uint256) { return add(a, b, \"SafeMath: addition overflow\");       } */\n    tag_253:\n        /* \"contracts/libs/SafeMath.sol\":856:863  uint256 */\n      0x00\n        /* \"contracts/libs/SafeMath.sol\":874:914  add(a, b, \"SafeMath: addition overflow\") */\n      tag_294\n        /* \"contracts/libs/SafeMath.sol\":878:879  a */\n      dup4\n        /* \"contracts/libs/SafeMath.sol\":881:882  b */\n      dup4\n        /* \"contracts/libs/SafeMath.sol\":874:914  add(a, b, \"SafeMath: addition overflow\") */\n      mload(0x40)\n      dup1\n      0x40\n      add\n      0x40\n      mstore\n      dup1\n      0x1b\n      dup2\n      mstore\n      0x20\n      add\n      0x536166654d6174683a206164646974696f6e206f766572666c6f770000000000\n      dup2\n      mstore\n      pop\n        /* \"contracts/libs/SafeMath.sol\":874:877  add */\n      tag_295\n        /* \"contracts/libs/SafeMath.sol\":874:914  add(a, b, \"SafeMath: addition overflow\") */\n      jump\t// in\n    tag_294:\n        /* \"contracts/libs/SafeMath.sol\":867:914  return add(a, b, \"SafeMath: addition overflow\") */\n      swap1\n      pop\n        /* \"contracts/libs/SafeMath.sol\":798:923  function add(uint256 a, uint256 b) internal pure returns (uint256) { return add(a, b, \"SafeMath: addition overflow\");       } */\n      swap3\n      swap2\n      pop\n      pop\n      jump\t// out\n        /* \"contracts/libs/SafeMath.sol\":925:1050  function sub(uint256 a, uint256 b) internal pure returns (uint256) { return sub(a, b, \"SafeMath: subtraction overflow\");    } */\n    tag_264:\n        /* \"contracts/libs/SafeMath.sol\":983:990  uint256 */\n      0x00\n        /* \"contracts/libs/SafeMath.sol\":1001:1044  sub(a, b, \"SafeMath: subtraction overflow\") */\n      tag_297\n        /* \"contracts/libs/SafeMath.sol\":1005:1006  a */\n      dup4\n        /* \"contracts/libs/SafeMath.sol\":1008:1009  b */\n      dup4\n        /* \"contracts/libs/SafeMath.sol\":1001:1044  sub(a, b, \"SafeMath: subtraction overflow\") */\n      mload(0x40)\n      dup1\n      0x40\n      add\n      0x40\n      mstore\n      dup1\n      0x1e\n      dup2\n      mstore\n      0x20\n      add\n      0x536166654d6174683a207375627472616374696f6e206f766572666c6f770000\n      dup2\n      mstore\n      pop\n        /* \"contracts/libs/SafeMath.sol\":1001:1004  sub */\n      tag_132\n        /* \"contracts/libs/SafeMath.sol\":1001:1044  sub(a, b, \"SafeMath: subtraction overflow\") */\n      jump\t// in\n    tag_297:\n        /* \"contracts/libs/SafeMath.sol\":994:1044  return sub(a, b, \"SafeMath: subtraction overflow\") */\n      swap1\n      pop\n        /* \"contracts/libs/SafeMath.sol\":925:1050  function sub(uint256 a, uint256 b) internal pure returns (uint256) { return sub(a, b, \"SafeMath: subtraction overflow\");    } */\n      swap3\n      swap2\n      pop\n      pop\n      jump\t// out\n        /* \"contracts/libs/SafeMath.sol\":47:197  function add(uint256 a, uint256 b, string memory err)... */\n    tag_295:\n        /* \"contracts/libs/SafeMath.sol\":125:132  uint256 */\n      0x00\n        /* \"contracts/libs/SafeMath.sol\":139:148  uint256 c */\n      dup1\n        /* \"contracts/libs/SafeMath.sol\":155:156  b */\n      dup4\n        /* \"contracts/libs/SafeMath.sol\":151:152  a */\n      dup6\n        /* \"contracts/libs/SafeMath.sol\":151:156  a + b */\n      add\n        /* \"contracts/libs/SafeMath.sol\":139:156  uint256 c = a + b */\n      swap1\n      pop\n        /* \"contracts/libs/SafeMath.sol\":173:174  a */\n      dup5\n        /* \"contracts/libs/SafeMath.sol\":168:169  c */\n      dup2\n        /* \"contracts/libs/SafeMath.sol\":168:174  c >= a */\n      lt\n      iszero\n        /* \"contracts/libs/SafeMath.sol\":176:179  err */\n      dup4\n        /* \"contracts/libs/SafeMath.sol\":160:180  require(c >= a, err) */\n      swap1\n      tag_299\n      jumpi\n      mload(0x40)\n      0x08c379a000000000000000000000000000000000000000000000000000000000\n      dup2\n      mstore\n      0x04\n      add\n      tag_300\n      swap2\n      swap1\n      jump(tag_28)\n    tag_300:\n      mload(0x40)\n      dup1\n      swap2\n      sub\n      swap1\n      revert\n    tag_299:\n      pop\n        /* \"contracts/libs/SafeMath.sol\":192:193  c */\n      dup1\n        /* \"contracts/libs/SafeMath.sol\":185:193  return c */\n      swap2\n      pop\n      pop\n        /* \"contracts/libs/SafeMath.sol\":47:197  function add(uint256 a, uint256 b, string memory err)... */\n      swap4\n      swap3\n      pop\n      pop\n      pop\n      jump\t// out\n        /* \"--CODEGEN--\":5:135   */\n    tag_302:\n      0x00\n        /* \"--CODEGEN--\":85:91   */\n      dup2\n        /* \"--CODEGEN--\":72:92   */\n      calldataload\n        /* \"--CODEGEN--\":63:92   */\n      swap1\n      pop\n        /* \"--CODEGEN--\":97:130   */\n      tag_303\n        /* \"--CODEGEN--\":124:129   */\n      dup2\n        /* \"--CODEGEN--\":97:130   */\n      jump(tag_304)\n    tag_303:\n        /* \"--CODEGEN--\":57:135   */\n      swap3\n      swap2\n      pop\n      pop\n      jump\n        /* \"--CODEGEN--\":142:272   */\n    tag_305:\n      0x00\n        /* \"--CODEGEN--\":222:228   */\n      dup2\n        /* \"--CODEGEN--\":209:229   */\n      calldataload\n        /* \"--CODEGEN--\":200:229   */\n      swap1\n      pop\n        /* \"--CODEGEN--\":234:267   */\n      tag_306\n        /* \"--CODEGEN--\":261:266   */\n      dup2\n        /* \"--CODEGEN--\":234:267   */\n      jump(tag_307)\n    tag_306:\n        /* \"--CODEGEN--\":194:272   */\n      swap3\n      swap2\n      pop\n      pop\n      jump\n        /* \"--CODEGEN--\":280:712   */\n    tag_308:\n      0x00\n        /* \"--CODEGEN--\":377:380   */\n      dup3\n        /* \"--CODEGEN--\":370:374   */\n      0x1f\n        /* \"--CODEGEN--\":362:368   */\n      dup4\n        /* \"--CODEGEN--\":358:375   */\n      add\n        /* \"--CODEGEN--\":354:381   */\n      slt\n        /* \"--CODEGEN--\":344:346   */\n      tag_309\n      jumpi\n        /* \"--CODEGEN--\":395:396   */\n      0x00\n        /* \"--CODEGEN--\":392:393   */\n      dup1\n        /* \"--CODEGEN--\":385:397   */\n      revert\n        /* \"--CODEGEN--\":344:346   */\n    tag_309:\n        /* \"--CODEGEN--\":432:438   */\n      dup2\n        /* \"--CODEGEN--\":419:439   */\n      calldataload\n        /* \"--CODEGEN--\":454:514   */\n      tag_310\n        /* \"--CODEGEN--\":469:513   */\n      tag_311\n        /* \"--CODEGEN--\":506:512   */\n      dup3\n        /* \"--CODEGEN--\":469:513   */\n      jump(tag_312)\n    tag_311:\n        /* \"--CODEGEN--\":454:514   */\n      jump(tag_313)\n    tag_310:\n        /* \"--CODEGEN--\":445:514   */\n      swap2\n      pop\n        /* \"--CODEGEN--\":534:540   */\n      dup1\n        /* \"--CODEGEN--\":527:532   */\n      dup3\n        /* \"--CODEGEN--\":520:541   */\n      mstore\n        /* \"--CODEGEN--\":570:574   */\n      0x20\n        /* \"--CODEGEN--\":562:568   */\n      dup4\n        /* \"--CODEGEN--\":558:575   */\n      add\n        /* \"--CODEGEN--\":603:607   */\n      0x20\n        /* \"--CODEGEN--\":596:601   */\n      dup4\n        /* \"--CODEGEN--\":592:608   */\n      add\n        /* \"--CODEGEN--\":638:641   */\n      dup6\n        /* \"--CODEGEN--\":629:635   */\n      dup4\n        /* \"--CODEGEN--\":624:627   */\n      dup4\n        /* \"--CODEGEN--\":620:636   */\n      add\n        /* \"--CODEGEN--\":617:642   */\n      gt\n        /* \"--CODEGEN--\":614:616   */\n      iszero\n      tag_314\n      jumpi\n        /* \"--CODEGEN--\":655:656   */\n      0x00\n        /* \"--CODEGEN--\":652:653   */\n      dup1\n        /* \"--CODEGEN--\":645:657   */\n      revert\n        /* \"--CODEGEN--\":614:616   */\n    tag_314:\n        /* \"--CODEGEN--\":665:706   */\n      tag_315\n        /* \"--CODEGEN--\":699:705   */\n      dup4\n        /* \"--CODEGEN--\":694:697   */\n      dup3\n        /* \"--CODEGEN--\":689:692   */\n      dup5\n        /* \"--CODEGEN--\":665:706   */\n      jump(tag_316)\n    tag_315:\n        /* \"--CODEGEN--\":337:712   */\n      pop\n      pop\n      pop\n      swap3\n      swap2\n      pop\n      pop\n      jump\n        /* \"--CODEGEN--\":747:1592   */\n    tag_317:\n      0x00\n        /* \"--CODEGEN--\":857:861   */\n      0x80\n        /* \"--CODEGEN--\":845:854   */\n      dup3\n        /* \"--CODEGEN--\":840:843   */\n      dup5\n        /* \"--CODEGEN--\":836:855   */\n      sub\n        /* \"--CODEGEN--\":832:862   */\n      slt\n        /* \"--CODEGEN--\":829:831   */\n      iszero\n      tag_318\n      jumpi\n        /* \"--CODEGEN--\":875:876   */\n      0x00\n        /* \"--CODEGEN--\":872:873   */\n      dup1\n        /* \"--CODEGEN--\":865:877   */\n      revert\n        /* \"--CODEGEN--\":829:831   */\n    tag_318:\n        /* \"--CODEGEN--\":893:913   */\n      tag_319\n        /* \"--CODEGEN--\":908:912   */\n      0x80\n        /* \"--CODEGEN--\":893:913   */\n      jump(tag_313)\n    tag_319:\n        /* \"--CODEGEN--\":884:913   */\n      swap1\n      pop\n        /* \"--CODEGEN--\":965:966   */\n      0x00\n        /* \"--CODEGEN--\":997:1046   */\n      tag_320\n        /* \"--CODEGEN--\":1042:1045   */\n      dup5\n        /* \"--CODEGEN--\":1033:1039   */\n      dup3\n        /* \"--CODEGEN--\":1022:1031   */\n      dup6\n        /* \"--CODEGEN--\":1018:1040   */\n      add\n        /* \"--CODEGEN--\":997:1046   */\n      jump(tag_302)\n    tag_320:\n        /* \"--CODEGEN--\":990:994   */\n      0x00\n        /* \"--CODEGEN--\":983:988   */\n      dup4\n        /* \"--CODEGEN--\":979:995   */\n      add\n        /* \"--CODEGEN--\":972:1047   */\n      mstore\n        /* \"--CODEGEN--\":923:1058   */\n      pop\n        /* \"--CODEGEN--\":1110:1112   */\n      0x20\n        /* \"--CODEGEN--\":1143:1192   */\n      tag_321\n        /* \"--CODEGEN--\":1188:1191   */\n      dup5\n        /* \"--CODEGEN--\":1179:1185   */\n      dup3\n        /* \"--CODEGEN--\":1168:1177   */\n      dup6\n        /* \"--CODEGEN--\":1164:1186   */\n      add\n        /* \"--CODEGEN--\":1143:1192   */\n      jump(tag_305)\n    tag_321:\n        /* \"--CODEGEN--\":1136:1140   */\n      0x20\n        /* \"--CODEGEN--\":1129:1134   */\n      dup4\n        /* \"--CODEGEN--\":1125:1141   */\n      add\n        /* \"--CODEGEN--\":1118:1193   */\n      mstore\n        /* \"--CODEGEN--\":1068:1204   */\n      pop\n        /* \"--CODEGEN--\":1253:1255   */\n      0x40\n        /* \"--CODEGEN--\":1286:1335   */\n      tag_322\n        /* \"--CODEGEN--\":1331:1334   */\n      dup5\n        /* \"--CODEGEN--\":1322:1328   */\n      dup3\n        /* \"--CODEGEN--\":1311:1320   */\n      dup6\n        /* \"--CODEGEN--\":1307:1329   */\n      add\n        /* \"--CODEGEN--\":1286:1335   */\n      jump(tag_323)\n    tag_322:\n        /* \"--CODEGEN--\":1279:1283   */\n      0x40\n        /* \"--CODEGEN--\":1272:1277   */\n      dup4\n        /* \"--CODEGEN--\":1268:1284   */\n      add\n        /* \"--CODEGEN--\":1261:1336   */\n      mstore\n        /* \"--CODEGEN--\":1214:1347   */\n      pop\n        /* \"--CODEGEN--\":1425:1427   */\n      0x60\n        /* \"--CODEGEN--\":1414:1423   */\n      dup3\n        /* \"--CODEGEN--\":1410:1428   */\n      add\n        /* \"--CODEGEN--\":1397:1429   */\n      calldataload\n        /* \"--CODEGEN--\":1449:1467   */\n      0xffffffffffffffff\n        /* \"--CODEGEN--\":1441:1447   */\n      dup2\n        /* \"--CODEGEN--\":1438:1468   */\n      gt\n        /* \"--CODEGEN--\":1435:1437   */\n      iszero\n      tag_324\n      jumpi\n        /* \"--CODEGEN--\":1481:1482   */\n      0x00\n        /* \"--CODEGEN--\":1478:1479   */\n      dup1\n        /* \"--CODEGEN--\":1471:1483   */\n      revert\n        /* \"--CODEGEN--\":1435:1437   */\n    tag_324:\n        /* \"--CODEGEN--\":1516:1570   */\n      tag_325\n        /* \"--CODEGEN--\":1566:1569   */\n      dup5\n        /* \"--CODEGEN--\":1557:1563   */\n      dup3\n        /* \"--CODEGEN--\":1546:1555   */\n      dup6\n        /* \"--CODEGEN--\":1542:1564   */\n      add\n        /* \"--CODEGEN--\":1516:1570   */\n      jump(tag_308)\n    tag_325:\n        /* \"--CODEGEN--\":1509:1513   */\n      0x60\n        /* \"--CODEGEN--\":1502:1507   */\n      dup4\n        /* \"--CODEGEN--\":1498:1514   */\n      add\n        /* \"--CODEGEN--\":1491:1571   */\n      mstore\n        /* \"--CODEGEN--\":1357:1582   */\n      pop\n        /* \"--CODEGEN--\":823:1592   */\n      swap3\n      swap2\n      pop\n      pop\n      jump\n        /* \"--CODEGEN--\":1599:1729   */\n    tag_323:\n      0x00\n        /* \"--CODEGEN--\":1679:1685   */\n      dup2\n        /* \"--CODEGEN--\":1666:1686   */\n      calldataload\n        /* \"--CODEGEN--\":1657:1686   */\n      swap1\n      pop\n        /* \"--CODEGEN--\":1691:1724   */\n      tag_326\n        /* \"--CODEGEN--\":1718:1723   */\n      dup2\n        /* \"--CODEGEN--\":1691:1724   */\n      jump(tag_327)\n    tag_326:\n        /* \"--CODEGEN--\":1651:1729   */\n      swap3\n      swap2\n      pop\n      pop\n      jump\n        /* \"--CODEGEN--\":1736:1977   */\n    tag_70:\n      0x00\n        /* \"--CODEGEN--\":1840:1842   */\n      0x20\n        /* \"--CODEGEN--\":1828:1837   */\n      dup3\n        /* \"--CODEGEN--\":1819:1826   */\n      dup5\n        /* \"--CODEGEN--\":1815:1838   */\n      sub\n        /* \"--CODEGEN--\":1811:1843   */\n      slt\n        /* \"--CODEGEN--\":1808:1810   */\n      iszero\n      tag_328\n      jumpi\n        /* \"--CODEGEN--\":1856:1857   */\n      0x00\n        /* \"--CODEGEN--\":1853:1854   */\n      dup1\n        /* \"--CODEGEN--\":1846:1858   */\n      revert\n        /* \"--CODEGEN--\":1808:1810   */\n    tag_328:\n        /* \"--CODEGEN--\":1891:1892   */\n      0x00\n        /* \"--CODEGEN--\":1908:1961   */\n      tag_329\n        /* \"--CODEGEN--\":1953:1960   */\n      dup5\n        /* \"--CODEGEN--\":1944:1950   */\n      dup3\n        /* \"--CODEGEN--\":1933:1942   */\n      dup6\n        /* \"--CODEGEN--\":1929:1951   */\n      add\n        /* \"--CODEGEN--\":1908:1961   */\n      jump(tag_302)\n    tag_329:\n        /* \"--CODEGEN--\":1898:1961   */\n      swap2\n      pop\n        /* \"--CODEGEN--\":1870:1967   */\n      pop\n        /* \"--CODEGEN--\":1802:1977   */\n      swap3\n      swap2\n      pop\n      pop\n      jump\n        /* \"--CODEGEN--\":1984:2350   */\n    tag_116:\n      0x00\n      dup1\n        /* \"--CODEGEN--\":2105:2107   */\n      0x40\n        /* \"--CODEGEN--\":2093:2102   */\n      dup4\n        /* \"--CODEGEN--\":2084:2091   */\n      dup6\n        /* \"--CODEGEN--\":2080:2103   */\n      sub\n        /* \"--CODEGEN--\":2076:2108   */\n      slt\n        /* \"--CODEGEN--\":2073:2075   */\n      iszero\n      tag_330\n      jumpi\n        /* \"--CODEGEN--\":2121:2122   */\n      0x00\n        /* \"--CODEGEN--\":2118:2119   */\n      dup1\n        /* \"--CODEGEN--\":2111:2123   */\n      revert\n        /* \"--CODEGEN--\":2073:2075   */\n    tag_330:\n        /* \"--CODEGEN--\":2156:2157   */\n      0x00\n        /* \"--CODEGEN--\":2173:2226   */\n      tag_331\n        /* \"--CODEGEN--\":2218:2225   */\n      dup6\n        /* \"--CODEGEN--\":2209:2215   */\n      dup3\n        /* \"--CODEGEN--\":2198:2207   */\n      dup7\n        /* \"--CODEGEN--\":2194:2216   */\n      add\n        /* \"--CODEGEN--\":2173:2226   */\n      jump(tag_302)\n    tag_331:\n        /* \"--CODEGEN--\":2163:2226   */\n      swap3\n      pop\n        /* \"--CODEGEN--\":2135:2232   */\n      pop\n        /* \"--CODEGEN--\":2263:2265   */\n      0x20\n        /* \"--CODEGEN--\":2281:2334   */\n      tag_332\n        /* \"--CODEGEN--\":2326:2333   */\n      dup6\n        /* \"--CODEGEN--\":2317:2323   */\n      dup3\n        /* \"--CODEGEN--\":2306:2315   */\n      dup7\n        /* \"--CODEGEN--\":2302:2324   */\n      add\n        /* \"--CODEGEN--\":2281:2334   */\n      jump(tag_302)\n    tag_332:\n        /* \"--CODEGEN--\":2271:2334   */\n      swap2\n      pop\n        /* \"--CODEGEN--\":2242:2340   */\n      pop\n        /* \"--CODEGEN--\":2067:2350   */\n      swap3\n      pop\n      swap3\n      swap1\n      pop\n      jump\n        /* \"--CODEGEN--\":2357:2848   */\n    tag_44:\n      0x00\n      dup1\n      0x00\n        /* \"--CODEGEN--\":2495:2497   */\n      0x60\n        /* \"--CODEGEN--\":2483:2492   */\n      dup5\n        /* \"--CODEGEN--\":2474:2481   */\n      dup7\n        /* \"--CODEGEN--\":2470:2493   */\n      sub\n        /* \"--CODEGEN--\":2466:2498   */\n      slt\n        /* \"--CODEGEN--\":2463:2465   */\n      iszero\n      tag_333\n      jumpi\n        /* \"--CODEGEN--\":2511:2512   */\n      0x00\n        /* \"--CODEGEN--\":2508:2509   */\n      dup1\n        /* \"--CODEGEN--\":2501:2513   */\n      revert\n        /* \"--CODEGEN--\":2463:2465   */\n    tag_333:\n        /* \"--CODEGEN--\":2546:2547   */\n      0x00\n        /* \"--CODEGEN--\":2563:2616   */\n      tag_334\n        /* \"--CODEGEN--\":2608:2615   */\n      dup7\n        /* \"--CODEGEN--\":2599:2605   */\n      dup3\n        /* \"--CODEGEN--\":2588:2597   */\n      dup8\n        /* \"--CODEGEN--\":2584:2606   */\n      add\n        /* \"--CODEGEN--\":2563:2616   */\n      jump(tag_302)\n    tag_334:\n        /* \"--CODEGEN--\":2553:2616   */\n      swap4\n      pop\n        /* \"--CODEGEN--\":2525:2622   */\n      pop\n        /* \"--CODEGEN--\":2653:2655   */\n      0x20\n        /* \"--CODEGEN--\":2671:2724   */\n      tag_335\n        /* \"--CODEGEN--\":2716:2723   */\n      dup7\n        /* \"--CODEGEN--\":2707:2713   */\n      dup3\n        /* \"--CODEGEN--\":2696:2705   */\n      dup8\n        /* \"--CODEGEN--\":2692:2714   */\n      add\n        /* \"--CODEGEN--\":2671:2724   */\n      jump(tag_302)\n    tag_335:\n        /* \"--CODEGEN--\":2661:2724   */\n      swap3\n      pop\n        /* \"--CODEGEN--\":2632:2730   */\n      pop\n        /* \"--CODEGEN--\":2761:2763   */\n      0x40\n        /* \"--CODEGEN--\":2779:2832   */\n      tag_336\n        /* \"--CODEGEN--\":2824:2831   */\n      dup7\n        /* \"--CODEGEN--\":2815:2821   */\n      dup3\n        /* \"--CODEGEN--\":2804:2813   */\n      dup8\n        /* \"--CODEGEN--\":2800:2822   */\n      add\n        /* \"--CODEGEN--\":2779:2832   */\n      jump(tag_323)\n    tag_336:\n        /* \"--CODEGEN--\":2769:2832   */\n      swap2\n      pop\n        /* \"--CODEGEN--\":2740:2838   */\n      pop\n        /* \"--CODEGEN--\":2457:2848   */\n      swap3\n      pop\n      swap3\n      pop\n      swap3\n      jump\n        /* \"--CODEGEN--\":2855:3221   */\n    tag_32:\n      0x00\n      dup1\n        /* \"--CODEGEN--\":2976:2978   */\n      0x40\n        /* \"--CODEGEN--\":2964:2973   */\n      dup4\n        /* \"--CODEGEN--\":2955:2962   */\n      dup6\n        /* \"--CODEGEN--\":2951:2974   */\n      sub\n        /* \"--CODEGEN--\":2947:2979   */\n      slt\n        /* \"--CODEGEN--\":2944:2946   */\n      iszero\n      tag_337\n      jumpi\n        /* \"--CODEGEN--\":2992:2993   */\n      0x00\n        /* \"--CODEGEN--\":2989:2990   */\n      dup1\n        /* \"--CODEGEN--\":2982:2994   */\n      revert\n        /* \"--CODEGEN--\":2944:2946   */\n    tag_337:\n        /* \"--CODEGEN--\":3027:3028   */\n      0x00\n        /* \"--CODEGEN--\":3044:3097   */\n      tag_338\n        /* \"--CODEGEN--\":3089:3096   */\n      dup6\n        /* \"--CODEGEN--\":3080:3086   */\n      dup3\n        /* \"--CODEGEN--\":3069:3078   */\n      dup7\n        /* \"--CODEGEN--\":3065:3087   */\n      add\n        /* \"--CODEGEN--\":3044:3097   */\n      jump(tag_302)\n    tag_338:\n        /* \"--CODEGEN--\":3034:3097   */\n      swap3\n      pop\n        /* \"--CODEGEN--\":3006:3103   */\n      pop\n        /* \"--CODEGEN--\":3134:3136   */\n      0x20\n        /* \"--CODEGEN--\":3152:3205   */\n      tag_339\n        /* \"--CODEGEN--\":3197:3204   */\n      dup6\n        /* \"--CODEGEN--\":3188:3194   */\n      dup3\n        /* \"--CODEGEN--\":3177:3186   */\n      dup7\n        /* \"--CODEGEN--\":3173:3195   */\n      add\n        /* \"--CODEGEN--\":3152:3205   */\n      jump(tag_323)\n    tag_339:\n        /* \"--CODEGEN--\":3142:3205   */\n      swap2\n      pop\n        /* \"--CODEGEN--\":3113:3211   */\n      pop\n        /* \"--CODEGEN--\":2938:3221   */\n      swap3\n      pop\n      swap3\n      swap1\n      pop\n      jump\n        /* \"--CODEGEN--\":3228:3469   */\n    tag_76:\n      0x00\n        /* \"--CODEGEN--\":3332:3334   */\n      0x20\n        /* \"--CODEGEN--\":3320:3329   */\n      dup3\n        /* \"--CODEGEN--\":3311:3318   */\n      dup5\n        /* \"--CODEGEN--\":3307:3330   */\n      sub\n        /* \"--CODEGEN--\":3303:3335   */\n      slt\n        /* \"--CODEGEN--\":3300:3302   */\n      iszero\n      tag_340\n      jumpi\n        /* \"--CODEGEN--\":3348:3349   */\n      0x00\n        /* \"--CODEGEN--\":3345:3346   */\n      dup1\n        /* \"--CODEGEN--\":3338:3350   */\n      revert\n        /* \"--CODEGEN--\":3300:3302   */\n    tag_340:\n        /* \"--CODEGEN--\":3383:3384   */\n      0x00\n        /* \"--CODEGEN--\":3400:3453   */\n      tag_341\n        /* \"--CODEGEN--\":3445:3452   */\n      dup5\n        /* \"--CODEGEN--\":3436:3442   */\n      dup3\n        /* \"--CODEGEN--\":3425:3434   */\n      dup6\n        /* \"--CODEGEN--\":3421:3443   */\n      add\n        /* \"--CODEGEN--\":3400:3453   */\n      jump(tag_305)\n    tag_341:\n        /* \"--CODEGEN--\":3390:3453   */\n      swap2\n      pop\n        /* \"--CODEGEN--\":3362:3459   */\n      pop\n        /* \"--CODEGEN--\":3294:3469   */\n      swap3\n      swap2\n      pop\n      pop\n      jump\n        /* \"--CODEGEN--\":3476:3967   */\n    tag_60:\n      0x00\n      dup1\n      0x00\n        /* \"--CODEGEN--\":3614:3616   */\n      0x60\n        /* \"--CODEGEN--\":3602:3611   */\n      dup5\n        /* \"--CODEGEN--\":3593:3600   */\n      dup7\n        /* \"--CODEGEN--\":3589:3612   */\n      sub\n        /* \"--CODEGEN--\":3585:3617   */\n      slt\n        /* \"--CODEGEN--\":3582:3584   */\n      iszero\n      tag_342\n      jumpi\n        /* \"--CODEGEN--\":3630:3631   */\n      0x00\n        /* \"--CODEGEN--\":3627:3628   */\n      dup1\n        /* \"--CODEGEN--\":3620:3632   */\n      revert\n        /* \"--CODEGEN--\":3582:3584   */\n    tag_342:\n        /* \"--CODEGEN--\":3665:3666   */\n      0x00\n        /* \"--CODEGEN--\":3682:3735   */\n      tag_343\n        /* \"--CODEGEN--\":3727:3734   */\n      dup7\n        /* \"--CODEGEN--\":3718:3724   */\n      dup3\n        /* \"--CODEGEN--\":3707:3716   */\n      dup8\n        /* \"--CODEGEN--\":3703:3725   */\n      add\n        /* \"--CODEGEN--\":3682:3735   */\n      jump(tag_305)\n    tag_343:\n        /* \"--CODEGEN--\":3672:3735   */\n      swap4\n      pop\n        /* \"--CODEGEN--\":3644:3741   */\n      pop\n        /* \"--CODEGEN--\":3772:3774   */\n      0x20\n        /* \"--CODEGEN--\":3790:3843   */\n      tag_344\n        /* \"--CODEGEN--\":3835:3842   */\n      dup7\n        /* \"--CODEGEN--\":3826:3832   */\n      dup3\n        /* \"--CODEGEN--\":3815:3824   */\n      dup8\n        /* \"--CODEGEN--\":3811:3833   */\n      add\n        /* \"--CODEGEN--\":3790:3843   */\n      jump(tag_302)\n    tag_344:\n        /* \"--CODEGEN--\":3780:3843   */\n      swap3\n      pop\n        /* \"--CODEGEN--\":3751:3849   */\n      pop\n        /* \"--CODEGEN--\":3880:3882   */\n      0x40\n        /* \"--CODEGEN--\":3898:3951   */\n      tag_345\n        /* \"--CODEGEN--\":3943:3950   */\n      dup7\n        /* \"--CODEGEN--\":3934:3940   */\n      dup3\n        /* \"--CODEGEN--\":3923:3932   */\n      dup8\n        /* \"--CODEGEN--\":3919:3941   */\n      add\n        /* \"--CODEGEN--\":3898:3951   */\n      jump(tag_305)\n    tag_345:\n        /* \"--CODEGEN--\":3888:3951   */\n      swap2\n      pop\n        /* \"--CODEGEN--\":3859:3957   */\n      pop\n        /* \"--CODEGEN--\":3576:3967   */\n      swap3\n      pop\n      swap3\n      pop\n      swap3\n      jump\n        /* \"--CODEGEN--\":3974:4343   */\n    tag_103:\n      0x00\n        /* \"--CODEGEN--\":4099:4101   */\n      0x20\n        /* \"--CODEGEN--\":4087:4096   */\n      dup3\n        /* \"--CODEGEN--\":4078:4085   */\n      dup5\n        /* \"--CODEGEN--\":4074:4097   */\n      sub\n        /* \"--CODEGEN--\":4070:4102   */\n      slt\n        /* \"--CODEGEN--\":4067:4069   */\n      iszero\n      tag_346\n      jumpi\n        /* \"--CODEGEN--\":4115:4116   */\n      0x00\n        /* \"--CODEGEN--\":4112:4113   */\n      dup1\n        /* \"--CODEGEN--\":4105:4117   */\n      revert\n        /* \"--CODEGEN--\":4067:4069   */\n    tag_346:\n        /* \"--CODEGEN--\":4178:4179   */\n      0x00\n        /* \"--CODEGEN--\":4167:4176   */\n      dup3\n        /* \"--CODEGEN--\":4163:4180   */\n      add\n        /* \"--CODEGEN--\":4150:4181   */\n      calldataload\n        /* \"--CODEGEN--\":4201:4219   */\n      0xffffffffffffffff\n        /* \"--CODEGEN--\":4193:4199   */\n      dup2\n        /* \"--CODEGEN--\":4190:4220   */\n      gt\n        /* \"--CODEGEN--\":4187:4189   */\n      iszero\n      tag_347\n      jumpi\n        /* \"--CODEGEN--\":4233:4234   */\n      0x00\n        /* \"--CODEGEN--\":4230:4231   */\n      dup1\n        /* \"--CODEGEN--\":4223:4235   */\n      revert\n        /* \"--CODEGEN--\":4187:4189   */\n    tag_347:\n        /* \"--CODEGEN--\":4253:4327   */\n      tag_348\n        /* \"--CODEGEN--\":4319:4326   */\n      dup5\n        /* \"--CODEGEN--\":4310:4316   */\n      dup3\n        /* \"--CODEGEN--\":4299:4308   */\n      dup6\n        /* \"--CODEGEN--\":4295:4317   */\n      add\n        /* \"--CODEGEN--\":4253:4327   */\n      jump(tag_317)\n    tag_348:\n        /* \"--CODEGEN--\":4243:4327   */\n      swap2\n      pop\n        /* \"--CODEGEN--\":4129:4333   */\n      pop\n        /* \"--CODEGEN--\":4061:4343   */\n      swap3\n      swap2\n      pop\n      pop\n      jump\n        /* \"--CODEGEN--\":4350:4972   */\n    tag_65:\n      0x00\n      dup1\n        /* \"--CODEGEN--\":4513:4515   */\n      0x40\n        /* \"--CODEGEN--\":4501:4510   */\n      dup4\n        /* \"--CODEGEN--\":4492:4499   */\n      dup6\n        /* \"--CODEGEN--\":4488:4511   */\n      sub\n        /* \"--CODEGEN--\":4484:4516   */\n      slt\n        /* \"--CODEGEN--\":4481:4483   */\n      iszero\n      tag_349\n      jumpi\n        /* \"--CODEGEN--\":4529:4530   */\n      0x00\n        /* \"--CODEGEN--\":4526:4527   */\n      dup1\n        /* \"--CODEGEN--\":4519:4531   */\n      revert\n        /* \"--CODEGEN--\":4481:4483   */\n    tag_349:\n        /* \"--CODEGEN--\":4592:4593   */\n      0x00\n        /* \"--CODEGEN--\":4581:4590   */\n      dup4\n        /* \"--CODEGEN--\":4577:4594   */\n      add\n        /* \"--CODEGEN--\":4564:4595   */\n      calldataload\n        /* \"--CODEGEN--\":4615:4633   */\n      0xffffffffffffffff\n        /* \"--CODEGEN--\":4607:4613   */\n      dup2\n        /* \"--CODEGEN--\":4604:4634   */\n      gt\n        /* \"--CODEGEN--\":4601:4603   */\n      iszero\n      tag_350\n      jumpi\n        /* \"--CODEGEN--\":4647:4648   */\n      0x00\n        /* \"--CODEGEN--\":4644:4645   */\n      dup1\n        /* \"--CODEGEN--\":4637:4649   */\n      revert\n        /* \"--CODEGEN--\":4601:4603   */\n    tag_350:\n        /* \"--CODEGEN--\":4667:4741   */\n      tag_351\n        /* \"--CODEGEN--\":4733:4740   */\n      dup6\n        /* \"--CODEGEN--\":4724:4730   */\n      dup3\n        /* \"--CODEGEN--\":4713:4722   */\n      dup7\n        /* \"--CODEGEN--\":4709:4731   */\n      add\n        /* \"--CODEGEN--\":4667:4741   */\n      jump(tag_317)\n    tag_351:\n        /* \"--CODEGEN--\":4657:4741   */\n      swap3\n      pop\n        /* \"--CODEGEN--\":4543:4747   */\n      pop\n        /* \"--CODEGEN--\":4806:4808   */\n      0x20\n        /* \"--CODEGEN--\":4795:4804   */\n      dup4\n        /* \"--CODEGEN--\":4791:4809   */\n      add\n        /* \"--CODEGEN--\":4778:4810   */\n      calldataload\n        /* \"--CODEGEN--\":4830:4848   */\n      0xffffffffffffffff\n        /* \"--CODEGEN--\":4822:4828   */\n      dup2\n        /* \"--CODEGEN--\":4819:4849   */\n      gt\n        /* \"--CODEGEN--\":4816:4818   */\n      iszero\n      tag_352\n      jumpi\n        /* \"--CODEGEN--\":4862:4863   */\n      0x00\n        /* \"--CODEGEN--\":4859:4860   */\n      dup1\n        /* \"--CODEGEN--\":4852:4864   */\n      revert\n        /* \"--CODEGEN--\":4816:4818   */\n    tag_352:\n        /* \"--CODEGEN--\":4882:4956   */\n      tag_353\n        /* \"--CODEGEN--\":4948:4955   */\n      dup6\n        /* \"--CODEGEN--\":4939:4945   */\n      dup3\n        /* \"--CODEGEN--\":4928:4937   */\n      dup7\n        /* \"--CODEGEN--\":4924:4946   */\n      add\n        /* \"--CODEGEN--\":4882:4956   */\n      jump(tag_317)\n    tag_353:\n        /* \"--CODEGEN--\":4872:4956   */\n      swap2\n      pop\n        /* \"--CODEGEN--\":4757:4962   */\n      pop\n        /* \"--CODEGEN--\":4475:4972   */\n      swap3\n      pop\n      swap3\n      swap1\n      pop\n      jump\n        /* \"--CODEGEN--\":4979:5220   */\n    tag_50:\n      0x00\n        /* \"--CODEGEN--\":5083:5085   */\n      0x20\n        /* \"--CODEGEN--\":5071:5080   */\n      dup3\n        /* \"--CODEGEN--\":5062:5069   */\n      dup5\n        /* \"--CODEGEN--\":5058:5081   */\n      sub\n        /* \"--CODEGEN--\":5054:5086   */\n      slt\n        /* \"--CODEGEN--\":5051:5053   */\n      iszero\n      tag_354\n      jumpi\n        /* \"--CODEGEN--\":5099:5100   */\n      0x00\n        /* \"--CODEGEN--\":5096:5097   */\n      dup1\n        /* \"--CODEGEN--\":5089:5101   */\n      revert\n        /* \"--CODEGEN--\":5051:5053   */\n    tag_354:\n        /* \"--CODEGEN--\":5134:5135   */\n      0x00\n        /* \"--CODEGEN--\":5151:5204   */\n      tag_355\n        /* \"--CODEGEN--\":5196:5203   */\n      dup5\n        /* \"--CODEGEN--\":5187:5193   */\n      dup3\n        /* \"--CODEGEN--\":5176:5185   */\n      dup6\n        /* \"--CODEGEN--\":5172:5194   */\n      add\n        /* \"--CODEGEN--\":5151:5204   */\n      jump(tag_323)\n    tag_355:\n        /* \"--CODEGEN--\":5141:5204   */\n      swap2\n      pop\n        /* \"--CODEGEN--\":5113:5210   */\n      pop\n        /* \"--CODEGEN--\":5045:5220   */\n      swap3\n      swap2\n      pop\n      pop\n      jump\n        /* \"--CODEGEN--\":5227:5340   */\n    tag_356:\n        /* \"--CODEGEN--\":5310:5334   */\n      tag_357\n        /* \"--CODEGEN--\":5328:5333   */\n      dup2\n        /* \"--CODEGEN--\":5310:5334   */\n      jump(tag_358)\n    tag_357:\n        /* \"--CODEGEN--\":5305:5308   */\n      dup3\n        /* \"--CODEGEN--\":5298:5335   */\n      mstore\n        /* \"--CODEGEN--\":5292:5340   */\n      pop\n      pop\n      jump\n        /* \"--CODEGEN--\":5347:5499   */\n    tag_359:\n        /* \"--CODEGEN--\":5448:5493   */\n      tag_360\n        /* \"--CODEGEN--\":5468:5492   */\n      tag_361\n        /* \"--CODEGEN--\":5486:5491   */\n      dup3\n        /* \"--CODEGEN--\":5468:5492   */\n      jump(tag_358)\n    tag_361:\n        /* \"--CODEGEN--\":5448:5493   */\n      jump(tag_362)\n    tag_360:\n        /* \"--CODEGEN--\":5443:5446   */\n      dup3\n        /* \"--CODEGEN--\":5436:5494   */\n      mstore\n        /* \"--CODEGEN--\":5430:5499   */\n      pop\n      pop\n      jump\n        /* \"--CODEGEN--\":5506:5610   */\n    tag_363:\n        /* \"--CODEGEN--\":5583:5604   */\n      tag_364\n        /* \"--CODEGEN--\":5598:5603   */\n      dup2\n        /* \"--CODEGEN--\":5583:5604   */\n      jump(tag_365)\n    tag_364:\n        /* \"--CODEGEN--\":5578:5581   */\n      dup3\n        /* \"--CODEGEN--\":5571:5605   */\n      mstore\n        /* \"--CODEGEN--\":5565:5610   */\n      pop\n      pop\n      jump\n        /* \"--CODEGEN--\":5617:5730   */\n    tag_366:\n        /* \"--CODEGEN--\":5700:5724   */\n      tag_367\n        /* \"--CODEGEN--\":5718:5723   */\n      dup2\n        /* \"--CODEGEN--\":5700:5724   */\n      jump(tag_368)\n    tag_367:\n        /* \"--CODEGEN--\":5695:5698   */\n      dup3\n        /* \"--CODEGEN--\":5688:5725   */\n      mstore\n        /* \"--CODEGEN--\":5682:5730   */\n      pop\n      pop\n      jump\n        /* \"--CODEGEN--\":5737:5889   */\n    tag_369:\n        /* \"--CODEGEN--\":5838:5883   */\n      tag_370\n        /* \"--CODEGEN--\":5858:5882   */\n      tag_371\n        /* \"--CODEGEN--\":5876:5881   */\n      dup3\n        /* \"--CODEGEN--\":5858:5882   */\n      jump(tag_368)\n    tag_371:\n        /* \"--CODEGEN--\":5838:5883   */\n      jump(tag_372)\n    tag_370:\n        /* \"--CODEGEN--\":5833:5836   */\n      dup3\n        /* \"--CODEGEN--\":5826:5884   */\n      mstore\n        /* \"--CODEGEN--\":5820:5889   */\n      pop\n      pop\n      jump\n        /* \"--CODEGEN--\":5896:6243   */\n    tag_373:\n      0x00\n        /* \"--CODEGEN--\":6008:6047   */\n      tag_374\n        /* \"--CODEGEN--\":6041:6046   */\n      dup3\n        /* \"--CODEGEN--\":6008:6047   */\n      jump(tag_375)\n    tag_374:\n        /* \"--CODEGEN--\":6059:6130   */\n      tag_376\n        /* \"--CODEGEN--\":6123:6129   */\n      dup2\n        /* \"--CODEGEN--\":6118:6121   */\n      dup6\n        /* \"--CODEGEN--\":6059:6130   */\n      jump(tag_377)\n    tag_376:\n        /* \"--CODEGEN--\":6052:6130   */\n      swap4\n      pop\n        /* \"--CODEGEN--\":6135:6187   */\n      tag_378\n        /* \"--CODEGEN--\":6180:6186   */\n      dup2\n        /* \"--CODEGEN--\":6175:6178   */\n      dup6\n        /* \"--CODEGEN--\":6168:6172   */\n      0x20\n        /* \"--CODEGEN--\":6161:6166   */\n      dup7\n        /* \"--CODEGEN--\":6157:6173   */\n      add\n        /* \"--CODEGEN--\":6135:6187   */\n      jump(tag_379)\n    tag_378:\n        /* \"--CODEGEN--\":6208:6237   */\n      tag_380\n        /* \"--CODEGEN--\":6230:6236   */\n      dup2\n        /* \"--CODEGEN--\":6208:6237   */\n      jump(tag_381)\n    tag_380:\n        /* \"--CODEGEN--\":6203:6206   */\n      dup5\n        /* \"--CODEGEN--\":6199:6238   */\n      add\n        /* \"--CODEGEN--\":6192:6238   */\n      swap2\n      pop\n        /* \"--CODEGEN--\":5988:6243   */\n      pop\n      swap3\n      swap2\n      pop\n      pop\n      jump\n        /* \"--CODEGEN--\":6251:6623   */\n    tag_382:\n      0x00\n        /* \"--CODEGEN--\":6411:6478   */\n      tag_383\n        /* \"--CODEGEN--\":6475:6477   */\n      0x23\n        /* \"--CODEGEN--\":6470:6473   */\n      dup4\n        /* \"--CODEGEN--\":6411:6478   */\n      jump(tag_377)\n    tag_383:\n        /* \"--CODEGEN--\":6404:6478   */\n      swap2\n      pop\n        /* \"--CODEGEN--\":6511:6545   */\n      0x45524332303a207472616e7366657220746f20746865207a65726f2061646472\n        /* \"--CODEGEN--\":6507:6508   */\n      0x00\n        /* \"--CODEGEN--\":6502:6505   */\n      dup4\n        /* \"--CODEGEN--\":6498:6509   */\n      add\n        /* \"--CODEGEN--\":6491:6546   */\n      mstore\n        /* \"--CODEGEN--\":6580:6585   */\n      0x6573730000000000000000000000000000000000000000000000000000000000\n        /* \"--CODEGEN--\":6575:6577   */\n      0x20\n        /* \"--CODEGEN--\":6570:6573   */\n      dup4\n        /* \"--CODEGEN--\":6566:6578   */\n      add\n        /* \"--CODEGEN--\":6559:6586   */\n      mstore\n        /* \"--CODEGEN--\":6614:6616   */\n      0x40\n        /* \"--CODEGEN--\":6609:6612   */\n      dup3\n        /* \"--CODEGEN--\":6605:6617   */\n      add\n        /* \"--CODEGEN--\":6598:6617   */\n      swap1\n      pop\n        /* \"--CODEGEN--\":6397:6623   */\n      swap2\n      swap1\n      pop\n      jump\n        /* \"--CODEGEN--\":6632:6944   */\n    tag_384:\n      0x00\n        /* \"--CODEGEN--\":6792:6859   */\n      tag_385\n        /* \"--CODEGEN--\":6856:6858   */\n      0x0c\n        /* \"--CODEGEN--\":6851:6854   */\n      dup4\n        /* \"--CODEGEN--\":6792:6859   */\n      jump(tag_377)\n    tag_385:\n        /* \"--CODEGEN--\":6785:6859   */\n      swap2\n      pop\n        /* \"--CODEGEN--\":6892:6906   */\n      0x67616d65206973206f7665720000000000000000000000000000000000000000\n        /* \"--CODEGEN--\":6888:6889   */\n      0x00\n        /* \"--CODEGEN--\":6883:6886   */\n      dup4\n        /* \"--CODEGEN--\":6879:6890   */\n      add\n        /* \"--CODEGEN--\":6872:6907   */\n      mstore\n        /* \"--CODEGEN--\":6935:6937   */\n      0x20\n        /* \"--CODEGEN--\":6930:6933   */\n      dup3\n        /* \"--CODEGEN--\":6926:6938   */\n      add\n        /* \"--CODEGEN--\":6919:6938   */\n      swap1\n      pop\n        /* \"--CODEGEN--\":6778:6944   */\n      swap2\n      swap1\n      pop\n      jump\n        /* \"--CODEGEN--\":6953:7353   */\n    tag_386:\n      0x00\n        /* \"--CODEGEN--\":7131:7216   */\n      tag_387\n        /* \"--CODEGEN--\":7213:7215   */\n      0x1c\n        /* \"--CODEGEN--\":7208:7211   */\n      dup4\n        /* \"--CODEGEN--\":7131:7216   */\n      jump(tag_388)\n    tag_387:\n        /* \"--CODEGEN--\":7124:7216   */\n      swap2\n      pop\n        /* \"--CODEGEN--\":7249:7315   */\n      0x19457468657265756d205369676e6564204d6573736167653a0a333200000000\n        /* \"--CODEGEN--\":7245:7246   */\n      0x00\n        /* \"--CODEGEN--\":7240:7243   */\n      dup4\n        /* \"--CODEGEN--\":7236:7247   */\n      add\n        /* \"--CODEGEN--\":7229:7316   */\n      mstore\n        /* \"--CODEGEN--\":7344:7346   */\n      0x1c\n        /* \"--CODEGEN--\":7339:7342   */\n      dup3\n        /* \"--CODEGEN--\":7335:7347   */\n      add\n        /* \"--CODEGEN--\":7328:7347   */\n      swap1\n      pop\n        /* \"--CODEGEN--\":7117:7353   */\n      swap2\n      swap1\n      pop\n      jump\n        /* \"--CODEGEN--\":7362:7691   */\n    tag_389:\n      0x00\n        /* \"--CODEGEN--\":7522:7589   */\n      tag_390\n        /* \"--CODEGEN--\":7586:7588   */\n      0x1d\n        /* \"--CODEGEN--\":7581:7584   */\n      dup4\n        /* \"--CODEGEN--\":7522:7589   */\n      jump(tag_377)\n    tag_390:\n        /* \"--CODEGEN--\":7515:7589   */\n      swap2\n      pop\n        /* \"--CODEGEN--\":7622:7653   */\n      0x696e76616c6964207369676e617475726520666f7220706c6179657232000000\n        /* \"--CODEGEN--\":7618:7619   */\n      0x00\n        /* \"--CODEGEN--\":7613:7616   */\n      dup4\n        /* \"--CODEGEN--\":7609:7620   */\n      add\n        /* \"--CODEGEN--\":7602:7654   */\n      mstore\n        /* \"--CODEGEN--\":7682:7684   */\n      0x20\n        /* \"--CODEGEN--\":7677:7680   */\n      dup3\n        /* \"--CODEGEN--\":7673:7685   */\n      add\n        /* \"--CODEGEN--\":7666:7685   */\n      swap1\n      pop\n        /* \"--CODEGEN--\":7508:7691   */\n      swap2\n      swap1\n      pop\n      jump\n        /* \"--CODEGEN--\":7700:8016   */\n    tag_391:\n      0x00\n        /* \"--CODEGEN--\":7860:7927   */\n      tag_392\n        /* \"--CODEGEN--\":7924:7926   */\n      0x10\n        /* \"--CODEGEN--\":7919:7922   */\n      dup4\n        /* \"--CODEGEN--\":7860:7927   */\n      jump(tag_377)\n    tag_392:\n        /* \"--CODEGEN--\":7853:7927   */\n      swap2\n      pop\n        /* \"--CODEGEN--\":7960:7978   */\n      0x67616d65206973207374696c6c206f6e00000000000000000000000000000000\n        /* \"--CODEGEN--\":7956:7957   */\n      0x00\n        /* \"--CODEGEN--\":7951:7954   */\n      dup4\n        /* \"--CODEGEN--\":7947:7958   */\n      add\n        /* \"--CODEGEN--\":7940:7979   */\n      mstore\n        /* \"--CODEGEN--\":8007:8009   */\n      0x20\n        /* \"--CODEGEN--\":8002:8005   */\n      dup3\n        /* \"--CODEGEN--\":7998:8010   */\n      add\n        /* \"--CODEGEN--\":7991:8010   */\n      swap1\n      pop\n        /* \"--CODEGEN--\":7846:8016   */\n      swap2\n      swap1\n      pop\n      jump\n        /* \"--CODEGEN--\":8025:8396   */\n    tag_393:\n      0x00\n        /* \"--CODEGEN--\":8185:8252   */\n      tag_394\n        /* \"--CODEGEN--\":8249:8251   */\n      0x22\n        /* \"--CODEGEN--\":8244:8247   */\n      dup4\n        /* \"--CODEGEN--\":8185:8252   */\n      jump(tag_377)\n    tag_394:\n        /* \"--CODEGEN--\":8178:8252   */\n      swap2\n      pop\n        /* \"--CODEGEN--\":8285:8319   */\n      0x45524332303a20617070726f766520746f20746865207a65726f206164647265\n        /* \"--CODEGEN--\":8281:8282   */\n      0x00\n        /* \"--CODEGEN--\":8276:8279   */\n      dup4\n        /* \"--CODEGEN--\":8272:8283   */\n      add\n        /* \"--CODEGEN--\":8265:8320   */\n      mstore\n        /* \"--CODEGEN--\":8354:8358   */\n      0x7373000000000000000000000000000000000000000000000000000000000000\n        /* \"--CODEGEN--\":8349:8351   */\n      0x20\n        /* \"--CODEGEN--\":8344:8347   */\n      dup4\n        /* \"--CODEGEN--\":8340:8352   */\n      add\n        /* \"--CODEGEN--\":8333:8359   */\n      mstore\n        /* \"--CODEGEN--\":8387:8389   */\n      0x40\n        /* \"--CODEGEN--\":8382:8385   */\n      dup3\n        /* \"--CODEGEN--\":8378:8390   */\n      add\n        /* \"--CODEGEN--\":8371:8390   */\n      swap1\n      pop\n        /* \"--CODEGEN--\":8171:8396   */\n      swap2\n      swap1\n      pop\n      jump\n        /* \"--CODEGEN--\":8405:8734   */\n    tag_395:\n      0x00\n        /* \"--CODEGEN--\":8565:8632   */\n      tag_396\n        /* \"--CODEGEN--\":8629:8631   */\n      0x1d\n        /* \"--CODEGEN--\":8624:8627   */\n      dup4\n        /* \"--CODEGEN--\":8565:8632   */\n      jump(tag_377)\n    tag_396:\n        /* \"--CODEGEN--\":8558:8632   */\n      swap2\n      pop\n        /* \"--CODEGEN--\":8665:8696   */\n      0x696e76616c6964207369676e617475726520666f7220706c6179657231000000\n        /* \"--CODEGEN--\":8661:8662   */\n      0x00\n        /* \"--CODEGEN--\":8656:8659   */\n      dup4\n        /* \"--CODEGEN--\":8652:8663   */\n      add\n        /* \"--CODEGEN--\":8645:8697   */\n      mstore\n        /* \"--CODEGEN--\":8725:8727   */\n      0x20\n        /* \"--CODEGEN--\":8720:8723   */\n      dup3\n        /* \"--CODEGEN--\":8716:8728   */\n      add\n        /* \"--CODEGEN--\":8709:8728   */\n      swap1\n      pop\n        /* \"--CODEGEN--\":8551:8734   */\n      swap2\n      swap1\n      pop\n      jump\n        /* \"--CODEGEN--\":8743:9069   */\n    tag_397:\n      0x00\n        /* \"--CODEGEN--\":8903:8970   */\n      tag_398\n        /* \"--CODEGEN--\":8967:8969   */\n      0x1a\n        /* \"--CODEGEN--\":8962:8965   */\n      dup4\n        /* \"--CODEGEN--\":8903:8970   */\n      jump(tag_377)\n    tag_398:\n        /* \"--CODEGEN--\":8896:8970   */\n      swap2\n      pop\n        /* \"--CODEGEN--\":9003:9031   */\n      0x696e76616c69642073656372657420666f7220706c6179657231000000000000\n        /* \"--CODEGEN--\":8999:9000   */\n      0x00\n        /* \"--CODEGEN--\":8994:8997   */\n      dup4\n        /* \"--CODEGEN--\":8990:9001   */\n      add\n        /* \"--CODEGEN--\":8983:9032   */\n      mstore\n        /* \"--CODEGEN--\":9060:9062   */\n      0x20\n        /* \"--CODEGEN--\":9055:9058   */\n      dup3\n        /* \"--CODEGEN--\":9051:9063   */\n      add\n        /* \"--CODEGEN--\":9044:9063   */\n      swap1\n      pop\n        /* \"--CODEGEN--\":8889:9069   */\n      swap2\n      swap1\n      pop\n      jump\n        /* \"--CODEGEN--\":9078:9392   */\n    tag_399:\n      0x00\n        /* \"--CODEGEN--\":9238:9305   */\n      tag_400\n        /* \"--CODEGEN--\":9302:9304   */\n      0x0e\n        /* \"--CODEGEN--\":9297:9300   */\n      dup4\n        /* \"--CODEGEN--\":9238:9305   */\n      jump(tag_377)\n    tag_400:\n        /* \"--CODEGEN--\":9231:9305   */\n      swap2\n      pop\n        /* \"--CODEGEN--\":9338:9354   */\n      0x696e76616c696420706c61796572000000000000000000000000000000000000\n        /* \"--CODEGEN--\":9334:9335   */\n      0x00\n        /* \"--CODEGEN--\":9329:9332   */\n      dup4\n        /* \"--CODEGEN--\":9325:9336   */\n      add\n        /* \"--CODEGEN--\":9318:9355   */\n      mstore\n        /* \"--CODEGEN--\":9383:9385   */\n      0x20\n        /* \"--CODEGEN--\":9378:9381   */\n      dup3\n        /* \"--CODEGEN--\":9374:9386   */\n      add\n        /* \"--CODEGEN--\":9367:9386   */\n      swap1\n      pop\n        /* \"--CODEGEN--\":9224:9392   */\n      swap2\n      swap1\n      pop\n      jump\n        /* \"--CODEGEN--\":9401:9727   */\n    tag_401:\n      0x00\n        /* \"--CODEGEN--\":9561:9628   */\n      tag_402\n        /* \"--CODEGEN--\":9625:9627   */\n      0x1a\n        /* \"--CODEGEN--\":9620:9623   */\n      dup4\n        /* \"--CODEGEN--\":9561:9628   */\n      jump(tag_377)\n    tag_402:\n        /* \"--CODEGEN--\":9554:9628   */\n      swap2\n      pop\n        /* \"--CODEGEN--\":9661:9689   */\n      0x696e76616c69642073656372657420666f7220706c6179657232000000000000\n        /* \"--CODEGEN--\":9657:9658   */\n      0x00\n        /* \"--CODEGEN--\":9652:9655   */\n      dup4\n        /* \"--CODEGEN--\":9648:9659   */\n      add\n        /* \"--CODEGEN--\":9641:9690   */\n      mstore\n        /* \"--CODEGEN--\":9718:9720   */\n      0x20\n        /* \"--CODEGEN--\":9713:9716   */\n      dup3\n        /* \"--CODEGEN--\":9709:9721   */\n      add\n        /* \"--CODEGEN--\":9702:9721   */\n      swap1\n      pop\n        /* \"--CODEGEN--\":9547:9727   */\n      swap2\n      swap1\n      pop\n      jump\n        /* \"--CODEGEN--\":9736:10106   */\n    tag_403:\n      0x00\n        /* \"--CODEGEN--\":9896:9963   */\n      tag_404\n        /* \"--CODEGEN--\":9960:9962   */\n      0x21\n        /* \"--CODEGEN--\":9955:9958   */\n      dup4\n        /* \"--CODEGEN--\":9896:9963   */\n      jump(tag_377)\n    tag_404:\n        /* \"--CODEGEN--\":9889:9963   */\n      swap2\n      pop\n        /* \"--CODEGEN--\":9996:10030   */\n      0x45524332303a206275726e2066726f6d20746865207a65726f20616464726573\n        /* \"--CODEGEN--\":9992:9993   */\n      0x00\n        /* \"--CODEGEN--\":9987:9990   */\n      dup4\n        /* \"--CODEGEN--\":9983:9994   */\n      add\n        /* \"--CODEGEN--\":9976:10031   */\n      mstore\n        /* \"--CODEGEN--\":10065:10068   */\n      0x7300000000000000000000000000000000000000000000000000000000000000\n        /* \"--CODEGEN--\":10060:10062   */\n      0x20\n        /* \"--CODEGEN--\":10055:10058   */\n      dup4\n        /* \"--CODEGEN--\":10051:10063   */\n      add\n        /* \"--CODEGEN--\":10044:10069   */\n      mstore\n        /* \"--CODEGEN--\":10097:10099   */\n      0x40\n        /* \"--CODEGEN--\":10092:10095   */\n      dup3\n        /* \"--CODEGEN--\":10088:10100   */\n      add\n        /* \"--CODEGEN--\":10081:10100   */\n      swap1\n      pop\n        /* \"--CODEGEN--\":9882:10106   */\n      swap2\n      swap1\n      pop\n      jump\n        /* \"--CODEGEN--\":10115:10489   */\n    tag_405:\n      0x00\n        /* \"--CODEGEN--\":10275:10342   */\n      tag_406\n        /* \"--CODEGEN--\":10339:10341   */\n      0x25\n        /* \"--CODEGEN--\":10334:10337   */\n      dup4\n        /* \"--CODEGEN--\":10275:10342   */\n      jump(tag_377)\n    tag_406:\n        /* \"--CODEGEN--\":10268:10342   */\n      swap2\n      pop\n        /* \"--CODEGEN--\":10375:10409   */\n      0x45524332303a207472616e736665722066726f6d20746865207a65726f206164\n        /* \"--CODEGEN--\":10371:10372   */\n      0x00\n        /* \"--CODEGEN--\":10366:10369   */\n      dup4\n        /* \"--CODEGEN--\":10362:10373   */\n      add\n        /* \"--CODEGEN--\":10355:10410   */\n      mstore\n        /* \"--CODEGEN--\":10444:10451   */\n      0x6472657373000000000000000000000000000000000000000000000000000000\n        /* \"--CODEGEN--\":10439:10441   */\n      0x20\n        /* \"--CODEGEN--\":10434:10437   */\n      dup4\n        /* \"--CODEGEN--\":10430:10442   */\n      add\n        /* \"--CODEGEN--\":10423:10452   */\n      mstore\n        /* \"--CODEGEN--\":10480:10482   */\n      0x40\n        /* \"--CODEGEN--\":10475:10478   */\n      dup3\n        /* \"--CODEGEN--\":10471:10483   */\n      add\n        /* \"--CODEGEN--\":10464:10483   */\n      swap1\n      pop\n        /* \"--CODEGEN--\":10261:10489   */\n      swap2\n      swap1\n      pop\n      jump\n        /* \"--CODEGEN--\":10498:10822   */\n    tag_407:\n      0x00\n        /* \"--CODEGEN--\":10658:10725   */\n      tag_408\n        /* \"--CODEGEN--\":10722:10724   */\n      0x18\n        /* \"--CODEGEN--\":10717:10720   */\n      dup4\n        /* \"--CODEGEN--\":10658:10725   */\n      jump(tag_377)\n    tag_408:\n        /* \"--CODEGEN--\":10651:10725   */\n      swap2\n      pop\n        /* \"--CODEGEN--\":10758:10784   */\n      0x696e76616c69642d7369676e61747572652d666f726d61740000000000000000\n        /* \"--CODEGEN--\":10754:10755   */\n      0x00\n        /* \"--CODEGEN--\":10749:10752   */\n      dup4\n        /* \"--CODEGEN--\":10745:10756   */\n      add\n        /* \"--CODEGEN--\":10738:10785   */\n      mstore\n        /* \"--CODEGEN--\":10813:10815   */\n      0x20\n        /* \"--CODEGEN--\":10808:10811   */\n      dup3\n        /* \"--CODEGEN--\":10804:10816   */\n      add\n        /* \"--CODEGEN--\":10797:10816   */\n      swap1\n      pop\n        /* \"--CODEGEN--\":10644:10822   */\n      swap2\n      swap1\n      pop\n      jump\n        /* \"--CODEGEN--\":10831:11127   */\n    tag_409:\n      0x00\n        /* \"--CODEGEN--\":11008:11091   */\n      tag_410\n        /* \"--CODEGEN--\":11089:11090   */\n      0x00\n        /* \"--CODEGEN--\":11084:11087   */\n      dup4\n        /* \"--CODEGEN--\":11008:11091   */\n      jump(tag_411)\n    tag_410:\n        /* \"--CODEGEN--\":11001:11091   */\n      swap2\n      pop\n        /* \"--CODEGEN--\":11119:11120   */\n      0x00\n        /* \"--CODEGEN--\":11114:11117   */\n      dup3\n        /* \"--CODEGEN--\":11110:11121   */\n      add\n        /* \"--CODEGEN--\":11103:11121   */\n      swap1\n      pop\n        /* \"--CODEGEN--\":10994:11127   */\n      swap2\n      swap1\n      pop\n      jump\n        /* \"--CODEGEN--\":11136:11466   */\n    tag_412:\n      0x00\n        /* \"--CODEGEN--\":11296:11363   */\n      tag_413\n        /* \"--CODEGEN--\":11360:11362   */\n      0x1e\n        /* \"--CODEGEN--\":11355:11358   */\n      dup4\n        /* \"--CODEGEN--\":11296:11363   */\n      jump(tag_377)\n    tag_413:\n        /* \"--CODEGEN--\":11289:11363   */\n      swap2\n      pop\n        /* \"--CODEGEN--\":11396:11428   */\n      0x6f7264657220616c7265616479207573656420666f7220706c61796572310000\n        /* \"--CODEGEN--\":11392:11393   */\n      0x00\n        /* \"--CODEGEN--\":11387:11390   */\n      dup4\n        /* \"--CODEGEN--\":11383:11394   */\n      add\n        /* \"--CODEGEN--\":11376:11429   */\n      mstore\n        /* \"--CODEGEN--\":11457:11459   */\n      0x20\n        /* \"--CODEGEN--\":11452:11455   */\n      dup3\n        /* \"--CODEGEN--\":11448:11460   */\n      add\n        /* \"--CODEGEN--\":11441:11460   */\n      swap1\n      pop\n        /* \"--CODEGEN--\":11282:11466   */\n      swap2\n      swap1\n      pop\n      jump\n        /* \"--CODEGEN--\":11475:11805   */\n    tag_414:\n      0x00\n        /* \"--CODEGEN--\":11635:11702   */\n      tag_415\n        /* \"--CODEGEN--\":11699:11701   */\n      0x1e\n        /* \"--CODEGEN--\":11694:11697   */\n      dup4\n        /* \"--CODEGEN--\":11635:11702   */\n      jump(tag_377)\n    tag_415:\n        /* \"--CODEGEN--\":11628:11702   */\n      swap2\n      pop\n        /* \"--CODEGEN--\":11735:11767   */\n      0x6f7264657220616c7265616479207573656420666f7220706c61796572320000\n        /* \"--CODEGEN--\":11731:11732   */\n      0x00\n        /* \"--CODEGEN--\":11726:11729   */\n      dup4\n        /* \"--CODEGEN--\":11722:11733   */\n      add\n        /* \"--CODEGEN--\":11715:11768   */\n      mstore\n        /* \"--CODEGEN--\":11796:11798   */\n      0x20\n        /* \"--CODEGEN--\":11791:11794   */\n      dup3\n        /* \"--CODEGEN--\":11787:11799   */\n      add\n        /* \"--CODEGEN--\":11780:11799   */\n      swap1\n      pop\n        /* \"--CODEGEN--\":11621:11805   */\n      swap2\n      swap1\n      pop\n      jump\n        /* \"--CODEGEN--\":11814:12187   */\n    tag_416:\n      0x00\n        /* \"--CODEGEN--\":11974:12041   */\n      tag_417\n        /* \"--CODEGEN--\":12038:12040   */\n      0x24\n        /* \"--CODEGEN--\":12033:12036   */\n      dup4\n        /* \"--CODEGEN--\":11974:12041   */\n      jump(tag_377)\n    tag_417:\n        /* \"--CODEGEN--\":11967:12041   */\n      swap2\n      pop\n        /* \"--CODEGEN--\":12074:12108   */\n      0x45524332303a20617070726f76652066726f6d20746865207a65726f20616464\n        /* \"--CODEGEN--\":12070:12071   */\n      0x00\n        /* \"--CODEGEN--\":12065:12068   */\n      dup4\n        /* \"--CODEGEN--\":12061:12072   */\n      add\n        /* \"--CODEGEN--\":12054:12109   */\n      mstore\n        /* \"--CODEGEN--\":12143:12149   */\n      0x7265737300000000000000000000000000000000000000000000000000000000\n        /* \"--CODEGEN--\":12138:12140   */\n      0x20\n        /* \"--CODEGEN--\":12133:12136   */\n      dup4\n        /* \"--CODEGEN--\":12129:12141   */\n      add\n        /* \"--CODEGEN--\":12122:12150   */\n      mstore\n        /* \"--CODEGEN--\":12178:12180   */\n      0x40\n        /* \"--CODEGEN--\":12173:12176   */\n      dup3\n        /* \"--CODEGEN--\":12169:12181   */\n      add\n        /* \"--CODEGEN--\":12162:12181   */\n      swap1\n      pop\n        /* \"--CODEGEN--\":11960:12187   */\n      swap2\n      swap1\n      pop\n      jump\n        /* \"--CODEGEN--\":12196:12527   */\n    tag_418:\n      0x00\n        /* \"--CODEGEN--\":12356:12423   */\n      tag_419\n        /* \"--CODEGEN--\":12420:12422   */\n      0x1f\n        /* \"--CODEGEN--\":12415:12418   */\n      dup4\n        /* \"--CODEGEN--\":12356:12423   */\n      jump(tag_377)\n    tag_419:\n        /* \"--CODEGEN--\":12349:12423   */\n      swap2\n      pop\n        /* \"--CODEGEN--\":12456:12489   */\n      0x45524332303a206d696e7420746f20746865207a65726f206164647265737300\n        /* \"--CODEGEN--\":12452:12453   */\n      0x00\n        /* \"--CODEGEN--\":12447:12450   */\n      dup4\n        /* \"--CODEGEN--\":12443:12454   */\n      add\n        /* \"--CODEGEN--\":12436:12490   */\n      mstore\n        /* \"--CODEGEN--\":12518:12520   */\n      0x20\n        /* \"--CODEGEN--\":12513:12516   */\n      dup3\n        /* \"--CODEGEN--\":12509:12521   */\n      add\n        /* \"--CODEGEN--\":12502:12521   */\n      swap1\n      pop\n        /* \"--CODEGEN--\":12342:12527   */\n      swap2\n      swap1\n      pop\n      jump\n        /* \"--CODEGEN--\":12535:12648   */\n    tag_420:\n        /* \"--CODEGEN--\":12618:12642   */\n      tag_421\n        /* \"--CODEGEN--\":12636:12641   */\n      dup2\n        /* \"--CODEGEN--\":12618:12642   */\n      jump(tag_422)\n    tag_421:\n        /* \"--CODEGEN--\":12613:12616   */\n      dup3\n        /* \"--CODEGEN--\":12606:12643   */\n      mstore\n        /* \"--CODEGEN--\":12600:12648   */\n      pop\n      pop\n      jump\n        /* \"--CODEGEN--\":12655:12807   */\n    tag_423:\n        /* \"--CODEGEN--\":12756:12801   */\n      tag_424\n        /* \"--CODEGEN--\":12776:12800   */\n      tag_425\n        /* \"--CODEGEN--\":12794:12799   */\n      dup3\n        /* \"--CODEGEN--\":12776:12800   */\n      jump(tag_422)\n    tag_425:\n        /* \"--CODEGEN--\":12756:12801   */\n      jump(tag_426)\n    tag_424:\n        /* \"--CODEGEN--\":12751:12754   */\n      dup3\n        /* \"--CODEGEN--\":12744:12802   */\n      mstore\n        /* \"--CODEGEN--\":12738:12807   */\n      pop\n      pop\n      jump\n        /* \"--CODEGEN--\":12814:12921   */\n    tag_427:\n        /* \"--CODEGEN--\":12893:12915   */\n      tag_428\n        /* \"--CODEGEN--\":12909:12914   */\n      dup2\n        /* \"--CODEGEN--\":12893:12915   */\n      jump(tag_429)\n    tag_428:\n        /* \"--CODEGEN--\":12888:12891   */\n      dup3\n        /* \"--CODEGEN--\":12881:12916   */\n      mstore\n        /* \"--CODEGEN--\":12875:12921   */\n      pop\n      pop\n      jump\n        /* \"--CODEGEN--\":12928:13589   */\n    tag_216:\n      0x00\n        /* \"--CODEGEN--\":13131:13206   */\n      tag_430\n        /* \"--CODEGEN--\":13202:13205   */\n      dup3\n        /* \"--CODEGEN--\":13193:13199   */\n      dup8\n        /* \"--CODEGEN--\":13131:13206   */\n      jump(tag_359)\n    tag_430:\n        /* \"--CODEGEN--\":13228:13230   */\n      0x14\n        /* \"--CODEGEN--\":13223:13226   */\n      dup3\n        /* \"--CODEGEN--\":13219:13231   */\n      add\n        /* \"--CODEGEN--\":13212:13231   */\n      swap2\n      pop\n        /* \"--CODEGEN--\":13242:13317   */\n      tag_431\n        /* \"--CODEGEN--\":13313:13316   */\n      dup3\n        /* \"--CODEGEN--\":13304:13310   */\n      dup7\n        /* \"--CODEGEN--\":13242:13317   */\n      jump(tag_359)\n    tag_431:\n        /* \"--CODEGEN--\":13339:13341   */\n      0x14\n        /* \"--CODEGEN--\":13334:13337   */\n      dup3\n        /* \"--CODEGEN--\":13330:13342   */\n      add\n        /* \"--CODEGEN--\":13323:13342   */\n      swap2\n      pop\n        /* \"--CODEGEN--\":13353:13428   */\n      tag_432\n        /* \"--CODEGEN--\":13424:13427   */\n      dup3\n        /* \"--CODEGEN--\":13415:13421   */\n      dup6\n        /* \"--CODEGEN--\":13353:13428   */\n      jump(tag_369)\n    tag_432:\n        /* \"--CODEGEN--\":13450:13452   */\n      0x20\n        /* \"--CODEGEN--\":13445:13448   */\n      dup3\n        /* \"--CODEGEN--\":13441:13453   */\n      add\n        /* \"--CODEGEN--\":13434:13453   */\n      swap2\n      pop\n        /* \"--CODEGEN--\":13464:13539   */\n      tag_433\n        /* \"--CODEGEN--\":13535:13538   */\n      dup3\n        /* \"--CODEGEN--\":13526:13532   */\n      dup5\n        /* \"--CODEGEN--\":13464:13539   */\n      jump(tag_423)\n    tag_433:\n        /* \"--CODEGEN--\":13561:13563   */\n      0x20\n        /* \"--CODEGEN--\":13556:13559   */\n      dup3\n        /* \"--CODEGEN--\":13552:13564   */\n      add\n        /* \"--CODEGEN--\":13545:13564   */\n      swap2\n      pop\n        /* \"--CODEGEN--\":13581:13584   */\n      dup2\n        /* \"--CODEGEN--\":13574:13584   */\n      swap1\n      pop\n        /* \"--CODEGEN--\":13119:13589   */\n      swap6\n      swap5\n      pop\n      pop\n      pop\n      pop\n      pop\n      jump\n        /* \"--CODEGEN--\":13596:14118   */\n    tag_199:\n      0x00\n        /* \"--CODEGEN--\":13771:13846   */\n      tag_434\n        /* \"--CODEGEN--\":13842:13845   */\n      dup3\n        /* \"--CODEGEN--\":13833:13839   */\n      dup7\n        /* \"--CODEGEN--\":13771:13846   */\n      jump(tag_359)\n    tag_434:\n        /* \"--CODEGEN--\":13868:13870   */\n      0x14\n        /* \"--CODEGEN--\":13863:13866   */\n      dup3\n        /* \"--CODEGEN--\":13859:13871   */\n      add\n        /* \"--CODEGEN--\":13852:13871   */\n      swap2\n      pop\n        /* \"--CODEGEN--\":13882:13957   */\n      tag_435\n        /* \"--CODEGEN--\":13953:13956   */\n      dup3\n        /* \"--CODEGEN--\":13944:13950   */\n      dup6\n        /* \"--CODEGEN--\":13882:13957   */\n      jump(tag_369)\n    tag_435:\n        /* \"--CODEGEN--\":13979:13981   */\n      0x20\n        /* \"--CODEGEN--\":13974:13977   */\n      dup3\n        /* \"--CODEGEN--\":13970:13982   */\n      add\n        /* \"--CODEGEN--\":13963:13982   */\n      swap2\n      pop\n        /* \"--CODEGEN--\":13993:14068   */\n      tag_436\n        /* \"--CODEGEN--\":14064:14067   */\n      dup3\n        /* \"--CODEGEN--\":14055:14061   */\n      dup5\n        /* \"--CODEGEN--\":13993:14068   */\n      jump(tag_369)\n    tag_436:\n        /* \"--CODEGEN--\":14090:14092   */\n      0x20\n        /* \"--CODEGEN--\":14085:14088   */\n      dup3\n        /* \"--CODEGEN--\":14081:14093   */\n      add\n        /* \"--CODEGEN--\":14074:14093   */\n      swap2\n      pop\n        /* \"--CODEGEN--\":14110:14113   */\n      dup2\n        /* \"--CODEGEN--\":14103:14113   */\n      swap1\n      pop\n        /* \"--CODEGEN--\":13759:14118   */\n      swap5\n      swap4\n      pop\n      pop\n      pop\n      pop\n      jump\n        /* \"--CODEGEN--\":14125:14369   */\n    tag_149:\n      0x00\n        /* \"--CODEGEN--\":14244:14319   */\n      tag_437\n        /* \"--CODEGEN--\":14315:14318   */\n      dup3\n        /* \"--CODEGEN--\":14306:14312   */\n      dup5\n        /* \"--CODEGEN--\":14244:14319   */\n      jump(tag_369)\n    tag_437:\n        /* \"--CODEGEN--\":14341:14343   */\n      0x20\n        /* \"--CODEGEN--\":14336:14339   */\n      dup3\n        /* \"--CODEGEN--\":14332:14344   */\n      add\n        /* \"--CODEGEN--\":14325:14344   */\n      swap2\n      pop\n        /* \"--CODEGEN--\":14361:14364   */\n      dup2\n        /* \"--CODEGEN--\":14354:14364   */\n      swap1\n      pop\n        /* \"--CODEGEN--\":14232:14369   */\n      swap3\n      swap2\n      pop\n      pop\n      jump\n        /* \"--CODEGEN--\":14376:14759   */\n    tag_173:\n      0x00\n        /* \"--CODEGEN--\":14523:14598   */\n      tag_438\n        /* \"--CODEGEN--\":14594:14597   */\n      dup3\n        /* \"--CODEGEN--\":14585:14591   */\n      dup6\n        /* \"--CODEGEN--\":14523:14598   */\n      jump(tag_369)\n    tag_438:\n        /* \"--CODEGEN--\":14620:14622   */\n      0x20\n        /* \"--CODEGEN--\":14615:14618   */\n      dup3\n        /* \"--CODEGEN--\":14611:14623   */\n      add\n        /* \"--CODEGEN--\":14604:14623   */\n      swap2\n      pop\n        /* \"--CODEGEN--\":14634:14709   */\n      tag_439\n        /* \"--CODEGEN--\":14705:14708   */\n      dup3\n        /* \"--CODEGEN--\":14696:14702   */\n      dup5\n        /* \"--CODEGEN--\":14634:14709   */\n      jump(tag_369)\n    tag_439:\n        /* \"--CODEGEN--\":14731:14733   */\n      0x20\n        /* \"--CODEGEN--\":14726:14729   */\n      dup3\n        /* \"--CODEGEN--\":14722:14734   */\n      add\n        /* \"--CODEGEN--\":14715:14734   */\n      swap2\n      pop\n        /* \"--CODEGEN--\":14751:14754   */\n      dup2\n        /* \"--CODEGEN--\":14744:14754   */\n      swap1\n      pop\n        /* \"--CODEGEN--\":14511:14759   */\n      swap4\n      swap3\n      pop\n      pop\n      pop\n      jump\n        /* \"--CODEGEN--\":14766:15277   */\n    tag_268:\n      0x00\n        /* \"--CODEGEN--\":14993:15141   */\n      tag_440\n        /* \"--CODEGEN--\":15137:15140   */\n      dup3\n        /* \"--CODEGEN--\":14993:15141   */\n      jump(tag_386)\n    tag_440:\n        /* \"--CODEGEN--\":14986:15141   */\n      swap2\n      pop\n        /* \"--CODEGEN--\":15152:15227   */\n      tag_441\n        /* \"--CODEGEN--\":15223:15226   */\n      dup3\n        /* \"--CODEGEN--\":15214:15220   */\n      dup5\n        /* \"--CODEGEN--\":15152:15227   */\n      jump(tag_369)\n    tag_441:\n        /* \"--CODEGEN--\":15249:15251   */\n      0x20\n        /* \"--CODEGEN--\":15244:15247   */\n      dup3\n        /* \"--CODEGEN--\":15240:15252   */\n      add\n        /* \"--CODEGEN--\":15233:15252   */\n      swap2\n      pop\n        /* \"--CODEGEN--\":15269:15272   */\n      dup2\n        /* \"--CODEGEN--\":15262:15272   */\n      swap1\n      pop\n        /* \"--CODEGEN--\":14974:15277   */\n      swap3\n      swap2\n      pop\n      pop\n      jump\n        /* \"--CODEGEN--\":15284:15654   */\n    tag_137:\n      0x00\n        /* \"--CODEGEN--\":15482:15629   */\n      tag_442\n        /* \"--CODEGEN--\":15625:15628   */\n      dup3\n        /* \"--CODEGEN--\":15482:15629   */\n      jump(tag_409)\n    tag_442:\n        /* \"--CODEGEN--\":15475:15629   */\n      swap2\n      pop\n        /* \"--CODEGEN--\":15646:15649   */\n      dup2\n        /* \"--CODEGEN--\":15639:15649   */\n      swap1\n      pop\n        /* \"--CODEGEN--\":15463:15654   */\n      swap2\n      swap1\n      pop\n      jump\n        /* \"--CODEGEN--\":15661:15874   */\n    tag_154:\n      0x00\n        /* \"--CODEGEN--\":15779:15781   */\n      0x20\n        /* \"--CODEGEN--\":15768:15777   */\n      dup3\n        /* \"--CODEGEN--\":15764:15782   */\n      add\n        /* \"--CODEGEN--\":15756:15782   */\n      swap1\n      pop\n        /* \"--CODEGEN--\":15793:15864   */\n      tag_443\n        /* \"--CODEGEN--\":15861:15862   */\n      0x00\n        /* \"--CODEGEN--\":15850:15859   */\n      dup4\n        /* \"--CODEGEN--\":15846:15863   */\n      add\n        /* \"--CODEGEN--\":15837:15843   */\n      dup5\n        /* \"--CODEGEN--\":15793:15864   */\n      jump(tag_356)\n    tag_443:\n        /* \"--CODEGEN--\":15750:15874   */\n      swap3\n      swap2\n      pop\n      pop\n      jump\n        /* \"--CODEGEN--\":15881:16876   */\n    tag_92:\n      0x00\n        /* \"--CODEGEN--\":16195:16198   */\n      0x0100\n        /* \"--CODEGEN--\":16184:16193   */\n      dup3\n        /* \"--CODEGEN--\":16180:16199   */\n      add\n        /* \"--CODEGEN--\":16172:16199   */\n      swap1\n      pop\n        /* \"--CODEGEN--\":16210:16281   */\n      tag_444\n        /* \"--CODEGEN--\":16278:16279   */\n      0x00\n        /* \"--CODEGEN--\":16267:16276   */\n      dup4\n        /* \"--CODEGEN--\":16263:16280   */\n      add\n        /* \"--CODEGEN--\":16254:16260   */\n      dup12\n        /* \"--CODEGEN--\":16210:16281   */\n      jump(tag_356)\n    tag_444:\n        /* \"--CODEGEN--\":16292:16364   */\n      tag_445\n        /* \"--CODEGEN--\":16360:16362   */\n      0x20\n        /* \"--CODEGEN--\":16349:16358   */\n      dup4\n        /* \"--CODEGEN--\":16345:16363   */\n      add\n        /* \"--CODEGEN--\":16336:16342   */\n      dup11\n        /* \"--CODEGEN--\":16292:16364   */\n      jump(tag_356)\n    tag_445:\n        /* \"--CODEGEN--\":16375:16447   */\n      tag_446\n        /* \"--CODEGEN--\":16443:16445   */\n      0x40\n        /* \"--CODEGEN--\":16432:16441   */\n      dup4\n        /* \"--CODEGEN--\":16428:16446   */\n      add\n        /* \"--CODEGEN--\":16419:16425   */\n      dup10\n        /* \"--CODEGEN--\":16375:16447   */\n      jump(tag_366)\n    tag_446:\n        /* \"--CODEGEN--\":16458:16530   */\n      tag_447\n        /* \"--CODEGEN--\":16526:16528   */\n      0x60\n        /* \"--CODEGEN--\":16515:16524   */\n      dup4\n        /* \"--CODEGEN--\":16511:16529   */\n      add\n        /* \"--CODEGEN--\":16502:16508   */\n      dup9\n        /* \"--CODEGEN--\":16458:16530   */\n      jump(tag_366)\n    tag_447:\n        /* \"--CODEGEN--\":16541:16614   */\n      tag_448\n        /* \"--CODEGEN--\":16609:16612   */\n      0x80\n        /* \"--CODEGEN--\":16598:16607   */\n      dup4\n        /* \"--CODEGEN--\":16594:16613   */\n      add\n        /* \"--CODEGEN--\":16585:16591   */\n      dup8\n        /* \"--CODEGEN--\":16541:16614   */\n      jump(tag_366)\n    tag_448:\n        /* \"--CODEGEN--\":16625:16698   */\n      tag_449\n        /* \"--CODEGEN--\":16693:16696   */\n      0xa0\n        /* \"--CODEGEN--\":16682:16691   */\n      dup4\n        /* \"--CODEGEN--\":16678:16697   */\n      add\n        /* \"--CODEGEN--\":16669:16675   */\n      dup7\n        /* \"--CODEGEN--\":16625:16698   */\n      jump(tag_366)\n    tag_449:\n        /* \"--CODEGEN--\":16709:16782   */\n      tag_450\n        /* \"--CODEGEN--\":16777:16780   */\n      0xc0\n        /* \"--CODEGEN--\":16766:16775   */\n      dup4\n        /* \"--CODEGEN--\":16762:16781   */\n      add\n        /* \"--CODEGEN--\":16753:16759   */\n      dup6\n        /* \"--CODEGEN--\":16709:16782   */\n      jump(tag_420)\n    tag_450:\n        /* \"--CODEGEN--\":16793:16866   */\n      tag_451\n        /* \"--CODEGEN--\":16861:16864   */\n      0xe0\n        /* \"--CODEGEN--\":16850:16859   */\n      dup4\n        /* \"--CODEGEN--\":16846:16865   */\n      add\n        /* \"--CODEGEN--\":16837:16843   */\n      dup5\n        /* \"--CODEGEN--\":16793:16866   */\n      jump(tag_420)\n    tag_451:\n        /* \"--CODEGEN--\":16166:16876   */\n      swap10\n      swap9\n      pop\n      pop\n      pop\n      pop\n      pop\n      pop\n      pop\n      pop\n      pop\n      jump\n        /* \"--CODEGEN--\":16883:17084   */\n    tag_35:\n      0x00\n        /* \"--CODEGEN--\":16995:16997   */\n      0x20\n        /* \"--CODEGEN--\":16984:16993   */\n      dup3\n        /* \"--CODEGEN--\":16980:16998   */\n      add\n        /* \"--CODEGEN--\":16972:16998   */\n      swap1\n      pop\n        /* \"--CODEGEN--\":17009:17074   */\n      tag_452\n        /* \"--CODEGEN--\":17071:17072   */\n      0x00\n        /* \"--CODEGEN--\":17060:17069   */\n      dup4\n        /* \"--CODEGEN--\":17056:17073   */\n      add\n        /* \"--CODEGEN--\":17047:17053   */\n      dup5\n        /* \"--CODEGEN--\":17009:17074   */\n      jump(tag_363)\n    tag_452:\n        /* \"--CODEGEN--\":16966:17084   */\n      swap3\n      swap2\n      pop\n      pop\n      jump\n        /* \"--CODEGEN--\":17091:17304   */\n    tag_106:\n      0x00\n        /* \"--CODEGEN--\":17209:17211   */\n      0x20\n        /* \"--CODEGEN--\":17198:17207   */\n      dup3\n        /* \"--CODEGEN--\":17194:17212   */\n      add\n        /* \"--CODEGEN--\":17186:17212   */\n      swap1\n      pop\n        /* \"--CODEGEN--\":17223:17294   */\n      tag_453\n        /* \"--CODEGEN--\":17291:17292   */\n      0x00\n        /* \"--CODEGEN--\":17280:17289   */\n      dup4\n        /* \"--CODEGEN--\":17276:17293   */\n      add\n        /* \"--CODEGEN--\":17267:17273   */\n      dup5\n        /* \"--CODEGEN--\":17223:17294   */\n      jump(tag_366)\n    tag_453:\n        /* \"--CODEGEN--\":17180:17304   */\n      swap3\n      swap2\n      pop\n      pop\n      jump\n        /* \"--CODEGEN--\":17311:17850   */\n    tag_280:\n      0x00\n        /* \"--CODEGEN--\":17509:17512   */\n      0x80\n        /* \"--CODEGEN--\":17498:17507   */\n      dup3\n        /* \"--CODEGEN--\":17494:17513   */\n      add\n        /* \"--CODEGEN--\":17486:17513   */\n      swap1\n      pop\n        /* \"--CODEGEN--\":17524:17595   */\n      tag_454\n        /* \"--CODEGEN--\":17592:17593   */\n      0x00\n        /* \"--CODEGEN--\":17581:17590   */\n      dup4\n        /* \"--CODEGEN--\":17577:17594   */\n      add\n        /* \"--CODEGEN--\":17568:17574   */\n      dup8\n        /* \"--CODEGEN--\":17524:17595   */\n      jump(tag_366)\n    tag_454:\n        /* \"--CODEGEN--\":17606:17674   */\n      tag_455\n        /* \"--CODEGEN--\":17670:17672   */\n      0x20\n        /* \"--CODEGEN--\":17659:17668   */\n      dup4\n        /* \"--CODEGEN--\":17655:17673   */\n      add\n        /* \"--CODEGEN--\":17646:17652   */\n      dup7\n        /* \"--CODEGEN--\":17606:17674   */\n      jump(tag_427)\n    tag_455:\n        /* \"--CODEGEN--\":17685:17757   */\n      tag_456\n        /* \"--CODEGEN--\":17753:17755   */\n      0x40\n        /* \"--CODEGEN--\":17742:17751   */\n      dup4\n        /* \"--CODEGEN--\":17738:17756   */\n      add\n        /* \"--CODEGEN--\":17729:17735   */\n      dup6\n        /* \"--CODEGEN--\":17685:17757   */\n      jump(tag_366)\n    tag_456:\n        /* \"--CODEGEN--\":17768:17840   */\n      tag_457\n        /* \"--CODEGEN--\":17836:17838   */\n      0x60\n        /* \"--CODEGEN--\":17825:17834   */\n      dup4\n        /* \"--CODEGEN--\":17821:17839   */\n      add\n        /* \"--CODEGEN--\":17812:17818   */\n      dup5\n        /* \"--CODEGEN--\":17768:17840   */\n      jump(tag_366)\n    tag_457:\n        /* \"--CODEGEN--\":17480:17850   */\n      swap6\n      swap5\n      pop\n      pop\n      pop\n      pop\n      pop\n      jump\n        /* \"--CODEGEN--\":17857:18158   */\n    tag_28:\n      0x00\n        /* \"--CODEGEN--\":17995:17997   */\n      0x20\n        /* \"--CODEGEN--\":17984:17993   */\n      dup3\n        /* \"--CODEGEN--\":17980:17998   */\n      add\n        /* \"--CODEGEN--\":17972:17998   */\n      swap1\n      pop\n        /* \"--CODEGEN--\":18045:18054   */\n      dup2\n        /* \"--CODEGEN--\":18039:18043   */\n      dup2\n        /* \"--CODEGEN--\":18035:18055   */\n      sub\n        /* \"--CODEGEN--\":18031:18032   */\n      0x00\n        /* \"--CODEGEN--\":18020:18029   */\n      dup4\n        /* \"--CODEGEN--\":18016:18033   */\n      add\n        /* \"--CODEGEN--\":18009:18056   */\n      mstore\n        /* \"--CODEGEN--\":18070:18148   */\n      tag_458\n        /* \"--CODEGEN--\":18143:18147   */\n      dup2\n        /* \"--CODEGEN--\":18134:18140   */\n      dup5\n        /* \"--CODEGEN--\":18070:18148   */\n      jump(tag_373)\n    tag_458:\n        /* \"--CODEGEN--\":18062:18148   */\n      swap1\n      pop\n        /* \"--CODEGEN--\":17966:18158   */\n      swap3\n      swap2\n      pop\n      pop\n      jump\n        /* \"--CODEGEN--\":18165:18572   */\n    tag_250:\n      0x00\n        /* \"--CODEGEN--\":18356:18358   */\n      0x20\n        /* \"--CODEGEN--\":18345:18354   */\n      dup3\n        /* \"--CODEGEN--\":18341:18359   */\n      add\n        /* \"--CODEGEN--\":18333:18359   */\n      swap1\n      pop\n        /* \"--CODEGEN--\":18406:18415   */\n      dup2\n        /* \"--CODEGEN--\":18400:18404   */\n      dup2\n        /* \"--CODEGEN--\":18396:18416   */\n      sub\n        /* \"--CODEGEN--\":18392:18393   */\n      0x00\n        /* \"--CODEGEN--\":18381:18390   */\n      dup4\n        /* \"--CODEGEN--\":18377:18394   */\n      add\n        /* \"--CODEGEN--\":18370:18417   */\n      mstore\n        /* \"--CODEGEN--\":18431:18562   */\n      tag_459\n        /* \"--CODEGEN--\":18557:18561   */\n      dup2\n        /* \"--CODEGEN--\":18431:18562   */\n      jump(tag_382)\n    tag_459:\n        /* \"--CODEGEN--\":18423:18562   */\n      swap1\n      pop\n        /* \"--CODEGEN--\":18327:18572   */\n      swap2\n      swap1\n      pop\n      jump\n        /* \"--CODEGEN--\":18579:18986   */\n    tag_146:\n      0x00\n        /* \"--CODEGEN--\":18770:18772   */\n      0x20\n        /* \"--CODEGEN--\":18759:18768   */\n      dup3\n        /* \"--CODEGEN--\":18755:18773   */\n      add\n        /* \"--CODEGEN--\":18747:18773   */\n      swap1\n      pop\n        /* \"--CODEGEN--\":18820:18829   */\n      dup2\n        /* \"--CODEGEN--\":18814:18818   */\n      dup2\n        /* \"--CODEGEN--\":18810:18830   */\n      sub\n        /* \"--CODEGEN--\":18806:18807   */\n      0x00\n        /* \"--CODEGEN--\":18795:18804   */\n      dup4\n        /* \"--CODEGEN--\":18791:18808   */\n      add\n        /* \"--CODEGEN--\":18784:18831   */\n      mstore\n        /* \"--CODEGEN--\":18845:18976   */\n      tag_460\n        /* \"--CODEGEN--\":18971:18975   */\n      dup2\n        /* \"--CODEGEN--\":18845:18976   */\n      jump(tag_384)\n    tag_460:\n        /* \"--CODEGEN--\":18837:18976   */\n      swap1\n      pop\n        /* \"--CODEGEN--\":18741:18986   */\n      swap2\n      swap1\n      pop\n      jump\n        /* \"--CODEGEN--\":18993:19400   */\n    tag_182:\n      0x00\n        /* \"--CODEGEN--\":19184:19186   */\n      0x20\n        /* \"--CODEGEN--\":19173:19182   */\n      dup3\n        /* \"--CODEGEN--\":19169:19187   */\n      add\n        /* \"--CODEGEN--\":19161:19187   */\n      swap1\n      pop\n        /* \"--CODEGEN--\":19234:19243   */\n      dup2\n        /* \"--CODEGEN--\":19228:19232   */\n      dup2\n        /* \"--CODEGEN--\":19224:19244   */\n      sub\n        /* \"--CODEGEN--\":19220:19221   */\n      0x00\n        /* \"--CODEGEN--\":19209:19218   */\n      dup4\n        /* \"--CODEGEN--\":19205:19222   */\n      add\n        /* \"--CODEGEN--\":19198:19245   */\n      mstore\n        /* \"--CODEGEN--\":19259:19390   */\n      tag_461\n        /* \"--CODEGEN--\":19385:19389   */\n      dup2\n        /* \"--CODEGEN--\":19259:19390   */\n      jump(tag_389)\n    tag_461:\n        /* \"--CODEGEN--\":19251:19390   */\n      swap1\n      pop\n        /* \"--CODEGEN--\":19155:19400   */\n      swap2\n      swap1\n      pop\n      jump\n        /* \"--CODEGEN--\":19407:19814   */\n    tag_220:\n      0x00\n        /* \"--CODEGEN--\":19598:19600   */\n      0x20\n        /* \"--CODEGEN--\":19587:19596   */\n      dup3\n        /* \"--CODEGEN--\":19583:19601   */\n      add\n        /* \"--CODEGEN--\":19575:19601   */\n      swap1\n      pop\n        /* \"--CODEGEN--\":19648:19657   */\n      dup2\n        /* \"--CODEGEN--\":19642:19646   */\n      dup2\n        /* \"--CODEGEN--\":19638:19658   */\n      sub\n        /* \"--CODEGEN--\":19634:19635   */\n      0x00\n        /* \"--CODEGEN--\":19623:19632   */\n      dup4\n        /* \"--CODEGEN--\":19619:19636   */\n      add\n        /* \"--CODEGEN--\":19612:19659   */\n      mstore\n        /* \"--CODEGEN--\":19673:19804   */\n      tag_462\n        /* \"--CODEGEN--\":19799:19803   */\n      dup2\n        /* \"--CODEGEN--\":19673:19804   */\n      jump(tag_391)\n    tag_462:\n        /* \"--CODEGEN--\":19665:19804   */\n      swap1\n      pop\n        /* \"--CODEGEN--\":19569:19814   */\n      swap2\n      swap1\n      pop\n      jump\n        /* \"--CODEGEN--\":19821:20228   */\n    tag_242:\n      0x00\n        /* \"--CODEGEN--\":20012:20014   */\n      0x20\n        /* \"--CODEGEN--\":20001:20010   */\n      dup3\n        /* \"--CODEGEN--\":19997:20015   */\n      add\n        /* \"--CODEGEN--\":19989:20015   */\n      swap1\n      pop\n        /* \"--CODEGEN--\":20062:20071   */\n      dup2\n        /* \"--CODEGEN--\":20056:20060   */\n      dup2\n        /* \"--CODEGEN--\":20052:20072   */\n      sub\n        /* \"--CODEGEN--\":20048:20049   */\n      0x00\n        /* \"--CODEGEN--\":20037:20046   */\n      dup4\n        /* \"--CODEGEN--\":20033:20050   */\n      add\n        /* \"--CODEGEN--\":20026:20073   */\n      mstore\n        /* \"--CODEGEN--\":20087:20218   */\n      tag_463\n        /* \"--CODEGEN--\":20213:20217   */\n      dup2\n        /* \"--CODEGEN--\":20087:20218   */\n      jump(tag_393)\n    tag_463:\n        /* \"--CODEGEN--\":20079:20218   */\n      swap1\n      pop\n        /* \"--CODEGEN--\":19983:20228   */\n      swap2\n      swap1\n      pop\n      jump\n        /* \"--CODEGEN--\":20235:20642   */\n    tag_178:\n      0x00\n        /* \"--CODEGEN--\":20426:20428   */\n      0x20\n        /* \"--CODEGEN--\":20415:20424   */\n      dup3\n        /* \"--CODEGEN--\":20411:20429   */\n      add\n        /* \"--CODEGEN--\":20403:20429   */\n      swap1\n      pop\n        /* \"--CODEGEN--\":20476:20485   */\n      dup2\n        /* \"--CODEGEN--\":20470:20474   */\n      dup2\n        /* \"--CODEGEN--\":20466:20486   */\n      sub\n        /* \"--CODEGEN--\":20462:20463   */\n      0x00\n        /* \"--CODEGEN--\":20451:20460   */\n      dup4\n        /* \"--CODEGEN--\":20447:20464   */\n      add\n        /* \"--CODEGEN--\":20440:20487   */\n      mstore\n        /* \"--CODEGEN--\":20501:20632   */\n      tag_464\n        /* \"--CODEGEN--\":20627:20631   */\n      dup2\n        /* \"--CODEGEN--\":20501:20632   */\n      jump(tag_395)\n    tag_464:\n        /* \"--CODEGEN--\":20493:20632   */\n      swap1\n      pop\n        /* \"--CODEGEN--\":20397:20642   */\n      swap2\n      swap1\n      pop\n      jump\n        /* \"--CODEGEN--\":20649:21056   */\n    tag_152:\n      0x00\n        /* \"--CODEGEN--\":20840:20842   */\n      0x20\n        /* \"--CODEGEN--\":20829:20838   */\n      dup3\n        /* \"--CODEGEN--\":20825:20843   */\n      add\n        /* \"--CODEGEN--\":20817:20843   */\n      swap1\n      pop\n        /* \"--CODEGEN--\":20890:20899   */\n      dup2\n        /* \"--CODEGEN--\":20884:20888   */\n      dup2\n        /* \"--CODEGEN--\":20880:20900   */\n      sub\n        /* \"--CODEGEN--\":20876:20877   */\n      0x00\n        /* \"--CODEGEN--\":20865:20874   */\n      dup4\n        /* \"--CODEGEN--\":20861:20878   */\n      add\n        /* \"--CODEGEN--\":20854:20901   */\n      mstore\n        /* \"--CODEGEN--\":20915:21046   */\n      tag_465\n        /* \"--CODEGEN--\":21041:21045   */\n      dup2\n        /* \"--CODEGEN--\":20915:21046   */\n      jump(tag_397)\n    tag_465:\n        /* \"--CODEGEN--\":20907:21046   */\n      swap1\n      pop\n        /* \"--CODEGEN--\":20811:21056   */\n      swap2\n      swap1\n      pop\n      jump\n        /* \"--CODEGEN--\":21063:21470   */\n    tag_164:\n      0x00\n        /* \"--CODEGEN--\":21254:21256   */\n      0x20\n        /* \"--CODEGEN--\":21243:21252   */\n      dup3\n        /* \"--CODEGEN--\":21239:21257   */\n      add\n        /* \"--CODEGEN--\":21231:21257   */\n      swap1\n      pop\n        /* \"--CODEGEN--\":21304:21313   */\n      dup2\n        /* \"--CODEGEN--\":21298:21302   */\n      dup2\n        /* \"--CODEGEN--\":21294:21314   */\n      sub\n        /* \"--CODEGEN--\":21290:21291   */\n      0x00\n        /* \"--CODEGEN--\":21279:21288   */\n      dup4\n        /* \"--CODEGEN--\":21275:21292   */\n      add\n        /* \"--CODEGEN--\":21268:21315   */\n      mstore\n        /* \"--CODEGEN--\":21329:21460   */\n      tag_466\n        /* \"--CODEGEN--\":21455:21459   */\n      dup2\n        /* \"--CODEGEN--\":21329:21460   */\n      jump(tag_399)\n    tag_466:\n        /* \"--CODEGEN--\":21321:21460   */\n      swap1\n      pop\n        /* \"--CODEGEN--\":21225:21470   */\n      swap2\n      swap1\n      pop\n      jump\n        /* \"--CODEGEN--\":21477:21884   */\n    tag_160:\n      0x00\n        /* \"--CODEGEN--\":21668:21670   */\n      0x20\n        /* \"--CODEGEN--\":21657:21666   */\n      dup3\n        /* \"--CODEGEN--\":21653:21671   */\n      add\n        /* \"--CODEGEN--\":21645:21671   */\n      swap1\n      pop\n        /* \"--CODEGEN--\":21718:21727   */\n      dup2\n        /* \"--CODEGEN--\":21712:21716   */\n      dup2\n        /* \"--CODEGEN--\":21708:21728   */\n      sub\n        /* \"--CODEGEN--\":21704:21705   */\n      0x00\n        /* \"--CODEGEN--\":21693:21702   */\n      dup4\n        /* \"--CODEGEN--\":21689:21706   */\n      add\n        /* \"--CODEGEN--\":21682:21729   */\n      mstore\n        /* \"--CODEGEN--\":21743:21874   */\n      tag_467\n        /* \"--CODEGEN--\":21869:21873   */\n      dup2\n        /* \"--CODEGEN--\":21743:21874   */\n      jump(tag_401)\n    tag_467:\n        /* \"--CODEGEN--\":21735:21874   */\n      swap1\n      pop\n        /* \"--CODEGEN--\":21639:21884   */\n      swap2\n      swap1\n      pop\n      jump\n        /* \"--CODEGEN--\":21891:22298   */\n    tag_261:\n      0x00\n        /* \"--CODEGEN--\":22082:22084   */\n      0x20\n        /* \"--CODEGEN--\":22071:22080   */\n      dup3\n        /* \"--CODEGEN--\":22067:22085   */\n      add\n        /* \"--CODEGEN--\":22059:22085   */\n      swap1\n      pop\n        /* \"--CODEGEN--\":22132:22141   */\n      dup2\n        /* \"--CODEGEN--\":22126:22130   */\n      dup2\n        /* \"--CODEGEN--\":22122:22142   */\n      sub\n        /* \"--CODEGEN--\":22118:22119   */\n      0x00\n        /* \"--CODEGEN--\":22107:22116   */\n      dup4\n        /* \"--CODEGEN--\":22103:22120   */\n      add\n        /* \"--CODEGEN--\":22096:22143   */\n      mstore\n        /* \"--CODEGEN--\":22157:22288   */\n      tag_468\n        /* \"--CODEGEN--\":22283:22287   */\n      dup2\n        /* \"--CODEGEN--\":22157:22288   */\n      jump(tag_403)\n    tag_468:\n        /* \"--CODEGEN--\":22149:22288   */\n      swap1\n      pop\n        /* \"--CODEGEN--\":22053:22298   */\n      swap2\n      swap1\n      pop\n      jump\n        /* \"--CODEGEN--\":22305:22712   */\n    tag_247:\n      0x00\n        /* \"--CODEGEN--\":22496:22498   */\n      0x20\n        /* \"--CODEGEN--\":22485:22494   */\n      dup3\n        /* \"--CODEGEN--\":22481:22499   */\n      add\n        /* \"--CODEGEN--\":22473:22499   */\n      swap1\n      pop\n        /* \"--CODEGEN--\":22546:22555   */\n      dup2\n        /* \"--CODEGEN--\":22540:22544   */\n      dup2\n        /* \"--CODEGEN--\":22536:22556   */\n      sub\n        /* \"--CODEGEN--\":22532:22533   */\n      0x00\n        /* \"--CODEGEN--\":22521:22530   */\n      dup4\n        /* \"--CODEGEN--\":22517:22534   */\n      add\n        /* \"--CODEGEN--\":22510:22557   */\n      mstore\n        /* \"--CODEGEN--\":22571:22702   */\n      tag_469\n        /* \"--CODEGEN--\":22697:22701   */\n      dup2\n        /* \"--CODEGEN--\":22571:22702   */\n      jump(tag_405)\n    tag_469:\n        /* \"--CODEGEN--\":22563:22702   */\n      swap1\n      pop\n        /* \"--CODEGEN--\":22467:22712   */\n      swap2\n      swap1\n      pop\n      jump\n        /* \"--CODEGEN--\":22719:23126   */\n    tag_275:\n      0x00\n        /* \"--CODEGEN--\":22910:22912   */\n      0x20\n        /* \"--CODEGEN--\":22899:22908   */\n      dup3\n        /* \"--CODEGEN--\":22895:22913   */\n      add\n        /* \"--CODEGEN--\":22887:22913   */\n      swap1\n      pop\n        /* \"--CODEGEN--\":22960:22969   */\n      dup2\n        /* \"--CODEGEN--\":22954:22958   */\n      dup2\n        /* \"--CODEGEN--\":22950:22970   */\n      sub\n        /* \"--CODEGEN--\":22946:22947   */\n      0x00\n        /* \"--CODEGEN--\":22935:22944   */\n      dup4\n        /* \"--CODEGEN--\":22931:22948   */\n      add\n        /* \"--CODEGEN--\":22924:22971   */\n      mstore\n        /* \"--CODEGEN--\":22985:23116   */\n      tag_470\n        /* \"--CODEGEN--\":23111:23115   */\n      dup2\n        /* \"--CODEGEN--\":22985:23116   */\n      jump(tag_407)\n    tag_470:\n        /* \"--CODEGEN--\":22977:23116   */\n      swap1\n      pop\n        /* \"--CODEGEN--\":22881:23126   */\n      swap2\n      swap1\n      pop\n      jump\n        /* \"--CODEGEN--\":23133:23540   */\n    tag_188:\n      0x00\n        /* \"--CODEGEN--\":23324:23326   */\n      0x20\n        /* \"--CODEGEN--\":23313:23322   */\n      dup3\n        /* \"--CODEGEN--\":23309:23327   */\n      add\n        /* \"--CODEGEN--\":23301:23327   */\n      swap1\n      pop\n        /* \"--CODEGEN--\":23374:23383   */\n      dup2\n        /* \"--CODEGEN--\":23368:23372   */\n      dup2\n        /* \"--CODEGEN--\":23364:23384   */\n      sub\n        /* \"--CODEGEN--\":23360:23361   */\n      0x00\n        /* \"--CODEGEN--\":23349:23358   */\n      dup4\n        /* \"--CODEGEN--\":23345:23362   */\n      add\n        /* \"--CODEGEN--\":23338:23385   */\n      mstore\n        /* \"--CODEGEN--\":23399:23530   */\n      tag_471\n        /* \"--CODEGEN--\":23525:23529   */\n      dup2\n        /* \"--CODEGEN--\":23399:23530   */\n      jump(tag_412)\n    tag_471:\n        /* \"--CODEGEN--\":23391:23530   */\n      swap1\n      pop\n        /* \"--CODEGEN--\":23295:23540   */\n      swap2\n      swap1\n      pop\n      jump\n        /* \"--CODEGEN--\":23547:23954   */\n    tag_191:\n      0x00\n        /* \"--CODEGEN--\":23738:23740   */\n      0x20\n        /* \"--CODEGEN--\":23727:23736   */\n      dup3\n        /* \"--CODEGEN--\":23723:23741   */\n      add\n        /* \"--CODEGEN--\":23715:23741   */\n      swap1\n      pop\n        /* \"--CODEGEN--\":23788:23797   */\n      dup2\n        /* \"--CODEGEN--\":23782:23786   */\n      dup2\n        /* \"--CODEGEN--\":23778:23798   */\n      sub\n        /* \"--CODEGEN--\":23774:23775   */\n      0x00\n        /* \"--CODEGEN--\":23763:23772   */\n      dup4\n        /* \"--CODEGEN--\":23759:23776   */\n      add\n        /* \"--CODEGEN--\":23752:23799   */\n      mstore\n        /* \"--CODEGEN--\":23813:23944   */\n      tag_472\n        /* \"--CODEGEN--\":23939:23943   */\n      dup2\n        /* \"--CODEGEN--\":23813:23944   */\n      jump(tag_414)\n    tag_472:\n        /* \"--CODEGEN--\":23805:23944   */\n      swap1\n      pop\n        /* \"--CODEGEN--\":23709:23954   */\n      swap2\n      swap1\n      pop\n      jump\n        /* \"--CODEGEN--\":23961:24368   */\n    tag_239:\n      0x00\n        /* \"--CODEGEN--\":24152:24154   */\n      0x20\n        /* \"--CODEGEN--\":24141:24150   */\n      dup3\n        /* \"--CODEGEN--\":24137:24155   */\n      add\n        /* \"--CODEGEN--\":24129:24155   */\n      swap1\n      pop\n        /* \"--CODEGEN--\":24202:24211   */\n      dup2\n        /* \"--CODEGEN--\":24196:24200   */\n      dup2\n        /* \"--CODEGEN--\":24192:24212   */\n      sub\n        /* \"--CODEGEN--\":24188:24189   */\n      0x00\n        /* \"--CODEGEN--\":24177:24186   */\n      dup4\n        /* \"--CODEGEN--\":24173:24190   */\n      add\n        /* \"--CODEGEN--\":24166:24213   */\n      mstore\n        /* \"--CODEGEN--\":24227:24358   */\n      tag_473\n        /* \"--CODEGEN--\":24353:24357   */\n      dup2\n        /* \"--CODEGEN--\":24227:24358   */\n      jump(tag_416)\n    tag_473:\n        /* \"--CODEGEN--\":24219:24358   */\n      swap1\n      pop\n        /* \"--CODEGEN--\":24123:24368   */\n      swap2\n      swap1\n      pop\n      jump\n        /* \"--CODEGEN--\":24375:24782   */\n    tag_289:\n      0x00\n        /* \"--CODEGEN--\":24566:24568   */\n      0x20\n        /* \"--CODEGEN--\":24555:24564   */\n      dup3\n        /* \"--CODEGEN--\":24551:24569   */\n      add\n        /* \"--CODEGEN--\":24543:24569   */\n      swap1\n      pop\n        /* \"--CODEGEN--\":24616:24625   */\n      dup2\n        /* \"--CODEGEN--\":24610:24614   */\n      dup2\n        /* \"--CODEGEN--\":24606:24626   */\n      sub\n        /* \"--CODEGEN--\":24602:24603   */\n      0x00\n        /* \"--CODEGEN--\":24591:24600   */\n      dup4\n        /* \"--CODEGEN--\":24587:24604   */\n      add\n        /* \"--CODEGEN--\":24580:24627   */\n      mstore\n        /* \"--CODEGEN--\":24641:24772   */\n      tag_474\n        /* \"--CODEGEN--\":24767:24771   */\n      dup2\n        /* \"--CODEGEN--\":24641:24772   */\n      jump(tag_418)\n    tag_474:\n        /* \"--CODEGEN--\":24633:24772   */\n      swap1\n      pop\n        /* \"--CODEGEN--\":24537:24782   */\n      swap2\n      swap1\n      pop\n      jump\n        /* \"--CODEGEN--\":24789:25002   */\n    tag_40:\n      0x00\n        /* \"--CODEGEN--\":24907:24909   */\n      0x20\n        /* \"--CODEGEN--\":24896:24905   */\n      dup3\n        /* \"--CODEGEN--\":24892:24910   */\n      add\n        /* \"--CODEGEN--\":24884:24910   */\n      swap1\n      pop\n        /* \"--CODEGEN--\":24921:24992   */\n      tag_475\n        /* \"--CODEGEN--\":24989:24990   */\n      0x00\n        /* \"--CODEGEN--\":24978:24987   */\n      dup4\n        /* \"--CODEGEN--\":24974:24991   */\n      add\n        /* \"--CODEGEN--\":24965:24971   */\n      dup5\n        /* \"--CODEGEN--\":24921:24992   */\n      jump(tag_420)\n    tag_475:\n        /* \"--CODEGEN--\":24878:25002   */\n      swap3\n      swap2\n      pop\n      pop\n      jump\n        /* \"--CODEGEN--\":25009:25214   */\n    tag_56:\n      0x00\n        /* \"--CODEGEN--\":25123:25125   */\n      0x20\n        /* \"--CODEGEN--\":25112:25121   */\n      dup3\n        /* \"--CODEGEN--\":25108:25126   */\n      add\n        /* \"--CODEGEN--\":25100:25126   */\n      swap1\n      pop\n        /* \"--CODEGEN--\":25137:25204   */\n      tag_476\n        /* \"--CODEGEN--\":25201:25202   */\n      0x00\n        /* \"--CODEGEN--\":25190:25199   */\n      dup4\n        /* \"--CODEGEN--\":25186:25203   */\n      add\n        /* \"--CODEGEN--\":25177:25183   */\n      dup5\n        /* \"--CODEGEN--\":25137:25204   */\n      jump(tag_427)\n    tag_476:\n        /* \"--CODEGEN--\":25094:25214   */\n      swap3\n      swap2\n      pop\n      pop\n      jump\n        /* \"--CODEGEN--\":25221:25477   */\n    tag_313:\n      0x00\n        /* \"--CODEGEN--\":25283:25285   */\n      0x40\n        /* \"--CODEGEN--\":25277:25286   */\n      mload\n        /* \"--CODEGEN--\":25267:25286   */\n      swap1\n      pop\n        /* \"--CODEGEN--\":25321:25325   */\n      dup2\n        /* \"--CODEGEN--\":25313:25319   */\n      dup2\n        /* \"--CODEGEN--\":25309:25326   */\n      add\n        /* \"--CODEGEN--\":25420:25426   */\n      dup2\n        /* \"--CODEGEN--\":25408:25418   */\n      dup2\n        /* \"--CODEGEN--\":25405:25427   */\n      lt\n        /* \"--CODEGEN--\":25384:25402   */\n      0xffffffffffffffff\n        /* \"--CODEGEN--\":25372:25382   */\n      dup3\n        /* \"--CODEGEN--\":25369:25403   */\n      gt\n        /* \"--CODEGEN--\":25366:25428   */\n      or\n        /* \"--CODEGEN--\":25363:25365   */\n      iszero\n      tag_477\n      jumpi\n        /* \"--CODEGEN--\":25441:25442   */\n      0x00\n        /* \"--CODEGEN--\":25438:25439   */\n      dup1\n        /* \"--CODEGEN--\":25431:25443   */\n      revert\n        /* \"--CODEGEN--\":25363:25365   */\n    tag_477:\n        /* \"--CODEGEN--\":25461:25471   */\n      dup1\n        /* \"--CODEGEN--\":25457:25459   */\n      0x40\n        /* \"--CODEGEN--\":25450:25472   */\n      mstore\n        /* \"--CODEGEN--\":25261:25477   */\n      pop\n      swap2\n      swap1\n      pop\n      jump\n        /* \"--CODEGEN--\":25484:25801   */\n    tag_312:\n      0x00\n        /* \"--CODEGEN--\":25623:25641   */\n      0xffffffffffffffff\n        /* \"--CODEGEN--\":25615:25621   */\n      dup3\n        /* \"--CODEGEN--\":25612:25642   */\n      gt\n        /* \"--CODEGEN--\":25609:25611   */\n      iszero\n      tag_478\n      jumpi\n        /* \"--CODEGEN--\":25655:25656   */\n      0x00\n        /* \"--CODEGEN--\":25652:25653   */\n      dup1\n        /* \"--CODEGEN--\":25645:25657   */\n      revert\n        /* \"--CODEGEN--\":25609:25611   */\n    tag_478:\n        /* \"--CODEGEN--\":25722:25726   */\n      0x1f\n        /* \"--CODEGEN--\":25718:25727   */\n      not\n        /* \"--CODEGEN--\":25711:25715   */\n      0x1f\n        /* \"--CODEGEN--\":25703:25709   */\n      dup4\n        /* \"--CODEGEN--\":25699:25716   */\n      add\n        /* \"--CODEGEN--\":25695:25728   */\n      and\n        /* \"--CODEGEN--\":25687:25728   */\n      swap1\n      pop\n        /* \"--CODEGEN--\":25786:25790   */\n      0x20\n        /* \"--CODEGEN--\":25780:25784   */\n      dup2\n        /* \"--CODEGEN--\":25776:25791   */\n      add\n        /* \"--CODEGEN--\":25768:25791   */\n      swap1\n      pop\n        /* \"--CODEGEN--\":25546:25801   */\n      swap2\n      swap1\n      pop\n      jump\n        /* \"--CODEGEN--\":25808:25930   */\n    tag_375:\n      0x00\n        /* \"--CODEGEN--\":25902:25907   */\n      dup2\n        /* \"--CODEGEN--\":25896:25908   */\n      mload\n        /* \"--CODEGEN--\":25886:25908   */\n      swap1\n      pop\n        /* \"--CODEGEN--\":25867:25930   */\n      swap2\n      swap1\n      pop\n      jump\n        /* \"--CODEGEN--\":25938:26082   */\n    tag_411:\n      0x00\n        /* \"--CODEGEN--\":26073:26076   */\n      dup2\n        /* \"--CODEGEN--\":26058:26076   */\n      swap1\n      pop\n        /* \"--CODEGEN--\":26051:26082   */\n      swap3\n      swap2\n      pop\n      pop\n      jump\n        /* \"--CODEGEN--\":26091:26254   */\n    tag_377:\n      0x00\n        /* \"--CODEGEN--\":26206:26212   */\n      dup3\n        /* \"--CODEGEN--\":26201:26204   */\n      dup3\n        /* \"--CODEGEN--\":26194:26213   */\n      mstore\n        /* \"--CODEGEN--\":26243:26247   */\n      0x20\n        /* \"--CODEGEN--\":26238:26241   */\n      dup3\n        /* \"--CODEGEN--\":26234:26248   */\n      add\n        /* \"--CODEGEN--\":26219:26248   */\n      swap1\n      pop\n        /* \"--CODEGEN--\":26187:26254   */\n      swap3\n      swap2\n      pop\n      pop\n      jump\n        /* \"--CODEGEN--\":26263:26408   */\n    tag_388:\n      0x00\n        /* \"--CODEGEN--\":26399:26402   */\n      dup2\n        /* \"--CODEGEN--\":26384:26402   */\n      swap1\n      pop\n        /* \"--CODEGEN--\":26377:26408   */\n      swap3\n      swap2\n      pop\n      pop\n      jump\n        /* \"--CODEGEN--\":26416:26507   */\n    tag_358:\n      0x00\n        /* \"--CODEGEN--\":26478:26502   */\n      tag_479\n        /* \"--CODEGEN--\":26496:26501   */\n      dup3\n        /* \"--CODEGEN--\":26478:26502   */\n      jump(tag_480)\n    tag_479:\n        /* \"--CODEGEN--\":26467:26502   */\n      swap1\n      pop\n        /* \"--CODEGEN--\":26461:26507   */\n      swap2\n      swap1\n      pop\n      jump\n        /* \"--CODEGEN--\":26514:26599   */\n    tag_365:\n      0x00\n        /* \"--CODEGEN--\":26587:26592   */\n      dup2\n        /* \"--CODEGEN--\":26580:26593   */\n      iszero\n        /* \"--CODEGEN--\":26573:26594   */\n      iszero\n        /* \"--CODEGEN--\":26562:26594   */\n      swap1\n      pop\n        /* \"--CODEGEN--\":26556:26599   */\n      swap2\n      swap1\n      pop\n      jump\n        /* \"--CODEGEN--\":26606:26678   */\n    tag_368:\n      0x00\n        /* \"--CODEGEN--\":26668:26673   */\n      dup2\n        /* \"--CODEGEN--\":26657:26673   */\n      swap1\n      pop\n        /* \"--CODEGEN--\":26651:26678   */\n      swap2\n      swap1\n      pop\n      jump\n        /* \"--CODEGEN--\":26685:26806   */\n    tag_480:\n      0x00\n        /* \"--CODEGEN--\":26758:26800   */\n      0xffffffffffffffffffffffffffffffffffffffff\n        /* \"--CODEGEN--\":26751:26756   */\n      dup3\n        /* \"--CODEGEN--\":26747:26801   */\n      and\n        /* \"--CODEGEN--\":26736:26801   */\n      swap1\n      pop\n        /* \"--CODEGEN--\":26730:26806   */\n      swap2\n      swap1\n      pop\n      jump\n        /* \"--CODEGEN--\":26813:26885   */\n    tag_422:\n      0x00\n        /* \"--CODEGEN--\":26875:26880   */\n      dup2\n        /* \"--CODEGEN--\":26864:26880   */\n      swap1\n      pop\n        /* \"--CODEGEN--\":26858:26885   */\n      swap2\n      swap1\n      pop\n      jump\n        /* \"--CODEGEN--\":26892:26973   */\n    tag_429:\n      0x00\n        /* \"--CODEGEN--\":26963:26967   */\n      0xff\n        /* \"--CODEGEN--\":26956:26961   */\n      dup3\n        /* \"--CODEGEN--\":26952:26968   */\n      and\n        /* \"--CODEGEN--\":26941:26968   */\n      swap1\n      pop\n        /* \"--CODEGEN--\":26935:26973   */\n      swap2\n      swap1\n      pop\n      jump\n        /* \"--CODEGEN--\":26981:27126   */\n    tag_316:\n        /* \"--CODEGEN--\":27062:27068   */\n      dup3\n        /* \"--CODEGEN--\":27057:27060   */\n      dup2\n        /* \"--CODEGEN--\":27052:27055   */\n      dup4\n        /* \"--CODEGEN--\":27039:27069   */\n      calldatacopy\n        /* \"--CODEGEN--\":27118:27119   */\n      0x00\n        /* \"--CODEGEN--\":27109:27115   */\n      dup4\n        /* \"--CODEGEN--\":27104:27107   */\n      dup4\n        /* \"--CODEGEN--\":27100:27116   */\n      add\n        /* \"--CODEGEN--\":27093:27120   */\n      mstore\n        /* \"--CODEGEN--\":27032:27126   */\n      pop\n      pop\n      pop\n      jump\n        /* \"--CODEGEN--\":27135:27403   */\n    tag_379:\n        /* \"--CODEGEN--\":27200:27201   */\n      0x00\n        /* \"--CODEGEN--\":27207:27308   */\n    tag_481:\n        /* \"--CODEGEN--\":27221:27227   */\n      dup4\n        /* \"--CODEGEN--\":27218:27219   */\n      dup2\n        /* \"--CODEGEN--\":27215:27228   */\n      lt\n        /* \"--CODEGEN--\":27207:27308   */\n      iszero\n      tag_483\n      jumpi\n        /* \"--CODEGEN--\":27297:27298   */\n      dup1\n        /* \"--CODEGEN--\":27292:27295   */\n      dup3\n        /* \"--CODEGEN--\":27288:27299   */\n      add\n        /* \"--CODEGEN--\":27282:27300   */\n      mload\n        /* \"--CODEGEN--\":27278:27279   */\n      dup2\n        /* \"--CODEGEN--\":27273:27276   */\n      dup5\n        /* \"--CODEGEN--\":27269:27280   */\n      add\n        /* \"--CODEGEN--\":27262:27301   */\n      mstore\n        /* \"--CODEGEN--\":27243:27245   */\n      0x20\n        /* \"--CODEGEN--\":27240:27241   */\n      dup2\n        /* \"--CODEGEN--\":27236:27246   */\n      add\n        /* \"--CODEGEN--\":27231:27246   */\n      swap1\n      pop\n        /* \"--CODEGEN--\":27207:27308   */\n      jump(tag_481)\n    tag_483:\n        /* \"--CODEGEN--\":27323:27329   */\n      dup4\n        /* \"--CODEGEN--\":27320:27321   */\n      dup2\n        /* \"--CODEGEN--\":27317:27330   */\n      gt\n        /* \"--CODEGEN--\":27314:27316   */\n      iszero\n      tag_484\n      jumpi\n        /* \"--CODEGEN--\":27388:27389   */\n      0x00\n        /* \"--CODEGEN--\":27379:27385   */\n      dup5\n        /* \"--CODEGEN--\":27374:27377   */\n      dup5\n        /* \"--CODEGEN--\":27370:27386   */\n      add\n        /* \"--CODEGEN--\":27363:27390   */\n      mstore\n        /* \"--CODEGEN--\":27314:27316   */\n    tag_484:\n        /* \"--CODEGEN--\":27184:27403   */\n      pop\n      pop\n      pop\n      pop\n      jump\n        /* \"--CODEGEN--\":27411:27506   */\n    tag_362:\n      0x00\n        /* \"--CODEGEN--\":27475:27501   */\n      tag_485\n        /* \"--CODEGEN--\":27495:27500   */\n      dup3\n        /* \"--CODEGEN--\":27475:27501   */\n      jump(tag_486)\n    tag_485:\n        /* \"--CODEGEN--\":27464:27501   */\n      swap1\n      pop\n        /* \"--CODEGEN--\":27458:27506   */\n      swap2\n      swap1\n      pop\n      jump\n        /* \"--CODEGEN--\":27513:27587   */\n    tag_372:\n      0x00\n        /* \"--CODEGEN--\":27577:27582   */\n      dup2\n        /* \"--CODEGEN--\":27566:27582   */\n      swap1\n      pop\n        /* \"--CODEGEN--\":27560:27587   */\n      swap2\n      swap1\n      pop\n      jump\n        /* \"--CODEGEN--\":27594:27683   */\n    tag_486:\n      0x00\n        /* \"--CODEGEN--\":27658:27678   */\n      tag_487\n        /* \"--CODEGEN--\":27672:27677   */\n      dup3\n        /* \"--CODEGEN--\":27658:27678   */\n      jump(tag_488)\n    tag_487:\n        /* \"--CODEGEN--\":27647:27678   */\n      swap1\n      pop\n        /* \"--CODEGEN--\":27641:27683   */\n      swap2\n      swap1\n      pop\n      jump\n        /* \"--CODEGEN--\":27690:27764   */\n    tag_426:\n      0x00\n        /* \"--CODEGEN--\":27754:27759   */\n      dup2\n        /* \"--CODEGEN--\":27743:27759   */\n      swap1\n      pop\n        /* \"--CODEGEN--\":27737:27764   */\n      swap2\n      swap1\n      pop\n      jump\n        /* \"--CODEGEN--\":27771:27868   */\n    tag_381:\n      0x00\n        /* \"--CODEGEN--\":27859:27861   */\n      0x1f\n        /* \"--CODEGEN--\":27855:27862   */\n      not\n        /* \"--CODEGEN--\":27850:27852   */\n      0x1f\n        /* \"--CODEGEN--\":27843:27848   */\n      dup4\n        /* \"--CODEGEN--\":27839:27853   */\n      add\n        /* \"--CODEGEN--\":27835:27863   */\n      and\n        /* \"--CODEGEN--\":27825:27863   */\n      swap1\n      pop\n        /* \"--CODEGEN--\":27819:27868   */\n      swap2\n      swap1\n      pop\n      jump\n        /* \"--CODEGEN--\":27876:27970   */\n    tag_488:\n      0x00\n        /* \"--CODEGEN--\":27954:27959   */\n      dup2\n        /* \"--CODEGEN--\":27950:27952   */\n      0x60\n        /* \"--CODEGEN--\":27946:27960   */\n      shl\n        /* \"--CODEGEN--\":27924:27960   */\n      swap1\n      pop\n        /* \"--CODEGEN--\":27918:27970   */\n      swap2\n      swap1\n      pop\n      jump\n        /* \"--CODEGEN--\":27978:28095   */\n    tag_304:\n        /* \"--CODEGEN--\":28047:28071   */\n      tag_489\n        /* \"--CODEGEN--\":28065:28070   */\n      dup2\n        /* \"--CODEGEN--\":28047:28071   */\n      jump(tag_358)\n    tag_489:\n        /* \"--CODEGEN--\":28040:28045   */\n      dup2\n        /* \"--CODEGEN--\":28037:28072   */\n      eq\n        /* \"--CODEGEN--\":28027:28029   */\n      tag_490\n      jumpi\n        /* \"--CODEGEN--\":28086:28087   */\n      0x00\n        /* \"--CODEGEN--\":28083:28084   */\n      dup1\n        /* \"--CODEGEN--\":28076:28088   */\n      revert\n        /* \"--CODEGEN--\":28027:28029   */\n    tag_490:\n        /* \"--CODEGEN--\":28021:28095   */\n      pop\n      jump\n        /* \"--CODEGEN--\":28102:28219   */\n    tag_307:\n        /* \"--CODEGEN--\":28171:28195   */\n      tag_491\n        /* \"--CODEGEN--\":28189:28194   */\n      dup2\n        /* \"--CODEGEN--\":28171:28195   */\n      jump(tag_368)\n    tag_491:\n        /* \"--CODEGEN--\":28164:28169   */\n      dup2\n        /* \"--CODEGEN--\":28161:28196   */\n      eq\n        /* \"--CODEGEN--\":28151:28153   */\n      tag_492\n      jumpi\n        /* \"--CODEGEN--\":28210:28211   */\n      0x00\n        /* \"--CODEGEN--\":28207:28208   */\n      dup1\n        /* \"--CODEGEN--\":28200:28212   */\n      revert\n        /* \"--CODEGEN--\":28151:28153   */\n    tag_492:\n        /* \"--CODEGEN--\":28145:28219   */\n      pop\n      jump\n        /* \"--CODEGEN--\":28226:28343   */\n    tag_327:\n        /* \"--CODEGEN--\":28295:28319   */\n      tag_493\n        /* \"--CODEGEN--\":28313:28318   */\n      dup2\n        /* \"--CODEGEN--\":28295:28319   */\n      jump(tag_422)\n    tag_493:\n        /* \"--CODEGEN--\":28288:28293   */\n      dup2\n        /* \"--CODEGEN--\":28285:28320   */\n      eq\n        /* \"--CODEGEN--\":28275:28277   */\n      tag_494\n      jumpi\n        /* \"--CODEGEN--\":28334:28335   */\n      0x00\n        /* \"--CODEGEN--\":28331:28332   */\n      dup1\n        /* \"--CODEGEN--\":28324:28336   */\n      revert\n        /* \"--CODEGEN--\":28275:28277   */\n    tag_494:\n        /* \"--CODEGEN--\":28269:28343   */\n      pop\n      jump\n    stop\n    data_149b126e7125232b4200af45303d04fba8b74653b1a295a6a561a528c33fefdd 45524332303a206275726e20616d6f756e7420657863656564732062616c616e6365\n    data_4107e8a8b9e94bf8ff83080ddec1c0bffe897ebc2241b89d44f66b3d274088b6 45524332303a207472616e7366657220616d6f756e7420657863656564732062616c616e6365\n    data_974d1b4421da69cc60b481194f0dad36a5bb4e23da810da7a7fb30cdba178330 45524332303a207472616e7366657220616d6f756e74206578636565647320616c6c6f77616e6365\n\n    auxdata: 0xa365627a7a723158203e667a24179e8382e5324f81fd5d3af8fe229f57df042473f8ad1af05c68c23c6c6578706572696d656e74616cf564736f6c63430005100040\n}\n",
    "bytecode": {
      "linkReferences": {},
      "object": "608060405260006040518060400160405280600681526020017f657363726f77000000000000000000000000000000000000000000000000000081525060126040518060400160405280600681526020017f657363726f77000000000000000000000000000000000000000000000000000081525082600390805190602001906200008c92919062000332610c94565b508060049080519060200190620000a592919062000332610c94565b5081600560006101000a81600080604001519080602001519080600001519050836320966208600052602052602060406024601c600073a193e42526f1fea8c99af609dceabf30c1c29faa7f00000000000000000000000000000000fffffffffffffffffffffffffffffffff15060405183838360009081600001529081602001529081604001525093505050508160ff021916908360ff1602179060008060600151908060400151908060200151908060000151905085856328dcb2a0600052602052604052602060606044601c600073a193e42526f1fea8c99af609dceabf30c1c29faa7f00000000000000000000000000000000fffffffffffffffffffffffffffffffff150606051848484846000908160000152908160200152908160400152908160600152509550505050505050506000841115620000de90610c945750620000dd6000806020015190806000015190506373509064600052602060206004601c600073a193e42526f1fea8c99af609dceabf30c1c29faa7f00000000000000000000000000000000fffffffffffffffffffffffffffffffff150602051828260009081600001529081602001525091505085620000e860201b60201c610c94565b5b5050505062000545610c94565b600073ffffffffffffffffffffffffffffffffffffffff168273ffffffffffffffffffffffffffffffffffffffff1614156200015b90610c9457506040517f08c379a0000000000000000000000000000000000000000000000000000000008152600401620001529062000499610c94565b60405180910390fd5b62000177816002600080604001519080602001519080600001519050836320966208600052602052602060406024601c600073a193e42526f1fea8c99af609dceabf30c1c29faa7f00000000000000000000000000000000fffffffffffffffffffffffffffffffff15060405183838360009081600001529081602001529081604001525093505050506200028360201b62001cea1790919060201c610c94565b6002819060008060600151908060400151908060200151908060000151905085856328dcb2a0600052602052604052602060606044601c600073a193e42526f1fea8c99af609dceabf30c1c29faa7f00000000000000000000000000000000fffffffffffffffffffffffffffffffff15060605184848484600090816000015290816020015290816040015290816060015250955050505050505050620001d5816000808573ffffffffffffffffffffffffffffffffffffffff1673ffffffffffffffffffffffffffffffffffffffff168152602001908152602001600020600080604001519080602001519080600001519050836320966208600052602052602060406024601c600073a193e42526f1fea8c99af609dceabf30c1c29faa7f00000000000000000000000000000000fffffffffffffffffffffffffffffffff15060405183838360009081600001529081602001529081604001525093505050506200028360201b62001cea1790919060201c610c94565b6000808473ffffffffffffffffffffffffffffffffffffffff1673ffffffffffffffffffffffffffffffffffffffff168152602001908152602001600020819060008060600151908060400151908060200151908060000151905085856328dcb2a0600052602052604052602060606044601c600073a193e42526f1fea8c99af609dceabf30c1c29faa7f00000000000000000000000000000000fffffffffffffffffffffffffffffffff150606051848484846000908160000152908160200152908160400152908160600152509550505050505050508173ffffffffffffffffffffffffffffffffffffffff16600073ffffffffffffffffffffffffffffffffffffffff167fddf252ad1be2c89b69c2b068fc378daa952ba7f163c4a11628f55a4df523b3ef83604051620002779190620004bb610c94565b60405180910390a35050610c94565b6000620002cd83836040518060400160405280601b81526020017f536166654d6174683a206164646974696f6e206f766572666c6f770000000000815250620002d560201b60201c610c94565b905092915050610c94565b60008083850190508481101583906200032690610c9457506040517f08c379a00000000000000000000000000000000000000000000000000000000081526004016200031d919062000475610c94565b60405180910390fd5b50809150509392505050610c94565b8280600080604001519080602001519080600001519050836320966208600052602052602060406024601c600073a193e42526f1fea8c99af609dceabf30c1c29faa7f00000000000000000000000000000000fffffffffffffffffffffffffffffffff1506040518383836000908160000152908160200152908160400152509350505050600181600116156101000203166002900490600052602060002090601f016020900481019282601f106200037590610c945750805160ff1916838001178560008060600151908060400151908060200151908060000151905085856328dcb2a0600052602052604052602060606044601c600073a193e42526f1fea8c99af609dceabf30c1c29faa7f00000000000000000000000000000000fffffffffffffffffffffffffffffffff150606051848484846000908160000152908160200152908160400152908160600152509550505050505050620003a6610c94565b8280016001018560008060600151908060400151908060200151908060000151905085856328dcb2a0600052602052604052602060606044601c600073a193e42526f1fea8c99af609dceabf30c1c29faa7f00000000000000000000000000000000fffffffffffffffffffffffffffffffff1506060518484848460009081600001529081602001529081604001529081606001525095505050505050508215620003a690610c9457509182015b82811115620003a590610c94575082518260008060600151908060400151908060200151908060000151905085856328dcb2a0600052602052604052602060606044601c600073a193e42526f1fea8c99af609dceabf30c1c29faa7f00000000000000000000000000000000fffffffffffffffffffffffffffffffff1506060518484848460009081600001529081602001529081604001529081606001525095505050505050509160200191906001019062000388610c94565b5b509050620003b59190620003b9610c94565b5090610c94565b620003de91905b80821115620003da90610c94575060008160009060008060600151908060400151908060200151908060000151905085856328dcb2a0600052602052604052602060606044601c600073a193e42526f1fea8c99af609dceabf30c1c29faa7f00000000000000000000000000000000fffffffffffffffffffffffffffffffff15060605184848484600090816000015290816020015290816040015290816060015250955050505050505050600101620003c0610c94565b5090610c94565b90610c94565b6000620003ee82620004d8610c94565b620003fa8185620004e3610c94565b93506200040c818560208601620004fe610c94565b620004178162000534610c94565b840191505092915050610c94565b600062000431601f83620004e3610c94565b91507f45524332303a206d696e7420746f20746865207a65726f2061646472657373006000830152602082019050919050610c94565b6200046f81620004f4610c94565b82525050610c94565b60006020820190508181036000830152620004918184620003e1610c94565b905092915050610c94565b60006020820190508181036000830152620004b48162000422610c94565b9050919050610c94565b6000602082019050620004d2600083018462000464610c94565b92915050610c94565b600081519050919050610c94565b600082825260208201905092915050610c94565b6000819050919050610c94565b60005b838110156200051e90610c945750808201518184015260208101905062000501610c94565b838111156200052e90610c9457506000848401525b50505050610c94565b6000601f19601f8301169050919050610c94565b62008ae08063000010386000396000f3fe5b9050565b806103de14610acb9062000c905750806103de1062000e6e57806102d5146106b79062000c905750806102d51062000da3578061015b146102fb9062000c9057508061015b1062000d4a578060de146102739062000c9057508060de1062000d2b578060a51460ab9062000c9057508060a51062000d1b5780608c14608f9062000c905750005b8060dd146102729062000c905750005b80610152146102f29062000c9057508060e8146102809062000c905750005b80610277146106509062000c905750806102771062000d8357806101d5146105159062000c905750806101771461039c9062000c905750005b806102cd146106ac9062000c905750806102831461065f9062000c905750005b806103a5146109eb9062000c905750806103a51062000e1557806103321461071f9062000c905750806103321062000df55780610326146107109062000c9057508061031d146107079062000c905750005b80610388146109309062000c90575080610375146108829062000c905750005b806103b914610a059062000c905750806103b91062000e4e57806103b5146109fe9062000c905750806103a6146109ec9062000c905750005b806103da14610ac49062000c905750806103c014610a0c9062000c905750005b806104b414610bc89062000c905750806104b41062000f6d578061043114610b339062000c905750806104311062000f14578061040c14610b059062000c9057508061040c1062000ef457806103ee14610ae19062000c905750806103ee1062000ee357806103e114610ad19062000c905750005b806103fa14610af09062000c905750005b8061042214610b219062000c9057508061041714610b139062000c905750005b8061047514610b809062000c905750806104751062000f4d578061046f14610b779062000c9057508061046414610b699062000c905750005b8061049914610baa9062000c9057508061049114610b9f9062000c905750005b806104fe14610c249062000c905750806104fe1062000fdf57806104d814610bf59062000c905750806104d81062000fbf57806104d214610bec9062000c905750806104bb14610bd29062000c905750005b806104f414610c179062000c905750806104e314610c039062000c905750005b8061052e14610c619062000c9057508061052e1062001018578061051e14610c4c9062000c9057508061050114610c279062000c905750005b8061054514610c7e9062000c9057508061053414610c6a9062000c905750006080604052600436106101149061660f575060003560e01c8063877b954a116100a09061660f57508063a9059cbb116100649061660f57508063a9059cbb146103ab9061660f57508063ae21875e146103e89061660f57508063bd66528a146104259061660f57508063d0e30db01461044e9061660f57508063dd62ed3e146104589061660f575061011461660f565b8063877b954a146102cc9061660f5750806392584d80146103099061660f5750806395d89b41146103329061660f575080639fe9ada31461035d9061660f57508063a3e76c0f146103a19061660f575061011461660f565b80632e1a7d4d116100e79061660f575080632e1a7d4d146101e99061660f57508063313ce567146102129061660f5750806339a7aa231461023d9061660f5750806355640c4f146102669061660f5750806370a082311461028f9061660f575061011461660f565b806306fdde03146101199061660f57508063095ea7b3146101449061660f5750806318160ddd146101819061660f5750806323b872dd146101ac9061660f57505b600080fd5b3480156101259061660f5750600080fd5b5061012e61049561660f565b60405161013b919061293761660f565b60405180910390f35b3480156101509061660f5750600080fd5b5061016b60048036036101669190810190611fab61660f565b61053761660f565b60405161017891906128bc61660f565b60405180910390f35b34801561018d9061660f5750600080fd5b5061019661054e61660f565b6040516101a39190612b5961660f565b60405180910390f35b3480156101b89061660f5750600080fd5b506101d360048036036101ce9190810190611f5c61660f565b61055861660f565b6040516101e091906128bc61660f565b60405180910390f35b3480156101f59061660f5750600080fd5b50610210600480360361020b919081019061210c61660f565b61062361660f565b005b34801561021e9061660f5750600080fd5b506102276106e561660f565b6040516102349190612b7461660f565b60405180910390f35b3480156102499061660f5750600080fd5b50610264600480360361025f919081019061201061660f565b6106fc61660f565b005b3480156102729061660f5750600080fd5b5061028d600480360361028891908101906120a061660f565b6109b061660f565b005b34801561029b9061660f5750600080fd5b506102b660048036036102b19190810190611ef761660f565b610df761660f565b6040516102c39190612b5961660f565b60405180910390f35b3480156102d89061660f5750600080fd5b506102f360048036036102ee9190810190611fe761660f565b610e3f61660f565b60405161030091906128bc61660f565b60405180910390f35b3480156103159061660f5750600080fd5b50610330600480360361032b9190810190611fe761660f565b610e5f61660f565b005b34801561033e9061660f5750600080fd5b50610347610fcd61660f565b604051610354919061293761660f565b60405180910390f35b3480156103699061660f5750600080fd5b50610384600480360361037f9190810190611fe761660f565b61106f61660f565b60405161039898979695949392919061283e61660f565b60405180910390f35b6103a96110f761660f565b005b3480156103b79061660f5750600080fd5b506103d260048036036103cd9190810190611fab61660f565b61110361660f565b6040516103df91906128bc61660f565b60405180910390f35b3480156103f49061660f5750600080fd5b5061040f600480360361040a919081019061205f61660f565b61111a61660f565b60405161041c91906128d761660f565b60405180910390f35b3480156104319061660f5750600080fd5b5061044c60048036036104479190810190611fe761660f565b61115c61660f565b005b6104566112ef61660f565b005b3480156104649061660f5750600080fd5b5061047f600480360361047a9190810190611f2061660f565b6112fb61660f565b60405161048c9190612b5961660f565b60405180910390f35b6060600380600080604001519080602001519080600001519050836320966208600052602052602060406024601c600073a193e42526f1fea8c99af609dceabf30c1c29faa7f00000000000000000000000000000000fffffffffffffffffffffffffffffffff1506040518383836000908160000152908160200152908160400152509350505050600181600116156101000203166002900480601f01602080910402602001604051908101604052809291908181526020018280600080604001519080602001519080600001519050836320966208600052602052602060406024601c600073a193e42526f1fea8c99af609dceabf30c1c29faa7f00000000000000000000000000000000fffffffffffffffffffffffffffffffff15060405183838360009081600001529081602001529081604001525093505050506001816001161561010002031660029004801561052d9061660f575080601f106105029061660f57506101008083600080604001519080602001519080600001519050836320966208600052602052602060406024601c600073a193e42526f1fea8c99af609dceabf30c1c29faa7f00000000000000000000000000000000fffffffffffffffffffffffffffffffff150604051838383600090816000015290816020015290816040015250935050505004028352916020019161052d61660f565b820191906000526020600020905b81600080604001519080602001519080600001519050836320966208600052602052602060406024601c600073a193e42526f1fea8c99af609dceabf30c1c29faa7f00000000000000000000000000000000fffffffffffffffffffffffffffffffff1506040518383836000908160000152908160200152908160400152509350505050815290600101906020018083116105109061660f5750829003601f168201915b505050505090509061660f565b60006105446000806020015190806000015190506373509064600052602060206004601c600073a193e42526f1fea8c99af609dceabf30c1c29faa7f00000000000000000000000000000000fffffffffffffffffffffffffffffffff1506020518282600090816000015290816020015250915050848461138261660f565b600190509291505061660f565b60006002600080604001519080602001519080600001519050836320966208600052602052602060406024601c600073a193e42526f1fea8c99af609dceabf30c1c29faa7f00000000000000000000000000000000fffffffffffffffffffffffffffffffff150604051838383600090816000015290816020015290816040015250935050505090509061660f565b600061056584848461154d61660f565b610618846000806020015190806000015190506373509064600052602060206004601c600073a193e42526f1fea8c99af609dceabf30c1c29faa7f00000000000000000000000000000000fffffffffffffffffffffffffffffffff150602051828260009081600001529081602001525091505061061385604051806060016040528060288152602001620065dd60289139600160008b73ffffffffffffffffffffffffffffffffffffffff1673ffffffffffffffffffffffffffffffffffffffff16815260200190815260200160002060006000806020015190806000015190506373509064600052602060206004601c600073a193e42526f1fea8c99af609dceabf30c1c29faa7f00000000000000000000000000000000fffffffffffffffffffffffffffffffff150602051828260009081600001529081602001525091505073ffffffffffffffffffffffffffffffffffffffff1673ffffffffffffffffffffffffffffffffffffffff168152602001908152602001600020600080604001519080602001519080600001519050836320966208600052602052602060406024601c600073a193e42526f1fea8c99af609dceabf30c1c29faa7f00000000000000000000000000000000fffffffffffffffffffffffffffffffff15060405183838360009081600001529081602001529081604001525093505050506117d79092919063ffffffff1661660f565b61138261660f565b60019050939250505061660f565b61062d6000806020015190806000015190506373509064600052602060206004601c600073a193e42526f1fea8c99af609dceabf30c1c29faa7f00000000000000000000000000000000fffffffffffffffffffffffffffffffff15060205182826000908160000152908160200152509150508261183261660f565b600060606000806020015190806000015190506373509064600052602060206004601c600073a193e42526f1fea8c99af609dceabf30c1c29faa7f00000000000000000000000000000000fffffffffffffffffffffffffffffffff150602051828260009081600001529081602001525091505073ffffffffffffffffffffffffffffffffffffffff16836040516106559061280e61660f565b60006040518083038185875a604084038060200151908060000151908989898988634c6d7c848690816000015290816020015250602490039060240190600073a193e42526f1fea8c99af609dceabf30c1c29faa89f1995090816000015290816020015250505050505050925050503d80600081146106929061660f57506040519150601f19603f3d011682016040523d82523d6000602084013e61069761660f565b606091505b50915091508181906106df9061660f57506040517f08c379a00000000000000000000000000000000000000000000000000000000081526004016106d6919061293761660f565b60405180910390fd5b5050505061660f565b60006005600090600080604001519080602001519080600001519050836320966208600052602052602060406024601c600073a193e42526f1fea8c99af609dceabf30c1c29faa7f00000000000000000000000000000000fffffffffffffffffffffffffffffffff1506040518383836000908160000152908160200152908160400152509350505050906101000a900460ff1690509061660f565b600060076000858152602001908152602001600020905060008060200151908060000151905063bdbf8c36600052602060206004601c600073a193e42526f1fea8c99af609dceabf30c1c29faa7f00000000000000000000000000000000fffffffffffffffffffffffffffffffff150602051828260009081600001529081602001525091505081600701600080604001519080602001519080600001519050836320966208600052602052602060406024601c600073a193e42526f1fea8c99af609dceabf30c1c29faa7f00000000000000000000000000000000fffffffffffffffffffffffffffffffff1506040518383836000908160000152908160200152908160400152509350505050101561075a9061660f57506040517f08c379a00000000000000000000000000000000000000000000000000000000081526004016107519061297961660f565b60405180910390fd5b80600001600090600080604001519080602001519080600001519050836320966208600052602052602060406024601c600073a193e42526f1fea8c99af609dceabf30c1c29faa7f00000000000000000000000000000000fffffffffffffffffffffffffffffffff1506040518383836000908160000152908160200152908160400152509350505050906101000a900473ffffffffffffffffffffffffffffffffffffffff1673ffffffffffffffffffffffffffffffffffffffff168373ffffffffffffffffffffffffffffffffffffffff1614156108649061660f5750816040516020016107c391906127a161660f565b6040516020818303038152906040528051906020012081600201600080604001519080602001519080600001519050836320966208600052602052602060406024601c600073a193e42526f1fea8c99af609dceabf30c1c29faa7f00000000000000000000000000000000fffffffffffffffffffffffffffffffff15060405183838360009081600001529081602001529081604001525093505050501461081e9061660f57506040517f08c379a000000000000000000000000000000000000000000000000000000000815260040161081590612a1961660f565b60405180910390fd5b8181600401819060008060600151908060400151908060200151908060000151905085856328dcb2a0600052602052604052602060606044601c600073a193e42526f1fea8c99af609dceabf30c1c29faa7f00000000000000000000000000000000fffffffffffffffffffffffffffffffff15060605184848484600090816000015290816020015290816040015290816060015250955050505050505050837f3881c7c92c6bbf7be209f58096473fc13a008b026e68be078b406c4c612eecff84604051610857919061282361660f565b60405180910390a26109aa61660f565b80600101600090600080604001519080602001519080600001519050836320966208600052602052602060406024601c600073a193e42526f1fea8c99af609dceabf30c1c29faa7f00000000000000000000000000000000fffffffffffffffffffffffffffffffff1506040518383836000908160000152908160200152908160400152509350505050906101000a900473ffffffffffffffffffffffffffffffffffffffff1673ffffffffffffffffffffffffffffffffffffffff168373ffffffffffffffffffffffffffffffffffffffff16141561096e9061660f5750816040516020016108cd91906127a161660f565b6040516020818303038152906040528051906020012081600301600080604001519080602001519080600001519050836320966208600052602052602060406024601c600073a193e42526f1fea8c99af609dceabf30c1c29faa7f00000000000000000000000000000000fffffffffffffffffffffffffffffffff1506040518383836000908160000152908160200152908160400152509350505050146109289061660f57506040517f08c379a000000000000000000000000000000000000000000000000000000000815260040161091f90612a5961660f565b60405180910390fd5b8181600501819060008060600151908060400151908060200151908060000151905085856328dcb2a0600052602052604052602060606044601c600073a193e42526f1fea8c99af609dceabf30c1c29faa7f00000000000000000000000000000000fffffffffffffffffffffffffffffffff15060605184848484600090816000015290816020015290816040015290816060015250955050505050505050837f3881c7c92c6bbf7be209f58096473fc13a008b026e68be078b406c4c612eecff84604051610961919061282361660f565b60405180910390a26109a961660f565b6040517f08c379a00000000000000000000000000000000000000000000000000000000081526004016109a090612a3961660f565b60405180910390fd5b5b5050505061660f565b80604001518260400151146109c49061660f5750600080fd5b60006109d76109d28461111a61660f565b6119d461660f565b905060006109ec6109e78461111a61660f565b6119d461660f565b905060008282604051602001610a039291906127bc61660f565b604051602081830303815290604052805190602001209050610a32856060015184611a0490919063ffffffff1661660f565b73ffffffffffffffffffffffffffffffffffffffff16856000015173ffffffffffffffffffffffffffffffffffffffff1614610aa39061660f57506040517f08c379a0000000000000000000000000000000000000000000000000000000008152600401610a9a906129f961660f565b60405180910390fd5b610aba846060015183611a0490919063ffffffff1661660f565b73ffffffffffffffffffffffffffffffffffffffff16846000015173ffffffffffffffffffffffffffffffffffffffff1614610b2b9061660f57506040517f08c379a0000000000000000000000000000000000000000000000000000000008152600401610b229061299961660f565b60405180910390fd5b610b3d85600001518660400151611b4461660f565b610b4f84600001518560400151611b4461660f565b60066000848152602001908152602001600020600090600080604001519080602001519080600001519050836320966208600052602052602060406024601c600073a193e42526f1fea8c99af609dceabf30c1c29faa7f00000000000000000000000000000000fffffffffffffffffffffffffffffffff1506040518383836000908160000152908160200152908160400152509350505050906101000a900460ff1615610bb09061660f57506040517f08c379a0000000000000000000000000000000000000000000000000000000008152600401610ba790612ad961660f565b60405180910390fd5b60066000838152602001908152602001600020600090600080604001519080602001519080600001519050836320966208600052602052602060406024601c600073a193e42526f1fea8c99af609dceabf30c1c29faa7f00000000000000000000000000000000fffffffffffffffffffffffffffffffff1506040518383836000908160000152908160200152908160400152509350505050906101000a900460ff1615610c119061660f57506040517f08c379a0000000000000000000000000000000000000000000000000000000008152600401610c0890612af961660f565b60405180910390fd5b60016006600085815260200190815260200160002060006101000a81600080604001519080602001519080600001519050836320966208600052602052602060406024601c600073a193e42526f1fea8c99af609dceabf30c1c29faa7f00000000000000000000000000000000fffffffffffffffffffffffffffffffff15060405183838360009081600001529081602001529081604001525093505050508160ff0219169083151502179060008060600151908060400151908060200151908060000151905085856328dcb2a0600052602052604052602060606044601c600073a193e42526f1fea8c99af609dceabf30c1c29faa7f00000000000000000000000000000000fffffffffffffffffffffffffffffffff1506060518484848460009081600001529081602001529081604001529081606001525095505050505050505060016006600084815260200190815260200160002060006101000a81600080604001519080602001519080600001519050836320966208600052602052602060406024601c600073a193e42526f1fea8c99af609dceabf30c1c29faa7f00000000000000000000000000000000fffffffffffffffffffffffffffffffff15060405183838360009081600001529081602001529081604001525093505050508160ff0219169083151502179060008060600151908060400151908060200151908060000151905085856328dcb2a0600052602052604052602060606044601c600073a193e42526f1fea8c99af609dceabf30c1c29faa7f00000000000000000000000000000000fffffffffffffffffffffffffffffffff15060605184848484600090816000015290816020015290816040015290816060015250955050505050505050600060076000838152602001908152602001600020905085600001518160000160006101000a81600080604001519080602001519080600001519050836320966208600052602052602060406024601c600073a193e42526f1fea8c99af609dceabf30c1c29faa7f00000000000000000000000000000000fffffffffffffffffffffffffffffffff15060405183838360009081600001529081602001529081604001525093505050508173ffffffffffffffffffffffffffffffffffffffff021916908373ffffffffffffffffffffffffffffffffffffffff1602179060008060600151908060400151908060200151908060000151905085856328dcb2a0600052602052604052602060606044601c600073a193e42526f1fea8c99af609dceabf30c1c29faa7f00000000000000000000000000000000fffffffffffffffffffffffffffffffff1506060518484848460009081600001529081602001529081604001529081606001525095505050505050505084600001518160010160006101000a81600080604001519080602001519080600001519050836320966208600052602052602060406024601c600073a193e42526f1fea8c99af609dceabf30c1c29faa7f00000000000000000000000000000000fffffffffffffffffffffffffffffffff15060405183838360009081600001529081602001529081604001525093505050508173ffffffffffffffffffffffffffffffffffffffff021916908373ffffffffffffffffffffffffffffffffffffffff1602179060008060600151908060400151908060200151908060000151905085856328dcb2a0600052602052604052602060606044601c600073a193e42526f1fea8c99af609dceabf30c1c29faa7f00000000000000000000000000000000fffffffffffffffffffffffffffffffff15060605184848484600090816000015290816020015290816040015290816060015250955050505050505050856020015181600201819060008060600151908060400151908060200151908060000151905085856328dcb2a0600052602052604052602060606044601c600073a193e42526f1fea8c99af609dceabf30c1c29faa7f00000000000000000000000000000000fffffffffffffffffffffffffffffffff15060605184848484600090816000015290816020015290816040015290816060015250955050505050505050856020015181600201819060008060600151908060400151908060200151908060000151905085856328dcb2a0600052602052604052602060606044601c600073a193e42526f1fea8c99af609dceabf30c1c29faa7f00000000000000000000000000000000fffffffffffffffffffffffffffffffff15060605184848484600090816000015290816020015290816040015290816060015250955050505050505050846040015186604001510181600601819060008060600151908060400151908060200151908060000151905085856328dcb2a0600052602052604052602060606044601c600073a193e42526f1fea8c99af609dceabf30c1c29faa7f00000000000000000000000000000000fffffffffffffffffffffffffffffffff150606051848484846000908160000152908160200152908160400152908160600152509550505050505050506201518060008060200151908060000151905063bdbf8c36600052602060206004601c600073a193e42526f1fea8c99af609dceabf30c1c29faa7f00000000000000000000000000000000fffffffffffffffffffffffffffffffff15060205182826000908160000152908160200152509150500181600701819060008060600151908060400151908060200151908060000151905085856328dcb2a0600052602052604052602060606044601c600073a193e42526f1fea8c99af609dceabf30c1c29faa7f00000000000000000000000000000000fffffffffffffffffffffffffffffffff1506060518484848460009081600001529081602001529081604001529081606001525095505050505050505083866000015173ffffffffffffffffffffffffffffffffffffffff167f8086b247d8713c22b4656944fa5434755310eaa9fea73af477fe4f827b7e43bc84604051610d9491906128d761660f565b60405180910390a382856000015173ffffffffffffffffffffffffffffffffffffffff167f8086b247d8713c22b4656944fa5434755310eaa9fea73af477fe4f827b7e43bc84604051610de791906128d761660f565b60405180910390a350505050505061660f565b60008060008373ffffffffffffffffffffffffffffffffffffffff1673ffffffffffffffffffffffffffffffffffffffff168152602001908152602001600020600080604001519080602001519080600001519050836320966208600052602052602060406024601c600073a193e42526f1fea8c99af609dceabf30c1c29faa7f00000000000000000000000000000000fffffffffffffffffffffffffffffffff1506040518383836000908160000152908160200152908160400152509350505050905091905061660f565b600660205280600052604060002060009150600080604001519080602001519080600001519050836320966208600052602052602060406024601c600073a193e42526f1fea8c99af609dceabf30c1c29faa7f00000000000000000000000000000000fffffffffffffffffffffffffffffffff1506040518383836000908160000152908160200152908160400152509350505050906101000a900460ff168161660f565b60006007600083815260200190815260200160002090506000801b81600401600080604001519080602001519080600001519050836320966208600052602052602060406024601c600073a193e42526f1fea8c99af609dceabf30c1c29faa7f00000000000000000000000000000000fffffffffffffffffffffffffffffffff150604051838383600090816000015290816020015290816040015250935050505014158015610e949061660f5750506000801b81600501600080604001519080602001519080600001519050836320966208600052602052602060406024601c600073a193e42526f1fea8c99af609dceabf30c1c29faa7f00000000000000000000000000000000fffffffffffffffffffffffffffffffff150604051838383600090816000015290816020015290816040015250935050505014155b610e9d9061660f5750600080fd5b600081600001600090600080604001519080602001519080600001519050836320966208600052602052602060406024601c600073a193e42526f1fea8c99af609dceabf30c1c29faa7f00000000000000000000000000000000fffffffffffffffffffffffffffffffff1506040518383836000908160000152908160200152908160400152509350505050906101000a900473ffffffffffffffffffffffffffffffffffffffff1682600401600080604001519080602001519080600001519050836320966208600052602052602060406024601c600073a193e42526f1fea8c99af609dceabf30c1c29faa7f00000000000000000000000000000000fffffffffffffffffffffffffffffffff150604051838383600090816000015290816020015290816040015250935050505083600501600080604001519080602001519080600001519050836320966208600052602052602060406024601c600073a193e42526f1fea8c99af609dceabf30c1c29faa7f00000000000000000000000000000000fffffffffffffffffffffffffffffffff1506040518383836000908160000152908160200152908160400152509350505050604051602001610ee09392919061276461660f565b6040516020818303038152906040528051906020012060001c9050600082600101600090600080604001519080602001519080600001519050836320966208600052602052602060406024601c600073a193e42526f1fea8c99af609dceabf30c1c29faa7f00000000000000000000000000000000fffffffffffffffffffffffffffffffff1506040518383836000908160000152908160200152908160400152509350505050906101000a900473ffffffffffffffffffffffffffffffffffffffff1683600401600080604001519080602001519080600001519050836320966208600052602052602060406024601c600073a193e42526f1fea8c99af609dceabf30c1c29faa7f00000000000000000000000000000000fffffffffffffffffffffffffffffffff150604051838383600090816000015290816020015290816040015250935050505084600501600080604001519080602001519080600001519050836320966208600052602052602060406024601c600073a193e42526f1fea8c99af609dceabf30c1c29faa7f00000000000000000000000000000000fffffffffffffffffffffffffffffffff1506040518383836000908160000152908160200152908160400152509350505050604051602001610f3e9392919061276461660f565b6040516020818303038152906040528051906020012060001c9050610fbd818311610f8d9061660f575083600101600090600080604001519080602001519080600001519050836320966208600052602052602060406024601c600073a193e42526f1fea8c99af609dceabf30c1c29faa7f00000000000000000000000000000000fffffffffffffffffffffffffffffffff1506040518383836000908160000152908160200152908160400152509350505050906101000a900473ffffffffffffffffffffffffffffffffffffffff16610fb361660f565b83600001600090600080604001519080602001519080600001519050836320966208600052602052602060406024601c600073a193e42526f1fea8c99af609dceabf30c1c29faa7f00000000000000000000000000000000fffffffffffffffffffffffffffffffff1506040518383836000908160000152908160200152908160400152509350505050906101000a900473ffffffffffffffffffffffffffffffffffffffff165b84600601600080604001519080602001519080600001519050836320966208600052602052602060406024601c600073a193e42526f1fea8c99af609dceabf30c1c29faa7f00000000000000000000000000000000fffffffffffffffffffffffffffffffff1506040518383836000908160000152908160200152908160400152509350505050611b5361660f565b600083600601819060008060600151908060400151908060200151908060000151905085856328dcb2a0600052602052604052602060606044601c600073a193e42526f1fea8c99af609dceabf30c1c29faa7f00000000000000000000000000000000fffffffffffffffffffffffffffffffff150606051848484846000908160000152908160200152908160400152908160600152509550505050505050505050505061660f565b6060600480600080604001519080602001519080600001519050836320966208600052602052602060406024601c600073a193e42526f1fea8c99af609dceabf30c1c29faa7f00000000000000000000000000000000fffffffffffffffffffffffffffffffff1506040518383836000908160000152908160200152908160400152509350505050600181600116156101000203166002900480601f01602080910402602001604051908101604052809291908181526020018280600080604001519080602001519080600001519050836320966208600052602052602060406024601c600073a193e42526f1fea8c99af609dceabf30c1c29faa7f00000000000000000000000000000000fffffffffffffffffffffffffffffffff1506040518383836000908160000152908160200152908160400152509350505050600181600116156101000203166002900480156110659061660f575080601f1061103a9061660f57506101008083600080604001519080602001519080600001519050836320966208600052602052602060406024601c600073a193e42526f1fea8c99af609dceabf30c1c29faa7f00000000000000000000000000000000fffffffffffffffffffffffffffffffff150604051838383600090816000015290816020015290816040015250935050505004028352916020019161106561660f565b820191906000526020600020905b81600080604001519080602001519080600001519050836320966208600052602052602060406024601c600073a193e42526f1fea8c99af609dceabf30c1c29faa7f00000000000000000000000000000000fffffffffffffffffffffffffffffffff1506040518383836000908160000152908160200152908160400152509350505050815290600101906020018083116110489061660f5750829003601f168201915b505050505090509061660f565b600760205280600052604060002060009150905080600001600090600080604001519080602001519080600001519050836320966208600052602052602060406024601c600073a193e42526f1fea8c99af609dceabf30c1c29faa7f00000000000000000000000000000000fffffffffffffffffffffffffffffffff1506040518383836000908160000152908160200152908160400152509350505050906101000a900473ffffffffffffffffffffffffffffffffffffffff169080600101600090600080604001519080602001519080600001519050836320966208600052602052602060406024601c600073a193e42526f1fea8c99af609dceabf30c1c29faa7f00000000000000000000000000000000fffffffffffffffffffffffffffffffff1506040518383836000908160000152908160200152908160400152509350505050906101000a900473ffffffffffffffffffffffffffffffffffffffff169080600201600080604001519080602001519080600001519050836320966208600052602052602060406024601c600073a193e42526f1fea8c99af609dceabf30c1c29faa7f00000000000000000000000000000000fffffffffffffffffffffffffffffffff15060405183838360009081600001529081602001529081604001525093505050509080600301600080604001519080602001519080600001519050836320966208600052602052602060406024601c600073a193e42526f1fea8c99af609dceabf30c1c29faa7f00000000000000000000000000000000fffffffffffffffffffffffffffffffff15060405183838360009081600001529081602001529081604001525093505050509080600401600080604001519080602001519080600001519050836320966208600052602052602060406024601c600073a193e42526f1fea8c99af609dceabf30c1c29faa7f00000000000000000000000000000000fffffffffffffffffffffffffffffffff15060405183838360009081600001529081602001529081604001525093505050509080600501600080604001519080602001519080600001519050836320966208600052602052602060406024601c600073a193e42526f1fea8c99af609dceabf30c1c29faa7f00000000000000000000000000000000fffffffffffffffffffffffffffffffff15060405183838360009081600001529081602001529081604001525093505050509080600601600080604001519080602001519080600001519050836320966208600052602052602060406024601c600073a193e42526f1fea8c99af609dceabf30c1c29faa7f00000000000000000000000000000000fffffffffffffffffffffffffffffffff15060405183838360009081600001529081602001529081604001525093505050509080600701600080604001519080602001519080600001519050836320966208600052602052602060406024601c600073a193e42526f1fea8c99af609dceabf30c1c29faa7f00000000000000000000000000000000fffffffffffffffffffffffffffffffff150604051838383600090816000015290816020015290816040015250935050505090508861660f565b6111016000806020015190806000015190506373509064600052602060206004601c600073a193e42526f1fea8c99af609dceabf30c1c29faa7f00000000000000000000000000000000fffffffffffffffffffffffffffffffff150602051828260009081600001529081602001525091505034611b6261660f565b61660f565b60006111106000806020015190806000015190506373509064600052602060206004601c600073a193e42526f1fea8c99af609dceabf30c1c29faa7f00000000000000000000000000000000fffffffffffffffffffffffffffffffff1506020518282600090816000015290816020015250915050848461154d61660f565b600190509291505061660f565b600060008060200151908060000151905063996d79a5600052602060206004601c600073a193e42526f1fea8c99af609dceabf30c1c29faa7f00000000000000000000000000000000fffffffffffffffffffffffffffffffff150602051828260009081600001529081602001525091505082600001518360200151846040015160405160200161113f949392919061271661660f565b60405160208183030381529060405280519060200120905091905061660f565b600060076000838152602001908152602001600020905060008060200151908060000151905063bdbf8c36600052602060206004601c600073a193e42526f1fea8c99af609dceabf30c1c29faa7f00000000000000000000000000000000fffffffffffffffffffffffffffffffff150602051828260009081600001529081602001525091505081600701600080604001519080602001519080600001519050836320966208600052602052602060406024601c600073a193e42526f1fea8c99af609dceabf30c1c29faa7f00000000000000000000000000000000fffffffffffffffffffffffffffffffff1506040518383836000908160000152908160200152908160400152509350505050106111b99061660f57506040517f08c379a00000000000000000000000000000000000000000000000000000000081526004016111b0906129b961660f565b60405180910390fd5b6000801b81600401600080604001519080602001519080600001519050836320966208600052602052602060406024601c600073a193e42526f1fea8c99af609dceabf30c1c29faa7f00000000000000000000000000000000fffffffffffffffffffffffffffffffff150604051838383600090816000015290816020015290816040015250935050505014806111d49061660f5750506000801b81600501600080604001519080602001519080600001519050836320966208600052602052602060406024601c600073a193e42526f1fea8c99af609dceabf30c1c29faa7f00000000000000000000000000000000fffffffffffffffffffffffffffffffff1506040518383836000908160000152908160200152908160400152509350505050145b6111dd9061660f5750600080fd5b6000801b81600401600080604001519080602001519080600001519050836320966208600052602052602060406024601c600073a193e42526f1fea8c99af609dceabf30c1c29faa7f00000000000000000000000000000000fffffffffffffffffffffffffffffffff1506040518383836000908160000152908160200152908160400152509350505050146112229061660f575061121d81600001600090600080604001519080602001519080600001519050836320966208600052602052602060406024601c600073a193e42526f1fea8c99af609dceabf30c1c29faa7f00000000000000000000000000000000fffffffffffffffffffffffffffffffff1506040518383836000908160000152908160200152908160400152509350505050906101000a900473ffffffffffffffffffffffffffffffffffffffff1682600601600080604001519080602001519080600001519050836320966208600052602052602060406024601c600073a193e42526f1fea8c99af609dceabf30c1c29faa7f00000000000000000000000000000000fffffffffffffffffffffffffffffffff1506040518383836000908160000152908160200152908160400152509350505050611b5361660f565b6112e161660f565b6000801b81600501600080604001519080602001519080600001519050836320966208600052602052602060406024601c600073a193e42526f1fea8c99af609dceabf30c1c29faa7f00000000000000000000000000000000fffffffffffffffffffffffffffffffff1506040518383836000908160000152908160200152908160400152509350505050146112679061660f575061126281600101600090600080604001519080602001519080600001519050836320966208600052602052602060406024601c600073a193e42526f1fea8c99af609dceabf30c1c29faa7f00000000000000000000000000000000fffffffffffffffffffffffffffffffff1506040518383836000908160000152908160200152908160400152509350505050906101000a900473ffffffffffffffffffffffffffffffffffffffff1682600601600080604001519080602001519080600001519050836320966208600052602052602060406024601c600073a193e42526f1fea8c99af609dceabf30c1c29faa7f00000000000000000000000000000000fffffffffffffffffffffffffffffffff1506040518383836000908160000152908160200152908160400152509350505050611b5361660f565b6112e061660f565b6112a381600001600090600080604001519080602001519080600001519050836320966208600052602052602060406024601c600073a193e42526f1fea8c99af609dceabf30c1c29faa7f00000000000000000000000000000000fffffffffffffffffffffffffffffffff1506040518383836000908160000152908160200152908160400152509350505050906101000a900473ffffffffffffffffffffffffffffffffffffffff16600283600601600080604001519080602001519080600001519050836320966208600052602052602060406024601c600073a193e42526f1fea8c99af609dceabf30c1c29faa7f00000000000000000000000000000000fffffffffffffffffffffffffffffffff15060405183838360009081600001529081602001529081604001525093505050508161129d9061660f5750fe5b04611b5361660f565b6112df81600101600090600080604001519080602001519080600001519050836320966208600052602052602060406024601c600073a193e42526f1fea8c99af609dceabf30c1c29faa7f00000000000000000000000000000000fffffffffffffffffffffffffffffffff1506040518383836000908160000152908160200152908160400152509350505050906101000a900473ffffffffffffffffffffffffffffffffffffffff16600283600601600080604001519080602001519080600001519050836320966208600052602052602060406024601c600073a193e42526f1fea8c99af609dceabf30c1c29faa7f00000000000000000000000000000000fffffffffffffffffffffffffffffffff1506040518383836000908160000152908160200152908160400152509350505050816112d99061660f5750fe5b04611b5361660f565b5b5b600081600601819060008060600151908060400151908060200151908060000151905085856328dcb2a0600052602052604052602060606044601c600073a193e42526f1fea8c99af609dceabf30c1c29faa7f00000000000000000000000000000000fffffffffffffffffffffffffffffffff15060605184848484600090816000015290816020015290816040015290816060015250955050505050505050505061660f565b6112f96000806020015190806000015190506373509064600052602060206004601c600073a193e42526f1fea8c99af609dceabf30c1c29faa7f00000000000000000000000000000000fffffffffffffffffffffffffffffffff150602051828260009081600001529081602001525091505034611b6261660f565b61660f565b6000600160008473ffffffffffffffffffffffffffffffffffffffff1673ffffffffffffffffffffffffffffffffffffffff16815260200190815260200160002060008373ffffffffffffffffffffffffffffffffffffffff1673ffffffffffffffffffffffffffffffffffffffff168152602001908152602001600020600080604001519080602001519080600001519050836320966208600052602052602060406024601c600073a193e42526f1fea8c99af609dceabf30c1c29faa7f00000000000000000000000000000000fffffffffffffffffffffffffffffffff150604051838383600090816000015290816020015290816040015250935050505090509291505061660f565b600073ffffffffffffffffffffffffffffffffffffffff168373ffffffffffffffffffffffffffffffffffffffff1614156113f29061660f57506040517f08c379a00000000000000000000000000000000000000000000000000000000081526004016113e990612b1961660f565b60405180910390fd5b600073ffffffffffffffffffffffffffffffffffffffff168273ffffffffffffffffffffffffffffffffffffffff1614156114629061660f57506040517f08c379a0000000000000000000000000000000000000000000000000000000008152600401611459906129d961660f565b60405180910390fd5b80600160008573ffffffffffffffffffffffffffffffffffffffff1673ffffffffffffffffffffffffffffffffffffffff16815260200190815260200160002060008473ffffffffffffffffffffffffffffffffffffffff1673ffffffffffffffffffffffffffffffffffffffff168152602001908152602001600020819060008060600151908060400151908060200151908060000151905085856328dcb2a0600052602052604052602060606044601c600073a193e42526f1fea8c99af609dceabf30c1c29faa7f00000000000000000000000000000000fffffffffffffffffffffffffffffffff150606051848484846000908160000152908160200152908160400152908160600152509550505050505050508173ffffffffffffffffffffffffffffffffffffffff168373ffffffffffffffffffffffffffffffffffffffff167f8c5be1e5ebec7d5bd14f71427d1e84f3dd0314c0f7b2291e5b200ac8c7c3b925836040516115409190612b5961660f565b60405180910390a350505061660f565b600073ffffffffffffffffffffffffffffffffffffffff168373ffffffffffffffffffffffffffffffffffffffff1614156115bd9061660f57506040517f08c379a00000000000000000000000000000000000000000000000000000000081526004016115b490612a9961660f565b60405180910390fd5b600073ffffffffffffffffffffffffffffffffffffffff168273ffffffffffffffffffffffffffffffffffffffff16141561162d9061660f57506040517f08c379a00000000000000000000000000000000000000000000000000000000081526004016116249061295961660f565b60405180910390fd5b61169881604051806060016040528060268152602001620065b7602691396000808773ffffffffffffffffffffffffffffffffffffffff1673ffffffffffffffffffffffffffffffffffffffff168152602001908152602001600020600080604001519080602001519080600001519050836320966208600052602052602060406024601c600073a193e42526f1fea8c99af609dceabf30c1c29faa7f00000000000000000000000000000000fffffffffffffffffffffffffffffffff15060405183838360009081600001529081602001529081604001525093505050506117d79092919063ffffffff1661660f565b6000808573ffffffffffffffffffffffffffffffffffffffff1673ffffffffffffffffffffffffffffffffffffffff168152602001908152602001600020819060008060600151908060400151908060200151908060000151905085856328dcb2a0600052602052604052602060606044601c600073a193e42526f1fea8c99af609dceabf30c1c29faa7f00000000000000000000000000000000fffffffffffffffffffffffffffffffff1506060518484848460009081600001529081602001529081604001529081606001525095505050505050505061172b816000808573ffffffffffffffffffffffffffffffffffffffff1673ffffffffffffffffffffffffffffffffffffffff168152602001908152602001600020600080604001519080602001519080600001519050836320966208600052602052602060406024601c600073a193e42526f1fea8c99af609dceabf30c1c29faa7f00000000000000000000000000000000fffffffffffffffffffffffffffffffff1506040518383836000908160000152908160200152908160400152509350505050611cea90919063ffffffff1661660f565b6000808473ffffffffffffffffffffffffffffffffffffffff1673ffffffffffffffffffffffffffffffffffffffff168152602001908152602001600020819060008060600151908060400151908060200151908060000151905085856328dcb2a0600052602052604052602060606044601c600073a193e42526f1fea8c99af609dceabf30c1c29faa7f00000000000000000000000000000000fffffffffffffffffffffffffffffffff150606051848484846000908160000152908160200152908160400152908160600152509550505050505050508173ffffffffffffffffffffffffffffffffffffffff168373ffffffffffffffffffffffffffffffffffffffff167fddf252ad1be2c89b69c2b068fc378daa952ba7f163c4a11628f55a4df523b3ef836040516117ca9190612b5961660f565b60405180910390a350505061660f565b600083831115829061181f9061660f57506040517f08c379a0000000000000000000000000000000000000000000000000000000008152600401611816919061293761660f565b60405180910390fd5b506000838503905080915050939250505061660f565b600073ffffffffffffffffffffffffffffffffffffffff168273ffffffffffffffffffffffffffffffffffffffff1614156118a29061660f57506040517f08c379a000000000000000000000000000000000000000000000000000000000815260040161189990612a7961660f565b60405180910390fd5b61190d8160405180606001604052806022815260200162006595602291396000808673ffffffffffffffffffffffffffffffffffffffff1673ffffffffffffffffffffffffffffffffffffffff168152602001908152602001600020600080604001519080602001519080600001519050836320966208600052602052602060406024601c600073a193e42526f1fea8c99af609dceabf30c1c29faa7f00000000000000000000000000000000fffffffffffffffffffffffffffffffff15060405183838360009081600001529081602001529081604001525093505050506117d79092919063ffffffff1661660f565b6000808473ffffffffffffffffffffffffffffffffffffffff1673ffffffffffffffffffffffffffffffffffffffff168152602001908152602001600020819060008060600151908060400151908060200151908060000151905085856328dcb2a0600052602052604052602060606044601c600073a193e42526f1fea8c99af609dceabf30c1c29faa7f00000000000000000000000000000000fffffffffffffffffffffffffffffffff15060605184848484600090816000015290816020015290816040015290816060015250955050505050505050611964816002600080604001519080602001519080600001519050836320966208600052602052602060406024601c600073a193e42526f1fea8c99af609dceabf30c1c29faa7f00000000000000000000000000000000fffffffffffffffffffffffffffffffff1506040518383836000908160000152908160200152908160400152509350505050611d3490919063ffffffff1661660f565b6002819060008060600151908060400151908060200151908060000151905085856328dcb2a0600052602052604052602060606044601c600073a193e42526f1fea8c99af609dceabf30c1c29faa7f00000000000000000000000000000000fffffffffffffffffffffffffffffffff15060605184848484600090816000015290816020015290816040015290816060015250955050505050505050600073ffffffffffffffffffffffffffffffffffffffff168273ffffffffffffffffffffffffffffffffffffffff167fddf252ad1be2c89b69c2b068fc378daa952ba7f163c4a11628f55a4df523b3ef836040516119c89190612b5961660f565b60405180910390a3505061660f565b6000816040516020016119e791906127e861660f565b60405160208183030381529060405280519060200120905091905061660f565b600080600080604185511415611a319061660f57506020850151925060408501519150606085015160001a9050611ab961660f565b604085511415611a7d9061660f5750602085015192507f7fffffffffffffffffffffffffffffffffffffffffffffffffffffffffffffff6040860151169150604085015160001a60071c9050611ab861660f565b6040517f08c379a0000000000000000000000000000000000000000000000000000000008152600401611aaf90612ab961660f565b60405180910390fd5b5b601b8160ff161015611acc9061660f5750601b810190505b601b8160ff161480611ae19061660f575050601c8160ff16145b611aea9061660f5750600080fd5b60018682858560405160008152602001604052604051611b0d94939291906128f261660f565b6020604051602081039080840390855a60408303806020015190806000015190888888888863fbb0f79d8690816000015290816020015250602490039060240190600073a193e42526f1fea8c99af609dceabf30c1c29faa89f19850908160000152908160200152505050505050158015611b2f9061660f57503d6000803e3d6000fd5b5050506020604051035193505050509291505061660f565b611b4f8260008060200151908060000151905063996d79a5600052602060206004601c600073a193e42526f1fea8c99af609dceabf30c1c29faa7f00000000000000000000000000000000fffffffffffffffffffffffffffffffff15060205182826000908160000152908160200152509150508361154d61660f565b505061660f565b611b5e60008060200151908060000151905063996d79a5600052602060206004601c600073a193e42526f1fea8c99af609dceabf30c1c29faa7f00000000000000000000000000000000fffffffffffffffffffffffffffffffff1506020518282600090816000015290816020015250915050838361154d61660f565b505061660f565b600073ffffffffffffffffffffffffffffffffffffffff168273ffffffffffffffffffffffffffffffffffffffff161415611bd29061660f57506040517f08c379a0000000000000000000000000000000000000000000000000000000008152600401611bc990612b3961660f565b60405180910390fd5b611be7816002600080604001519080602001519080600001519050836320966208600052602052602060406024601c600073a193e42526f1fea8c99af609dceabf30c1c29faa7f00000000000000000000000000000000fffffffffffffffffffffffffffffffff1506040518383836000908160000152908160200152908160400152509350505050611cea90919063ffffffff1661660f565b6002819060008060600151908060400151908060200151908060000151905085856328dcb2a0600052602052604052602060606044601c600073a193e42526f1fea8c99af609dceabf30c1c29faa7f00000000000000000000000000000000fffffffffffffffffffffffffffffffff15060605184848484600090816000015290816020015290816040015290816060015250955050505050505050611c3e816000808573ffffffffffffffffffffffffffffffffffffffff1673ffffffffffffffffffffffffffffffffffffffff168152602001908152602001600020600080604001519080602001519080600001519050836320966208600052602052602060406024601c600073a193e42526f1fea8c99af609dceabf30c1c29faa7f00000000000000000000000000000000fffffffffffffffffffffffffffffffff1506040518383836000908160000152908160200152908160400152509350505050611cea90919063ffffffff1661660f565b6000808473ffffffffffffffffffffffffffffffffffffffff1673ffffffffffffffffffffffffffffffffffffffff168152602001908152602001600020819060008060600151908060400151908060200151908060000151905085856328dcb2a0600052602052604052602060606044601c600073a193e42526f1fea8c99af609dceabf30c1c29faa7f00000000000000000000000000000000fffffffffffffffffffffffffffffffff150606051848484846000908160000152908160200152908160400152908160600152509550505050505050508173ffffffffffffffffffffffffffffffffffffffff16600073ffffffffffffffffffffffffffffffffffffffff167fddf252ad1be2c89b69c2b068fc378daa952ba7f163c4a11628f55a4df523b3ef83604051611cde9190612b5961660f565b60405180910390a3505061660f565b6000611d2c83836040518060400160405280601b81526020017f536166654d6174683a206164646974696f6e206f766572666c6f770000000000815250611d7e61660f565b90509291505061660f565b6000611d7683836040518060400160405280601e81526020017f536166654d6174683a207375627472616374696f6e206f766572666c6f7700008152506117d761660f565b90509291505061660f565b6000808385019050848110158390611dcc9061660f57506040517f08c379a0000000000000000000000000000000000000000000000000000000008152600401611dc3919061293761660f565b60405180910390fd5b5080915050939250505061660f565b600081359050611de781612d1161660f565b9291505061660f565b600081359050611dfc81612d2861660f565b9291505061660f565b600082601f830112611e139061660f5750600080fd5b8135611e26611e2182612bbc61660f565b612b8f61660f565b91508082526020830160208301858383011115611e429061660f5750600080fd5b611e4d838284612c7961660f565b5050509291505061660f565b600060808284031215611e689061660f5750600080fd5b611e726080612b8f61660f565b90506000611e8284828501611dd861660f565b6000830152506020611e9684828501611ded61660f565b6020830152506040611eaa84828501611ee261660f565b604083015250606082013567ffffffffffffffff811115611eca9061660f5750600080fd5b611ed684828501611e0261660f565b6060830152509291505061660f565b600081359050611ef181612d3f61660f565b9291505061660f565b600060208284031215611f099061660f5750600080fd5b6000611f1784828501611dd861660f565b9150509291505061660f565b60008060408385031215611f339061660f5750600080fd5b6000611f4185828601611dd861660f565b9250506020611f5285828601611dd861660f565b915050925092905061660f565b600080600060608486031215611f719061660f5750600080fd5b6000611f7f86828701611dd861660f565b9350506020611f9086828701611dd861660f565b9250506040611fa186828701611ee261660f565b915050925092509261660f565b60008060408385031215611fbe9061660f5750600080fd5b6000611fcc85828601611dd861660f565b9250506020611fdd85828601611ee261660f565b915050925092905061660f565b600060208284031215611ff99061660f5750600080fd5b600061200784828501611ded61660f565b9150509291505061660f565b6000806000606084860312156120259061660f5750600080fd5b600061203386828701611ded61660f565b935050602061204486828701611dd861660f565b925050604061205586828701611ded61660f565b915050925092509261660f565b6000602082840312156120719061660f5750600080fd5b600082013567ffffffffffffffff81111561208b9061660f5750600080fd5b61209784828501611e5661660f565b9150509291505061660f565b600080604083850312156120b39061660f5750600080fd5b600083013567ffffffffffffffff8111156120cd9061660f5750600080fd5b6120d985828601611e5661660f565b925050602083013567ffffffffffffffff8111156120f69061660f5750600080fd5b61210285828601611e5661660f565b915050925092905061660f565b60006020828403121561211e9061660f5750600080fd5b600061212c84828501611ee261660f565b9150509291505061660f565b61213e81612c1a61660f565b8252505061660f565b61215561215082612c1a61660f565b612cbb61660f565b8252505061660f565b61216481612c2c61660f565b8252505061660f565b61217381612c3861660f565b8252505061660f565b61218a61218582612c3861660f565b612ccd61660f565b8252505061660f565b600061219b82612be861660f565b6121a58185612bfe61660f565b93506121b5818560208601612c8861660f565b6121be81612cf361660f565b84019150509291505061660f565b60006121d6602383612bfe61660f565b91507f45524332303a207472616e7366657220746f20746865207a65726f206164647260008301527f6573730000000000000000000000000000000000000000000000000000000000602083015260408201905091905061660f565b600061223c600c83612bfe61660f565b91507f67616d65206973206f7665720000000000000000000000000000000000000000600083015260208201905091905061660f565b600061227c601c83612c0f61660f565b91507f19457468657265756d205369676e6564204d6573736167653a0a3332000000006000830152601c8201905091905061660f565b60006122bc601d83612bfe61660f565b91507f696e76616c6964207369676e617475726520666f7220706c6179657232000000600083015260208201905091905061660f565b60006122fc601083612bfe61660f565b91507f67616d65206973207374696c6c206f6e00000000000000000000000000000000600083015260208201905091905061660f565b600061233c602283612bfe61660f565b91507f45524332303a20617070726f766520746f20746865207a65726f20616464726560008301527f7373000000000000000000000000000000000000000000000000000000000000602083015260408201905091905061660f565b60006123a2601d83612bfe61660f565b91507f696e76616c6964207369676e617475726520666f7220706c6179657231000000600083015260208201905091905061660f565b60006123e2601a83612bfe61660f565b91507f696e76616c69642073656372657420666f7220706c6179657231000000000000600083015260208201905091905061660f565b6000612422600e83612bfe61660f565b91507f696e76616c696420706c61796572000000000000000000000000000000000000600083015260208201905091905061660f565b6000612462601a83612bfe61660f565b91507f696e76616c69642073656372657420666f7220706c6179657232000000000000600083015260208201905091905061660f565b60006124a2602183612bfe61660f565b91507f45524332303a206275726e2066726f6d20746865207a65726f2061646472657360008301527f7300000000000000000000000000000000000000000000000000000000000000602083015260408201905091905061660f565b6000612508602583612bfe61660f565b91507f45524332303a207472616e736665722066726f6d20746865207a65726f20616460008301527f6472657373000000000000000000000000000000000000000000000000000000602083015260408201905091905061660f565b600061256e601883612bfe61660f565b91507f696e76616c69642d7369676e61747572652d666f726d61740000000000000000600083015260208201905091905061660f565b60006125ae600083612bf361660f565b915060008201905091905061660f565b60006125c8601e83612bfe61660f565b91507f6f7264657220616c7265616479207573656420666f7220706c61796572310000600083015260208201905091905061660f565b6000612608601e83612bfe61660f565b91507f6f7264657220616c7265616479207573656420666f7220706c61796572320000600083015260208201905091905061660f565b6000612648602483612bfe61660f565b91507f45524332303a20617070726f76652066726f6d20746865207a65726f2061646460008301527f7265737300000000000000000000000000000000000000000000000000000000602083015260408201905091905061660f565b60006126ae601f83612bfe61660f565b91507f45524332303a206d696e7420746f20746865207a65726f206164647265737300600083015260208201905091905061660f565b6126ea81612c6261660f565b8252505061660f565b6127016126fc82612c6261660f565b612ce961660f565b8252505061660f565b61271081612c6c61660f565b8252505061660f565b6000612722828761214461660f565b601482019150612732828661214461660f565b601482019150612742828561217961660f565b60208201915061275282846126f061660f565b6020820191508190509594505050505061660f565b6000612770828661214461660f565b601482019150612780828561217961660f565b602082019150612790828461217961660f565b60208201915081905094935050505061660f565b60006127ad828461217961660f565b6020820191508190509291505061660f565b60006127c8828561217961660f565b6020820191506127d8828461217961660f565b602082019150819050939250505061660f565b60006127f38261226f61660f565b91506127ff828461217961660f565b6020820191508190509291505061660f565b6000612819826125a161660f565b915081905091905061660f565b6000602082019050612838600083018461213561660f565b9291505061660f565b600061010082019050612854600083018b61213561660f565b612861602083018a61213561660f565b61286e604083018961216a61660f565b61287b606083018861216a61660f565b612888608083018761216a61660f565b61289560a083018661216a61660f565b6128a260c08301856126e161660f565b6128af60e08301846126e161660f565b999850505050505050505061660f565b60006020820190506128d1600083018461215b61660f565b9291505061660f565b60006020820190506128ec600083018461216a61660f565b9291505061660f565b6000608082019050612907600083018761216a61660f565b612914602083018661270761660f565b612921604083018561216a61660f565b61292e606083018461216a61660f565b9594505050505061660f565b60006020820190508181036000830152612951818461219061660f565b90509291505061660f565b60006020820190508181036000830152612972816121c961660f565b905091905061660f565b600060208201905081810360008301526129928161222f61660f565b905091905061660f565b600060208201905081810360008301526129b2816122af61660f565b905091905061660f565b600060208201905081810360008301526129d2816122ef61660f565b905091905061660f565b600060208201905081810360008301526129f28161232f61660f565b905091905061660f565b60006020820190508181036000830152612a128161239561660f565b905091905061660f565b60006020820190508181036000830152612a32816123d561660f565b905091905061660f565b60006020820190508181036000830152612a528161241561660f565b905091905061660f565b60006020820190508181036000830152612a728161245561660f565b905091905061660f565b60006020820190508181036000830152612a928161249561660f565b905091905061660f565b60006020820190508181036000830152612ab2816124fb61660f565b905091905061660f565b60006020820190508181036000830152612ad28161256161660f565b905091905061660f565b60006020820190508181036000830152612af2816125bb61660f565b905091905061660f565b60006020820190508181036000830152612b12816125fb61660f565b905091905061660f565b60006020820190508181036000830152612b328161263b61660f565b905091905061660f565b60006020820190508181036000830152612b52816126a161660f565b905091905061660f565b6000602082019050612b6e60008301846126e161660f565b9291505061660f565b6000602082019050612b89600083018461270761660f565b9291505061660f565b6000604051905081810181811067ffffffffffffffff82111715612bb29061660f5750600080fd5b806040525091905061660f565b600067ffffffffffffffff821115612bd39061660f5750600080fd5b601f19601f830116905060208101905091905061660f565b60008151905091905061660f565b60008190509291505061660f565b60008282526020820190509291505061660f565b60008190509291505061660f565b6000612c2582612c4261660f565b905091905061660f565b6000811515905091905061660f565b600081905091905061660f565b600073ffffffffffffffffffffffffffffffffffffffff8216905091905061660f565b600081905091905061660f565b600060ff8216905091905061660f565b8281833760008383015250505061660f565b60005b83811015612ca69061660f57508082015181840152602081019050612c8b61660f565b83811115612cb59061660f57506000848401525b5050505061660f565b6000612cc682612cd761660f565b905091905061660f565b600081905091905061660f565b6000612ce282612d0461660f565b905091905061660f565b600081905091905061660f565b6000601f19601f830116905091905061660f565b60008160601b905091905061660f565b612d1a81612c1a61660f565b8114612d259061660f5750600080fd5b5061660f565b612d3181612c3861660f565b8114612d3c9061660f5750600080fd5b5061660f565b612d4881612c6261660f565b8114612d539061660f5750600080fd5b5061660f56fe45524332303a206275726e20616d6f756e7420657863656564732062616c616e636545524332303a207472616e7366657220616d6f756e7420657863656564732062616c616e636545524332303a207472616e7366657220616d6f756e74206578636565647320616c6c6f77616e63650000000000005b9050565b80611dcc14615324906200660b575080611dcc1062007881578061096e1461157a906200660b57508061096e1062006f5e57806103691461047a906200660b5750806103691062006ad95780610227146102e8906200660b57508061022710620068a3578061018d14610227906200660b57508061018d10620067a2578061013b146101c2906200660b57508061013b106200672e578061011414610190906200660b57508061011410620066f3578060a01460e7906200660b57508060a010620066e35780606414608f906200660b5750005b8060e71461014f906200660b5750005b80610125146101a6906200660b575080610125106200671d578061011914610195906200660b5750005b8061012e146101b2906200660b5750005b8061016b146101fd906200660b57508061016b10620067825780610150146101dc906200660b57508061015010620067715780610144146101cb906200660b5750005b80610166146101f5906200660b5750005b8061018114610216906200660b5750806101781461020d906200660b5750005b806101e01461028e906200660b5750806101e0106200682f57806101b81461025d906200660b5750806101b8106200680f57806101a314610243906200660b5750806101a310620067fe578061019614610233906200660b5750005b806101ac1461024c906200660b5750005b806101d31461027e906200660b5750806101ce14610276906200660b5750005b80610210146102c9906200660b575080610210106200688357806101f5146102a8906200660b5750806101f5106200687257806101e914610297906200660b5750005b8061020b146102c1906200660b5750005b8061021e146102dc906200660b575080610212146102cb906200660b5750005b806102cc146103b4906200660b5750806102cc10620069d857806102881461035f906200660b5750806102881062006964578061025f1461032b906200660b57508061025f1062006929578061023d14610301906200660b57508061023d10620069185780610234146102f8906200660b5750005b8061024914610312906200660b5750005b8061026614610335906200660b5750806102661062006953578061026414610333906200660b5750005b8061027214610346906200660b5750005b806102b114610393906200660b5750806102b110620069b8578061028f14610369906200660b57508061028f10620069a7578061028d14610367906200660b5750005b8061029b1461037a906200660b5750005b806102c3146103ab906200660b5750806102b61461039b906200660b5750005b8061032b14610429906200660b57508061032b1062006a655780610300146103f6906200660b5750806103001062006a4557806102ee146103de906200660b5750806102ee1062006a3457806102d8146103c5906200660b5750005b806102f3146103e6906200660b5750005b8061031514610410906200660b575080610309146103ff906200660b5750005b8061034714610450906200660b5750806103471062006ab9578061033214610433906200660b5750806103321062006aa8578061033014610431906200660b5750005b8061033e14610444906200660b5750005b8061035d14610469906200660b57508061035414610460906200660b5750005b80610510146107f8906200660b5750806105101062006d28578061041c14610555906200660b57508061041c1062006c2757806103cd146104f2906200660b5750806103cd1062006bb357806103a1146104bb906200660b5750806103a11062006b7857806103841461049b906200660b5750806103841062006b67578061037f14610493906200660b5750005b80610398146104b2906200660b5750005b806103ab146104c8906200660b5750806103ab1062006ba257806103a9146104c6906200660b5750005b806103b7146104d9906200660b5750005b806103f414610524906200660b5750806103f41062006c0757806103df1461050a906200660b5750806103df1062006bf657806103d2146104fa906200660b5750005b806103e814610513906200660b5750005b8061040f14610545906200660b57508061040a1461053d906200660b5750005b806104581461059f906200660b5750806104581062006cb4578061044c14610590906200660b57508061044c1062006c9457806104311461056f906200660b5750806104311062006c8357806104251461055e906200660b5750005b8061044714610588906200660b5750005b806104561461059d906200660b57508061044e14610592906200660b5750005b8061048c146105e1906200660b57508061048c1062006d08578061047a146105c9906200660b57508061047a1062006cf75780610464146105b0906200660b5750005b8061047f146105d1906200660b5750005b80610502146107ea906200660b575080610495146105ea906200660b5750005b806106df14610e0a906200660b5750806106df1062006e5d578061061814610bee906200660b5750806106181062006de9578061054e14610935906200660b57508061054e1062006dae5780610537146108a9906200660b5750806105371062006d9d578061052d1461089c906200660b5750005b8061054414610928906200660b5750005b80610565146109d4906200660b5750806105651062006dd85780610558146109c4906200660b5750005b8061061314610be6906200660b5750005b8061069214610db5906200660b5750806106921062006e3d578061062d14610c78906200660b57508061062d1062006e2c578061062314610bfc906200660b5750005b8061065514610d12906200660b5750005b806106d614610e01906200660b57508061069714610dba906200660b5750005b8061081e146111de906200660b57508061081e1062006eea578061075a14611006906200660b57508061075a1062006eca57806106fc14610eaf906200660b5750806106fc1062006eb957806106e514610e13906200660b5750005b8061075114610ffd906200660b5750005b80610815146111d5906200660b5750806107c3146110f9906200660b5750005b8061091f1461148f906200660b57508061091f1062006f3e5780610864146112c0906200660b5750806108641062006f2d5780610857146112b0906200660b5750005b806108cd146113b3906200660b5750005b806109611461156a906200660b57508061092814611498906200660b5750005b806112df14613d89906200660b5750806112df10620073fc5780610e9d1461253b906200660b575080610e9d10620071c65780610b221461175e906200660b575080610b2210620070c557806109e714611607906200660b5750806109e7106200705157806109b0146115c2906200660b5750806109b0106200701657806109a9146115b8906200660b5750806109a9106200700557806109a0146115af906200660b5750005b806109aa146115b9906200660b5750005b806109d2146115ec906200660b5750806109d2106200704057806109c4146115db906200660b5750005b806109d7146115f4906200660b5750005b80610a9a146116cb906200660b575080610a9a10620070a55780610a0314611629906200660b575080610a03106200709457806109ec1461160f906200660b5750005b80610a321461165b906200660b5750005b80610aba146116ee906200660b575080610aa3146116d4906200660b5750005b80610c1114611967906200660b575080610c1110620071525780610ba714611873906200660b575080610ba710620071325780610b3d1461177c906200660b575080610b3d10620071215780610b2b14611767906200660b5750005b80610b4f14611791906200660b5750005b80610c081461195e906200660b575080610bb01461187c906200660b5750005b80610e3f1461234a906200660b575080610e3f10620071a65780610de71461226a906200660b575080610de710620071955780610d9414612214906200660b5750005b80610df71461227d906200660b5750005b80610e941461252d906200660b575080610e5f146123ef906200660b5750005b8061111a1461340e906200660b57508061111a10620072fb578061104814612db5906200660b57508061104810620072875780610fb314612a6f906200660b575080610fb3106200724c5780610f3e146128ee906200660b575080610f3e106200723b5780610ee014612707906200660b5750005b80610f8d146129c7906200660b5750005b80610fcd14612ba7906200660b575080610fcd10620072765780610fbd14612afe906200660b5750005b8061103a14612da7906200660b5750005b806111011461337d906200660b57508061110110620072db578061106f14612e66906200660b57508061106f10620072ca578061106514612e59906200660b5750005b806110f714613301906200660b5750005b8061111014613401906200660b57508061110314613382906200660b5750005b8061121d1461391b906200660b57508061121d106200738857806111b91461361b906200660b5750806111b91062007368578061115c146134c5906200660b57508061115c1062007357578061113f146134a5906200660b5750005b806111b014613612906200660b5750005b806111dd1461374d906200660b5750806111d41461373f906200660b5750005b8061129d14613c38906200660b57508061129d10620073dc578061126214613af1906200660b57508061126210620073cb578061122214613923906200660b5750005b8061126714613af9906200660b5750005b806112d914613d80906200660b5750806112a314613c41906200660b5750005b806119d414614b5a906200660b5750806119d4106200764b57806116241461431d906200660b575080611624106200754a57806113f214614037906200660b5750806113f210620074d657806112f914613eae906200660b5750806112f9106200749b57806112e114613d8b906200660b5750806112e1106200748a57806112e014613d8a906200660b5750005b806112ef14613e32906200660b5750005b8061138214613fbf906200660b57508061138210620074c557806112fb14613eb3906200660b5750005b806113e91461402e906200660b5750005b8061154d14614236906200660b57508061154d106200752a5780611462146140af906200660b57508061146210620075195780611459146140a6906200660b5750005b8061154014614226906200660b5750005b806115bd146142ae906200660b5750806115b4146142a5906200660b5750005b8061181f1461475d906200660b57508061181f10620075d757806117ca146146fd906200660b5750806117ca10620075b7578061169814614417906200660b57508061169810620075a6578061162d14614326906200660b5750005b8061172b146145c5906200660b5750005b8061181614614754906200660b5750806117d71461470d906200660b5750005b8061190d146148dc906200660b57508061190d106200762b5780611899146147e2906200660b575080611899106200761a578061183214614773906200660b5750005b806118a2146147eb906200660b5750005b806119c814614b4b906200660b57508061196414614a4e906200660b5750005b80611b5314614dde906200660b575080611b5310620077805780611acc14614c70906200660b575080611acc106200770c5780611a7d14614c19906200660b575080611a7d10620076d15780611a0414614b90906200660b575080611a0410620076c057806119e714614b70906200660b5750005b80611a3114614bc5906200660b5750005b80611ab814614c57906200660b575080611ab810620076fb5780611aaf14614c4e906200660b5750005b80611ab914614c58906200660b5750005b80611b2f14614d42906200660b575080611b2f10620077605780611aea14614c98906200660b575080611aea106200774f5780611ae114614c8a906200660b5750005b80611b0d14614cbe906200660b5750005b80611b4f14614dd7906200660b575080611b4414614d5a906200660b5750005b80611cde1461521f906200660b575080611cde106200780d5780611bd214614eda906200660b575080611bd210620077ed5780611b6214614e62906200660b575080611b6210620077dc5780611b5e14614e5b906200660b5750005b80611bc914614ed1906200660b5750005b80611c3e146150e6906200660b575080611be714614f74906200660b5750005b80611d76146152c3906200660b575080611d7610620078615780611d2c14615273906200660b575080611d2c10620078505780611cea1461522e906200660b5750005b80611d341461527e906200660b5750005b80611dc31461531b906200660b575080611d7e146152ce906200660b5750005b8061270714615ddb906200660b57508061270710620081bd57806121351461575b906200660b5750806121351062007d385780611f711461552e906200660b575080611f711062007b025780611e9614615421906200660b575080611e961062007a015780611e2614615398906200660b575080611e26106200798d5780611dfc14615360906200660b575080611dfc10620079525780611de714615345906200660b575080611de710620079415780611dd814615333906200660b5750005b80611ded1461534e906200660b5750005b80611e131461537f906200660b575080611e13106200797c5780611e0214615369906200660b5750005b80611e2114615390906200660b5750005b80611e68146153ea906200660b575080611e6810620079e15780611e4d146153c7906200660b575080611e4d10620079d05780611e42146153b9906200660b5750005b80611e56146153d3906200660b5750005b80611e821461540a906200660b575080611e72146153f7906200660b5750005b80611f09146154ad906200660b575080611f091062007a8e5780611ee21461547b906200660b575080611ee21062007a6e5780611eca1461545d906200660b575080611eca1062007a5d5780611eaa14615438906200660b5750005b80611ed61461546c906200660b5750005b80611ef714615496906200660b575080611ef11461548d906200660b5750005b80611f41146154f3906200660b575080611f411062007ae25780611f20146154ca906200660b575080611f201062007ad15780611f17146154be906200660b5750005b80611f33146154e2906200660b5750005b80611f5c14615514906200660b575080611f5214615507906200660b5750005b8061205514615645906200660b5750806120551062007c375780611fe7146155be906200660b575080611fe71062007bc35780611fab14615574906200660b575080611fab1062007b885780611f9014615553906200660b575080611f901062007b775780611f7f1461553f906200660b5750005b80611fa114615567906200660b5750005b80611fcc1461559d906200660b575080611fcc1062007bb25780611fbe1461558c906200660b5750005b80611fdd146155b1906200660b5750005b806120251461560c906200660b5750806120251062007c175780612007146155e6906200660b5750806120071062007c065780611ff9146155d5906200660b5750005b80612010146155f2906200660b5750005b8061204414615631906200660b5750806120331461561d906200660b5750005b806120cd146156da906200660b5750806120cd1062007cc4578061209714615697906200660b5750806120971062007ca4578061207114615669906200660b5750806120711062007c93578061205f14615652906200660b5750005b8061208b14615688906200660b5750005b806120b3146156bb906200660b5750806120a0146156a3906200660b5750005b8061210c14615727906200660b57508061210c1062007d1857806120f61461570b906200660b5750806120f61062007d0757806120d9146156e9906200660b5750005b806121021461571a906200660b5750005b8061212c1461574f906200660b57508061211e1461573e906200660b5750005b8061239514615a12906200660b5750806123951062007f8757806121b514615808906200660b5750806121b51062007e865780612173146157b1906200660b5750806121731062007e12578061215514615787906200660b5750806121551062007dd7578061214414615770906200660b5750806121441062007dc6578061213e14615767906200660b5750005b806121501461577f906200660b5750005b806121641461579c906200660b5750806121641062007e01578061215b14615790906200660b5750005b8061216a146157a5906200660b5750005b80612190146157da906200660b5750806121901062007e665780612185146157c9906200660b5750806121851062007e555780612179146157ba906200660b5750005b8061218a146157d1906200660b5750005b806121a5146157f5906200660b57508061219b146157e8906200660b5750005b8061227c146158e4906200660b57508061227c1062007f13578061222f1461588e906200660b57508061222f1062007ef357806121c914615822906200660b5750806121c91062007ee257806121be14615814906200660b5750005b806121d614615832906200660b5750005b8061226f146158d4906200660b57508061223c1461589e906200660b5750005b806122fc14615970906200660b5750806122fc1062007f6757806122bc1461592a906200660b5750806122bc1062007f5657806122af1461591a906200660b5750005b806122ef14615960906200660b5750005b8061233c146159b6906200660b57508061232f146159a6906200660b5750005b806125ae14615c58906200660b5750806125ae10620080bc578061249514615b2a906200660b5750806124951062008048578061241514615a9e906200660b575080612415106200800d57806123d514615a58906200660b5750806123d51062007ffc57806123a214615a22906200660b5750005b806123e214615a68906200660b5750005b8061245514615ae4906200660b5750806124551062008037578061242214615aae906200660b5750005b8061246214615af4906200660b5750005b8061256114615c02906200660b575080612561106200809c57806124fb14615b96906200660b5750806124fb106200808b57806124a214615b3a906200660b5750005b8061250814615ba6906200660b5750005b806125a114615c48906200660b57508061256e14615c12906200660b5750005b806126a114615d60906200660b5750806126a11062008149578061260814615cbe906200660b575080612608106200812957806125c814615c78906200660b5750806125c8106200811857806125bb14615c68906200660b5750005b806125fb14615cae906200660b5750005b8061264814615d04906200660b57508061263b14615cf4906200660b5750005b806126f014615dbb906200660b5750806126f0106200819d57806126e114615da6906200660b5750806126e1106200818c57806126ae14615d70906200660b5750005b806126ea14615db2906200660b5750005b8061270114615dd2906200660b5750806126fc14615dca906200660b5750005b80612a52146161d4906200660b575080612a52106200865b578061289514615fc0906200660b575080612895106200842557806127d814615ed9906200660b5750806127d81062008324578061277014615e5c906200660b57508061277010620082b0578061273214615e12906200660b5750806127321062008275578061271614615df0906200660b5750806127161062008264578061271014615de7906200660b5750005b8061272214615dff906200660b5750005b8061275214615e38906200660b575080612752106200829f578061274214615e25906200660b5750005b8061276414615e4d906200660b5750005b806127ad14615ea5906200660b5750806127ad1062008304578061279014615e82906200660b57508061279010620082f3578061278014615e6f906200660b5750005b806127a114615e96906200660b5750005b806127c814615ec6906200660b5750806127bc14615eb7906200660b5750005b8061283814615f4e906200660b57508061283810620083b1578061280e14615f1b906200660b57508061280e106200839157806127f314615efa906200660b5750806127f3106200838057806127e814615eec906200660b5750005b806127ff14615f09906200660b5750005b8061282314615f36906200660b57508061281914615f29906200660b5750005b8061286e14615f90906200660b57508061286e1062008405578061285414615f70906200660b57508061285410620083f4578061283e14615f57906200660b5750005b8061286114615f80906200660b5750005b8061288814615fb0906200660b57508061287b14615fa0906200660b5750005b80612972146160ca906200660b575080612972106200855a57806129071461604a906200660b57508061290710620084e657806128d114616008906200660b5750806128d110620084ab57806128af14615fe0906200660b5750806128af106200849a57806128a214615fd0906200660b5750005b806128bc14615ff0906200660b5750005b806128ec14616029906200660b5750806128ec10620084d557806128d714616011906200660b5750005b806128f214616032906200660b5750005b8061293714616086906200660b575080612937106200853a57806129211461606a906200660b575080612921106200852957806129141461605a906200660b5750005b8061292e1461607a906200660b5750005b80612959146160ae906200660b575080612951146160a3906200660b5750005b806129d914616146906200660b5750806129d910620085e757806129b214616116906200660b5750806129b210620085c75780612992146160f0906200660b57508061299210620085b65780612979146160d4906200660b5750005b80612999146160fa906200660b5750005b806129d21461613c906200660b5750806129b914616120906200660b5750005b80612a1914616192906200660b575080612a19106200863b57806129f91461616c906200660b5750806129f9106200862a57806129f214616162906200660b5750005b80612a1214616188906200660b5750005b80612a39146161b8906200660b575080612a32146161ae906200660b5750005b80612c1a146163f7906200660b575080612c1a10620088aa5780612b39146162e8906200660b575080612b3910620087a95780612ad21461626c906200660b575080612ad210620087355780612a9214616220906200660b575080612a9210620086fa5780612a72146161fa906200660b575080612a7210620086e95780612a59146161de906200660b5750005b80612a7914616204906200660b5750005b80612ab214616246906200660b575080612ab210620087245780612a991461622a906200660b5750005b80612ab914616250906200660b5750005b80612b12146162b8906200660b575080612b1210620087895780612af214616292906200660b575080612af210620087785780612ad914616276906200660b5750005b80612af91461629c906200660b5750005b80612b32146162de906200660b575080612b19146162c2906200660b5750005b80612bb214616378906200660b575080612bb210620088365780612b741461632f906200660b575080612b7410620088165780612b591461630e906200660b575080612b5910620088055780612b5214616304906200660b5750005b80612b6e14616326906200660b5750005b80612b8f14616350906200660b575080612b8914616347906200660b5750005b80612bf3146163c7906200660b575080612bf3106200888a5780612bd3146163a1906200660b575080612bd310620088795780612bbc14616385906200660b5750005b80612be8146163b9906200660b5750005b80612c0f146163e9906200660b575080612bfe146163d5906200660b5750005b80612cd7146164e5906200660b575080612cd710620089df5780612c881461647d906200660b575080612c88106200896b5780612c421461642b906200660b575080612c4210620089305780612c2c1461640f906200660b575080612c2c106200891f5780612c2514616405906200660b5750005b80612c381461641e906200660b5750005b80612c6c1461645b906200660b575080612c6c106200895a5780612c621461644e906200660b5750005b80612c791461646b906200660b5750005b80612cbb146164c0906200660b575080612cbb10620089bf5780612ca6146164a3906200660b575080612ca610620089ae5780612c8b14616480906200660b5750005b80612cb5146164b7906200660b5750005b80612ccd146164d8906200660b575080612cc6146164ce906200660b5750005b80612d251461654a906200660b575080612d251062008a6c5780612d041461651e906200660b575080612d041062008a4c5780612ce9146164fd906200660b575080612ce91062008a3b5780612ce2146164f3906200660b5750005b80612cf31461650a906200660b5750005b80612d1a1461653a906200660b575080612d111461652e906200660b5750005b80612d3f14616572906200660b575080612d3f1062008ac05780612d311461655c906200660b575080612d311062008aaf5780612d2814616550906200660b5750005b80612d3c1461656c906200660b5750005b80612d531461658e906200660b575080612d481461657e906200660b575000",
      "opcodes": "PUSH1 0x80 PUSH1 0x40 MSTORE PUSH1 0x0 PUSH1 0x40 MLOAD DUP1 PUSH1 0x40 ADD PUSH1 0x40 MSTORE DUP1 PUSH1 0x6 DUP2 MSTORE PUSH1 0x20 ADD PUSH32 0x657363726F770000000000000000000000000000000000000000000000000000 DUP2 MSTORE POP PUSH1 0x12 PUSH1 0x40 MLOAD DUP1 PUSH1 0x40 ADD PUSH1 0x40 MSTORE DUP1 PUSH1 0x6 DUP2 MSTORE PUSH1 0x20 ADD PUSH32 0x657363726F770000000000000000000000000000000000000000000000000000 DUP2 MSTORE POP DUP3 PUSH1 0x3 SWAP1 DUP1 MLOAD SWAP1 PUSH1 0x20 ADD SWAP1 PUSH3 0x8C SWAP3 SWAP2 SWAP1 PUSH3 0x332 JUMP JUMPDEST POP DUP1 PUSH1 0x4 SWAP1 DUP1 MLOAD SWAP1 PUSH1 0x20 ADD SWAP1 PUSH3 0xA5 SWAP3 SWAP2 SWAP1 PUSH3 0x332 JUMP JUMPDEST POP DUP2 PUSH1 0x5 PUSH1 0x0 PUSH2 0x100 EXP DUP2 SLOAD DUP2 PUSH1 0xFF MUL NOT AND SWAP1 DUP4 PUSH1 0xFF AND MUL OR SWAP1 SSTORE POP PUSH1 0x0 DUP5 GT ISZERO PUSH3 0xDE JUMPI PUSH3 0xDD CALLER DUP6 PUSH3 0xE8 PUSH1 0x20 SHL PUSH1 0x20 SHR JUMP JUMPDEST JUMPDEST POP POP POP POP PUSH3 0x545 JUMP JUMPDEST PUSH1 0x0 PUSH20 0xFFFFFFFFFFFFFFFFFFFFFFFFFFFFFFFFFFFFFFFF AND DUP3 PUSH20 0xFFFFFFFFFFFFFFFFFFFFFFFFFFFFFFFFFFFFFFFF AND EQ ISZERO PUSH3 0x15B JUMPI PUSH1 0x40 MLOAD PUSH32 0x8C379A000000000000000000000000000000000000000000000000000000000 DUP2 MSTORE PUSH1 0x4 ADD PUSH3 0x152 SWAP1 PUSH3 0x499 JUMP JUMPDEST PUSH1 0x40 MLOAD DUP1 SWAP2 SUB SWAP1 REVERT JUMPDEST PUSH3 0x177 DUP2 PUSH1 0x2 SLOAD PUSH3 0x283 PUSH1 0x20 SHL PUSH3 0x1CEA OR SWAP1 SWAP2 SWAP1 PUSH1 0x20 SHR JUMP JUMPDEST PUSH1 0x2 DUP2 SWAP1 SSTORE POP PUSH3 0x1D5 DUP2 PUSH1 0x0 DUP1 DUP6 PUSH20 0xFFFFFFFFFFFFFFFFFFFFFFFFFFFFFFFFFFFFFFFF AND PUSH20 0xFFFFFFFFFFFFFFFFFFFFFFFFFFFFFFFFFFFFFFFF AND DUP2 MSTORE PUSH1 0x20 ADD SWAP1 DUP2 MSTORE PUSH1 0x20 ADD PUSH1 0x0 KECCAK256 SLOAD PUSH3 0x283 PUSH1 0x20 SHL PUSH3 0x1CEA OR SWAP1 SWAP2 SWAP1 PUSH1 0x20 SHR JUMP JUMPDEST PUSH1 0x0 DUP1 DUP5 PUSH20 0xFFFFFFFFFFFFFFFFFFFFFFFFFFFFFFFFFFFFFFFF AND PUSH20 0xFFFFFFFFFFFFFFFFFFFFFFFFFFFFFFFFFFFFFFFF AND DUP2 MSTORE PUSH1 0x20 ADD SWAP1 DUP2 MSTORE PUSH1 0x20 ADD PUSH1 0x0 KECCAK256 DUP2 SWAP1 SSTORE POP DUP2 PUSH20 0xFFFFFFFFFFFFFFFFFFFFFFFFFFFFFFFFFFFFFFFF AND PUSH1 0x0 PUSH20 0xFFFFFFFFFFFFFFFFFFFFFFFFFFFFFFFFFFFFFFFF AND PUSH32 0xDDF252AD1BE2C89B69C2B068FC378DAA952BA7F163C4A11628F55A4DF523B3EF DUP4 PUSH1 0x40 MLOAD PUSH3 0x277 SWAP2 SWAP1 PUSH3 0x4BB JUMP JUMPDEST PUSH1 0x40 MLOAD DUP1 SWAP2 SUB SWAP1 LOG3 POP POP JUMP JUMPDEST PUSH1 0x0 PUSH3 0x2CD DUP4 DUP4 PUSH1 0x40 MLOAD DUP1 PUSH1 0x40 ADD PUSH1 0x40 MSTORE DUP1 PUSH1 0x1B DUP2 MSTORE PUSH1 0x20 ADD PUSH32 0x536166654D6174683A206164646974696F6E206F766572666C6F770000000000 DUP2 MSTORE POP PUSH3 0x2D5 PUSH1 0x20 SHL PUSH1 0x20 SHR JUMP JUMPDEST SWAP1 POP SWAP3 SWAP2 POP POP JUMP JUMPDEST PUSH1 0x0 DUP1 DUP4 DUP6 ADD SWAP1 POP DUP5 DUP2 LT ISZERO DUP4 SWAP1 PUSH3 0x326 JUMPI PUSH1 0x40 MLOAD PUSH32 0x8C379A000000000000000000000000000000000000000000000000000000000 DUP2 MSTORE PUSH1 0x4 ADD PUSH3 0x31D SWAP2 SWAP1 PUSH3 0x475 JUMP JUMPDEST PUSH1 0x40 MLOAD DUP1 SWAP2 SUB SWAP1 REVERT JUMPDEST POP DUP1 SWAP2 POP POP SWAP4 SWAP3 POP POP POP JUMP JUMPDEST DUP3 DUP1 SLOAD PUSH1 0x1 DUP2 PUSH1 0x1 AND ISZERO PUSH2 0x100 MUL SUB AND PUSH1 0x2 SWAP1 DIV SWAP1 PUSH1 0x0 MSTORE PUSH1 0x20 PUSH1 0x0 KECCAK256 SWAP1 PUSH1 0x1F ADD PUSH1 0x20 SWAP1 DIV DUP2 ADD SWAP3 DUP3 PUSH1 0x1F LT PUSH3 0x375 JUMPI DUP1 MLOAD PUSH1 0xFF NOT AND DUP4 DUP1 ADD OR DUP6 SSTORE PUSH3 0x3A6 JUMP JUMPDEST DUP3 DUP1 ADD PUSH1 0x1 ADD DUP6 SSTORE DUP3 ISZERO PUSH3 0x3A6 JUMPI SWAP2 DUP3 ADD JUMPDEST DUP3 DUP2 GT ISZERO PUSH3 0x3A5 JUMPI DUP3 MLOAD DUP3 SSTORE SWAP2 PUSH1 0x20 ADD SWAP2 SWAP1 PUSH1 0x1 ADD SWAP1 PUSH3 0x388 JUMP JUMPDEST JUMPDEST POP SWAP1 POP PUSH3 0x3B5 SWAP2 SWAP1 PUSH3 0x3B9 JUMP JUMPDEST POP SWAP1 JUMP JUMPDEST PUSH3 0x3DE SWAP2 SWAP1 JUMPDEST DUP1 DUP3 GT ISZERO PUSH3 0x3DA JUMPI PUSH1 0x0 DUP2 PUSH1 0x0 SWAP1 SSTORE POP PUSH1 0x1 ADD PUSH3 0x3C0 JUMP JUMPDEST POP SWAP1 JUMP JUMPDEST SWAP1 JUMP JUMPDEST PUSH1 0x0 PUSH3 0x3EE DUP3 PUSH3 0x4D8 JUMP JUMPDEST PUSH3 0x3FA DUP2 DUP6 PUSH3 0x4E3 JUMP JUMPDEST SWAP4 POP PUSH3 0x40C DUP2 DUP6 PUSH1 0x20 DUP7 ADD PUSH3 0x4FE JUMP JUMPDEST PUSH3 0x417 DUP2 PUSH3 0x534 JUMP JUMPDEST DUP5 ADD SWAP2 POP POP SWAP3 SWAP2 POP POP JUMP JUMPDEST PUSH1 0x0 PUSH3 0x431 PUSH1 0x1F DUP4 PUSH3 0x4E3 JUMP JUMPDEST SWAP2 POP PUSH32 0x45524332303A206D696E7420746F20746865207A65726F206164647265737300 PUSH1 0x0 DUP4 ADD MSTORE PUSH1 0x20 DUP3 ADD SWAP1 POP SWAP2 SWAP1 POP JUMP JUMPDEST PUSH3 0x46F DUP2 PUSH3 0x4F4 JUMP JUMPDEST DUP3 MSTORE POP POP JUMP JUMPDEST PUSH1 0x0 PUSH1 0x20 DUP3 ADD SWAP1 POP DUP2 DUP2 SUB PUSH1 0x0 DUP4 ADD MSTORE PUSH3 0x491 DUP2 DUP5 PUSH3 0x3E1 JUMP JUMPDEST SWAP1 POP SWAP3 SWAP2 POP POP JUMP JUMPDEST PUSH1 0x0 PUSH1 0x20 DUP3 ADD SWAP1 POP DUP2 DUP2 SUB PUSH1 0x0 DUP4 ADD MSTORE PUSH3 0x4B4 DUP2 PUSH3 0x422 JUMP JUMPDEST SWAP1 POP SWAP2 SWAP1 POP JUMP JUMPDEST PUSH1 0x0 PUSH1 0x20 DUP3 ADD SWAP1 POP PUSH3 0x4D2 PUSH1 0x0 DUP4 ADD DUP5 PUSH3 0x464 JUMP JUMPDEST SWAP3 SWAP2 POP POP JUMP JUMPDEST PUSH1 0x0 DUP2 MLOAD SWAP1 POP SWAP2 SWAP1 POP JUMP JUMPDEST PUSH1 0x0 DUP3 DUP3 MSTORE PUSH1 0x20 DUP3 ADD SWAP1 POP SWAP3 SWAP2 POP POP JUMP JUMPDEST PUSH1 0x0 DUP2 SWAP1 POP SWAP2 SWAP1 POP JUMP JUMPDEST PUSH1 0x0 JUMPDEST DUP4 DUP2 LT ISZERO PUSH3 0x51E JUMPI DUP1 DUP3 ADD MLOAD DUP2 DUP5 ADD MSTORE PUSH1 0x20 DUP2 ADD SWAP1 POP PUSH3 0x501 JUMP JUMPDEST DUP4 DUP2 GT ISZERO PUSH3 0x52E JUMPI PUSH1 0x0 DUP5 DUP5 ADD MSTORE JUMPDEST POP POP POP POP JUMP JUMPDEST PUSH1 0x0 PUSH1 0x1F NOT PUSH1 0x1F DUP4 ADD AND SWAP1 POP SWAP2 SWAP1 POP JUMP JUMPDEST PUSH2 0x2E09 DUP1 PUSH3 0x555 PUSH1 0x0 CODECOPY PUSH1 0x0 RETURN INVALID PUSH1 0x80 PUSH1 0x40 MSTORE PUSH1 0x4 CALLDATASIZE LT PUSH2 0x114 JUMPI PUSH1 0x0 CALLDATALOAD PUSH1 0xE0 SHR DUP1 PUSH4 0x877B954A GT PUSH2 0xA0 JUMPI DUP1 PUSH4 0xA9059CBB GT PUSH2 0x64 JUMPI DUP1 PUSH4 0xA9059CBB EQ PUSH2 0x3AB JUMPI DUP1 PUSH4 0xAE21875E EQ PUSH2 0x3E8 JUMPI DUP1 PUSH4 0xBD66528A EQ PUSH2 0x425 JUMPI DUP1 PUSH4 0xD0E30DB0 EQ PUSH2 0x44E JUMPI DUP1 PUSH4 0xDD62ED3E EQ PUSH2 0x458 JUMPI PUSH2 0x114 JUMP JUMPDEST DUP1 PUSH4 0x877B954A EQ PUSH2 0x2CC JUMPI DUP1 PUSH4 0x92584D80 EQ PUSH2 0x309 JUMPI DUP1 PUSH4 0x95D89B41 EQ PUSH2 0x332 JUMPI DUP1 PUSH4 0x9FE9ADA3 EQ PUSH2 0x35D JUMPI DUP1 PUSH4 0xA3E76C0F EQ PUSH2 0x3A1 JUMPI PUSH2 0x114 JUMP JUMPDEST DUP1 PUSH4 0x2E1A7D4D GT PUSH2 0xE7 JUMPI DUP1 PUSH4 0x2E1A7D4D EQ PUSH2 0x1E9 JUMPI DUP1 PUSH4 0x313CE567 EQ PUSH2 0x212 JUMPI DUP1 PUSH4 0x39A7AA23 EQ PUSH2 0x23D JUMPI DUP1 PUSH4 0x55640C4F EQ PUSH2 0x266 JUMPI DUP1 PUSH4 0x70A08231 EQ PUSH2 0x28F JUMPI PUSH2 0x114 JUMP JUMPDEST DUP1 PUSH4 0x6FDDE03 EQ PUSH2 0x119 JUMPI DUP1 PUSH4 0x95EA7B3 EQ PUSH2 0x144 JUMPI DUP1 PUSH4 0x18160DDD EQ PUSH2 0x181 JUMPI DUP1 PUSH4 0x23B872DD EQ PUSH2 0x1AC JUMPI JUMPDEST PUSH1 0x0 DUP1 REVERT JUMPDEST CALLVALUE DUP1 ISZERO PUSH2 0x125 JUMPI PUSH1 0x0 DUP1 REVERT JUMPDEST POP PUSH2 0x12E PUSH2 0x495 JUMP JUMPDEST PUSH1 0x40 MLOAD PUSH2 0x13B SWAP2 SWAP1 PUSH2 0x2937 JUMP JUMPDEST PUSH1 0x40 MLOAD DUP1 SWAP2 SUB SWAP1 RETURN JUMPDEST CALLVALUE DUP1 ISZERO PUSH2 0x150 JUMPI PUSH1 0x0 DUP1 REVERT JUMPDEST POP PUSH2 0x16B PUSH1 0x4 DUP1 CALLDATASIZE SUB PUSH2 0x166 SWAP2 SWAP1 DUP2 ADD SWAP1 PUSH2 0x1FAB JUMP JUMPDEST PUSH2 0x537 JUMP JUMPDEST PUSH1 0x40 MLOAD PUSH2 0x178 SWAP2 SWAP1 PUSH2 0x28BC JUMP JUMPDEST PUSH1 0x40 MLOAD DUP1 SWAP2 SUB SWAP1 RETURN JUMPDEST CALLVALUE DUP1 ISZERO PUSH2 0x18D JUMPI PUSH1 0x0 DUP1 REVERT JUMPDEST POP PUSH2 0x196 PUSH2 0x54E JUMP JUMPDEST PUSH1 0x40 MLOAD PUSH2 0x1A3 SWAP2 SWAP1 PUSH2 0x2B59 JUMP JUMPDEST PUSH1 0x40 MLOAD DUP1 SWAP2 SUB SWAP1 RETURN JUMPDEST CALLVALUE DUP1 ISZERO PUSH2 0x1B8 JUMPI PUSH1 0x0 DUP1 REVERT JUMPDEST POP PUSH2 0x1D3 PUSH1 0x4 DUP1 CALLDATASIZE SUB PUSH2 0x1CE SWAP2 SWAP1 DUP2 ADD SWAP1 PUSH2 0x1F5C JUMP JUMPDEST PUSH2 0x558 JUMP JUMPDEST PUSH1 0x40 MLOAD PUSH2 0x1E0 SWAP2 SWAP1 PUSH2 0x28BC JUMP JUMPDEST PUSH1 0x40 MLOAD DUP1 SWAP2 SUB SWAP1 RETURN JUMPDEST CALLVALUE DUP1 ISZERO PUSH2 0x1F5 JUMPI PUSH1 0x0 DUP1 REVERT JUMPDEST POP PUSH2 0x210 PUSH1 0x4 DUP1 CALLDATASIZE SUB PUSH2 0x20B SWAP2 SWAP1 DUP2 ADD SWAP1 PUSH2 0x210C JUMP JUMPDEST PUSH2 0x623 JUMP JUMPDEST STOP JUMPDEST CALLVALUE DUP1 ISZERO PUSH2 0x21E JUMPI PUSH1 0x0 DUP1 REVERT JUMPDEST POP PUSH2 0x227 PUSH2 0x6E5 JUMP JUMPDEST PUSH1 0x40 MLOAD PUSH2 0x234 SWAP2 SWAP1 PUSH2 0x2B74 JUMP JUMPDEST PUSH1 0x40 MLOAD DUP1 SWAP2 SUB SWAP1 RETURN JUMPDEST CALLVALUE DUP1 ISZERO PUSH2 0x249 JUMPI PUSH1 0x0 DUP1 REVERT JUMPDEST POP PUSH2 0x264 PUSH1 0x4 DUP1 CALLDATASIZE SUB PUSH2 0x25F SWAP2 SWAP1 DUP2 ADD SWAP1 PUSH2 0x2010 JUMP JUMPDEST PUSH2 0x6FC JUMP JUMPDEST STOP JUMPDEST CALLVALUE DUP1 ISZERO PUSH2 0x272 JUMPI PUSH1 0x0 DUP1 REVERT JUMPDEST POP PUSH2 0x28D PUSH1 0x4 DUP1 CALLDATASIZE SUB PUSH2 0x288 SWAP2 SWAP1 DUP2 ADD SWAP1 PUSH2 0x20A0 JUMP JUMPDEST PUSH2 0x9B0 JUMP JUMPDEST STOP JUMPDEST CALLVALUE DUP1 ISZERO PUSH2 0x29B JUMPI PUSH1 0x0 DUP1 REVERT JUMPDEST POP PUSH2 0x2B6 PUSH1 0x4 DUP1 CALLDATASIZE SUB PUSH2 0x2B1 SWAP2 SWAP1 DUP2 ADD SWAP1 PUSH2 0x1EF7 JUMP JUMPDEST PUSH2 0xDF7 JUMP JUMPDEST PUSH1 0x40 MLOAD PUSH2 0x2C3 SWAP2 SWAP1 PUSH2 0x2B59 JUMP JUMPDEST PUSH1 0x40 MLOAD DUP1 SWAP2 SUB SWAP1 RETURN JUMPDEST CALLVALUE DUP1 ISZERO PUSH2 0x2D8 JUMPI PUSH1 0x0 DUP1 REVERT JUMPDEST POP PUSH2 0x2F3 PUSH1 0x4 DUP1 CALLDATASIZE SUB PUSH2 0x2EE SWAP2 SWAP1 DUP2 ADD SWAP1 PUSH2 0x1FE7 JUMP JUMPDEST PUSH2 0xE3F JUMP JUMPDEST PUSH1 0x40 MLOAD PUSH2 0x300 SWAP2 SWAP1 PUSH2 0x28BC JUMP JUMPDEST PUSH1 0x40 MLOAD DUP1 SWAP2 SUB SWAP1 RETURN JUMPDEST CALLVALUE DUP1 ISZERO PUSH2 0x315 JUMPI PUSH1 0x0 DUP1 REVERT JUMPDEST POP PUSH2 0x330 PUSH1 0x4 DUP1 CALLDATASIZE SUB PUSH2 0x32B SWAP2 SWAP1 DUP2 ADD SWAP1 PUSH2 0x1FE7 JUMP JUMPDEST PUSH2 0xE5F JUMP JUMPDEST STOP JUMPDEST CALLVALUE DUP1 ISZERO PUSH2 0x33E JUMPI PUSH1 0x0 DUP1 REVERT JUMPDEST POP PUSH2 0x347 PUSH2 0xFCD JUMP JUMPDEST PUSH1 0x40 MLOAD PUSH2 0x354 SWAP2 SWAP1 PUSH2 0x2937 JUMP JUMPDEST PUSH1 0x40 MLOAD DUP1 SWAP2 SUB SWAP1 RETURN JUMPDEST CALLVALUE DUP1 ISZERO PUSH2 0x369 JUMPI PUSH1 0x0 DUP1 REVERT JUMPDEST POP PUSH2 0x384 PUSH1 0x4 DUP1 CALLDATASIZE SUB PUSH2 0x37F SWAP2 SWAP1 DUP2 ADD SWAP1 PUSH2 0x1FE7 JUMP JUMPDEST PUSH2 0x106F JUMP JUMPDEST PUSH1 0x40 MLOAD PUSH2 0x398 SWAP9 SWAP8 SWAP7 SWAP6 SWAP5 SWAP4 SWAP3 SWAP2 SWAP1 PUSH2 0x283E JUMP JUMPDEST PUSH1 0x40 MLOAD DUP1 SWAP2 SUB SWAP1 RETURN JUMPDEST PUSH2 0x3A9 PUSH2 0x10F7 JUMP JUMPDEST STOP JUMPDEST CALLVALUE DUP1 ISZERO PUSH2 0x3B7 JUMPI PUSH1 0x0 DUP1 REVERT JUMPDEST POP PUSH2 0x3D2 PUSH1 0x4 DUP1 CALLDATASIZE SUB PUSH2 0x3CD SWAP2 SWAP1 DUP2 ADD SWAP1 PUSH2 0x1FAB JUMP JUMPDEST PUSH2 0x1103 JUMP JUMPDEST PUSH1 0x40 MLOAD PUSH2 0x3DF SWAP2 SWAP1 PUSH2 0x28BC JUMP JUMPDEST PUSH1 0x40 MLOAD DUP1 SWAP2 SUB SWAP1 RETURN JUMPDEST CALLVALUE DUP1 ISZERO PUSH2 0x3F4 JUMPI PUSH1 0x0 DUP1 REVERT JUMPDEST POP PUSH2 0x40F PUSH1 0x4 DUP1 CALLDATASIZE SUB PUSH2 0x40A SWAP2 SWAP1 DUP2 ADD SWAP1 PUSH2 0x205F JUMP JUMPDEST PUSH2 0x111A JUMP JUMPDEST PUSH1 0x40 MLOAD PUSH2 0x41C SWAP2 SWAP1 PUSH2 0x28D7 JUMP JUMPDEST PUSH1 0x40 MLOAD DUP1 SWAP2 SUB SWAP1 RETURN JUMPDEST CALLVALUE DUP1 ISZERO PUSH2 0x431 JUMPI PUSH1 0x0 DUP1 REVERT JUMPDEST POP PUSH2 0x44C PUSH1 0x4 DUP1 CALLDATASIZE SUB PUSH2 0x447 SWAP2 SWAP1 DUP2 ADD SWAP1 PUSH2 0x1FE7 JUMP JUMPDEST PUSH2 0x115C JUMP JUMPDEST STOP JUMPDEST PUSH2 0x456 PUSH2 0x12EF JUMP JUMPDEST STOP JUMPDEST CALLVALUE DUP1 ISZERO PUSH2 0x464 JUMPI PUSH1 0x0 DUP1 REVERT JUMPDEST POP PUSH2 0x47F PUSH1 0x4 DUP1 CALLDATASIZE SUB PUSH2 0x47A SWAP2 SWAP1 DUP2 ADD SWAP1 PUSH2 0x1F20 JUMP JUMPDEST PUSH2 0x12FB JUMP JUMPDEST PUSH1 0x40 MLOAD PUSH2 0x48C SWAP2 SWAP1 PUSH2 0x2B59 JUMP JUMPDEST PUSH1 0x40 MLOAD DUP1 SWAP2 SUB SWAP1 RETURN JUMPDEST PUSH1 0x60 PUSH1 0x3 DUP1 SLOAD PUSH1 0x1 DUP2 PUSH1 0x1 AND ISZERO PUSH2 0x100 MUL SUB AND PUSH1 0x2 SWAP1 DIV DUP1 PUSH1 0x1F ADD PUSH1 0x20 DUP1 SWAP2 DIV MUL PUSH1 0x20 ADD PUSH1 0x40 MLOAD SWAP1 DUP2 ADD PUSH1 0x40 MSTORE DUP1 SWAP3 SWAP2 SWAP1 DUP2 DUP2 MSTORE PUSH1 0x20 ADD DUP3 DUP1 SLOAD PUSH1 0x1 DUP2 PUSH1 0x1 AND ISZERO PUSH2 0x100 MUL SUB AND PUSH1 0x2 SWAP1 DIV DUP1 ISZERO PUSH2 0x52D JUMPI DUP1 PUSH1 0x1F LT PUSH2 0x502 JUMPI PUSH2 0x100 DUP1 DUP4 SLOAD DIV MUL DUP4 MSTORE SWAP2 PUSH1 0x20 ADD SWAP2 PUSH2 0x52D JUMP JUMPDEST DUP3 ADD SWAP2 SWAP1 PUSH1 0x0 MSTORE PUSH1 0x20 PUSH1 0x0 KECCAK256 SWAP1 JUMPDEST DUP2 SLOAD DUP2 MSTORE SWAP1 PUSH1 0x1 ADD SWAP1 PUSH1 0x20 ADD DUP1 DUP4 GT PUSH2 0x510 JUMPI DUP3 SWAP1 SUB PUSH1 0x1F AND DUP3 ADD SWAP2 JUMPDEST POP POP POP POP POP SWAP1 POP SWAP1 JUMP JUMPDEST PUSH1 0x0 PUSH2 0x544 CALLER DUP5 DUP5 PUSH2 0x1382 JUMP JUMPDEST PUSH1 0x1 SWAP1 POP SWAP3 SWAP2 POP POP JUMP JUMPDEST PUSH1 0x0 PUSH1 0x2 SLOAD SWAP1 POP SWAP1 JUMP JUMPDEST PUSH1 0x0 PUSH2 0x565 DUP5 DUP5 DUP5 PUSH2 0x154D JUMP JUMPDEST PUSH2 0x618 DUP5 CALLER PUSH2 0x613 DUP6 PUSH1 0x40 MLOAD DUP1 PUSH1 0x60 ADD PUSH1 0x40 MSTORE DUP1 PUSH1 0x28 DUP2 MSTORE PUSH1 0x20 ADD PUSH2 0x2D9F PUSH1 0x28 SWAP2 CODECOPY PUSH1 0x1 PUSH1 0x0 DUP12 PUSH20 0xFFFFFFFFFFFFFFFFFFFFFFFFFFFFFFFFFFFFFFFF AND PUSH20 0xFFFFFFFFFFFFFFFFFFFFFFFFFFFFFFFFFFFFFFFF AND DUP2 MSTORE PUSH1 0x20 ADD SWAP1 DUP2 MSTORE PUSH1 0x20 ADD PUSH1 0x0 KECCAK256 PUSH1 0x0 CALLER PUSH20 0xFFFFFFFFFFFFFFFFFFFFFFFFFFFFFFFFFFFFFFFF AND PUSH20 0xFFFFFFFFFFFFFFFFFFFFFFFFFFFFFFFFFFFFFFFF AND DUP2 MSTORE PUSH1 0x20 ADD SWAP1 DUP2 MSTORE PUSH1 0x20 ADD PUSH1 0x0 KECCAK256 SLOAD PUSH2 0x17D7 SWAP1 SWAP3 SWAP2 SWAP1 PUSH4 0xFFFFFFFF AND JUMP JUMPDEST PUSH2 0x1382 JUMP JUMPDEST PUSH1 0x1 SWAP1 POP SWAP4 SWAP3 POP POP POP JUMP JUMPDEST PUSH2 0x62D CALLER DUP3 PUSH2 0x1832 JUMP JUMPDEST PUSH1 0x0 PUSH1 0x60 CALLER PUSH20 0xFFFFFFFFFFFFFFFFFFFFFFFFFFFFFFFFFFFFFFFF AND DUP4 PUSH1 0x40 MLOAD PUSH2 0x655 SWAP1 PUSH2 0x280E JUMP JUMPDEST PUSH1 0x0 PUSH1 0x40 MLOAD DUP1 DUP4 SUB DUP2 DUP6 DUP8 GAS CALL SWAP3 POP POP POP RETURNDATASIZE DUP1 PUSH1 0x0 DUP2 EQ PUSH2 0x692 JUMPI PUSH1 0x40 MLOAD SWAP2 POP PUSH1 0x1F NOT PUSH1 0x3F RETURNDATASIZE ADD AND DUP3 ADD PUSH1 0x40 MSTORE RETURNDATASIZE DUP3 MSTORE RETURNDATASIZE PUSH1 0x0 PUSH1 0x20 DUP5 ADD RETURNDATACOPY PUSH2 0x697 JUMP JUMPDEST PUSH1 0x60 SWAP2 POP JUMPDEST POP SWAP2 POP SWAP2 POP DUP2 DUP2 SWAP1 PUSH2 0x6DF JUMPI PUSH1 0x40 MLOAD PUSH32 0x8C379A000000000000000000000000000000000000000000000000000000000 DUP2 MSTORE PUSH1 0x4 ADD PUSH2 0x6D6 SWAP2 SWAP1 PUSH2 0x2937 JUMP JUMPDEST PUSH1 0x40 MLOAD DUP1 SWAP2 SUB SWAP1 REVERT JUMPDEST POP POP POP POP JUMP JUMPDEST PUSH1 0x0 PUSH1 0x5 PUSH1 0x0 SWAP1 SLOAD SWAP1 PUSH2 0x100 EXP SWAP1 DIV PUSH1 0xFF AND SWAP1 POP SWAP1 JUMP JUMPDEST PUSH1 0x0 PUSH1 0x7 PUSH1 0x0 DUP6 DUP2 MSTORE PUSH1 0x20 ADD SWAP1 DUP2 MSTORE PUSH1 0x20 ADD PUSH1 0x0 KECCAK256 SWAP1 POP TIMESTAMP DUP2 PUSH1 0x7 ADD SLOAD LT ISZERO PUSH2 0x75A JUMPI PUSH1 0x40 MLOAD PUSH32 0x8C379A000000000000000000000000000000000000000000000000000000000 DUP2 MSTORE PUSH1 0x4 ADD PUSH2 0x751 SWAP1 PUSH2 0x2979 JUMP JUMPDEST PUSH1 0x40 MLOAD DUP1 SWAP2 SUB SWAP1 REVERT JUMPDEST DUP1 PUSH1 0x0 ADD PUSH1 0x0 SWAP1 SLOAD SWAP1 PUSH2 0x100 EXP SWAP1 DIV PUSH20 0xFFFFFFFFFFFFFFFFFFFFFFFFFFFFFFFFFFFFFFFF AND PUSH20 0xFFFFFFFFFFFFFFFFFFFFFFFFFFFFFFFFFFFFFFFF AND DUP4 PUSH20 0xFFFFFFFFFFFFFFFFFFFFFFFFFFFFFFFFFFFFFFFF AND EQ ISZERO PUSH2 0x864 JUMPI DUP2 PUSH1 0x40 MLOAD PUSH1 0x20 ADD PUSH2 0x7C3 SWAP2 SWAP1 PUSH2 0x27A1 JUMP JUMPDEST PUSH1 0x40 MLOAD PUSH1 0x20 DUP2 DUP4 SUB SUB DUP2 MSTORE SWAP1 PUSH1 0x40 MSTORE DUP1 MLOAD SWAP1 PUSH1 0x20 ADD KECCAK256 DUP2 PUSH1 0x2 ADD SLOAD EQ PUSH2 0x81E JUMPI PUSH1 0x40 MLOAD PUSH32 0x8C379A000000000000000000000000000000000000000000000000000000000 DUP2 MSTORE PUSH1 0x4 ADD PUSH2 0x815 SWAP1 PUSH2 0x2A19 JUMP JUMPDEST PUSH1 0x40 MLOAD DUP1 SWAP2 SUB SWAP1 REVERT JUMPDEST DUP2 DUP2 PUSH1 0x4 ADD DUP2 SWAP1 SSTORE POP DUP4 PUSH32 0x3881C7C92C6BBF7BE209F58096473FC13A008B026E68BE078B406C4C612EECFF DUP5 PUSH1 0x40 MLOAD PUSH2 0x857 SWAP2 SWAP1 PUSH2 0x2823 JUMP JUMPDEST PUSH1 0x40 MLOAD DUP1 SWAP2 SUB SWAP1 LOG2 PUSH2 0x9AA JUMP JUMPDEST DUP1 PUSH1 0x1 ADD PUSH1 0x0 SWAP1 SLOAD SWAP1 PUSH2 0x100 EXP SWAP1 DIV PUSH20 0xFFFFFFFFFFFFFFFFFFFFFFFFFFFFFFFFFFFFFFFF AND PUSH20 0xFFFFFFFFFFFFFFFFFFFFFFFFFFFFFFFFFFFFFFFF AND DUP4 PUSH20 0xFFFFFFFFFFFFFFFFFFFFFFFFFFFFFFFFFFFFFFFF AND EQ ISZERO PUSH2 0x96E JUMPI DUP2 PUSH1 0x40 MLOAD PUSH1 0x20 ADD PUSH2 0x8CD SWAP2 SWAP1 PUSH2 0x27A1 JUMP JUMPDEST PUSH1 0x40 MLOAD PUSH1 0x20 DUP2 DUP4 SUB SUB DUP2 MSTORE SWAP1 PUSH1 0x40 MSTORE DUP1 MLOAD SWAP1 PUSH1 0x20 ADD KECCAK256 DUP2 PUSH1 0x3 ADD SLOAD EQ PUSH2 0x928 JUMPI PUSH1 0x40 MLOAD PUSH32 0x8C379A000000000000000000000000000000000000000000000000000000000 DUP2 MSTORE PUSH1 0x4 ADD PUSH2 0x91F SWAP1 PUSH2 0x2A59 JUMP JUMPDEST PUSH1 0x40 MLOAD DUP1 SWAP2 SUB SWAP1 REVERT JUMPDEST DUP2 DUP2 PUSH1 0x5 ADD DUP2 SWAP1 SSTORE POP DUP4 PUSH32 0x3881C7C92C6BBF7BE209F58096473FC13A008B026E68BE078B406C4C612EECFF DUP5 PUSH1 0x40 MLOAD PUSH2 0x961 SWAP2 SWAP1 PUSH2 0x2823 JUMP JUMPDEST PUSH1 0x40 MLOAD DUP1 SWAP2 SUB SWAP1 LOG2 PUSH2 0x9A9 JUMP JUMPDEST PUSH1 0x40 MLOAD PUSH32 0x8C379A000000000000000000000000000000000000000000000000000000000 DUP2 MSTORE PUSH1 0x4 ADD PUSH2 0x9A0 SWAP1 PUSH2 0x2A39 JUMP JUMPDEST PUSH1 0x40 MLOAD DUP1 SWAP2 SUB SWAP1 REVERT JUMPDEST JUMPDEST POP POP POP POP JUMP JUMPDEST DUP1 PUSH1 0x40 ADD MLOAD DUP3 PUSH1 0x40 ADD MLOAD EQ PUSH2 0x9C4 JUMPI PUSH1 0x0 DUP1 REVERT JUMPDEST PUSH1 0x0 PUSH2 0x9D7 PUSH2 0x9D2 DUP5 PUSH2 0x111A JUMP JUMPDEST PUSH2 0x19D4 JUMP JUMPDEST SWAP1 POP PUSH1 0x0 PUSH2 0x9EC PUSH2 0x9E7 DUP5 PUSH2 0x111A JUMP JUMPDEST PUSH2 0x19D4 JUMP JUMPDEST SWAP1 POP PUSH1 0x0 DUP3 DUP3 PUSH1 0x40 MLOAD PUSH1 0x20 ADD PUSH2 0xA03 SWAP3 SWAP2 SWAP1 PUSH2 0x27BC JUMP JUMPDEST PUSH1 0x40 MLOAD PUSH1 0x20 DUP2 DUP4 SUB SUB DUP2 MSTORE SWAP1 PUSH1 0x40 MSTORE DUP1 MLOAD SWAP1 PUSH1 0x20 ADD KECCAK256 SWAP1 POP PUSH2 0xA32 DUP6 PUSH1 0x60 ADD MLOAD DUP5 PUSH2 0x1A04 SWAP1 SWAP2 SWAP1 PUSH4 0xFFFFFFFF AND JUMP JUMPDEST PUSH20 0xFFFFFFFFFFFFFFFFFFFFFFFFFFFFFFFFFFFFFFFF AND DUP6 PUSH1 0x0 ADD MLOAD PUSH20 0xFFFFFFFFFFFFFFFFFFFFFFFFFFFFFFFFFFFFFFFF AND EQ PUSH2 0xAA3 JUMPI PUSH1 0x40 MLOAD PUSH32 0x8C379A000000000000000000000000000000000000000000000000000000000 DUP2 MSTORE PUSH1 0x4 ADD PUSH2 0xA9A SWAP1 PUSH2 0x29F9 JUMP JUMPDEST PUSH1 0x40 MLOAD DUP1 SWAP2 SUB SWAP1 REVERT JUMPDEST PUSH2 0xABA DUP5 PUSH1 0x60 ADD MLOAD DUP4 PUSH2 0x1A04 SWAP1 SWAP2 SWAP1 PUSH4 0xFFFFFFFF AND JUMP JUMPDEST PUSH20 0xFFFFFFFFFFFFFFFFFFFFFFFFFFFFFFFFFFFFFFFF AND DUP5 PUSH1 0x0 ADD MLOAD PUSH20 0xFFFFFFFFFFFFFFFFFFFFFFFFFFFFFFFFFFFFFFFF AND EQ PUSH2 0xB2B JUMPI PUSH1 0x40 MLOAD PUSH32 0x8C379A000000000000000000000000000000000000000000000000000000000 DUP2 MSTORE PUSH1 0x4 ADD PUSH2 0xB22 SWAP1 PUSH2 0x2999 JUMP JUMPDEST PUSH1 0x40 MLOAD DUP1 SWAP2 SUB SWAP1 REVERT JUMPDEST PUSH2 0xB3D DUP6 PUSH1 0x0 ADD MLOAD DUP7 PUSH1 0x40 ADD MLOAD PUSH2 0x1B44 JUMP JUMPDEST PUSH2 0xB4F DUP5 PUSH1 0x0 ADD MLOAD DUP6 PUSH1 0x40 ADD MLOAD PUSH2 0x1B44 JUMP JUMPDEST PUSH1 0x6 PUSH1 0x0 DUP5 DUP2 MSTORE PUSH1 0x20 ADD SWAP1 DUP2 MSTORE PUSH1 0x20 ADD PUSH1 0x0 KECCAK256 PUSH1 0x0 SWAP1 SLOAD SWAP1 PUSH2 0x100 EXP SWAP1 DIV PUSH1 0xFF AND ISZERO PUSH2 0xBB0 JUMPI PUSH1 0x40 MLOAD PUSH32 0x8C379A000000000000000000000000000000000000000000000000000000000 DUP2 MSTORE PUSH1 0x4 ADD PUSH2 0xBA7 SWAP1 PUSH2 0x2AD9 JUMP JUMPDEST PUSH1 0x40 MLOAD DUP1 SWAP2 SUB SWAP1 REVERT JUMPDEST PUSH1 0x6 PUSH1 0x0 DUP4 DUP2 MSTORE PUSH1 0x20 ADD SWAP1 DUP2 MSTORE PUSH1 0x20 ADD PUSH1 0x0 KECCAK256 PUSH1 0x0 SWAP1 SLOAD SWAP1 PUSH2 0x100 EXP SWAP1 DIV PUSH1 0xFF AND ISZERO PUSH2 0xC11 JUMPI PUSH1 0x40 MLOAD PUSH32 0x8C379A000000000000000000000000000000000000000000000000000000000 DUP2 MSTORE PUSH1 0x4 ADD PUSH2 0xC08 SWAP1 PUSH2 0x2AF9 JUMP JUMPDEST PUSH1 0x40 MLOAD DUP1 SWAP2 SUB SWAP1 REVERT JUMPDEST PUSH1 0x1 PUSH1 0x6 PUSH1 0x0 DUP6 DUP2 MSTORE PUSH1 0x20 ADD SWAP1 DUP2 MSTORE PUSH1 0x20 ADD PUSH1 0x0 KECCAK256 PUSH1 0x0 PUSH2 0x100 EXP DUP2 SLOAD DUP2 PUSH1 0xFF MUL NOT AND SWAP1 DUP4 ISZERO ISZERO MUL OR SWAP1 SSTORE POP PUSH1 0x1 PUSH1 0x6 PUSH1 0x0 DUP5 DUP2 MSTORE PUSH1 0x20 ADD SWAP1 DUP2 MSTORE PUSH1 0x20 ADD PUSH1 0x0 KECCAK256 PUSH1 0x0 PUSH2 0x100 EXP DUP2 SLOAD DUP2 PUSH1 0xFF MUL NOT AND SWAP1 DUP4 ISZERO ISZERO MUL OR SWAP1 SSTORE POP PUSH1 0x0 PUSH1 0x7 PUSH1 0x0 DUP4 DUP2 MSTORE PUSH1 0x20 ADD SWAP1 DUP2 MSTORE PUSH1 0x20 ADD PUSH1 0x0 KECCAK256 SWAP1 POP DUP6 PUSH1 0x0 ADD MLOAD DUP2 PUSH1 0x0 ADD PUSH1 0x0 PUSH2 0x100 EXP DUP2 SLOAD DUP2 PUSH20 0xFFFFFFFFFFFFFFFFFFFFFFFFFFFFFFFFFFFFFFFF MUL NOT AND SWAP1 DUP4 PUSH20 0xFFFFFFFFFFFFFFFFFFFFFFFFFFFFFFFFFFFFFFFF AND MUL OR SWAP1 SSTORE POP DUP5 PUSH1 0x0 ADD MLOAD DUP2 PUSH1 0x1 ADD PUSH1 0x0 PUSH2 0x100 EXP DUP2 SLOAD DUP2 PUSH20 0xFFFFFFFFFFFFFFFFFFFFFFFFFFFFFFFFFFFFFFFF MUL NOT AND SWAP1 DUP4 PUSH20 0xFFFFFFFFFFFFFFFFFFFFFFFFFFFFFFFFFFFFFFFF AND MUL OR SWAP1 SSTORE POP DUP6 PUSH1 0x20 ADD MLOAD DUP2 PUSH1 0x2 ADD DUP2 SWAP1 SSTORE POP DUP6 PUSH1 0x20 ADD MLOAD DUP2 PUSH1 0x2 ADD DUP2 SWAP1 SSTORE POP DUP5 PUSH1 0x40 ADD MLOAD DUP7 PUSH1 0x40 ADD MLOAD ADD DUP2 PUSH1 0x6 ADD DUP2 SWAP1 SSTORE POP PUSH3 0x15180 TIMESTAMP ADD DUP2 PUSH1 0x7 ADD DUP2 SWAP1 SSTORE POP DUP4 DUP7 PUSH1 0x0 ADD MLOAD PUSH20 0xFFFFFFFFFFFFFFFFFFFFFFFFFFFFFFFFFFFFFFFF AND PUSH32 0x8086B247D8713C22B4656944FA5434755310EAA9FEA73AF477FE4F827B7E43BC DUP5 PUSH1 0x40 MLOAD PUSH2 0xD94 SWAP2 SWAP1 PUSH2 0x28D7 JUMP JUMPDEST PUSH1 0x40 MLOAD DUP1 SWAP2 SUB SWAP1 LOG3 DUP3 DUP6 PUSH1 0x0 ADD MLOAD PUSH20 0xFFFFFFFFFFFFFFFFFFFFFFFFFFFFFFFFFFFFFFFF AND PUSH32 0x8086B247D8713C22B4656944FA5434755310EAA9FEA73AF477FE4F827B7E43BC DUP5 PUSH1 0x40 MLOAD PUSH2 0xDE7 SWAP2 SWAP1 PUSH2 0x28D7 JUMP JUMPDEST PUSH1 0x40 MLOAD DUP1 SWAP2 SUB SWAP1 LOG3 POP POP POP POP POP POP JUMP JUMPDEST PUSH1 0x0 DUP1 PUSH1 0x0 DUP4 PUSH20 0xFFFFFFFFFFFFFFFFFFFFFFFFFFFFFFFFFFFFFFFF AND PUSH20 0xFFFFFFFFFFFFFFFFFFFFFFFFFFFFFFFFFFFFFFFF AND DUP2 MSTORE PUSH1 0x20 ADD SWAP1 DUP2 MSTORE PUSH1 0x20 ADD PUSH1 0x0 KECCAK256 SLOAD SWAP1 POP SWAP2 SWAP1 POP JUMP JUMPDEST PUSH1 0x6 PUSH1 0x20 MSTORE DUP1 PUSH1 0x0 MSTORE PUSH1 0x40 PUSH1 0x0 KECCAK256 PUSH1 0x0 SWAP2 POP SLOAD SWAP1 PUSH2 0x100 EXP SWAP1 DIV PUSH1 0xFF AND DUP2 JUMP JUMPDEST PUSH1 0x0 PUSH1 0x7 PUSH1 0x0 DUP4 DUP2 MSTORE PUSH1 0x20 ADD SWAP1 DUP2 MSTORE PUSH1 0x20 ADD PUSH1 0x0 KECCAK256 SWAP1 POP PUSH1 0x0 DUP1 SHL DUP2 PUSH1 0x4 ADD SLOAD EQ ISZERO DUP1 ISZERO PUSH2 0xE94 JUMPI POP PUSH1 0x0 DUP1 SHL DUP2 PUSH1 0x5 ADD SLOAD EQ ISZERO JUMPDEST PUSH2 0xE9D JUMPI PUSH1 0x0 DUP1 REVERT JUMPDEST PUSH1 0x0 DUP2 PUSH1 0x0 ADD PUSH1 0x0 SWAP1 SLOAD SWAP1 PUSH2 0x100 EXP SWAP1 DIV PUSH20 0xFFFFFFFFFFFFFFFFFFFFFFFFFFFFFFFFFFFFFFFF AND DUP3 PUSH1 0x4 ADD SLOAD DUP4 PUSH1 0x5 ADD SLOAD PUSH1 0x40 MLOAD PUSH1 0x20 ADD PUSH2 0xEE0 SWAP4 SWAP3 SWAP2 SWAP1 PUSH2 0x2764 JUMP JUMPDEST PUSH1 0x40 MLOAD PUSH1 0x20 DUP2 DUP4 SUB SUB DUP2 MSTORE SWAP1 PUSH1 0x40 MSTORE DUP1 MLOAD SWAP1 PUSH1 0x20 ADD KECCAK256 PUSH1 0x0 SHR SWAP1 POP PUSH1 0x0 DUP3 PUSH1 0x1 ADD PUSH1 0x0 SWAP1 SLOAD SWAP1 PUSH2 0x100 EXP SWAP1 DIV PUSH20 0xFFFFFFFFFFFFFFFFFFFFFFFFFFFFFFFFFFFFFFFF AND DUP4 PUSH1 0x4 ADD SLOAD DUP5 PUSH1 0x5 ADD SLOAD PUSH1 0x40 MLOAD PUSH1 0x20 ADD PUSH2 0xF3E SWAP4 SWAP3 SWAP2 SWAP1 PUSH2 0x2764 JUMP JUMPDEST PUSH1 0x40 MLOAD PUSH1 0x20 DUP2 DUP4 SUB SUB DUP2 MSTORE SWAP1 PUSH1 0x40 MSTORE DUP1 MLOAD SWAP1 PUSH1 0x20 ADD KECCAK256 PUSH1 0x0 SHR SWAP1 POP PUSH2 0xFBD DUP2 DUP4 GT PUSH2 0xF8D JUMPI DUP4 PUSH1 0x1 ADD PUSH1 0x0 SWAP1 SLOAD SWAP1 PUSH2 0x100 EXP SWAP1 DIV PUSH20 0xFFFFFFFFFFFFFFFFFFFFFFFFFFFFFFFFFFFFFFFF AND PUSH2 0xFB3 JUMP JUMPDEST DUP4 PUSH1 0x0 ADD PUSH1 0x0 SWAP1 SLOAD SWAP1 PUSH2 0x100 EXP SWAP1 DIV PUSH20 0xFFFFFFFFFFFFFFFFFFFFFFFFFFFFFFFFFFFFFFFF AND JUMPDEST DUP5 PUSH1 0x6 ADD SLOAD PUSH2 0x1B53 JUMP JUMPDEST PUSH1 0x0 DUP4 PUSH1 0x6 ADD DUP2 SWAP1 SSTORE POP POP POP POP POP JUMP JUMPDEST PUSH1 0x60 PUSH1 0x4 DUP1 SLOAD PUSH1 0x1 DUP2 PUSH1 0x1 AND ISZERO PUSH2 0x100 MUL SUB AND PUSH1 0x2 SWAP1 DIV DUP1 PUSH1 0x1F ADD PUSH1 0x20 DUP1 SWAP2 DIV MUL PUSH1 0x20 ADD PUSH1 0x40 MLOAD SWAP1 DUP2 ADD PUSH1 0x40 MSTORE DUP1 SWAP3 SWAP2 SWAP1 DUP2 DUP2 MSTORE PUSH1 0x20 ADD DUP3 DUP1 SLOAD PUSH1 0x1 DUP2 PUSH1 0x1 AND ISZERO PUSH2 0x100 MUL SUB AND PUSH1 0x2 SWAP1 DIV DUP1 ISZERO PUSH2 0x1065 JUMPI DUP1 PUSH1 0x1F LT PUSH2 0x103A JUMPI PUSH2 0x100 DUP1 DUP4 SLOAD DIV MUL DUP4 MSTORE SWAP2 PUSH1 0x20 ADD SWAP2 PUSH2 0x1065 JUMP JUMPDEST DUP3 ADD SWAP2 SWAP1 PUSH1 0x0 MSTORE PUSH1 0x20 PUSH1 0x0 KECCAK256 SWAP1 JUMPDEST DUP2 SLOAD DUP2 MSTORE SWAP1 PUSH1 0x1 ADD SWAP1 PUSH1 0x20 ADD DUP1 DUP4 GT PUSH2 0x1048 JUMPI DUP3 SWAP1 SUB PUSH1 0x1F AND DUP3 ADD SWAP2 JUMPDEST POP POP POP POP POP SWAP1 POP SWAP1 JUMP JUMPDEST PUSH1 0x7 PUSH1 0x20 MSTORE DUP1 PUSH1 0x0 MSTORE PUSH1 0x40 PUSH1 0x0 KECCAK256 PUSH1 0x0 SWAP2 POP SWAP1 POP DUP1 PUSH1 0x0 ADD PUSH1 0x0 SWAP1 SLOAD SWAP1 PUSH2 0x100 EXP SWAP1 DIV PUSH20 0xFFFFFFFFFFFFFFFFFFFFFFFFFFFFFFFFFFFFFFFF AND SWAP1 DUP1 PUSH1 0x1 ADD PUSH1 0x0 SWAP1 SLOAD SWAP1 PUSH2 0x100 EXP SWAP1 DIV PUSH20 0xFFFFFFFFFFFFFFFFFFFFFFFFFFFFFFFFFFFFFFFF AND SWAP1 DUP1 PUSH1 0x2 ADD SLOAD SWAP1 DUP1 PUSH1 0x3 ADD SLOAD SWAP1 DUP1 PUSH1 0x4 ADD SLOAD SWAP1 DUP1 PUSH1 0x5 ADD SLOAD SWAP1 DUP1 PUSH1 0x6 ADD SLOAD SWAP1 DUP1 PUSH1 0x7 ADD SLOAD SWAP1 POP DUP9 JUMP JUMPDEST PUSH2 0x1101 CALLER CALLVALUE PUSH2 0x1B62 JUMP JUMPDEST JUMP JUMPDEST PUSH1 0x0 PUSH2 0x1110 CALLER DUP5 DUP5 PUSH2 0x154D JUMP JUMPDEST PUSH1 0x1 SWAP1 POP SWAP3 SWAP2 POP POP JUMP JUMPDEST PUSH1 0x0 ADDRESS DUP3 PUSH1 0x0 ADD MLOAD DUP4 PUSH1 0x20 ADD MLOAD DUP5 PUSH1 0x40 ADD MLOAD PUSH1 0x40 MLOAD PUSH1 0x20 ADD PUSH2 0x113F SWAP5 SWAP4 SWAP3 SWAP2 SWAP1 PUSH2 0x2716 JUMP JUMPDEST PUSH1 0x40 MLOAD PUSH1 0x20 DUP2 DUP4 SUB SUB DUP2 MSTORE SWAP1 PUSH1 0x40 MSTORE DUP1 MLOAD SWAP1 PUSH1 0x20 ADD KECCAK256 SWAP1 POP SWAP2 SWAP1 POP JUMP JUMPDEST PUSH1 0x0 PUSH1 0x7 PUSH1 0x0 DUP4 DUP2 MSTORE PUSH1 0x20 ADD SWAP1 DUP2 MSTORE PUSH1 0x20 ADD PUSH1 0x0 KECCAK256 SWAP1 POP TIMESTAMP DUP2 PUSH1 0x7 ADD SLOAD LT PUSH2 0x11B9 JUMPI PUSH1 0x40 MLOAD PUSH32 0x8C379A000000000000000000000000000000000000000000000000000000000 DUP2 MSTORE PUSH1 0x4 ADD PUSH2 0x11B0 SWAP1 PUSH2 0x29B9 JUMP JUMPDEST PUSH1 0x40 MLOAD DUP1 SWAP2 SUB SWAP1 REVERT JUMPDEST PUSH1 0x0 DUP1 SHL DUP2 PUSH1 0x4 ADD SLOAD EQ DUP1 PUSH2 0x11D4 JUMPI POP PUSH1 0x0 DUP1 SHL DUP2 PUSH1 0x5 ADD SLOAD EQ JUMPDEST PUSH2 0x11DD JUMPI PUSH1 0x0 DUP1 REVERT JUMPDEST PUSH1 0x0 DUP1 SHL DUP2 PUSH1 0x4 ADD SLOAD EQ PUSH2 0x1222 JUMPI PUSH2 0x121D DUP2 PUSH1 0x0 ADD PUSH1 0x0 SWAP1 SLOAD SWAP1 PUSH2 0x100 EXP SWAP1 DIV PUSH20 0xFFFFFFFFFFFFFFFFFFFFFFFFFFFFFFFFFFFFFFFF AND DUP3 PUSH1 0x6 ADD SLOAD PUSH2 0x1B53 JUMP JUMPDEST PUSH2 0x12E1 JUMP JUMPDEST PUSH1 0x0 DUP1 SHL DUP2 PUSH1 0x5 ADD SLOAD EQ PUSH2 0x1267 JUMPI PUSH2 0x1262 DUP2 PUSH1 0x1 ADD PUSH1 0x0 SWAP1 SLOAD SWAP1 PUSH2 0x100 EXP SWAP1 DIV PUSH20 0xFFFFFFFFFFFFFFFFFFFFFFFFFFFFFFFFFFFFFFFF AND DUP3 PUSH1 0x6 ADD SLOAD PUSH2 0x1B53 JUMP JUMPDEST PUSH2 0x12E0 JUMP JUMPDEST PUSH2 0x12A3 DUP2 PUSH1 0x0 ADD PUSH1 0x0 SWAP1 SLOAD SWAP1 PUSH2 0x100 EXP SWAP1 DIV PUSH20 0xFFFFFFFFFFFFFFFFFFFFFFFFFFFFFFFFFFFFFFFF AND PUSH1 0x2 DUP4 PUSH1 0x6 ADD SLOAD DUP2 PUSH2 0x129D JUMPI INVALID JUMPDEST DIV PUSH2 0x1B53 JUMP JUMPDEST PUSH2 0x12DF DUP2 PUSH1 0x1 ADD PUSH1 0x0 SWAP1 SLOAD SWAP1 PUSH2 0x100 EXP SWAP1 DIV PUSH20 0xFFFFFFFFFFFFFFFFFFFFFFFFFFFFFFFFFFFFFFFF AND PUSH1 0x2 DUP4 PUSH1 0x6 ADD SLOAD DUP2 PUSH2 0x12D9 JUMPI INVALID JUMPDEST DIV PUSH2 0x1B53 JUMP JUMPDEST JUMPDEST JUMPDEST PUSH1 0x0 DUP2 PUSH1 0x6 ADD DUP2 SWAP1 SSTORE POP POP POP JUMP JUMPDEST PUSH2 0x12F9 CALLER CALLVALUE PUSH2 0x1B62 JUMP JUMPDEST JUMP JUMPDEST PUSH1 0x0 PUSH1 0x1 PUSH1 0x0 DUP5 PUSH20 0xFFFFFFFFFFFFFFFFFFFFFFFFFFFFFFFFFFFFFFFF AND PUSH20 0xFFFFFFFFFFFFFFFFFFFFFFFFFFFFFFFFFFFFFFFF AND DUP2 MSTORE PUSH1 0x20 ADD SWAP1 DUP2 MSTORE PUSH1 0x20 ADD PUSH1 0x0 KECCAK256 PUSH1 0x0 DUP4 PUSH20 0xFFFFFFFFFFFFFFFFFFFFFFFFFFFFFFFFFFFFFFFF AND PUSH20 0xFFFFFFFFFFFFFFFFFFFFFFFFFFFFFFFFFFFFFFFF AND DUP2 MSTORE PUSH1 0x20 ADD SWAP1 DUP2 MSTORE PUSH1 0x20 ADD PUSH1 0x0 KECCAK256 SLOAD SWAP1 POP SWAP3 SWAP2 POP POP JUMP JUMPDEST PUSH1 0x0 PUSH20 0xFFFFFFFFFFFFFFFFFFFFFFFFFFFFFFFFFFFFFFFF AND DUP4 PUSH20 0xFFFFFFFFFFFFFFFFFFFFFFFFFFFFFFFFFFFFFFFF AND EQ ISZERO PUSH2 0x13F2 JUMPI PUSH1 0x40 MLOAD PUSH32 0x8C379A000000000000000000000000000000000000000000000000000000000 DUP2 MSTORE PUSH1 0x4 ADD PUSH2 0x13E9 SWAP1 PUSH2 0x2B19 JUMP JUMPDEST PUSH1 0x40 MLOAD DUP1 SWAP2 SUB SWAP1 REVERT JUMPDEST PUSH1 0x0 PUSH20 0xFFFFFFFFFFFFFFFFFFFFFFFFFFFFFFFFFFFFFFFF AND DUP3 PUSH20 0xFFFFFFFFFFFFFFFFFFFFFFFFFFFFFFFFFFFFFFFF AND EQ ISZERO PUSH2 0x1462 JUMPI PUSH1 0x40 MLOAD PUSH32 0x8C379A000000000000000000000000000000000000000000000000000000000 DUP2 MSTORE PUSH1 0x4 ADD PUSH2 0x1459 SWAP1 PUSH2 0x29D9 JUMP JUMPDEST PUSH1 0x40 MLOAD DUP1 SWAP2 SUB SWAP1 REVERT JUMPDEST DUP1 PUSH1 0x1 PUSH1 0x0 DUP6 PUSH20 0xFFFFFFFFFFFFFFFFFFFFFFFFFFFFFFFFFFFFFFFF AND PUSH20 0xFFFFFFFFFFFFFFFFFFFFFFFFFFFFFFFFFFFFFFFF AND DUP2 MSTORE PUSH1 0x20 ADD SWAP1 DUP2 MSTORE PUSH1 0x20 ADD PUSH1 0x0 KECCAK256 PUSH1 0x0 DUP5 PUSH20 0xFFFFFFFFFFFFFFFFFFFFFFFFFFFFFFFFFFFFFFFF AND PUSH20 0xFFFFFFFFFFFFFFFFFFFFFFFFFFFFFFFFFFFFFFFF AND DUP2 MSTORE PUSH1 0x20 ADD SWAP1 DUP2 MSTORE PUSH1 0x20 ADD PUSH1 0x0 KECCAK256 DUP2 SWAP1 SSTORE POP DUP2 PUSH20 0xFFFFFFFFFFFFFFFFFFFFFFFFFFFFFFFFFFFFFFFF AND DUP4 PUSH20 0xFFFFFFFFFFFFFFFFFFFFFFFFFFFFFFFFFFFFFFFF AND PUSH32 0x8C5BE1E5EBEC7D5BD14F71427D1E84F3DD0314C0F7B2291E5B200AC8C7C3B925 DUP4 PUSH1 0x40 MLOAD PUSH2 0x1540 SWAP2 SWAP1 PUSH2 0x2B59 JUMP JUMPDEST PUSH1 0x40 MLOAD DUP1 SWAP2 SUB SWAP1 LOG3 POP POP POP JUMP JUMPDEST PUSH1 0x0 PUSH20 0xFFFFFFFFFFFFFFFFFFFFFFFFFFFFFFFFFFFFFFFF AND DUP4 PUSH20 0xFFFFFFFFFFFFFFFFFFFFFFFFFFFFFFFFFFFFFFFF AND EQ ISZERO PUSH2 0x15BD JUMPI PUSH1 0x40 MLOAD PUSH32 0x8C379A000000000000000000000000000000000000000000000000000000000 DUP2 MSTORE PUSH1 0x4 ADD PUSH2 0x15B4 SWAP1 PUSH2 0x2A99 JUMP JUMPDEST PUSH1 0x40 MLOAD DUP1 SWAP2 SUB SWAP1 REVERT JUMPDEST PUSH1 0x0 PUSH20 0xFFFFFFFFFFFFFFFFFFFFFFFFFFFFFFFFFFFFFFFF AND DUP3 PUSH20 0xFFFFFFFFFFFFFFFFFFFFFFFFFFFFFFFFFFFFFFFF AND EQ ISZERO PUSH2 0x162D JUMPI PUSH1 0x40 MLOAD PUSH32 0x8C379A000000000000000000000000000000000000000000000000000000000 DUP2 MSTORE PUSH1 0x4 ADD PUSH2 0x1624 SWAP1 PUSH2 0x2959 JUMP JUMPDEST PUSH1 0x40 MLOAD DUP1 SWAP2 SUB SWAP1 REVERT JUMPDEST PUSH2 0x1698 DUP2 PUSH1 0x40 MLOAD DUP1 PUSH1 0x60 ADD PUSH1 0x40 MSTORE DUP1 PUSH1 0x26 DUP2 MSTORE PUSH1 0x20 ADD PUSH2 0x2D79 PUSH1 0x26 SWAP2 CODECOPY PUSH1 0x0 DUP1 DUP8 PUSH20 0xFFFFFFFFFFFFFFFFFFFFFFFFFFFFFFFFFFFFFFFF AND PUSH20 0xFFFFFFFFFFFFFFFFFFFFFFFFFFFFFFFFFFFFFFFF AND DUP2 MSTORE PUSH1 0x20 ADD SWAP1 DUP2 MSTORE PUSH1 0x20 ADD PUSH1 0x0 KECCAK256 SLOAD PUSH2 0x17D7 SWAP1 SWAP3 SWAP2 SWAP1 PUSH4 0xFFFFFFFF AND JUMP JUMPDEST PUSH1 0x0 DUP1 DUP6 PUSH20 0xFFFFFFFFFFFFFFFFFFFFFFFFFFFFFFFFFFFFFFFF AND PUSH20 0xFFFFFFFFFFFFFFFFFFFFFFFFFFFFFFFFFFFFFFFF AND DUP2 MSTORE PUSH1 0x20 ADD SWAP1 DUP2 MSTORE PUSH1 0x20 ADD PUSH1 0x0 KECCAK256 DUP2 SWAP1 SSTORE POP PUSH2 0x172B DUP2 PUSH1 0x0 DUP1 DUP6 PUSH20 0xFFFFFFFFFFFFFFFFFFFFFFFFFFFFFFFFFFFFFFFF AND PUSH20 0xFFFFFFFFFFFFFFFFFFFFFFFFFFFFFFFFFFFFFFFF AND DUP2 MSTORE PUSH1 0x20 ADD SWAP1 DUP2 MSTORE PUSH1 0x20 ADD PUSH1 0x0 KECCAK256 SLOAD PUSH2 0x1CEA SWAP1 SWAP2 SWAP1 PUSH4 0xFFFFFFFF AND JUMP JUMPDEST PUSH1 0x0 DUP1 DUP5 PUSH20 0xFFFFFFFFFFFFFFFFFFFFFFFFFFFFFFFFFFFFFFFF AND PUSH20 0xFFFFFFFFFFFFFFFFFFFFFFFFFFFFFFFFFFFFFFFF AND DUP2 MSTORE PUSH1 0x20 ADD SWAP1 DUP2 MSTORE PUSH1 0x20 ADD PUSH1 0x0 KECCAK256 DUP2 SWAP1 SSTORE POP DUP2 PUSH20 0xFFFFFFFFFFFFFFFFFFFFFFFFFFFFFFFFFFFFFFFF AND DUP4 PUSH20 0xFFFFFFFFFFFFFFFFFFFFFFFFFFFFFFFFFFFFFFFF AND PUSH32 0xDDF252AD1BE2C89B69C2B068FC378DAA952BA7F163C4A11628F55A4DF523B3EF DUP4 PUSH1 0x40 MLOAD PUSH2 0x17CA SWAP2 SWAP1 PUSH2 0x2B59 JUMP JUMPDEST PUSH1 0x40 MLOAD DUP1 SWAP2 SUB SWAP1 LOG3 POP POP POP JUMP JUMPDEST PUSH1 0x0 DUP4 DUP4 GT ISZERO DUP3 SWAP1 PUSH2 0x181F JUMPI PUSH1 0x40 MLOAD PUSH32 0x8C379A000000000000000000000000000000000000000000000000000000000 DUP2 MSTORE PUSH1 0x4 ADD PUSH2 0x1816 SWAP2 SWAP1 PUSH2 0x2937 JUMP JUMPDEST PUSH1 0x40 MLOAD DUP1 SWAP2 SUB SWAP1 REVERT JUMPDEST POP PUSH1 0x0 DUP4 DUP6 SUB SWAP1 POP DUP1 SWAP2 POP POP SWAP4 SWAP3 POP POP POP JUMP JUMPDEST PUSH1 0x0 PUSH20 0xFFFFFFFFFFFFFFFFFFFFFFFFFFFFFFFFFFFFFFFF AND DUP3 PUSH20 0xFFFFFFFFFFFFFFFFFFFFFFFFFFFFFFFFFFFFFFFF AND EQ ISZERO PUSH2 0x18A2 JUMPI PUSH1 0x40 MLOAD PUSH32 0x8C379A000000000000000000000000000000000000000000000000000000000 DUP2 MSTORE PUSH1 0x4 ADD PUSH2 0x1899 SWAP1 PUSH2 0x2A79 JUMP JUMPDEST PUSH1 0x40 MLOAD DUP1 SWAP2 SUB SWAP1 REVERT JUMPDEST PUSH2 0x190D DUP2 PUSH1 0x40 MLOAD DUP1 PUSH1 0x60 ADD PUSH1 0x40 MSTORE DUP1 PUSH1 0x22 DUP2 MSTORE PUSH1 0x20 ADD PUSH2 0x2D57 PUSH1 0x22 SWAP2 CODECOPY PUSH1 0x0 DUP1 DUP7 PUSH20 0xFFFFFFFFFFFFFFFFFFFFFFFFFFFFFFFFFFFFFFFF AND PUSH20 0xFFFFFFFFFFFFFFFFFFFFFFFFFFFFFFFFFFFFFFFF AND DUP2 MSTORE PUSH1 0x20 ADD SWAP1 DUP2 MSTORE PUSH1 0x20 ADD PUSH1 0x0 KECCAK256 SLOAD PUSH2 0x17D7 SWAP1 SWAP3 SWAP2 SWAP1 PUSH4 0xFFFFFFFF AND JUMP JUMPDEST PUSH1 0x0 DUP1 DUP5 PUSH20 0xFFFFFFFFFFFFFFFFFFFFFFFFFFFFFFFFFFFFFFFF AND PUSH20 0xFFFFFFFFFFFFFFFFFFFFFFFFFFFFFFFFFFFFFFFF AND DUP2 MSTORE PUSH1 0x20 ADD SWAP1 DUP2 MSTORE PUSH1 0x20 ADD PUSH1 0x0 KECCAK256 DUP2 SWAP1 SSTORE POP PUSH2 0x1964 DUP2 PUSH1 0x2 SLOAD PUSH2 0x1D34 SWAP1 SWAP2 SWAP1 PUSH4 0xFFFFFFFF AND JUMP JUMPDEST PUSH1 0x2 DUP2 SWAP1 SSTORE POP PUSH1 0x0 PUSH20 0xFFFFFFFFFFFFFFFFFFFFFFFFFFFFFFFFFFFFFFFF AND DUP3 PUSH20 0xFFFFFFFFFFFFFFFFFFFFFFFFFFFFFFFFFFFFFFFF AND PUSH32 0xDDF252AD1BE2C89B69C2B068FC378DAA952BA7F163C4A11628F55A4DF523B3EF DUP4 PUSH1 0x40 MLOAD PUSH2 0x19C8 SWAP2 SWAP1 PUSH2 0x2B59 JUMP JUMPDEST PUSH1 0x40 MLOAD DUP1 SWAP2 SUB SWAP1 LOG3 POP POP JUMP JUMPDEST PUSH1 0x0 DUP2 PUSH1 0x40 MLOAD PUSH1 0x20 ADD PUSH2 0x19E7 SWAP2 SWAP1 PUSH2 0x27E8 JUMP JUMPDEST PUSH1 0x40 MLOAD PUSH1 0x20 DUP2 DUP4 SUB SUB DUP2 MSTORE SWAP1 PUSH1 0x40 MSTORE DUP1 MLOAD SWAP1 PUSH1 0x20 ADD KECCAK256 SWAP1 POP SWAP2 SWAP1 POP JUMP JUMPDEST PUSH1 0x0 DUP1 PUSH1 0x0 DUP1 PUSH1 0x41 DUP6 MLOAD EQ ISZERO PUSH2 0x1A31 JUMPI PUSH1 0x20 DUP6 ADD MLOAD SWAP3 POP PUSH1 0x40 DUP6 ADD MLOAD SWAP2 POP PUSH1 0x60 DUP6 ADD MLOAD PUSH1 0x0 BYTE SWAP1 POP PUSH2 0x1AB9 JUMP JUMPDEST PUSH1 0x40 DUP6 MLOAD EQ ISZERO PUSH2 0x1A7D JUMPI PUSH1 0x20 DUP6 ADD MLOAD SWAP3 POP PUSH32 0x7FFFFFFFFFFFFFFFFFFFFFFFFFFFFFFFFFFFFFFFFFFFFFFFFFFFFFFFFFFFFFFF PUSH1 0x40 DUP7 ADD MLOAD AND SWAP2 POP PUSH1 0x40 DUP6 ADD MLOAD PUSH1 0x0 BYTE PUSH1 0x7 SHR SWAP1 POP PUSH2 0x1AB8 JUMP JUMPDEST PUSH1 0x40 MLOAD PUSH32 0x8C379A000000000000000000000000000000000000000000000000000000000 DUP2 MSTORE PUSH1 0x4 ADD PUSH2 0x1AAF SWAP1 PUSH2 0x2AB9 JUMP JUMPDEST PUSH1 0x40 MLOAD DUP1 SWAP2 SUB SWAP1 REVERT JUMPDEST JUMPDEST PUSH1 0x1B DUP2 PUSH1 0xFF AND LT ISZERO PUSH2 0x1ACC JUMPI PUSH1 0x1B DUP2 ADD SWAP1 POP JUMPDEST PUSH1 0x1B DUP2 PUSH1 0xFF AND EQ DUP1 PUSH2 0x1AE1 JUMPI POP PUSH1 0x1C DUP2 PUSH1 0xFF AND EQ JUMPDEST PUSH2 0x1AEA JUMPI PUSH1 0x0 DUP1 REVERT JUMPDEST PUSH1 0x1 DUP7 DUP3 DUP6 DUP6 PUSH1 0x40 MLOAD PUSH1 0x0 DUP2 MSTORE PUSH1 0x20 ADD PUSH1 0x40 MSTORE PUSH1 0x40 MLOAD PUSH2 0x1B0D SWAP5 SWAP4 SWAP3 SWAP2 SWAP1 PUSH2 0x28F2 JUMP JUMPDEST PUSH1 0x20 PUSH1 0x40 MLOAD PUSH1 0x20 DUP2 SUB SWAP1 DUP1 DUP5 SUB SWAP1 DUP6 GAS STATICCALL ISZERO DUP1 ISZERO PUSH2 0x1B2F JUMPI RETURNDATASIZE PUSH1 0x0 DUP1 RETURNDATACOPY RETURNDATASIZE PUSH1 0x0 REVERT JUMPDEST POP POP POP PUSH1 0x20 PUSH1 0x40 MLOAD SUB MLOAD SWAP4 POP POP POP POP SWAP3 SWAP2 POP POP JUMP JUMPDEST PUSH2 0x1B4F DUP3 ADDRESS DUP4 PUSH2 0x154D JUMP JUMPDEST POP POP JUMP JUMPDEST PUSH2 0x1B5E ADDRESS DUP4 DUP4 PUSH2 0x154D JUMP JUMPDEST POP POP JUMP JUMPDEST PUSH1 0x0 PUSH20 0xFFFFFFFFFFFFFFFFFFFFFFFFFFFFFFFFFFFFFFFF AND DUP3 PUSH20 0xFFFFFFFFFFFFFFFFFFFFFFFFFFFFFFFFFFFFFFFF AND EQ ISZERO PUSH2 0x1BD2 JUMPI PUSH1 0x40 MLOAD PUSH32 0x8C379A000000000000000000000000000000000000000000000000000000000 DUP2 MSTORE PUSH1 0x4 ADD PUSH2 0x1BC9 SWAP1 PUSH2 0x2B39 JUMP JUMPDEST PUSH1 0x40 MLOAD DUP1 SWAP2 SUB SWAP1 REVERT JUMPDEST PUSH2 0x1BE7 DUP2 PUSH1 0x2 SLOAD PUSH2 0x1CEA SWAP1 SWAP2 SWAP1 PUSH4 0xFFFFFFFF AND JUMP JUMPDEST PUSH1 0x2 DUP2 SWAP1 SSTORE POP PUSH2 0x1C3E DUP2 PUSH1 0x0 DUP1 DUP6 PUSH20 0xFFFFFFFFFFFFFFFFFFFFFFFFFFFFFFFFFFFFFFFF AND PUSH20 0xFFFFFFFFFFFFFFFFFFFFFFFFFFFFFFFFFFFFFFFF AND DUP2 MSTORE PUSH1 0x20 ADD SWAP1 DUP2 MSTORE PUSH1 0x20 ADD PUSH1 0x0 KECCAK256 SLOAD PUSH2 0x1CEA SWAP1 SWAP2 SWAP1 PUSH4 0xFFFFFFFF AND JUMP JUMPDEST PUSH1 0x0 DUP1 DUP5 PUSH20 0xFFFFFFFFFFFFFFFFFFFFFFFFFFFFFFFFFFFFFFFF AND PUSH20 0xFFFFFFFFFFFFFFFFFFFFFFFFFFFFFFFFFFFFFFFF AND DUP2 MSTORE PUSH1 0x20 ADD SWAP1 DUP2 MSTORE PUSH1 0x20 ADD PUSH1 0x0 KECCAK256 DUP2 SWAP1 SSTORE POP DUP2 PUSH20 0xFFFFFFFFFFFFFFFFFFFFFFFFFFFFFFFFFFFFFFFF AND PUSH1 0x0 PUSH20 0xFFFFFFFFFFFFFFFFFFFFFFFFFFFFFFFFFFFFFFFF AND PUSH32 0xDDF252AD1BE2C89B69C2B068FC378DAA952BA7F163C4A11628F55A4DF523B3EF DUP4 PUSH1 0x40 MLOAD PUSH2 0x1CDE SWAP2 SWAP1 PUSH2 0x2B59 JUMP JUMPDEST PUSH1 0x40 MLOAD DUP1 SWAP2 SUB SWAP1 LOG3 POP POP JUMP JUMPDEST PUSH1 0x0 PUSH2 0x1D2C DUP4 DUP4 PUSH1 0x40 MLOAD DUP1 PUSH1 0x40 ADD PUSH1 0x40 MSTORE DUP1 PUSH1 0x1B DUP2 MSTORE PUSH1 0x20 ADD PUSH32 0x536166654D6174683A206164646974696F6E206F766572666C6F770000000000 DUP2 MSTORE POP PUSH2 0x1D7E JUMP JUMPDEST SWAP1 POP SWAP3 SWAP2 POP POP JUMP JUMPDEST PUSH1 0x0 PUSH2 0x1D76 DUP4 DUP4 PUSH1 0x40 MLOAD DUP1 PUSH1 0x40 ADD PUSH1 0x40 MSTORE DUP1 PUSH1 0x1E DUP2 MSTORE PUSH1 0x20 ADD PUSH32 0x536166654D6174683A207375627472616374696F6E206F766572666C6F770000 DUP2 MSTORE POP PUSH2 0x17D7 JUMP JUMPDEST SWAP1 POP SWAP3 SWAP2 POP POP JUMP JUMPDEST PUSH1 0x0 DUP1 DUP4 DUP6 ADD SWAP1 POP DUP5 DUP2 LT ISZERO DUP4 SWAP1 PUSH2 0x1DCC JUMPI PUSH1 0x40 MLOAD PUSH32 0x8C379A000000000000000000000000000000000000000000000000000000000 DUP2 MSTORE PUSH1 0x4 ADD PUSH2 0x1DC3 SWAP2 SWAP1 PUSH2 0x2937 JUMP JUMPDEST PUSH1 0x40 MLOAD DUP1 SWAP2 SUB SWAP1 REVERT JUMPDEST POP DUP1 SWAP2 POP POP SWAP4 SWAP3 POP POP POP JUMP JUMPDEST PUSH1 0x0 DUP2 CALLDATALOAD SWAP1 POP PUSH2 0x1DE7 DUP2 PUSH2 0x2D11 JUMP JUMPDEST SWAP3 SWAP2 POP POP JUMP JUMPDEST PUSH1 0x0 DUP2 CALLDATALOAD SWAP1 POP PUSH2 0x1DFC DUP2 PUSH2 0x2D28 JUMP JUMPDEST SWAP3 SWAP2 POP POP JUMP JUMPDEST PUSH1 0x0 DUP3 PUSH1 0x1F DUP4 ADD SLT PUSH2 0x1E13 JUMPI PUSH1 0x0 DUP1 REVERT JUMPDEST DUP2 CALLDATALOAD PUSH2 0x1E26 PUSH2 0x1E21 DUP3 PUSH2 0x2BBC JUMP JUMPDEST PUSH2 0x2B8F JUMP JUMPDEST SWAP2 POP DUP1 DUP3 MSTORE PUSH1 0x20 DUP4 ADD PUSH1 0x20 DUP4 ADD DUP6 DUP4 DUP4 ADD GT ISZERO PUSH2 0x1E42 JUMPI PUSH1 0x0 DUP1 REVERT JUMPDEST PUSH2 0x1E4D DUP4 DUP3 DUP5 PUSH2 0x2C79 JUMP JUMPDEST POP POP POP SWAP3 SWAP2 POP POP JUMP JUMPDEST PUSH1 0x0 PUSH1 0x80 DUP3 DUP5 SUB SLT ISZERO PUSH2 0x1E68 JUMPI PUSH1 0x0 DUP1 REVERT JUMPDEST PUSH2 0x1E72 PUSH1 0x80 PUSH2 0x2B8F JUMP JUMPDEST SWAP1 POP PUSH1 0x0 PUSH2 0x1E82 DUP5 DUP3 DUP6 ADD PUSH2 0x1DD8 JUMP JUMPDEST PUSH1 0x0 DUP4 ADD MSTORE POP PUSH1 0x20 PUSH2 0x1E96 DUP5 DUP3 DUP6 ADD PUSH2 0x1DED JUMP JUMPDEST PUSH1 0x20 DUP4 ADD MSTORE POP PUSH1 0x40 PUSH2 0x1EAA DUP5 DUP3 DUP6 ADD PUSH2 0x1EE2 JUMP JUMPDEST PUSH1 0x40 DUP4 ADD MSTORE POP PUSH1 0x60 DUP3 ADD CALLDATALOAD PUSH8 0xFFFFFFFFFFFFFFFF DUP2 GT ISZERO PUSH2 0x1ECA JUMPI PUSH1 0x0 DUP1 REVERT JUMPDEST PUSH2 0x1ED6 DUP5 DUP3 DUP6 ADD PUSH2 0x1E02 JUMP JUMPDEST PUSH1 0x60 DUP4 ADD MSTORE POP SWAP3 SWAP2 POP POP JUMP JUMPDEST PUSH1 0x0 DUP2 CALLDATALOAD SWAP1 POP PUSH2 0x1EF1 DUP2 PUSH2 0x2D3F JUMP JUMPDEST SWAP3 SWAP2 POP POP JUMP JUMPDEST PUSH1 0x0 PUSH1 0x20 DUP3 DUP5 SUB SLT ISZERO PUSH2 0x1F09 JUMPI PUSH1 0x0 DUP1 REVERT JUMPDEST PUSH1 0x0 PUSH2 0x1F17 DUP5 DUP3 DUP6 ADD PUSH2 0x1DD8 JUMP JUMPDEST SWAP2 POP POP SWAP3 SWAP2 POP POP JUMP JUMPDEST PUSH1 0x0 DUP1 PUSH1 0x40 DUP4 DUP6 SUB SLT ISZERO PUSH2 0x1F33 JUMPI PUSH1 0x0 DUP1 REVERT JUMPDEST PUSH1 0x0 PUSH2 0x1F41 DUP6 DUP3 DUP7 ADD PUSH2 0x1DD8 JUMP JUMPDEST SWAP3 POP POP PUSH1 0x20 PUSH2 0x1F52 DUP6 DUP3 DUP7 ADD PUSH2 0x1DD8 JUMP JUMPDEST SWAP2 POP POP SWAP3 POP SWAP3 SWAP1 POP JUMP JUMPDEST PUSH1 0x0 DUP1 PUSH1 0x0 PUSH1 0x60 DUP5 DUP7 SUB SLT ISZERO PUSH2 0x1F71 JUMPI PUSH1 0x0 DUP1 REVERT JUMPDEST PUSH1 0x0 PUSH2 0x1F7F DUP7 DUP3 DUP8 ADD PUSH2 0x1DD8 JUMP JUMPDEST SWAP4 POP POP PUSH1 0x20 PUSH2 0x1F90 DUP7 DUP3 DUP8 ADD PUSH2 0x1DD8 JUMP JUMPDEST SWAP3 POP POP PUSH1 0x40 PUSH2 0x1FA1 DUP7 DUP3 DUP8 ADD PUSH2 0x1EE2 JUMP JUMPDEST SWAP2 POP POP SWAP3 POP SWAP3 POP SWAP3 JUMP JUMPDEST PUSH1 0x0 DUP1 PUSH1 0x40 DUP4 DUP6 SUB SLT ISZERO PUSH2 0x1FBE JUMPI PUSH1 0x0 DUP1 REVERT JUMPDEST PUSH1 0x0 PUSH2 0x1FCC DUP6 DUP3 DUP7 ADD PUSH2 0x1DD8 JUMP JUMPDEST SWAP3 POP POP PUSH1 0x20 PUSH2 0x1FDD DUP6 DUP3 DUP7 ADD PUSH2 0x1EE2 JUMP JUMPDEST SWAP2 POP POP SWAP3 POP SWAP3 SWAP1 POP JUMP JUMPDEST PUSH1 0x0 PUSH1 0x20 DUP3 DUP5 SUB SLT ISZERO PUSH2 0x1FF9 JUMPI PUSH1 0x0 DUP1 REVERT JUMPDEST PUSH1 0x0 PUSH2 0x2007 DUP5 DUP3 DUP6 ADD PUSH2 0x1DED JUMP JUMPDEST SWAP2 POP POP SWAP3 SWAP2 POP POP JUMP JUMPDEST PUSH1 0x0 DUP1 PUSH1 0x0 PUSH1 0x60 DUP5 DUP7 SUB SLT ISZERO PUSH2 0x2025 JUMPI PUSH1 0x0 DUP1 REVERT JUMPDEST PUSH1 0x0 PUSH2 0x2033 DUP7 DUP3 DUP8 ADD PUSH2 0x1DED JUMP JUMPDEST SWAP4 POP POP PUSH1 0x20 PUSH2 0x2044 DUP7 DUP3 DUP8 ADD PUSH2 0x1DD8 JUMP JUMPDEST SWAP3 POP POP PUSH1 0x40 PUSH2 0x2055 DUP7 DUP3 DUP8 ADD PUSH2 0x1DED JUMP JUMPDEST SWAP2 POP POP SWAP3 POP SWAP3 POP SWAP3 JUMP JUMPDEST PUSH1 0x0 PUSH1 0x20 DUP3 DUP5 SUB SLT ISZERO PUSH2 0x2071 JUMPI PUSH1 0x0 DUP1 REVERT JUMPDEST PUSH1 0x0 DUP3 ADD CALLDATALOAD PUSH8 0xFFFFFFFFFFFFFFFF DUP2 GT ISZERO PUSH2 0x208B JUMPI PUSH1 0x0 DUP1 REVERT JUMPDEST PUSH2 0x2097 DUP5 DUP3 DUP6 ADD PUSH2 0x1E56 JUMP JUMPDEST SWAP2 POP POP SWAP3 SWAP2 POP POP JUMP JUMPDEST PUSH1 0x0 DUP1 PUSH1 0x40 DUP4 DUP6 SUB SLT ISZERO PUSH2 0x20B3 JUMPI PUSH1 0x0 DUP1 REVERT JUMPDEST PUSH1 0x0 DUP4 ADD CALLDATALOAD PUSH8 0xFFFFFFFFFFFFFFFF DUP2 GT ISZERO PUSH2 0x20CD JUMPI PUSH1 0x0 DUP1 REVERT JUMPDEST PUSH2 0x20D9 DUP6 DUP3 DUP7 ADD PUSH2 0x1E56 JUMP JUMPDEST SWAP3 POP POP PUSH1 0x20 DUP4 ADD CALLDATALOAD PUSH8 0xFFFFFFFFFFFFFFFF DUP2 GT ISZERO PUSH2 0x20F6 JUMPI PUSH1 0x0 DUP1 REVERT JUMPDEST PUSH2 0x2102 DUP6 DUP3 DUP7 ADD PUSH2 0x1E56 JUMP JUMPDEST SWAP2 POP POP SWAP3 POP SWAP3 SWAP1 POP JUMP JUMPDEST PUSH1 0x0 PUSH1 0x20 DUP3 DUP5 SUB SLT ISZERO PUSH2 0x211E JUMPI PUSH1 0x0 DUP1 REVERT JUMPDEST PUSH1 0x0 PUSH2 0x212C DUP5 DUP3 DUP6 ADD PUSH2 0x1EE2 JUMP JUMPDEST SWAP2 POP POP SWAP3 SWAP2 POP POP JUMP JUMPDEST PUSH2 0x213E DUP2 PUSH2 0x2C1A JUMP JUMPDEST DUP3 MSTORE POP POP JUMP JUMPDEST PUSH2 0x2155 PUSH2 0x2150 DUP3 PUSH2 0x2C1A JUMP JUMPDEST PUSH2 0x2CBB JUMP JUMPDEST DUP3 MSTORE POP POP JUMP JUMPDEST PUSH2 0x2164 DUP2 PUSH2 0x2C2C JUMP JUMPDEST DUP3 MSTORE POP POP JUMP JUMPDEST PUSH2 0x2173 DUP2 PUSH2 0x2C38 JUMP JUMPDEST DUP3 MSTORE POP POP JUMP JUMPDEST PUSH2 0x218A PUSH2 0x2185 DUP3 PUSH2 0x2C38 JUMP JUMPDEST PUSH2 0x2CCD JUMP JUMPDEST DUP3 MSTORE POP POP JUMP JUMPDEST PUSH1 0x0 PUSH2 0x219B DUP3 PUSH2 0x2BE8 JUMP JUMPDEST PUSH2 0x21A5 DUP2 DUP6 PUSH2 0x2BFE JUMP JUMPDEST SWAP4 POP PUSH2 0x21B5 DUP2 DUP6 PUSH1 0x20 DUP7 ADD PUSH2 0x2C88 JUMP JUMPDEST PUSH2 0x21BE DUP2 PUSH2 0x2CF3 JUMP JUMPDEST DUP5 ADD SWAP2 POP POP SWAP3 SWAP2 POP POP JUMP JUMPDEST PUSH1 0x0 PUSH2 0x21D6 PUSH1 0x23 DUP4 PUSH2 0x2BFE JUMP JUMPDEST SWAP2 POP PUSH32 0x45524332303A207472616E7366657220746F20746865207A65726F2061646472 PUSH1 0x0 DUP4 ADD MSTORE PUSH32 0x6573730000000000000000000000000000000000000000000000000000000000 PUSH1 0x20 DUP4 ADD MSTORE PUSH1 0x40 DUP3 ADD SWAP1 POP SWAP2 SWAP1 POP JUMP JUMPDEST PUSH1 0x0 PUSH2 0x223C PUSH1 0xC DUP4 PUSH2 0x2BFE JUMP JUMPDEST SWAP2 POP PUSH32 0x67616D65206973206F7665720000000000000000000000000000000000000000 PUSH1 0x0 DUP4 ADD MSTORE PUSH1 0x20 DUP3 ADD SWAP1 POP SWAP2 SWAP1 POP JUMP JUMPDEST PUSH1 0x0 PUSH2 0x227C PUSH1 0x1C DUP4 PUSH2 0x2C0F JUMP JUMPDEST SWAP2 POP PUSH32 0x19457468657265756D205369676E6564204D6573736167653A0A333200000000 PUSH1 0x0 DUP4 ADD MSTORE PUSH1 0x1C DUP3 ADD SWAP1 POP SWAP2 SWAP1 POP JUMP JUMPDEST PUSH1 0x0 PUSH2 0x22BC PUSH1 0x1D DUP4 PUSH2 0x2BFE JUMP JUMPDEST SWAP2 POP PUSH32 0x696E76616C6964207369676E617475726520666F7220706C6179657232000000 PUSH1 0x0 DUP4 ADD MSTORE PUSH1 0x20 DUP3 ADD SWAP1 POP SWAP2 SWAP1 POP JUMP JUMPDEST PUSH1 0x0 PUSH2 0x22FC PUSH1 0x10 DUP4 PUSH2 0x2BFE JUMP JUMPDEST SWAP2 POP PUSH32 0x67616D65206973207374696C6C206F6E00000000000000000000000000000000 PUSH1 0x0 DUP4 ADD MSTORE PUSH1 0x20 DUP3 ADD SWAP1 POP SWAP2 SWAP1 POP JUMP JUMPDEST PUSH1 0x0 PUSH2 0x233C PUSH1 0x22 DUP4 PUSH2 0x2BFE JUMP JUMPDEST SWAP2 POP PUSH32 0x45524332303A20617070726F766520746F20746865207A65726F206164647265 PUSH1 0x0 DUP4 ADD MSTORE PUSH32 0x7373000000000000000000000000000000000000000000000000000000000000 PUSH1 0x20 DUP4 ADD MSTORE PUSH1 0x40 DUP3 ADD SWAP1 POP SWAP2 SWAP1 POP JUMP JUMPDEST PUSH1 0x0 PUSH2 0x23A2 PUSH1 0x1D DUP4 PUSH2 0x2BFE JUMP JUMPDEST SWAP2 POP PUSH32 0x696E76616C6964207369676E617475726520666F7220706C6179657231000000 PUSH1 0x0 DUP4 ADD MSTORE PUSH1 0x20 DUP3 ADD SWAP1 POP SWAP2 SWAP1 POP JUMP JUMPDEST PUSH1 0x0 PUSH2 0x23E2 PUSH1 0x1A DUP4 PUSH2 0x2BFE JUMP JUMPDEST SWAP2 POP PUSH32 0x696E76616C69642073656372657420666F7220706C6179657231000000000000 PUSH1 0x0 DUP4 ADD MSTORE PUSH1 0x20 DUP3 ADD SWAP1 POP SWAP2 SWAP1 POP JUMP JUMPDEST PUSH1 0x0 PUSH2 0x2422 PUSH1 0xE DUP4 PUSH2 0x2BFE JUMP JUMPDEST SWAP2 POP PUSH32 0x696E76616C696420706C61796572000000000000000000000000000000000000 PUSH1 0x0 DUP4 ADD MSTORE PUSH1 0x20 DUP3 ADD SWAP1 POP SWAP2 SWAP1 POP JUMP JUMPDEST PUSH1 0x0 PUSH2 0x2462 PUSH1 0x1A DUP4 PUSH2 0x2BFE JUMP JUMPDEST SWAP2 POP PUSH32 0x696E76616C69642073656372657420666F7220706C6179657232000000000000 PUSH1 0x0 DUP4 ADD MSTORE PUSH1 0x20 DUP3 ADD SWAP1 POP SWAP2 SWAP1 POP JUMP JUMPDEST PUSH1 0x0 PUSH2 0x24A2 PUSH1 0x21 DUP4 PUSH2 0x2BFE JUMP JUMPDEST SWAP2 POP PUSH32 0x45524332303A206275726E2066726F6D20746865207A65726F20616464726573 PUSH1 0x0 DUP4 ADD MSTORE PUSH32 0x7300000000000000000000000000000000000000000000000000000000000000 PUSH1 0x20 DUP4 ADD MSTORE PUSH1 0x40 DUP3 ADD SWAP1 POP SWAP2 SWAP1 POP JUMP JUMPDEST PUSH1 0x0 PUSH2 0x2508 PUSH1 0x25 DUP4 PUSH2 0x2BFE JUMP JUMPDEST SWAP2 POP PUSH32 0x45524332303A207472616E736665722066726F6D20746865207A65726F206164 PUSH1 0x0 DUP4 ADD MSTORE PUSH32 0x6472657373000000000000000000000000000000000000000000000000000000 PUSH1 0x20 DUP4 ADD MSTORE PUSH1 0x40 DUP3 ADD SWAP1 POP SWAP2 SWAP1 POP JUMP JUMPDEST PUSH1 0x0 PUSH2 0x256E PUSH1 0x18 DUP4 PUSH2 0x2BFE JUMP JUMPDEST SWAP2 POP PUSH32 0x696E76616C69642D7369676E61747572652D666F726D61740000000000000000 PUSH1 0x0 DUP4 ADD MSTORE PUSH1 0x20 DUP3 ADD SWAP1 POP SWAP2 SWAP1 POP JUMP JUMPDEST PUSH1 0x0 PUSH2 0x25AE PUSH1 0x0 DUP4 PUSH2 0x2BF3 JUMP JUMPDEST SWAP2 POP PUSH1 0x0 DUP3 ADD SWAP1 POP SWAP2 SWAP1 POP JUMP JUMPDEST PUSH1 0x0 PUSH2 0x25C8 PUSH1 0x1E DUP4 PUSH2 0x2BFE JUMP JUMPDEST SWAP2 POP PUSH32 0x6F7264657220616C7265616479207573656420666F7220706C61796572310000 PUSH1 0x0 DUP4 ADD MSTORE PUSH1 0x20 DUP3 ADD SWAP1 POP SWAP2 SWAP1 POP JUMP JUMPDEST PUSH1 0x0 PUSH2 0x2608 PUSH1 0x1E DUP4 PUSH2 0x2BFE JUMP JUMPDEST SWAP2 POP PUSH32 0x6F7264657220616C7265616479207573656420666F7220706C61796572320000 PUSH1 0x0 DUP4 ADD MSTORE PUSH1 0x20 DUP3 ADD SWAP1 POP SWAP2 SWAP1 POP JUMP JUMPDEST PUSH1 0x0 PUSH2 0x2648 PUSH1 0x24 DUP4 PUSH2 0x2BFE JUMP JUMPDEST SWAP2 POP PUSH32 0x45524332303A20617070726F76652066726F6D20746865207A65726F20616464 PUSH1 0x0 DUP4 ADD MSTORE PUSH32 0x7265737300000000000000000000000000000000000000000000000000000000 PUSH1 0x20 DUP4 ADD MSTORE PUSH1 0x40 DUP3 ADD SWAP1 POP SWAP2 SWAP1 POP JUMP JUMPDEST PUSH1 0x0 PUSH2 0x26AE PUSH1 0x1F DUP4 PUSH2 0x2BFE JUMP JUMPDEST SWAP2 POP PUSH32 0x45524332303A206D696E7420746F20746865207A65726F206164647265737300 PUSH1 0x0 DUP4 ADD MSTORE PUSH1 0x20 DUP3 ADD SWAP1 POP SWAP2 SWAP1 POP JUMP JUMPDEST PUSH2 0x26EA DUP2 PUSH2 0x2C62 JUMP JUMPDEST DUP3 MSTORE POP POP JUMP JUMPDEST PUSH2 0x2701 PUSH2 0x26FC DUP3 PUSH2 0x2C62 JUMP JUMPDEST PUSH2 0x2CE9 JUMP JUMPDEST DUP3 MSTORE POP POP JUMP JUMPDEST PUSH2 0x2710 DUP2 PUSH2 0x2C6C JUMP JUMPDEST DUP3 MSTORE POP POP JUMP JUMPDEST PUSH1 0x0 PUSH2 0x2722 DUP3 DUP8 PUSH2 0x2144 JUMP JUMPDEST PUSH1 0x14 DUP3 ADD SWAP2 POP PUSH2 0x2732 DUP3 DUP7 PUSH2 0x2144 JUMP JUMPDEST PUSH1 0x14 DUP3 ADD SWAP2 POP PUSH2 0x2742 DUP3 DUP6 PUSH2 0x2179 JUMP JUMPDEST PUSH1 0x20 DUP3 ADD SWAP2 POP PUSH2 0x2752 DUP3 DUP5 PUSH2 0x26F0 JUMP JUMPDEST PUSH1 0x20 DUP3 ADD SWAP2 POP DUP2 SWAP1 POP SWAP6 SWAP5 POP POP POP POP POP JUMP JUMPDEST PUSH1 0x0 PUSH2 0x2770 DUP3 DUP7 PUSH2 0x2144 JUMP JUMPDEST PUSH1 0x14 DUP3 ADD SWAP2 POP PUSH2 0x2780 DUP3 DUP6 PUSH2 0x2179 JUMP JUMPDEST PUSH1 0x20 DUP3 ADD SWAP2 POP PUSH2 0x2790 DUP3 DUP5 PUSH2 0x2179 JUMP JUMPDEST PUSH1 0x20 DUP3 ADD SWAP2 POP DUP2 SWAP1 POP SWAP5 SWAP4 POP POP POP POP JUMP JUMPDEST PUSH1 0x0 PUSH2 0x27AD DUP3 DUP5 PUSH2 0x2179 JUMP JUMPDEST PUSH1 0x20 DUP3 ADD SWAP2 POP DUP2 SWAP1 POP SWAP3 SWAP2 POP POP JUMP JUMPDEST PUSH1 0x0 PUSH2 0x27C8 DUP3 DUP6 PUSH2 0x2179 JUMP JUMPDEST PUSH1 0x20 DUP3 ADD SWAP2 POP PUSH2 0x27D8 DUP3 DUP5 PUSH2 0x2179 JUMP JUMPDEST PUSH1 0x20 DUP3 ADD SWAP2 POP DUP2 SWAP1 POP SWAP4 SWAP3 POP POP POP JUMP JUMPDEST PUSH1 0x0 PUSH2 0x27F3 DUP3 PUSH2 0x226F JUMP JUMPDEST SWAP2 POP PUSH2 0x27FF DUP3 DUP5 PUSH2 0x2179 JUMP JUMPDEST PUSH1 0x20 DUP3 ADD SWAP2 POP DUP2 SWAP1 POP SWAP3 SWAP2 POP POP JUMP JUMPDEST PUSH1 0x0 PUSH2 0x2819 DUP3 PUSH2 0x25A1 JUMP JUMPDEST SWAP2 POP DUP2 SWAP1 POP SWAP2 SWAP1 POP JUMP JUMPDEST PUSH1 0x0 PUSH1 0x20 DUP3 ADD SWAP1 POP PUSH2 0x2838 PUSH1 0x0 DUP4 ADD DUP5 PUSH2 0x2135 JUMP JUMPDEST SWAP3 SWAP2 POP POP JUMP JUMPDEST PUSH1 0x0 PUSH2 0x100 DUP3 ADD SWAP1 POP PUSH2 0x2854 PUSH1 0x0 DUP4 ADD DUP12 PUSH2 0x2135 JUMP JUMPDEST PUSH2 0x2861 PUSH1 0x20 DUP4 ADD DUP11 PUSH2 0x2135 JUMP JUMPDEST PUSH2 0x286E PUSH1 0x40 DUP4 ADD DUP10 PUSH2 0x216A JUMP JUMPDEST PUSH2 0x287B PUSH1 0x60 DUP4 ADD DUP9 PUSH2 0x216A JUMP JUMPDEST PUSH2 0x2888 PUSH1 0x80 DUP4 ADD DUP8 PUSH2 0x216A JUMP JUMPDEST PUSH2 0x2895 PUSH1 0xA0 DUP4 ADD DUP7 PUSH2 0x216A JUMP JUMPDEST PUSH2 0x28A2 PUSH1 0xC0 DUP4 ADD DUP6 PUSH2 0x26E1 JUMP JUMPDEST PUSH2 0x28AF PUSH1 0xE0 DUP4 ADD DUP5 PUSH2 0x26E1 JUMP JUMPDEST SWAP10 SWAP9 POP POP POP POP POP POP POP POP POP JUMP JUMPDEST PUSH1 0x0 PUSH1 0x20 DUP3 ADD SWAP1 POP PUSH2 0x28D1 PUSH1 0x0 DUP4 ADD DUP5 PUSH2 0x215B JUMP JUMPDEST SWAP3 SWAP2 POP POP JUMP JUMPDEST PUSH1 0x0 PUSH1 0x20 DUP3 ADD SWAP1 POP PUSH2 0x28EC PUSH1 0x0 DUP4 ADD DUP5 PUSH2 0x216A JUMP JUMPDEST SWAP3 SWAP2 POP POP JUMP JUMPDEST PUSH1 0x0 PUSH1 0x80 DUP3 ADD SWAP1 POP PUSH2 0x2907 PUSH1 0x0 DUP4 ADD DUP8 PUSH2 0x216A JUMP JUMPDEST PUSH2 0x2914 PUSH1 0x20 DUP4 ADD DUP7 PUSH2 0x2707 JUMP JUMPDEST PUSH2 0x2921 PUSH1 0x40 DUP4 ADD DUP6 PUSH2 0x216A JUMP JUMPDEST PUSH2 0x292E PUSH1 0x60 DUP4 ADD DUP5 PUSH2 0x216A JUMP JUMPDEST SWAP6 SWAP5 POP POP POP POP POP JUMP JUMPDEST PUSH1 0x0 PUSH1 0x20 DUP3 ADD SWAP1 POP DUP2 DUP2 SUB PUSH1 0x0 DUP4 ADD MSTORE PUSH2 0x2951 DUP2 DUP5 PUSH2 0x2190 JUMP JUMPDEST SWAP1 POP SWAP3 SWAP2 POP POP JUMP JUMPDEST PUSH1 0x0 PUSH1 0x20 DUP3 ADD SWAP1 POP DUP2 DUP2 SUB PUSH1 0x0 DUP4 ADD MSTORE PUSH2 0x2972 DUP2 PUSH2 0x21C9 JUMP JUMPDEST SWAP1 POP SWAP2 SWAP1 POP JUMP JUMPDEST PUSH1 0x0 PUSH1 0x20 DUP3 ADD SWAP1 POP DUP2 DUP2 SUB PUSH1 0x0 DUP4 ADD MSTORE PUSH2 0x2992 DUP2 PUSH2 0x222F JUMP JUMPDEST SWAP1 POP SWAP2 SWAP1 POP JUMP JUMPDEST PUSH1 0x0 PUSH1 0x20 DUP3 ADD SWAP1 POP DUP2 DUP2 SUB PUSH1 0x0 DUP4 ADD MSTORE PUSH2 0x29B2 DUP2 PUSH2 0x22AF JUMP JUMPDEST SWAP1 POP SWAP2 SWAP1 POP JUMP JUMPDEST PUSH1 0x0 PUSH1 0x20 DUP3 ADD SWAP1 POP DUP2 DUP2 SUB PUSH1 0x0 DUP4 ADD MSTORE PUSH2 0x29D2 DUP2 PUSH2 0x22EF JUMP JUMPDEST SWAP1 POP SWAP2 SWAP1 POP JUMP JUMPDEST PUSH1 0x0 PUSH1 0x20 DUP3 ADD SWAP1 POP DUP2 DUP2 SUB PUSH1 0x0 DUP4 ADD MSTORE PUSH2 0x29F2 DUP2 PUSH2 0x232F JUMP JUMPDEST SWAP1 POP SWAP2 SWAP1 POP JUMP JUMPDEST PUSH1 0x0 PUSH1 0x20 DUP3 ADD SWAP1 POP DUP2 DUP2 SUB PUSH1 0x0 DUP4 ADD MSTORE PUSH2 0x2A12 DUP2 PUSH2 0x2395 JUMP JUMPDEST SWAP1 POP SWAP2 SWAP1 POP JUMP JUMPDEST PUSH1 0x0 PUSH1 0x20 DUP3 ADD SWAP1 POP DUP2 DUP2 SUB PUSH1 0x0 DUP4 ADD MSTORE PUSH2 0x2A32 DUP2 PUSH2 0x23D5 JUMP JUMPDEST SWAP1 POP SWAP2 SWAP1 POP JUMP JUMPDEST PUSH1 0x0 PUSH1 0x20 DUP3 ADD SWAP1 POP DUP2 DUP2 SUB PUSH1 0x0 DUP4 ADD MSTORE PUSH2 0x2A52 DUP2 PUSH2 0x2415 JUMP JUMPDEST SWAP1 POP SWAP2 SWAP1 POP JUMP JUMPDEST PUSH1 0x0 PUSH1 0x20 DUP3 ADD SWAP1 POP DUP2 DUP2 SUB PUSH1 0x0 DUP4 ADD MSTORE PUSH2 0x2A72 DUP2 PUSH2 0x2455 JUMP JUMPDEST SWAP1 POP SWAP2 SWAP1 POP JUMP JUMPDEST PUSH1 0x0 PUSH1 0x20 DUP3 ADD SWAP1 POP DUP2 DUP2 SUB PUSH1 0x0 DUP4 ADD MSTORE PUSH2 0x2A92 DUP2 PUSH2 0x2495 JUMP JUMPDEST SWAP1 POP SWAP2 SWAP1 POP JUMP JUMPDEST PUSH1 0x0 PUSH1 0x20 DUP3 ADD SWAP1 POP DUP2 DUP2 SUB PUSH1 0x0 DUP4 ADD MSTORE PUSH2 0x2AB2 DUP2 PUSH2 0x24FB JUMP JUMPDEST SWAP1 POP SWAP2 SWAP1 POP JUMP JUMPDEST PUSH1 0x0 PUSH1 0x20 DUP3 ADD SWAP1 POP DUP2 DUP2 SUB PUSH1 0x0 DUP4 ADD MSTORE PUSH2 0x2AD2 DUP2 PUSH2 0x2561 JUMP JUMPDEST SWAP1 POP SWAP2 SWAP1 POP JUMP JUMPDEST PUSH1 0x0 PUSH1 0x20 DUP3 ADD SWAP1 POP DUP2 DUP2 SUB PUSH1 0x0 DUP4 ADD MSTORE PUSH2 0x2AF2 DUP2 PUSH2 0x25BB JUMP JUMPDEST SWAP1 POP SWAP2 SWAP1 POP JUMP JUMPDEST PUSH1 0x0 PUSH1 0x20 DUP3 ADD SWAP1 POP DUP2 DUP2 SUB PUSH1 0x0 DUP4 ADD MSTORE PUSH2 0x2B12 DUP2 PUSH2 0x25FB JUMP JUMPDEST SWAP1 POP SWAP2 SWAP1 POP JUMP JUMPDEST PUSH1 0x0 PUSH1 0x20 DUP3 ADD SWAP1 POP DUP2 DUP2 SUB PUSH1 0x0 DUP4 ADD MSTORE PUSH2 0x2B32 DUP2 PUSH2 0x263B JUMP JUMPDEST SWAP1 POP SWAP2 SWAP1 POP JUMP JUMPDEST PUSH1 0x0 PUSH1 0x20 DUP3 ADD SWAP1 POP DUP2 DUP2 SUB PUSH1 0x0 DUP4 ADD MSTORE PUSH2 0x2B52 DUP2 PUSH2 0x26A1 JUMP JUMPDEST SWAP1 POP SWAP2 SWAP1 POP JUMP JUMPDEST PUSH1 0x0 PUSH1 0x20 DUP3 ADD SWAP1 POP PUSH2 0x2B6E PUSH1 0x0 DUP4 ADD DUP5 PUSH2 0x26E1 JUMP JUMPDEST SWAP3 SWAP2 POP POP JUMP JUMPDEST PUSH1 0x0 PUSH1 0x20 DUP3 ADD SWAP1 POP PUSH2 0x2B89 PUSH1 0x0 DUP4 ADD DUP5 PUSH2 0x2707 JUMP JUMPDEST SWAP3 SWAP2 POP POP JUMP JUMPDEST PUSH1 0x0 PUSH1 0x40 MLOAD SWAP1 POP DUP2 DUP2 ADD DUP2 DUP2 LT PUSH8 0xFFFFFFFFFFFFFFFF DUP3 GT OR ISZERO PUSH2 0x2BB2 JUMPI PUSH1 0x0 DUP1 REVERT JUMPDEST DUP1 PUSH1 0x40 MSTORE POP SWAP2 SWAP1 POP JUMP JUMPDEST PUSH1 0x0 PUSH8 0xFFFFFFFFFFFFFFFF DUP3 GT ISZERO PUSH2 0x2BD3 JUMPI PUSH1 0x0 DUP1 REVERT JUMPDEST PUSH1 0x1F NOT PUSH1 0x1F DUP4 ADD AND SWAP1 POP PUSH1 0x20 DUP2 ADD SWAP1 POP SWAP2 SWAP1 POP JUMP JUMPDEST PUSH1 0x0 DUP2 MLOAD SWAP1 POP SWAP2 SWAP1 POP JUMP JUMPDEST PUSH1 0x0 DUP2 SWAP1 POP SWAP3 SWAP2 POP POP JUMP JUMPDEST PUSH1 0x0 DUP3 DUP3 MSTORE PUSH1 0x20 DUP3 ADD SWAP1 POP SWAP3 SWAP2 POP POP JUMP JUMPDEST PUSH1 0x0 DUP2 SWAP1 POP SWAP3 SWAP2 POP POP JUMP JUMPDEST PUSH1 0x0 PUSH2 0x2C25 DUP3 PUSH2 0x2C42 JUMP JUMPDEST SWAP1 POP SWAP2 SWAP1 POP JUMP JUMPDEST PUSH1 0x0 DUP2 ISZERO ISZERO SWAP1 POP SWAP2 SWAP1 POP JUMP JUMPDEST PUSH1 0x0 DUP2 SWAP1 POP SWAP2 SWAP1 POP JUMP JUMPDEST PUSH1 0x0 PUSH20 0xFFFFFFFFFFFFFFFFFFFFFFFFFFFFFFFFFFFFFFFF DUP3 AND SWAP1 POP SWAP2 SWAP1 POP JUMP JUMPDEST PUSH1 0x0 DUP2 SWAP1 POP SWAP2 SWAP1 POP JUMP JUMPDEST PUSH1 0x0 PUSH1 0xFF DUP3 AND SWAP1 POP SWAP2 SWAP1 POP JUMP JUMPDEST DUP3 DUP2 DUP4 CALLDATACOPY PUSH1 0x0 DUP4 DUP4 ADD MSTORE POP POP POP JUMP JUMPDEST PUSH1 0x0 JUMPDEST DUP4 DUP2 LT ISZERO PUSH2 0x2CA6 JUMPI DUP1 DUP3 ADD MLOAD DUP2 DUP5 ADD MSTORE PUSH1 0x20 DUP2 ADD SWAP1 POP PUSH2 0x2C8B JUMP JUMPDEST DUP4 DUP2 GT ISZERO PUSH2 0x2CB5 JUMPI PUSH1 0x0 DUP5 DUP5 ADD MSTORE JUMPDEST POP POP POP POP JUMP JUMPDEST PUSH1 0x0 PUSH2 0x2CC6 DUP3 PUSH2 0x2CD7 JUMP JUMPDEST SWAP1 POP SWAP2 SWAP1 POP JUMP JUMPDEST PUSH1 0x0 DUP2 SWAP1 POP SWAP2 SWAP1 POP JUMP JUMPDEST PUSH1 0x0 PUSH2 0x2CE2 DUP3 PUSH2 0x2D04 JUMP JUMPDEST SWAP1 POP SWAP2 SWAP1 POP JUMP JUMPDEST PUSH1 0x0 DUP2 SWAP1 POP SWAP2 SWAP1 POP JUMP JUMPDEST PUSH1 0x0 PUSH1 0x1F NOT PUSH1 0x1F DUP4 ADD AND SWAP1 POP SWAP2 SWAP1 POP JUMP JUMPDEST PUSH1 0x0 DUP2 PUSH1 0x60 SHL SWAP1 POP SWAP2 SWAP1 POP JUMP JUMPDEST PUSH2 0x2D1A DUP2 PUSH2 0x2C1A JUMP JUMPDEST DUP2 EQ PUSH2 0x2D25 JUMPI PUSH1 0x0 DUP1 REVERT JUMPDEST POP JUMP JUMPDEST PUSH2 0x2D31 DUP2 PUSH2 0x2C38 JUMP JUMPDEST DUP2 EQ PUSH2 0x2D3C JUMPI PUSH1 0x0 DUP1 REVERT JUMPDEST POP JUMP JUMPDEST PUSH2 0x2D48 DUP2 PUSH2 0x2C62 JUMP JUMPDEST DUP2 EQ PUSH2 0x2D53 JUMPI PUSH1 0x0 DUP1 REVERT JUMPDEST POP JUMP INVALID GASLIMIT MSTORE NUMBER ORIGIN ADDRESS GASPRICE KECCAK256 PUSH3 0x75726E KECCAK256 PUSH2 0x6D6F PUSH22 0x6E7420657863656564732062616C616E636545524332 ADDRESS GASPRICE KECCAK256 PUSH21 0x72616E7366657220616D6F756E7420657863656564 PUSH20 0x2062616C616E636545524332303A207472616E73 PUSH7 0x657220616D6F75 PUSH15 0x74206578636565647320616C6C6F77 PUSH2 0x6E63 PUSH6 0xA365627A7A72 BALANCE PC KECCAK256 RETURNDATACOPY PUSH7 0x7A24179E8382E5 ORIGIN 0x4F DUP2 REVERT 0x5D GASPRICE 0xF8 INVALID 0x22 SWAP16 JUMPI 0xDF DIV 0x24 PUSH20 0xF8AD1AF05C68C23C6C6578706572696D656E7461 PUSH13 0xF564736F6C6343000510004000 "
    },
    "deployedBytecode": {
      "linkReferences": {},
      "object": "6080604052600436106101149061660c575060003560e01c8063877b954a116100a09061660c57508063a9059cbb116100649061660c57508063a9059cbb146103ab9061660c57508063ae21875e146103e89061660c57508063bd66528a146104259061660c57508063d0e30db01461044e9061660c57508063dd62ed3e146104589061660c575061011461660c565b8063877b954a146102cc9061660c5750806392584d80146103099061660c5750806395d89b41146103329061660c575080639fe9ada31461035d9061660c57508063a3e76c0f146103a19061660c575061011461660c565b80632e1a7d4d116100e79061660c575080632e1a7d4d146101e99061660c57508063313ce567146102129061660c5750806339a7aa231461023d9061660c5750806355640c4f146102669061660c5750806370a082311461028f9061660c575061011461660c565b806306fdde03146101199061660c57508063095ea7b3146101449061660c5750806318160ddd146101819061660c5750806323b872dd146101ac9061660c57505b600080fd5b3480156101259061660c5750600080fd5b5061012e61049561660c565b60405161013b919061293761660c565b60405180910390f35b3480156101509061660c5750600080fd5b5061016b60048036036101669190810190611fab61660c565b61053761660c565b60405161017891906128bc61660c565b60405180910390f35b34801561018d9061660c5750600080fd5b5061019661054e61660c565b6040516101a39190612b5961660c565b60405180910390f35b3480156101b89061660c5750600080fd5b506101d360048036036101ce9190810190611f5c61660c565b61055861660c565b6040516101e091906128bc61660c565b60405180910390f35b3480156101f59061660c5750600080fd5b50610210600480360361020b919081019061210c61660c565b61062361660c565b005b34801561021e9061660c5750600080fd5b506102276106e561660c565b6040516102349190612b7461660c565b60405180910390f35b3480156102499061660c5750600080fd5b50610264600480360361025f919081019061201061660c565b6106fc61660c565b005b3480156102729061660c5750600080fd5b5061028d600480360361028891908101906120a061660c565b6109b061660c565b005b34801561029b9061660c5750600080fd5b506102b660048036036102b19190810190611ef761660c565b610df761660c565b6040516102c39190612b5961660c565b60405180910390f35b3480156102d89061660c5750600080fd5b506102f360048036036102ee9190810190611fe761660c565b610e3f61660c565b60405161030091906128bc61660c565b60405180910390f35b3480156103159061660c5750600080fd5b50610330600480360361032b9190810190611fe761660c565b610e5f61660c565b005b34801561033e9061660c5750600080fd5b50610347610fcd61660c565b604051610354919061293761660c565b60405180910390f35b3480156103699061660c5750600080fd5b50610384600480360361037f9190810190611fe761660c565b61106f61660c565b60405161039898979695949392919061283e61660c565b60405180910390f35b6103a96110f761660c565b005b3480156103b79061660c5750600080fd5b506103d260048036036103cd9190810190611fab61660c565b61110361660c565b6040516103df91906128bc61660c565b60405180910390f35b3480156103f49061660c5750600080fd5b5061040f600480360361040a919081019061205f61660c565b61111a61660c565b60405161041c91906128d761660c565b60405180910390f35b3480156104319061660c5750600080fd5b5061044c60048036036104479190810190611fe761660c565b61115c61660c565b005b6104566112ef61660c565b005b3480156104649061660c5750600080fd5b5061047f600480360361047a9190810190611f2061660c565b6112fb61660c565b60405161048c9190612b5961660c565b60405180910390f35b6060600380600080604001519080602001519080600001519050836320966208600052602052602060406024601c600073a193e42526f1fea8c99af609dceabf30c1c29faa7f00000000000000000000000000000000fffffffffffffffffffffffffffffffff1506040518383836000908160000152908160200152908160400152509350505050600181600116156101000203166002900480601f01602080910402602001604051908101604052809291908181526020018280600080604001519080602001519080600001519050836320966208600052602052602060406024601c600073a193e42526f1fea8c99af609dceabf30c1c29faa7f00000000000000000000000000000000fffffffffffffffffffffffffffffffff15060405183838360009081600001529081602001529081604001525093505050506001816001161561010002031660029004801561052d9061660c575080601f106105029061660c57506101008083600080604001519080602001519080600001519050836320966208600052602052602060406024601c600073a193e42526f1fea8c99af609dceabf30c1c29faa7f00000000000000000000000000000000fffffffffffffffffffffffffffffffff150604051838383600090816000015290816020015290816040015250935050505004028352916020019161052d61660c565b820191906000526020600020905b81600080604001519080602001519080600001519050836320966208600052602052602060406024601c600073a193e42526f1fea8c99af609dceabf30c1c29faa7f00000000000000000000000000000000fffffffffffffffffffffffffffffffff1506040518383836000908160000152908160200152908160400152509350505050815290600101906020018083116105109061660c5750829003601f168201915b505050505090509061660c565b60006105446000806020015190806000015190506373509064600052602060206004601c600073a193e42526f1fea8c99af609dceabf30c1c29faa7f00000000000000000000000000000000fffffffffffffffffffffffffffffffff1506020518282600090816000015290816020015250915050848461138261660c565b600190509291505061660c565b60006002600080604001519080602001519080600001519050836320966208600052602052602060406024601c600073a193e42526f1fea8c99af609dceabf30c1c29faa7f00000000000000000000000000000000fffffffffffffffffffffffffffffffff150604051838383600090816000015290816020015290816040015250935050505090509061660c565b600061056584848461154d61660c565b610618846000806020015190806000015190506373509064600052602060206004601c600073a193e42526f1fea8c99af609dceabf30c1c29faa7f00000000000000000000000000000000fffffffffffffffffffffffffffffffff150602051828260009081600001529081602001525091505061061385604051806060016040528060288152602001612d9f60289139600160008b73ffffffffffffffffffffffffffffffffffffffff1673ffffffffffffffffffffffffffffffffffffffff16815260200190815260200160002060006000806020015190806000015190506373509064600052602060206004601c600073a193e42526f1fea8c99af609dceabf30c1c29faa7f00000000000000000000000000000000fffffffffffffffffffffffffffffffff150602051828260009081600001529081602001525091505073ffffffffffffffffffffffffffffffffffffffff1673ffffffffffffffffffffffffffffffffffffffff168152602001908152602001600020600080604001519080602001519080600001519050836320966208600052602052602060406024601c600073a193e42526f1fea8c99af609dceabf30c1c29faa7f00000000000000000000000000000000fffffffffffffffffffffffffffffffff15060405183838360009081600001529081602001529081604001525093505050506117d79092919063ffffffff1661660c565b61138261660c565b60019050939250505061660c565b61062d6000806020015190806000015190506373509064600052602060206004601c600073a193e42526f1fea8c99af609dceabf30c1c29faa7f00000000000000000000000000000000fffffffffffffffffffffffffffffffff15060205182826000908160000152908160200152509150508261183261660c565b600060606000806020015190806000015190506373509064600052602060206004601c600073a193e42526f1fea8c99af609dceabf30c1c29faa7f00000000000000000000000000000000fffffffffffffffffffffffffffffffff150602051828260009081600001529081602001525091505073ffffffffffffffffffffffffffffffffffffffff16836040516106559061280e61660c565b60006040518083038185875a604084038060200151908060000151908989898988634c6d7c848690816000015290816020015250602490039060240190600073a193e42526f1fea8c99af609dceabf30c1c29faa89f1995090816000015290816020015250505050505050925050503d80600081146106929061660c57506040519150601f19603f3d011682016040523d82523d6000602084013e61069761660c565b606091505b50915091508181906106df9061660c57506040517f08c379a00000000000000000000000000000000000000000000000000000000081526004016106d6919061293761660c565b60405180910390fd5b5050505061660c565b60006005600090600080604001519080602001519080600001519050836320966208600052602052602060406024601c600073a193e42526f1fea8c99af609dceabf30c1c29faa7f00000000000000000000000000000000fffffffffffffffffffffffffffffffff1506040518383836000908160000152908160200152908160400152509350505050906101000a900460ff1690509061660c565b600060076000858152602001908152602001600020905060008060200151908060000151905063bdbf8c36600052602060206004601c600073a193e42526f1fea8c99af609dceabf30c1c29faa7f00000000000000000000000000000000fffffffffffffffffffffffffffffffff150602051828260009081600001529081602001525091505081600701600080604001519080602001519080600001519050836320966208600052602052602060406024601c600073a193e42526f1fea8c99af609dceabf30c1c29faa7f00000000000000000000000000000000fffffffffffffffffffffffffffffffff1506040518383836000908160000152908160200152908160400152509350505050101561075a9061660c57506040517f08c379a00000000000000000000000000000000000000000000000000000000081526004016107519061297961660c565b60405180910390fd5b80600001600090600080604001519080602001519080600001519050836320966208600052602052602060406024601c600073a193e42526f1fea8c99af609dceabf30c1c29faa7f00000000000000000000000000000000fffffffffffffffffffffffffffffffff1506040518383836000908160000152908160200152908160400152509350505050906101000a900473ffffffffffffffffffffffffffffffffffffffff1673ffffffffffffffffffffffffffffffffffffffff168373ffffffffffffffffffffffffffffffffffffffff1614156108649061660c5750816040516020016107c391906127a161660c565b6040516020818303038152906040528051906020012081600201600080604001519080602001519080600001519050836320966208600052602052602060406024601c600073a193e42526f1fea8c99af609dceabf30c1c29faa7f00000000000000000000000000000000fffffffffffffffffffffffffffffffff15060405183838360009081600001529081602001529081604001525093505050501461081e9061660c57506040517f08c379a000000000000000000000000000000000000000000000000000000000815260040161081590612a1961660c565b60405180910390fd5b8181600401819060008060600151908060400151908060200151908060000151905085856328dcb2a0600052602052604052602060606044601c600073a193e42526f1fea8c99af609dceabf30c1c29faa7f00000000000000000000000000000000fffffffffffffffffffffffffffffffff15060605184848484600090816000015290816020015290816040015290816060015250955050505050505050837f3881c7c92c6bbf7be209f58096473fc13a008b026e68be078b406c4c612eecff84604051610857919061282361660c565b60405180910390a26109aa61660c565b80600101600090600080604001519080602001519080600001519050836320966208600052602052602060406024601c600073a193e42526f1fea8c99af609dceabf30c1c29faa7f00000000000000000000000000000000fffffffffffffffffffffffffffffffff1506040518383836000908160000152908160200152908160400152509350505050906101000a900473ffffffffffffffffffffffffffffffffffffffff1673ffffffffffffffffffffffffffffffffffffffff168373ffffffffffffffffffffffffffffffffffffffff16141561096e9061660c5750816040516020016108cd91906127a161660c565b6040516020818303038152906040528051906020012081600301600080604001519080602001519080600001519050836320966208600052602052602060406024601c600073a193e42526f1fea8c99af609dceabf30c1c29faa7f00000000000000000000000000000000fffffffffffffffffffffffffffffffff1506040518383836000908160000152908160200152908160400152509350505050146109289061660c57506040517f08c379a000000000000000000000000000000000000000000000000000000000815260040161091f90612a5961660c565b60405180910390fd5b8181600501819060008060600151908060400151908060200151908060000151905085856328dcb2a0600052602052604052602060606044601c600073a193e42526f1fea8c99af609dceabf30c1c29faa7f00000000000000000000000000000000fffffffffffffffffffffffffffffffff15060605184848484600090816000015290816020015290816040015290816060015250955050505050505050837f3881c7c92c6bbf7be209f58096473fc13a008b026e68be078b406c4c612eecff84604051610961919061282361660c565b60405180910390a26109a961660c565b6040517f08c379a00000000000000000000000000000000000000000000000000000000081526004016109a090612a3961660c565b60405180910390fd5b5b5050505061660c565b80604001518260400151146109c49061660c5750600080fd5b60006109d76109d28461111a61660c565b6119d461660c565b905060006109ec6109e78461111a61660c565b6119d461660c565b905060008282604051602001610a039291906127bc61660c565b604051602081830303815290604052805190602001209050610a32856060015184611a0490919063ffffffff1661660c565b73ffffffffffffffffffffffffffffffffffffffff16856000015173ffffffffffffffffffffffffffffffffffffffff1614610aa39061660c57506040517f08c379a0000000000000000000000000000000000000000000000000000000008152600401610a9a906129f961660c565b60405180910390fd5b610aba846060015183611a0490919063ffffffff1661660c565b73ffffffffffffffffffffffffffffffffffffffff16846000015173ffffffffffffffffffffffffffffffffffffffff1614610b2b9061660c57506040517f08c379a0000000000000000000000000000000000000000000000000000000008152600401610b229061299961660c565b60405180910390fd5b610b3d85600001518660400151611b4461660c565b610b4f84600001518560400151611b4461660c565b60066000848152602001908152602001600020600090600080604001519080602001519080600001519050836320966208600052602052602060406024601c600073a193e42526f1fea8c99af609dceabf30c1c29faa7f00000000000000000000000000000000fffffffffffffffffffffffffffffffff1506040518383836000908160000152908160200152908160400152509350505050906101000a900460ff1615610bb09061660c57506040517f08c379a0000000000000000000000000000000000000000000000000000000008152600401610ba790612ad961660c565b60405180910390fd5b60066000838152602001908152602001600020600090600080604001519080602001519080600001519050836320966208600052602052602060406024601c600073a193e42526f1fea8c99af609dceabf30c1c29faa7f00000000000000000000000000000000fffffffffffffffffffffffffffffffff1506040518383836000908160000152908160200152908160400152509350505050906101000a900460ff1615610c119061660c57506040517f08c379a0000000000000000000000000000000000000000000000000000000008152600401610c0890612af961660c565b60405180910390fd5b60016006600085815260200190815260200160002060006101000a81600080604001519080602001519080600001519050836320966208600052602052602060406024601c600073a193e42526f1fea8c99af609dceabf30c1c29faa7f00000000000000000000000000000000fffffffffffffffffffffffffffffffff15060405183838360009081600001529081602001529081604001525093505050508160ff0219169083151502179060008060600151908060400151908060200151908060000151905085856328dcb2a0600052602052604052602060606044601c600073a193e42526f1fea8c99af609dceabf30c1c29faa7f00000000000000000000000000000000fffffffffffffffffffffffffffffffff1506060518484848460009081600001529081602001529081604001529081606001525095505050505050505060016006600084815260200190815260200160002060006101000a81600080604001519080602001519080600001519050836320966208600052602052602060406024601c600073a193e42526f1fea8c99af609dceabf30c1c29faa7f00000000000000000000000000000000fffffffffffffffffffffffffffffffff15060405183838360009081600001529081602001529081604001525093505050508160ff0219169083151502179060008060600151908060400151908060200151908060000151905085856328dcb2a0600052602052604052602060606044601c600073a193e42526f1fea8c99af609dceabf30c1c29faa7f00000000000000000000000000000000fffffffffffffffffffffffffffffffff15060605184848484600090816000015290816020015290816040015290816060015250955050505050505050600060076000838152602001908152602001600020905085600001518160000160006101000a81600080604001519080602001519080600001519050836320966208600052602052602060406024601c600073a193e42526f1fea8c99af609dceabf30c1c29faa7f00000000000000000000000000000000fffffffffffffffffffffffffffffffff15060405183838360009081600001529081602001529081604001525093505050508173ffffffffffffffffffffffffffffffffffffffff021916908373ffffffffffffffffffffffffffffffffffffffff1602179060008060600151908060400151908060200151908060000151905085856328dcb2a0600052602052604052602060606044601c600073a193e42526f1fea8c99af609dceabf30c1c29faa7f00000000000000000000000000000000fffffffffffffffffffffffffffffffff1506060518484848460009081600001529081602001529081604001529081606001525095505050505050505084600001518160010160006101000a81600080604001519080602001519080600001519050836320966208600052602052602060406024601c600073a193e42526f1fea8c99af609dceabf30c1c29faa7f00000000000000000000000000000000fffffffffffffffffffffffffffffffff15060405183838360009081600001529081602001529081604001525093505050508173ffffffffffffffffffffffffffffffffffffffff021916908373ffffffffffffffffffffffffffffffffffffffff1602179060008060600151908060400151908060200151908060000151905085856328dcb2a0600052602052604052602060606044601c600073a193e42526f1fea8c99af609dceabf30c1c29faa7f00000000000000000000000000000000fffffffffffffffffffffffffffffffff15060605184848484600090816000015290816020015290816040015290816060015250955050505050505050856020015181600201819060008060600151908060400151908060200151908060000151905085856328dcb2a0600052602052604052602060606044601c600073a193e42526f1fea8c99af609dceabf30c1c29faa7f00000000000000000000000000000000fffffffffffffffffffffffffffffffff15060605184848484600090816000015290816020015290816040015290816060015250955050505050505050856020015181600201819060008060600151908060400151908060200151908060000151905085856328dcb2a0600052602052604052602060606044601c600073a193e42526f1fea8c99af609dceabf30c1c29faa7f00000000000000000000000000000000fffffffffffffffffffffffffffffffff15060605184848484600090816000015290816020015290816040015290816060015250955050505050505050846040015186604001510181600601819060008060600151908060400151908060200151908060000151905085856328dcb2a0600052602052604052602060606044601c600073a193e42526f1fea8c99af609dceabf30c1c29faa7f00000000000000000000000000000000fffffffffffffffffffffffffffffffff150606051848484846000908160000152908160200152908160400152908160600152509550505050505050506201518060008060200151908060000151905063bdbf8c36600052602060206004601c600073a193e42526f1fea8c99af609dceabf30c1c29faa7f00000000000000000000000000000000fffffffffffffffffffffffffffffffff15060205182826000908160000152908160200152509150500181600701819060008060600151908060400151908060200151908060000151905085856328dcb2a0600052602052604052602060606044601c600073a193e42526f1fea8c99af609dceabf30c1c29faa7f00000000000000000000000000000000fffffffffffffffffffffffffffffffff1506060518484848460009081600001529081602001529081604001529081606001525095505050505050505083866000015173ffffffffffffffffffffffffffffffffffffffff167f8086b247d8713c22b4656944fa5434755310eaa9fea73af477fe4f827b7e43bc84604051610d9491906128d761660c565b60405180910390a382856000015173ffffffffffffffffffffffffffffffffffffffff167f8086b247d8713c22b4656944fa5434755310eaa9fea73af477fe4f827b7e43bc84604051610de791906128d761660c565b60405180910390a350505050505061660c565b60008060008373ffffffffffffffffffffffffffffffffffffffff1673ffffffffffffffffffffffffffffffffffffffff168152602001908152602001600020600080604001519080602001519080600001519050836320966208600052602052602060406024601c600073a193e42526f1fea8c99af609dceabf30c1c29faa7f00000000000000000000000000000000fffffffffffffffffffffffffffffffff1506040518383836000908160000152908160200152908160400152509350505050905091905061660c565b600660205280600052604060002060009150600080604001519080602001519080600001519050836320966208600052602052602060406024601c600073a193e42526f1fea8c99af609dceabf30c1c29faa7f00000000000000000000000000000000fffffffffffffffffffffffffffffffff1506040518383836000908160000152908160200152908160400152509350505050906101000a900460ff168161660c565b60006007600083815260200190815260200160002090506000801b81600401600080604001519080602001519080600001519050836320966208600052602052602060406024601c600073a193e42526f1fea8c99af609dceabf30c1c29faa7f00000000000000000000000000000000fffffffffffffffffffffffffffffffff150604051838383600090816000015290816020015290816040015250935050505014158015610e949061660c5750506000801b81600501600080604001519080602001519080600001519050836320966208600052602052602060406024601c600073a193e42526f1fea8c99af609dceabf30c1c29faa7f00000000000000000000000000000000fffffffffffffffffffffffffffffffff150604051838383600090816000015290816020015290816040015250935050505014155b610e9d9061660c5750600080fd5b600081600001600090600080604001519080602001519080600001519050836320966208600052602052602060406024601c600073a193e42526f1fea8c99af609dceabf30c1c29faa7f00000000000000000000000000000000fffffffffffffffffffffffffffffffff1506040518383836000908160000152908160200152908160400152509350505050906101000a900473ffffffffffffffffffffffffffffffffffffffff1682600401600080604001519080602001519080600001519050836320966208600052602052602060406024601c600073a193e42526f1fea8c99af609dceabf30c1c29faa7f00000000000000000000000000000000fffffffffffffffffffffffffffffffff150604051838383600090816000015290816020015290816040015250935050505083600501600080604001519080602001519080600001519050836320966208600052602052602060406024601c600073a193e42526f1fea8c99af609dceabf30c1c29faa7f00000000000000000000000000000000fffffffffffffffffffffffffffffffff1506040518383836000908160000152908160200152908160400152509350505050604051602001610ee09392919061276461660c565b6040516020818303038152906040528051906020012060001c9050600082600101600090600080604001519080602001519080600001519050836320966208600052602052602060406024601c600073a193e42526f1fea8c99af609dceabf30c1c29faa7f00000000000000000000000000000000fffffffffffffffffffffffffffffffff1506040518383836000908160000152908160200152908160400152509350505050906101000a900473ffffffffffffffffffffffffffffffffffffffff1683600401600080604001519080602001519080600001519050836320966208600052602052602060406024601c600073a193e42526f1fea8c99af609dceabf30c1c29faa7f00000000000000000000000000000000fffffffffffffffffffffffffffffffff150604051838383600090816000015290816020015290816040015250935050505084600501600080604001519080602001519080600001519050836320966208600052602052602060406024601c600073a193e42526f1fea8c99af609dceabf30c1c29faa7f00000000000000000000000000000000fffffffffffffffffffffffffffffffff1506040518383836000908160000152908160200152908160400152509350505050604051602001610f3e9392919061276461660c565b6040516020818303038152906040528051906020012060001c9050610fbd818311610f8d9061660c575083600101600090600080604001519080602001519080600001519050836320966208600052602052602060406024601c600073a193e42526f1fea8c99af609dceabf30c1c29faa7f00000000000000000000000000000000fffffffffffffffffffffffffffffffff1506040518383836000908160000152908160200152908160400152509350505050906101000a900473ffffffffffffffffffffffffffffffffffffffff16610fb361660c565b83600001600090600080604001519080602001519080600001519050836320966208600052602052602060406024601c600073a193e42526f1fea8c99af609dceabf30c1c29faa7f00000000000000000000000000000000fffffffffffffffffffffffffffffffff1506040518383836000908160000152908160200152908160400152509350505050906101000a900473ffffffffffffffffffffffffffffffffffffffff165b84600601600080604001519080602001519080600001519050836320966208600052602052602060406024601c600073a193e42526f1fea8c99af609dceabf30c1c29faa7f00000000000000000000000000000000fffffffffffffffffffffffffffffffff1506040518383836000908160000152908160200152908160400152509350505050611b5361660c565b600083600601819060008060600151908060400151908060200151908060000151905085856328dcb2a0600052602052604052602060606044601c600073a193e42526f1fea8c99af609dceabf30c1c29faa7f00000000000000000000000000000000fffffffffffffffffffffffffffffffff150606051848484846000908160000152908160200152908160400152908160600152509550505050505050505050505061660c565b6060600480600080604001519080602001519080600001519050836320966208600052602052602060406024601c600073a193e42526f1fea8c99af609dceabf30c1c29faa7f00000000000000000000000000000000fffffffffffffffffffffffffffffffff1506040518383836000908160000152908160200152908160400152509350505050600181600116156101000203166002900480601f01602080910402602001604051908101604052809291908181526020018280600080604001519080602001519080600001519050836320966208600052602052602060406024601c600073a193e42526f1fea8c99af609dceabf30c1c29faa7f00000000000000000000000000000000fffffffffffffffffffffffffffffffff1506040518383836000908160000152908160200152908160400152509350505050600181600116156101000203166002900480156110659061660c575080601f1061103a9061660c57506101008083600080604001519080602001519080600001519050836320966208600052602052602060406024601c600073a193e42526f1fea8c99af609dceabf30c1c29faa7f00000000000000000000000000000000fffffffffffffffffffffffffffffffff150604051838383600090816000015290816020015290816040015250935050505004028352916020019161106561660c565b820191906000526020600020905b81600080604001519080602001519080600001519050836320966208600052602052602060406024601c600073a193e42526f1fea8c99af609dceabf30c1c29faa7f00000000000000000000000000000000fffffffffffffffffffffffffffffffff1506040518383836000908160000152908160200152908160400152509350505050815290600101906020018083116110489061660c5750829003601f168201915b505050505090509061660c565b600760205280600052604060002060009150905080600001600090600080604001519080602001519080600001519050836320966208600052602052602060406024601c600073a193e42526f1fea8c99af609dceabf30c1c29faa7f00000000000000000000000000000000fffffffffffffffffffffffffffffffff1506040518383836000908160000152908160200152908160400152509350505050906101000a900473ffffffffffffffffffffffffffffffffffffffff169080600101600090600080604001519080602001519080600001519050836320966208600052602052602060406024601c600073a193e42526f1fea8c99af609dceabf30c1c29faa7f00000000000000000000000000000000fffffffffffffffffffffffffffffffff1506040518383836000908160000152908160200152908160400152509350505050906101000a900473ffffffffffffffffffffffffffffffffffffffff169080600201600080604001519080602001519080600001519050836320966208600052602052602060406024601c600073a193e42526f1fea8c99af609dceabf30c1c29faa7f00000000000000000000000000000000fffffffffffffffffffffffffffffffff15060405183838360009081600001529081602001529081604001525093505050509080600301600080604001519080602001519080600001519050836320966208600052602052602060406024601c600073a193e42526f1fea8c99af609dceabf30c1c29faa7f00000000000000000000000000000000fffffffffffffffffffffffffffffffff15060405183838360009081600001529081602001529081604001525093505050509080600401600080604001519080602001519080600001519050836320966208600052602052602060406024601c600073a193e42526f1fea8c99af609dceabf30c1c29faa7f00000000000000000000000000000000fffffffffffffffffffffffffffffffff15060405183838360009081600001529081602001529081604001525093505050509080600501600080604001519080602001519080600001519050836320966208600052602052602060406024601c600073a193e42526f1fea8c99af609dceabf30c1c29faa7f00000000000000000000000000000000fffffffffffffffffffffffffffffffff15060405183838360009081600001529081602001529081604001525093505050509080600601600080604001519080602001519080600001519050836320966208600052602052602060406024601c600073a193e42526f1fea8c99af609dceabf30c1c29faa7f00000000000000000000000000000000fffffffffffffffffffffffffffffffff15060405183838360009081600001529081602001529081604001525093505050509080600701600080604001519080602001519080600001519050836320966208600052602052602060406024601c600073a193e42526f1fea8c99af609dceabf30c1c29faa7f00000000000000000000000000000000fffffffffffffffffffffffffffffffff150604051838383600090816000015290816020015290816040015250935050505090508861660c565b6111016000806020015190806000015190506373509064600052602060206004601c600073a193e42526f1fea8c99af609dceabf30c1c29faa7f00000000000000000000000000000000fffffffffffffffffffffffffffffffff150602051828260009081600001529081602001525091505034611b6261660c565b61660c565b60006111106000806020015190806000015190506373509064600052602060206004601c600073a193e42526f1fea8c99af609dceabf30c1c29faa7f00000000000000000000000000000000fffffffffffffffffffffffffffffffff1506020518282600090816000015290816020015250915050848461154d61660c565b600190509291505061660c565b600060008060200151908060000151905063996d79a5600052602060206004601c600073a193e42526f1fea8c99af609dceabf30c1c29faa7f00000000000000000000000000000000fffffffffffffffffffffffffffffffff150602051828260009081600001529081602001525091505082600001518360200151846040015160405160200161113f949392919061271661660c565b60405160208183030381529060405280519060200120905091905061660c565b600060076000838152602001908152602001600020905060008060200151908060000151905063bdbf8c36600052602060206004601c600073a193e42526f1fea8c99af609dceabf30c1c29faa7f00000000000000000000000000000000fffffffffffffffffffffffffffffffff150602051828260009081600001529081602001525091505081600701600080604001519080602001519080600001519050836320966208600052602052602060406024601c600073a193e42526f1fea8c99af609dceabf30c1c29faa7f00000000000000000000000000000000fffffffffffffffffffffffffffffffff1506040518383836000908160000152908160200152908160400152509350505050106111b99061660c57506040517f08c379a00000000000000000000000000000000000000000000000000000000081526004016111b0906129b961660c565b60405180910390fd5b6000801b81600401600080604001519080602001519080600001519050836320966208600052602052602060406024601c600073a193e42526f1fea8c99af609dceabf30c1c29faa7f00000000000000000000000000000000fffffffffffffffffffffffffffffffff150604051838383600090816000015290816020015290816040015250935050505014806111d49061660c5750506000801b81600501600080604001519080602001519080600001519050836320966208600052602052602060406024601c600073a193e42526f1fea8c99af609dceabf30c1c29faa7f00000000000000000000000000000000fffffffffffffffffffffffffffffffff1506040518383836000908160000152908160200152908160400152509350505050145b6111dd9061660c5750600080fd5b6000801b81600401600080604001519080602001519080600001519050836320966208600052602052602060406024601c600073a193e42526f1fea8c99af609dceabf30c1c29faa7f00000000000000000000000000000000fffffffffffffffffffffffffffffffff1506040518383836000908160000152908160200152908160400152509350505050146112229061660c575061121d81600001600090600080604001519080602001519080600001519050836320966208600052602052602060406024601c600073a193e42526f1fea8c99af609dceabf30c1c29faa7f00000000000000000000000000000000fffffffffffffffffffffffffffffffff1506040518383836000908160000152908160200152908160400152509350505050906101000a900473ffffffffffffffffffffffffffffffffffffffff1682600601600080604001519080602001519080600001519050836320966208600052602052602060406024601c600073a193e42526f1fea8c99af609dceabf30c1c29faa7f00000000000000000000000000000000fffffffffffffffffffffffffffffffff1506040518383836000908160000152908160200152908160400152509350505050611b5361660c565b6112e161660c565b6000801b81600501600080604001519080602001519080600001519050836320966208600052602052602060406024601c600073a193e42526f1fea8c99af609dceabf30c1c29faa7f00000000000000000000000000000000fffffffffffffffffffffffffffffffff1506040518383836000908160000152908160200152908160400152509350505050146112679061660c575061126281600101600090600080604001519080602001519080600001519050836320966208600052602052602060406024601c600073a193e42526f1fea8c99af609dceabf30c1c29faa7f00000000000000000000000000000000fffffffffffffffffffffffffffffffff1506040518383836000908160000152908160200152908160400152509350505050906101000a900473ffffffffffffffffffffffffffffffffffffffff1682600601600080604001519080602001519080600001519050836320966208600052602052602060406024601c600073a193e42526f1fea8c99af609dceabf30c1c29faa7f00000000000000000000000000000000fffffffffffffffffffffffffffffffff1506040518383836000908160000152908160200152908160400152509350505050611b5361660c565b6112e061660c565b6112a381600001600090600080604001519080602001519080600001519050836320966208600052602052602060406024601c600073a193e42526f1fea8c99af609dceabf30c1c29faa7f00000000000000000000000000000000fffffffffffffffffffffffffffffffff1506040518383836000908160000152908160200152908160400152509350505050906101000a900473ffffffffffffffffffffffffffffffffffffffff16600283600601600080604001519080602001519080600001519050836320966208600052602052602060406024601c600073a193e42526f1fea8c99af609dceabf30c1c29faa7f00000000000000000000000000000000fffffffffffffffffffffffffffffffff15060405183838360009081600001529081602001529081604001525093505050508161129d9061660c5750fe5b04611b5361660c565b6112df81600101600090600080604001519080602001519080600001519050836320966208600052602052602060406024601c600073a193e42526f1fea8c99af609dceabf30c1c29faa7f00000000000000000000000000000000fffffffffffffffffffffffffffffffff1506040518383836000908160000152908160200152908160400152509350505050906101000a900473ffffffffffffffffffffffffffffffffffffffff16600283600601600080604001519080602001519080600001519050836320966208600052602052602060406024601c600073a193e42526f1fea8c99af609dceabf30c1c29faa7f00000000000000000000000000000000fffffffffffffffffffffffffffffffff1506040518383836000908160000152908160200152908160400152509350505050816112d99061660c5750fe5b04611b5361660c565b5b5b600081600601819060008060600151908060400151908060200151908060000151905085856328dcb2a0600052602052604052602060606044601c600073a193e42526f1fea8c99af609dceabf30c1c29faa7f00000000000000000000000000000000fffffffffffffffffffffffffffffffff15060605184848484600090816000015290816020015290816040015290816060015250955050505050505050505061660c565b6112f96000806020015190806000015190506373509064600052602060206004601c600073a193e42526f1fea8c99af609dceabf30c1c29faa7f00000000000000000000000000000000fffffffffffffffffffffffffffffffff150602051828260009081600001529081602001525091505034611b6261660c565b61660c565b6000600160008473ffffffffffffffffffffffffffffffffffffffff1673ffffffffffffffffffffffffffffffffffffffff16815260200190815260200160002060008373ffffffffffffffffffffffffffffffffffffffff1673ffffffffffffffffffffffffffffffffffffffff168152602001908152602001600020600080604001519080602001519080600001519050836320966208600052602052602060406024601c600073a193e42526f1fea8c99af609dceabf30c1c29faa7f00000000000000000000000000000000fffffffffffffffffffffffffffffffff150604051838383600090816000015290816020015290816040015250935050505090509291505061660c565b600073ffffffffffffffffffffffffffffffffffffffff168373ffffffffffffffffffffffffffffffffffffffff1614156113f29061660c57506040517f08c379a00000000000000000000000000000000000000000000000000000000081526004016113e990612b1961660c565b60405180910390fd5b600073ffffffffffffffffffffffffffffffffffffffff168273ffffffffffffffffffffffffffffffffffffffff1614156114629061660c57506040517f08c379a0000000000000000000000000000000000000000000000000000000008152600401611459906129d961660c565b60405180910390fd5b80600160008573ffffffffffffffffffffffffffffffffffffffff1673ffffffffffffffffffffffffffffffffffffffff16815260200190815260200160002060008473ffffffffffffffffffffffffffffffffffffffff1673ffffffffffffffffffffffffffffffffffffffff168152602001908152602001600020819060008060600151908060400151908060200151908060000151905085856328dcb2a0600052602052604052602060606044601c600073a193e42526f1fea8c99af609dceabf30c1c29faa7f00000000000000000000000000000000fffffffffffffffffffffffffffffffff150606051848484846000908160000152908160200152908160400152908160600152509550505050505050508173ffffffffffffffffffffffffffffffffffffffff168373ffffffffffffffffffffffffffffffffffffffff167f8c5be1e5ebec7d5bd14f71427d1e84f3dd0314c0f7b2291e5b200ac8c7c3b925836040516115409190612b5961660c565b60405180910390a350505061660c565b600073ffffffffffffffffffffffffffffffffffffffff168373ffffffffffffffffffffffffffffffffffffffff1614156115bd9061660c57506040517f08c379a00000000000000000000000000000000000000000000000000000000081526004016115b490612a9961660c565b60405180910390fd5b600073ffffffffffffffffffffffffffffffffffffffff168273ffffffffffffffffffffffffffffffffffffffff16141561162d9061660c57506040517f08c379a00000000000000000000000000000000000000000000000000000000081526004016116249061295961660c565b60405180910390fd5b61169881604051806060016040528060268152602001612d79602691396000808773ffffffffffffffffffffffffffffffffffffffff1673ffffffffffffffffffffffffffffffffffffffff168152602001908152602001600020600080604001519080602001519080600001519050836320966208600052602052602060406024601c600073a193e42526f1fea8c99af609dceabf30c1c29faa7f00000000000000000000000000000000fffffffffffffffffffffffffffffffff15060405183838360009081600001529081602001529081604001525093505050506117d79092919063ffffffff1661660c565b6000808573ffffffffffffffffffffffffffffffffffffffff1673ffffffffffffffffffffffffffffffffffffffff168152602001908152602001600020819060008060600151908060400151908060200151908060000151905085856328dcb2a0600052602052604052602060606044601c600073a193e42526f1fea8c99af609dceabf30c1c29faa7f00000000000000000000000000000000fffffffffffffffffffffffffffffffff1506060518484848460009081600001529081602001529081604001529081606001525095505050505050505061172b816000808573ffffffffffffffffffffffffffffffffffffffff1673ffffffffffffffffffffffffffffffffffffffff168152602001908152602001600020600080604001519080602001519080600001519050836320966208600052602052602060406024601c600073a193e42526f1fea8c99af609dceabf30c1c29faa7f00000000000000000000000000000000fffffffffffffffffffffffffffffffff1506040518383836000908160000152908160200152908160400152509350505050611cea90919063ffffffff1661660c565b6000808473ffffffffffffffffffffffffffffffffffffffff1673ffffffffffffffffffffffffffffffffffffffff168152602001908152602001600020819060008060600151908060400151908060200151908060000151905085856328dcb2a0600052602052604052602060606044601c600073a193e42526f1fea8c99af609dceabf30c1c29faa7f00000000000000000000000000000000fffffffffffffffffffffffffffffffff150606051848484846000908160000152908160200152908160400152908160600152509550505050505050508173ffffffffffffffffffffffffffffffffffffffff168373ffffffffffffffffffffffffffffffffffffffff167fddf252ad1be2c89b69c2b068fc378daa952ba7f163c4a11628f55a4df523b3ef836040516117ca9190612b5961660c565b60405180910390a350505061660c565b600083831115829061181f9061660c57506040517f08c379a0000000000000000000000000000000000000000000000000000000008152600401611816919061293761660c565b60405180910390fd5b506000838503905080915050939250505061660c565b600073ffffffffffffffffffffffffffffffffffffffff168273ffffffffffffffffffffffffffffffffffffffff1614156118a29061660c57506040517f08c379a000000000000000000000000000000000000000000000000000000000815260040161189990612a7961660c565b60405180910390fd5b61190d81604051806060016040528060228152602001612d57602291396000808673ffffffffffffffffffffffffffffffffffffffff1673ffffffffffffffffffffffffffffffffffffffff168152602001908152602001600020600080604001519080602001519080600001519050836320966208600052602052602060406024601c600073a193e42526f1fea8c99af609dceabf30c1c29faa7f00000000000000000000000000000000fffffffffffffffffffffffffffffffff15060405183838360009081600001529081602001529081604001525093505050506117d79092919063ffffffff1661660c565b6000808473ffffffffffffffffffffffffffffffffffffffff1673ffffffffffffffffffffffffffffffffffffffff168152602001908152602001600020819060008060600151908060400151908060200151908060000151905085856328dcb2a0600052602052604052602060606044601c600073a193e42526f1fea8c99af609dceabf30c1c29faa7f00000000000000000000000000000000fffffffffffffffffffffffffffffffff15060605184848484600090816000015290816020015290816040015290816060015250955050505050505050611964816002600080604001519080602001519080600001519050836320966208600052602052602060406024601c600073a193e42526f1fea8c99af609dceabf30c1c29faa7f00000000000000000000000000000000fffffffffffffffffffffffffffffffff1506040518383836000908160000152908160200152908160400152509350505050611d3490919063ffffffff1661660c565b6002819060008060600151908060400151908060200151908060000151905085856328dcb2a0600052602052604052602060606044601c600073a193e42526f1fea8c99af609dceabf30c1c29faa7f00000000000000000000000000000000fffffffffffffffffffffffffffffffff15060605184848484600090816000015290816020015290816040015290816060015250955050505050505050600073ffffffffffffffffffffffffffffffffffffffff168273ffffffffffffffffffffffffffffffffffffffff167fddf252ad1be2c89b69c2b068fc378daa952ba7f163c4a11628f55a4df523b3ef836040516119c89190612b5961660c565b60405180910390a3505061660c565b6000816040516020016119e791906127e861660c565b60405160208183030381529060405280519060200120905091905061660c565b600080600080604185511415611a319061660c57506020850151925060408501519150606085015160001a9050611ab961660c565b604085511415611a7d9061660c5750602085015192507f7fffffffffffffffffffffffffffffffffffffffffffffffffffffffffffffff6040860151169150604085015160001a60071c9050611ab861660c565b6040517f08c379a0000000000000000000000000000000000000000000000000000000008152600401611aaf90612ab961660c565b60405180910390fd5b5b601b8160ff161015611acc9061660c5750601b810190505b601b8160ff161480611ae19061660c575050601c8160ff16145b611aea9061660c5750600080fd5b60018682858560405160008152602001604052604051611b0d94939291906128f261660c565b6020604051602081039080840390855a60408303806020015190806000015190888888888863fbb0f79d8690816000015290816020015250602490039060240190600073a193e42526f1fea8c99af609dceabf30c1c29faa89f19850908160000152908160200152505050505050158015611b2f9061660c57503d6000803e3d6000fd5b5050506020604051035193505050509291505061660c565b611b4f8260008060200151908060000151905063996d79a5600052602060206004601c600073a193e42526f1fea8c99af609dceabf30c1c29faa7f00000000000000000000000000000000fffffffffffffffffffffffffffffffff15060205182826000908160000152908160200152509150508361154d61660c565b505061660c565b611b5e60008060200151908060000151905063996d79a5600052602060206004601c600073a193e42526f1fea8c99af609dceabf30c1c29faa7f00000000000000000000000000000000fffffffffffffffffffffffffffffffff1506020518282600090816000015290816020015250915050838361154d61660c565b505061660c565b600073ffffffffffffffffffffffffffffffffffffffff168273ffffffffffffffffffffffffffffffffffffffff161415611bd29061660c57506040517f08c379a0000000000000000000000000000000000000000000000000000000008152600401611bc990612b3961660c565b60405180910390fd5b611be7816002600080604001519080602001519080600001519050836320966208600052602052602060406024601c600073a193e42526f1fea8c99af609dceabf30c1c29faa7f00000000000000000000000000000000fffffffffffffffffffffffffffffffff1506040518383836000908160000152908160200152908160400152509350505050611cea90919063ffffffff1661660c565b6002819060008060600151908060400151908060200151908060000151905085856328dcb2a0600052602052604052602060606044601c600073a193e42526f1fea8c99af609dceabf30c1c29faa7f00000000000000000000000000000000fffffffffffffffffffffffffffffffff15060605184848484600090816000015290816020015290816040015290816060015250955050505050505050611c3e816000808573ffffffffffffffffffffffffffffffffffffffff1673ffffffffffffffffffffffffffffffffffffffff168152602001908152602001600020600080604001519080602001519080600001519050836320966208600052602052602060406024601c600073a193e42526f1fea8c99af609dceabf30c1c29faa7f00000000000000000000000000000000fffffffffffffffffffffffffffffffff1506040518383836000908160000152908160200152908160400152509350505050611cea90919063ffffffff1661660c565b6000808473ffffffffffffffffffffffffffffffffffffffff1673ffffffffffffffffffffffffffffffffffffffff168152602001908152602001600020819060008060600151908060400151908060200151908060000151905085856328dcb2a0600052602052604052602060606044601c600073a193e42526f1fea8c99af609dceabf30c1c29faa7f00000000000000000000000000000000fffffffffffffffffffffffffffffffff150606051848484846000908160000152908160200152908160400152908160600152509550505050505050508173ffffffffffffffffffffffffffffffffffffffff16600073ffffffffffffffffffffffffffffffffffffffff167fddf252ad1be2c89b69c2b068fc378daa952ba7f163c4a11628f55a4df523b3ef83604051611cde9190612b5961660c565b60405180910390a3505061660c565b6000611d2c83836040518060400160405280601b81526020017f536166654d6174683a206164646974696f6e206f766572666c6f770000000000815250611d7e61660c565b90509291505061660c565b6000611d7683836040518060400160405280601e81526020017f536166654d6174683a207375627472616374696f6e206f766572666c6f7700008152506117d761660c565b90509291505061660c565b6000808385019050848110158390611dcc9061660c57506040517f08c379a0000000000000000000000000000000000000000000000000000000008152600401611dc3919061293761660c565b60405180910390fd5b5080915050939250505061660c565b600081359050611de781612d1161660c565b9291505061660c565b600081359050611dfc81612d2861660c565b9291505061660c565b600082601f830112611e139061660c5750600080fd5b8135611e26611e2182612bbc61660c565b612b8f61660c565b91508082526020830160208301858383011115611e429061660c5750600080fd5b611e4d838284612c7961660c565b5050509291505061660c565b600060808284031215611e689061660c5750600080fd5b611e726080612b8f61660c565b90506000611e8284828501611dd861660c565b6000830152506020611e9684828501611ded61660c565b6020830152506040611eaa84828501611ee261660c565b604083015250606082013567ffffffffffffffff811115611eca9061660c5750600080fd5b611ed684828501611e0261660c565b6060830152509291505061660c565b600081359050611ef181612d3f61660c565b9291505061660c565b600060208284031215611f099061660c5750600080fd5b6000611f1784828501611dd861660c565b9150509291505061660c565b60008060408385031215611f339061660c5750600080fd5b6000611f4185828601611dd861660c565b9250506020611f5285828601611dd861660c565b915050925092905061660c565b600080600060608486031215611f719061660c5750600080fd5b6000611f7f86828701611dd861660c565b9350506020611f9086828701611dd861660c565b9250506040611fa186828701611ee261660c565b915050925092509261660c565b60008060408385031215611fbe9061660c5750600080fd5b6000611fcc85828601611dd861660c565b9250506020611fdd85828601611ee261660c565b915050925092905061660c565b600060208284031215611ff99061660c5750600080fd5b600061200784828501611ded61660c565b9150509291505061660c565b6000806000606084860312156120259061660c5750600080fd5b600061203386828701611ded61660c565b935050602061204486828701611dd861660c565b925050604061205586828701611ded61660c565b915050925092509261660c565b6000602082840312156120719061660c5750600080fd5b600082013567ffffffffffffffff81111561208b9061660c5750600080fd5b61209784828501611e5661660c565b9150509291505061660c565b600080604083850312156120b39061660c5750600080fd5b600083013567ffffffffffffffff8111156120cd9061660c5750600080fd5b6120d985828601611e5661660c565b925050602083013567ffffffffffffffff8111156120f69061660c5750600080fd5b61210285828601611e5661660c565b915050925092905061660c565b60006020828403121561211e9061660c5750600080fd5b600061212c84828501611ee261660c565b9150509291505061660c565b61213e81612c1a61660c565b8252505061660c565b61215561215082612c1a61660c565b612cbb61660c565b8252505061660c565b61216481612c2c61660c565b8252505061660c565b61217381612c3861660c565b8252505061660c565b61218a61218582612c3861660c565b612ccd61660c565b8252505061660c565b600061219b82612be861660c565b6121a58185612bfe61660c565b93506121b5818560208601612c8861660c565b6121be81612cf361660c565b84019150509291505061660c565b60006121d6602383612bfe61660c565b91507f45524332303a207472616e7366657220746f20746865207a65726f206164647260008301527f6573730000000000000000000000000000000000000000000000000000000000602083015260408201905091905061660c565b600061223c600c83612bfe61660c565b91507f67616d65206973206f7665720000000000000000000000000000000000000000600083015260208201905091905061660c565b600061227c601c83612c0f61660c565b91507f19457468657265756d205369676e6564204d6573736167653a0a3332000000006000830152601c8201905091905061660c565b60006122bc601d83612bfe61660c565b91507f696e76616c6964207369676e617475726520666f7220706c6179657232000000600083015260208201905091905061660c565b60006122fc601083612bfe61660c565b91507f67616d65206973207374696c6c206f6e00000000000000000000000000000000600083015260208201905091905061660c565b600061233c602283612bfe61660c565b91507f45524332303a20617070726f766520746f20746865207a65726f20616464726560008301527f7373000000000000000000000000000000000000000000000000000000000000602083015260408201905091905061660c565b60006123a2601d83612bfe61660c565b91507f696e76616c6964207369676e617475726520666f7220706c6179657231000000600083015260208201905091905061660c565b60006123e2601a83612bfe61660c565b91507f696e76616c69642073656372657420666f7220706c6179657231000000000000600083015260208201905091905061660c565b6000612422600e83612bfe61660c565b91507f696e76616c696420706c61796572000000000000000000000000000000000000600083015260208201905091905061660c565b6000612462601a83612bfe61660c565b91507f696e76616c69642073656372657420666f7220706c6179657232000000000000600083015260208201905091905061660c565b60006124a2602183612bfe61660c565b91507f45524332303a206275726e2066726f6d20746865207a65726f2061646472657360008301527f7300000000000000000000000000000000000000000000000000000000000000602083015260408201905091905061660c565b6000612508602583612bfe61660c565b91507f45524332303a207472616e736665722066726f6d20746865207a65726f20616460008301527f6472657373000000000000000000000000000000000000000000000000000000602083015260408201905091905061660c565b600061256e601883612bfe61660c565b91507f696e76616c69642d7369676e61747572652d666f726d61740000000000000000600083015260208201905091905061660c565b60006125ae600083612bf361660c565b915060008201905091905061660c565b60006125c8601e83612bfe61660c565b91507f6f7264657220616c7265616479207573656420666f7220706c61796572310000600083015260208201905091905061660c565b6000612608601e83612bfe61660c565b91507f6f7264657220616c7265616479207573656420666f7220706c61796572320000600083015260208201905091905061660c565b6000612648602483612bfe61660c565b91507f45524332303a20617070726f76652066726f6d20746865207a65726f2061646460008301527f7265737300000000000000000000000000000000000000000000000000000000602083015260408201905091905061660c565b60006126ae601f83612bfe61660c565b91507f45524332303a206d696e7420746f20746865207a65726f206164647265737300600083015260208201905091905061660c565b6126ea81612c6261660c565b8252505061660c565b6127016126fc82612c6261660c565b612ce961660c565b8252505061660c565b61271081612c6c61660c565b8252505061660c565b6000612722828761214461660c565b601482019150612732828661214461660c565b601482019150612742828561217961660c565b60208201915061275282846126f061660c565b6020820191508190509594505050505061660c565b6000612770828661214461660c565b601482019150612780828561217961660c565b602082019150612790828461217961660c565b60208201915081905094935050505061660c565b60006127ad828461217961660c565b6020820191508190509291505061660c565b60006127c8828561217961660c565b6020820191506127d8828461217961660c565b602082019150819050939250505061660c565b60006127f38261226f61660c565b91506127ff828461217961660c565b6020820191508190509291505061660c565b6000612819826125a161660c565b915081905091905061660c565b6000602082019050612838600083018461213561660c565b9291505061660c565b600061010082019050612854600083018b61213561660c565b612861602083018a61213561660c565b61286e604083018961216a61660c565b61287b606083018861216a61660c565b612888608083018761216a61660c565b61289560a083018661216a61660c565b6128a260c08301856126e161660c565b6128af60e08301846126e161660c565b999850505050505050505061660c565b60006020820190506128d1600083018461215b61660c565b9291505061660c565b60006020820190506128ec600083018461216a61660c565b9291505061660c565b6000608082019050612907600083018761216a61660c565b612914602083018661270761660c565b612921604083018561216a61660c565b61292e606083018461216a61660c565b9594505050505061660c565b60006020820190508181036000830152612951818461219061660c565b90509291505061660c565b60006020820190508181036000830152612972816121c961660c565b905091905061660c565b600060208201905081810360008301526129928161222f61660c565b905091905061660c565b600060208201905081810360008301526129b2816122af61660c565b905091905061660c565b600060208201905081810360008301526129d2816122ef61660c565b905091905061660c565b600060208201905081810360008301526129f28161232f61660c565b905091905061660c565b60006020820190508181036000830152612a128161239561660c565b905091905061660c565b60006020820190508181036000830152612a32816123d561660c565b905091905061660c565b60006020820190508181036000830152612a528161241561660c565b905091905061660c565b60006020820190508181036000830152612a728161245561660c565b905091905061660c565b60006020820190508181036000830152612a928161249561660c565b905091905061660c565b60006020820190508181036000830152612ab2816124fb61660c565b905091905061660c565b60006020820190508181036000830152612ad28161256161660c565b905091905061660c565b60006020820190508181036000830152612af2816125bb61660c565b905091905061660c565b60006020820190508181036000830152612b12816125fb61660c565b905091905061660c565b60006020820190508181036000830152612b328161263b61660c565b905091905061660c565b60006020820190508181036000830152612b52816126a161660c565b905091905061660c565b6000602082019050612b6e60008301846126e161660c565b9291505061660c565b6000602082019050612b89600083018461270761660c565b9291505061660c565b6000604051905081810181811067ffffffffffffffff82111715612bb29061660c5750600080fd5b806040525091905061660c565b600067ffffffffffffffff821115612bd39061660c5750600080fd5b601f19601f830116905060208101905091905061660c565b60008151905091905061660c565b60008190509291505061660c565b60008282526020820190509291505061660c565b60008190509291505061660c565b6000612c2582612c4261660c565b905091905061660c565b6000811515905091905061660c565b600081905091905061660c565b600073ffffffffffffffffffffffffffffffffffffffff8216905091905061660c565b600081905091905061660c565b600060ff8216905091905061660c565b8281833760008383015250505061660c565b60005b83811015612ca69061660c57508082015181840152602081019050612c8b61660c565b83811115612cb59061660c57506000848401525b5050505061660c565b6000612cc682612cd761660c565b905091905061660c565b600081905091905061660c565b6000612ce282612d0461660c565b905091905061660c565b600081905091905061660c565b6000601f19601f830116905091905061660c565b60008160601b905091905061660c565b612d1a81612c1a61660c565b8114612d259061660c5750600080fd5b5061660c565b612d3181612c3861660c565b8114612d3c9061660c5750600080fd5b5061660c565b612d4881612c6261660c565b8114612d539061660c5750600080fd5b5061660c56fe45524332303a206275726e20616d6f756e7420657863656564732062616c616e636545524332303a207472616e7366657220616d6f756e7420657863656564732062616c616e636545524332303a207472616e7366657220616d6f756e74206578636565647320616c6c6f77616e63650000000000005b9050565b80611dcc146153219062006608575080611dcc106200787e578061096e14611579906200660857508061096e1062006f5b57806103691461047a90620066085750806103691062006ad65780610227146102e8906200660857508061022710620068a0578061018d14610227906200660857508061018d106200679f578061013b146101c2906200660857508061013b106200672b578061011414610190906200660857508061011410620066f0578060a01460e7906200660857508060a010620066e05780606414608f90620066085750005b8060e71461014f90620066085750005b80610125146101a69062006608575080610125106200671a57806101191461019590620066085750005b8061012e146101b290620066085750005b8061016b146101fd906200660857508061016b106200677f5780610150146101dc9062006608575080610150106200676e5780610144146101cb90620066085750005b80610166146101f590620066085750005b806101811461021690620066085750806101781461020d90620066085750005b806101e01461028e90620066085750806101e0106200682c57806101b81461025d90620066085750806101b8106200680c57806101a31461024390620066085750806101a310620067fb57806101961461023390620066085750005b806101ac1461024c90620066085750005b806101d31461027e90620066085750806101ce1461027690620066085750005b80610210146102c99062006608575080610210106200688057806101f5146102a890620066085750806101f5106200686f57806101e91461029790620066085750005b8061020b146102c190620066085750005b8061021e146102dc9062006608575080610212146102cb90620066085750005b806102cc146103b490620066085750806102cc10620069d557806102881461035f90620066085750806102881062006961578061025f1461032b906200660857508061025f1062006926578061023d14610301906200660857508061023d10620069155780610234146102f890620066085750005b806102491461031290620066085750005b80610266146103359062006608575080610266106200695057806102641461033390620066085750005b806102721461034690620066085750005b806102b11461039390620066085750806102b110620069b5578061028f14610369906200660857508061028f10620069a4578061028d1461036790620066085750005b8061029b1461037a90620066085750005b806102c3146103ab90620066085750806102b61461039b90620066085750005b8061032b14610429906200660857508061032b1062006a625780610300146103f690620066085750806103001062006a4257806102ee146103de90620066085750806102ee1062006a3157806102d8146103c590620066085750005b806102f3146103e690620066085750005b80610315146104109062006608575080610309146103ff90620066085750005b806103471461045090620066085750806103471062006ab657806103321461043390620066085750806103321062006aa557806103301461043190620066085750005b8061033e1461044490620066085750005b8061035d1461046990620066085750806103541461046090620066085750005b80610510146107f890620066085750806105101062006d25578061041c14610555906200660857508061041c1062006c2457806103cd146104f290620066085750806103cd1062006bb057806103a1146104bb90620066085750806103a11062006b7557806103841461049b90620066085750806103841062006b64578061037f1461049390620066085750005b80610398146104b290620066085750005b806103ab146104c890620066085750806103ab1062006b9f57806103a9146104c690620066085750005b806103b7146104d990620066085750005b806103f41461052490620066085750806103f41062006c0457806103df1461050a90620066085750806103df1062006bf357806103d2146104fa90620066085750005b806103e81461051390620066085750005b8061040f14610545906200660857508061040a1461053d90620066085750005b806104581461059f90620066085750806104581062006cb1578061044c14610590906200660857508061044c1062006c9157806104311461056f90620066085750806104311062006c8057806104251461055e90620066085750005b806104471461058890620066085750005b806104561461059d906200660857508061044e1461059290620066085750005b8061048c146105e1906200660857508061048c1062006d05578061047a146105c9906200660857508061047a1062006cf45780610464146105b090620066085750005b8061047f146105d190620066085750005b80610502146107ea9062006608575080610495146105ea90620066085750005b806106df14610e0990620066085750806106df1062006e5a578061061814610bed90620066085750806106181062006de6578061054e14610935906200660857508061054e1062006dab5780610537146108a990620066085750806105371062006d9a578061052d1461089c90620066085750005b806105441461092890620066085750005b80610565146109d490620066085750806105651062006dd55780610558146109c490620066085750005b8061061314610be590620066085750005b8061069214610db490620066085750806106921062006e3a578061062d14610c77906200660857508061062d1062006e29578061062314610bfb90620066085750005b8061065514610d1190620066085750005b806106d614610e00906200660857508061069714610db990620066085750005b8061081e146111dd906200660857508061081e1062006ee7578061075a14611005906200660857508061075a1062006ec757806106fc14610eae90620066085750806106fc1062006eb657806106e514610e1290620066085750005b8061075114610ffc90620066085750005b80610815146111d490620066085750806107c3146110f890620066085750005b8061091f1461148e906200660857508061091f1062006f3b5780610864146112bf90620066085750806108641062006f2a5780610857146112af90620066085750005b806108cd146113b290620066085750005b806109611461156990620066085750806109281461149790620066085750005b806112df14613d8890620066085750806112df10620073f95780610e9d1461253a9062006608575080610e9d10620071c35780610b221461175d9062006608575080610b2210620070c257806109e71461160690620066085750806109e7106200704e57806109b0146115c190620066085750806109b0106200701357806109a9146115b790620066085750806109a9106200700257806109a0146115ae90620066085750005b806109aa146115b890620066085750005b806109d2146115eb90620066085750806109d2106200703d57806109c4146115da90620066085750005b806109d7146115f390620066085750005b80610a9a146116ca9062006608575080610a9a10620070a25780610a03146116289062006608575080610a03106200709157806109ec1461160e90620066085750005b80610a321461165a90620066085750005b80610aba146116ed9062006608575080610aa3146116d390620066085750005b80610c11146119669062006608575080610c11106200714f5780610ba7146118729062006608575080610ba7106200712f5780610b3d1461177b9062006608575080610b3d106200711e5780610b2b1461176690620066085750005b80610b4f1461179090620066085750005b80610c081461195d9062006608575080610bb01461187b90620066085750005b80610e3f146123499062006608575080610e3f10620071a35780610de7146122699062006608575080610de710620071925780610d941461221390620066085750005b80610df71461227c90620066085750005b80610e941461252c9062006608575080610e5f146123ee90620066085750005b8061111a1461340d906200660857508061111a10620072f8578061104814612db4906200660857508061104810620072845780610fb314612a6e9062006608575080610fb310620072495780610f3e146128ed9062006608575080610f3e10620072385780610ee01461270690620066085750005b80610f8d146129c690620066085750005b80610fcd14612ba69062006608575080610fcd10620072735780610fbd14612afd90620066085750005b8061103a14612da690620066085750005b806111011461337c906200660857508061110110620072d8578061106f14612e65906200660857508061106f10620072c7578061106514612e5890620066085750005b806110f71461330090620066085750005b806111101461340090620066085750806111031461338190620066085750005b8061121d1461391a906200660857508061121d106200738557806111b91461361a90620066085750806111b91062007365578061115c146134c4906200660857508061115c1062007354578061113f146134a490620066085750005b806111b01461361190620066085750005b806111dd1461374c90620066085750806111d41461373e90620066085750005b8061129d14613c37906200660857508061129d10620073d9578061126214613af0906200660857508061126210620073c857806112221461392290620066085750005b8061126714613af890620066085750005b806112d914613d7f90620066085750806112a314613c4090620066085750005b806119d414614b5790620066085750806119d4106200764857806116241461431c9062006608575080611624106200754757806113f21461403690620066085750806113f210620074d357806112f914613ead90620066085750806112f9106200749857806112e114613d8a90620066085750806112e1106200748757806112e014613d8990620066085750005b806112ef14613e3190620066085750005b8061138214613fbe906200660857508061138210620074c257806112fb14613eb290620066085750005b806113e91461402d90620066085750005b8061154d14614235906200660857508061154d10620075275780611462146140ae906200660857508061146210620075165780611459146140a590620066085750005b806115401461422590620066085750005b806115bd146142ad90620066085750806115b4146142a490620066085750005b8061181f1461475b906200660857508061181f10620075d457806117ca146146fb90620066085750806117ca10620075b4578061169814614415906200660857508061169810620075a3578061162d1461432590620066085750005b8061172b146145c390620066085750005b806118161461475290620066085750806117d71461470b90620066085750005b8061190d146148d9906200660857508061190d10620076285780611899146147e09062006608575080611899106200761757806118321461477190620066085750005b806118a2146147e990620066085750005b806119c814614b48906200660857508061196414614a4b90620066085750005b80611b5314614ddb9062006608575080611b53106200777d5780611acc14614c6d9062006608575080611acc10620077095780611a7d14614c169062006608575080611a7d10620076ce5780611a0414614b8d9062006608575080611a0410620076bd57806119e714614b6d90620066085750005b80611a3114614bc290620066085750005b80611ab814614c549062006608575080611ab810620076f85780611aaf14614c4b90620066085750005b80611ab914614c5590620066085750005b80611b2f14614d3f9062006608575080611b2f106200775d5780611aea14614c959062006608575080611aea106200774c5780611ae114614c8790620066085750005b80611b0d14614cbb90620066085750005b80611b4f14614dd49062006608575080611b4414614d5790620066085750005b80611cde1461521c9062006608575080611cde106200780a5780611bd214614ed79062006608575080611bd210620077ea5780611b6214614e5f9062006608575080611b6210620077d95780611b5e14614e5890620066085750005b80611bc914614ece90620066085750005b80611c3e146150e39062006608575080611be714614f7190620066085750005b80611d76146152c09062006608575080611d76106200785e5780611d2c146152709062006608575080611d2c106200784d5780611cea1461522b90620066085750005b80611d341461527b90620066085750005b80611dc3146153189062006608575080611d7e146152cb90620066085750005b8061270714615dd8906200660857508061270710620081ba57806121351461575890620066085750806121351062007d355780611f711461552b9062006608575080611f711062007aff5780611e961461541e9062006608575080611e9610620079fe5780611e26146153959062006608575080611e26106200798a5780611dfc1461535d9062006608575080611dfc106200794f5780611de7146153429062006608575080611de7106200793e5780611dd81461533090620066085750005b80611ded1461534b90620066085750005b80611e131461537c9062006608575080611e1310620079795780611e021461536690620066085750005b80611e211461538d90620066085750005b80611e68146153e79062006608575080611e6810620079de5780611e4d146153c49062006608575080611e4d10620079cd5780611e42146153b690620066085750005b80611e56146153d090620066085750005b80611e82146154079062006608575080611e72146153f490620066085750005b80611f09146154aa9062006608575080611f091062007a8b5780611ee2146154789062006608575080611ee21062007a6b5780611eca1461545a9062006608575080611eca1062007a5a5780611eaa1461543590620066085750005b80611ed61461546990620066085750005b80611ef7146154939062006608575080611ef11461548a90620066085750005b80611f41146154f09062006608575080611f411062007adf5780611f20146154c79062006608575080611f201062007ace5780611f17146154bb90620066085750005b80611f33146154df90620066085750005b80611f5c146155119062006608575080611f521461550490620066085750005b806120551461564290620066085750806120551062007c345780611fe7146155bb9062006608575080611fe71062007bc05780611fab146155719062006608575080611fab1062007b855780611f90146155509062006608575080611f901062007b745780611f7f1461553c90620066085750005b80611fa11461556490620066085750005b80611fcc1461559a9062006608575080611fcc1062007baf5780611fbe1461558990620066085750005b80611fdd146155ae90620066085750005b806120251461560990620066085750806120251062007c145780612007146155e390620066085750806120071062007c035780611ff9146155d290620066085750005b80612010146155ef90620066085750005b806120441461562e90620066085750806120331461561a90620066085750005b806120cd146156d790620066085750806120cd1062007cc157806120971461569490620066085750806120971062007ca157806120711461566690620066085750806120711062007c90578061205f1461564f90620066085750005b8061208b1461568590620066085750005b806120b3146156b890620066085750806120a0146156a090620066085750005b8061210c14615724906200660857508061210c1062007d1557806120f61461570890620066085750806120f61062007d0457806120d9146156e690620066085750005b806121021461571790620066085750005b8061212c1461574c906200660857508061211e1461573b90620066085750005b8061239514615a0f90620066085750806123951062007f8457806121b51461580590620066085750806121b51062007e835780612173146157ae90620066085750806121731062007e0f57806121551461578490620066085750806121551062007dd457806121441461576d90620066085750806121441062007dc3578061213e1461576490620066085750005b806121501461577c90620066085750005b806121641461579990620066085750806121641062007dfe578061215b1461578d90620066085750005b8061216a146157a290620066085750005b80612190146157d790620066085750806121901062007e635780612185146157c690620066085750806121851062007e525780612179146157b790620066085750005b8061218a146157ce90620066085750005b806121a5146157f2906200660857508061219b146157e590620066085750005b8061227c146158e1906200660857508061227c1062007f10578061222f1461588b906200660857508061222f1062007ef057806121c91461581f90620066085750806121c91062007edf57806121be1461581190620066085750005b806121d61461582f90620066085750005b8061226f146158d1906200660857508061223c1461589b90620066085750005b806122fc1461596d90620066085750806122fc1062007f6457806122bc1461592790620066085750806122bc1062007f5357806122af1461591790620066085750005b806122ef1461595d90620066085750005b8061233c146159b3906200660857508061232f146159a390620066085750005b806125ae14615c5590620066085750806125ae10620080b9578061249514615b2790620066085750806124951062008045578061241514615a9b9062006608575080612415106200800a57806123d514615a5590620066085750806123d51062007ff957806123a214615a1f90620066085750005b806123e214615a6590620066085750005b8061245514615ae190620066085750806124551062008034578061242214615aab90620066085750005b8061246214615af190620066085750005b8061256114615bff9062006608575080612561106200809957806124fb14615b9390620066085750806124fb106200808857806124a214615b3790620066085750005b8061250814615ba390620066085750005b806125a114615c45906200660857508061256e14615c0f90620066085750005b806126a114615d5d90620066085750806126a11062008146578061260814615cbb9062006608575080612608106200812657806125c814615c7590620066085750806125c8106200811557806125bb14615c6590620066085750005b806125fb14615cab90620066085750005b8061264814615d01906200660857508061263b14615cf190620066085750005b806126f014615db890620066085750806126f0106200819a57806126e114615da390620066085750806126e1106200818957806126ae14615d6d90620066085750005b806126ea14615daf90620066085750005b8061270114615dcf90620066085750806126fc14615dc790620066085750005b80612a52146161d19062006608575080612a521062008658578061289514615fbd9062006608575080612895106200842257806127d814615ed690620066085750806127d81062008321578061277014615e59906200660857508061277010620082ad578061273214615e0f90620066085750806127321062008272578061271614615ded90620066085750806127161062008261578061271014615de490620066085750005b8061272214615dfc90620066085750005b8061275214615e359062006608575080612752106200829c578061274214615e2290620066085750005b8061276414615e4a90620066085750005b806127ad14615ea290620066085750806127ad1062008301578061279014615e7f906200660857508061279010620082f0578061278014615e6c90620066085750005b806127a114615e9390620066085750005b806127c814615ec390620066085750806127bc14615eb490620066085750005b8061283814615f4b906200660857508061283810620083ae578061280e14615f18906200660857508061280e106200838e57806127f314615ef790620066085750806127f3106200837d57806127e814615ee990620066085750005b806127ff14615f0690620066085750005b8061282314615f33906200660857508061281914615f2690620066085750005b8061286e14615f8d906200660857508061286e1062008402578061285414615f6d906200660857508061285410620083f1578061283e14615f5490620066085750005b8061286114615f7d90620066085750005b8061288814615fad906200660857508061287b14615f9d90620066085750005b80612972146160c790620066085750806129721062008557578061290714616047906200660857508061290710620084e357806128d11461600590620066085750806128d110620084a857806128af14615fdd90620066085750806128af106200849757806128a214615fcd90620066085750005b806128bc14615fed90620066085750005b806128ec1461602690620066085750806128ec10620084d257806128d71461600e90620066085750005b806128f21461602f90620066085750005b8061293714616083906200660857508061293710620085375780612921146160679062006608575080612921106200852657806129141461605790620066085750005b8061292e1461607790620066085750005b80612959146160ab9062006608575080612951146160a090620066085750005b806129d91461614390620066085750806129d910620085e457806129b21461611390620066085750806129b210620085c45780612992146160ed906200660857508061299210620085b35780612979146160d190620066085750005b80612999146160f790620066085750005b806129d21461613990620066085750806129b91461611d90620066085750005b80612a191461618f9062006608575080612a19106200863857806129f91461616990620066085750806129f9106200862757806129f21461615f90620066085750005b80612a121461618590620066085750005b80612a39146161b59062006608575080612a32146161ab90620066085750005b80612c1a146163f49062006608575080612c1a10620088a75780612b39146162e59062006608575080612b3910620087a65780612ad2146162699062006608575080612ad210620087325780612a921461621d9062006608575080612a9210620086f75780612a72146161f79062006608575080612a7210620086e65780612a59146161db90620066085750005b80612a791461620190620066085750005b80612ab2146162439062006608575080612ab210620087215780612a991461622790620066085750005b80612ab91461624d90620066085750005b80612b12146162b59062006608575080612b1210620087865780612af21461628f9062006608575080612af210620087755780612ad91461627390620066085750005b80612af91461629990620066085750005b80612b32146162db9062006608575080612b19146162bf90620066085750005b80612bb2146163759062006608575080612bb210620088335780612b741461632c9062006608575080612b7410620088135780612b591461630b9062006608575080612b5910620088025780612b521461630190620066085750005b80612b6e1461632390620066085750005b80612b8f1461634d9062006608575080612b891461634490620066085750005b80612bf3146163c49062006608575080612bf310620088875780612bd31461639e9062006608575080612bd310620088765780612bbc1461638290620066085750005b80612be8146163b690620066085750005b80612c0f146163e69062006608575080612bfe146163d290620066085750005b80612cd7146164e29062006608575080612cd710620089dc5780612c881461647a9062006608575080612c8810620089685780612c42146164289062006608575080612c42106200892d5780612c2c1461640c9062006608575080612c2c106200891c5780612c251461640290620066085750005b80612c381461641b90620066085750005b80612c6c146164589062006608575080612c6c10620089575780612c621461644b90620066085750005b80612c791461646890620066085750005b80612cbb146164bd9062006608575080612cbb10620089bc5780612ca6146164a09062006608575080612ca610620089ab5780612c8b1461647d90620066085750005b80612cb5146164b490620066085750005b80612ccd146164d59062006608575080612cc6146164cb90620066085750005b80612d25146165479062006608575080612d251062008a695780612d041461651b9062006608575080612d041062008a495780612ce9146164fa9062006608575080612ce91062008a385780612ce2146164f090620066085750005b80612cf31461650790620066085750005b80612d1a146165379062006608575080612d111461652b90620066085750005b80612d3f1461656f9062006608575080612d3f1062008abd5780612d31146165599062006608575080612d311062008aac5780612d281461654d90620066085750005b80612d3c1461656990620066085750005b80612d531461658b9062006608575080612d481461657b9062006608575000",
      "opcodes": "PUSH1 0x80 PUSH1 0x40 MSTORE PUSH1 0x4 CALLDATASIZE LT PUSH2 0x114 JUMPI PUSH1 0x0 CALLDATALOAD PUSH1 0xE0 SHR DUP1 PUSH4 0x877B954A GT PUSH2 0xA0 JUMPI DUP1 PUSH4 0xA9059CBB GT PUSH2 0x64 JUMPI DUP1 PUSH4 0xA9059CBB EQ PUSH2 0x3AB JUMPI DUP1 PUSH4 0xAE21875E EQ PUSH2 0x3E8 JUMPI DUP1 PUSH4 0xBD66528A EQ PUSH2 0x425 JUMPI DUP1 PUSH4 0xD0E30DB0 EQ PUSH2 0x44E JUMPI DUP1 PUSH4 0xDD62ED3E EQ PUSH2 0x458 JUMPI PUSH2 0x114 JUMP JUMPDEST DUP1 PUSH4 0x877B954A EQ PUSH2 0x2CC JUMPI DUP1 PUSH4 0x92584D80 EQ PUSH2 0x309 JUMPI DUP1 PUSH4 0x95D89B41 EQ PUSH2 0x332 JUMPI DUP1 PUSH4 0x9FE9ADA3 EQ PUSH2 0x35D JUMPI DUP1 PUSH4 0xA3E76C0F EQ PUSH2 0x3A1 JUMPI PUSH2 0x114 JUMP JUMPDEST DUP1 PUSH4 0x2E1A7D4D GT PUSH2 0xE7 JUMPI DUP1 PUSH4 0x2E1A7D4D EQ PUSH2 0x1E9 JUMPI DUP1 PUSH4 0x313CE567 EQ PUSH2 0x212 JUMPI DUP1 PUSH4 0x39A7AA23 EQ PUSH2 0x23D JUMPI DUP1 PUSH4 0x55640C4F EQ PUSH2 0x266 JUMPI DUP1 PUSH4 0x70A08231 EQ PUSH2 0x28F JUMPI PUSH2 0x114 JUMP JUMPDEST DUP1 PUSH4 0x6FDDE03 EQ PUSH2 0x119 JUMPI DUP1 PUSH4 0x95EA7B3 EQ PUSH2 0x144 JUMPI DUP1 PUSH4 0x18160DDD EQ PUSH2 0x181 JUMPI DUP1 PUSH4 0x23B872DD EQ PUSH2 0x1AC JUMPI JUMPDEST PUSH1 0x0 DUP1 REVERT JUMPDEST CALLVALUE DUP1 ISZERO PUSH2 0x125 JUMPI PUSH1 0x0 DUP1 REVERT JUMPDEST POP PUSH2 0x12E PUSH2 0x495 JUMP JUMPDEST PUSH1 0x40 MLOAD PUSH2 0x13B SWAP2 SWAP1 PUSH2 0x2937 JUMP JUMPDEST PUSH1 0x40 MLOAD DUP1 SWAP2 SUB SWAP1 RETURN JUMPDEST CALLVALUE DUP1 ISZERO PUSH2 0x150 JUMPI PUSH1 0x0 DUP1 REVERT JUMPDEST POP PUSH2 0x16B PUSH1 0x4 DUP1 CALLDATASIZE SUB PUSH2 0x166 SWAP2 SWAP1 DUP2 ADD SWAP1 PUSH2 0x1FAB JUMP JUMPDEST PUSH2 0x537 JUMP JUMPDEST PUSH1 0x40 MLOAD PUSH2 0x178 SWAP2 SWAP1 PUSH2 0x28BC JUMP JUMPDEST PUSH1 0x40 MLOAD DUP1 SWAP2 SUB SWAP1 RETURN JUMPDEST CALLVALUE DUP1 ISZERO PUSH2 0x18D JUMPI PUSH1 0x0 DUP1 REVERT JUMPDEST POP PUSH2 0x196 PUSH2 0x54E JUMP JUMPDEST PUSH1 0x40 MLOAD PUSH2 0x1A3 SWAP2 SWAP1 PUSH2 0x2B59 JUMP JUMPDEST PUSH1 0x40 MLOAD DUP1 SWAP2 SUB SWAP1 RETURN JUMPDEST CALLVALUE DUP1 ISZERO PUSH2 0x1B8 JUMPI PUSH1 0x0 DUP1 REVERT JUMPDEST POP PUSH2 0x1D3 PUSH1 0x4 DUP1 CALLDATASIZE SUB PUSH2 0x1CE SWAP2 SWAP1 DUP2 ADD SWAP1 PUSH2 0x1F5C JUMP JUMPDEST PUSH2 0x558 JUMP JUMPDEST PUSH1 0x40 MLOAD PUSH2 0x1E0 SWAP2 SWAP1 PUSH2 0x28BC JUMP JUMPDEST PUSH1 0x40 MLOAD DUP1 SWAP2 SUB SWAP1 RETURN JUMPDEST CALLVALUE DUP1 ISZERO PUSH2 0x1F5 JUMPI PUSH1 0x0 DUP1 REVERT JUMPDEST POP PUSH2 0x210 PUSH1 0x4 DUP1 CALLDATASIZE SUB PUSH2 0x20B SWAP2 SWAP1 DUP2 ADD SWAP1 PUSH2 0x210C JUMP JUMPDEST PUSH2 0x623 JUMP JUMPDEST STOP JUMPDEST CALLVALUE DUP1 ISZERO PUSH2 0x21E JUMPI PUSH1 0x0 DUP1 REVERT JUMPDEST POP PUSH2 0x227 PUSH2 0x6E5 JUMP JUMPDEST PUSH1 0x40 MLOAD PUSH2 0x234 SWAP2 SWAP1 PUSH2 0x2B74 JUMP JUMPDEST PUSH1 0x40 MLOAD DUP1 SWAP2 SUB SWAP1 RETURN JUMPDEST CALLVALUE DUP1 ISZERO PUSH2 0x249 JUMPI PUSH1 0x0 DUP1 REVERT JUMPDEST POP PUSH2 0x264 PUSH1 0x4 DUP1 CALLDATASIZE SUB PUSH2 0x25F SWAP2 SWAP1 DUP2 ADD SWAP1 PUSH2 0x2010 JUMP JUMPDEST PUSH2 0x6FC JUMP JUMPDEST STOP JUMPDEST CALLVALUE DUP1 ISZERO PUSH2 0x272 JUMPI PUSH1 0x0 DUP1 REVERT JUMPDEST POP PUSH2 0x28D PUSH1 0x4 DUP1 CALLDATASIZE SUB PUSH2 0x288 SWAP2 SWAP1 DUP2 ADD SWAP1 PUSH2 0x20A0 JUMP JUMPDEST PUSH2 0x9B0 JUMP JUMPDEST STOP JUMPDEST CALLVALUE DUP1 ISZERO PUSH2 0x29B JUMPI PUSH1 0x0 DUP1 REVERT JUMPDEST POP PUSH2 0x2B6 PUSH1 0x4 DUP1 CALLDATASIZE SUB PUSH2 0x2B1 SWAP2 SWAP1 DUP2 ADD SWAP1 PUSH2 0x1EF7 JUMP JUMPDEST PUSH2 0xDF7 JUMP JUMPDEST PUSH1 0x40 MLOAD PUSH2 0x2C3 SWAP2 SWAP1 PUSH2 0x2B59 JUMP JUMPDEST PUSH1 0x40 MLOAD DUP1 SWAP2 SUB SWAP1 RETURN JUMPDEST CALLVALUE DUP1 ISZERO PUSH2 0x2D8 JUMPI PUSH1 0x0 DUP1 REVERT JUMPDEST POP PUSH2 0x2F3 PUSH1 0x4 DUP1 CALLDATASIZE SUB PUSH2 0x2EE SWAP2 SWAP1 DUP2 ADD SWAP1 PUSH2 0x1FE7 JUMP JUMPDEST PUSH2 0xE3F JUMP JUMPDEST PUSH1 0x40 MLOAD PUSH2 0x300 SWAP2 SWAP1 PUSH2 0x28BC JUMP JUMPDEST PUSH1 0x40 MLOAD DUP1 SWAP2 SUB SWAP1 RETURN JUMPDEST CALLVALUE DUP1 ISZERO PUSH2 0x315 JUMPI PUSH1 0x0 DUP1 REVERT JUMPDEST POP PUSH2 0x330 PUSH1 0x4 DUP1 CALLDATASIZE SUB PUSH2 0x32B SWAP2 SWAP1 DUP2 ADD SWAP1 PUSH2 0x1FE7 JUMP JUMPDEST PUSH2 0xE5F JUMP JUMPDEST STOP JUMPDEST CALLVALUE DUP1 ISZERO PUSH2 0x33E JUMPI PUSH1 0x0 DUP1 REVERT JUMPDEST POP PUSH2 0x347 PUSH2 0xFCD JUMP JUMPDEST PUSH1 0x40 MLOAD PUSH2 0x354 SWAP2 SWAP1 PUSH2 0x2937 JUMP JUMPDEST PUSH1 0x40 MLOAD DUP1 SWAP2 SUB SWAP1 RETURN JUMPDEST CALLVALUE DUP1 ISZERO PUSH2 0x369 JUMPI PUSH1 0x0 DUP1 REVERT JUMPDEST POP PUSH2 0x384 PUSH1 0x4 DUP1 CALLDATASIZE SUB PUSH2 0x37F SWAP2 SWAP1 DUP2 ADD SWAP1 PUSH2 0x1FE7 JUMP JUMPDEST PUSH2 0x106F JUMP JUMPDEST PUSH1 0x40 MLOAD PUSH2 0x398 SWAP9 SWAP8 SWAP7 SWAP6 SWAP5 SWAP4 SWAP3 SWAP2 SWAP1 PUSH2 0x283E JUMP JUMPDEST PUSH1 0x40 MLOAD DUP1 SWAP2 SUB SWAP1 RETURN JUMPDEST PUSH2 0x3A9 PUSH2 0x10F7 JUMP JUMPDEST STOP JUMPDEST CALLVALUE DUP1 ISZERO PUSH2 0x3B7 JUMPI PUSH1 0x0 DUP1 REVERT JUMPDEST POP PUSH2 0x3D2 PUSH1 0x4 DUP1 CALLDATASIZE SUB PUSH2 0x3CD SWAP2 SWAP1 DUP2 ADD SWAP1 PUSH2 0x1FAB JUMP JUMPDEST PUSH2 0x1103 JUMP JUMPDEST PUSH1 0x40 MLOAD PUSH2 0x3DF SWAP2 SWAP1 PUSH2 0x28BC JUMP JUMPDEST PUSH1 0x40 MLOAD DUP1 SWAP2 SUB SWAP1 RETURN JUMPDEST CALLVALUE DUP1 ISZERO PUSH2 0x3F4 JUMPI PUSH1 0x0 DUP1 REVERT JUMPDEST POP PUSH2 0x40F PUSH1 0x4 DUP1 CALLDATASIZE SUB PUSH2 0x40A SWAP2 SWAP1 DUP2 ADD SWAP1 PUSH2 0x205F JUMP JUMPDEST PUSH2 0x111A JUMP JUMPDEST PUSH1 0x40 MLOAD PUSH2 0x41C SWAP2 SWAP1 PUSH2 0x28D7 JUMP JUMPDEST PUSH1 0x40 MLOAD DUP1 SWAP2 SUB SWAP1 RETURN JUMPDEST CALLVALUE DUP1 ISZERO PUSH2 0x431 JUMPI PUSH1 0x0 DUP1 REVERT JUMPDEST POP PUSH2 0x44C PUSH1 0x4 DUP1 CALLDATASIZE SUB PUSH2 0x447 SWAP2 SWAP1 DUP2 ADD SWAP1 PUSH2 0x1FE7 JUMP JUMPDEST PUSH2 0x115C JUMP JUMPDEST STOP JUMPDEST PUSH2 0x456 PUSH2 0x12EF JUMP JUMPDEST STOP JUMPDEST CALLVALUE DUP1 ISZERO PUSH2 0x464 JUMPI PUSH1 0x0 DUP1 REVERT JUMPDEST POP PUSH2 0x47F PUSH1 0x4 DUP1 CALLDATASIZE SUB PUSH2 0x47A SWAP2 SWAP1 DUP2 ADD SWAP1 PUSH2 0x1F20 JUMP JUMPDEST PUSH2 0x12FB JUMP JUMPDEST PUSH1 0x40 MLOAD PUSH2 0x48C SWAP2 SWAP1 PUSH2 0x2B59 JUMP JUMPDEST PUSH1 0x40 MLOAD DUP1 SWAP2 SUB SWAP1 RETURN JUMPDEST PUSH1 0x60 PUSH1 0x3 DUP1 SLOAD PUSH1 0x1 DUP2 PUSH1 0x1 AND ISZERO PUSH2 0x100 MUL SUB AND PUSH1 0x2 SWAP1 DIV DUP1 PUSH1 0x1F ADD PUSH1 0x20 DUP1 SWAP2 DIV MUL PUSH1 0x20 ADD PUSH1 0x40 MLOAD SWAP1 DUP2 ADD PUSH1 0x40 MSTORE DUP1 SWAP3 SWAP2 SWAP1 DUP2 DUP2 MSTORE PUSH1 0x20 ADD DUP3 DUP1 SLOAD PUSH1 0x1 DUP2 PUSH1 0x1 AND ISZERO PUSH2 0x100 MUL SUB AND PUSH1 0x2 SWAP1 DIV DUP1 ISZERO PUSH2 0x52D JUMPI DUP1 PUSH1 0x1F LT PUSH2 0x502 JUMPI PUSH2 0x100 DUP1 DUP4 SLOAD DIV MUL DUP4 MSTORE SWAP2 PUSH1 0x20 ADD SWAP2 PUSH2 0x52D JUMP JUMPDEST DUP3 ADD SWAP2 SWAP1 PUSH1 0x0 MSTORE PUSH1 0x20 PUSH1 0x0 KECCAK256 SWAP1 JUMPDEST DUP2 SLOAD DUP2 MSTORE SWAP1 PUSH1 0x1 ADD SWAP1 PUSH1 0x20 ADD DUP1 DUP4 GT PUSH2 0x510 JUMPI DUP3 SWAP1 SUB PUSH1 0x1F AND DUP3 ADD SWAP2 JUMPDEST POP POP POP POP POP SWAP1 POP SWAP1 JUMP JUMPDEST PUSH1 0x0 PUSH2 0x544 CALLER DUP5 DUP5 PUSH2 0x1382 JUMP JUMPDEST PUSH1 0x1 SWAP1 POP SWAP3 SWAP2 POP POP JUMP JUMPDEST PUSH1 0x0 PUSH1 0x2 SLOAD SWAP1 POP SWAP1 JUMP JUMPDEST PUSH1 0x0 PUSH2 0x565 DUP5 DUP5 DUP5 PUSH2 0x154D JUMP JUMPDEST PUSH2 0x618 DUP5 CALLER PUSH2 0x613 DUP6 PUSH1 0x40 MLOAD DUP1 PUSH1 0x60 ADD PUSH1 0x40 MSTORE DUP1 PUSH1 0x28 DUP2 MSTORE PUSH1 0x20 ADD PUSH2 0x2D9F PUSH1 0x28 SWAP2 CODECOPY PUSH1 0x1 PUSH1 0x0 DUP12 PUSH20 0xFFFFFFFFFFFFFFFFFFFFFFFFFFFFFFFFFFFFFFFF AND PUSH20 0xFFFFFFFFFFFFFFFFFFFFFFFFFFFFFFFFFFFFFFFF AND DUP2 MSTORE PUSH1 0x20 ADD SWAP1 DUP2 MSTORE PUSH1 0x20 ADD PUSH1 0x0 KECCAK256 PUSH1 0x0 CALLER PUSH20 0xFFFFFFFFFFFFFFFFFFFFFFFFFFFFFFFFFFFFFFFF AND PUSH20 0xFFFFFFFFFFFFFFFFFFFFFFFFFFFFFFFFFFFFFFFF AND DUP2 MSTORE PUSH1 0x20 ADD SWAP1 DUP2 MSTORE PUSH1 0x20 ADD PUSH1 0x0 KECCAK256 SLOAD PUSH2 0x17D7 SWAP1 SWAP3 SWAP2 SWAP1 PUSH4 0xFFFFFFFF AND JUMP JUMPDEST PUSH2 0x1382 JUMP JUMPDEST PUSH1 0x1 SWAP1 POP SWAP4 SWAP3 POP POP POP JUMP JUMPDEST PUSH2 0x62D CALLER DUP3 PUSH2 0x1832 JUMP JUMPDEST PUSH1 0x0 PUSH1 0x60 CALLER PUSH20 0xFFFFFFFFFFFFFFFFFFFFFFFFFFFFFFFFFFFFFFFF AND DUP4 PUSH1 0x40 MLOAD PUSH2 0x655 SWAP1 PUSH2 0x280E JUMP JUMPDEST PUSH1 0x0 PUSH1 0x40 MLOAD DUP1 DUP4 SUB DUP2 DUP6 DUP8 GAS CALL SWAP3 POP POP POP RETURNDATASIZE DUP1 PUSH1 0x0 DUP2 EQ PUSH2 0x692 JUMPI PUSH1 0x40 MLOAD SWAP2 POP PUSH1 0x1F NOT PUSH1 0x3F RETURNDATASIZE ADD AND DUP3 ADD PUSH1 0x40 MSTORE RETURNDATASIZE DUP3 MSTORE RETURNDATASIZE PUSH1 0x0 PUSH1 0x20 DUP5 ADD RETURNDATACOPY PUSH2 0x697 JUMP JUMPDEST PUSH1 0x60 SWAP2 POP JUMPDEST POP SWAP2 POP SWAP2 POP DUP2 DUP2 SWAP1 PUSH2 0x6DF JUMPI PUSH1 0x40 MLOAD PUSH32 0x8C379A000000000000000000000000000000000000000000000000000000000 DUP2 MSTORE PUSH1 0x4 ADD PUSH2 0x6D6 SWAP2 SWAP1 PUSH2 0x2937 JUMP JUMPDEST PUSH1 0x40 MLOAD DUP1 SWAP2 SUB SWAP1 REVERT JUMPDEST POP POP POP POP JUMP JUMPDEST PUSH1 0x0 PUSH1 0x5 PUSH1 0x0 SWAP1 SLOAD SWAP1 PUSH2 0x100 EXP SWAP1 DIV PUSH1 0xFF AND SWAP1 POP SWAP1 JUMP JUMPDEST PUSH1 0x0 PUSH1 0x7 PUSH1 0x0 DUP6 DUP2 MSTORE PUSH1 0x20 ADD SWAP1 DUP2 MSTORE PUSH1 0x20 ADD PUSH1 0x0 KECCAK256 SWAP1 POP TIMESTAMP DUP2 PUSH1 0x7 ADD SLOAD LT ISZERO PUSH2 0x75A JUMPI PUSH1 0x40 MLOAD PUSH32 0x8C379A000000000000000000000000000000000000000000000000000000000 DUP2 MSTORE PUSH1 0x4 ADD PUSH2 0x751 SWAP1 PUSH2 0x2979 JUMP JUMPDEST PUSH1 0x40 MLOAD DUP1 SWAP2 SUB SWAP1 REVERT JUMPDEST DUP1 PUSH1 0x0 ADD PUSH1 0x0 SWAP1 SLOAD SWAP1 PUSH2 0x100 EXP SWAP1 DIV PUSH20 0xFFFFFFFFFFFFFFFFFFFFFFFFFFFFFFFFFFFFFFFF AND PUSH20 0xFFFFFFFFFFFFFFFFFFFFFFFFFFFFFFFFFFFFFFFF AND DUP4 PUSH20 0xFFFFFFFFFFFFFFFFFFFFFFFFFFFFFFFFFFFFFFFF AND EQ ISZERO PUSH2 0x864 JUMPI DUP2 PUSH1 0x40 MLOAD PUSH1 0x20 ADD PUSH2 0x7C3 SWAP2 SWAP1 PUSH2 0x27A1 JUMP JUMPDEST PUSH1 0x40 MLOAD PUSH1 0x20 DUP2 DUP4 SUB SUB DUP2 MSTORE SWAP1 PUSH1 0x40 MSTORE DUP1 MLOAD SWAP1 PUSH1 0x20 ADD KECCAK256 DUP2 PUSH1 0x2 ADD SLOAD EQ PUSH2 0x81E JUMPI PUSH1 0x40 MLOAD PUSH32 0x8C379A000000000000000000000000000000000000000000000000000000000 DUP2 MSTORE PUSH1 0x4 ADD PUSH2 0x815 SWAP1 PUSH2 0x2A19 JUMP JUMPDEST PUSH1 0x40 MLOAD DUP1 SWAP2 SUB SWAP1 REVERT JUMPDEST DUP2 DUP2 PUSH1 0x4 ADD DUP2 SWAP1 SSTORE POP DUP4 PUSH32 0x3881C7C92C6BBF7BE209F58096473FC13A008B026E68BE078B406C4C612EECFF DUP5 PUSH1 0x40 MLOAD PUSH2 0x857 SWAP2 SWAP1 PUSH2 0x2823 JUMP JUMPDEST PUSH1 0x40 MLOAD DUP1 SWAP2 SUB SWAP1 LOG2 PUSH2 0x9AA JUMP JUMPDEST DUP1 PUSH1 0x1 ADD PUSH1 0x0 SWAP1 SLOAD SWAP1 PUSH2 0x100 EXP SWAP1 DIV PUSH20 0xFFFFFFFFFFFFFFFFFFFFFFFFFFFFFFFFFFFFFFFF AND PUSH20 0xFFFFFFFFFFFFFFFFFFFFFFFFFFFFFFFFFFFFFFFF AND DUP4 PUSH20 0xFFFFFFFFFFFFFFFFFFFFFFFFFFFFFFFFFFFFFFFF AND EQ ISZERO PUSH2 0x96E JUMPI DUP2 PUSH1 0x40 MLOAD PUSH1 0x20 ADD PUSH2 0x8CD SWAP2 SWAP1 PUSH2 0x27A1 JUMP JUMPDEST PUSH1 0x40 MLOAD PUSH1 0x20 DUP2 DUP4 SUB SUB DUP2 MSTORE SWAP1 PUSH1 0x40 MSTORE DUP1 MLOAD SWAP1 PUSH1 0x20 ADD KECCAK256 DUP2 PUSH1 0x3 ADD SLOAD EQ PUSH2 0x928 JUMPI PUSH1 0x40 MLOAD PUSH32 0x8C379A000000000000000000000000000000000000000000000000000000000 DUP2 MSTORE PUSH1 0x4 ADD PUSH2 0x91F SWAP1 PUSH2 0x2A59 JUMP JUMPDEST PUSH1 0x40 MLOAD DUP1 SWAP2 SUB SWAP1 REVERT JUMPDEST DUP2 DUP2 PUSH1 0x5 ADD DUP2 SWAP1 SSTORE POP DUP4 PUSH32 0x3881C7C92C6BBF7BE209F58096473FC13A008B026E68BE078B406C4C612EECFF DUP5 PUSH1 0x40 MLOAD PUSH2 0x961 SWAP2 SWAP1 PUSH2 0x2823 JUMP JUMPDEST PUSH1 0x40 MLOAD DUP1 SWAP2 SUB SWAP1 LOG2 PUSH2 0x9A9 JUMP JUMPDEST PUSH1 0x40 MLOAD PUSH32 0x8C379A000000000000000000000000000000000000000000000000000000000 DUP2 MSTORE PUSH1 0x4 ADD PUSH2 0x9A0 SWAP1 PUSH2 0x2A39 JUMP JUMPDEST PUSH1 0x40 MLOAD DUP1 SWAP2 SUB SWAP1 REVERT JUMPDEST JUMPDEST POP POP POP POP JUMP JUMPDEST DUP1 PUSH1 0x40 ADD MLOAD DUP3 PUSH1 0x40 ADD MLOAD EQ PUSH2 0x9C4 JUMPI PUSH1 0x0 DUP1 REVERT JUMPDEST PUSH1 0x0 PUSH2 0x9D7 PUSH2 0x9D2 DUP5 PUSH2 0x111A JUMP JUMPDEST PUSH2 0x19D4 JUMP JUMPDEST SWAP1 POP PUSH1 0x0 PUSH2 0x9EC PUSH2 0x9E7 DUP5 PUSH2 0x111A JUMP JUMPDEST PUSH2 0x19D4 JUMP JUMPDEST SWAP1 POP PUSH1 0x0 DUP3 DUP3 PUSH1 0x40 MLOAD PUSH1 0x20 ADD PUSH2 0xA03 SWAP3 SWAP2 SWAP1 PUSH2 0x27BC JUMP JUMPDEST PUSH1 0x40 MLOAD PUSH1 0x20 DUP2 DUP4 SUB SUB DUP2 MSTORE SWAP1 PUSH1 0x40 MSTORE DUP1 MLOAD SWAP1 PUSH1 0x20 ADD KECCAK256 SWAP1 POP PUSH2 0xA32 DUP6 PUSH1 0x60 ADD MLOAD DUP5 PUSH2 0x1A04 SWAP1 SWAP2 SWAP1 PUSH4 0xFFFFFFFF AND JUMP JUMPDEST PUSH20 0xFFFFFFFFFFFFFFFFFFFFFFFFFFFFFFFFFFFFFFFF AND DUP6 PUSH1 0x0 ADD MLOAD PUSH20 0xFFFFFFFFFFFFFFFFFFFFFFFFFFFFFFFFFFFFFFFF AND EQ PUSH2 0xAA3 JUMPI PUSH1 0x40 MLOAD PUSH32 0x8C379A000000000000000000000000000000000000000000000000000000000 DUP2 MSTORE PUSH1 0x4 ADD PUSH2 0xA9A SWAP1 PUSH2 0x29F9 JUMP JUMPDEST PUSH1 0x40 MLOAD DUP1 SWAP2 SUB SWAP1 REVERT JUMPDEST PUSH2 0xABA DUP5 PUSH1 0x60 ADD MLOAD DUP4 PUSH2 0x1A04 SWAP1 SWAP2 SWAP1 PUSH4 0xFFFFFFFF AND JUMP JUMPDEST PUSH20 0xFFFFFFFFFFFFFFFFFFFFFFFFFFFFFFFFFFFFFFFF AND DUP5 PUSH1 0x0 ADD MLOAD PUSH20 0xFFFFFFFFFFFFFFFFFFFFFFFFFFFFFFFFFFFFFFFF AND EQ PUSH2 0xB2B JUMPI PUSH1 0x40 MLOAD PUSH32 0x8C379A000000000000000000000000000000000000000000000000000000000 DUP2 MSTORE PUSH1 0x4 ADD PUSH2 0xB22 SWAP1 PUSH2 0x2999 JUMP JUMPDEST PUSH1 0x40 MLOAD DUP1 SWAP2 SUB SWAP1 REVERT JUMPDEST PUSH2 0xB3D DUP6 PUSH1 0x0 ADD MLOAD DUP7 PUSH1 0x40 ADD MLOAD PUSH2 0x1B44 JUMP JUMPDEST PUSH2 0xB4F DUP5 PUSH1 0x0 ADD MLOAD DUP6 PUSH1 0x40 ADD MLOAD PUSH2 0x1B44 JUMP JUMPDEST PUSH1 0x6 PUSH1 0x0 DUP5 DUP2 MSTORE PUSH1 0x20 ADD SWAP1 DUP2 MSTORE PUSH1 0x20 ADD PUSH1 0x0 KECCAK256 PUSH1 0x0 SWAP1 SLOAD SWAP1 PUSH2 0x100 EXP SWAP1 DIV PUSH1 0xFF AND ISZERO PUSH2 0xBB0 JUMPI PUSH1 0x40 MLOAD PUSH32 0x8C379A000000000000000000000000000000000000000000000000000000000 DUP2 MSTORE PUSH1 0x4 ADD PUSH2 0xBA7 SWAP1 PUSH2 0x2AD9 JUMP JUMPDEST PUSH1 0x40 MLOAD DUP1 SWAP2 SUB SWAP1 REVERT JUMPDEST PUSH1 0x6 PUSH1 0x0 DUP4 DUP2 MSTORE PUSH1 0x20 ADD SWAP1 DUP2 MSTORE PUSH1 0x20 ADD PUSH1 0x0 KECCAK256 PUSH1 0x0 SWAP1 SLOAD SWAP1 PUSH2 0x100 EXP SWAP1 DIV PUSH1 0xFF AND ISZERO PUSH2 0xC11 JUMPI PUSH1 0x40 MLOAD PUSH32 0x8C379A000000000000000000000000000000000000000000000000000000000 DUP2 MSTORE PUSH1 0x4 ADD PUSH2 0xC08 SWAP1 PUSH2 0x2AF9 JUMP JUMPDEST PUSH1 0x40 MLOAD DUP1 SWAP2 SUB SWAP1 REVERT JUMPDEST PUSH1 0x1 PUSH1 0x6 PUSH1 0x0 DUP6 DUP2 MSTORE PUSH1 0x20 ADD SWAP1 DUP2 MSTORE PUSH1 0x20 ADD PUSH1 0x0 KECCAK256 PUSH1 0x0 PUSH2 0x100 EXP DUP2 SLOAD DUP2 PUSH1 0xFF MUL NOT AND SWAP1 DUP4 ISZERO ISZERO MUL OR SWAP1 SSTORE POP PUSH1 0x1 PUSH1 0x6 PUSH1 0x0 DUP5 DUP2 MSTORE PUSH1 0x20 ADD SWAP1 DUP2 MSTORE PUSH1 0x20 ADD PUSH1 0x0 KECCAK256 PUSH1 0x0 PUSH2 0x100 EXP DUP2 SLOAD DUP2 PUSH1 0xFF MUL NOT AND SWAP1 DUP4 ISZERO ISZERO MUL OR SWAP1 SSTORE POP PUSH1 0x0 PUSH1 0x7 PUSH1 0x0 DUP4 DUP2 MSTORE PUSH1 0x20 ADD SWAP1 DUP2 MSTORE PUSH1 0x20 ADD PUSH1 0x0 KECCAK256 SWAP1 POP DUP6 PUSH1 0x0 ADD MLOAD DUP2 PUSH1 0x0 ADD PUSH1 0x0 PUSH2 0x100 EXP DUP2 SLOAD DUP2 PUSH20 0xFFFFFFFFFFFFFFFFFFFFFFFFFFFFFFFFFFFFFFFF MUL NOT AND SWAP1 DUP4 PUSH20 0xFFFFFFFFFFFFFFFFFFFFFFFFFFFFFFFFFFFFFFFF AND MUL OR SWAP1 SSTORE POP DUP5 PUSH1 0x0 ADD MLOAD DUP2 PUSH1 0x1 ADD PUSH1 0x0 PUSH2 0x100 EXP DUP2 SLOAD DUP2 PUSH20 0xFFFFFFFFFFFFFFFFFFFFFFFFFFFFFFFFFFFFFFFF MUL NOT AND SWAP1 DUP4 PUSH20 0xFFFFFFFFFFFFFFFFFFFFFFFFFFFFFFFFFFFFFFFF AND MUL OR SWAP1 SSTORE POP DUP6 PUSH1 0x20 ADD MLOAD DUP2 PUSH1 0x2 ADD DUP2 SWAP1 SSTORE POP DUP6 PUSH1 0x20 ADD MLOAD DUP2 PUSH1 0x2 ADD DUP2 SWAP1 SSTORE POP DUP5 PUSH1 0x40 ADD MLOAD DUP7 PUSH1 0x40 ADD MLOAD ADD DUP2 PUSH1 0x6 ADD DUP2 SWAP1 SSTORE POP PUSH3 0x15180 TIMESTAMP ADD DUP2 PUSH1 0x7 ADD DUP2 SWAP1 SSTORE POP DUP4 DUP7 PUSH1 0x0 ADD MLOAD PUSH20 0xFFFFFFFFFFFFFFFFFFFFFFFFFFFFFFFFFFFFFFFF AND PUSH32 0x8086B247D8713C22B4656944FA5434755310EAA9FEA73AF477FE4F827B7E43BC DUP5 PUSH1 0x40 MLOAD PUSH2 0xD94 SWAP2 SWAP1 PUSH2 0x28D7 JUMP JUMPDEST PUSH1 0x40 MLOAD DUP1 SWAP2 SUB SWAP1 LOG3 DUP3 DUP6 PUSH1 0x0 ADD MLOAD PUSH20 0xFFFFFFFFFFFFFFFFFFFFFFFFFFFFFFFFFFFFFFFF AND PUSH32 0x8086B247D8713C22B4656944FA5434755310EAA9FEA73AF477FE4F827B7E43BC DUP5 PUSH1 0x40 MLOAD PUSH2 0xDE7 SWAP2 SWAP1 PUSH2 0x28D7 JUMP JUMPDEST PUSH1 0x40 MLOAD DUP1 SWAP2 SUB SWAP1 LOG3 POP POP POP POP POP POP JUMP JUMPDEST PUSH1 0x0 DUP1 PUSH1 0x0 DUP4 PUSH20 0xFFFFFFFFFFFFFFFFFFFFFFFFFFFFFFFFFFFFFFFF AND PUSH20 0xFFFFFFFFFFFFFFFFFFFFFFFFFFFFFFFFFFFFFFFF AND DUP2 MSTORE PUSH1 0x20 ADD SWAP1 DUP2 MSTORE PUSH1 0x20 ADD PUSH1 0x0 KECCAK256 SLOAD SWAP1 POP SWAP2 SWAP1 POP JUMP JUMPDEST PUSH1 0x6 PUSH1 0x20 MSTORE DUP1 PUSH1 0x0 MSTORE PUSH1 0x40 PUSH1 0x0 KECCAK256 PUSH1 0x0 SWAP2 POP SLOAD SWAP1 PUSH2 0x100 EXP SWAP1 DIV PUSH1 0xFF AND DUP2 JUMP JUMPDEST PUSH1 0x0 PUSH1 0x7 PUSH1 0x0 DUP4 DUP2 MSTORE PUSH1 0x20 ADD SWAP1 DUP2 MSTORE PUSH1 0x20 ADD PUSH1 0x0 KECCAK256 SWAP1 POP PUSH1 0x0 DUP1 SHL DUP2 PUSH1 0x4 ADD SLOAD EQ ISZERO DUP1 ISZERO PUSH2 0xE94 JUMPI POP PUSH1 0x0 DUP1 SHL DUP2 PUSH1 0x5 ADD SLOAD EQ ISZERO JUMPDEST PUSH2 0xE9D JUMPI PUSH1 0x0 DUP1 REVERT JUMPDEST PUSH1 0x0 DUP2 PUSH1 0x0 ADD PUSH1 0x0 SWAP1 SLOAD SWAP1 PUSH2 0x100 EXP SWAP1 DIV PUSH20 0xFFFFFFFFFFFFFFFFFFFFFFFFFFFFFFFFFFFFFFFF AND DUP3 PUSH1 0x4 ADD SLOAD DUP4 PUSH1 0x5 ADD SLOAD PUSH1 0x40 MLOAD PUSH1 0x20 ADD PUSH2 0xEE0 SWAP4 SWAP3 SWAP2 SWAP1 PUSH2 0x2764 JUMP JUMPDEST PUSH1 0x40 MLOAD PUSH1 0x20 DUP2 DUP4 SUB SUB DUP2 MSTORE SWAP1 PUSH1 0x40 MSTORE DUP1 MLOAD SWAP1 PUSH1 0x20 ADD KECCAK256 PUSH1 0x0 SHR SWAP1 POP PUSH1 0x0 DUP3 PUSH1 0x1 ADD PUSH1 0x0 SWAP1 SLOAD SWAP1 PUSH2 0x100 EXP SWAP1 DIV PUSH20 0xFFFFFFFFFFFFFFFFFFFFFFFFFFFFFFFFFFFFFFFF AND DUP4 PUSH1 0x4 ADD SLOAD DUP5 PUSH1 0x5 ADD SLOAD PUSH1 0x40 MLOAD PUSH1 0x20 ADD PUSH2 0xF3E SWAP4 SWAP3 SWAP2 SWAP1 PUSH2 0x2764 JUMP JUMPDEST PUSH1 0x40 MLOAD PUSH1 0x20 DUP2 DUP4 SUB SUB DUP2 MSTORE SWAP1 PUSH1 0x40 MSTORE DUP1 MLOAD SWAP1 PUSH1 0x20 ADD KECCAK256 PUSH1 0x0 SHR SWAP1 POP PUSH2 0xFBD DUP2 DUP4 GT PUSH2 0xF8D JUMPI DUP4 PUSH1 0x1 ADD PUSH1 0x0 SWAP1 SLOAD SWAP1 PUSH2 0x100 EXP SWAP1 DIV PUSH20 0xFFFFFFFFFFFFFFFFFFFFFFFFFFFFFFFFFFFFFFFF AND PUSH2 0xFB3 JUMP JUMPDEST DUP4 PUSH1 0x0 ADD PUSH1 0x0 SWAP1 SLOAD SWAP1 PUSH2 0x100 EXP SWAP1 DIV PUSH20 0xFFFFFFFFFFFFFFFFFFFFFFFFFFFFFFFFFFFFFFFF AND JUMPDEST DUP5 PUSH1 0x6 ADD SLOAD PUSH2 0x1B53 JUMP JUMPDEST PUSH1 0x0 DUP4 PUSH1 0x6 ADD DUP2 SWAP1 SSTORE POP POP POP POP POP JUMP JUMPDEST PUSH1 0x60 PUSH1 0x4 DUP1 SLOAD PUSH1 0x1 DUP2 PUSH1 0x1 AND ISZERO PUSH2 0x100 MUL SUB AND PUSH1 0x2 SWAP1 DIV DUP1 PUSH1 0x1F ADD PUSH1 0x20 DUP1 SWAP2 DIV MUL PUSH1 0x20 ADD PUSH1 0x40 MLOAD SWAP1 DUP2 ADD PUSH1 0x40 MSTORE DUP1 SWAP3 SWAP2 SWAP1 DUP2 DUP2 MSTORE PUSH1 0x20 ADD DUP3 DUP1 SLOAD PUSH1 0x1 DUP2 PUSH1 0x1 AND ISZERO PUSH2 0x100 MUL SUB AND PUSH1 0x2 SWAP1 DIV DUP1 ISZERO PUSH2 0x1065 JUMPI DUP1 PUSH1 0x1F LT PUSH2 0x103A JUMPI PUSH2 0x100 DUP1 DUP4 SLOAD DIV MUL DUP4 MSTORE SWAP2 PUSH1 0x20 ADD SWAP2 PUSH2 0x1065 JUMP JUMPDEST DUP3 ADD SWAP2 SWAP1 PUSH1 0x0 MSTORE PUSH1 0x20 PUSH1 0x0 KECCAK256 SWAP1 JUMPDEST DUP2 SLOAD DUP2 MSTORE SWAP1 PUSH1 0x1 ADD SWAP1 PUSH1 0x20 ADD DUP1 DUP4 GT PUSH2 0x1048 JUMPI DUP3 SWAP1 SUB PUSH1 0x1F AND DUP3 ADD SWAP2 JUMPDEST POP POP POP POP POP SWAP1 POP SWAP1 JUMP JUMPDEST PUSH1 0x7 PUSH1 0x20 MSTORE DUP1 PUSH1 0x0 MSTORE PUSH1 0x40 PUSH1 0x0 KECCAK256 PUSH1 0x0 SWAP2 POP SWAP1 POP DUP1 PUSH1 0x0 ADD PUSH1 0x0 SWAP1 SLOAD SWAP1 PUSH2 0x100 EXP SWAP1 DIV PUSH20 0xFFFFFFFFFFFFFFFFFFFFFFFFFFFFFFFFFFFFFFFF AND SWAP1 DUP1 PUSH1 0x1 ADD PUSH1 0x0 SWAP1 SLOAD SWAP1 PUSH2 0x100 EXP SWAP1 DIV PUSH20 0xFFFFFFFFFFFFFFFFFFFFFFFFFFFFFFFFFFFFFFFF AND SWAP1 DUP1 PUSH1 0x2 ADD SLOAD SWAP1 DUP1 PUSH1 0x3 ADD SLOAD SWAP1 DUP1 PUSH1 0x4 ADD SLOAD SWAP1 DUP1 PUSH1 0x5 ADD SLOAD SWAP1 DUP1 PUSH1 0x6 ADD SLOAD SWAP1 DUP1 PUSH1 0x7 ADD SLOAD SWAP1 POP DUP9 JUMP JUMPDEST PUSH2 0x1101 CALLER CALLVALUE PUSH2 0x1B62 JUMP JUMPDEST JUMP JUMPDEST PUSH1 0x0 PUSH2 0x1110 CALLER DUP5 DUP5 PUSH2 0x154D JUMP JUMPDEST PUSH1 0x1 SWAP1 POP SWAP3 SWAP2 POP POP JUMP JUMPDEST PUSH1 0x0 ADDRESS DUP3 PUSH1 0x0 ADD MLOAD DUP4 PUSH1 0x20 ADD MLOAD DUP5 PUSH1 0x40 ADD MLOAD PUSH1 0x40 MLOAD PUSH1 0x20 ADD PUSH2 0x113F SWAP5 SWAP4 SWAP3 SWAP2 SWAP1 PUSH2 0x2716 JUMP JUMPDEST PUSH1 0x40 MLOAD PUSH1 0x20 DUP2 DUP4 SUB SUB DUP2 MSTORE SWAP1 PUSH1 0x40 MSTORE DUP1 MLOAD SWAP1 PUSH1 0x20 ADD KECCAK256 SWAP1 POP SWAP2 SWAP1 POP JUMP JUMPDEST PUSH1 0x0 PUSH1 0x7 PUSH1 0x0 DUP4 DUP2 MSTORE PUSH1 0x20 ADD SWAP1 DUP2 MSTORE PUSH1 0x20 ADD PUSH1 0x0 KECCAK256 SWAP1 POP TIMESTAMP DUP2 PUSH1 0x7 ADD SLOAD LT PUSH2 0x11B9 JUMPI PUSH1 0x40 MLOAD PUSH32 0x8C379A000000000000000000000000000000000000000000000000000000000 DUP2 MSTORE PUSH1 0x4 ADD PUSH2 0x11B0 SWAP1 PUSH2 0x29B9 JUMP JUMPDEST PUSH1 0x40 MLOAD DUP1 SWAP2 SUB SWAP1 REVERT JUMPDEST PUSH1 0x0 DUP1 SHL DUP2 PUSH1 0x4 ADD SLOAD EQ DUP1 PUSH2 0x11D4 JUMPI POP PUSH1 0x0 DUP1 SHL DUP2 PUSH1 0x5 ADD SLOAD EQ JUMPDEST PUSH2 0x11DD JUMPI PUSH1 0x0 DUP1 REVERT JUMPDEST PUSH1 0x0 DUP1 SHL DUP2 PUSH1 0x4 ADD SLOAD EQ PUSH2 0x1222 JUMPI PUSH2 0x121D DUP2 PUSH1 0x0 ADD PUSH1 0x0 SWAP1 SLOAD SWAP1 PUSH2 0x100 EXP SWAP1 DIV PUSH20 0xFFFFFFFFFFFFFFFFFFFFFFFFFFFFFFFFFFFFFFFF AND DUP3 PUSH1 0x6 ADD SLOAD PUSH2 0x1B53 JUMP JUMPDEST PUSH2 0x12E1 JUMP JUMPDEST PUSH1 0x0 DUP1 SHL DUP2 PUSH1 0x5 ADD SLOAD EQ PUSH2 0x1267 JUMPI PUSH2 0x1262 DUP2 PUSH1 0x1 ADD PUSH1 0x0 SWAP1 SLOAD SWAP1 PUSH2 0x100 EXP SWAP1 DIV PUSH20 0xFFFFFFFFFFFFFFFFFFFFFFFFFFFFFFFFFFFFFFFF AND DUP3 PUSH1 0x6 ADD SLOAD PUSH2 0x1B53 JUMP JUMPDEST PUSH2 0x12E0 JUMP JUMPDEST PUSH2 0x12A3 DUP2 PUSH1 0x0 ADD PUSH1 0x0 SWAP1 SLOAD SWAP1 PUSH2 0x100 EXP SWAP1 DIV PUSH20 0xFFFFFFFFFFFFFFFFFFFFFFFFFFFFFFFFFFFFFFFF AND PUSH1 0x2 DUP4 PUSH1 0x6 ADD SLOAD DUP2 PUSH2 0x129D JUMPI INVALID JUMPDEST DIV PUSH2 0x1B53 JUMP JUMPDEST PUSH2 0x12DF DUP2 PUSH1 0x1 ADD PUSH1 0x0 SWAP1 SLOAD SWAP1 PUSH2 0x100 EXP SWAP1 DIV PUSH20 0xFFFFFFFFFFFFFFFFFFFFFFFFFFFFFFFFFFFFFFFF AND PUSH1 0x2 DUP4 PUSH1 0x6 ADD SLOAD DUP2 PUSH2 0x12D9 JUMPI INVALID JUMPDEST DIV PUSH2 0x1B53 JUMP JUMPDEST JUMPDEST JUMPDEST PUSH1 0x0 DUP2 PUSH1 0x6 ADD DUP2 SWAP1 SSTORE POP POP POP JUMP JUMPDEST PUSH2 0x12F9 CALLER CALLVALUE PUSH2 0x1B62 JUMP JUMPDEST JUMP JUMPDEST PUSH1 0x0 PUSH1 0x1 PUSH1 0x0 DUP5 PUSH20 0xFFFFFFFFFFFFFFFFFFFFFFFFFFFFFFFFFFFFFFFF AND PUSH20 0xFFFFFFFFFFFFFFFFFFFFFFFFFFFFFFFFFFFFFFFF AND DUP2 MSTORE PUSH1 0x20 ADD SWAP1 DUP2 MSTORE PUSH1 0x20 ADD PUSH1 0x0 KECCAK256 PUSH1 0x0 DUP4 PUSH20 0xFFFFFFFFFFFFFFFFFFFFFFFFFFFFFFFFFFFFFFFF AND PUSH20 0xFFFFFFFFFFFFFFFFFFFFFFFFFFFFFFFFFFFFFFFF AND DUP2 MSTORE PUSH1 0x20 ADD SWAP1 DUP2 MSTORE PUSH1 0x20 ADD PUSH1 0x0 KECCAK256 SLOAD SWAP1 POP SWAP3 SWAP2 POP POP JUMP JUMPDEST PUSH1 0x0 PUSH20 0xFFFFFFFFFFFFFFFFFFFFFFFFFFFFFFFFFFFFFFFF AND DUP4 PUSH20 0xFFFFFFFFFFFFFFFFFFFFFFFFFFFFFFFFFFFFFFFF AND EQ ISZERO PUSH2 0x13F2 JUMPI PUSH1 0x40 MLOAD PUSH32 0x8C379A000000000000000000000000000000000000000000000000000000000 DUP2 MSTORE PUSH1 0x4 ADD PUSH2 0x13E9 SWAP1 PUSH2 0x2B19 JUMP JUMPDEST PUSH1 0x40 MLOAD DUP1 SWAP2 SUB SWAP1 REVERT JUMPDEST PUSH1 0x0 PUSH20 0xFFFFFFFFFFFFFFFFFFFFFFFFFFFFFFFFFFFFFFFF AND DUP3 PUSH20 0xFFFFFFFFFFFFFFFFFFFFFFFFFFFFFFFFFFFFFFFF AND EQ ISZERO PUSH2 0x1462 JUMPI PUSH1 0x40 MLOAD PUSH32 0x8C379A000000000000000000000000000000000000000000000000000000000 DUP2 MSTORE PUSH1 0x4 ADD PUSH2 0x1459 SWAP1 PUSH2 0x29D9 JUMP JUMPDEST PUSH1 0x40 MLOAD DUP1 SWAP2 SUB SWAP1 REVERT JUMPDEST DUP1 PUSH1 0x1 PUSH1 0x0 DUP6 PUSH20 0xFFFFFFFFFFFFFFFFFFFFFFFFFFFFFFFFFFFFFFFF AND PUSH20 0xFFFFFFFFFFFFFFFFFFFFFFFFFFFFFFFFFFFFFFFF AND DUP2 MSTORE PUSH1 0x20 ADD SWAP1 DUP2 MSTORE PUSH1 0x20 ADD PUSH1 0x0 KECCAK256 PUSH1 0x0 DUP5 PUSH20 0xFFFFFFFFFFFFFFFFFFFFFFFFFFFFFFFFFFFFFFFF AND PUSH20 0xFFFFFFFFFFFFFFFFFFFFFFFFFFFFFFFFFFFFFFFF AND DUP2 MSTORE PUSH1 0x20 ADD SWAP1 DUP2 MSTORE PUSH1 0x20 ADD PUSH1 0x0 KECCAK256 DUP2 SWAP1 SSTORE POP DUP2 PUSH20 0xFFFFFFFFFFFFFFFFFFFFFFFFFFFFFFFFFFFFFFFF AND DUP4 PUSH20 0xFFFFFFFFFFFFFFFFFFFFFFFFFFFFFFFFFFFFFFFF AND PUSH32 0x8C5BE1E5EBEC7D5BD14F71427D1E84F3DD0314C0F7B2291E5B200AC8C7C3B925 DUP4 PUSH1 0x40 MLOAD PUSH2 0x1540 SWAP2 SWAP1 PUSH2 0x2B59 JUMP JUMPDEST PUSH1 0x40 MLOAD DUP1 SWAP2 SUB SWAP1 LOG3 POP POP POP JUMP JUMPDEST PUSH1 0x0 PUSH20 0xFFFFFFFFFFFFFFFFFFFFFFFFFFFFFFFFFFFFFFFF AND DUP4 PUSH20 0xFFFFFFFFFFFFFFFFFFFFFFFFFFFFFFFFFFFFFFFF AND EQ ISZERO PUSH2 0x15BD JUMPI PUSH1 0x40 MLOAD PUSH32 0x8C379A000000000000000000000000000000000000000000000000000000000 DUP2 MSTORE PUSH1 0x4 ADD PUSH2 0x15B4 SWAP1 PUSH2 0x2A99 JUMP JUMPDEST PUSH1 0x40 MLOAD DUP1 SWAP2 SUB SWAP1 REVERT JUMPDEST PUSH1 0x0 PUSH20 0xFFFFFFFFFFFFFFFFFFFFFFFFFFFFFFFFFFFFFFFF AND DUP3 PUSH20 0xFFFFFFFFFFFFFFFFFFFFFFFFFFFFFFFFFFFFFFFF AND EQ ISZERO PUSH2 0x162D JUMPI PUSH1 0x40 MLOAD PUSH32 0x8C379A000000000000000000000000000000000000000000000000000000000 DUP2 MSTORE PUSH1 0x4 ADD PUSH2 0x1624 SWAP1 PUSH2 0x2959 JUMP JUMPDEST PUSH1 0x40 MLOAD DUP1 SWAP2 SUB SWAP1 REVERT JUMPDEST PUSH2 0x1698 DUP2 PUSH1 0x40 MLOAD DUP1 PUSH1 0x60 ADD PUSH1 0x40 MSTORE DUP1 PUSH1 0x26 DUP2 MSTORE PUSH1 0x20 ADD PUSH2 0x2D79 PUSH1 0x26 SWAP2 CODECOPY PUSH1 0x0 DUP1 DUP8 PUSH20 0xFFFFFFFFFFFFFFFFFFFFFFFFFFFFFFFFFFFFFFFF AND PUSH20 0xFFFFFFFFFFFFFFFFFFFFFFFFFFFFFFFFFFFFFFFF AND DUP2 MSTORE PUSH1 0x20 ADD SWAP1 DUP2 MSTORE PUSH1 0x20 ADD PUSH1 0x0 KECCAK256 SLOAD PUSH2 0x17D7 SWAP1 SWAP3 SWAP2 SWAP1 PUSH4 0xFFFFFFFF AND JUMP JUMPDEST PUSH1 0x0 DUP1 DUP6 PUSH20 0xFFFFFFFFFFFFFFFFFFFFFFFFFFFFFFFFFFFFFFFF AND PUSH20 0xFFFFFFFFFFFFFFFFFFFFFFFFFFFFFFFFFFFFFFFF AND DUP2 MSTORE PUSH1 0x20 ADD SWAP1 DUP2 MSTORE PUSH1 0x20 ADD PUSH1 0x0 KECCAK256 DUP2 SWAP1 SSTORE POP PUSH2 0x172B DUP2 PUSH1 0x0 DUP1 DUP6 PUSH20 0xFFFFFFFFFFFFFFFFFFFFFFFFFFFFFFFFFFFFFFFF AND PUSH20 0xFFFFFFFFFFFFFFFFFFFFFFFFFFFFFFFFFFFFFFFF AND DUP2 MSTORE PUSH1 0x20 ADD SWAP1 DUP2 MSTORE PUSH1 0x20 ADD PUSH1 0x0 KECCAK256 SLOAD PUSH2 0x1CEA SWAP1 SWAP2 SWAP1 PUSH4 0xFFFFFFFF AND JUMP JUMPDEST PUSH1 0x0 DUP1 DUP5 PUSH20 0xFFFFFFFFFFFFFFFFFFFFFFFFFFFFFFFFFFFFFFFF AND PUSH20 0xFFFFFFFFFFFFFFFFFFFFFFFFFFFFFFFFFFFFFFFF AND DUP2 MSTORE PUSH1 0x20 ADD SWAP1 DUP2 MSTORE PUSH1 0x20 ADD PUSH1 0x0 KECCAK256 DUP2 SWAP1 SSTORE POP DUP2 PUSH20 0xFFFFFFFFFFFFFFFFFFFFFFFFFFFFFFFFFFFFFFFF AND DUP4 PUSH20 0xFFFFFFFFFFFFFFFFFFFFFFFFFFFFFFFFFFFFFFFF AND PUSH32 0xDDF252AD1BE2C89B69C2B068FC378DAA952BA7F163C4A11628F55A4DF523B3EF DUP4 PUSH1 0x40 MLOAD PUSH2 0x17CA SWAP2 SWAP1 PUSH2 0x2B59 JUMP JUMPDEST PUSH1 0x40 MLOAD DUP1 SWAP2 SUB SWAP1 LOG3 POP POP POP JUMP JUMPDEST PUSH1 0x0 DUP4 DUP4 GT ISZERO DUP3 SWAP1 PUSH2 0x181F JUMPI PUSH1 0x40 MLOAD PUSH32 0x8C379A000000000000000000000000000000000000000000000000000000000 DUP2 MSTORE PUSH1 0x4 ADD PUSH2 0x1816 SWAP2 SWAP1 PUSH2 0x2937 JUMP JUMPDEST PUSH1 0x40 MLOAD DUP1 SWAP2 SUB SWAP1 REVERT JUMPDEST POP PUSH1 0x0 DUP4 DUP6 SUB SWAP1 POP DUP1 SWAP2 POP POP SWAP4 SWAP3 POP POP POP JUMP JUMPDEST PUSH1 0x0 PUSH20 0xFFFFFFFFFFFFFFFFFFFFFFFFFFFFFFFFFFFFFFFF AND DUP3 PUSH20 0xFFFFFFFFFFFFFFFFFFFFFFFFFFFFFFFFFFFFFFFF AND EQ ISZERO PUSH2 0x18A2 JUMPI PUSH1 0x40 MLOAD PUSH32 0x8C379A000000000000000000000000000000000000000000000000000000000 DUP2 MSTORE PUSH1 0x4 ADD PUSH2 0x1899 SWAP1 PUSH2 0x2A79 JUMP JUMPDEST PUSH1 0x40 MLOAD DUP1 SWAP2 SUB SWAP1 REVERT JUMPDEST PUSH2 0x190D DUP2 PUSH1 0x40 MLOAD DUP1 PUSH1 0x60 ADD PUSH1 0x40 MSTORE DUP1 PUSH1 0x22 DUP2 MSTORE PUSH1 0x20 ADD PUSH2 0x2D57 PUSH1 0x22 SWAP2 CODECOPY PUSH1 0x0 DUP1 DUP7 PUSH20 0xFFFFFFFFFFFFFFFFFFFFFFFFFFFFFFFFFFFFFFFF AND PUSH20 0xFFFFFFFFFFFFFFFFFFFFFFFFFFFFFFFFFFFFFFFF AND DUP2 MSTORE PUSH1 0x20 ADD SWAP1 DUP2 MSTORE PUSH1 0x20 ADD PUSH1 0x0 KECCAK256 SLOAD PUSH2 0x17D7 SWAP1 SWAP3 SWAP2 SWAP1 PUSH4 0xFFFFFFFF AND JUMP JUMPDEST PUSH1 0x0 DUP1 DUP5 PUSH20 0xFFFFFFFFFFFFFFFFFFFFFFFFFFFFFFFFFFFFFFFF AND PUSH20 0xFFFFFFFFFFFFFFFFFFFFFFFFFFFFFFFFFFFFFFFF AND DUP2 MSTORE PUSH1 0x20 ADD SWAP1 DUP2 MSTORE PUSH1 0x20 ADD PUSH1 0x0 KECCAK256 DUP2 SWAP1 SSTORE POP PUSH2 0x1964 DUP2 PUSH1 0x2 SLOAD PUSH2 0x1D34 SWAP1 SWAP2 SWAP1 PUSH4 0xFFFFFFFF AND JUMP JUMPDEST PUSH1 0x2 DUP2 SWAP1 SSTORE POP PUSH1 0x0 PUSH20 0xFFFFFFFFFFFFFFFFFFFFFFFFFFFFFFFFFFFFFFFF AND DUP3 PUSH20 0xFFFFFFFFFFFFFFFFFFFFFFFFFFFFFFFFFFFFFFFF AND PUSH32 0xDDF252AD1BE2C89B69C2B068FC378DAA952BA7F163C4A11628F55A4DF523B3EF DUP4 PUSH1 0x40 MLOAD PUSH2 0x19C8 SWAP2 SWAP1 PUSH2 0x2B59 JUMP JUMPDEST PUSH1 0x40 MLOAD DUP1 SWAP2 SUB SWAP1 LOG3 POP POP JUMP JUMPDEST PUSH1 0x0 DUP2 PUSH1 0x40 MLOAD PUSH1 0x20 ADD PUSH2 0x19E7 SWAP2 SWAP1 PUSH2 0x27E8 JUMP JUMPDEST PUSH1 0x40 MLOAD PUSH1 0x20 DUP2 DUP4 SUB SUB DUP2 MSTORE SWAP1 PUSH1 0x40 MSTORE DUP1 MLOAD SWAP1 PUSH1 0x20 ADD KECCAK256 SWAP1 POP SWAP2 SWAP1 POP JUMP JUMPDEST PUSH1 0x0 DUP1 PUSH1 0x0 DUP1 PUSH1 0x41 DUP6 MLOAD EQ ISZERO PUSH2 0x1A31 JUMPI PUSH1 0x20 DUP6 ADD MLOAD SWAP3 POP PUSH1 0x40 DUP6 ADD MLOAD SWAP2 POP PUSH1 0x60 DUP6 ADD MLOAD PUSH1 0x0 BYTE SWAP1 POP PUSH2 0x1AB9 JUMP JUMPDEST PUSH1 0x40 DUP6 MLOAD EQ ISZERO PUSH2 0x1A7D JUMPI PUSH1 0x20 DUP6 ADD MLOAD SWAP3 POP PUSH32 0x7FFFFFFFFFFFFFFFFFFFFFFFFFFFFFFFFFFFFFFFFFFFFFFFFFFFFFFFFFFFFFFF PUSH1 0x40 DUP7 ADD MLOAD AND SWAP2 POP PUSH1 0x40 DUP6 ADD MLOAD PUSH1 0x0 BYTE PUSH1 0x7 SHR SWAP1 POP PUSH2 0x1AB8 JUMP JUMPDEST PUSH1 0x40 MLOAD PUSH32 0x8C379A000000000000000000000000000000000000000000000000000000000 DUP2 MSTORE PUSH1 0x4 ADD PUSH2 0x1AAF SWAP1 PUSH2 0x2AB9 JUMP JUMPDEST PUSH1 0x40 MLOAD DUP1 SWAP2 SUB SWAP1 REVERT JUMPDEST JUMPDEST PUSH1 0x1B DUP2 PUSH1 0xFF AND LT ISZERO PUSH2 0x1ACC JUMPI PUSH1 0x1B DUP2 ADD SWAP1 POP JUMPDEST PUSH1 0x1B DUP2 PUSH1 0xFF AND EQ DUP1 PUSH2 0x1AE1 JUMPI POP PUSH1 0x1C DUP2 PUSH1 0xFF AND EQ JUMPDEST PUSH2 0x1AEA JUMPI PUSH1 0x0 DUP1 REVERT JUMPDEST PUSH1 0x1 DUP7 DUP3 DUP6 DUP6 PUSH1 0x40 MLOAD PUSH1 0x0 DUP2 MSTORE PUSH1 0x20 ADD PUSH1 0x40 MSTORE PUSH1 0x40 MLOAD PUSH2 0x1B0D SWAP5 SWAP4 SWAP3 SWAP2 SWAP1 PUSH2 0x28F2 JUMP JUMPDEST PUSH1 0x20 PUSH1 0x40 MLOAD PUSH1 0x20 DUP2 SUB SWAP1 DUP1 DUP5 SUB SWAP1 DUP6 GAS STATICCALL ISZERO DUP1 ISZERO PUSH2 0x1B2F JUMPI RETURNDATASIZE PUSH1 0x0 DUP1 RETURNDATACOPY RETURNDATASIZE PUSH1 0x0 REVERT JUMPDEST POP POP POP PUSH1 0x20 PUSH1 0x40 MLOAD SUB MLOAD SWAP4 POP POP POP POP SWAP3 SWAP2 POP POP JUMP JUMPDEST PUSH2 0x1B4F DUP3 ADDRESS DUP4 PUSH2 0x154D JUMP JUMPDEST POP POP JUMP JUMPDEST PUSH2 0x1B5E ADDRESS DUP4 DUP4 PUSH2 0x154D JUMP JUMPDEST POP POP JUMP JUMPDEST PUSH1 0x0 PUSH20 0xFFFFFFFFFFFFFFFFFFFFFFFFFFFFFFFFFFFFFFFF AND DUP3 PUSH20 0xFFFFFFFFFFFFFFFFFFFFFFFFFFFFFFFFFFFFFFFF AND EQ ISZERO PUSH2 0x1BD2 JUMPI PUSH1 0x40 MLOAD PUSH32 0x8C379A000000000000000000000000000000000000000000000000000000000 DUP2 MSTORE PUSH1 0x4 ADD PUSH2 0x1BC9 SWAP1 PUSH2 0x2B39 JUMP JUMPDEST PUSH1 0x40 MLOAD DUP1 SWAP2 SUB SWAP1 REVERT JUMPDEST PUSH2 0x1BE7 DUP2 PUSH1 0x2 SLOAD PUSH2 0x1CEA SWAP1 SWAP2 SWAP1 PUSH4 0xFFFFFFFF AND JUMP JUMPDEST PUSH1 0x2 DUP2 SWAP1 SSTORE POP PUSH2 0x1C3E DUP2 PUSH1 0x0 DUP1 DUP6 PUSH20 0xFFFFFFFFFFFFFFFFFFFFFFFFFFFFFFFFFFFFFFFF AND PUSH20 0xFFFFFFFFFFFFFFFFFFFFFFFFFFFFFFFFFFFFFFFF AND DUP2 MSTORE PUSH1 0x20 ADD SWAP1 DUP2 MSTORE PUSH1 0x20 ADD PUSH1 0x0 KECCAK256 SLOAD PUSH2 0x1CEA SWAP1 SWAP2 SWAP1 PUSH4 0xFFFFFFFF AND JUMP JUMPDEST PUSH1 0x0 DUP1 DUP5 PUSH20 0xFFFFFFFFFFFFFFFFFFFFFFFFFFFFFFFFFFFFFFFF AND PUSH20 0xFFFFFFFFFFFFFFFFFFFFFFFFFFFFFFFFFFFFFFFF AND DUP2 MSTORE PUSH1 0x20 ADD SWAP1 DUP2 MSTORE PUSH1 0x20 ADD PUSH1 0x0 KECCAK256 DUP2 SWAP1 SSTORE POP DUP2 PUSH20 0xFFFFFFFFFFFFFFFFFFFFFFFFFFFFFFFFFFFFFFFF AND PUSH1 0x0 PUSH20 0xFFFFFFFFFFFFFFFFFFFFFFFFFFFFFFFFFFFFFFFF AND PUSH32 0xDDF252AD1BE2C89B69C2B068FC378DAA952BA7F163C4A11628F55A4DF523B3EF DUP4 PUSH1 0x40 MLOAD PUSH2 0x1CDE SWAP2 SWAP1 PUSH2 0x2B59 JUMP JUMPDEST PUSH1 0x40 MLOAD DUP1 SWAP2 SUB SWAP1 LOG3 POP POP JUMP JUMPDEST PUSH1 0x0 PUSH2 0x1D2C DUP4 DUP4 PUSH1 0x40 MLOAD DUP1 PUSH1 0x40 ADD PUSH1 0x40 MSTORE DUP1 PUSH1 0x1B DUP2 MSTORE PUSH1 0x20 ADD PUSH32 0x536166654D6174683A206164646974696F6E206F766572666C6F770000000000 DUP2 MSTORE POP PUSH2 0x1D7E JUMP JUMPDEST SWAP1 POP SWAP3 SWAP2 POP POP JUMP JUMPDEST PUSH1 0x0 PUSH2 0x1D76 DUP4 DUP4 PUSH1 0x40 MLOAD DUP1 PUSH1 0x40 ADD PUSH1 0x40 MSTORE DUP1 PUSH1 0x1E DUP2 MSTORE PUSH1 0x20 ADD PUSH32 0x536166654D6174683A207375627472616374696F6E206F766572666C6F770000 DUP2 MSTORE POP PUSH2 0x17D7 JUMP JUMPDEST SWAP1 POP SWAP3 SWAP2 POP POP JUMP JUMPDEST PUSH1 0x0 DUP1 DUP4 DUP6 ADD SWAP1 POP DUP5 DUP2 LT ISZERO DUP4 SWAP1 PUSH2 0x1DCC JUMPI PUSH1 0x40 MLOAD PUSH32 0x8C379A000000000000000000000000000000000000000000000000000000000 DUP2 MSTORE PUSH1 0x4 ADD PUSH2 0x1DC3 SWAP2 SWAP1 PUSH2 0x2937 JUMP JUMPDEST PUSH1 0x40 MLOAD DUP1 SWAP2 SUB SWAP1 REVERT JUMPDEST POP DUP1 SWAP2 POP POP SWAP4 SWAP3 POP POP POP JUMP JUMPDEST PUSH1 0x0 DUP2 CALLDATALOAD SWAP1 POP PUSH2 0x1DE7 DUP2 PUSH2 0x2D11 JUMP JUMPDEST SWAP3 SWAP2 POP POP JUMP JUMPDEST PUSH1 0x0 DUP2 CALLDATALOAD SWAP1 POP PUSH2 0x1DFC DUP2 PUSH2 0x2D28 JUMP JUMPDEST SWAP3 SWAP2 POP POP JUMP JUMPDEST PUSH1 0x0 DUP3 PUSH1 0x1F DUP4 ADD SLT PUSH2 0x1E13 JUMPI PUSH1 0x0 DUP1 REVERT JUMPDEST DUP2 CALLDATALOAD PUSH2 0x1E26 PUSH2 0x1E21 DUP3 PUSH2 0x2BBC JUMP JUMPDEST PUSH2 0x2B8F JUMP JUMPDEST SWAP2 POP DUP1 DUP3 MSTORE PUSH1 0x20 DUP4 ADD PUSH1 0x20 DUP4 ADD DUP6 DUP4 DUP4 ADD GT ISZERO PUSH2 0x1E42 JUMPI PUSH1 0x0 DUP1 REVERT JUMPDEST PUSH2 0x1E4D DUP4 DUP3 DUP5 PUSH2 0x2C79 JUMP JUMPDEST POP POP POP SWAP3 SWAP2 POP POP JUMP JUMPDEST PUSH1 0x0 PUSH1 0x80 DUP3 DUP5 SUB SLT ISZERO PUSH2 0x1E68 JUMPI PUSH1 0x0 DUP1 REVERT JUMPDEST PUSH2 0x1E72 PUSH1 0x80 PUSH2 0x2B8F JUMP JUMPDEST SWAP1 POP PUSH1 0x0 PUSH2 0x1E82 DUP5 DUP3 DUP6 ADD PUSH2 0x1DD8 JUMP JUMPDEST PUSH1 0x0 DUP4 ADD MSTORE POP PUSH1 0x20 PUSH2 0x1E96 DUP5 DUP3 DUP6 ADD PUSH2 0x1DED JUMP JUMPDEST PUSH1 0x20 DUP4 ADD MSTORE POP PUSH1 0x40 PUSH2 0x1EAA DUP5 DUP3 DUP6 ADD PUSH2 0x1EE2 JUMP JUMPDEST PUSH1 0x40 DUP4 ADD MSTORE POP PUSH1 0x60 DUP3 ADD CALLDATALOAD PUSH8 0xFFFFFFFFFFFFFFFF DUP2 GT ISZERO PUSH2 0x1ECA JUMPI PUSH1 0x0 DUP1 REVERT JUMPDEST PUSH2 0x1ED6 DUP5 DUP3 DUP6 ADD PUSH2 0x1E02 JUMP JUMPDEST PUSH1 0x60 DUP4 ADD MSTORE POP SWAP3 SWAP2 POP POP JUMP JUMPDEST PUSH1 0x0 DUP2 CALLDATALOAD SWAP1 POP PUSH2 0x1EF1 DUP2 PUSH2 0x2D3F JUMP JUMPDEST SWAP3 SWAP2 POP POP JUMP JUMPDEST PUSH1 0x0 PUSH1 0x20 DUP3 DUP5 SUB SLT ISZERO PUSH2 0x1F09 JUMPI PUSH1 0x0 DUP1 REVERT JUMPDEST PUSH1 0x0 PUSH2 0x1F17 DUP5 DUP3 DUP6 ADD PUSH2 0x1DD8 JUMP JUMPDEST SWAP2 POP POP SWAP3 SWAP2 POP POP JUMP JUMPDEST PUSH1 0x0 DUP1 PUSH1 0x40 DUP4 DUP6 SUB SLT ISZERO PUSH2 0x1F33 JUMPI PUSH1 0x0 DUP1 REVERT JUMPDEST PUSH1 0x0 PUSH2 0x1F41 DUP6 DUP3 DUP7 ADD PUSH2 0x1DD8 JUMP JUMPDEST SWAP3 POP POP PUSH1 0x20 PUSH2 0x1F52 DUP6 DUP3 DUP7 ADD PUSH2 0x1DD8 JUMP JUMPDEST SWAP2 POP POP SWAP3 POP SWAP3 SWAP1 POP JUMP JUMPDEST PUSH1 0x0 DUP1 PUSH1 0x0 PUSH1 0x60 DUP5 DUP7 SUB SLT ISZERO PUSH2 0x1F71 JUMPI PUSH1 0x0 DUP1 REVERT JUMPDEST PUSH1 0x0 PUSH2 0x1F7F DUP7 DUP3 DUP8 ADD PUSH2 0x1DD8 JUMP JUMPDEST SWAP4 POP POP PUSH1 0x20 PUSH2 0x1F90 DUP7 DUP3 DUP8 ADD PUSH2 0x1DD8 JUMP JUMPDEST SWAP3 POP POP PUSH1 0x40 PUSH2 0x1FA1 DUP7 DUP3 DUP8 ADD PUSH2 0x1EE2 JUMP JUMPDEST SWAP2 POP POP SWAP3 POP SWAP3 POP SWAP3 JUMP JUMPDEST PUSH1 0x0 DUP1 PUSH1 0x40 DUP4 DUP6 SUB SLT ISZERO PUSH2 0x1FBE JUMPI PUSH1 0x0 DUP1 REVERT JUMPDEST PUSH1 0x0 PUSH2 0x1FCC DUP6 DUP3 DUP7 ADD PUSH2 0x1DD8 JUMP JUMPDEST SWAP3 POP POP PUSH1 0x20 PUSH2 0x1FDD DUP6 DUP3 DUP7 ADD PUSH2 0x1EE2 JUMP JUMPDEST SWAP2 POP POP SWAP3 POP SWAP3 SWAP1 POP JUMP JUMPDEST PUSH1 0x0 PUSH1 0x20 DUP3 DUP5 SUB SLT ISZERO PUSH2 0x1FF9 JUMPI PUSH1 0x0 DUP1 REVERT JUMPDEST PUSH1 0x0 PUSH2 0x2007 DUP5 DUP3 DUP6 ADD PUSH2 0x1DED JUMP JUMPDEST SWAP2 POP POP SWAP3 SWAP2 POP POP JUMP JUMPDEST PUSH1 0x0 DUP1 PUSH1 0x0 PUSH1 0x60 DUP5 DUP7 SUB SLT ISZERO PUSH2 0x2025 JUMPI PUSH1 0x0 DUP1 REVERT JUMPDEST PUSH1 0x0 PUSH2 0x2033 DUP7 DUP3 DUP8 ADD PUSH2 0x1DED JUMP JUMPDEST SWAP4 POP POP PUSH1 0x20 PUSH2 0x2044 DUP7 DUP3 DUP8 ADD PUSH2 0x1DD8 JUMP JUMPDEST SWAP3 POP POP PUSH1 0x40 PUSH2 0x2055 DUP7 DUP3 DUP8 ADD PUSH2 0x1DED JUMP JUMPDEST SWAP2 POP POP SWAP3 POP SWAP3 POP SWAP3 JUMP JUMPDEST PUSH1 0x0 PUSH1 0x20 DUP3 DUP5 SUB SLT ISZERO PUSH2 0x2071 JUMPI PUSH1 0x0 DUP1 REVERT JUMPDEST PUSH1 0x0 DUP3 ADD CALLDATALOAD PUSH8 0xFFFFFFFFFFFFFFFF DUP2 GT ISZERO PUSH2 0x208B JUMPI PUSH1 0x0 DUP1 REVERT JUMPDEST PUSH2 0x2097 DUP5 DUP3 DUP6 ADD PUSH2 0x1E56 JUMP JUMPDEST SWAP2 POP POP SWAP3 SWAP2 POP POP JUMP JUMPDEST PUSH1 0x0 DUP1 PUSH1 0x40 DUP4 DUP6 SUB SLT ISZERO PUSH2 0x20B3 JUMPI PUSH1 0x0 DUP1 REVERT JUMPDEST PUSH1 0x0 DUP4 ADD CALLDATALOAD PUSH8 0xFFFFFFFFFFFFFFFF DUP2 GT ISZERO PUSH2 0x20CD JUMPI PUSH1 0x0 DUP1 REVERT JUMPDEST PUSH2 0x20D9 DUP6 DUP3 DUP7 ADD PUSH2 0x1E56 JUMP JUMPDEST SWAP3 POP POP PUSH1 0x20 DUP4 ADD CALLDATALOAD PUSH8 0xFFFFFFFFFFFFFFFF DUP2 GT ISZERO PUSH2 0x20F6 JUMPI PUSH1 0x0 DUP1 REVERT JUMPDEST PUSH2 0x2102 DUP6 DUP3 DUP7 ADD PUSH2 0x1E56 JUMP JUMPDEST SWAP2 POP POP SWAP3 POP SWAP3 SWAP1 POP JUMP JUMPDEST PUSH1 0x0 PUSH1 0x20 DUP3 DUP5 SUB SLT ISZERO PUSH2 0x211E JUMPI PUSH1 0x0 DUP1 REVERT JUMPDEST PUSH1 0x0 PUSH2 0x212C DUP5 DUP3 DUP6 ADD PUSH2 0x1EE2 JUMP JUMPDEST SWAP2 POP POP SWAP3 SWAP2 POP POP JUMP JUMPDEST PUSH2 0x213E DUP2 PUSH2 0x2C1A JUMP JUMPDEST DUP3 MSTORE POP POP JUMP JUMPDEST PUSH2 0x2155 PUSH2 0x2150 DUP3 PUSH2 0x2C1A JUMP JUMPDEST PUSH2 0x2CBB JUMP JUMPDEST DUP3 MSTORE POP POP JUMP JUMPDEST PUSH2 0x2164 DUP2 PUSH2 0x2C2C JUMP JUMPDEST DUP3 MSTORE POP POP JUMP JUMPDEST PUSH2 0x2173 DUP2 PUSH2 0x2C38 JUMP JUMPDEST DUP3 MSTORE POP POP JUMP JUMPDEST PUSH2 0x218A PUSH2 0x2185 DUP3 PUSH2 0x2C38 JUMP JUMPDEST PUSH2 0x2CCD JUMP JUMPDEST DUP3 MSTORE POP POP JUMP JUMPDEST PUSH1 0x0 PUSH2 0x219B DUP3 PUSH2 0x2BE8 JUMP JUMPDEST PUSH2 0x21A5 DUP2 DUP6 PUSH2 0x2BFE JUMP JUMPDEST SWAP4 POP PUSH2 0x21B5 DUP2 DUP6 PUSH1 0x20 DUP7 ADD PUSH2 0x2C88 JUMP JUMPDEST PUSH2 0x21BE DUP2 PUSH2 0x2CF3 JUMP JUMPDEST DUP5 ADD SWAP2 POP POP SWAP3 SWAP2 POP POP JUMP JUMPDEST PUSH1 0x0 PUSH2 0x21D6 PUSH1 0x23 DUP4 PUSH2 0x2BFE JUMP JUMPDEST SWAP2 POP PUSH32 0x45524332303A207472616E7366657220746F20746865207A65726F2061646472 PUSH1 0x0 DUP4 ADD MSTORE PUSH32 0x6573730000000000000000000000000000000000000000000000000000000000 PUSH1 0x20 DUP4 ADD MSTORE PUSH1 0x40 DUP3 ADD SWAP1 POP SWAP2 SWAP1 POP JUMP JUMPDEST PUSH1 0x0 PUSH2 0x223C PUSH1 0xC DUP4 PUSH2 0x2BFE JUMP JUMPDEST SWAP2 POP PUSH32 0x67616D65206973206F7665720000000000000000000000000000000000000000 PUSH1 0x0 DUP4 ADD MSTORE PUSH1 0x20 DUP3 ADD SWAP1 POP SWAP2 SWAP1 POP JUMP JUMPDEST PUSH1 0x0 PUSH2 0x227C PUSH1 0x1C DUP4 PUSH2 0x2C0F JUMP JUMPDEST SWAP2 POP PUSH32 0x19457468657265756D205369676E6564204D6573736167653A0A333200000000 PUSH1 0x0 DUP4 ADD MSTORE PUSH1 0x1C DUP3 ADD SWAP1 POP SWAP2 SWAP1 POP JUMP JUMPDEST PUSH1 0x0 PUSH2 0x22BC PUSH1 0x1D DUP4 PUSH2 0x2BFE JUMP JUMPDEST SWAP2 POP PUSH32 0x696E76616C6964207369676E617475726520666F7220706C6179657232000000 PUSH1 0x0 DUP4 ADD MSTORE PUSH1 0x20 DUP3 ADD SWAP1 POP SWAP2 SWAP1 POP JUMP JUMPDEST PUSH1 0x0 PUSH2 0x22FC PUSH1 0x10 DUP4 PUSH2 0x2BFE JUMP JUMPDEST SWAP2 POP PUSH32 0x67616D65206973207374696C6C206F6E00000000000000000000000000000000 PUSH1 0x0 DUP4 ADD MSTORE PUSH1 0x20 DUP3 ADD SWAP1 POP SWAP2 SWAP1 POP JUMP JUMPDEST PUSH1 0x0 PUSH2 0x233C PUSH1 0x22 DUP4 PUSH2 0x2BFE JUMP JUMPDEST SWAP2 POP PUSH32 0x45524332303A20617070726F766520746F20746865207A65726F206164647265 PUSH1 0x0 DUP4 ADD MSTORE PUSH32 0x7373000000000000000000000000000000000000000000000000000000000000 PUSH1 0x20 DUP4 ADD MSTORE PUSH1 0x40 DUP3 ADD SWAP1 POP SWAP2 SWAP1 POP JUMP JUMPDEST PUSH1 0x0 PUSH2 0x23A2 PUSH1 0x1D DUP4 PUSH2 0x2BFE JUMP JUMPDEST SWAP2 POP PUSH32 0x696E76616C6964207369676E617475726520666F7220706C6179657231000000 PUSH1 0x0 DUP4 ADD MSTORE PUSH1 0x20 DUP3 ADD SWAP1 POP SWAP2 SWAP1 POP JUMP JUMPDEST PUSH1 0x0 PUSH2 0x23E2 PUSH1 0x1A DUP4 PUSH2 0x2BFE JUMP JUMPDEST SWAP2 POP PUSH32 0x696E76616C69642073656372657420666F7220706C6179657231000000000000 PUSH1 0x0 DUP4 ADD MSTORE PUSH1 0x20 DUP3 ADD SWAP1 POP SWAP2 SWAP1 POP JUMP JUMPDEST PUSH1 0x0 PUSH2 0x2422 PUSH1 0xE DUP4 PUSH2 0x2BFE JUMP JUMPDEST SWAP2 POP PUSH32 0x696E76616C696420706C61796572000000000000000000000000000000000000 PUSH1 0x0 DUP4 ADD MSTORE PUSH1 0x20 DUP3 ADD SWAP1 POP SWAP2 SWAP1 POP JUMP JUMPDEST PUSH1 0x0 PUSH2 0x2462 PUSH1 0x1A DUP4 PUSH2 0x2BFE JUMP JUMPDEST SWAP2 POP PUSH32 0x696E76616C69642073656372657420666F7220706C6179657232000000000000 PUSH1 0x0 DUP4 ADD MSTORE PUSH1 0x20 DUP3 ADD SWAP1 POP SWAP2 SWAP1 POP JUMP JUMPDEST PUSH1 0x0 PUSH2 0x24A2 PUSH1 0x21 DUP4 PUSH2 0x2BFE JUMP JUMPDEST SWAP2 POP PUSH32 0x45524332303A206275726E2066726F6D20746865207A65726F20616464726573 PUSH1 0x0 DUP4 ADD MSTORE PUSH32 0x7300000000000000000000000000000000000000000000000000000000000000 PUSH1 0x20 DUP4 ADD MSTORE PUSH1 0x40 DUP3 ADD SWAP1 POP SWAP2 SWAP1 POP JUMP JUMPDEST PUSH1 0x0 PUSH2 0x2508 PUSH1 0x25 DUP4 PUSH2 0x2BFE JUMP JUMPDEST SWAP2 POP PUSH32 0x45524332303A207472616E736665722066726F6D20746865207A65726F206164 PUSH1 0x0 DUP4 ADD MSTORE PUSH32 0x6472657373000000000000000000000000000000000000000000000000000000 PUSH1 0x20 DUP4 ADD MSTORE PUSH1 0x40 DUP3 ADD SWAP1 POP SWAP2 SWAP1 POP JUMP JUMPDEST PUSH1 0x0 PUSH2 0x256E PUSH1 0x18 DUP4 PUSH2 0x2BFE JUMP JUMPDEST SWAP2 POP PUSH32 0x696E76616C69642D7369676E61747572652D666F726D61740000000000000000 PUSH1 0x0 DUP4 ADD MSTORE PUSH1 0x20 DUP3 ADD SWAP1 POP SWAP2 SWAP1 POP JUMP JUMPDEST PUSH1 0x0 PUSH2 0x25AE PUSH1 0x0 DUP4 PUSH2 0x2BF3 JUMP JUMPDEST SWAP2 POP PUSH1 0x0 DUP3 ADD SWAP1 POP SWAP2 SWAP1 POP JUMP JUMPDEST PUSH1 0x0 PUSH2 0x25C8 PUSH1 0x1E DUP4 PUSH2 0x2BFE JUMP JUMPDEST SWAP2 POP PUSH32 0x6F7264657220616C7265616479207573656420666F7220706C61796572310000 PUSH1 0x0 DUP4 ADD MSTORE PUSH1 0x20 DUP3 ADD SWAP1 POP SWAP2 SWAP1 POP JUMP JUMPDEST PUSH1 0x0 PUSH2 0x2608 PUSH1 0x1E DUP4 PUSH2 0x2BFE JUMP JUMPDEST SWAP2 POP PUSH32 0x6F7264657220616C7265616479207573656420666F7220706C61796572320000 PUSH1 0x0 DUP4 ADD MSTORE PUSH1 0x20 DUP3 ADD SWAP1 POP SWAP2 SWAP1 POP JUMP JUMPDEST PUSH1 0x0 PUSH2 0x2648 PUSH1 0x24 DUP4 PUSH2 0x2BFE JUMP JUMPDEST SWAP2 POP PUSH32 0x45524332303A20617070726F76652066726F6D20746865207A65726F20616464 PUSH1 0x0 DUP4 ADD MSTORE PUSH32 0x7265737300000000000000000000000000000000000000000000000000000000 PUSH1 0x20 DUP4 ADD MSTORE PUSH1 0x40 DUP3 ADD SWAP1 POP SWAP2 SWAP1 POP JUMP JUMPDEST PUSH1 0x0 PUSH2 0x26AE PUSH1 0x1F DUP4 PUSH2 0x2BFE JUMP JUMPDEST SWAP2 POP PUSH32 0x45524332303A206D696E7420746F20746865207A65726F206164647265737300 PUSH1 0x0 DUP4 ADD MSTORE PUSH1 0x20 DUP3 ADD SWAP1 POP SWAP2 SWAP1 POP JUMP JUMPDEST PUSH2 0x26EA DUP2 PUSH2 0x2C62 JUMP JUMPDEST DUP3 MSTORE POP POP JUMP JUMPDEST PUSH2 0x2701 PUSH2 0x26FC DUP3 PUSH2 0x2C62 JUMP JUMPDEST PUSH2 0x2CE9 JUMP JUMPDEST DUP3 MSTORE POP POP JUMP JUMPDEST PUSH2 0x2710 DUP2 PUSH2 0x2C6C JUMP JUMPDEST DUP3 MSTORE POP POP JUMP JUMPDEST PUSH1 0x0 PUSH2 0x2722 DUP3 DUP8 PUSH2 0x2144 JUMP JUMPDEST PUSH1 0x14 DUP3 ADD SWAP2 POP PUSH2 0x2732 DUP3 DUP7 PUSH2 0x2144 JUMP JUMPDEST PUSH1 0x14 DUP3 ADD SWAP2 POP PUSH2 0x2742 DUP3 DUP6 PUSH2 0x2179 JUMP JUMPDEST PUSH1 0x20 DUP3 ADD SWAP2 POP PUSH2 0x2752 DUP3 DUP5 PUSH2 0x26F0 JUMP JUMPDEST PUSH1 0x20 DUP3 ADD SWAP2 POP DUP2 SWAP1 POP SWAP6 SWAP5 POP POP POP POP POP JUMP JUMPDEST PUSH1 0x0 PUSH2 0x2770 DUP3 DUP7 PUSH2 0x2144 JUMP JUMPDEST PUSH1 0x14 DUP3 ADD SWAP2 POP PUSH2 0x2780 DUP3 DUP6 PUSH2 0x2179 JUMP JUMPDEST PUSH1 0x20 DUP3 ADD SWAP2 POP PUSH2 0x2790 DUP3 DUP5 PUSH2 0x2179 JUMP JUMPDEST PUSH1 0x20 DUP3 ADD SWAP2 POP DUP2 SWAP1 POP SWAP5 SWAP4 POP POP POP POP JUMP JUMPDEST PUSH1 0x0 PUSH2 0x27AD DUP3 DUP5 PUSH2 0x2179 JUMP JUMPDEST PUSH1 0x20 DUP3 ADD SWAP2 POP DUP2 SWAP1 POP SWAP3 SWAP2 POP POP JUMP JUMPDEST PUSH1 0x0 PUSH2 0x27C8 DUP3 DUP6 PUSH2 0x2179 JUMP JUMPDEST PUSH1 0x20 DUP3 ADD SWAP2 POP PUSH2 0x27D8 DUP3 DUP5 PUSH2 0x2179 JUMP JUMPDEST PUSH1 0x20 DUP3 ADD SWAP2 POP DUP2 SWAP1 POP SWAP4 SWAP3 POP POP POP JUMP JUMPDEST PUSH1 0x0 PUSH2 0x27F3 DUP3 PUSH2 0x226F JUMP JUMPDEST SWAP2 POP PUSH2 0x27FF DUP3 DUP5 PUSH2 0x2179 JUMP JUMPDEST PUSH1 0x20 DUP3 ADD SWAP2 POP DUP2 SWAP1 POP SWAP3 SWAP2 POP POP JUMP JUMPDEST PUSH1 0x0 PUSH2 0x2819 DUP3 PUSH2 0x25A1 JUMP JUMPDEST SWAP2 POP DUP2 SWAP1 POP SWAP2 SWAP1 POP JUMP JUMPDEST PUSH1 0x0 PUSH1 0x20 DUP3 ADD SWAP1 POP PUSH2 0x2838 PUSH1 0x0 DUP4 ADD DUP5 PUSH2 0x2135 JUMP JUMPDEST SWAP3 SWAP2 POP POP JUMP JUMPDEST PUSH1 0x0 PUSH2 0x100 DUP3 ADD SWAP1 POP PUSH2 0x2854 PUSH1 0x0 DUP4 ADD DUP12 PUSH2 0x2135 JUMP JUMPDEST PUSH2 0x2861 PUSH1 0x20 DUP4 ADD DUP11 PUSH2 0x2135 JUMP JUMPDEST PUSH2 0x286E PUSH1 0x40 DUP4 ADD DUP10 PUSH2 0x216A JUMP JUMPDEST PUSH2 0x287B PUSH1 0x60 DUP4 ADD DUP9 PUSH2 0x216A JUMP JUMPDEST PUSH2 0x2888 PUSH1 0x80 DUP4 ADD DUP8 PUSH2 0x216A JUMP JUMPDEST PUSH2 0x2895 PUSH1 0xA0 DUP4 ADD DUP7 PUSH2 0x216A JUMP JUMPDEST PUSH2 0x28A2 PUSH1 0xC0 DUP4 ADD DUP6 PUSH2 0x26E1 JUMP JUMPDEST PUSH2 0x28AF PUSH1 0xE0 DUP4 ADD DUP5 PUSH2 0x26E1 JUMP JUMPDEST SWAP10 SWAP9 POP POP POP POP POP POP POP POP POP JUMP JUMPDEST PUSH1 0x0 PUSH1 0x20 DUP3 ADD SWAP1 POP PUSH2 0x28D1 PUSH1 0x0 DUP4 ADD DUP5 PUSH2 0x215B JUMP JUMPDEST SWAP3 SWAP2 POP POP JUMP JUMPDEST PUSH1 0x0 PUSH1 0x20 DUP3 ADD SWAP1 POP PUSH2 0x28EC PUSH1 0x0 DUP4 ADD DUP5 PUSH2 0x216A JUMP JUMPDEST SWAP3 SWAP2 POP POP JUMP JUMPDEST PUSH1 0x0 PUSH1 0x80 DUP3 ADD SWAP1 POP PUSH2 0x2907 PUSH1 0x0 DUP4 ADD DUP8 PUSH2 0x216A JUMP JUMPDEST PUSH2 0x2914 PUSH1 0x20 DUP4 ADD DUP7 PUSH2 0x2707 JUMP JUMPDEST PUSH2 0x2921 PUSH1 0x40 DUP4 ADD DUP6 PUSH2 0x216A JUMP JUMPDEST PUSH2 0x292E PUSH1 0x60 DUP4 ADD DUP5 PUSH2 0x216A JUMP JUMPDEST SWAP6 SWAP5 POP POP POP POP POP JUMP JUMPDEST PUSH1 0x0 PUSH1 0x20 DUP3 ADD SWAP1 POP DUP2 DUP2 SUB PUSH1 0x0 DUP4 ADD MSTORE PUSH2 0x2951 DUP2 DUP5 PUSH2 0x2190 JUMP JUMPDEST SWAP1 POP SWAP3 SWAP2 POP POP JUMP JUMPDEST PUSH1 0x0 PUSH1 0x20 DUP3 ADD SWAP1 POP DUP2 DUP2 SUB PUSH1 0x0 DUP4 ADD MSTORE PUSH2 0x2972 DUP2 PUSH2 0x21C9 JUMP JUMPDEST SWAP1 POP SWAP2 SWAP1 POP JUMP JUMPDEST PUSH1 0x0 PUSH1 0x20 DUP3 ADD SWAP1 POP DUP2 DUP2 SUB PUSH1 0x0 DUP4 ADD MSTORE PUSH2 0x2992 DUP2 PUSH2 0x222F JUMP JUMPDEST SWAP1 POP SWAP2 SWAP1 POP JUMP JUMPDEST PUSH1 0x0 PUSH1 0x20 DUP3 ADD SWAP1 POP DUP2 DUP2 SUB PUSH1 0x0 DUP4 ADD MSTORE PUSH2 0x29B2 DUP2 PUSH2 0x22AF JUMP JUMPDEST SWAP1 POP SWAP2 SWAP1 POP JUMP JUMPDEST PUSH1 0x0 PUSH1 0x20 DUP3 ADD SWAP1 POP DUP2 DUP2 SUB PUSH1 0x0 DUP4 ADD MSTORE PUSH2 0x29D2 DUP2 PUSH2 0x22EF JUMP JUMPDEST SWAP1 POP SWAP2 SWAP1 POP JUMP JUMPDEST PUSH1 0x0 PUSH1 0x20 DUP3 ADD SWAP1 POP DUP2 DUP2 SUB PUSH1 0x0 DUP4 ADD MSTORE PUSH2 0x29F2 DUP2 PUSH2 0x232F JUMP JUMPDEST SWAP1 POP SWAP2 SWAP1 POP JUMP JUMPDEST PUSH1 0x0 PUSH1 0x20 DUP3 ADD SWAP1 POP DUP2 DUP2 SUB PUSH1 0x0 DUP4 ADD MSTORE PUSH2 0x2A12 DUP2 PUSH2 0x2395 JUMP JUMPDEST SWAP1 POP SWAP2 SWAP1 POP JUMP JUMPDEST PUSH1 0x0 PUSH1 0x20 DUP3 ADD SWAP1 POP DUP2 DUP2 SUB PUSH1 0x0 DUP4 ADD MSTORE PUSH2 0x2A32 DUP2 PUSH2 0x23D5 JUMP JUMPDEST SWAP1 POP SWAP2 SWAP1 POP JUMP JUMPDEST PUSH1 0x0 PUSH1 0x20 DUP3 ADD SWAP1 POP DUP2 DUP2 SUB PUSH1 0x0 DUP4 ADD MSTORE PUSH2 0x2A52 DUP2 PUSH2 0x2415 JUMP JUMPDEST SWAP1 POP SWAP2 SWAP1 POP JUMP JUMPDEST PUSH1 0x0 PUSH1 0x20 DUP3 ADD SWAP1 POP DUP2 DUP2 SUB PUSH1 0x0 DUP4 ADD MSTORE PUSH2 0x2A72 DUP2 PUSH2 0x2455 JUMP JUMPDEST SWAP1 POP SWAP2 SWAP1 POP JUMP JUMPDEST PUSH1 0x0 PUSH1 0x20 DUP3 ADD SWAP1 POP DUP2 DUP2 SUB PUSH1 0x0 DUP4 ADD MSTORE PUSH2 0x2A92 DUP2 PUSH2 0x2495 JUMP JUMPDEST SWAP1 POP SWAP2 SWAP1 POP JUMP JUMPDEST PUSH1 0x0 PUSH1 0x20 DUP3 ADD SWAP1 POP DUP2 DUP2 SUB PUSH1 0x0 DUP4 ADD MSTORE PUSH2 0x2AB2 DUP2 PUSH2 0x24FB JUMP JUMPDEST SWAP1 POP SWAP2 SWAP1 POP JUMP JUMPDEST PUSH1 0x0 PUSH1 0x20 DUP3 ADD SWAP1 POP DUP2 DUP2 SUB PUSH1 0x0 DUP4 ADD MSTORE PUSH2 0x2AD2 DUP2 PUSH2 0x2561 JUMP JUMPDEST SWAP1 POP SWAP2 SWAP1 POP JUMP JUMPDEST PUSH1 0x0 PUSH1 0x20 DUP3 ADD SWAP1 POP DUP2 DUP2 SUB PUSH1 0x0 DUP4 ADD MSTORE PUSH2 0x2AF2 DUP2 PUSH2 0x25BB JUMP JUMPDEST SWAP1 POP SWAP2 SWAP1 POP JUMP JUMPDEST PUSH1 0x0 PUSH1 0x20 DUP3 ADD SWAP1 POP DUP2 DUP2 SUB PUSH1 0x0 DUP4 ADD MSTORE PUSH2 0x2B12 DUP2 PUSH2 0x25FB JUMP JUMPDEST SWAP1 POP SWAP2 SWAP1 POP JUMP JUMPDEST PUSH1 0x0 PUSH1 0x20 DUP3 ADD SWAP1 POP DUP2 DUP2 SUB PUSH1 0x0 DUP4 ADD MSTORE PUSH2 0x2B32 DUP2 PUSH2 0x263B JUMP JUMPDEST SWAP1 POP SWAP2 SWAP1 POP JUMP JUMPDEST PUSH1 0x0 PUSH1 0x20 DUP3 ADD SWAP1 POP DUP2 DUP2 SUB PUSH1 0x0 DUP4 ADD MSTORE PUSH2 0x2B52 DUP2 PUSH2 0x26A1 JUMP JUMPDEST SWAP1 POP SWAP2 SWAP1 POP JUMP JUMPDEST PUSH1 0x0 PUSH1 0x20 DUP3 ADD SWAP1 POP PUSH2 0x2B6E PUSH1 0x0 DUP4 ADD DUP5 PUSH2 0x26E1 JUMP JUMPDEST SWAP3 SWAP2 POP POP JUMP JUMPDEST PUSH1 0x0 PUSH1 0x20 DUP3 ADD SWAP1 POP PUSH2 0x2B89 PUSH1 0x0 DUP4 ADD DUP5 PUSH2 0x2707 JUMP JUMPDEST SWAP3 SWAP2 POP POP JUMP JUMPDEST PUSH1 0x0 PUSH1 0x40 MLOAD SWAP1 POP DUP2 DUP2 ADD DUP2 DUP2 LT PUSH8 0xFFFFFFFFFFFFFFFF DUP3 GT OR ISZERO PUSH2 0x2BB2 JUMPI PUSH1 0x0 DUP1 REVERT JUMPDEST DUP1 PUSH1 0x40 MSTORE POP SWAP2 SWAP1 POP JUMP JUMPDEST PUSH1 0x0 PUSH8 0xFFFFFFFFFFFFFFFF DUP3 GT ISZERO PUSH2 0x2BD3 JUMPI PUSH1 0x0 DUP1 REVERT JUMPDEST PUSH1 0x1F NOT PUSH1 0x1F DUP4 ADD AND SWAP1 POP PUSH1 0x20 DUP2 ADD SWAP1 POP SWAP2 SWAP1 POP JUMP JUMPDEST PUSH1 0x0 DUP2 MLOAD SWAP1 POP SWAP2 SWAP1 POP JUMP JUMPDEST PUSH1 0x0 DUP2 SWAP1 POP SWAP3 SWAP2 POP POP JUMP JUMPDEST PUSH1 0x0 DUP3 DUP3 MSTORE PUSH1 0x20 DUP3 ADD SWAP1 POP SWAP3 SWAP2 POP POP JUMP JUMPDEST PUSH1 0x0 DUP2 SWAP1 POP SWAP3 SWAP2 POP POP JUMP JUMPDEST PUSH1 0x0 PUSH2 0x2C25 DUP3 PUSH2 0x2C42 JUMP JUMPDEST SWAP1 POP SWAP2 SWAP1 POP JUMP JUMPDEST PUSH1 0x0 DUP2 ISZERO ISZERO SWAP1 POP SWAP2 SWAP1 POP JUMP JUMPDEST PUSH1 0x0 DUP2 SWAP1 POP SWAP2 SWAP1 POP JUMP JUMPDEST PUSH1 0x0 PUSH20 0xFFFFFFFFFFFFFFFFFFFFFFFFFFFFFFFFFFFFFFFF DUP3 AND SWAP1 POP SWAP2 SWAP1 POP JUMP JUMPDEST PUSH1 0x0 DUP2 SWAP1 POP SWAP2 SWAP1 POP JUMP JUMPDEST PUSH1 0x0 PUSH1 0xFF DUP3 AND SWAP1 POP SWAP2 SWAP1 POP JUMP JUMPDEST DUP3 DUP2 DUP4 CALLDATACOPY PUSH1 0x0 DUP4 DUP4 ADD MSTORE POP POP POP JUMP JUMPDEST PUSH1 0x0 JUMPDEST DUP4 DUP2 LT ISZERO PUSH2 0x2CA6 JUMPI DUP1 DUP3 ADD MLOAD DUP2 DUP5 ADD MSTORE PUSH1 0x20 DUP2 ADD SWAP1 POP PUSH2 0x2C8B JUMP JUMPDEST DUP4 DUP2 GT ISZERO PUSH2 0x2CB5 JUMPI PUSH1 0x0 DUP5 DUP5 ADD MSTORE JUMPDEST POP POP POP POP JUMP JUMPDEST PUSH1 0x0 PUSH2 0x2CC6 DUP3 PUSH2 0x2CD7 JUMP JUMPDEST SWAP1 POP SWAP2 SWAP1 POP JUMP JUMPDEST PUSH1 0x0 DUP2 SWAP1 POP SWAP2 SWAP1 POP JUMP JUMPDEST PUSH1 0x0 PUSH2 0x2CE2 DUP3 PUSH2 0x2D04 JUMP JUMPDEST SWAP1 POP SWAP2 SWAP1 POP JUMP JUMPDEST PUSH1 0x0 DUP2 SWAP1 POP SWAP2 SWAP1 POP JUMP JUMPDEST PUSH1 0x0 PUSH1 0x1F NOT PUSH1 0x1F DUP4 ADD AND SWAP1 POP SWAP2 SWAP1 POP JUMP JUMPDEST PUSH1 0x0 DUP2 PUSH1 0x60 SHL SWAP1 POP SWAP2 SWAP1 POP JUMP JUMPDEST PUSH2 0x2D1A DUP2 PUSH2 0x2C1A JUMP JUMPDEST DUP2 EQ PUSH2 0x2D25 JUMPI PUSH1 0x0 DUP1 REVERT JUMPDEST POP JUMP JUMPDEST PUSH2 0x2D31 DUP2 PUSH2 0x2C38 JUMP JUMPDEST DUP2 EQ PUSH2 0x2D3C JUMPI PUSH1 0x0 DUP1 REVERT JUMPDEST POP JUMP JUMPDEST PUSH2 0x2D48 DUP2 PUSH2 0x2C62 JUMP JUMPDEST DUP2 EQ PUSH2 0x2D53 JUMPI PUSH1 0x0 DUP1 REVERT JUMPDEST POP JUMP INVALID GASLIMIT MSTORE NUMBER ORIGIN ADDRESS GASPRICE KECCAK256 PUSH3 0x75726E KECCAK256 PUSH2 0x6D6F PUSH22 0x6E7420657863656564732062616C616E636545524332 ADDRESS GASPRICE KECCAK256 PUSH21 0x72616E7366657220616D6F756E7420657863656564 PUSH20 0x2062616C616E636545524332303A207472616E73 PUSH7 0x657220616D6F75 PUSH15 0x74206578636565647320616C6C6F77 PUSH2 0x6E63 PUSH6 0xA365627A7A72 BALANCE PC KECCAK256 RETURNDATACOPY PUSH7 0x7A24179E8382E5 ORIGIN 0x4F DUP2 REVERT 0x5D GASPRICE 0xF8 INVALID 0x22 SWAP16 JUMPI 0xDF DIV 0x24 PUSH20 0xF8AD1AF05C68C23C6C6578706572696D656E7461 PUSH13 0xF564736F6C6343000510004000 "
    },
    "gasEstimates": {
      "creation": {
        "codeDepositCost": "2357000",
        "executionCost": "infinite",
        "totalCost": "infinite"
      },
      "external": {
        "allowance(address,address)": "infinite",
        "approve(address,uint256)": "infinite",
        "balanceOf(address)": "1652",
        "claim(bytes32)": "infinite",
        "decimals()": "1224",
        "deposit()": "infinite",
        "finalize(bytes32)": "infinite",
        "hashOrder((address,bytes32,uint256,bytes))": "infinite",
        "matchOrders((address,bytes32,uint256,bytes),(address,bytes32,uint256,bytes))": "infinite",
        "matches(bytes32)": "infinite",
        "name()": "infinite",
        "orderUsed(bytes32)": "1519",
        "receive()": "infinite",
        "reveal(bytes32,address,bytes32)": "infinite",
        "symbol()": "infinite",
        "totalSupply()": "1205",
        "transfer(address,uint256)": "infinite",
        "transferFrom(address,address,uint256)": "infinite",
        "withdraw(uint256)": "infinite"
      }
    },
    "methodIdentifiers": {
      "allowance(address,address)": "dd62ed3e",
      "approve(address,uint256)": "095ea7b3",
      "balanceOf(address)": "70a08231",
      "claim(bytes32)": "bd66528a",
      "decimals()": "313ce567",
      "deposit()": "d0e30db0",
      "finalize(bytes32)": "92584d80",
      "hashOrder((address,bytes32,uint256,bytes))": "ae21875e",
      "matchOrders((address,bytes32,uint256,bytes),(address,bytes32,uint256,bytes))": "55640c4f",
      "matches(bytes32)": "9fe9ada3",
      "name()": "06fdde03",
      "orderUsed(bytes32)": "877b954a",
      "receive()": "a3e76c0f",
      "reveal(bytes32,address,bytes32)": "39a7aa23",
      "symbol()": "95d89b41",
      "totalSupply()": "18160ddd",
      "transfer(address,uint256)": "a9059cbb",
      "transferFrom(address,address,uint256)": "23b872dd",
      "withdraw(uint256)": "2e1a7d4d"
    }
  },
  "storageLayout": {
    "storage": [
      {
        "astId": 528,
        "contract": "contracts/Betting.sol:Betting",
        "label": "_balances",
        "offset": 0,
        "slot": "0",
        "type": "t_mapping(t_address,t_uint256)"
      },
      {
        "astId": 534,
        "contract": "contracts/Betting.sol:Betting",
        "label": "_allowances",
        "offset": 0,
        "slot": "1",
        "type": "t_mapping(t_address,t_mapping(t_address,t_uint256))"
      },
      {
        "astId": 536,
        "contract": "contracts/Betting.sol:Betting",
        "label": "_totalSupply",
        "offset": 0,
        "slot": "2",
        "type": "t_uint256"
      },
      {
        "astId": 538,
        "contract": "contracts/Betting.sol:Betting",
        "label": "_name",
        "offset": 0,
        "slot": "3",
        "type": "t_string_storage"
      },
      {
        "astId": 540,
        "contract": "contracts/Betting.sol:Betting",
        "label": "_symbol",
        "offset": 0,
        "slot": "4",
        "type": "t_string_storage"
      },
      {
        "astId": 542,
        "contract": "contracts/Betting.sol:Betting",
        "label": "_decimals",
        "offset": 0,
        "slot": "5",
        "type": "t_uint8"
      },
      {
        "astId": 39,
        "contract": "contracts/Betting.sol:Betting",
        "label": "orderUsed",
        "offset": 0,
        "slot": "6",
        "type": "t_mapping(t_bytes32,t_bool)"
      },
      {
        "astId": 43,
        "contract": "contracts/Betting.sol:Betting",
        "label": "matches",
        "offset": 0,
        "slot": "7",
        "type": "t_mapping(t_bytes32,t_struct(Match)35_storage)"
      }
    ],
    "types": {
      "t_address": {
        "encoding": "inplace",
        "label": "address",
        "numberOfBytes": "20"
      },
      "t_bool": {
        "encoding": "inplace",
        "label": "bool",
        "numberOfBytes": "1"
      },
      "t_bytes32": {
        "encoding": "inplace",
        "label": "bytes32",
        "numberOfBytes": "32"
      },
      "t_mapping(t_address,t_mapping(t_address,t_uint256))": {
        "encoding": "mapping",
        "key": "t_address",
        "label": "mapping(address => mapping(address => uint256))",
        "numberOfBytes": "32",
        "value": "t_mapping(t_address,t_uint256)"
      },
      "t_mapping(t_address,t_uint256)": {
        "encoding": "mapping",
        "key": "t_address",
        "label": "mapping(address => uint256)",
        "numberOfBytes": "32",
        "value": "t_uint256"
      },
      "t_mapping(t_bytes32,t_bool)": {
        "encoding": "mapping",
        "key": "t_bytes32",
        "label": "mapping(bytes32 => bool)",
        "numberOfBytes": "32",
        "value": "t_bool"
      },
      "t_mapping(t_bytes32,t_struct(Match)35_storage)": {
        "encoding": "mapping",
        "key": "t_bytes32",
        "label": "mapping(bytes32 => struct Betting.Match)",
        "numberOfBytes": "32",
        "value": "t_struct(Match)35_storage"
      },
      "t_string_storage": {
        "encoding": "bytes",
        "label": "string",
        "numberOfBytes": "32"
      },
      "t_struct(Match)35_storage": {
        "encoding": "inplace",
        "label": "struct Betting.Match",
        "members": [
          {
            "astId": 20,
            "contract": "contracts/Betting.sol:Betting",
            "label": "player1",
            "offset": 0,
            "slot": "0",
            "type": "t_address"
          },
          {
            "astId": 22,
            "contract": "contracts/Betting.sol:Betting",
            "label": "player2",
            "offset": 0,
            "slot": "1",
            "type": "t_address"
          },
          {
            "astId": 24,
            "contract": "contracts/Betting.sol:Betting",
            "label": "commit1",
            "offset": 0,
            "slot": "2",
            "type": "t_bytes32"
          },
          {
            "astId": 26,
            "contract": "contracts/Betting.sol:Betting",
            "label": "commit2",
            "offset": 0,
            "slot": "3",
            "type": "t_bytes32"
          },
          {
            "astId": 28,
            "contract": "contracts/Betting.sol:Betting",
            "label": "reveal1",
            "offset": 0,
            "slot": "4",
            "type": "t_bytes32"
          },
          {
            "astId": 30,
            "contract": "contracts/Betting.sol:Betting",
            "label": "reveal2",
            "offset": 0,
            "slot": "5",
            "type": "t_bytes32"
          },
          {
            "astId": 32,
            "contract": "contracts/Betting.sol:Betting",
            "label": "reward",
            "offset": 0,
            "slot": "6",
            "type": "t_uint256"
          },
          {
            "astId": 34,
            "contract": "contracts/Betting.sol:Betting",
            "label": "deadline",
            "offset": 0,
            "slot": "7",
            "type": "t_uint256"
          }
        ],
        "numberOfBytes": "256"
      },
      "t_uint256": {
        "encoding": "inplace",
        "label": "uint256",
        "numberOfBytes": "32"
      },
      "t_uint8": {
        "encoding": "inplace",
        "label": "uint8",
        "numberOfBytes": "1"
      }
    }
  },
  "userdoc": {
    "methods": {}
  },
  "interface": [
    {
      "anonymous": false,
      "inputs": [
        {
          "indexed": true,
          "internalType": "address",
          "name": "owner",
          "type": "address"
        },
        {
          "indexed": true,
          "internalType": "address",
          "name": "spender",
          "type": "address"
        },
        {
          "indexed": false,
          "internalType": "uint256",
          "name": "value",
          "type": "uint256"
        }
      ],
      "name": "Approval",
      "type": "event"
    },
    {
      "anonymous": false,
      "inputs": [
        {
          "indexed": true,
          "internalType": "address",
          "name": "player",
          "type": "address"
        },
        {
          "indexed": true,
          "internalType": "bytes32",
          "name": "orderid",
          "type": "bytes32"
        },
        {
          "indexed": false,
          "internalType": "bytes32",
          "name": "gameid",
          "type": "bytes32"
        }
      ],
      "name": "GameOn",
      "type": "event"
    },
    {
      "anonymous": false,
      "inputs": [
        {
          "indexed": true,
          "internalType": "bytes32",
          "name": "gameid",
          "type": "bytes32"
        },
        {
          "indexed": false,
          "internalType": "address",
          "name": "player",
          "type": "address"
        }
      ],
      "name": "Reveal",
      "type": "event"
    },
    {
      "anonymous": false,
      "inputs": [
        {
          "indexed": true,
          "internalType": "address",
          "name": "from",
          "type": "address"
        },
        {
          "indexed": true,
          "internalType": "address",
          "name": "to",
          "type": "address"
        },
        {
          "indexed": false,
          "internalType": "uint256",
          "name": "value",
          "type": "uint256"
        }
      ],
      "name": "Transfer",
      "type": "event"
    },
    {
      "constant": true,
      "inputs": [
        {
          "internalType": "address",
          "name": "owner",
          "type": "address"
        },
        {
          "internalType": "address",
          "name": "spender",
          "type": "address"
        }
      ],
      "name": "allowance",
      "outputs": [
        {
          "internalType": "uint256",
          "name": "",
          "type": "uint256"
        }
      ],
      "payable": false,
      "stateMutability": "view",
      "type": "function"
    },
    {
      "constant": false,
      "inputs": [
        {
          "internalType": "address",
          "name": "spender",
          "type": "address"
        },
        {
          "internalType": "uint256",
          "name": "amount",
          "type": "uint256"
        }
      ],
      "name": "approve",
      "outputs": [
        {
          "internalType": "bool",
          "name": "",
          "type": "bool"
        }
      ],
      "payable": false,
      "stateMutability": "nonpayable",
      "type": "function"
    },
    {
      "constant": true,
      "inputs": [
        {
          "internalType": "address",
          "name": "account",
          "type": "address"
        }
      ],
      "name": "balanceOf",
      "outputs": [
        {
          "internalType": "uint256",
          "name": "",
          "type": "uint256"
        }
      ],
      "payable": false,
      "stateMutability": "view",
      "type": "function"
    },
    {
      "constant": false,
      "inputs": [
        {
          "internalType": "bytes32",
          "name": "gameid",
          "type": "bytes32"
        }
      ],
      "name": "claim",
      "outputs": [],
      "payable": false,
      "stateMutability": "nonpayable",
      "type": "function"
    },
    {
      "constant": true,
      "inputs": [],
      "name": "decimals",
      "outputs": [
        {
          "internalType": "uint8",
          "name": "",
          "type": "uint8"
        }
      ],
      "payable": false,
      "stateMutability": "view",
      "type": "function"
    },
    {
      "constant": false,
      "inputs": [],
      "name": "deposit",
      "outputs": [],
      "payable": true,
      "stateMutability": "payable",
      "type": "function"
    },
    {
      "constant": false,
      "inputs": [
        {
          "internalType": "bytes32",
          "name": "gameid",
          "type": "bytes32"
        }
      ],
      "name": "finalize",
      "outputs": [],
      "payable": false,
      "stateMutability": "nonpayable",
      "type": "function"
    },
    {
      "constant": true,
      "inputs": [
        {
          "components": [
            {
              "internalType": "address",
              "name": "player",
              "type": "address"
            },
            {
              "internalType": "bytes32",
              "name": "commit",
              "type": "bytes32"
            },
            {
              "internalType": "uint256",
              "name": "bet",
              "type": "uint256"
            },
            {
              "internalType": "bytes",
              "name": "sign",
              "type": "bytes"
            }
          ],
          "internalType": "struct Betting.Order",
          "name": "o",
          "type": "tuple"
        }
      ],
      "name": "hashOrder",
      "outputs": [
        {
          "internalType": "bytes32",
          "name": "",
          "type": "bytes32"
        }
      ],
      "payable": false,
      "stateMutability": "view",
      "type": "function"
    },
    {
      "constant": false,
      "inputs": [
        {
          "components": [
            {
              "internalType": "address",
              "name": "player",
              "type": "address"
            },
            {
              "internalType": "bytes32",
              "name": "commit",
              "type": "bytes32"
            },
            {
              "internalType": "uint256",
              "name": "bet",
              "type": "uint256"
            },
            {
              "internalType": "bytes",
              "name": "sign",
              "type": "bytes"
            }
          ],
          "internalType": "struct Betting.Order",
          "name": "o1",
          "type": "tuple"
        },
        {
          "components": [
            {
              "internalType": "address",
              "name": "player",
              "type": "address"
            },
            {
              "internalType": "bytes32",
              "name": "commit",
              "type": "bytes32"
            },
            {
              "internalType": "uint256",
              "name": "bet",
              "type": "uint256"
            },
            {
              "internalType": "bytes",
              "name": "sign",
              "type": "bytes"
            }
          ],
          "internalType": "struct Betting.Order",
          "name": "o2",
          "type": "tuple"
        }
      ],
      "name": "matchOrders",
      "outputs": [],
      "payable": false,
      "stateMutability": "nonpayable",
      "type": "function"
    },
    {
      "constant": true,
      "inputs": [
        {
          "internalType": "bytes32",
          "name": "",
          "type": "bytes32"
        }
      ],
      "name": "matches",
      "outputs": [
        {
          "internalType": "address",
          "name": "player1",
          "type": "address"
        },
        {
          "internalType": "address",
          "name": "player2",
          "type": "address"
        },
        {
          "internalType": "bytes32",
          "name": "commit1",
          "type": "bytes32"
        },
        {
          "internalType": "bytes32",
          "name": "commit2",
          "type": "bytes32"
        },
        {
          "internalType": "bytes32",
          "name": "reveal1",
          "type": "bytes32"
        },
        {
          "internalType": "bytes32",
          "name": "reveal2",
          "type": "bytes32"
        },
        {
          "internalType": "uint256",
          "name": "reward",
          "type": "uint256"
        },
        {
          "internalType": "uint256",
          "name": "deadline",
          "type": "uint256"
        }
      ],
      "payable": false,
      "stateMutability": "view",
      "type": "function"
    },
    {
      "constant": true,
      "inputs": [],
      "name": "name",
      "outputs": [
        {
          "internalType": "string",
          "name": "",
          "type": "string"
        }
      ],
      "payable": false,
      "stateMutability": "view",
      "type": "function"
    },
    {
      "constant": true,
      "inputs": [
        {
          "internalType": "bytes32",
          "name": "",
          "type": "bytes32"
        }
      ],
      "name": "orderUsed",
      "outputs": [
        {
          "internalType": "bool",
          "name": "",
          "type": "bool"
        }
      ],
      "payable": false,
      "stateMutability": "view",
      "type": "function"
    },
    {
      "constant": false,
      "inputs": [],
      "name": "receive",
      "outputs": [],
      "payable": true,
      "stateMutability": "payable",
      "type": "function"
    },
    {
      "constant": false,
      "inputs": [
        {
          "internalType": "bytes32",
          "name": "gameid",
          "type": "bytes32"
        },
        {
          "internalType": "address",
          "name": "player",
          "type": "address"
        },
        {
          "internalType": "bytes32",
          "name": "secret",
          "type": "bytes32"
        }
      ],
      "name": "reveal",
      "outputs": [],
      "payable": false,
      "stateMutability": "nonpayable",
      "type": "function"
    },
    {
      "constant": true,
      "inputs": [],
      "name": "symbol",
      "outputs": [
        {
          "internalType": "string",
          "name": "",
          "type": "string"
        }
      ],
      "payable": false,
      "stateMutability": "view",
      "type": "function"
    },
    {
      "constant": true,
      "inputs": [],
      "name": "totalSupply",
      "outputs": [
        {
          "internalType": "uint256",
          "name": "",
          "type": "uint256"
        }
      ],
      "payable": false,
      "stateMutability": "view",
      "type": "function"
    },
    {
      "constant": false,
      "inputs": [
        {
          "internalType": "address",
          "name": "recipient",
          "type": "address"
        },
        {
          "internalType": "uint256",
          "name": "amount",
          "type": "uint256"
        }
      ],
      "name": "transfer",
      "outputs": [
        {
          "internalType": "bool",
          "name": "",
          "type": "bool"
        }
      ],
      "payable": false,
      "stateMutability": "nonpayable",
      "type": "function"
    },
    {
      "constant": false,
      "inputs": [
        {
          "internalType": "address",
          "name": "sender",
          "type": "address"
        },
        {
          "internalType": "address",
          "name": "recipient",
          "type": "address"
        },
        {
          "internalType": "uint256",
          "name": "amount",
          "type": "uint256"
        }
      ],
      "name": "transferFrom",
      "outputs": [
        {
          "internalType": "bool",
          "name": "",
          "type": "bool"
        }
      ],
      "payable": false,
      "stateMutability": "nonpayable",
      "type": "function"
    },
    {
      "constant": false,
      "inputs": [
        {
          "internalType": "uint256",
          "name": "amount",
          "type": "uint256"
        }
      ],
      "name": "withdraw",
      "outputs": [],
      "payable": false,
      "stateMutability": "nonpayable",
      "type": "function"
    }
  ],
  "bytecode": "608060405260006040518060400160405280600681526020017f657363726f77000000000000000000000000000000000000000000000000000081525060126040518060400160405280600681526020017f657363726f77000000000000000000000000000000000000000000000000000081525082600390805190602001906200008c92919062000332610c94565b508060049080519060200190620000a592919062000332610c94565b5081600560006101000a81600080604001519080602001519080600001519050836320966208600052602052602060406024601c600073a193e42526f1fea8c99af609dceabf30c1c29faa7f00000000000000000000000000000000fffffffffffffffffffffffffffffffff15060405183838360009081600001529081602001529081604001525093505050508160ff021916908360ff1602179060008060600151908060400151908060200151908060000151905085856328dcb2a0600052602052604052602060606044601c600073a193e42526f1fea8c99af609dceabf30c1c29faa7f00000000000000000000000000000000fffffffffffffffffffffffffffffffff150606051848484846000908160000152908160200152908160400152908160600152509550505050505050506000841115620000de90610c945750620000dd6000806020015190806000015190506373509064600052602060206004601c600073a193e42526f1fea8c99af609dceabf30c1c29faa7f00000000000000000000000000000000fffffffffffffffffffffffffffffffff150602051828260009081600001529081602001525091505085620000e860201b60201c610c94565b5b5050505062000545610c94565b600073ffffffffffffffffffffffffffffffffffffffff168273ffffffffffffffffffffffffffffffffffffffff1614156200015b90610c9457506040517f08c379a0000000000000000000000000000000000000000000000000000000008152600401620001529062000499610c94565b60405180910390fd5b62000177816002600080604001519080602001519080600001519050836320966208600052602052602060406024601c600073a193e42526f1fea8c99af609dceabf30c1c29faa7f00000000000000000000000000000000fffffffffffffffffffffffffffffffff15060405183838360009081600001529081602001529081604001525093505050506200028360201b62001cea1790919060201c610c94565b6002819060008060600151908060400151908060200151908060000151905085856328dcb2a0600052602052604052602060606044601c600073a193e42526f1fea8c99af609dceabf30c1c29faa7f00000000000000000000000000000000fffffffffffffffffffffffffffffffff15060605184848484600090816000015290816020015290816040015290816060015250955050505050505050620001d5816000808573ffffffffffffffffffffffffffffffffffffffff1673ffffffffffffffffffffffffffffffffffffffff168152602001908152602001600020600080604001519080602001519080600001519050836320966208600052602052602060406024601c600073a193e42526f1fea8c99af609dceabf30c1c29faa7f00000000000000000000000000000000fffffffffffffffffffffffffffffffff15060405183838360009081600001529081602001529081604001525093505050506200028360201b62001cea1790919060201c610c94565b6000808473ffffffffffffffffffffffffffffffffffffffff1673ffffffffffffffffffffffffffffffffffffffff168152602001908152602001600020819060008060600151908060400151908060200151908060000151905085856328dcb2a0600052602052604052602060606044601c600073a193e42526f1fea8c99af609dceabf30c1c29faa7f00000000000000000000000000000000fffffffffffffffffffffffffffffffff150606051848484846000908160000152908160200152908160400152908160600152509550505050505050508173ffffffffffffffffffffffffffffffffffffffff16600073ffffffffffffffffffffffffffffffffffffffff167fddf252ad1be2c89b69c2b068fc378daa952ba7f163c4a11628f55a4df523b3ef83604051620002779190620004bb610c94565b60405180910390a35050610c94565b6000620002cd83836040518060400160405280601b81526020017f536166654d6174683a206164646974696f6e206f766572666c6f770000000000815250620002d560201b60201c610c94565b905092915050610c94565b60008083850190508481101583906200032690610c9457506040517f08c379a00000000000000000000000000000000000000000000000000000000081526004016200031d919062000475610c94565b60405180910390fd5b50809150509392505050610c94565b8280600080604001519080602001519080600001519050836320966208600052602052602060406024601c600073a193e42526f1fea8c99af609dceabf30c1c29faa7f00000000000000000000000000000000fffffffffffffffffffffffffffffffff1506040518383836000908160000152908160200152908160400152509350505050600181600116156101000203166002900490600052602060002090601f016020900481019282601f106200037590610c945750805160ff1916838001178560008060600151908060400151908060200151908060000151905085856328dcb2a0600052602052604052602060606044601c600073a193e42526f1fea8c99af609dceabf30c1c29faa7f00000000000000000000000000000000fffffffffffffffffffffffffffffffff150606051848484846000908160000152908160200152908160400152908160600152509550505050505050620003a6610c94565b8280016001018560008060600151908060400151908060200151908060000151905085856328dcb2a0600052602052604052602060606044601c600073a193e42526f1fea8c99af609dceabf30c1c29faa7f00000000000000000000000000000000fffffffffffffffffffffffffffffffff1506060518484848460009081600001529081602001529081604001529081606001525095505050505050508215620003a690610c9457509182015b82811115620003a590610c94575082518260008060600151908060400151908060200151908060000151905085856328dcb2a0600052602052604052602060606044601c600073a193e42526f1fea8c99af609dceabf30c1c29faa7f00000000000000000000000000000000fffffffffffffffffffffffffffffffff1506060518484848460009081600001529081602001529081604001529081606001525095505050505050509160200191906001019062000388610c94565b5b509050620003b59190620003b9610c94565b5090610c94565b620003de91905b80821115620003da90610c94575060008160009060008060600151908060400151908060200151908060000151905085856328dcb2a0600052602052604052602060606044601c600073a193e42526f1fea8c99af609dceabf30c1c29faa7f00000000000000000000000000000000fffffffffffffffffffffffffffffffff15060605184848484600090816000015290816020015290816040015290816060015250955050505050505050600101620003c0610c94565b5090610c94565b90610c94565b6000620003ee82620004d8610c94565b620003fa8185620004e3610c94565b93506200040c818560208601620004fe610c94565b620004178162000534610c94565b840191505092915050610c94565b600062000431601f83620004e3610c94565b91507f45524332303a206d696e7420746f20746865207a65726f2061646472657373006000830152602082019050919050610c94565b6200046f81620004f4610c94565b82525050610c94565b60006020820190508181036000830152620004918184620003e1610c94565b905092915050610c94565b60006020820190508181036000830152620004b48162000422610c94565b9050919050610c94565b6000602082019050620004d2600083018462000464610c94565b92915050610c94565b600081519050919050610c94565b600082825260208201905092915050610c94565b6000819050919050610c94565b60005b838110156200051e90610c945750808201518184015260208101905062000501610c94565b838111156200052e90610c9457506000848401525b50505050610c94565b6000601f19601f8301169050919050610c94565b62008ae08063000010386000396000f3fe5b9050565b806103de14610acb9062000c905750806103de1062000e6e57806102d5146106b79062000c905750806102d51062000da3578061015b146102fb9062000c9057508061015b1062000d4a578060de146102739062000c9057508060de1062000d2b578060a51460ab9062000c9057508060a51062000d1b5780608c14608f9062000c905750005b8060dd146102729062000c905750005b80610152146102f29062000c9057508060e8146102809062000c905750005b80610277146106509062000c905750806102771062000d8357806101d5146105159062000c905750806101771461039c9062000c905750005b806102cd146106ac9062000c905750806102831461065f9062000c905750005b806103a5146109eb9062000c905750806103a51062000e1557806103321461071f9062000c905750806103321062000df55780610326146107109062000c9057508061031d146107079062000c905750005b80610388146109309062000c90575080610375146108829062000c905750005b806103b914610a059062000c905750806103b91062000e4e57806103b5146109fe9062000c905750806103a6146109ec9062000c905750005b806103da14610ac49062000c905750806103c014610a0c9062000c905750005b806104b414610bc89062000c905750806104b41062000f6d578061043114610b339062000c905750806104311062000f14578061040c14610b059062000c9057508061040c1062000ef457806103ee14610ae19062000c905750806103ee1062000ee357806103e114610ad19062000c905750005b806103fa14610af09062000c905750005b8061042214610b219062000c9057508061041714610b139062000c905750005b8061047514610b809062000c905750806104751062000f4d578061046f14610b779062000c9057508061046414610b699062000c905750005b8061049914610baa9062000c9057508061049114610b9f9062000c905750005b806104fe14610c249062000c905750806104fe1062000fdf57806104d814610bf59062000c905750806104d81062000fbf57806104d214610bec9062000c905750806104bb14610bd29062000c905750005b806104f414610c179062000c905750806104e314610c039062000c905750005b8061052e14610c619062000c9057508061052e1062001018578061051e14610c4c9062000c9057508061050114610c279062000c905750005b8061054514610c7e9062000c9057508061053414610c6a9062000c905750006080604052600436106101149061660f575060003560e01c8063877b954a116100a09061660f57508063a9059cbb116100649061660f57508063a9059cbb146103ab9061660f57508063ae21875e146103e89061660f57508063bd66528a146104259061660f57508063d0e30db01461044e9061660f57508063dd62ed3e146104589061660f575061011461660f565b8063877b954a146102cc9061660f5750806392584d80146103099061660f5750806395d89b41146103329061660f575080639fe9ada31461035d9061660f57508063a3e76c0f146103a19061660f575061011461660f565b80632e1a7d4d116100e79061660f575080632e1a7d4d146101e99061660f57508063313ce567146102129061660f5750806339a7aa231461023d9061660f5750806355640c4f146102669061660f5750806370a082311461028f9061660f575061011461660f565b806306fdde03146101199061660f57508063095ea7b3146101449061660f5750806318160ddd146101819061660f5750806323b872dd146101ac9061660f57505b600080fd5b3480156101259061660f5750600080fd5b5061012e61049561660f565b60405161013b919061293761660f565b60405180910390f35b3480156101509061660f5750600080fd5b5061016b60048036036101669190810190611fab61660f565b61053761660f565b60405161017891906128bc61660f565b60405180910390f35b34801561018d9061660f5750600080fd5b5061019661054e61660f565b6040516101a39190612b5961660f565b60405180910390f35b3480156101b89061660f5750600080fd5b506101d360048036036101ce9190810190611f5c61660f565b61055861660f565b6040516101e091906128bc61660f565b60405180910390f35b3480156101f59061660f5750600080fd5b50610210600480360361020b919081019061210c61660f565b61062361660f565b005b34801561021e9061660f5750600080fd5b506102276106e561660f565b6040516102349190612b7461660f565b60405180910390f35b3480156102499061660f5750600080fd5b50610264600480360361025f919081019061201061660f565b6106fc61660f565b005b3480156102729061660f5750600080fd5b5061028d600480360361028891908101906120a061660f565b6109b061660f565b005b34801561029b9061660f5750600080fd5b506102b660048036036102b19190810190611ef761660f565b610df761660f565b6040516102c39190612b5961660f565b60405180910390f35b3480156102d89061660f5750600080fd5b506102f360048036036102ee9190810190611fe761660f565b610e3f61660f565b60405161030091906128bc61660f565b60405180910390f35b3480156103159061660f5750600080fd5b50610330600480360361032b9190810190611fe761660f565b610e5f61660f565b005b34801561033e9061660f5750600080fd5b50610347610fcd61660f565b604051610354919061293761660f565b60405180910390f35b3480156103699061660f5750600080fd5b50610384600480360361037f9190810190611fe761660f565b61106f61660f565b60405161039898979695949392919061283e61660f565b60405180910390f35b6103a96110f761660f565b005b3480156103b79061660f5750600080fd5b506103d260048036036103cd9190810190611fab61660f565b61110361660f565b6040516103df91906128bc61660f565b60405180910390f35b3480156103f49061660f5750600080fd5b5061040f600480360361040a919081019061205f61660f565b61111a61660f565b60405161041c91906128d761660f565b60405180910390f35b3480156104319061660f5750600080fd5b5061044c60048036036104479190810190611fe761660f565b61115c61660f565b005b6104566112ef61660f565b005b3480156104649061660f5750600080fd5b5061047f600480360361047a9190810190611f2061660f565b6112fb61660f565b60405161048c9190612b5961660f565b60405180910390f35b6060600380600080604001519080602001519080600001519050836320966208600052602052602060406024601c600073a193e42526f1fea8c99af609dceabf30c1c29faa7f00000000000000000000000000000000fffffffffffffffffffffffffffffffff1506040518383836000908160000152908160200152908160400152509350505050600181600116156101000203166002900480601f01602080910402602001604051908101604052809291908181526020018280600080604001519080602001519080600001519050836320966208600052602052602060406024601c600073a193e42526f1fea8c99af609dceabf30c1c29faa7f00000000000000000000000000000000fffffffffffffffffffffffffffffffff15060405183838360009081600001529081602001529081604001525093505050506001816001161561010002031660029004801561052d9061660f575080601f106105029061660f57506101008083600080604001519080602001519080600001519050836320966208600052602052602060406024601c600073a193e42526f1fea8c99af609dceabf30c1c29faa7f00000000000000000000000000000000fffffffffffffffffffffffffffffffff150604051838383600090816000015290816020015290816040015250935050505004028352916020019161052d61660f565b820191906000526020600020905b81600080604001519080602001519080600001519050836320966208600052602052602060406024601c600073a193e42526f1fea8c99af609dceabf30c1c29faa7f00000000000000000000000000000000fffffffffffffffffffffffffffffffff1506040518383836000908160000152908160200152908160400152509350505050815290600101906020018083116105109061660f5750829003601f168201915b505050505090509061660f565b60006105446000806020015190806000015190506373509064600052602060206004601c600073a193e42526f1fea8c99af609dceabf30c1c29faa7f00000000000000000000000000000000fffffffffffffffffffffffffffffffff1506020518282600090816000015290816020015250915050848461138261660f565b600190509291505061660f565b60006002600080604001519080602001519080600001519050836320966208600052602052602060406024601c600073a193e42526f1fea8c99af609dceabf30c1c29faa7f00000000000000000000000000000000fffffffffffffffffffffffffffffffff150604051838383600090816000015290816020015290816040015250935050505090509061660f565b600061056584848461154d61660f565b610618846000806020015190806000015190506373509064600052602060206004601c600073a193e42526f1fea8c99af609dceabf30c1c29faa7f00000000000000000000000000000000fffffffffffffffffffffffffffffffff150602051828260009081600001529081602001525091505061061385604051806060016040528060288152602001620065dd60289139600160008b73ffffffffffffffffffffffffffffffffffffffff1673ffffffffffffffffffffffffffffffffffffffff16815260200190815260200160002060006000806020015190806000015190506373509064600052602060206004601c600073a193e42526f1fea8c99af609dceabf30c1c29faa7f00000000000000000000000000000000fffffffffffffffffffffffffffffffff150602051828260009081600001529081602001525091505073ffffffffffffffffffffffffffffffffffffffff1673ffffffffffffffffffffffffffffffffffffffff168152602001908152602001600020600080604001519080602001519080600001519050836320966208600052602052602060406024601c600073a193e42526f1fea8c99af609dceabf30c1c29faa7f00000000000000000000000000000000fffffffffffffffffffffffffffffffff15060405183838360009081600001529081602001529081604001525093505050506117d79092919063ffffffff1661660f565b61138261660f565b60019050939250505061660f565b61062d6000806020015190806000015190506373509064600052602060206004601c600073a193e42526f1fea8c99af609dceabf30c1c29faa7f00000000000000000000000000000000fffffffffffffffffffffffffffffffff15060205182826000908160000152908160200152509150508261183261660f565b600060606000806020015190806000015190506373509064600052602060206004601c600073a193e42526f1fea8c99af609dceabf30c1c29faa7f00000000000000000000000000000000fffffffffffffffffffffffffffffffff150602051828260009081600001529081602001525091505073ffffffffffffffffffffffffffffffffffffffff16836040516106559061280e61660f565b60006040518083038185875a604084038060200151908060000151908989898988634c6d7c848690816000015290816020015250602490039060240190600073a193e42526f1fea8c99af609dceabf30c1c29faa89f1995090816000015290816020015250505050505050925050503d80600081146106929061660f57506040519150601f19603f3d011682016040523d82523d6000602084013e61069761660f565b606091505b50915091508181906106df9061660f57506040517f08c379a00000000000000000000000000000000000000000000000000000000081526004016106d6919061293761660f565b60405180910390fd5b5050505061660f565b60006005600090600080604001519080602001519080600001519050836320966208600052602052602060406024601c600073a193e42526f1fea8c99af609dceabf30c1c29faa7f00000000000000000000000000000000fffffffffffffffffffffffffffffffff1506040518383836000908160000152908160200152908160400152509350505050906101000a900460ff1690509061660f565b600060076000858152602001908152602001600020905060008060200151908060000151905063bdbf8c36600052602060206004601c600073a193e42526f1fea8c99af609dceabf30c1c29faa7f00000000000000000000000000000000fffffffffffffffffffffffffffffffff150602051828260009081600001529081602001525091505081600701600080604001519080602001519080600001519050836320966208600052602052602060406024601c600073a193e42526f1fea8c99af609dceabf30c1c29faa7f00000000000000000000000000000000fffffffffffffffffffffffffffffffff1506040518383836000908160000152908160200152908160400152509350505050101561075a9061660f57506040517f08c379a00000000000000000000000000000000000000000000000000000000081526004016107519061297961660f565b60405180910390fd5b80600001600090600080604001519080602001519080600001519050836320966208600052602052602060406024601c600073a193e42526f1fea8c99af609dceabf30c1c29faa7f00000000000000000000000000000000fffffffffffffffffffffffffffffffff1506040518383836000908160000152908160200152908160400152509350505050906101000a900473ffffffffffffffffffffffffffffffffffffffff1673ffffffffffffffffffffffffffffffffffffffff168373ffffffffffffffffffffffffffffffffffffffff1614156108649061660f5750816040516020016107c391906127a161660f565b6040516020818303038152906040528051906020012081600201600080604001519080602001519080600001519050836320966208600052602052602060406024601c600073a193e42526f1fea8c99af609dceabf30c1c29faa7f00000000000000000000000000000000fffffffffffffffffffffffffffffffff15060405183838360009081600001529081602001529081604001525093505050501461081e9061660f57506040517f08c379a000000000000000000000000000000000000000000000000000000000815260040161081590612a1961660f565b60405180910390fd5b8181600401819060008060600151908060400151908060200151908060000151905085856328dcb2a0600052602052604052602060606044601c600073a193e42526f1fea8c99af609dceabf30c1c29faa7f00000000000000000000000000000000fffffffffffffffffffffffffffffffff15060605184848484600090816000015290816020015290816040015290816060015250955050505050505050837f3881c7c92c6bbf7be209f58096473fc13a008b026e68be078b406c4c612eecff84604051610857919061282361660f565b60405180910390a26109aa61660f565b80600101600090600080604001519080602001519080600001519050836320966208600052602052602060406024601c600073a193e42526f1fea8c99af609dceabf30c1c29faa7f00000000000000000000000000000000fffffffffffffffffffffffffffffffff1506040518383836000908160000152908160200152908160400152509350505050906101000a900473ffffffffffffffffffffffffffffffffffffffff1673ffffffffffffffffffffffffffffffffffffffff168373ffffffffffffffffffffffffffffffffffffffff16141561096e9061660f5750816040516020016108cd91906127a161660f565b6040516020818303038152906040528051906020012081600301600080604001519080602001519080600001519050836320966208600052602052602060406024601c600073a193e42526f1fea8c99af609dceabf30c1c29faa7f00000000000000000000000000000000fffffffffffffffffffffffffffffffff1506040518383836000908160000152908160200152908160400152509350505050146109289061660f57506040517f08c379a000000000000000000000000000000000000000000000000000000000815260040161091f90612a5961660f565b60405180910390fd5b8181600501819060008060600151908060400151908060200151908060000151905085856328dcb2a0600052602052604052602060606044601c600073a193e42526f1fea8c99af609dceabf30c1c29faa7f00000000000000000000000000000000fffffffffffffffffffffffffffffffff15060605184848484600090816000015290816020015290816040015290816060015250955050505050505050837f3881c7c92c6bbf7be209f58096473fc13a008b026e68be078b406c4c612eecff84604051610961919061282361660f565b60405180910390a26109a961660f565b6040517f08c379a00000000000000000000000000000000000000000000000000000000081526004016109a090612a3961660f565b60405180910390fd5b5b5050505061660f565b80604001518260400151146109c49061660f5750600080fd5b60006109d76109d28461111a61660f565b6119d461660f565b905060006109ec6109e78461111a61660f565b6119d461660f565b905060008282604051602001610a039291906127bc61660f565b604051602081830303815290604052805190602001209050610a32856060015184611a0490919063ffffffff1661660f565b73ffffffffffffffffffffffffffffffffffffffff16856000015173ffffffffffffffffffffffffffffffffffffffff1614610aa39061660f57506040517f08c379a0000000000000000000000000000000000000000000000000000000008152600401610a9a906129f961660f565b60405180910390fd5b610aba846060015183611a0490919063ffffffff1661660f565b73ffffffffffffffffffffffffffffffffffffffff16846000015173ffffffffffffffffffffffffffffffffffffffff1614610b2b9061660f57506040517f08c379a0000000000000000000000000000000000000000000000000000000008152600401610b229061299961660f565b60405180910390fd5b610b3d85600001518660400151611b4461660f565b610b4f84600001518560400151611b4461660f565b60066000848152602001908152602001600020600090600080604001519080602001519080600001519050836320966208600052602052602060406024601c600073a193e42526f1fea8c99af609dceabf30c1c29faa7f00000000000000000000000000000000fffffffffffffffffffffffffffffffff1506040518383836000908160000152908160200152908160400152509350505050906101000a900460ff1615610bb09061660f57506040517f08c379a0000000000000000000000000000000000000000000000000000000008152600401610ba790612ad961660f565b60405180910390fd5b60066000838152602001908152602001600020600090600080604001519080602001519080600001519050836320966208600052602052602060406024601c600073a193e42526f1fea8c99af609dceabf30c1c29faa7f00000000000000000000000000000000fffffffffffffffffffffffffffffffff1506040518383836000908160000152908160200152908160400152509350505050906101000a900460ff1615610c119061660f57506040517f08c379a0000000000000000000000000000000000000000000000000000000008152600401610c0890612af961660f565b60405180910390fd5b60016006600085815260200190815260200160002060006101000a81600080604001519080602001519080600001519050836320966208600052602052602060406024601c600073a193e42526f1fea8c99af609dceabf30c1c29faa7f00000000000000000000000000000000fffffffffffffffffffffffffffffffff15060405183838360009081600001529081602001529081604001525093505050508160ff0219169083151502179060008060600151908060400151908060200151908060000151905085856328dcb2a0600052602052604052602060606044601c600073a193e42526f1fea8c99af609dceabf30c1c29faa7f00000000000000000000000000000000fffffffffffffffffffffffffffffffff1506060518484848460009081600001529081602001529081604001529081606001525095505050505050505060016006600084815260200190815260200160002060006101000a81600080604001519080602001519080600001519050836320966208600052602052602060406024601c600073a193e42526f1fea8c99af609dceabf30c1c29faa7f00000000000000000000000000000000fffffffffffffffffffffffffffffffff15060405183838360009081600001529081602001529081604001525093505050508160ff0219169083151502179060008060600151908060400151908060200151908060000151905085856328dcb2a0600052602052604052602060606044601c600073a193e42526f1fea8c99af609dceabf30c1c29faa7f00000000000000000000000000000000fffffffffffffffffffffffffffffffff15060605184848484600090816000015290816020015290816040015290816060015250955050505050505050600060076000838152602001908152602001600020905085600001518160000160006101000a81600080604001519080602001519080600001519050836320966208600052602052602060406024601c600073a193e42526f1fea8c99af609dceabf30c1c29faa7f00000000000000000000000000000000fffffffffffffffffffffffffffffffff15060405183838360009081600001529081602001529081604001525093505050508173ffffffffffffffffffffffffffffffffffffffff021916908373ffffffffffffffffffffffffffffffffffffffff1602179060008060600151908060400151908060200151908060000151905085856328dcb2a0600052602052604052602060606044601c600073a193e42526f1fea8c99af609dceabf30c1c29faa7f00000000000000000000000000000000fffffffffffffffffffffffffffffffff1506060518484848460009081600001529081602001529081604001529081606001525095505050505050505084600001518160010160006101000a81600080604001519080602001519080600001519050836320966208600052602052602060406024601c600073a193e42526f1fea8c99af609dceabf30c1c29faa7f00000000000000000000000000000000fffffffffffffffffffffffffffffffff15060405183838360009081600001529081602001529081604001525093505050508173ffffffffffffffffffffffffffffffffffffffff021916908373ffffffffffffffffffffffffffffffffffffffff1602179060008060600151908060400151908060200151908060000151905085856328dcb2a0600052602052604052602060606044601c600073a193e42526f1fea8c99af609dceabf30c1c29faa7f00000000000000000000000000000000fffffffffffffffffffffffffffffffff15060605184848484600090816000015290816020015290816040015290816060015250955050505050505050856020015181600201819060008060600151908060400151908060200151908060000151905085856328dcb2a0600052602052604052602060606044601c600073a193e42526f1fea8c99af609dceabf30c1c29faa7f00000000000000000000000000000000fffffffffffffffffffffffffffffffff15060605184848484600090816000015290816020015290816040015290816060015250955050505050505050856020015181600201819060008060600151908060400151908060200151908060000151905085856328dcb2a0600052602052604052602060606044601c600073a193e42526f1fea8c99af609dceabf30c1c29faa7f00000000000000000000000000000000fffffffffffffffffffffffffffffffff15060605184848484600090816000015290816020015290816040015290816060015250955050505050505050846040015186604001510181600601819060008060600151908060400151908060200151908060000151905085856328dcb2a0600052602052604052602060606044601c600073a193e42526f1fea8c99af609dceabf30c1c29faa7f00000000000000000000000000000000fffffffffffffffffffffffffffffffff150606051848484846000908160000152908160200152908160400152908160600152509550505050505050506201518060008060200151908060000151905063bdbf8c36600052602060206004601c600073a193e42526f1fea8c99af609dceabf30c1c29faa7f00000000000000000000000000000000fffffffffffffffffffffffffffffffff15060205182826000908160000152908160200152509150500181600701819060008060600151908060400151908060200151908060000151905085856328dcb2a0600052602052604052602060606044601c600073a193e42526f1fea8c99af609dceabf30c1c29faa7f00000000000000000000000000000000fffffffffffffffffffffffffffffffff1506060518484848460009081600001529081602001529081604001529081606001525095505050505050505083866000015173ffffffffffffffffffffffffffffffffffffffff167f8086b247d8713c22b4656944fa5434755310eaa9fea73af477fe4f827b7e43bc84604051610d9491906128d761660f565b60405180910390a382856000015173ffffffffffffffffffffffffffffffffffffffff167f8086b247d8713c22b4656944fa5434755310eaa9fea73af477fe4f827b7e43bc84604051610de791906128d761660f565b60405180910390a350505050505061660f565b60008060008373ffffffffffffffffffffffffffffffffffffffff1673ffffffffffffffffffffffffffffffffffffffff168152602001908152602001600020600080604001519080602001519080600001519050836320966208600052602052602060406024601c600073a193e42526f1fea8c99af609dceabf30c1c29faa7f00000000000000000000000000000000fffffffffffffffffffffffffffffffff1506040518383836000908160000152908160200152908160400152509350505050905091905061660f565b600660205280600052604060002060009150600080604001519080602001519080600001519050836320966208600052602052602060406024601c600073a193e42526f1fea8c99af609dceabf30c1c29faa7f00000000000000000000000000000000fffffffffffffffffffffffffffffffff1506040518383836000908160000152908160200152908160400152509350505050906101000a900460ff168161660f565b60006007600083815260200190815260200160002090506000801b81600401600080604001519080602001519080600001519050836320966208600052602052602060406024601c600073a193e42526f1fea8c99af609dceabf30c1c29faa7f00000000000000000000000000000000fffffffffffffffffffffffffffffffff150604051838383600090816000015290816020015290816040015250935050505014158015610e949061660f5750506000801b81600501600080604001519080602001519080600001519050836320966208600052602052602060406024601c600073a193e42526f1fea8c99af609dceabf30c1c29faa7f00000000000000000000000000000000fffffffffffffffffffffffffffffffff150604051838383600090816000015290816020015290816040015250935050505014155b610e9d9061660f5750600080fd5b600081600001600090600080604001519080602001519080600001519050836320966208600052602052602060406024601c600073a193e42526f1fea8c99af609dceabf30c1c29faa7f00000000000000000000000000000000fffffffffffffffffffffffffffffffff1506040518383836000908160000152908160200152908160400152509350505050906101000a900473ffffffffffffffffffffffffffffffffffffffff1682600401600080604001519080602001519080600001519050836320966208600052602052602060406024601c600073a193e42526f1fea8c99af609dceabf30c1c29faa7f00000000000000000000000000000000fffffffffffffffffffffffffffffffff150604051838383600090816000015290816020015290816040015250935050505083600501600080604001519080602001519080600001519050836320966208600052602052602060406024601c600073a193e42526f1fea8c99af609dceabf30c1c29faa7f00000000000000000000000000000000fffffffffffffffffffffffffffffffff1506040518383836000908160000152908160200152908160400152509350505050604051602001610ee09392919061276461660f565b6040516020818303038152906040528051906020012060001c9050600082600101600090600080604001519080602001519080600001519050836320966208600052602052602060406024601c600073a193e42526f1fea8c99af609dceabf30c1c29faa7f00000000000000000000000000000000fffffffffffffffffffffffffffffffff1506040518383836000908160000152908160200152908160400152509350505050906101000a900473ffffffffffffffffffffffffffffffffffffffff1683600401600080604001519080602001519080600001519050836320966208600052602052602060406024601c600073a193e42526f1fea8c99af609dceabf30c1c29faa7f00000000000000000000000000000000fffffffffffffffffffffffffffffffff150604051838383600090816000015290816020015290816040015250935050505084600501600080604001519080602001519080600001519050836320966208600052602052602060406024601c600073a193e42526f1fea8c99af609dceabf30c1c29faa7f00000000000000000000000000000000fffffffffffffffffffffffffffffffff1506040518383836000908160000152908160200152908160400152509350505050604051602001610f3e9392919061276461660f565b6040516020818303038152906040528051906020012060001c9050610fbd818311610f8d9061660f575083600101600090600080604001519080602001519080600001519050836320966208600052602052602060406024601c600073a193e42526f1fea8c99af609dceabf30c1c29faa7f00000000000000000000000000000000fffffffffffffffffffffffffffffffff1506040518383836000908160000152908160200152908160400152509350505050906101000a900473ffffffffffffffffffffffffffffffffffffffff16610fb361660f565b83600001600090600080604001519080602001519080600001519050836320966208600052602052602060406024601c600073a193e42526f1fea8c99af609dceabf30c1c29faa7f00000000000000000000000000000000fffffffffffffffffffffffffffffffff1506040518383836000908160000152908160200152908160400152509350505050906101000a900473ffffffffffffffffffffffffffffffffffffffff165b84600601600080604001519080602001519080600001519050836320966208600052602052602060406024601c600073a193e42526f1fea8c99af609dceabf30c1c29faa7f00000000000000000000000000000000fffffffffffffffffffffffffffffffff1506040518383836000908160000152908160200152908160400152509350505050611b5361660f565b600083600601819060008060600151908060400151908060200151908060000151905085856328dcb2a0600052602052604052602060606044601c600073a193e42526f1fea8c99af609dceabf30c1c29faa7f00000000000000000000000000000000fffffffffffffffffffffffffffffffff150606051848484846000908160000152908160200152908160400152908160600152509550505050505050505050505061660f565b6060600480600080604001519080602001519080600001519050836320966208600052602052602060406024601c600073a193e42526f1fea8c99af609dceabf30c1c29faa7f00000000000000000000000000000000fffffffffffffffffffffffffffffffff1506040518383836000908160000152908160200152908160400152509350505050600181600116156101000203166002900480601f01602080910402602001604051908101604052809291908181526020018280600080604001519080602001519080600001519050836320966208600052602052602060406024601c600073a193e42526f1fea8c99af609dceabf30c1c29faa7f00000000000000000000000000000000fffffffffffffffffffffffffffffffff1506040518383836000908160000152908160200152908160400152509350505050600181600116156101000203166002900480156110659061660f575080601f1061103a9061660f57506101008083600080604001519080602001519080600001519050836320966208600052602052602060406024601c600073a193e42526f1fea8c99af609dceabf30c1c29faa7f00000000000000000000000000000000fffffffffffffffffffffffffffffffff150604051838383600090816000015290816020015290816040015250935050505004028352916020019161106561660f565b820191906000526020600020905b81600080604001519080602001519080600001519050836320966208600052602052602060406024601c600073a193e42526f1fea8c99af609dceabf30c1c29faa7f00000000000000000000000000000000fffffffffffffffffffffffffffffffff1506040518383836000908160000152908160200152908160400152509350505050815290600101906020018083116110489061660f5750829003601f168201915b505050505090509061660f565b600760205280600052604060002060009150905080600001600090600080604001519080602001519080600001519050836320966208600052602052602060406024601c600073a193e42526f1fea8c99af609dceabf30c1c29faa7f00000000000000000000000000000000fffffffffffffffffffffffffffffffff1506040518383836000908160000152908160200152908160400152509350505050906101000a900473ffffffffffffffffffffffffffffffffffffffff169080600101600090600080604001519080602001519080600001519050836320966208600052602052602060406024601c600073a193e42526f1fea8c99af609dceabf30c1c29faa7f00000000000000000000000000000000fffffffffffffffffffffffffffffffff1506040518383836000908160000152908160200152908160400152509350505050906101000a900473ffffffffffffffffffffffffffffffffffffffff169080600201600080604001519080602001519080600001519050836320966208600052602052602060406024601c600073a193e42526f1fea8c99af609dceabf30c1c29faa7f00000000000000000000000000000000fffffffffffffffffffffffffffffffff15060405183838360009081600001529081602001529081604001525093505050509080600301600080604001519080602001519080600001519050836320966208600052602052602060406024601c600073a193e42526f1fea8c99af609dceabf30c1c29faa7f00000000000000000000000000000000fffffffffffffffffffffffffffffffff15060405183838360009081600001529081602001529081604001525093505050509080600401600080604001519080602001519080600001519050836320966208600052602052602060406024601c600073a193e42526f1fea8c99af609dceabf30c1c29faa7f00000000000000000000000000000000fffffffffffffffffffffffffffffffff15060405183838360009081600001529081602001529081604001525093505050509080600501600080604001519080602001519080600001519050836320966208600052602052602060406024601c600073a193e42526f1fea8c99af609dceabf30c1c29faa7f00000000000000000000000000000000fffffffffffffffffffffffffffffffff15060405183838360009081600001529081602001529081604001525093505050509080600601600080604001519080602001519080600001519050836320966208600052602052602060406024601c600073a193e42526f1fea8c99af609dceabf30c1c29faa7f00000000000000000000000000000000fffffffffffffffffffffffffffffffff15060405183838360009081600001529081602001529081604001525093505050509080600701600080604001519080602001519080600001519050836320966208600052602052602060406024601c600073a193e42526f1fea8c99af609dceabf30c1c29faa7f00000000000000000000000000000000fffffffffffffffffffffffffffffffff150604051838383600090816000015290816020015290816040015250935050505090508861660f565b6111016000806020015190806000015190506373509064600052602060206004601c600073a193e42526f1fea8c99af609dceabf30c1c29faa7f00000000000000000000000000000000fffffffffffffffffffffffffffffffff150602051828260009081600001529081602001525091505034611b6261660f565b61660f565b60006111106000806020015190806000015190506373509064600052602060206004601c600073a193e42526f1fea8c99af609dceabf30c1c29faa7f00000000000000000000000000000000fffffffffffffffffffffffffffffffff1506020518282600090816000015290816020015250915050848461154d61660f565b600190509291505061660f565b600060008060200151908060000151905063996d79a5600052602060206004601c600073a193e42526f1fea8c99af609dceabf30c1c29faa7f00000000000000000000000000000000fffffffffffffffffffffffffffffffff150602051828260009081600001529081602001525091505082600001518360200151846040015160405160200161113f949392919061271661660f565b60405160208183030381529060405280519060200120905091905061660f565b600060076000838152602001908152602001600020905060008060200151908060000151905063bdbf8c36600052602060206004601c600073a193e42526f1fea8c99af609dceabf30c1c29faa7f00000000000000000000000000000000fffffffffffffffffffffffffffffffff150602051828260009081600001529081602001525091505081600701600080604001519080602001519080600001519050836320966208600052602052602060406024601c600073a193e42526f1fea8c99af609dceabf30c1c29faa7f00000000000000000000000000000000fffffffffffffffffffffffffffffffff1506040518383836000908160000152908160200152908160400152509350505050106111b99061660f57506040517f08c379a00000000000000000000000000000000000000000000000000000000081526004016111b0906129b961660f565b60405180910390fd5b6000801b81600401600080604001519080602001519080600001519050836320966208600052602052602060406024601c600073a193e42526f1fea8c99af609dceabf30c1c29faa7f00000000000000000000000000000000fffffffffffffffffffffffffffffffff150604051838383600090816000015290816020015290816040015250935050505014806111d49061660f5750506000801b81600501600080604001519080602001519080600001519050836320966208600052602052602060406024601c600073a193e42526f1fea8c99af609dceabf30c1c29faa7f00000000000000000000000000000000fffffffffffffffffffffffffffffffff1506040518383836000908160000152908160200152908160400152509350505050145b6111dd9061660f5750600080fd5b6000801b81600401600080604001519080602001519080600001519050836320966208600052602052602060406024601c600073a193e42526f1fea8c99af609dceabf30c1c29faa7f00000000000000000000000000000000fffffffffffffffffffffffffffffffff1506040518383836000908160000152908160200152908160400152509350505050146112229061660f575061121d81600001600090600080604001519080602001519080600001519050836320966208600052602052602060406024601c600073a193e42526f1fea8c99af609dceabf30c1c29faa7f00000000000000000000000000000000fffffffffffffffffffffffffffffffff1506040518383836000908160000152908160200152908160400152509350505050906101000a900473ffffffffffffffffffffffffffffffffffffffff1682600601600080604001519080602001519080600001519050836320966208600052602052602060406024601c600073a193e42526f1fea8c99af609dceabf30c1c29faa7f00000000000000000000000000000000fffffffffffffffffffffffffffffffff1506040518383836000908160000152908160200152908160400152509350505050611b5361660f565b6112e161660f565b6000801b81600501600080604001519080602001519080600001519050836320966208600052602052602060406024601c600073a193e42526f1fea8c99af609dceabf30c1c29faa7f00000000000000000000000000000000fffffffffffffffffffffffffffffffff1506040518383836000908160000152908160200152908160400152509350505050146112679061660f575061126281600101600090600080604001519080602001519080600001519050836320966208600052602052602060406024601c600073a193e42526f1fea8c99af609dceabf30c1c29faa7f00000000000000000000000000000000fffffffffffffffffffffffffffffffff1506040518383836000908160000152908160200152908160400152509350505050906101000a900473ffffffffffffffffffffffffffffffffffffffff1682600601600080604001519080602001519080600001519050836320966208600052602052602060406024601c600073a193e42526f1fea8c99af609dceabf30c1c29faa7f00000000000000000000000000000000fffffffffffffffffffffffffffffffff1506040518383836000908160000152908160200152908160400152509350505050611b5361660f565b6112e061660f565b6112a381600001600090600080604001519080602001519080600001519050836320966208600052602052602060406024601c600073a193e42526f1fea8c99af609dceabf30c1c29faa7f00000000000000000000000000000000fffffffffffffffffffffffffffffffff1506040518383836000908160000152908160200152908160400152509350505050906101000a900473ffffffffffffffffffffffffffffffffffffffff16600283600601600080604001519080602001519080600001519050836320966208600052602052602060406024601c600073a193e42526f1fea8c99af609dceabf30c1c29faa7f00000000000000000000000000000000fffffffffffffffffffffffffffffffff15060405183838360009081600001529081602001529081604001525093505050508161129d9061660f5750fe5b04611b5361660f565b6112df81600101600090600080604001519080602001519080600001519050836320966208600052602052602060406024601c600073a193e42526f1fea8c99af609dceabf30c1c29faa7f00000000000000000000000000000000fffffffffffffffffffffffffffffffff1506040518383836000908160000152908160200152908160400152509350505050906101000a900473ffffffffffffffffffffffffffffffffffffffff16600283600601600080604001519080602001519080600001519050836320966208600052602052602060406024601c600073a193e42526f1fea8c99af609dceabf30c1c29faa7f00000000000000000000000000000000fffffffffffffffffffffffffffffffff1506040518383836000908160000152908160200152908160400152509350505050816112d99061660f5750fe5b04611b5361660f565b5b5b600081600601819060008060600151908060400151908060200151908060000151905085856328dcb2a0600052602052604052602060606044601c600073a193e42526f1fea8c99af609dceabf30c1c29faa7f00000000000000000000000000000000fffffffffffffffffffffffffffffffff15060605184848484600090816000015290816020015290816040015290816060015250955050505050505050505061660f565b6112f96000806020015190806000015190506373509064600052602060206004601c600073a193e42526f1fea8c99af609dceabf30c1c29faa7f00000000000000000000000000000000fffffffffffffffffffffffffffffffff150602051828260009081600001529081602001525091505034611b6261660f565b61660f565b6000600160008473ffffffffffffffffffffffffffffffffffffffff1673ffffffffffffffffffffffffffffffffffffffff16815260200190815260200160002060008373ffffffffffffffffffffffffffffffffffffffff1673ffffffffffffffffffffffffffffffffffffffff168152602001908152602001600020600080604001519080602001519080600001519050836320966208600052602052602060406024601c600073a193e42526f1fea8c99af609dceabf30c1c29faa7f00000000000000000000000000000000fffffffffffffffffffffffffffffffff150604051838383600090816000015290816020015290816040015250935050505090509291505061660f565b600073ffffffffffffffffffffffffffffffffffffffff168373ffffffffffffffffffffffffffffffffffffffff1614156113f29061660f57506040517f08c379a00000000000000000000000000000000000000000000000000000000081526004016113e990612b1961660f565b60405180910390fd5b600073ffffffffffffffffffffffffffffffffffffffff168273ffffffffffffffffffffffffffffffffffffffff1614156114629061660f57506040517f08c379a0000000000000000000000000000000000000000000000000000000008152600401611459906129d961660f565b60405180910390fd5b80600160008573ffffffffffffffffffffffffffffffffffffffff1673ffffffffffffffffffffffffffffffffffffffff16815260200190815260200160002060008473ffffffffffffffffffffffffffffffffffffffff1673ffffffffffffffffffffffffffffffffffffffff168152602001908152602001600020819060008060600151908060400151908060200151908060000151905085856328dcb2a0600052602052604052602060606044601c600073a193e42526f1fea8c99af609dceabf30c1c29faa7f00000000000000000000000000000000fffffffffffffffffffffffffffffffff150606051848484846000908160000152908160200152908160400152908160600152509550505050505050508173ffffffffffffffffffffffffffffffffffffffff168373ffffffffffffffffffffffffffffffffffffffff167f8c5be1e5ebec7d5bd14f71427d1e84f3dd0314c0f7b2291e5b200ac8c7c3b925836040516115409190612b5961660f565b60405180910390a350505061660f565b600073ffffffffffffffffffffffffffffffffffffffff168373ffffffffffffffffffffffffffffffffffffffff1614156115bd9061660f57506040517f08c379a00000000000000000000000000000000000000000000000000000000081526004016115b490612a9961660f565b60405180910390fd5b600073ffffffffffffffffffffffffffffffffffffffff168273ffffffffffffffffffffffffffffffffffffffff16141561162d9061660f57506040517f08c379a00000000000000000000000000000000000000000000000000000000081526004016116249061295961660f565b60405180910390fd5b61169881604051806060016040528060268152602001620065b7602691396000808773ffffffffffffffffffffffffffffffffffffffff1673ffffffffffffffffffffffffffffffffffffffff168152602001908152602001600020600080604001519080602001519080600001519050836320966208600052602052602060406024601c600073a193e42526f1fea8c99af609dceabf30c1c29faa7f00000000000000000000000000000000fffffffffffffffffffffffffffffffff15060405183838360009081600001529081602001529081604001525093505050506117d79092919063ffffffff1661660f565b6000808573ffffffffffffffffffffffffffffffffffffffff1673ffffffffffffffffffffffffffffffffffffffff168152602001908152602001600020819060008060600151908060400151908060200151908060000151905085856328dcb2a0600052602052604052602060606044601c600073a193e42526f1fea8c99af609dceabf30c1c29faa7f00000000000000000000000000000000fffffffffffffffffffffffffffffffff1506060518484848460009081600001529081602001529081604001529081606001525095505050505050505061172b816000808573ffffffffffffffffffffffffffffffffffffffff1673ffffffffffffffffffffffffffffffffffffffff168152602001908152602001600020600080604001519080602001519080600001519050836320966208600052602052602060406024601c600073a193e42526f1fea8c99af609dceabf30c1c29faa7f00000000000000000000000000000000fffffffffffffffffffffffffffffffff1506040518383836000908160000152908160200152908160400152509350505050611cea90919063ffffffff1661660f565b6000808473ffffffffffffffffffffffffffffffffffffffff1673ffffffffffffffffffffffffffffffffffffffff168152602001908152602001600020819060008060600151908060400151908060200151908060000151905085856328dcb2a0600052602052604052602060606044601c600073a193e42526f1fea8c99af609dceabf30c1c29faa7f00000000000000000000000000000000fffffffffffffffffffffffffffffffff150606051848484846000908160000152908160200152908160400152908160600152509550505050505050508173ffffffffffffffffffffffffffffffffffffffff168373ffffffffffffffffffffffffffffffffffffffff167fddf252ad1be2c89b69c2b068fc378daa952ba7f163c4a11628f55a4df523b3ef836040516117ca9190612b5961660f565b60405180910390a350505061660f565b600083831115829061181f9061660f57506040517f08c379a0000000000000000000000000000000000000000000000000000000008152600401611816919061293761660f565b60405180910390fd5b506000838503905080915050939250505061660f565b600073ffffffffffffffffffffffffffffffffffffffff168273ffffffffffffffffffffffffffffffffffffffff1614156118a29061660f57506040517f08c379a000000000000000000000000000000000000000000000000000000000815260040161189990612a7961660f565b60405180910390fd5b61190d8160405180606001604052806022815260200162006595602291396000808673ffffffffffffffffffffffffffffffffffffffff1673ffffffffffffffffffffffffffffffffffffffff168152602001908152602001600020600080604001519080602001519080600001519050836320966208600052602052602060406024601c600073a193e42526f1fea8c99af609dceabf30c1c29faa7f00000000000000000000000000000000fffffffffffffffffffffffffffffffff15060405183838360009081600001529081602001529081604001525093505050506117d79092919063ffffffff1661660f565b6000808473ffffffffffffffffffffffffffffffffffffffff1673ffffffffffffffffffffffffffffffffffffffff168152602001908152602001600020819060008060600151908060400151908060200151908060000151905085856328dcb2a0600052602052604052602060606044601c600073a193e42526f1fea8c99af609dceabf30c1c29faa7f00000000000000000000000000000000fffffffffffffffffffffffffffffffff15060605184848484600090816000015290816020015290816040015290816060015250955050505050505050611964816002600080604001519080602001519080600001519050836320966208600052602052602060406024601c600073a193e42526f1fea8c99af609dceabf30c1c29faa7f00000000000000000000000000000000fffffffffffffffffffffffffffffffff1506040518383836000908160000152908160200152908160400152509350505050611d3490919063ffffffff1661660f565b6002819060008060600151908060400151908060200151908060000151905085856328dcb2a0600052602052604052602060606044601c600073a193e42526f1fea8c99af609dceabf30c1c29faa7f00000000000000000000000000000000fffffffffffffffffffffffffffffffff15060605184848484600090816000015290816020015290816040015290816060015250955050505050505050600073ffffffffffffffffffffffffffffffffffffffff168273ffffffffffffffffffffffffffffffffffffffff167fddf252ad1be2c89b69c2b068fc378daa952ba7f163c4a11628f55a4df523b3ef836040516119c89190612b5961660f565b60405180910390a3505061660f565b6000816040516020016119e791906127e861660f565b60405160208183030381529060405280519060200120905091905061660f565b600080600080604185511415611a319061660f57506020850151925060408501519150606085015160001a9050611ab961660f565b604085511415611a7d9061660f5750602085015192507f7fffffffffffffffffffffffffffffffffffffffffffffffffffffffffffffff6040860151169150604085015160001a60071c9050611ab861660f565b6040517f08c379a0000000000000000000000000000000000000000000000000000000008152600401611aaf90612ab961660f565b60405180910390fd5b5b601b8160ff161015611acc9061660f5750601b810190505b601b8160ff161480611ae19061660f575050601c8160ff16145b611aea9061660f5750600080fd5b60018682858560405160008152602001604052604051611b0d94939291906128f261660f565b6020604051602081039080840390855a60408303806020015190806000015190888888888863fbb0f79d8690816000015290816020015250602490039060240190600073a193e42526f1fea8c99af609dceabf30c1c29faa89f19850908160000152908160200152505050505050158015611b2f9061660f57503d6000803e3d6000fd5b5050506020604051035193505050509291505061660f565b611b4f8260008060200151908060000151905063996d79a5600052602060206004601c600073a193e42526f1fea8c99af609dceabf30c1c29faa7f00000000000000000000000000000000fffffffffffffffffffffffffffffffff15060205182826000908160000152908160200152509150508361154d61660f565b505061660f565b611b5e60008060200151908060000151905063996d79a5600052602060206004601c600073a193e42526f1fea8c99af609dceabf30c1c29faa7f00000000000000000000000000000000fffffffffffffffffffffffffffffffff1506020518282600090816000015290816020015250915050838361154d61660f565b505061660f565b600073ffffffffffffffffffffffffffffffffffffffff168273ffffffffffffffffffffffffffffffffffffffff161415611bd29061660f57506040517f08c379a0000000000000000000000000000000000000000000000000000000008152600401611bc990612b3961660f565b60405180910390fd5b611be7816002600080604001519080602001519080600001519050836320966208600052602052602060406024601c600073a193e42526f1fea8c99af609dceabf30c1c29faa7f00000000000000000000000000000000fffffffffffffffffffffffffffffffff1506040518383836000908160000152908160200152908160400152509350505050611cea90919063ffffffff1661660f565b6002819060008060600151908060400151908060200151908060000151905085856328dcb2a0600052602052604052602060606044601c600073a193e42526f1fea8c99af609dceabf30c1c29faa7f00000000000000000000000000000000fffffffffffffffffffffffffffffffff15060605184848484600090816000015290816020015290816040015290816060015250955050505050505050611c3e816000808573ffffffffffffffffffffffffffffffffffffffff1673ffffffffffffffffffffffffffffffffffffffff168152602001908152602001600020600080604001519080602001519080600001519050836320966208600052602052602060406024601c600073a193e42526f1fea8c99af609dceabf30c1c29faa7f00000000000000000000000000000000fffffffffffffffffffffffffffffffff1506040518383836000908160000152908160200152908160400152509350505050611cea90919063ffffffff1661660f565b6000808473ffffffffffffffffffffffffffffffffffffffff1673ffffffffffffffffffffffffffffffffffffffff168152602001908152602001600020819060008060600151908060400151908060200151908060000151905085856328dcb2a0600052602052604052602060606044601c600073a193e42526f1fea8c99af609dceabf30c1c29faa7f00000000000000000000000000000000fffffffffffffffffffffffffffffffff150606051848484846000908160000152908160200152908160400152908160600152509550505050505050508173ffffffffffffffffffffffffffffffffffffffff16600073ffffffffffffffffffffffffffffffffffffffff167fddf252ad1be2c89b69c2b068fc378daa952ba7f163c4a11628f55a4df523b3ef83604051611cde9190612b5961660f565b60405180910390a3505061660f565b6000611d2c83836040518060400160405280601b81526020017f536166654d6174683a206164646974696f6e206f766572666c6f770000000000815250611d7e61660f565b90509291505061660f565b6000611d7683836040518060400160405280601e81526020017f536166654d6174683a207375627472616374696f6e206f766572666c6f7700008152506117d761660f565b90509291505061660f565b6000808385019050848110158390611dcc9061660f57506040517f08c379a0000000000000000000000000000000000000000000000000000000008152600401611dc3919061293761660f565b60405180910390fd5b5080915050939250505061660f565b600081359050611de781612d1161660f565b9291505061660f565b600081359050611dfc81612d2861660f565b9291505061660f565b600082601f830112611e139061660f5750600080fd5b8135611e26611e2182612bbc61660f565b612b8f61660f565b91508082526020830160208301858383011115611e429061660f5750600080fd5b611e4d838284612c7961660f565b5050509291505061660f565b600060808284031215611e689061660f5750600080fd5b611e726080612b8f61660f565b90506000611e8284828501611dd861660f565b6000830152506020611e9684828501611ded61660f565b6020830152506040611eaa84828501611ee261660f565b604083015250606082013567ffffffffffffffff811115611eca9061660f5750600080fd5b611ed684828501611e0261660f565b6060830152509291505061660f565b600081359050611ef181612d3f61660f565b9291505061660f565b600060208284031215611f099061660f5750600080fd5b6000611f1784828501611dd861660f565b9150509291505061660f565b60008060408385031215611f339061660f5750600080fd5b6000611f4185828601611dd861660f565b9250506020611f5285828601611dd861660f565b915050925092905061660f565b600080600060608486031215611f719061660f5750600080fd5b6000611f7f86828701611dd861660f565b9350506020611f9086828701611dd861660f565b9250506040611fa186828701611ee261660f565b915050925092509261660f565b60008060408385031215611fbe9061660f5750600080fd5b6000611fcc85828601611dd861660f565b9250506020611fdd85828601611ee261660f565b915050925092905061660f565b600060208284031215611ff99061660f5750600080fd5b600061200784828501611ded61660f565b9150509291505061660f565b6000806000606084860312156120259061660f5750600080fd5b600061203386828701611ded61660f565b935050602061204486828701611dd861660f565b925050604061205586828701611ded61660f565b915050925092509261660f565b6000602082840312156120719061660f5750600080fd5b600082013567ffffffffffffffff81111561208b9061660f5750600080fd5b61209784828501611e5661660f565b9150509291505061660f565b600080604083850312156120b39061660f5750600080fd5b600083013567ffffffffffffffff8111156120cd9061660f5750600080fd5b6120d985828601611e5661660f565b925050602083013567ffffffffffffffff8111156120f69061660f5750600080fd5b61210285828601611e5661660f565b915050925092905061660f565b60006020828403121561211e9061660f5750600080fd5b600061212c84828501611ee261660f565b9150509291505061660f565b61213e81612c1a61660f565b8252505061660f565b61215561215082612c1a61660f565b612cbb61660f565b8252505061660f565b61216481612c2c61660f565b8252505061660f565b61217381612c3861660f565b8252505061660f565b61218a61218582612c3861660f565b612ccd61660f565b8252505061660f565b600061219b82612be861660f565b6121a58185612bfe61660f565b93506121b5818560208601612c8861660f565b6121be81612cf361660f565b84019150509291505061660f565b60006121d6602383612bfe61660f565b91507f45524332303a207472616e7366657220746f20746865207a65726f206164647260008301527f6573730000000000000000000000000000000000000000000000000000000000602083015260408201905091905061660f565b600061223c600c83612bfe61660f565b91507f67616d65206973206f7665720000000000000000000000000000000000000000600083015260208201905091905061660f565b600061227c601c83612c0f61660f565b91507f19457468657265756d205369676e6564204d6573736167653a0a3332000000006000830152601c8201905091905061660f565b60006122bc601d83612bfe61660f565b91507f696e76616c6964207369676e617475726520666f7220706c6179657232000000600083015260208201905091905061660f565b60006122fc601083612bfe61660f565b91507f67616d65206973207374696c6c206f6e00000000000000000000000000000000600083015260208201905091905061660f565b600061233c602283612bfe61660f565b91507f45524332303a20617070726f766520746f20746865207a65726f20616464726560008301527f7373000000000000000000000000000000000000000000000000000000000000602083015260408201905091905061660f565b60006123a2601d83612bfe61660f565b91507f696e76616c6964207369676e617475726520666f7220706c6179657231000000600083015260208201905091905061660f565b60006123e2601a83612bfe61660f565b91507f696e76616c69642073656372657420666f7220706c6179657231000000000000600083015260208201905091905061660f565b6000612422600e83612bfe61660f565b91507f696e76616c696420706c61796572000000000000000000000000000000000000600083015260208201905091905061660f565b6000612462601a83612bfe61660f565b91507f696e76616c69642073656372657420666f7220706c6179657232000000000000600083015260208201905091905061660f565b60006124a2602183612bfe61660f565b91507f45524332303a206275726e2066726f6d20746865207a65726f2061646472657360008301527f7300000000000000000000000000000000000000000000000000000000000000602083015260408201905091905061660f565b6000612508602583612bfe61660f565b91507f45524332303a207472616e736665722066726f6d20746865207a65726f20616460008301527f6472657373000000000000000000000000000000000000000000000000000000602083015260408201905091905061660f565b600061256e601883612bfe61660f565b91507f696e76616c69642d7369676e61747572652d666f726d61740000000000000000600083015260208201905091905061660f565b60006125ae600083612bf361660f565b915060008201905091905061660f565b60006125c8601e83612bfe61660f565b91507f6f7264657220616c7265616479207573656420666f7220706c61796572310000600083015260208201905091905061660f565b6000612608601e83612bfe61660f565b91507f6f7264657220616c7265616479207573656420666f7220706c61796572320000600083015260208201905091905061660f565b6000612648602483612bfe61660f565b91507f45524332303a20617070726f76652066726f6d20746865207a65726f2061646460008301527f7265737300000000000000000000000000000000000000000000000000000000602083015260408201905091905061660f565b60006126ae601f83612bfe61660f565b91507f45524332303a206d696e7420746f20746865207a65726f206164647265737300600083015260208201905091905061660f565b6126ea81612c6261660f565b8252505061660f565b6127016126fc82612c6261660f565b612ce961660f565b8252505061660f565b61271081612c6c61660f565b8252505061660f565b6000612722828761214461660f565b601482019150612732828661214461660f565b601482019150612742828561217961660f565b60208201915061275282846126f061660f565b6020820191508190509594505050505061660f565b6000612770828661214461660f565b601482019150612780828561217961660f565b602082019150612790828461217961660f565b60208201915081905094935050505061660f565b60006127ad828461217961660f565b6020820191508190509291505061660f565b60006127c8828561217961660f565b6020820191506127d8828461217961660f565b602082019150819050939250505061660f565b60006127f38261226f61660f565b91506127ff828461217961660f565b6020820191508190509291505061660f565b6000612819826125a161660f565b915081905091905061660f565b6000602082019050612838600083018461213561660f565b9291505061660f565b600061010082019050612854600083018b61213561660f565b612861602083018a61213561660f565b61286e604083018961216a61660f565b61287b606083018861216a61660f565b612888608083018761216a61660f565b61289560a083018661216a61660f565b6128a260c08301856126e161660f565b6128af60e08301846126e161660f565b999850505050505050505061660f565b60006020820190506128d1600083018461215b61660f565b9291505061660f565b60006020820190506128ec600083018461216a61660f565b9291505061660f565b6000608082019050612907600083018761216a61660f565b612914602083018661270761660f565b612921604083018561216a61660f565b61292e606083018461216a61660f565b9594505050505061660f565b60006020820190508181036000830152612951818461219061660f565b90509291505061660f565b60006020820190508181036000830152612972816121c961660f565b905091905061660f565b600060208201905081810360008301526129928161222f61660f565b905091905061660f565b600060208201905081810360008301526129b2816122af61660f565b905091905061660f565b600060208201905081810360008301526129d2816122ef61660f565b905091905061660f565b600060208201905081810360008301526129f28161232f61660f565b905091905061660f565b60006020820190508181036000830152612a128161239561660f565b905091905061660f565b60006020820190508181036000830152612a32816123d561660f565b905091905061660f565b60006020820190508181036000830152612a528161241561660f565b905091905061660f565b60006020820190508181036000830152612a728161245561660f565b905091905061660f565b60006020820190508181036000830152612a928161249561660f565b905091905061660f565b60006020820190508181036000830152612ab2816124fb61660f565b905091905061660f565b60006020820190508181036000830152612ad28161256161660f565b905091905061660f565b60006020820190508181036000830152612af2816125bb61660f565b905091905061660f565b60006020820190508181036000830152612b12816125fb61660f565b905091905061660f565b60006020820190508181036000830152612b328161263b61660f565b905091905061660f565b60006020820190508181036000830152612b52816126a161660f565b905091905061660f565b6000602082019050612b6e60008301846126e161660f565b9291505061660f565b6000602082019050612b89600083018461270761660f565b9291505061660f565b6000604051905081810181811067ffffffffffffffff82111715612bb29061660f5750600080fd5b806040525091905061660f565b600067ffffffffffffffff821115612bd39061660f5750600080fd5b601f19601f830116905060208101905091905061660f565b60008151905091905061660f565b60008190509291505061660f565b60008282526020820190509291505061660f565b60008190509291505061660f565b6000612c2582612c4261660f565b905091905061660f565b6000811515905091905061660f565b600081905091905061660f565b600073ffffffffffffffffffffffffffffffffffffffff8216905091905061660f565b600081905091905061660f565b600060ff8216905091905061660f565b8281833760008383015250505061660f565b60005b83811015612ca69061660f57508082015181840152602081019050612c8b61660f565b83811115612cb59061660f57506000848401525b5050505061660f565b6000612cc682612cd761660f565b905091905061660f565b600081905091905061660f565b6000612ce282612d0461660f565b905091905061660f565b600081905091905061660f565b6000601f19601f830116905091905061660f565b60008160601b905091905061660f565b612d1a81612c1a61660f565b8114612d259061660f5750600080fd5b5061660f565b612d3181612c3861660f565b8114612d3c9061660f5750600080fd5b5061660f565b612d4881612c6261660f565b8114612d539061660f5750600080fd5b5061660f56fe45524332303a206275726e20616d6f756e7420657863656564732062616c616e636545524332303a207472616e7366657220616d6f756e7420657863656564732062616c616e636545524332303a207472616e7366657220616d6f756e74206578636565647320616c6c6f77616e63650000000000005b9050565b80611dcc14615324906200660b575080611dcc1062007881578061096e1461157a906200660b57508061096e1062006f5e57806103691461047a906200660b5750806103691062006ad95780610227146102e8906200660b57508061022710620068a3578061018d14610227906200660b57508061018d10620067a2578061013b146101c2906200660b57508061013b106200672e578061011414610190906200660b57508061011410620066f3578060a01460e7906200660b57508060a010620066e35780606414608f906200660b5750005b8060e71461014f906200660b5750005b80610125146101a6906200660b575080610125106200671d578061011914610195906200660b5750005b8061012e146101b2906200660b5750005b8061016b146101fd906200660b57508061016b10620067825780610150146101dc906200660b57508061015010620067715780610144146101cb906200660b5750005b80610166146101f5906200660b5750005b8061018114610216906200660b5750806101781461020d906200660b5750005b806101e01461028e906200660b5750806101e0106200682f57806101b81461025d906200660b5750806101b8106200680f57806101a314610243906200660b5750806101a310620067fe578061019614610233906200660b5750005b806101ac1461024c906200660b5750005b806101d31461027e906200660b5750806101ce14610276906200660b5750005b80610210146102c9906200660b575080610210106200688357806101f5146102a8906200660b5750806101f5106200687257806101e914610297906200660b5750005b8061020b146102c1906200660b5750005b8061021e146102dc906200660b575080610212146102cb906200660b5750005b806102cc146103b4906200660b5750806102cc10620069d857806102881461035f906200660b5750806102881062006964578061025f1461032b906200660b57508061025f1062006929578061023d14610301906200660b57508061023d10620069185780610234146102f8906200660b5750005b8061024914610312906200660b5750005b8061026614610335906200660b5750806102661062006953578061026414610333906200660b5750005b8061027214610346906200660b5750005b806102b114610393906200660b5750806102b110620069b8578061028f14610369906200660b57508061028f10620069a7578061028d14610367906200660b5750005b8061029b1461037a906200660b5750005b806102c3146103ab906200660b5750806102b61461039b906200660b5750005b8061032b14610429906200660b57508061032b1062006a655780610300146103f6906200660b5750806103001062006a4557806102ee146103de906200660b5750806102ee1062006a3457806102d8146103c5906200660b5750005b806102f3146103e6906200660b5750005b8061031514610410906200660b575080610309146103ff906200660b5750005b8061034714610450906200660b5750806103471062006ab9578061033214610433906200660b5750806103321062006aa8578061033014610431906200660b5750005b8061033e14610444906200660b5750005b8061035d14610469906200660b57508061035414610460906200660b5750005b80610510146107f8906200660b5750806105101062006d28578061041c14610555906200660b57508061041c1062006c2757806103cd146104f2906200660b5750806103cd1062006bb357806103a1146104bb906200660b5750806103a11062006b7857806103841461049b906200660b5750806103841062006b67578061037f14610493906200660b5750005b80610398146104b2906200660b5750005b806103ab146104c8906200660b5750806103ab1062006ba257806103a9146104c6906200660b5750005b806103b7146104d9906200660b5750005b806103f414610524906200660b5750806103f41062006c0757806103df1461050a906200660b5750806103df1062006bf657806103d2146104fa906200660b5750005b806103e814610513906200660b5750005b8061040f14610545906200660b57508061040a1461053d906200660b5750005b806104581461059f906200660b5750806104581062006cb4578061044c14610590906200660b57508061044c1062006c9457806104311461056f906200660b5750806104311062006c8357806104251461055e906200660b5750005b8061044714610588906200660b5750005b806104561461059d906200660b57508061044e14610592906200660b5750005b8061048c146105e1906200660b57508061048c1062006d08578061047a146105c9906200660b57508061047a1062006cf75780610464146105b0906200660b5750005b8061047f146105d1906200660b5750005b80610502146107ea906200660b575080610495146105ea906200660b5750005b806106df14610e0a906200660b5750806106df1062006e5d578061061814610bee906200660b5750806106181062006de9578061054e14610935906200660b57508061054e1062006dae5780610537146108a9906200660b5750806105371062006d9d578061052d1461089c906200660b5750005b8061054414610928906200660b5750005b80610565146109d4906200660b5750806105651062006dd85780610558146109c4906200660b5750005b8061061314610be6906200660b5750005b8061069214610db5906200660b5750806106921062006e3d578061062d14610c78906200660b57508061062d1062006e2c578061062314610bfc906200660b5750005b8061065514610d12906200660b5750005b806106d614610e01906200660b57508061069714610dba906200660b5750005b8061081e146111de906200660b57508061081e1062006eea578061075a14611006906200660b57508061075a1062006eca57806106fc14610eaf906200660b5750806106fc1062006eb957806106e514610e13906200660b5750005b8061075114610ffd906200660b5750005b80610815146111d5906200660b5750806107c3146110f9906200660b5750005b8061091f1461148f906200660b57508061091f1062006f3e5780610864146112c0906200660b5750806108641062006f2d5780610857146112b0906200660b5750005b806108cd146113b3906200660b5750005b806109611461156a906200660b57508061092814611498906200660b5750005b806112df14613d89906200660b5750806112df10620073fc5780610e9d1461253b906200660b575080610e9d10620071c65780610b221461175e906200660b575080610b2210620070c557806109e714611607906200660b5750806109e7106200705157806109b0146115c2906200660b5750806109b0106200701657806109a9146115b8906200660b5750806109a9106200700557806109a0146115af906200660b5750005b806109aa146115b9906200660b5750005b806109d2146115ec906200660b5750806109d2106200704057806109c4146115db906200660b5750005b806109d7146115f4906200660b5750005b80610a9a146116cb906200660b575080610a9a10620070a55780610a0314611629906200660b575080610a03106200709457806109ec1461160f906200660b5750005b80610a321461165b906200660b5750005b80610aba146116ee906200660b575080610aa3146116d4906200660b5750005b80610c1114611967906200660b575080610c1110620071525780610ba714611873906200660b575080610ba710620071325780610b3d1461177c906200660b575080610b3d10620071215780610b2b14611767906200660b5750005b80610b4f14611791906200660b5750005b80610c081461195e906200660b575080610bb01461187c906200660b5750005b80610e3f1461234a906200660b575080610e3f10620071a65780610de71461226a906200660b575080610de710620071955780610d9414612214906200660b5750005b80610df71461227d906200660b5750005b80610e941461252d906200660b575080610e5f146123ef906200660b5750005b8061111a1461340e906200660b57508061111a10620072fb578061104814612db5906200660b57508061104810620072875780610fb314612a6f906200660b575080610fb3106200724c5780610f3e146128ee906200660b575080610f3e106200723b5780610ee014612707906200660b5750005b80610f8d146129c7906200660b5750005b80610fcd14612ba7906200660b575080610fcd10620072765780610fbd14612afe906200660b5750005b8061103a14612da7906200660b5750005b806111011461337d906200660b57508061110110620072db578061106f14612e66906200660b57508061106f10620072ca578061106514612e59906200660b5750005b806110f714613301906200660b5750005b8061111014613401906200660b57508061110314613382906200660b5750005b8061121d1461391b906200660b57508061121d106200738857806111b91461361b906200660b5750806111b91062007368578061115c146134c5906200660b57508061115c1062007357578061113f146134a5906200660b5750005b806111b014613612906200660b5750005b806111dd1461374d906200660b5750806111d41461373f906200660b5750005b8061129d14613c38906200660b57508061129d10620073dc578061126214613af1906200660b57508061126210620073cb578061122214613923906200660b5750005b8061126714613af9906200660b5750005b806112d914613d80906200660b5750806112a314613c41906200660b5750005b806119d414614b5a906200660b5750806119d4106200764b57806116241461431d906200660b575080611624106200754a57806113f214614037906200660b5750806113f210620074d657806112f914613eae906200660b5750806112f9106200749b57806112e114613d8b906200660b5750806112e1106200748a57806112e014613d8a906200660b5750005b806112ef14613e32906200660b5750005b8061138214613fbf906200660b57508061138210620074c557806112fb14613eb3906200660b5750005b806113e91461402e906200660b5750005b8061154d14614236906200660b57508061154d106200752a5780611462146140af906200660b57508061146210620075195780611459146140a6906200660b5750005b8061154014614226906200660b5750005b806115bd146142ae906200660b5750806115b4146142a5906200660b5750005b8061181f1461475d906200660b57508061181f10620075d757806117ca146146fd906200660b5750806117ca10620075b7578061169814614417906200660b57508061169810620075a6578061162d14614326906200660b5750005b8061172b146145c5906200660b5750005b8061181614614754906200660b5750806117d71461470d906200660b5750005b8061190d146148dc906200660b57508061190d106200762b5780611899146147e2906200660b575080611899106200761a578061183214614773906200660b5750005b806118a2146147eb906200660b5750005b806119c814614b4b906200660b57508061196414614a4e906200660b5750005b80611b5314614dde906200660b575080611b5310620077805780611acc14614c70906200660b575080611acc106200770c5780611a7d14614c19906200660b575080611a7d10620076d15780611a0414614b90906200660b575080611a0410620076c057806119e714614b70906200660b5750005b80611a3114614bc5906200660b5750005b80611ab814614c57906200660b575080611ab810620076fb5780611aaf14614c4e906200660b5750005b80611ab914614c58906200660b5750005b80611b2f14614d42906200660b575080611b2f10620077605780611aea14614c98906200660b575080611aea106200774f5780611ae114614c8a906200660b5750005b80611b0d14614cbe906200660b5750005b80611b4f14614dd7906200660b575080611b4414614d5a906200660b5750005b80611cde1461521f906200660b575080611cde106200780d5780611bd214614eda906200660b575080611bd210620077ed5780611b6214614e62906200660b575080611b6210620077dc5780611b5e14614e5b906200660b5750005b80611bc914614ed1906200660b5750005b80611c3e146150e6906200660b575080611be714614f74906200660b5750005b80611d76146152c3906200660b575080611d7610620078615780611d2c14615273906200660b575080611d2c10620078505780611cea1461522e906200660b5750005b80611d341461527e906200660b5750005b80611dc31461531b906200660b575080611d7e146152ce906200660b5750005b8061270714615ddb906200660b57508061270710620081bd57806121351461575b906200660b5750806121351062007d385780611f711461552e906200660b575080611f711062007b025780611e9614615421906200660b575080611e961062007a015780611e2614615398906200660b575080611e26106200798d5780611dfc14615360906200660b575080611dfc10620079525780611de714615345906200660b575080611de710620079415780611dd814615333906200660b5750005b80611ded1461534e906200660b5750005b80611e131461537f906200660b575080611e13106200797c5780611e0214615369906200660b5750005b80611e2114615390906200660b5750005b80611e68146153ea906200660b575080611e6810620079e15780611e4d146153c7906200660b575080611e4d10620079d05780611e42146153b9906200660b5750005b80611e56146153d3906200660b5750005b80611e821461540a906200660b575080611e72146153f7906200660b5750005b80611f09146154ad906200660b575080611f091062007a8e5780611ee21461547b906200660b575080611ee21062007a6e5780611eca1461545d906200660b575080611eca1062007a5d5780611eaa14615438906200660b5750005b80611ed61461546c906200660b5750005b80611ef714615496906200660b575080611ef11461548d906200660b5750005b80611f41146154f3906200660b575080611f411062007ae25780611f20146154ca906200660b575080611f201062007ad15780611f17146154be906200660b5750005b80611f33146154e2906200660b5750005b80611f5c14615514906200660b575080611f5214615507906200660b5750005b8061205514615645906200660b5750806120551062007c375780611fe7146155be906200660b575080611fe71062007bc35780611fab14615574906200660b575080611fab1062007b885780611f9014615553906200660b575080611f901062007b775780611f7f1461553f906200660b5750005b80611fa114615567906200660b5750005b80611fcc1461559d906200660b575080611fcc1062007bb25780611fbe1461558c906200660b5750005b80611fdd146155b1906200660b5750005b806120251461560c906200660b5750806120251062007c175780612007146155e6906200660b5750806120071062007c065780611ff9146155d5906200660b5750005b80612010146155f2906200660b5750005b8061204414615631906200660b5750806120331461561d906200660b5750005b806120cd146156da906200660b5750806120cd1062007cc4578061209714615697906200660b5750806120971062007ca4578061207114615669906200660b5750806120711062007c93578061205f14615652906200660b5750005b8061208b14615688906200660b5750005b806120b3146156bb906200660b5750806120a0146156a3906200660b5750005b8061210c14615727906200660b57508061210c1062007d1857806120f61461570b906200660b5750806120f61062007d0757806120d9146156e9906200660b5750005b806121021461571a906200660b5750005b8061212c1461574f906200660b57508061211e1461573e906200660b5750005b8061239514615a12906200660b5750806123951062007f8757806121b514615808906200660b5750806121b51062007e865780612173146157b1906200660b5750806121731062007e12578061215514615787906200660b5750806121551062007dd7578061214414615770906200660b5750806121441062007dc6578061213e14615767906200660b5750005b806121501461577f906200660b5750005b806121641461579c906200660b5750806121641062007e01578061215b14615790906200660b5750005b8061216a146157a5906200660b5750005b80612190146157da906200660b5750806121901062007e665780612185146157c9906200660b5750806121851062007e555780612179146157ba906200660b5750005b8061218a146157d1906200660b5750005b806121a5146157f5906200660b57508061219b146157e8906200660b5750005b8061227c146158e4906200660b57508061227c1062007f13578061222f1461588e906200660b57508061222f1062007ef357806121c914615822906200660b5750806121c91062007ee257806121be14615814906200660b5750005b806121d614615832906200660b5750005b8061226f146158d4906200660b57508061223c1461589e906200660b5750005b806122fc14615970906200660b5750806122fc1062007f6757806122bc1461592a906200660b5750806122bc1062007f5657806122af1461591a906200660b5750005b806122ef14615960906200660b5750005b8061233c146159b6906200660b57508061232f146159a6906200660b5750005b806125ae14615c58906200660b5750806125ae10620080bc578061249514615b2a906200660b5750806124951062008048578061241514615a9e906200660b575080612415106200800d57806123d514615a58906200660b5750806123d51062007ffc57806123a214615a22906200660b5750005b806123e214615a68906200660b5750005b8061245514615ae4906200660b5750806124551062008037578061242214615aae906200660b5750005b8061246214615af4906200660b5750005b8061256114615c02906200660b575080612561106200809c57806124fb14615b96906200660b5750806124fb106200808b57806124a214615b3a906200660b5750005b8061250814615ba6906200660b5750005b806125a114615c48906200660b57508061256e14615c12906200660b5750005b806126a114615d60906200660b5750806126a11062008149578061260814615cbe906200660b575080612608106200812957806125c814615c78906200660b5750806125c8106200811857806125bb14615c68906200660b5750005b806125fb14615cae906200660b5750005b8061264814615d04906200660b57508061263b14615cf4906200660b5750005b806126f014615dbb906200660b5750806126f0106200819d57806126e114615da6906200660b5750806126e1106200818c57806126ae14615d70906200660b5750005b806126ea14615db2906200660b5750005b8061270114615dd2906200660b5750806126fc14615dca906200660b5750005b80612a52146161d4906200660b575080612a52106200865b578061289514615fc0906200660b575080612895106200842557806127d814615ed9906200660b5750806127d81062008324578061277014615e5c906200660b57508061277010620082b0578061273214615e12906200660b5750806127321062008275578061271614615df0906200660b5750806127161062008264578061271014615de7906200660b5750005b8061272214615dff906200660b5750005b8061275214615e38906200660b575080612752106200829f578061274214615e25906200660b5750005b8061276414615e4d906200660b5750005b806127ad14615ea5906200660b5750806127ad1062008304578061279014615e82906200660b57508061279010620082f3578061278014615e6f906200660b5750005b806127a114615e96906200660b5750005b806127c814615ec6906200660b5750806127bc14615eb7906200660b5750005b8061283814615f4e906200660b57508061283810620083b1578061280e14615f1b906200660b57508061280e106200839157806127f314615efa906200660b5750806127f3106200838057806127e814615eec906200660b5750005b806127ff14615f09906200660b5750005b8061282314615f36906200660b57508061281914615f29906200660b5750005b8061286e14615f90906200660b57508061286e1062008405578061285414615f70906200660b57508061285410620083f4578061283e14615f57906200660b5750005b8061286114615f80906200660b5750005b8061288814615fb0906200660b57508061287b14615fa0906200660b5750005b80612972146160ca906200660b575080612972106200855a57806129071461604a906200660b57508061290710620084e657806128d114616008906200660b5750806128d110620084ab57806128af14615fe0906200660b5750806128af106200849a57806128a214615fd0906200660b5750005b806128bc14615ff0906200660b5750005b806128ec14616029906200660b5750806128ec10620084d557806128d714616011906200660b5750005b806128f214616032906200660b5750005b8061293714616086906200660b575080612937106200853a57806129211461606a906200660b575080612921106200852957806129141461605a906200660b5750005b8061292e1461607a906200660b5750005b80612959146160ae906200660b575080612951146160a3906200660b5750005b806129d914616146906200660b5750806129d910620085e757806129b214616116906200660b5750806129b210620085c75780612992146160f0906200660b57508061299210620085b65780612979146160d4906200660b5750005b80612999146160fa906200660b5750005b806129d21461613c906200660b5750806129b914616120906200660b5750005b80612a1914616192906200660b575080612a19106200863b57806129f91461616c906200660b5750806129f9106200862a57806129f214616162906200660b5750005b80612a1214616188906200660b5750005b80612a39146161b8906200660b575080612a32146161ae906200660b5750005b80612c1a146163f7906200660b575080612c1a10620088aa5780612b39146162e8906200660b575080612b3910620087a95780612ad21461626c906200660b575080612ad210620087355780612a9214616220906200660b575080612a9210620086fa5780612a72146161fa906200660b575080612a7210620086e95780612a59146161de906200660b5750005b80612a7914616204906200660b5750005b80612ab214616246906200660b575080612ab210620087245780612a991461622a906200660b5750005b80612ab914616250906200660b5750005b80612b12146162b8906200660b575080612b1210620087895780612af214616292906200660b575080612af210620087785780612ad914616276906200660b5750005b80612af91461629c906200660b5750005b80612b32146162de906200660b575080612b19146162c2906200660b5750005b80612bb214616378906200660b575080612bb210620088365780612b741461632f906200660b575080612b7410620088165780612b591461630e906200660b575080612b5910620088055780612b5214616304906200660b5750005b80612b6e14616326906200660b5750005b80612b8f14616350906200660b575080612b8914616347906200660b5750005b80612bf3146163c7906200660b575080612bf3106200888a5780612bd3146163a1906200660b575080612bd310620088795780612bbc14616385906200660b5750005b80612be8146163b9906200660b5750005b80612c0f146163e9906200660b575080612bfe146163d5906200660b5750005b80612cd7146164e5906200660b575080612cd710620089df5780612c881461647d906200660b575080612c88106200896b5780612c421461642b906200660b575080612c4210620089305780612c2c1461640f906200660b575080612c2c106200891f5780612c2514616405906200660b5750005b80612c381461641e906200660b5750005b80612c6c1461645b906200660b575080612c6c106200895a5780612c621461644e906200660b5750005b80612c791461646b906200660b5750005b80612cbb146164c0906200660b575080612cbb10620089bf5780612ca6146164a3906200660b575080612ca610620089ae5780612c8b14616480906200660b5750005b80612cb5146164b7906200660b5750005b80612ccd146164d8906200660b575080612cc6146164ce906200660b5750005b80612d251461654a906200660b575080612d251062008a6c5780612d041461651e906200660b575080612d041062008a4c5780612ce9146164fd906200660b575080612ce91062008a3b5780612ce2146164f3906200660b5750005b80612cf31461650a906200660b5750005b80612d1a1461653a906200660b575080612d111461652e906200660b5750005b80612d3f14616572906200660b575080612d3f1062008ac05780612d311461655c906200660b575080612d311062008aaf5780612d2814616550906200660b5750005b80612d3c1461656c906200660b5750005b80612d531461658e906200660b575080612d481461657e906200660b575000"
}