{
  "abi": [
    {
      "inputs": [],
      "payable": false,
      "stateMutability": "nonpayable",
      "type": "constructor"
    },
    {
      "anonymous": false,
      "inputs": [
        {
          "indexed": true,
          "internalType": "address",
          "name": "owner",
          "type": "address"
        },
        {
          "indexed": true,
          "internalType": "address",
          "name": "spender",
          "type": "address"
        },
        {
          "indexed": false,
          "internalType": "uint256",
          "name": "value",
          "type": "uint256"
        }
      ],
      "name": "Approval",
      "type": "event"
    },
    {
      "anonymous": false,
      "inputs": [
        {
          "indexed": true,
          "internalType": "address",
          "name": "from",
          "type": "address"
        },
        {
          "indexed": true,
          "internalType": "address",
          "name": "to",
          "type": "address"
        },
        {
          "indexed": false,
          "internalType": "uint256",
          "name": "value",
          "type": "uint256"
        }
      ],
      "name": "Transfer",
      "type": "event"
    },
    {
      "constant": true,
      "inputs": [
        {
          "internalType": "address",
          "name": "owner",
          "type": "address"
        },
        {
          "internalType": "address",
          "name": "spender",
          "type": "address"
        }
      ],
      "name": "allowance",
      "outputs": [
        {
          "internalType": "uint256",
          "name": "",
          "type": "uint256"
        }
      ],
      "payable": false,
      "stateMutability": "view",
      "type": "function"
    },
    {
      "constant": false,
      "inputs": [
        {
          "internalType": "address",
          "name": "spender",
          "type": "address"
        },
        {
          "internalType": "uint256",
          "name": "amount",
          "type": "uint256"
        }
      ],
      "name": "approve",
      "outputs": [
        {
          "internalType": "bool",
          "name": "",
          "type": "bool"
        }
      ],
      "payable": false,
      "stateMutability": "nonpayable",
      "type": "function"
    },
    {
      "constant": true,
      "inputs": [
        {
          "internalType": "address",
          "name": "account",
          "type": "address"
        }
      ],
      "name": "balanceOf",
      "outputs": [
        {
          "internalType": "uint256",
          "name": "",
          "type": "uint256"
        }
      ],
      "payable": false,
      "stateMutability": "view",
      "type": "function"
    },
    {
      "constant": true,
      "inputs": [],
      "name": "decimals",
      "outputs": [
        {
          "internalType": "uint8",
          "name": "",
          "type": "uint8"
        }
      ],
      "payable": false,
      "stateMutability": "view",
      "type": "function"
    },
    {
      "constant": false,
      "inputs": [],
      "name": "deposit",
      "outputs": [],
      "payable": true,
      "stateMutability": "payable",
      "type": "function"
    },
    {
      "constant": true,
      "inputs": [],
      "name": "name",
      "outputs": [
        {
          "internalType": "string",
          "name": "",
          "type": "string"
        }
      ],
      "payable": false,
      "stateMutability": "view",
      "type": "function"
    },
    {
      "constant": false,
      "inputs": [],
      "name": "receive",
      "outputs": [],
      "payable": true,
      "stateMutability": "payable",
      "type": "function"
    },
    {
      "constant": true,
      "inputs": [],
      "name": "symbol",
      "outputs": [
        {
          "internalType": "string",
          "name": "",
          "type": "string"
        }
      ],
      "payable": false,
      "stateMutability": "view",
      "type": "function"
    },
    {
      "constant": true,
      "inputs": [],
      "name": "totalSupply",
      "outputs": [
        {
          "internalType": "uint256",
          "name": "",
          "type": "uint256"
        }
      ],
      "payable": false,
      "stateMutability": "view",
      "type": "function"
    },
    {
      "constant": false,
      "inputs": [
        {
          "internalType": "address",
          "name": "recipient",
          "type": "address"
        },
        {
          "internalType": "uint256",
          "name": "amount",
          "type": "uint256"
        }
      ],
      "name": "transfer",
      "outputs": [
        {
          "internalType": "bool",
          "name": "",
          "type": "bool"
        }
      ],
      "payable": false,
      "stateMutability": "nonpayable",
      "type": "function"
    },
    {
      "constant": false,
      "inputs": [
        {
          "internalType": "address",
          "name": "sender",
          "type": "address"
        },
        {
          "internalType": "address",
          "name": "recipient",
          "type": "address"
        },
        {
          "internalType": "uint256",
          "name": "amount",
          "type": "uint256"
        }
      ],
      "name": "transferFrom",
      "outputs": [
        {
          "internalType": "bool",
          "name": "",
          "type": "bool"
        }
      ],
      "payable": false,
      "stateMutability": "nonpayable",
      "type": "function"
    },
    {
      "constant": false,
      "inputs": [
        {
          "internalType": "uint256",
          "name": "amount",
          "type": "uint256"
        }
      ],
      "name": "withdraw",
      "outputs": [],
      "payable": false,
      "stateMutability": "nonpayable",
      "type": "function"
    }
  ],
  "devdoc": {
    "methods": {}
  },
  "evm": {
    "assembly": "    /* \"contracts/Escrow.sol\":84:736  contract Escrow is ERC20... */\n  mstore(0x40, 0x80)\n    /* \"contracts/Escrow.sol\":112:170  constructor()... */\n  callvalue\n    /* \"--CODEGEN--\":8:17   */\n  dup1\n    /* \"--CODEGEN--\":5:7   */\n  iszero\n  tag_1\n  jumpi\n    /* \"--CODEGEN--\":30:31   */\n  0x00\n    /* \"--CODEGEN--\":27:28   */\n  dup1\n    /* \"--CODEGEN--\":20:32   */\n  revert\n    /* \"--CODEGEN--\":5:7   */\ntag_1:\n    /* \"contracts/Escrow.sol\":112:170  constructor()... */\n  pop\n    /* \"contracts/Escrow.sol\":140:141  0 */\n  0x00\n    /* \"contracts/ERC20.sol\":415:658  constructor(uint256 initialsupply, string memory name, uint8 decimals, string memory symbol)... */\n  mload(0x40)\n  dup1\n  0x40\n  add\n  0x40\n  mstore\n  dup1\n  0x06\n  dup2\n  mstore\n  0x20\n  add\n  0x657363726f770000000000000000000000000000000000000000000000000000\n  dup2\n  mstore\n  pop\n    /* \"contracts/Escrow.sol\":153:155  18 */\n  0x12\n    /* \"contracts/ERC20.sol\":415:658  constructor(uint256 initialsupply, string memory name, uint8 decimals, string memory symbol)... */\n  mload(0x40)\n  dup1\n  0x40\n  add\n  0x40\n  mstore\n  dup1\n  0x06\n  dup2\n  mstore\n  0x20\n  add\n  0x657363726f770000000000000000000000000000000000000000000000000000\n  dup2\n  mstore\n  pop\n    /* \"contracts/ERC20.sol\":533:537  name */\n  dup3\n    /* \"contracts/ERC20.sol\":521:526  _name */\n  0x03\n    /* \"contracts/ERC20.sol\":521:537  _name     = name */\n  swap1\n  dup1\n  mload\n  swap1\n  0x20\n  add\n  swap1\n  tag_5\n  swap3\n  swap2\n  swap1\n  tag_6\n  jump\t// in\ntag_5:\n  pop\n    /* \"contracts/ERC20.sol\":553:559  symbol */\n  dup1\n    /* \"contracts/ERC20.sol\":541:548  _symbol */\n  0x04\n    /* \"contracts/ERC20.sol\":541:559  _symbol   = symbol */\n  swap1\n  dup1\n  mload\n  swap1\n  0x20\n  add\n  swap1\n  tag_7\n  swap3\n  swap2\n  swap1\n  tag_6\n  jump\t// in\ntag_7:\n  pop\n    /* \"contracts/ERC20.sol\":575:583  decimals */\n  dup2\n    /* \"contracts/ERC20.sol\":563:572  _decimals */\n  0x05\n  0x00\n    /* \"contracts/ERC20.sol\":563:583  _decimals = decimals */\n  0x0100\n  exp\n  dup2\n  sload\n  dup2\n  0xff\n  mul\n  not\n  and\n  swap1\n  dup4\n  0xff\n  and\n  mul\n  or\n  swap1\n  sstore\n  pop\n    /* \"contracts/ERC20.sol\":608:609  0 */\n  0x00\n    /* \"contracts/ERC20.sol\":592:605  initialsupply */\n  dup5\n    /* \"contracts/ERC20.sol\":592:609  initialsupply > 0 */\n  gt\n    /* \"contracts/ERC20.sol\":588:655  if (initialsupply > 0)... */\n  iszero\n  tag_8\n  jumpi\n    /* \"contracts/ERC20.sol\":618:650  _mint(msg.sender, initialsupply) */\n  tag_9\n    /* \"contracts/ERC20.sol\":624:634  msg.sender */\n  caller\n    /* \"contracts/ERC20.sol\":636:649  initialsupply */\n  dup6\n    /* \"contracts/ERC20.sol\":618:623  _mint */\n  shl(0x20, tag_10)\n    /* \"contracts/ERC20.sol\":618:650  _mint(msg.sender, initialsupply) */\n  0x20\n  shr\n  jump\t// in\ntag_9:\n    /* \"contracts/ERC20.sol\":588:655  if (initialsupply > 0)... */\ntag_8:\n    /* \"contracts/ERC20.sol\":415:658  constructor(uint256 initialsupply, string memory name, uint8 decimals, string memory symbol)... */\n  pop\n  pop\n  pop\n  pop\n    /* \"contracts/Escrow.sol\":84:736  contract Escrow is ERC20... */\n  jump(tag_12)\n    /* \"contracts/ERC20.sol\":2528:2811  function _mint(address account, uint256 amount)... */\ntag_10:\n    /* \"contracts/ERC20.sol\":2618:2619  0 */\n  0x00\n    /* \"contracts/ERC20.sol\":2599:2620  account != address(0) */\n  0xffffffffffffffffffffffffffffffffffffffff\n  and\n    /* \"contracts/ERC20.sol\":2599:2606  account */\n  dup3\n    /* \"contracts/ERC20.sol\":2599:2620  account != address(0) */\n  0xffffffffffffffffffffffffffffffffffffffff\n  and\n  eq\n  iszero\n    /* \"contracts/ERC20.sol\":2591:2656  require(account != address(0), \"ERC20: mint to the zero address\") */\n  tag_14\n  jumpi\n  mload(0x40)\n  0x08c379a000000000000000000000000000000000000000000000000000000000\n  dup2\n  mstore\n  0x04\n  add\n  tag_15\n  swap1\n  jump(tag_16)\ntag_15:\n  mload(0x40)\n  dup1\n  swap2\n  sub\n  swap1\n  revert\ntag_14:\n    /* \"contracts/ERC20.sol\":2682:2706  _totalSupply.add(amount) */\n  tag_17\n    /* \"contracts/ERC20.sol\":2699:2705  amount */\n  dup2\n    /* \"contracts/ERC20.sol\":2682:2694  _totalSupply */\n  sload(0x02)\n    /* \"contracts/ERC20.sol\":2682:2698  _totalSupply.add */\n  or(tag_0_127, shl(0x20, tag_18))\n  swap1\n    /* \"contracts/ERC20.sol\":2682:2706  _totalSupply.add(amount) */\n  swap2\n  swap1\n  0x20\n  shr\n  jump\t// in\ntag_17:\n    /* \"contracts/ERC20.sol\":2661:2673  _totalSupply */\n  0x02\n    /* \"contracts/ERC20.sol\":2661:2706  _totalSupply       = _totalSupply.add(amount) */\n  dup2\n  swap1\n  sstore\n  pop\n    /* \"contracts/ERC20.sol\":2731:2761  _balances[account].add(amount) */\n  tag_19\n    /* \"contracts/ERC20.sol\":2754:2760  amount */\n  dup2\n    /* \"contracts/ERC20.sol\":2731:2740  _balances */\n  0x00\n    /* \"contracts/ERC20.sol\":2731:2749  _balances[account] */\n  dup1\n    /* \"contracts/ERC20.sol\":2741:2748  account */\n  dup6\n    /* \"contracts/ERC20.sol\":2731:2749  _balances[account] */\n  0xffffffffffffffffffffffffffffffffffffffff\n  and\n  0xffffffffffffffffffffffffffffffffffffffff\n  and\n  dup2\n  mstore\n  0x20\n  add\n  swap1\n  dup2\n  mstore\n  0x20\n  add\n  0x00\n  keccak256\n  sload\n    /* \"contracts/ERC20.sol\":2731:2753  _balances[account].add */\n  or(tag_0_127, shl(0x20, tag_18))\n  swap1\n    /* \"contracts/ERC20.sol\":2731:2761  _balances[account].add(amount) */\n  swap2\n  swap1\n  0x20\n  shr\n  jump\t// in\ntag_19:\n    /* \"contracts/ERC20.sol\":2710:2719  _balances */\n  0x00\n    /* \"contracts/ERC20.sol\":2710:2728  _balances[account] */\n  dup1\n    /* \"contracts/ERC20.sol\":2720:2727  account */\n  dup5\n    /* \"contracts/ERC20.sol\":2710:2728  _balances[account] */\n  0xffffffffffffffffffffffffffffffffffffffff\n  and\n  0xffffffffffffffffffffffffffffffffffffffff\n  and\n  dup2\n  mstore\n  0x20\n  add\n  swap1\n  dup2\n  mstore\n  0x20\n  add\n  0x00\n  keccak256\n    /* \"contracts/ERC20.sol\":2710:2761  _balances[account] = _balances[account].add(amount) */\n  dup2\n  swap1\n  sstore\n  pop\n    /* \"contracts/ERC20.sol\":2791:2798  account */\n  dup2\n    /* \"contracts/ERC20.sol\":2770:2807  Transfer(address(0), account, amount) */\n  0xffffffffffffffffffffffffffffffffffffffff\n  and\n    /* \"contracts/ERC20.sol\":2787:2788  0 */\n  0x00\n    /* \"contracts/ERC20.sol\":2770:2807  Transfer(address(0), account, amount) */\n  0xffffffffffffffffffffffffffffffffffffffff\n  and\n  0xddf252ad1be2c89b69c2b068fc378daa952ba7f163c4a11628f55a4df523b3ef\n    /* \"contracts/ERC20.sol\":2800:2806  amount */\n  dup4\n    /* \"contracts/ERC20.sol\":2770:2807  Transfer(address(0), account, amount) */\n  mload(0x40)\n  tag_20\n  swap2\n  swap1\n  jump(tag_21)\ntag_20:\n  mload(0x40)\n  dup1\n  swap2\n  sub\n  swap1\n  log3\n    /* \"contracts/ERC20.sol\":2528:2811  function _mint(address account, uint256 amount)... */\n  pop\n  pop\n  jump\t// out\n    /* \"contracts/libs/SafeMath.sol\":798:923  function add(uint256 a, uint256 b) internal pure returns (uint256) { return add(a, b, \"SafeMath: addition overflow\");       } */\ntag_18:\n    /* \"contracts/libs/SafeMath.sol\":856:863  uint256 */\n  0x00\n    /* \"contracts/libs/SafeMath.sol\":874:914  add(a, b, \"SafeMath: addition overflow\") */\n  tag_23\n    /* \"contracts/libs/SafeMath.sol\":878:879  a */\n  dup4\n    /* \"contracts/libs/SafeMath.sol\":881:882  b */\n  dup4\n    /* \"contracts/libs/SafeMath.sol\":874:914  add(a, b, \"SafeMath: addition overflow\") */\n  mload(0x40)\n  dup1\n  0x40\n  add\n  0x40\n  mstore\n  dup1\n  0x1b\n  dup2\n  mstore\n  0x20\n  add\n  0x536166654d6174683a206164646974696f6e206f766572666c6f770000000000\n  dup2\n  mstore\n  pop\n    /* \"contracts/libs/SafeMath.sol\":874:877  add */\n  shl(0x20, tag_24)\n    /* \"contracts/libs/SafeMath.sol\":874:914  add(a, b, \"SafeMath: addition overflow\") */\n  0x20\n  shr\n  jump\t// in\ntag_23:\n    /* \"contracts/libs/SafeMath.sol\":867:914  return add(a, b, \"SafeMath: addition overflow\") */\n  swap1\n  pop\n    /* \"contracts/libs/SafeMath.sol\":798:923  function add(uint256 a, uint256 b) internal pure returns (uint256) { return add(a, b, \"SafeMath: addition overflow\");       } */\n  swap3\n  swap2\n  pop\n  pop\n  jump\t// out\n    /* \"contracts/libs/SafeMath.sol\":47:197  function add(uint256 a, uint256 b, string memory err)... */\ntag_24:\n    /* \"contracts/libs/SafeMath.sol\":125:132  uint256 */\n  0x00\n    /* \"contracts/libs/SafeMath.sol\":139:148  uint256 c */\n  dup1\n    /* \"contracts/libs/SafeMath.sol\":155:156  b */\n  dup4\n    /* \"contracts/libs/SafeMath.sol\":151:152  a */\n  dup6\n    /* \"contracts/libs/SafeMath.sol\":151:156  a + b */\n  add\n    /* \"contracts/libs/SafeMath.sol\":139:156  uint256 c = a + b */\n  swap1\n  pop\n    /* \"contracts/libs/SafeMath.sol\":173:174  a */\n  dup5\n    /* \"contracts/libs/SafeMath.sol\":168:169  c */\n  dup2\n    /* \"contracts/libs/SafeMath.sol\":168:174  c >= a */\n  lt\n  iszero\n    /* \"contracts/libs/SafeMath.sol\":176:179  err */\n  dup4\n    /* \"contracts/libs/SafeMath.sol\":160:180  require(c >= a, err) */\n  swap1\n  tag_26\n  jumpi\n  mload(0x40)\n  0x08c379a000000000000000000000000000000000000000000000000000000000\n  dup2\n  mstore\n  0x04\n  add\n  tag_27\n  swap2\n  swap1\n  jump(tag_28)\ntag_27:\n  mload(0x40)\n  dup1\n  swap2\n  sub\n  swap1\n  revert\ntag_26:\n  pop\n    /* \"contracts/libs/SafeMath.sol\":192:193  c */\n  dup1\n    /* \"contracts/libs/SafeMath.sol\":185:193  return c */\n  swap2\n  pop\n  pop\n    /* \"contracts/libs/SafeMath.sol\":47:197  function add(uint256 a, uint256 b, string memory err)... */\n  swap4\n  swap3\n  pop\n  pop\n  pop\n  jump\t// out\n    /* \"contracts/Escrow.sol\":84:736  contract Escrow is ERC20... */\ntag_6:\n  dup3\n  dup1\n  sload\n  0x01\n  dup2\n  0x01\n  and\n  iszero\n  0x0100\n  mul\n  sub\n  and\n  0x02\n  swap1\n  div\n  swap1\n  0x00\n  mstore\n  keccak256(0x00, 0x20)\n  swap1\n  0x1f\n  add\n  0x20\n  swap1\n  div\n  dup2\n  add\n  swap3\n  dup3\n  0x1f\n  lt\n  tag_30\n  jumpi\n  dup1\n  mload\n  not(0xff)\n  and\n  dup4\n  dup1\n  add\n  or\n  dup6\n  sstore\n  jump(tag_29)\ntag_30:\n  dup3\n  dup1\n  add\n  0x01\n  add\n  dup6\n  sstore\n  dup3\n  iszero\n  tag_29\n  jumpi\n  swap2\n  dup3\n  add\ntag_31:\n  dup3\n  dup2\n  gt\n  iszero\n  tag_32\n  jumpi\n  dup3\n  mload\n  dup3\n  sstore\n  swap2\n  0x20\n  add\n  swap2\n  swap1\n  0x01\n  add\n  swap1\n  jump(tag_31)\ntag_32:\ntag_29:\n  pop\n  swap1\n  pop\n  tag_33\n  swap2\n  swap1\n  tag_34\n  jump\t// in\ntag_33:\n  pop\n  swap1\n  jump\t// out\ntag_34:\n  tag_35\n  swap2\n  swap1\ntag_36:\n  dup1\n  dup3\n  gt\n  iszero\n  tag_37\n  jumpi\n  0x00\n  dup2\n  0x00\n  swap1\n  sstore\n  pop\n  0x01\n  add\n  jump(tag_36)\ntag_37:\n  pop\n  swap1\n  jump\ntag_35:\n  swap1\n  jump\t// out\n    /* \"--CODEGEN--\":5:352   */\ntag_39:\n  0x00\n    /* \"--CODEGEN--\":117:156   */\n  tag_40\n    /* \"--CODEGEN--\":150:155   */\n  dup3\n    /* \"--CODEGEN--\":117:156   */\n  jump(tag_41)\ntag_40:\n    /* \"--CODEGEN--\":168:239   */\n  tag_42\n    /* \"--CODEGEN--\":232:238   */\n  dup2\n    /* \"--CODEGEN--\":227:230   */\n  dup6\n    /* \"--CODEGEN--\":168:239   */\n  jump(tag_43)\ntag_42:\n    /* \"--CODEGEN--\":161:239   */\n  swap4\n  pop\n    /* \"--CODEGEN--\":244:296   */\n  tag_44\n    /* \"--CODEGEN--\":289:295   */\n  dup2\n    /* \"--CODEGEN--\":284:287   */\n  dup6\n    /* \"--CODEGEN--\":277:281   */\n  0x20\n    /* \"--CODEGEN--\":270:275   */\n  dup7\n    /* \"--CODEGEN--\":266:282   */\n  add\n    /* \"--CODEGEN--\":244:296   */\n  jump(tag_45)\ntag_44:\n    /* \"--CODEGEN--\":317:346   */\n  tag_46\n    /* \"--CODEGEN--\":339:345   */\n  dup2\n    /* \"--CODEGEN--\":317:346   */\n  jump(tag_47)\ntag_46:\n    /* \"--CODEGEN--\":312:315   */\n  dup5\n    /* \"--CODEGEN--\":308:347   */\n  add\n    /* \"--CODEGEN--\":301:347   */\n  swap2\n  pop\n    /* \"--CODEGEN--\":97:352   */\n  pop\n  swap3\n  swap2\n  pop\n  pop\n  jump\n    /* \"--CODEGEN--\":360:691   */\ntag_48:\n  0x00\n    /* \"--CODEGEN--\":520:587   */\n  tag_49\n    /* \"--CODEGEN--\":584:586   */\n  0x1f\n    /* \"--CODEGEN--\":579:582   */\n  dup4\n    /* \"--CODEGEN--\":520:587   */\n  jump(tag_43)\ntag_49:\n    /* \"--CODEGEN--\":513:587   */\n  swap2\n  pop\n    /* \"--CODEGEN--\":620:653   */\n  0x45524332303a206d696e7420746f20746865207a65726f206164647265737300\n    /* \"--CODEGEN--\":616:617   */\n  0x00\n    /* \"--CODEGEN--\":611:614   */\n  dup4\n    /* \"--CODEGEN--\":607:618   */\n  add\n    /* \"--CODEGEN--\":600:654   */\n  mstore\n    /* \"--CODEGEN--\":682:684   */\n  0x20\n    /* \"--CODEGEN--\":677:680   */\n  dup3\n    /* \"--CODEGEN--\":673:685   */\n  add\n    /* \"--CODEGEN--\":666:685   */\n  swap1\n  pop\n    /* \"--CODEGEN--\":506:691   */\n  swap2\n  swap1\n  pop\n  jump\n    /* \"--CODEGEN--\":699:812   */\ntag_50:\n    /* \"--CODEGEN--\":782:806   */\n  tag_51\n    /* \"--CODEGEN--\":800:805   */\n  dup2\n    /* \"--CODEGEN--\":782:806   */\n  jump(tag_52)\ntag_51:\n    /* \"--CODEGEN--\":777:780   */\n  dup3\n    /* \"--CODEGEN--\":770:807   */\n  mstore\n    /* \"--CODEGEN--\":764:812   */\n  pop\n  pop\n  jump\n    /* \"--CODEGEN--\":819:1120   */\ntag_28:\n  0x00\n    /* \"--CODEGEN--\":957:959   */\n  0x20\n    /* \"--CODEGEN--\":946:955   */\n  dup3\n    /* \"--CODEGEN--\":942:960   */\n  add\n    /* \"--CODEGEN--\":934:960   */\n  swap1\n  pop\n    /* \"--CODEGEN--\":1007:1016   */\n  dup2\n    /* \"--CODEGEN--\":1001:1005   */\n  dup2\n    /* \"--CODEGEN--\":997:1017   */\n  sub\n    /* \"--CODEGEN--\":993:994   */\n  0x00\n    /* \"--CODEGEN--\":982:991   */\n  dup4\n    /* \"--CODEGEN--\":978:995   */\n  add\n    /* \"--CODEGEN--\":971:1018   */\n  mstore\n    /* \"--CODEGEN--\":1032:1110   */\n  tag_53\n    /* \"--CODEGEN--\":1105:1109   */\n  dup2\n    /* \"--CODEGEN--\":1096:1102   */\n  dup5\n    /* \"--CODEGEN--\":1032:1110   */\n  jump(tag_39)\ntag_53:\n    /* \"--CODEGEN--\":1024:1110   */\n  swap1\n  pop\n    /* \"--CODEGEN--\":928:1120   */\n  swap3\n  swap2\n  pop\n  pop\n  jump\n    /* \"--CODEGEN--\":1127:1534   */\ntag_16:\n  0x00\n    /* \"--CODEGEN--\":1318:1320   */\n  0x20\n    /* \"--CODEGEN--\":1307:1316   */\n  dup3\n    /* \"--CODEGEN--\":1303:1321   */\n  add\n    /* \"--CODEGEN--\":1295:1321   */\n  swap1\n  pop\n    /* \"--CODEGEN--\":1368:1377   */\n  dup2\n    /* \"--CODEGEN--\":1362:1366   */\n  dup2\n    /* \"--CODEGEN--\":1358:1378   */\n  sub\n    /* \"--CODEGEN--\":1354:1355   */\n  0x00\n    /* \"--CODEGEN--\":1343:1352   */\n  dup4\n    /* \"--CODEGEN--\":1339:1356   */\n  add\n    /* \"--CODEGEN--\":1332:1379   */\n  mstore\n    /* \"--CODEGEN--\":1393:1524   */\n  tag_54\n    /* \"--CODEGEN--\":1519:1523   */\n  dup2\n    /* \"--CODEGEN--\":1393:1524   */\n  jump(tag_48)\ntag_54:\n    /* \"--CODEGEN--\":1385:1524   */\n  swap1\n  pop\n    /* \"--CODEGEN--\":1289:1534   */\n  swap2\n  swap1\n  pop\n  jump\n    /* \"--CODEGEN--\":1541:1754   */\ntag_21:\n  0x00\n    /* \"--CODEGEN--\":1659:1661   */\n  0x20\n    /* \"--CODEGEN--\":1648:1657   */\n  dup3\n    /* \"--CODEGEN--\":1644:1662   */\n  add\n    /* \"--CODEGEN--\":1636:1662   */\n  swap1\n  pop\n    /* \"--CODEGEN--\":1673:1744   */\n  tag_55\n    /* \"--CODEGEN--\":1741:1742   */\n  0x00\n    /* \"--CODEGEN--\":1730:1739   */\n  dup4\n    /* \"--CODEGEN--\":1726:1743   */\n  add\n    /* \"--CODEGEN--\":1717:1723   */\n  dup5\n    /* \"--CODEGEN--\":1673:1744   */\n  jump(tag_50)\ntag_55:\n    /* \"--CODEGEN--\":1630:1754   */\n  swap3\n  swap2\n  pop\n  pop\n  jump\n    /* \"--CODEGEN--\":1761:1883   */\ntag_41:\n  0x00\n    /* \"--CODEGEN--\":1855:1860   */\n  dup2\n    /* \"--CODEGEN--\":1849:1861   */\n  mload\n    /* \"--CODEGEN--\":1839:1861   */\n  swap1\n  pop\n    /* \"--CODEGEN--\":1820:1883   */\n  swap2\n  swap1\n  pop\n  jump\n    /* \"--CODEGEN--\":1891:2054   */\ntag_43:\n  0x00\n    /* \"--CODEGEN--\":2006:2012   */\n  dup3\n    /* \"--CODEGEN--\":2001:2004   */\n  dup3\n    /* \"--CODEGEN--\":1994:2013   */\n  mstore\n    /* \"--CODEGEN--\":2043:2047   */\n  0x20\n    /* \"--CODEGEN--\":2038:2041   */\n  dup3\n    /* \"--CODEGEN--\":2034:2048   */\n  add\n    /* \"--CODEGEN--\":2019:2048   */\n  swap1\n  pop\n    /* \"--CODEGEN--\":1987:2054   */\n  swap3\n  swap2\n  pop\n  pop\n  jump\n    /* \"--CODEGEN--\":2062:2134   */\ntag_52:\n  0x00\n    /* \"--CODEGEN--\":2124:2129   */\n  dup2\n    /* \"--CODEGEN--\":2113:2129   */\n  swap1\n  pop\n    /* \"--CODEGEN--\":2107:2134   */\n  swap2\n  swap1\n  pop\n  jump\n    /* \"--CODEGEN--\":2142:2410   */\ntag_45:\n    /* \"--CODEGEN--\":2207:2208   */\n  0x00\n    /* \"--CODEGEN--\":2214:2315   */\ntag_56:\n    /* \"--CODEGEN--\":2228:2234   */\n  dup4\n    /* \"--CODEGEN--\":2225:2226   */\n  dup2\n    /* \"--CODEGEN--\":2222:2235   */\n  lt\n    /* \"--CODEGEN--\":2214:2315   */\n  iszero\n  tag_58\n  jumpi\n    /* \"--CODEGEN--\":2304:2305   */\n  dup1\n    /* \"--CODEGEN--\":2299:2302   */\n  dup3\n    /* \"--CODEGEN--\":2295:2306   */\n  add\n    /* \"--CODEGEN--\":2289:2307   */\n  mload\n    /* \"--CODEGEN--\":2285:2286   */\n  dup2\n    /* \"--CODEGEN--\":2280:2283   */\n  dup5\n    /* \"--CODEGEN--\":2276:2287   */\n  add\n    /* \"--CODEGEN--\":2269:2308   */\n  mstore\n    /* \"--CODEGEN--\":2250:2252   */\n  0x20\n    /* \"--CODEGEN--\":2247:2248   */\n  dup2\n    /* \"--CODEGEN--\":2243:2253   */\n  add\n    /* \"--CODEGEN--\":2238:2253   */\n  swap1\n  pop\n    /* \"--CODEGEN--\":2214:2315   */\n  jump(tag_56)\ntag_58:\n    /* \"--CODEGEN--\":2330:2336   */\n  dup4\n    /* \"--CODEGEN--\":2327:2328   */\n  dup2\n    /* \"--CODEGEN--\":2324:2337   */\n  gt\n    /* \"--CODEGEN--\":2321:2323   */\n  iszero\n  tag_59\n  jumpi\n    /* \"--CODEGEN--\":2395:2396   */\n  0x00\n    /* \"--CODEGEN--\":2386:2392   */\n  dup5\n    /* \"--CODEGEN--\":2381:2384   */\n  dup5\n    /* \"--CODEGEN--\":2377:2393   */\n  add\n    /* \"--CODEGEN--\":2370:2397   */\n  mstore\n    /* \"--CODEGEN--\":2321:2323   */\ntag_59:\n    /* \"--CODEGEN--\":2191:2410   */\n  pop\n  pop\n  pop\n  pop\n  jump\n    /* \"--CODEGEN--\":2418:2515   */\ntag_47:\n  0x00\n    /* \"--CODEGEN--\":2506:2508   */\n  0x1f\n    /* \"--CODEGEN--\":2502:2509   */\n  not\n    /* \"--CODEGEN--\":2497:2499   */\n  0x1f\n    /* \"--CODEGEN--\":2490:2495   */\n  dup4\n    /* \"--CODEGEN--\":2486:2500   */\n  add\n    /* \"--CODEGEN--\":2482:2510   */\n  and\n    /* \"--CODEGEN--\":2472:2510   */\n  swap1\n  pop\n    /* \"--CODEGEN--\":2466:2515   */\n  swap2\n  swap1\n  pop\n  jump\n    /* \"contracts/Escrow.sol\":84:736  contract Escrow is ERC20... */\ntag_12:\n  dataSize(sub_0)\n  dup1\n  dataOffset(sub_0)\n  0x00\n  codecopy\n  0x00\n  return\nstop\n\nsub_0: assembly {\n        /* \"contracts/Escrow.sol\":84:736  contract Escrow is ERC20... */\n      mstore(0x40, 0x80)\n      jumpi(tag_1, lt(calldatasize, 0x04))\n      shr(0xe0, calldataload(0x00))\n      dup1\n      0x70a08231\n      gt\n      tag_14\n      jumpi\n      dup1\n      0x70a08231\n      eq\n      tag_8\n      jumpi\n      dup1\n      0x95d89b41\n      eq\n      tag_9\n      jumpi\n      dup1\n      0xa3e76c0f\n      eq\n      tag_10\n      jumpi\n      dup1\n      0xa9059cbb\n      eq\n      tag_11\n      jumpi\n      dup1\n      0xd0e30db0\n      eq\n      tag_12\n      jumpi\n      dup1\n      0xdd62ed3e\n      eq\n      tag_13\n      jumpi\n      jump(tag_1)\n    tag_14:\n      dup1\n      0x06fdde03\n      eq\n      tag_2\n      jumpi\n      dup1\n      0x095ea7b3\n      eq\n      tag_3\n      jumpi\n      dup1\n      0x18160ddd\n      eq\n      tag_4\n      jumpi\n      dup1\n      0x23b872dd\n      eq\n      tag_5\n      jumpi\n      dup1\n      0x2e1a7d4d\n      eq\n      tag_6\n      jumpi\n      dup1\n      0x313ce567\n      eq\n      tag_7\n      jumpi\n    tag_1:\n      0x00\n      dup1\n      revert\n        /* \"contracts/ERC20.sol\":661:735  function name()... */\n    tag_2:\n      callvalue\n        /* \"--CODEGEN--\":8:17   */\n      dup1\n        /* \"--CODEGEN--\":5:7   */\n      iszero\n      tag_15\n      jumpi\n        /* \"--CODEGEN--\":30:31   */\n      0x00\n        /* \"--CODEGEN--\":27:28   */\n      dup1\n        /* \"--CODEGEN--\":20:32   */\n      revert\n        /* \"--CODEGEN--\":5:7   */\n    tag_15:\n        /* \"contracts/ERC20.sol\":661:735  function name()... */\n      pop\n      tag_16\n      tag_17\n      jump\t// in\n    tag_16:\n      mload(0x40)\n      tag_18\n      swap2\n      swap1\n      jump(tag_19)\n    tag_18:\n      mload(0x40)\n      dup1\n      swap2\n      sub\n      swap1\n      return\n        /* \"contracts/ERC20.sol\":1213:1347  function approve(address spender, uint256 amount)... */\n    tag_3:\n      callvalue\n        /* \"--CODEGEN--\":8:17   */\n      dup1\n        /* \"--CODEGEN--\":5:7   */\n      iszero\n      tag_20\n      jumpi\n        /* \"--CODEGEN--\":30:31   */\n      0x00\n        /* \"--CODEGEN--\":27:28   */\n      dup1\n        /* \"--CODEGEN--\":20:32   */\n      revert\n        /* \"--CODEGEN--\":5:7   */\n    tag_20:\n        /* \"contracts/ERC20.sol\":1213:1347  function approve(address spender, uint256 amount)... */\n      pop\n      tag_21\n      0x04\n      dup1\n      calldatasize\n      sub\n      tag_22\n      swap2\n      swap1\n      dup2\n      add\n      swap1\n      jump(tag_23)\n    tag_22:\n      tag_24\n      jump\t// in\n    tag_21:\n      mload(0x40)\n      tag_25\n      swap2\n      swap1\n      jump(tag_26)\n    tag_25:\n      mload(0x40)\n      dup1\n      swap2\n      sub\n      swap1\n      return\n        /* \"contracts/ERC20.sol\":896:978  function totalSupply()... */\n    tag_4:\n      callvalue\n        /* \"--CODEGEN--\":8:17   */\n      dup1\n        /* \"--CODEGEN--\":5:7   */\n      iszero\n      tag_27\n      jumpi\n        /* \"--CODEGEN--\":30:31   */\n      0x00\n        /* \"--CODEGEN--\":27:28   */\n      dup1\n        /* \"--CODEGEN--\":20:32   */\n      revert\n        /* \"--CODEGEN--\":5:7   */\n    tag_27:\n        /* \"contracts/ERC20.sol\":896:978  function totalSupply()... */\n      pop\n      tag_28\n      tag_29\n      jump\t// in\n    tag_28:\n      mload(0x40)\n      tag_30\n      swap2\n      swap1\n      jump(tag_31)\n    tag_30:\n      mload(0x40)\n      dup1\n      swap2\n      sub\n      swap1\n      return\n        /* \"contracts/ERC20.sol\":1493:1770  function transferFrom(address sender, address recipient, uint256 amount)... */\n    tag_5:\n      callvalue\n        /* \"--CODEGEN--\":8:17   */\n      dup1\n        /* \"--CODEGEN--\":5:7   */\n      iszero\n      tag_32\n      jumpi\n        /* \"--CODEGEN--\":30:31   */\n      0x00\n        /* \"--CODEGEN--\":27:28   */\n      dup1\n        /* \"--CODEGEN--\":20:32   */\n      revert\n        /* \"--CODEGEN--\":5:7   */\n    tag_32:\n        /* \"contracts/ERC20.sol\":1493:1770  function transferFrom(address sender, address recipient, uint256 amount)... */\n      pop\n      tag_33\n      0x04\n      dup1\n      calldatasize\n      sub\n      tag_34\n      swap2\n      swap1\n      dup2\n      add\n      swap1\n      jump(tag_35)\n    tag_34:\n      tag_36\n      jump\t// in\n    tag_33:\n      mload(0x40)\n      tag_37\n      swap2\n      swap1\n      jump(tag_26)\n    tag_37:\n      mload(0x40)\n      dup1\n      swap2\n      sub\n      swap1\n      return\n        /* \"contracts/Escrow.sol\":327:524  function withdraw(uint256 amount)... */\n    tag_6:\n      callvalue\n        /* \"--CODEGEN--\":8:17   */\n      dup1\n        /* \"--CODEGEN--\":5:7   */\n      iszero\n      tag_38\n      jumpi\n        /* \"--CODEGEN--\":30:31   */\n      0x00\n        /* \"--CODEGEN--\":27:28   */\n      dup1\n        /* \"--CODEGEN--\":20:32   */\n      revert\n        /* \"--CODEGEN--\":5:7   */\n    tag_38:\n        /* \"contracts/Escrow.sol\":327:524  function withdraw(uint256 amount)... */\n      pop\n      tag_39\n      0x04\n      dup1\n      calldatasize\n      sub\n      tag_40\n      swap2\n      swap1\n      dup2\n      add\n      swap1\n      jump(tag_41)\n    tag_40:\n      tag_42\n      jump\t// in\n    tag_39:\n      stop\n        /* \"contracts/ERC20.sol\":819:893  function decimals()... */\n    tag_7:\n      callvalue\n        /* \"--CODEGEN--\":8:17   */\n      dup1\n        /* \"--CODEGEN--\":5:7   */\n      iszero\n      tag_43\n      jumpi\n        /* \"--CODEGEN--\":30:31   */\n      0x00\n        /* \"--CODEGEN--\":27:28   */\n      dup1\n        /* \"--CODEGEN--\":20:32   */\n      revert\n        /* \"--CODEGEN--\":5:7   */\n    tag_43:\n        /* \"contracts/ERC20.sol\":819:893  function decimals()... */\n      pop\n      tag_44\n      tag_45\n      jump\t// in\n    tag_44:\n      mload(0x40)\n      tag_46\n      swap2\n      swap1\n      jump(tag_47)\n    tag_46:\n      mload(0x40)\n      dup1\n      swap2\n      sub\n      swap1\n      return\n        /* \"contracts/ERC20.sol\":981:1082  function balanceOf(address account)... */\n    tag_8:\n      callvalue\n        /* \"--CODEGEN--\":8:17   */\n      dup1\n        /* \"--CODEGEN--\":5:7   */\n      iszero\n      tag_48\n      jumpi\n        /* \"--CODEGEN--\":30:31   */\n      0x00\n        /* \"--CODEGEN--\":27:28   */\n      dup1\n        /* \"--CODEGEN--\":20:32   */\n      revert\n        /* \"--CODEGEN--\":5:7   */\n    tag_48:\n        /* \"contracts/ERC20.sol\":981:1082  function balanceOf(address account)... */\n      pop\n      tag_49\n      0x04\n      dup1\n      calldatasize\n      sub\n      tag_50\n      swap2\n      swap1\n      dup2\n      add\n      swap1\n      jump(tag_51)\n    tag_50:\n      tag_52\n      jump\t// in\n    tag_49:\n      mload(0x40)\n      tag_53\n      swap2\n      swap1\n      jump(tag_31)\n    tag_53:\n      mload(0x40)\n      dup1\n      swap2\n      sub\n      swap1\n      return\n        /* \"contracts/ERC20.sol\":738:816  function symbol()... */\n    tag_9:\n      callvalue\n        /* \"--CODEGEN--\":8:17   */\n      dup1\n        /* \"--CODEGEN--\":5:7   */\n      iszero\n      tag_54\n      jumpi\n        /* \"--CODEGEN--\":30:31   */\n      0x00\n        /* \"--CODEGEN--\":27:28   */\n      dup1\n        /* \"--CODEGEN--\":20:32   */\n      revert\n        /* \"--CODEGEN--\":5:7   */\n    tag_54:\n        /* \"contracts/ERC20.sol\":738:816  function symbol()... */\n      pop\n      tag_55\n      tag_56\n      jump\t// in\n    tag_55:\n      mload(0x40)\n      tag_57\n      swap2\n      swap1\n      jump(tag_19)\n    tag_57:\n      mload(0x40)\n      dup1\n      swap2\n      sub\n      swap1\n      return\n        /* \"contracts/Escrow.sol\":173:247  function receive()... */\n    tag_10:\n      tag_58\n      tag_59\n      jump\t// in\n    tag_58:\n      stop\n        /* \"contracts/ERC20.sol\":1350:1490  function transfer(address recipient, uint256 amount)... */\n    tag_11:\n      callvalue\n        /* \"--CODEGEN--\":8:17   */\n      dup1\n        /* \"--CODEGEN--\":5:7   */\n      iszero\n      tag_60\n      jumpi\n        /* \"--CODEGEN--\":30:31   */\n      0x00\n        /* \"--CODEGEN--\":27:28   */\n      dup1\n        /* \"--CODEGEN--\":20:32   */\n      revert\n        /* \"--CODEGEN--\":5:7   */\n    tag_60:\n        /* \"contracts/ERC20.sol\":1350:1490  function transfer(address recipient, uint256 amount)... */\n      pop\n      tag_61\n      0x04\n      dup1\n      calldatasize\n      sub\n      tag_62\n      swap2\n      swap1\n      dup2\n      add\n      swap1\n      jump(tag_23)\n    tag_62:\n      tag_63\n      jump\t// in\n    tag_61:\n      mload(0x40)\n      tag_64\n      swap2\n      swap1\n      jump(tag_26)\n    tag_64:\n      mload(0x40)\n      dup1\n      swap2\n      sub\n      swap1\n      return\n        /* \"contracts/Escrow.sol\":250:324  function deposit()... */\n    tag_12:\n      tag_65\n      tag_66\n      jump\t// in\n    tag_65:\n      stop\n        /* \"contracts/ERC20.sol\":1085:1210  function allowance(address owner, address spender)... */\n    tag_13:\n      callvalue\n        /* \"--CODEGEN--\":8:17   */\n      dup1\n        /* \"--CODEGEN--\":5:7   */\n      iszero\n      tag_67\n      jumpi\n        /* \"--CODEGEN--\":30:31   */\n      0x00\n        /* \"--CODEGEN--\":27:28   */\n      dup1\n        /* \"--CODEGEN--\":20:32   */\n      revert\n        /* \"--CODEGEN--\":5:7   */\n    tag_67:\n        /* \"contracts/ERC20.sol\":1085:1210  function allowance(address owner, address spender)... */\n      pop\n      tag_68\n      0x04\n      dup1\n      calldatasize\n      sub\n      tag_69\n      swap2\n      swap1\n      dup2\n      add\n      swap1\n      jump(tag_70)\n    tag_69:\n      tag_71\n      jump\t// in\n    tag_68:\n      mload(0x40)\n      tag_72\n      swap2\n      swap1\n      jump(tag_31)\n    tag_72:\n      mload(0x40)\n      dup1\n      swap2\n      sub\n      swap1\n      return\n        /* \"contracts/ERC20.sol\":661:735  function name()... */\n    tag_17:\n        /* \"contracts/ERC20.sol\":699:712  string memory */\n      0x60\n        /* \"contracts/ERC20.sol\":726:731  _name */\n      0x03\n        /* \"contracts/ERC20.sol\":719:731  return _name */\n      dup1\n      sload\n      0x01\n      dup2\n      0x01\n      and\n      iszero\n      0x0100\n      mul\n      sub\n      and\n      0x02\n      swap1\n      div\n      dup1\n      0x1f\n      add\n      0x20\n      dup1\n      swap2\n      div\n      mul\n      0x20\n      add\n      mload(0x40)\n      swap1\n      dup2\n      add\n      0x40\n      mstore\n      dup1\n      swap3\n      swap2\n      swap1\n      dup2\n      dup2\n      mstore\n      0x20\n      add\n      dup3\n      dup1\n      sload\n      0x01\n      dup2\n      0x01\n      and\n      iszero\n      0x0100\n      mul\n      sub\n      and\n      0x02\n      swap1\n      div\n      dup1\n      iszero\n      tag_74\n      jumpi\n      dup1\n      0x1f\n      lt\n      tag_75\n      jumpi\n      0x0100\n      dup1\n      dup4\n      sload\n      div\n      mul\n      dup4\n      mstore\n      swap2\n      0x20\n      add\n      swap2\n      jump(tag_74)\n    tag_75:\n      dup3\n      add\n      swap2\n      swap1\n      0x00\n      mstore\n      keccak256(0x00, 0x20)\n      swap1\n    tag_76:\n      dup2\n      sload\n      dup2\n      mstore\n      swap1\n      0x01\n      add\n      swap1\n      0x20\n      add\n      dup1\n      dup4\n      gt\n      tag_76\n      jumpi\n      dup3\n      swap1\n      sub\n      0x1f\n      and\n      dup3\n      add\n      swap2\n    tag_74:\n      pop\n      pop\n      pop\n      pop\n      pop\n      swap1\n      pop\n        /* \"contracts/ERC20.sol\":661:735  function name()... */\n      swap1\n      jump\t// out\n        /* \"contracts/ERC20.sol\":1213:1347  function approve(address spender, uint256 amount)... */\n    tag_24:\n        /* \"contracts/ERC20.sol\":1280:1284  bool */\n      0x00\n        /* \"contracts/ERC20.sol\":1291:1328  _approve(msg.sender, spender, amount) */\n      tag_78\n        /* \"contracts/ERC20.sol\":1300:1310  msg.sender */\n      caller\n        /* \"contracts/ERC20.sol\":1312:1319  spender */\n      dup5\n        /* \"contracts/ERC20.sol\":1321:1327  amount */\n      dup5\n        /* \"contracts/ERC20.sol\":1291:1299  _approve */\n      tag_79\n        /* \"contracts/ERC20.sol\":1291:1328  _approve(msg.sender, spender, amount) */\n      jump\t// in\n    tag_78:\n        /* \"contracts/ERC20.sol\":1339:1343  true */\n      0x01\n        /* \"contracts/ERC20.sol\":1332:1343  return true */\n      swap1\n      pop\n        /* \"contracts/ERC20.sol\":1213:1347  function approve(address spender, uint256 amount)... */\n      swap3\n      swap2\n      pop\n      pop\n      jump\t// out\n        /* \"contracts/ERC20.sol\":896:978  function totalSupply()... */\n    tag_29:\n        /* \"contracts/ERC20.sol\":941:948  uint256 */\n      0x00\n        /* \"contracts/ERC20.sol\":962:974  _totalSupply */\n      sload(0x02)\n        /* \"contracts/ERC20.sol\":955:974  return _totalSupply */\n      swap1\n      pop\n        /* \"contracts/ERC20.sol\":896:978  function totalSupply()... */\n      swap1\n      jump\t// out\n        /* \"contracts/ERC20.sol\":1493:1770  function transferFrom(address sender, address recipient, uint256 amount)... */\n    tag_36:\n        /* \"contracts/ERC20.sol\":1583:1587  bool */\n      0x00\n        /* \"contracts/ERC20.sol\":1594:1630  _transfer(sender, recipient, amount) */\n      tag_82\n        /* \"contracts/ERC20.sol\":1604:1610  sender */\n      dup5\n        /* \"contracts/ERC20.sol\":1612:1621  recipient */\n      dup5\n        /* \"contracts/ERC20.sol\":1623:1629  amount */\n      dup5\n        /* \"contracts/ERC20.sol\":1594:1603  _transfer */\n      tag_83\n        /* \"contracts/ERC20.sol\":1594:1630  _transfer(sender, recipient, amount) */\n      jump\t// in\n    tag_82:\n        /* \"contracts/ERC20.sol\":1634:1751  _approve(sender, msg.sender, _allowances[sender][msg.sender].sub(amount, \"ERC20: transfer amount exceeds allowance\")) */\n      tag_84\n        /* \"contracts/ERC20.sol\":1643:1649  sender */\n      dup5\n        /* \"contracts/ERC20.sol\":1651:1661  msg.sender */\n      caller\n        /* \"contracts/ERC20.sol\":1663:1750  _allowances[sender][msg.sender].sub(amount, \"ERC20: transfer amount exceeds allowance\") */\n      tag_85\n        /* \"contracts/ERC20.sol\":1699:1705  amount */\n      dup6\n        /* \"contracts/ERC20.sol\":1663:1750  _allowances[sender][msg.sender].sub(amount, \"ERC20: transfer amount exceeds allowance\") */\n      mload(0x40)\n      dup1\n      0x60\n      add\n      0x40\n      mstore\n      dup1\n      0x28\n      dup2\n      mstore\n      0x20\n      add\n      data_974d1b4421da69cc60b481194f0dad36a5bb4e23da810da7a7fb30cdba178330\n      0x28\n      swap2\n      codecopy\n        /* \"contracts/ERC20.sol\":1663:1674  _allowances */\n      0x01\n        /* \"contracts/ERC20.sol\":1663:1682  _allowances[sender] */\n      0x00\n        /* \"contracts/ERC20.sol\":1675:1681  sender */\n      dup12\n        /* \"contracts/ERC20.sol\":1663:1682  _allowances[sender] */\n      0xffffffffffffffffffffffffffffffffffffffff\n      and\n      0xffffffffffffffffffffffffffffffffffffffff\n      and\n      dup2\n      mstore\n      0x20\n      add\n      swap1\n      dup2\n      mstore\n      0x20\n      add\n      0x00\n      keccak256\n        /* \"contracts/ERC20.sol\":1663:1694  _allowances[sender][msg.sender] */\n      0x00\n        /* \"contracts/ERC20.sol\":1683:1693  msg.sender */\n      caller\n        /* \"contracts/ERC20.sol\":1663:1694  _allowances[sender][msg.sender] */\n      0xffffffffffffffffffffffffffffffffffffffff\n      and\n      0xffffffffffffffffffffffffffffffffffffffff\n      and\n      dup2\n      mstore\n      0x20\n      add\n      swap1\n      dup2\n      mstore\n      0x20\n      add\n      0x00\n      keccak256\n      sload\n        /* \"contracts/ERC20.sol\":1663:1698  _allowances[sender][msg.sender].sub */\n      tag_86\n      swap1\n        /* \"contracts/ERC20.sol\":1663:1750  _allowances[sender][msg.sender].sub(amount, \"ERC20: transfer amount exceeds allowance\") */\n      swap3\n      swap2\n      swap1\n      0xffffffff\n      and\n      jump\t// in\n    tag_85:\n        /* \"contracts/ERC20.sol\":1634:1642  _approve */\n      tag_79\n        /* \"contracts/ERC20.sol\":1634:1751  _approve(sender, msg.sender, _allowances[sender][msg.sender].sub(amount, \"ERC20: transfer amount exceeds allowance\")) */\n      jump\t// in\n    tag_84:\n        /* \"contracts/ERC20.sol\":1762:1766  true */\n      0x01\n        /* \"contracts/ERC20.sol\":1755:1766  return true */\n      swap1\n      pop\n        /* \"contracts/ERC20.sol\":1493:1770  function transferFrom(address sender, address recipient, uint256 amount)... */\n      swap4\n      swap3\n      pop\n      pop\n      pop\n      jump\t// out\n        /* \"contracts/Escrow.sol\":327:524  function withdraw(uint256 amount)... */\n    tag_42:\n        /* \"contracts/Escrow.sol\":376:401  _burn(msg.sender, amount) */\n      tag_88\n        /* \"contracts/Escrow.sol\":382:392  msg.sender */\n      caller\n        /* \"contracts/Escrow.sol\":394:400  amount */\n      dup3\n        /* \"contracts/Escrow.sol\":376:381  _burn */\n      tag_89\n        /* \"contracts/Escrow.sol\":376:401  _burn(msg.sender, amount) */\n      jump\t// in\n    tag_88:\n        /* \"contracts/Escrow.sol\":406:418  bool success */\n      0x00\n        /* \"contracts/Escrow.sol\":420:443  bytes memory returndata */\n      0x60\n        /* \"contracts/Escrow.sol\":447:457  msg.sender */\n      caller\n        /* \"contracts/Escrow.sol\":447:462  msg.sender.call */\n      0xffffffffffffffffffffffffffffffffffffffff\n      and\n        /* \"contracts/Escrow.sol\":469:475  amount */\n      dup4\n        /* \"contracts/Escrow.sol\":447:480  msg.sender.call.value(amount)('') */\n      mload(0x40)\n      tag_90\n      swap1\n      jump(tag_91)\n    tag_90:\n      0x00\n      mload(0x40)\n      dup1\n      dup4\n      sub\n      dup2\n      dup6\n      dup8\n      gas\n      call\n      swap3\n      pop\n      pop\n      pop\n      returndatasize\n        /* \"--CODEGEN--\":14:15   */\n      dup1\n        /* \"--CODEGEN--\":21:22   */\n      0x00\n        /* \"--CODEGEN--\":16:47   */\n      dup2\n      eq\n      tag_93\n      jumpi\n        /* \"--CODEGEN--\":75:79   */\n      0x40\n        /* \"--CODEGEN--\":69:80   */\n      mload\n        /* \"--CODEGEN--\":64:80   */\n      swap2\n      pop\n        /* \"--CODEGEN--\":144:148   */\n      0x1f\n        /* \"--CODEGEN--\":140:149   */\n      not\n        /* \"--CODEGEN--\":133:137   */\n      0x3f\n        /* \"--CODEGEN--\":115:131   */\n      returndatasize\n        /* \"--CODEGEN--\":111:138   */\n      add\n        /* \"--CODEGEN--\":107:150   */\n      and\n        /* \"--CODEGEN--\":104:105   */\n      dup3\n        /* \"--CODEGEN--\":100:151   */\n      add\n        /* \"--CODEGEN--\":94:98   */\n      0x40\n        /* \"--CODEGEN--\":87:152   */\n      mstore\n        /* \"--CODEGEN--\":169:185   */\n      returndatasize\n        /* \"--CODEGEN--\":166:167   */\n      dup3\n        /* \"--CODEGEN--\":159:186   */\n      mstore\n        /* \"--CODEGEN--\":225:241   */\n      returndatasize\n        /* \"--CODEGEN--\":222:223   */\n      0x00\n        /* \"--CODEGEN--\":215:219   */\n      0x20\n        /* \"--CODEGEN--\":212:213   */\n      dup5\n        /* \"--CODEGEN--\":208:220   */\n      add\n        /* \"--CODEGEN--\":193:242   */\n      returndatacopy\n        /* \"--CODEGEN--\":7:249   */\n      jump(tag_92)\n        /* \"--CODEGEN--\":16:47   */\n    tag_93:\n        /* \"--CODEGEN--\":36:40   */\n      0x60\n        /* \"--CODEGEN--\":31:40   */\n      swap2\n      pop\n        /* \"--CODEGEN--\":7:249   */\n    tag_92:\n      pop\n        /* \"contracts/Escrow.sol\":405:480  (bool success, bytes memory returndata) = msg.sender.call.value(amount)('') */\n      swap2\n      pop\n      swap2\n      pop\n        /* \"contracts/Escrow.sol\":492:499  success */\n      dup2\n        /* \"contracts/Escrow.sol\":508:518  returndata */\n      dup2\n        /* \"contracts/Escrow.sol\":484:520  require(success, string(returndata)) */\n      swap1\n      tag_94\n      jumpi\n      mload(0x40)\n      0x08c379a000000000000000000000000000000000000000000000000000000000\n      dup2\n      mstore\n      0x04\n      add\n      tag_95\n      swap2\n      swap1\n      jump(tag_19)\n    tag_95:\n      mload(0x40)\n      dup1\n      swap2\n      sub\n      swap1\n      revert\n    tag_94:\n      pop\n        /* \"contracts/Escrow.sol\":327:524  function withdraw(uint256 amount)... */\n      pop\n      pop\n      pop\n      jump\t// out\n        /* \"contracts/ERC20.sol\":819:893  function decimals()... */\n    tag_45:\n        /* \"contracts/ERC20.sol\":861:866  uint8 */\n      0x00\n        /* \"contracts/ERC20.sol\":880:889  _decimals */\n      0x05\n      0x00\n      swap1\n      sload\n      swap1\n      0x0100\n      exp\n      swap1\n      div\n      0xff\n      and\n        /* \"contracts/ERC20.sol\":873:889  return _decimals */\n      swap1\n      pop\n        /* \"contracts/ERC20.sol\":819:893  function decimals()... */\n      swap1\n      jump\t// out\n        /* \"contracts/ERC20.sol\":981:1082  function balanceOf(address account)... */\n    tag_52:\n        /* \"contracts/ERC20.sol\":1039:1046  uint256 */\n      0x00\n        /* \"contracts/ERC20.sol\":1060:1069  _balances */\n      dup1\n        /* \"contracts/ERC20.sol\":1060:1078  _balances[account] */\n      0x00\n        /* \"contracts/ERC20.sol\":1070:1077  account */\n      dup4\n        /* \"contracts/ERC20.sol\":1060:1078  _balances[account] */\n      0xffffffffffffffffffffffffffffffffffffffff\n      and\n      0xffffffffffffffffffffffffffffffffffffffff\n      and\n      dup2\n      mstore\n      0x20\n      add\n      swap1\n      dup2\n      mstore\n      0x20\n      add\n      0x00\n      keccak256\n      sload\n        /* \"contracts/ERC20.sol\":1053:1078  return _balances[account] */\n      swap1\n      pop\n        /* \"contracts/ERC20.sol\":981:1082  function balanceOf(address account)... */\n      swap2\n      swap1\n      pop\n      jump\t// out\n        /* \"contracts/ERC20.sol\":738:816  function symbol()... */\n    tag_56:\n        /* \"contracts/ERC20.sol\":778:791  string memory */\n      0x60\n        /* \"contracts/ERC20.sol\":805:812  _symbol */\n      0x04\n        /* \"contracts/ERC20.sol\":798:812  return _symbol */\n      dup1\n      sload\n      0x01\n      dup2\n      0x01\n      and\n      iszero\n      0x0100\n      mul\n      sub\n      and\n      0x02\n      swap1\n      div\n      dup1\n      0x1f\n      add\n      0x20\n      dup1\n      swap2\n      div\n      mul\n      0x20\n      add\n      mload(0x40)\n      swap1\n      dup2\n      add\n      0x40\n      mstore\n      dup1\n      swap3\n      swap2\n      swap1\n      dup2\n      dup2\n      mstore\n      0x20\n      add\n      dup3\n      dup1\n      sload\n      0x01\n      dup2\n      0x01\n      and\n      iszero\n      0x0100\n      mul\n      sub\n      and\n      0x02\n      swap1\n      div\n      dup1\n      iszero\n      tag_99\n      jumpi\n      dup1\n      0x1f\n      lt\n      tag_100\n      jumpi\n      0x0100\n      dup1\n      dup4\n      sload\n      div\n      mul\n      dup4\n      mstore\n      swap2\n      0x20\n      add\n      swap2\n      jump(tag_99)\n    tag_100:\n      dup3\n      add\n      swap2\n      swap1\n      0x00\n      mstore\n      keccak256(0x00, 0x20)\n      swap1\n    tag_101:\n      dup2\n      sload\n      dup2\n      mstore\n      swap1\n      0x01\n      add\n      swap1\n      0x20\n      add\n      dup1\n      dup4\n      gt\n      tag_101\n      jumpi\n      dup3\n      swap1\n      sub\n      0x1f\n      and\n      dup3\n      add\n      swap2\n    tag_99:\n      pop\n      pop\n      pop\n      pop\n      pop\n      swap1\n      pop\n        /* \"contracts/ERC20.sol\":738:816  function symbol()... */\n      swap1\n      jump\t// out\n        /* \"contracts/Escrow.sol\":173:247  function receive()... */\n    tag_59:\n        /* \"contracts/Escrow.sol\":215:243  _mint(msg.sender, msg.value) */\n      tag_103\n        /* \"contracts/Escrow.sol\":221:231  msg.sender */\n      caller\n        /* \"contracts/Escrow.sol\":233:242  msg.value */\n      callvalue\n        /* \"contracts/Escrow.sol\":215:220  _mint */\n      tag_104\n        /* \"contracts/Escrow.sol\":215:243  _mint(msg.sender, msg.value) */\n      jump\t// in\n    tag_103:\n        /* \"contracts/Escrow.sol\":173:247  function receive()... */\n      jump\t// out\n        /* \"contracts/ERC20.sol\":1350:1490  function transfer(address recipient, uint256 amount)... */\n    tag_63:\n        /* \"contracts/ERC20.sol\":1420:1424  bool */\n      0x00\n        /* \"contracts/ERC20.sol\":1431:1471  _transfer(msg.sender, recipient, amount) */\n      tag_106\n        /* \"contracts/ERC20.sol\":1441:1451  msg.sender */\n      caller\n        /* \"contracts/ERC20.sol\":1453:1462  recipient */\n      dup5\n        /* \"contracts/ERC20.sol\":1464:1470  amount */\n      dup5\n        /* \"contracts/ERC20.sol\":1431:1440  _transfer */\n      tag_83\n        /* \"contracts/ERC20.sol\":1431:1471  _transfer(msg.sender, recipient, amount) */\n      jump\t// in\n    tag_106:\n        /* \"contracts/ERC20.sol\":1482:1486  true */\n      0x01\n        /* \"contracts/ERC20.sol\":1475:1486  return true */\n      swap1\n      pop\n        /* \"contracts/ERC20.sol\":1350:1490  function transfer(address recipient, uint256 amount)... */\n      swap3\n      swap2\n      pop\n      pop\n      jump\t// out\n        /* \"contracts/Escrow.sol\":250:324  function deposit()... */\n    tag_66:\n        /* \"contracts/Escrow.sol\":292:320  _mint(msg.sender, msg.value) */\n      tag_108\n        /* \"contracts/Escrow.sol\":298:308  msg.sender */\n      caller\n        /* \"contracts/Escrow.sol\":310:319  msg.value */\n      callvalue\n        /* \"contracts/Escrow.sol\":292:297  _mint */\n      tag_104\n        /* \"contracts/Escrow.sol\":292:320  _mint(msg.sender, msg.value) */\n      jump\t// in\n    tag_108:\n        /* \"contracts/Escrow.sol\":250:324  function deposit()... */\n      jump\t// out\n        /* \"contracts/ERC20.sol\":1085:1210  function allowance(address owner, address spender)... */\n    tag_71:\n        /* \"contracts/ERC20.sol\":1158:1165  uint256 */\n      0x00\n        /* \"contracts/ERC20.sol\":1179:1190  _allowances */\n      0x01\n        /* \"contracts/ERC20.sol\":1179:1197  _allowances[owner] */\n      0x00\n        /* \"contracts/ERC20.sol\":1191:1196  owner */\n      dup5\n        /* \"contracts/ERC20.sol\":1179:1197  _allowances[owner] */\n      0xffffffffffffffffffffffffffffffffffffffff\n      and\n      0xffffffffffffffffffffffffffffffffffffffff\n      and\n      dup2\n      mstore\n      0x20\n      add\n      swap1\n      dup2\n      mstore\n      0x20\n      add\n      0x00\n      keccak256\n        /* \"contracts/ERC20.sol\":1179:1206  _allowances[owner][spender] */\n      0x00\n        /* \"contracts/ERC20.sol\":1198:1205  spender */\n      dup4\n        /* \"contracts/ERC20.sol\":1179:1206  _allowances[owner][spender] */\n      0xffffffffffffffffffffffffffffffffffffffff\n      and\n      0xffffffffffffffffffffffffffffffffffffffff\n      and\n      dup2\n      mstore\n      0x20\n      add\n      swap1\n      dup2\n      mstore\n      0x20\n      add\n      0x00\n      keccak256\n      sload\n        /* \"contracts/ERC20.sol\":1172:1206  return _allowances[owner][spender] */\n      swap1\n      pop\n        /* \"contracts/ERC20.sol\":1085:1210  function allowance(address owner, address spender)... */\n      swap3\n      swap2\n      pop\n      pop\n      jump\t// out\n        /* \"contracts/ERC20.sol\":1774:2083  function _approve(address owner, address spender, uint256 amount)... */\n    tag_79:\n        /* \"contracts/ERC20.sol\":1882:1883  0 */\n      0x00\n        /* \"contracts/ERC20.sol\":1863:1884  owner   != address(0) */\n      0xffffffffffffffffffffffffffffffffffffffff\n      and\n        /* \"contracts/ERC20.sol\":1863:1868  owner */\n      dup4\n        /* \"contracts/ERC20.sol\":1863:1884  owner   != address(0) */\n      0xffffffffffffffffffffffffffffffffffffffff\n      and\n      eq\n      iszero\n        /* \"contracts/ERC20.sol\":1855:1925  require(owner   != address(0), \"ERC20: approve from the zero address\") */\n      tag_111\n      jumpi\n      mload(0x40)\n      0x08c379a000000000000000000000000000000000000000000000000000000000\n      dup2\n      mstore\n      0x04\n      add\n      tag_112\n      swap1\n      jump(tag_113)\n    tag_112:\n      mload(0x40)\n      dup1\n      swap2\n      sub\n      swap1\n      revert\n    tag_111:\n        /* \"contracts/ERC20.sol\":1956:1957  0 */\n      0x00\n        /* \"contracts/ERC20.sol\":1937:1958  spender != address(0) */\n      0xffffffffffffffffffffffffffffffffffffffff\n      and\n        /* \"contracts/ERC20.sol\":1937:1944  spender */\n      dup3\n        /* \"contracts/ERC20.sol\":1937:1958  spender != address(0) */\n      0xffffffffffffffffffffffffffffffffffffffff\n      and\n      eq\n      iszero\n        /* \"contracts/ERC20.sol\":1929:1997  require(spender != address(0), \"ERC20: approve to the zero address\") */\n      tag_114\n      jumpi\n      mload(0x40)\n      0x08c379a000000000000000000000000000000000000000000000000000000000\n      dup2\n      mstore\n      0x04\n      add\n      tag_115\n      swap1\n      jump(tag_116)\n    tag_115:\n      mload(0x40)\n      dup1\n      swap2\n      sub\n      swap1\n      revert\n    tag_114:\n        /* \"contracts/ERC20.sol\":2032:2038  amount */\n      dup1\n        /* \"contracts/ERC20.sol\":2002:2013  _allowances */\n      0x01\n        /* \"contracts/ERC20.sol\":2002:2020  _allowances[owner] */\n      0x00\n        /* \"contracts/ERC20.sol\":2014:2019  owner */\n      dup6\n        /* \"contracts/ERC20.sol\":2002:2020  _allowances[owner] */\n      0xffffffffffffffffffffffffffffffffffffffff\n      and\n      0xffffffffffffffffffffffffffffffffffffffff\n      and\n      dup2\n      mstore\n      0x20\n      add\n      swap1\n      dup2\n      mstore\n      0x20\n      add\n      0x00\n      keccak256\n        /* \"contracts/ERC20.sol\":2002:2029  _allowances[owner][spender] */\n      0x00\n        /* \"contracts/ERC20.sol\":2021:2028  spender */\n      dup5\n        /* \"contracts/ERC20.sol\":2002:2029  _allowances[owner][spender] */\n      0xffffffffffffffffffffffffffffffffffffffff\n      and\n      0xffffffffffffffffffffffffffffffffffffffff\n      and\n      dup2\n      mstore\n      0x20\n      add\n      swap1\n      dup2\n      mstore\n      0x20\n      add\n      0x00\n      keccak256\n        /* \"contracts/ERC20.sol\":2002:2038  _allowances[owner][spender] = amount */\n      dup2\n      swap1\n      sstore\n      pop\n        /* \"contracts/ERC20.sol\":2063:2070  spender */\n      dup2\n        /* \"contracts/ERC20.sol\":2047:2079  Approval(owner, spender, amount) */\n      0xffffffffffffffffffffffffffffffffffffffff\n      and\n        /* \"contracts/ERC20.sol\":2056:2061  owner */\n      dup4\n        /* \"contracts/ERC20.sol\":2047:2079  Approval(owner, spender, amount) */\n      0xffffffffffffffffffffffffffffffffffffffff\n      and\n      0x8c5be1e5ebec7d5bd14f71427d1e84f3dd0314c0f7b2291e5b200ac8c7c3b925\n        /* \"contracts/ERC20.sol\":2072:2078  amount */\n      dup4\n        /* \"contracts/ERC20.sol\":2047:2079  Approval(owner, spender, amount) */\n      mload(0x40)\n      tag_117\n      swap2\n      swap1\n      jump(tag_31)\n    tag_117:\n      mload(0x40)\n      dup1\n      swap2\n      sub\n      swap1\n      log3\n        /* \"contracts/ERC20.sol\":1774:2083  function _approve(address owner, address spender, uint256 amount)... */\n      pop\n      pop\n      pop\n      jump\t// out\n        /* \"contracts/ERC20.sol\":2086:2525  function _transfer(address sender, address recipient, uint256 amount)... */\n    tag_83:\n        /* \"contracts/ERC20.sol\":2200:2201  0 */\n      0x00\n        /* \"contracts/ERC20.sol\":2179:2202  sender    != address(0) */\n      0xffffffffffffffffffffffffffffffffffffffff\n      and\n        /* \"contracts/ERC20.sol\":2179:2185  sender */\n      dup4\n        /* \"contracts/ERC20.sol\":2179:2202  sender    != address(0) */\n      0xffffffffffffffffffffffffffffffffffffffff\n      and\n      eq\n      iszero\n        /* \"contracts/ERC20.sol\":2171:2244  require(sender    != address(0), \"ERC20: transfer from the zero address\") */\n      tag_119\n      jumpi\n      mload(0x40)\n      0x08c379a000000000000000000000000000000000000000000000000000000000\n      dup2\n      mstore\n      0x04\n      add\n      tag_120\n      swap1\n      jump(tag_121)\n    tag_120:\n      mload(0x40)\n      dup1\n      swap2\n      sub\n      swap1\n      revert\n    tag_119:\n        /* \"contracts/ERC20.sol\":2277:2278  0 */\n      0x00\n        /* \"contracts/ERC20.sol\":2256:2279  recipient != address(0) */\n      0xffffffffffffffffffffffffffffffffffffffff\n      and\n        /* \"contracts/ERC20.sol\":2256:2265  recipient */\n      dup3\n        /* \"contracts/ERC20.sol\":2256:2279  recipient != address(0) */\n      0xffffffffffffffffffffffffffffffffffffffff\n      and\n      eq\n      iszero\n        /* \"contracts/ERC20.sol\":2248:2319  require(recipient != address(0), \"ERC20: transfer to the zero address\") */\n      tag_122\n      jumpi\n      mload(0x40)\n      0x08c379a000000000000000000000000000000000000000000000000000000000\n      dup2\n      mstore\n      0x04\n      add\n      tag_123\n      swap1\n      jump(tag_124)\n    tag_123:\n      mload(0x40)\n      dup1\n      swap2\n      sub\n      swap1\n      revert\n    tag_122:\n        /* \"contracts/ERC20.sol\":2347:2418  _balances[sender].sub(amount, \"ERC20: transfer amount exceeds balance\") */\n      tag_125\n        /* \"contracts/ERC20.sol\":2369:2375  amount */\n      dup2\n        /* \"contracts/ERC20.sol\":2347:2418  _balances[sender].sub(amount, \"ERC20: transfer amount exceeds balance\") */\n      mload(0x40)\n      dup1\n      0x60\n      add\n      0x40\n      mstore\n      dup1\n      0x26\n      dup2\n      mstore\n      0x20\n      add\n      data_4107e8a8b9e94bf8ff83080ddec1c0bffe897ebc2241b89d44f66b3d274088b6\n      0x26\n      swap2\n      codecopy\n        /* \"contracts/ERC20.sol\":2347:2356  _balances */\n      0x00\n        /* \"contracts/ERC20.sol\":2347:2364  _balances[sender] */\n      dup1\n        /* \"contracts/ERC20.sol\":2357:2363  sender */\n      dup8\n        /* \"contracts/ERC20.sol\":2347:2364  _balances[sender] */\n      0xffffffffffffffffffffffffffffffffffffffff\n      and\n      0xffffffffffffffffffffffffffffffffffffffff\n      and\n      dup2\n      mstore\n      0x20\n      add\n      swap1\n      dup2\n      mstore\n      0x20\n      add\n      0x00\n      keccak256\n      sload\n        /* \"contracts/ERC20.sol\":2347:2368  _balances[sender].sub */\n      tag_86\n      swap1\n        /* \"contracts/ERC20.sol\":2347:2418  _balances[sender].sub(amount, \"ERC20: transfer amount exceeds balance\") */\n      swap3\n      swap2\n      swap1\n      0xffffffff\n      and\n      jump\t// in\n    tag_125:\n        /* \"contracts/ERC20.sol\":2324:2333  _balances */\n      0x00\n        /* \"contracts/ERC20.sol\":2324:2341  _balances[sender] */\n      dup1\n        /* \"contracts/ERC20.sol\":2334:2340  sender */\n      dup6\n        /* \"contracts/ERC20.sol\":2324:2341  _balances[sender] */\n      0xffffffffffffffffffffffffffffffffffffffff\n      and\n      0xffffffffffffffffffffffffffffffffffffffff\n      and\n      dup2\n      mstore\n      0x20\n      add\n      swap1\n      dup2\n      mstore\n      0x20\n      add\n      0x00\n      keccak256\n        /* \"contracts/ERC20.sol\":2324:2418  _balances[sender]    = _balances[sender].sub(amount, \"ERC20: transfer amount exceeds balance\") */\n      dup2\n      swap1\n      sstore\n      pop\n        /* \"contracts/ERC20.sol\":2445:2477  _balances[recipient].add(amount) */\n      tag_126\n        /* \"contracts/ERC20.sol\":2470:2476  amount */\n      dup2\n        /* \"contracts/ERC20.sol\":2445:2454  _balances */\n      0x00\n        /* \"contracts/ERC20.sol\":2445:2465  _balances[recipient] */\n      dup1\n        /* \"contracts/ERC20.sol\":2455:2464  recipient */\n      dup6\n        /* \"contracts/ERC20.sol\":2445:2465  _balances[recipient] */\n      0xffffffffffffffffffffffffffffffffffffffff\n      and\n      0xffffffffffffffffffffffffffffffffffffffff\n      and\n      dup2\n      mstore\n      0x20\n      add\n      swap1\n      dup2\n      mstore\n      0x20\n      add\n      0x00\n      keccak256\n      sload\n        /* \"contracts/ERC20.sol\":2445:2469  _balances[recipient].add */\n      tag_127\n      swap1\n        /* \"contracts/ERC20.sol\":2445:2477  _balances[recipient].add(amount) */\n      swap2\n      swap1\n      0xffffffff\n      and\n      jump\t// in\n    tag_126:\n        /* \"contracts/ERC20.sol\":2422:2431  _balances */\n      0x00\n        /* \"contracts/ERC20.sol\":2422:2442  _balances[recipient] */\n      dup1\n        /* \"contracts/ERC20.sol\":2432:2441  recipient */\n      dup5\n        /* \"contracts/ERC20.sol\":2422:2442  _balances[recipient] */\n      0xffffffffffffffffffffffffffffffffffffffff\n      and\n      0xffffffffffffffffffffffffffffffffffffffff\n      and\n      dup2\n      mstore\n      0x20\n      add\n      swap1\n      dup2\n      mstore\n      0x20\n      add\n      0x00\n      keccak256\n        /* \"contracts/ERC20.sol\":2422:2477  _balances[recipient] = _balances[recipient].add(amount) */\n      dup2\n      swap1\n      sstore\n      pop\n        /* \"contracts/ERC20.sol\":2503:2512  recipient */\n      dup2\n        /* \"contracts/ERC20.sol\":2486:2521  Transfer(sender, recipient, amount) */\n      0xffffffffffffffffffffffffffffffffffffffff\n      and\n        /* \"contracts/ERC20.sol\":2495:2501  sender */\n      dup4\n        /* \"contracts/ERC20.sol\":2486:2521  Transfer(sender, recipient, amount) */\n      0xffffffffffffffffffffffffffffffffffffffff\n      and\n      0xddf252ad1be2c89b69c2b068fc378daa952ba7f163c4a11628f55a4df523b3ef\n        /* \"contracts/ERC20.sol\":2514:2520  amount */\n      dup4\n        /* \"contracts/ERC20.sol\":2486:2521  Transfer(sender, recipient, amount) */\n      mload(0x40)\n      tag_128\n      swap2\n      swap1\n      jump(tag_31)\n    tag_128:\n      mload(0x40)\n      dup1\n      swap2\n      sub\n      swap1\n      log3\n        /* \"contracts/ERC20.sol\":2086:2525  function _transfer(address sender, address recipient, uint256 amount)... */\n      pop\n      pop\n      pop\n      jump\t// out\n        /* \"contracts/libs/SafeMath.sol\":200:350  function sub(uint256 a, uint256 b, string memory err)... */\n    tag_86:\n        /* \"contracts/libs/SafeMath.sol\":278:285  uint256 */\n      0x00\n        /* \"contracts/libs/SafeMath.sol\":305:306  a */\n      dup4\n        /* \"contracts/libs/SafeMath.sol\":300:301  b */\n      dup4\n        /* \"contracts/libs/SafeMath.sol\":300:306  b <= a */\n      gt\n      iszero\n        /* \"contracts/libs/SafeMath.sol\":308:311  err */\n      dup3\n        /* \"contracts/libs/SafeMath.sol\":292:312  require(b <= a, err) */\n      swap1\n      tag_130\n      jumpi\n      mload(0x40)\n      0x08c379a000000000000000000000000000000000000000000000000000000000\n      dup2\n      mstore\n      0x04\n      add\n      tag_131\n      swap2\n      swap1\n      jump(tag_19)\n    tag_131:\n      mload(0x40)\n      dup1\n      swap2\n      sub\n      swap1\n      revert\n    tag_130:\n      pop\n        /* \"contracts/libs/SafeMath.sol\":316:325  uint256 c */\n      0x00\n        /* \"contracts/libs/SafeMath.sol\":332:333  b */\n      dup4\n        /* \"contracts/libs/SafeMath.sol\":328:329  a */\n      dup6\n        /* \"contracts/libs/SafeMath.sol\":328:333  a - b */\n      sub\n        /* \"contracts/libs/SafeMath.sol\":316:333  uint256 c = a - b */\n      swap1\n      pop\n        /* \"contracts/libs/SafeMath.sol\":345:346  c */\n      dup1\n        /* \"contracts/libs/SafeMath.sol\":338:346  return c */\n      swap2\n      pop\n      pop\n        /* \"contracts/libs/SafeMath.sol\":200:350  function sub(uint256 a, uint256 b, string memory err)... */\n      swap4\n      swap3\n      pop\n      pop\n      pop\n      jump\t// out\n        /* \"contracts/ERC20.sol\":2814:3137  function _burn(address account, uint256 amount)... */\n    tag_89:\n        /* \"contracts/ERC20.sol\":2904:2905  0 */\n      0x00\n        /* \"contracts/ERC20.sol\":2885:2906  account != address(0) */\n      0xffffffffffffffffffffffffffffffffffffffff\n      and\n        /* \"contracts/ERC20.sol\":2885:2892  account */\n      dup3\n        /* \"contracts/ERC20.sol\":2885:2906  account != address(0) */\n      0xffffffffffffffffffffffffffffffffffffffff\n      and\n      eq\n      iszero\n        /* \"contracts/ERC20.sol\":2877:2944  require(account != address(0), \"ERC20: burn from the zero address\") */\n      tag_133\n      jumpi\n      mload(0x40)\n      0x08c379a000000000000000000000000000000000000000000000000000000000\n      dup2\n      mstore\n      0x04\n      add\n      tag_134\n      swap1\n      jump(tag_135)\n    tag_134:\n      mload(0x40)\n      dup1\n      swap2\n      sub\n      swap1\n      revert\n    tag_133:\n        /* \"contracts/ERC20.sol\":2970:3038  _balances[account].sub(amount, \"ERC20: burn amount exceeds balance\") */\n      tag_136\n        /* \"contracts/ERC20.sol\":2993:2999  amount */\n      dup2\n        /* \"contracts/ERC20.sol\":2970:3038  _balances[account].sub(amount, \"ERC20: burn amount exceeds balance\") */\n      mload(0x40)\n      dup1\n      0x60\n      add\n      0x40\n      mstore\n      dup1\n      0x22\n      dup2\n      mstore\n      0x20\n      add\n      data_149b126e7125232b4200af45303d04fba8b74653b1a295a6a561a528c33fefdd\n      0x22\n      swap2\n      codecopy\n        /* \"contracts/ERC20.sol\":2970:2979  _balances */\n      0x00\n        /* \"contracts/ERC20.sol\":2970:2988  _balances[account] */\n      dup1\n        /* \"contracts/ERC20.sol\":2980:2987  account */\n      dup7\n        /* \"contracts/ERC20.sol\":2970:2988  _balances[account] */\n      0xffffffffffffffffffffffffffffffffffffffff\n      and\n      0xffffffffffffffffffffffffffffffffffffffff\n      and\n      dup2\n      mstore\n      0x20\n      add\n      swap1\n      dup2\n      mstore\n      0x20\n      add\n      0x00\n      keccak256\n      sload\n        /* \"contracts/ERC20.sol\":2970:2992  _balances[account].sub */\n      tag_86\n      swap1\n        /* \"contracts/ERC20.sol\":2970:3038  _balances[account].sub(amount, \"ERC20: burn amount exceeds balance\") */\n      swap3\n      swap2\n      swap1\n      0xffffffff\n      and\n      jump\t// in\n    tag_136:\n        /* \"contracts/ERC20.sol\":2949:2958  _balances */\n      0x00\n        /* \"contracts/ERC20.sol\":2949:2967  _balances[account] */\n      dup1\n        /* \"contracts/ERC20.sol\":2959:2966  account */\n      dup5\n        /* \"contracts/ERC20.sol\":2949:2967  _balances[account] */\n      0xffffffffffffffffffffffffffffffffffffffff\n      and\n      0xffffffffffffffffffffffffffffffffffffffff\n      and\n      dup2\n      mstore\n      0x20\n      add\n      swap1\n      dup2\n      mstore\n      0x20\n      add\n      0x00\n      keccak256\n        /* \"contracts/ERC20.sol\":2949:3038  _balances[account] = _balances[account].sub(amount, \"ERC20: burn amount exceeds balance\") */\n      dup2\n      swap1\n      sstore\n      pop\n        /* \"contracts/ERC20.sol\":3063:3087  _totalSupply.sub(amount) */\n      tag_137\n        /* \"contracts/ERC20.sol\":3080:3086  amount */\n      dup2\n        /* \"contracts/ERC20.sol\":3063:3075  _totalSupply */\n      sload(0x02)\n        /* \"contracts/ERC20.sol\":3063:3079  _totalSupply.sub */\n      tag_138\n      swap1\n        /* \"contracts/ERC20.sol\":3063:3087  _totalSupply.sub(amount) */\n      swap2\n      swap1\n      0xffffffff\n      and\n      jump\t// in\n    tag_137:\n        /* \"contracts/ERC20.sol\":3042:3054  _totalSupply */\n      0x02\n        /* \"contracts/ERC20.sol\":3042:3087  _totalSupply       = _totalSupply.sub(amount) */\n      dup2\n      swap1\n      sstore\n      pop\n        /* \"contracts/ERC20.sol\":3122:3123  0 */\n      0x00\n        /* \"contracts/ERC20.sol\":3096:3133  Transfer(account, address(0), amount) */\n      0xffffffffffffffffffffffffffffffffffffffff\n      and\n        /* \"contracts/ERC20.sol\":3105:3112  account */\n      dup3\n        /* \"contracts/ERC20.sol\":3096:3133  Transfer(account, address(0), amount) */\n      0xffffffffffffffffffffffffffffffffffffffff\n      and\n      0xddf252ad1be2c89b69c2b068fc378daa952ba7f163c4a11628f55a4df523b3ef\n        /* \"contracts/ERC20.sol\":3126:3132  amount */\n      dup4\n        /* \"contracts/ERC20.sol\":3096:3133  Transfer(account, address(0), amount) */\n      mload(0x40)\n      tag_139\n      swap2\n      swap1\n      jump(tag_31)\n    tag_139:\n      mload(0x40)\n      dup1\n      swap2\n      sub\n      swap1\n      log3\n        /* \"contracts/ERC20.sol\":2814:3137  function _burn(address account, uint256 amount)... */\n      pop\n      pop\n      jump\t// out\n        /* \"contracts/ERC20.sol\":2528:2811  function _mint(address account, uint256 amount)... */\n    tag_104:\n        /* \"contracts/ERC20.sol\":2618:2619  0 */\n      0x00\n        /* \"contracts/ERC20.sol\":2599:2620  account != address(0) */\n      0xffffffffffffffffffffffffffffffffffffffff\n      and\n        /* \"contracts/ERC20.sol\":2599:2606  account */\n      dup3\n        /* \"contracts/ERC20.sol\":2599:2620  account != address(0) */\n      0xffffffffffffffffffffffffffffffffffffffff\n      and\n      eq\n      iszero\n        /* \"contracts/ERC20.sol\":2591:2656  require(account != address(0), \"ERC20: mint to the zero address\") */\n      tag_141\n      jumpi\n      mload(0x40)\n      0x08c379a000000000000000000000000000000000000000000000000000000000\n      dup2\n      mstore\n      0x04\n      add\n      tag_142\n      swap1\n      jump(tag_143)\n    tag_142:\n      mload(0x40)\n      dup1\n      swap2\n      sub\n      swap1\n      revert\n    tag_141:\n        /* \"contracts/ERC20.sol\":2682:2706  _totalSupply.add(amount) */\n      tag_144\n        /* \"contracts/ERC20.sol\":2699:2705  amount */\n      dup2\n        /* \"contracts/ERC20.sol\":2682:2694  _totalSupply */\n      sload(0x02)\n        /* \"contracts/ERC20.sol\":2682:2698  _totalSupply.add */\n      tag_127\n      swap1\n        /* \"contracts/ERC20.sol\":2682:2706  _totalSupply.add(amount) */\n      swap2\n      swap1\n      0xffffffff\n      and\n      jump\t// in\n    tag_144:\n        /* \"contracts/ERC20.sol\":2661:2673  _totalSupply */\n      0x02\n        /* \"contracts/ERC20.sol\":2661:2706  _totalSupply       = _totalSupply.add(amount) */\n      dup2\n      swap1\n      sstore\n      pop\n        /* \"contracts/ERC20.sol\":2731:2761  _balances[account].add(amount) */\n      tag_145\n        /* \"contracts/ERC20.sol\":2754:2760  amount */\n      dup2\n        /* \"contracts/ERC20.sol\":2731:2740  _balances */\n      0x00\n        /* \"contracts/ERC20.sol\":2731:2749  _balances[account] */\n      dup1\n        /* \"contracts/ERC20.sol\":2741:2748  account */\n      dup6\n        /* \"contracts/ERC20.sol\":2731:2749  _balances[account] */\n      0xffffffffffffffffffffffffffffffffffffffff\n      and\n      0xffffffffffffffffffffffffffffffffffffffff\n      and\n      dup2\n      mstore\n      0x20\n      add\n      swap1\n      dup2\n      mstore\n      0x20\n      add\n      0x00\n      keccak256\n      sload\n        /* \"contracts/ERC20.sol\":2731:2753  _balances[account].add */\n      tag_127\n      swap1\n        /* \"contracts/ERC20.sol\":2731:2761  _balances[account].add(amount) */\n      swap2\n      swap1\n      0xffffffff\n      and\n      jump\t// in\n    tag_145:\n        /* \"contracts/ERC20.sol\":2710:2719  _balances */\n      0x00\n        /* \"contracts/ERC20.sol\":2710:2728  _balances[account] */\n      dup1\n        /* \"contracts/ERC20.sol\":2720:2727  account */\n      dup5\n        /* \"contracts/ERC20.sol\":2710:2728  _balances[account] */\n      0xffffffffffffffffffffffffffffffffffffffff\n      and\n      0xffffffffffffffffffffffffffffffffffffffff\n      and\n      dup2\n      mstore\n      0x20\n      add\n      swap1\n      dup2\n      mstore\n      0x20\n      add\n      0x00\n      keccak256\n        /* \"contracts/ERC20.sol\":2710:2761  _balances[account] = _balances[account].add(amount) */\n      dup2\n      swap1\n      sstore\n      pop\n        /* \"contracts/ERC20.sol\":2791:2798  account */\n      dup2\n        /* \"contracts/ERC20.sol\":2770:2807  Transfer(address(0), account, amount) */\n      0xffffffffffffffffffffffffffffffffffffffff\n      and\n        /* \"contracts/ERC20.sol\":2787:2788  0 */\n      0x00\n        /* \"contracts/ERC20.sol\":2770:2807  Transfer(address(0), account, amount) */\n      0xffffffffffffffffffffffffffffffffffffffff\n      and\n      0xddf252ad1be2c89b69c2b068fc378daa952ba7f163c4a11628f55a4df523b3ef\n        /* \"contracts/ERC20.sol\":2800:2806  amount */\n      dup4\n        /* \"contracts/ERC20.sol\":2770:2807  Transfer(address(0), account, amount) */\n      mload(0x40)\n      tag_146\n      swap2\n      swap1\n      jump(tag_31)\n    tag_146:\n      mload(0x40)\n      dup1\n      swap2\n      sub\n      swap1\n      log3\n        /* \"contracts/ERC20.sol\":2528:2811  function _mint(address account, uint256 amount)... */\n      pop\n      pop\n      jump\t// out\n        /* \"contracts/libs/SafeMath.sol\":798:923  function add(uint256 a, uint256 b) internal pure returns (uint256) { return add(a, b, \"SafeMath: addition overflow\");       } */\n    tag_127:\n        /* \"contracts/libs/SafeMath.sol\":856:863  uint256 */\n      0x00\n        /* \"contracts/libs/SafeMath.sol\":874:914  add(a, b, \"SafeMath: addition overflow\") */\n      tag_148\n        /* \"contracts/libs/SafeMath.sol\":878:879  a */\n      dup4\n        /* \"contracts/libs/SafeMath.sol\":881:882  b */\n      dup4\n        /* \"contracts/libs/SafeMath.sol\":874:914  add(a, b, \"SafeMath: addition overflow\") */\n      mload(0x40)\n      dup1\n      0x40\n      add\n      0x40\n      mstore\n      dup1\n      0x1b\n      dup2\n      mstore\n      0x20\n      add\n      0x536166654d6174683a206164646974696f6e206f766572666c6f770000000000\n      dup2\n      mstore\n      pop\n        /* \"contracts/libs/SafeMath.sol\":874:877  add */\n      tag_149\n        /* \"contracts/libs/SafeMath.sol\":874:914  add(a, b, \"SafeMath: addition overflow\") */\n      jump\t// in\n    tag_148:\n        /* \"contracts/libs/SafeMath.sol\":867:914  return add(a, b, \"SafeMath: addition overflow\") */\n      swap1\n      pop\n        /* \"contracts/libs/SafeMath.sol\":798:923  function add(uint256 a, uint256 b) internal pure returns (uint256) { return add(a, b, \"SafeMath: addition overflow\");       } */\n      swap3\n      swap2\n      pop\n      pop\n      jump\t// out\n        /* \"contracts/libs/SafeMath.sol\":925:1050  function sub(uint256 a, uint256 b) internal pure returns (uint256) { return sub(a, b, \"SafeMath: subtraction overflow\");    } */\n    tag_138:\n        /* \"contracts/libs/SafeMath.sol\":983:990  uint256 */\n      0x00\n        /* \"contracts/libs/SafeMath.sol\":1001:1044  sub(a, b, \"SafeMath: subtraction overflow\") */\n      tag_151\n        /* \"contracts/libs/SafeMath.sol\":1005:1006  a */\n      dup4\n        /* \"contracts/libs/SafeMath.sol\":1008:1009  b */\n      dup4\n        /* \"contracts/libs/SafeMath.sol\":1001:1044  sub(a, b, \"SafeMath: subtraction overflow\") */\n      mload(0x40)\n      dup1\n      0x40\n      add\n      0x40\n      mstore\n      dup1\n      0x1e\n      dup2\n      mstore\n      0x20\n      add\n      0x536166654d6174683a207375627472616374696f6e206f766572666c6f770000\n      dup2\n      mstore\n      pop\n        /* \"contracts/libs/SafeMath.sol\":1001:1004  sub */\n      tag_86\n        /* \"contracts/libs/SafeMath.sol\":1001:1044  sub(a, b, \"SafeMath: subtraction overflow\") */\n      jump\t// in\n    tag_151:\n        /* \"contracts/libs/SafeMath.sol\":994:1044  return sub(a, b, \"SafeMath: subtraction overflow\") */\n      swap1\n      pop\n        /* \"contracts/libs/SafeMath.sol\":925:1050  function sub(uint256 a, uint256 b) internal pure returns (uint256) { return sub(a, b, \"SafeMath: subtraction overflow\");    } */\n      swap3\n      swap2\n      pop\n      pop\n      jump\t// out\n        /* \"contracts/libs/SafeMath.sol\":47:197  function add(uint256 a, uint256 b, string memory err)... */\n    tag_149:\n        /* \"contracts/libs/SafeMath.sol\":125:132  uint256 */\n      0x00\n        /* \"contracts/libs/SafeMath.sol\":139:148  uint256 c */\n      dup1\n        /* \"contracts/libs/SafeMath.sol\":155:156  b */\n      dup4\n        /* \"contracts/libs/SafeMath.sol\":151:152  a */\n      dup6\n        /* \"contracts/libs/SafeMath.sol\":151:156  a + b */\n      add\n        /* \"contracts/libs/SafeMath.sol\":139:156  uint256 c = a + b */\n      swap1\n      pop\n        /* \"contracts/libs/SafeMath.sol\":173:174  a */\n      dup5\n        /* \"contracts/libs/SafeMath.sol\":168:169  c */\n      dup2\n        /* \"contracts/libs/SafeMath.sol\":168:174  c >= a */\n      lt\n      iszero\n        /* \"contracts/libs/SafeMath.sol\":176:179  err */\n      dup4\n        /* \"contracts/libs/SafeMath.sol\":160:180  require(c >= a, err) */\n      swap1\n      tag_153\n      jumpi\n      mload(0x40)\n      0x08c379a000000000000000000000000000000000000000000000000000000000\n      dup2\n      mstore\n      0x04\n      add\n      tag_154\n      swap2\n      swap1\n      jump(tag_19)\n    tag_154:\n      mload(0x40)\n      dup1\n      swap2\n      sub\n      swap1\n      revert\n    tag_153:\n      pop\n        /* \"contracts/libs/SafeMath.sol\":192:193  c */\n      dup1\n        /* \"contracts/libs/SafeMath.sol\":185:193  return c */\n      swap2\n      pop\n      pop\n        /* \"contracts/libs/SafeMath.sol\":47:197  function add(uint256 a, uint256 b, string memory err)... */\n      swap4\n      swap3\n      pop\n      pop\n      pop\n      jump\t// out\n        /* \"--CODEGEN--\":5:135   */\n    tag_156:\n      0x00\n        /* \"--CODEGEN--\":85:91   */\n      dup2\n        /* \"--CODEGEN--\":72:92   */\n      calldataload\n        /* \"--CODEGEN--\":63:92   */\n      swap1\n      pop\n        /* \"--CODEGEN--\":97:130   */\n      tag_157\n        /* \"--CODEGEN--\":124:129   */\n      dup2\n        /* \"--CODEGEN--\":97:130   */\n      jump(tag_158)\n    tag_157:\n        /* \"--CODEGEN--\":57:135   */\n      swap3\n      swap2\n      pop\n      pop\n      jump\n        /* \"--CODEGEN--\":142:272   */\n    tag_159:\n      0x00\n        /* \"--CODEGEN--\":222:228   */\n      dup2\n        /* \"--CODEGEN--\":209:229   */\n      calldataload\n        /* \"--CODEGEN--\":200:229   */\n      swap1\n      pop\n        /* \"--CODEGEN--\":234:267   */\n      tag_160\n        /* \"--CODEGEN--\":261:266   */\n      dup2\n        /* \"--CODEGEN--\":234:267   */\n      jump(tag_161)\n    tag_160:\n        /* \"--CODEGEN--\":194:272   */\n      swap3\n      swap2\n      pop\n      pop\n      jump\n        /* \"--CODEGEN--\":279:520   */\n    tag_51:\n      0x00\n        /* \"--CODEGEN--\":383:385   */\n      0x20\n        /* \"--CODEGEN--\":371:380   */\n      dup3\n        /* \"--CODEGEN--\":362:369   */\n      dup5\n        /* \"--CODEGEN--\":358:381   */\n      sub\n        /* \"--CODEGEN--\":354:386   */\n      slt\n        /* \"--CODEGEN--\":351:353   */\n      iszero\n      tag_162\n      jumpi\n        /* \"--CODEGEN--\":399:400   */\n      0x00\n        /* \"--CODEGEN--\":396:397   */\n      dup1\n        /* \"--CODEGEN--\":389:401   */\n      revert\n        /* \"--CODEGEN--\":351:353   */\n    tag_162:\n        /* \"--CODEGEN--\":434:435   */\n      0x00\n        /* \"--CODEGEN--\":451:504   */\n      tag_163\n        /* \"--CODEGEN--\":496:503   */\n      dup5\n        /* \"--CODEGEN--\":487:493   */\n      dup3\n        /* \"--CODEGEN--\":476:485   */\n      dup6\n        /* \"--CODEGEN--\":472:494   */\n      add\n        /* \"--CODEGEN--\":451:504   */\n      jump(tag_156)\n    tag_163:\n        /* \"--CODEGEN--\":441:504   */\n      swap2\n      pop\n        /* \"--CODEGEN--\":413:510   */\n      pop\n        /* \"--CODEGEN--\":345:520   */\n      swap3\n      swap2\n      pop\n      pop\n      jump\n        /* \"--CODEGEN--\":527:893   */\n    tag_70:\n      0x00\n      dup1\n        /* \"--CODEGEN--\":648:650   */\n      0x40\n        /* \"--CODEGEN--\":636:645   */\n      dup4\n        /* \"--CODEGEN--\":627:634   */\n      dup6\n        /* \"--CODEGEN--\":623:646   */\n      sub\n        /* \"--CODEGEN--\":619:651   */\n      slt\n        /* \"--CODEGEN--\":616:618   */\n      iszero\n      tag_164\n      jumpi\n        /* \"--CODEGEN--\":664:665   */\n      0x00\n        /* \"--CODEGEN--\":661:662   */\n      dup1\n        /* \"--CODEGEN--\":654:666   */\n      revert\n        /* \"--CODEGEN--\":616:618   */\n    tag_164:\n        /* \"--CODEGEN--\":699:700   */\n      0x00\n        /* \"--CODEGEN--\":716:769   */\n      tag_165\n        /* \"--CODEGEN--\":761:768   */\n      dup6\n        /* \"--CODEGEN--\":752:758   */\n      dup3\n        /* \"--CODEGEN--\":741:750   */\n      dup7\n        /* \"--CODEGEN--\":737:759   */\n      add\n        /* \"--CODEGEN--\":716:769   */\n      jump(tag_156)\n    tag_165:\n        /* \"--CODEGEN--\":706:769   */\n      swap3\n      pop\n        /* \"--CODEGEN--\":678:775   */\n      pop\n        /* \"--CODEGEN--\":806:808   */\n      0x20\n        /* \"--CODEGEN--\":824:877   */\n      tag_166\n        /* \"--CODEGEN--\":869:876   */\n      dup6\n        /* \"--CODEGEN--\":860:866   */\n      dup3\n        /* \"--CODEGEN--\":849:858   */\n      dup7\n        /* \"--CODEGEN--\":845:867   */\n      add\n        /* \"--CODEGEN--\":824:877   */\n      jump(tag_156)\n    tag_166:\n        /* \"--CODEGEN--\":814:877   */\n      swap2\n      pop\n        /* \"--CODEGEN--\":785:883   */\n      pop\n        /* \"--CODEGEN--\":610:893   */\n      swap3\n      pop\n      swap3\n      swap1\n      pop\n      jump\n        /* \"--CODEGEN--\":900:1391   */\n    tag_35:\n      0x00\n      dup1\n      0x00\n        /* \"--CODEGEN--\":1038:1040   */\n      0x60\n        /* \"--CODEGEN--\":1026:1035   */\n      dup5\n        /* \"--CODEGEN--\":1017:1024   */\n      dup7\n        /* \"--CODEGEN--\":1013:1036   */\n      sub\n        /* \"--CODEGEN--\":1009:1041   */\n      slt\n        /* \"--CODEGEN--\":1006:1008   */\n      iszero\n      tag_167\n      jumpi\n        /* \"--CODEGEN--\":1054:1055   */\n      0x00\n        /* \"--CODEGEN--\":1051:1052   */\n      dup1\n        /* \"--CODEGEN--\":1044:1056   */\n      revert\n        /* \"--CODEGEN--\":1006:1008   */\n    tag_167:\n        /* \"--CODEGEN--\":1089:1090   */\n      0x00\n        /* \"--CODEGEN--\":1106:1159   */\n      tag_168\n        /* \"--CODEGEN--\":1151:1158   */\n      dup7\n        /* \"--CODEGEN--\":1142:1148   */\n      dup3\n        /* \"--CODEGEN--\":1131:1140   */\n      dup8\n        /* \"--CODEGEN--\":1127:1149   */\n      add\n        /* \"--CODEGEN--\":1106:1159   */\n      jump(tag_156)\n    tag_168:\n        /* \"--CODEGEN--\":1096:1159   */\n      swap4\n      pop\n        /* \"--CODEGEN--\":1068:1165   */\n      pop\n        /* \"--CODEGEN--\":1196:1198   */\n      0x20\n        /* \"--CODEGEN--\":1214:1267   */\n      tag_169\n        /* \"--CODEGEN--\":1259:1266   */\n      dup7\n        /* \"--CODEGEN--\":1250:1256   */\n      dup3\n        /* \"--CODEGEN--\":1239:1248   */\n      dup8\n        /* \"--CODEGEN--\":1235:1257   */\n      add\n        /* \"--CODEGEN--\":1214:1267   */\n      jump(tag_156)\n    tag_169:\n        /* \"--CODEGEN--\":1204:1267   */\n      swap3\n      pop\n        /* \"--CODEGEN--\":1175:1273   */\n      pop\n        /* \"--CODEGEN--\":1304:1306   */\n      0x40\n        /* \"--CODEGEN--\":1322:1375   */\n      tag_170\n        /* \"--CODEGEN--\":1367:1374   */\n      dup7\n        /* \"--CODEGEN--\":1358:1364   */\n      dup3\n        /* \"--CODEGEN--\":1347:1356   */\n      dup8\n        /* \"--CODEGEN--\":1343:1365   */\n      add\n        /* \"--CODEGEN--\":1322:1375   */\n      jump(tag_159)\n    tag_170:\n        /* \"--CODEGEN--\":1312:1375   */\n      swap2\n      pop\n        /* \"--CODEGEN--\":1283:1381   */\n      pop\n        /* \"--CODEGEN--\":1000:1391   */\n      swap3\n      pop\n      swap3\n      pop\n      swap3\n      jump\n        /* \"--CODEGEN--\":1398:1764   */\n    tag_23:\n      0x00\n      dup1\n        /* \"--CODEGEN--\":1519:1521   */\n      0x40\n        /* \"--CODEGEN--\":1507:1516   */\n      dup4\n        /* \"--CODEGEN--\":1498:1505   */\n      dup6\n        /* \"--CODEGEN--\":1494:1517   */\n      sub\n        /* \"--CODEGEN--\":1490:1522   */\n      slt\n        /* \"--CODEGEN--\":1487:1489   */\n      iszero\n      tag_171\n      jumpi\n        /* \"--CODEGEN--\":1535:1536   */\n      0x00\n        /* \"--CODEGEN--\":1532:1533   */\n      dup1\n        /* \"--CODEGEN--\":1525:1537   */\n      revert\n        /* \"--CODEGEN--\":1487:1489   */\n    tag_171:\n        /* \"--CODEGEN--\":1570:1571   */\n      0x00\n        /* \"--CODEGEN--\":1587:1640   */\n      tag_172\n        /* \"--CODEGEN--\":1632:1639   */\n      dup6\n        /* \"--CODEGEN--\":1623:1629   */\n      dup3\n        /* \"--CODEGEN--\":1612:1621   */\n      dup7\n        /* \"--CODEGEN--\":1608:1630   */\n      add\n        /* \"--CODEGEN--\":1587:1640   */\n      jump(tag_156)\n    tag_172:\n        /* \"--CODEGEN--\":1577:1640   */\n      swap3\n      pop\n        /* \"--CODEGEN--\":1549:1646   */\n      pop\n        /* \"--CODEGEN--\":1677:1679   */\n      0x20\n        /* \"--CODEGEN--\":1695:1748   */\n      tag_173\n        /* \"--CODEGEN--\":1740:1747   */\n      dup6\n        /* \"--CODEGEN--\":1731:1737   */\n      dup3\n        /* \"--CODEGEN--\":1720:1729   */\n      dup7\n        /* \"--CODEGEN--\":1716:1738   */\n      add\n        /* \"--CODEGEN--\":1695:1748   */\n      jump(tag_159)\n    tag_173:\n        /* \"--CODEGEN--\":1685:1748   */\n      swap2\n      pop\n        /* \"--CODEGEN--\":1656:1754   */\n      pop\n        /* \"--CODEGEN--\":1481:1764   */\n      swap3\n      pop\n      swap3\n      swap1\n      pop\n      jump\n        /* \"--CODEGEN--\":1771:2012   */\n    tag_41:\n      0x00\n        /* \"--CODEGEN--\":1875:1877   */\n      0x20\n        /* \"--CODEGEN--\":1863:1872   */\n      dup3\n        /* \"--CODEGEN--\":1854:1861   */\n      dup5\n        /* \"--CODEGEN--\":1850:1873   */\n      sub\n        /* \"--CODEGEN--\":1846:1878   */\n      slt\n        /* \"--CODEGEN--\":1843:1845   */\n      iszero\n      tag_174\n      jumpi\n        /* \"--CODEGEN--\":1891:1892   */\n      0x00\n        /* \"--CODEGEN--\":1888:1889   */\n      dup1\n        /* \"--CODEGEN--\":1881:1893   */\n      revert\n        /* \"--CODEGEN--\":1843:1845   */\n    tag_174:\n        /* \"--CODEGEN--\":1926:1927   */\n      0x00\n        /* \"--CODEGEN--\":1943:1996   */\n      tag_175\n        /* \"--CODEGEN--\":1988:1995   */\n      dup5\n        /* \"--CODEGEN--\":1979:1985   */\n      dup3\n        /* \"--CODEGEN--\":1968:1977   */\n      dup6\n        /* \"--CODEGEN--\":1964:1986   */\n      add\n        /* \"--CODEGEN--\":1943:1996   */\n      jump(tag_159)\n    tag_175:\n        /* \"--CODEGEN--\":1933:1996   */\n      swap2\n      pop\n        /* \"--CODEGEN--\":1905:2002   */\n      pop\n        /* \"--CODEGEN--\":1837:2012   */\n      swap3\n      swap2\n      pop\n      pop\n      jump\n        /* \"--CODEGEN--\":2019:2123   */\n    tag_176:\n        /* \"--CODEGEN--\":2096:2117   */\n      tag_177\n        /* \"--CODEGEN--\":2111:2116   */\n      dup2\n        /* \"--CODEGEN--\":2096:2117   */\n      jump(tag_178)\n    tag_177:\n        /* \"--CODEGEN--\":2091:2094   */\n      dup3\n        /* \"--CODEGEN--\":2084:2118   */\n      mstore\n        /* \"--CODEGEN--\":2078:2123   */\n      pop\n      pop\n      jump\n        /* \"--CODEGEN--\":2130:2477   */\n    tag_179:\n      0x00\n        /* \"--CODEGEN--\":2242:2281   */\n      tag_180\n        /* \"--CODEGEN--\":2275:2280   */\n      dup3\n        /* \"--CODEGEN--\":2242:2281   */\n      jump(tag_181)\n    tag_180:\n        /* \"--CODEGEN--\":2293:2364   */\n      tag_182\n        /* \"--CODEGEN--\":2357:2363   */\n      dup2\n        /* \"--CODEGEN--\":2352:2355   */\n      dup6\n        /* \"--CODEGEN--\":2293:2364   */\n      jump(tag_183)\n    tag_182:\n        /* \"--CODEGEN--\":2286:2364   */\n      swap4\n      pop\n        /* \"--CODEGEN--\":2369:2421   */\n      tag_184\n        /* \"--CODEGEN--\":2414:2420   */\n      dup2\n        /* \"--CODEGEN--\":2409:2412   */\n      dup6\n        /* \"--CODEGEN--\":2402:2406   */\n      0x20\n        /* \"--CODEGEN--\":2395:2400   */\n      dup7\n        /* \"--CODEGEN--\":2391:2407   */\n      add\n        /* \"--CODEGEN--\":2369:2421   */\n      jump(tag_185)\n    tag_184:\n        /* \"--CODEGEN--\":2442:2471   */\n      tag_186\n        /* \"--CODEGEN--\":2464:2470   */\n      dup2\n        /* \"--CODEGEN--\":2442:2471   */\n      jump(tag_187)\n    tag_186:\n        /* \"--CODEGEN--\":2437:2440   */\n      dup5\n        /* \"--CODEGEN--\":2433:2472   */\n      add\n        /* \"--CODEGEN--\":2426:2472   */\n      swap2\n      pop\n        /* \"--CODEGEN--\":2222:2477   */\n      pop\n      swap3\n      swap2\n      pop\n      pop\n      jump\n        /* \"--CODEGEN--\":2485:2857   */\n    tag_188:\n      0x00\n        /* \"--CODEGEN--\":2645:2712   */\n      tag_189\n        /* \"--CODEGEN--\":2709:2711   */\n      0x23\n        /* \"--CODEGEN--\":2704:2707   */\n      dup4\n        /* \"--CODEGEN--\":2645:2712   */\n      jump(tag_183)\n    tag_189:\n        /* \"--CODEGEN--\":2638:2712   */\n      swap2\n      pop\n        /* \"--CODEGEN--\":2745:2779   */\n      0x45524332303a207472616e7366657220746f20746865207a65726f2061646472\n        /* \"--CODEGEN--\":2741:2742   */\n      0x00\n        /* \"--CODEGEN--\":2736:2739   */\n      dup4\n        /* \"--CODEGEN--\":2732:2743   */\n      add\n        /* \"--CODEGEN--\":2725:2780   */\n      mstore\n        /* \"--CODEGEN--\":2814:2819   */\n      0x6573730000000000000000000000000000000000000000000000000000000000\n        /* \"--CODEGEN--\":2809:2811   */\n      0x20\n        /* \"--CODEGEN--\":2804:2807   */\n      dup4\n        /* \"--CODEGEN--\":2800:2812   */\n      add\n        /* \"--CODEGEN--\":2793:2820   */\n      mstore\n        /* \"--CODEGEN--\":2848:2850   */\n      0x40\n        /* \"--CODEGEN--\":2843:2846   */\n      dup3\n        /* \"--CODEGEN--\":2839:2851   */\n      add\n        /* \"--CODEGEN--\":2832:2851   */\n      swap1\n      pop\n        /* \"--CODEGEN--\":2631:2857   */\n      swap2\n      swap1\n      pop\n      jump\n        /* \"--CODEGEN--\":2866:3237   */\n    tag_190:\n      0x00\n        /* \"--CODEGEN--\":3026:3093   */\n      tag_191\n        /* \"--CODEGEN--\":3090:3092   */\n      0x22\n        /* \"--CODEGEN--\":3085:3088   */\n      dup4\n        /* \"--CODEGEN--\":3026:3093   */\n      jump(tag_183)\n    tag_191:\n        /* \"--CODEGEN--\":3019:3093   */\n      swap2\n      pop\n        /* \"--CODEGEN--\":3126:3160   */\n      0x45524332303a20617070726f766520746f20746865207a65726f206164647265\n        /* \"--CODEGEN--\":3122:3123   */\n      0x00\n        /* \"--CODEGEN--\":3117:3120   */\n      dup4\n        /* \"--CODEGEN--\":3113:3124   */\n      add\n        /* \"--CODEGEN--\":3106:3161   */\n      mstore\n        /* \"--CODEGEN--\":3195:3199   */\n      0x7373000000000000000000000000000000000000000000000000000000000000\n        /* \"--CODEGEN--\":3190:3192   */\n      0x20\n        /* \"--CODEGEN--\":3185:3188   */\n      dup4\n        /* \"--CODEGEN--\":3181:3193   */\n      add\n        /* \"--CODEGEN--\":3174:3200   */\n      mstore\n        /* \"--CODEGEN--\":3228:3230   */\n      0x40\n        /* \"--CODEGEN--\":3223:3226   */\n      dup3\n        /* \"--CODEGEN--\":3219:3231   */\n      add\n        /* \"--CODEGEN--\":3212:3231   */\n      swap1\n      pop\n        /* \"--CODEGEN--\":3012:3237   */\n      swap2\n      swap1\n      pop\n      jump\n        /* \"--CODEGEN--\":3246:3616   */\n    tag_192:\n      0x00\n        /* \"--CODEGEN--\":3406:3473   */\n      tag_193\n        /* \"--CODEGEN--\":3470:3472   */\n      0x21\n        /* \"--CODEGEN--\":3465:3468   */\n      dup4\n        /* \"--CODEGEN--\":3406:3473   */\n      jump(tag_183)\n    tag_193:\n        /* \"--CODEGEN--\":3399:3473   */\n      swap2\n      pop\n        /* \"--CODEGEN--\":3506:3540   */\n      0x45524332303a206275726e2066726f6d20746865207a65726f20616464726573\n        /* \"--CODEGEN--\":3502:3503   */\n      0x00\n        /* \"--CODEGEN--\":3497:3500   */\n      dup4\n        /* \"--CODEGEN--\":3493:3504   */\n      add\n        /* \"--CODEGEN--\":3486:3541   */\n      mstore\n        /* \"--CODEGEN--\":3575:3578   */\n      0x7300000000000000000000000000000000000000000000000000000000000000\n        /* \"--CODEGEN--\":3570:3572   */\n      0x20\n        /* \"--CODEGEN--\":3565:3568   */\n      dup4\n        /* \"--CODEGEN--\":3561:3573   */\n      add\n        /* \"--CODEGEN--\":3554:3579   */\n      mstore\n        /* \"--CODEGEN--\":3607:3609   */\n      0x40\n        /* \"--CODEGEN--\":3602:3605   */\n      dup3\n        /* \"--CODEGEN--\":3598:3610   */\n      add\n        /* \"--CODEGEN--\":3591:3610   */\n      swap1\n      pop\n        /* \"--CODEGEN--\":3392:3616   */\n      swap2\n      swap1\n      pop\n      jump\n        /* \"--CODEGEN--\":3625:3999   */\n    tag_194:\n      0x00\n        /* \"--CODEGEN--\":3785:3852   */\n      tag_195\n        /* \"--CODEGEN--\":3849:3851   */\n      0x25\n        /* \"--CODEGEN--\":3844:3847   */\n      dup4\n        /* \"--CODEGEN--\":3785:3852   */\n      jump(tag_183)\n    tag_195:\n        /* \"--CODEGEN--\":3778:3852   */\n      swap2\n      pop\n        /* \"--CODEGEN--\":3885:3919   */\n      0x45524332303a207472616e736665722066726f6d20746865207a65726f206164\n        /* \"--CODEGEN--\":3881:3882   */\n      0x00\n        /* \"--CODEGEN--\":3876:3879   */\n      dup4\n        /* \"--CODEGEN--\":3872:3883   */\n      add\n        /* \"--CODEGEN--\":3865:3920   */\n      mstore\n        /* \"--CODEGEN--\":3954:3961   */\n      0x6472657373000000000000000000000000000000000000000000000000000000\n        /* \"--CODEGEN--\":3949:3951   */\n      0x20\n        /* \"--CODEGEN--\":3944:3947   */\n      dup4\n        /* \"--CODEGEN--\":3940:3952   */\n      add\n        /* \"--CODEGEN--\":3933:3962   */\n      mstore\n        /* \"--CODEGEN--\":3990:3992   */\n      0x40\n        /* \"--CODEGEN--\":3985:3988   */\n      dup3\n        /* \"--CODEGEN--\":3981:3993   */\n      add\n        /* \"--CODEGEN--\":3974:3993   */\n      swap1\n      pop\n        /* \"--CODEGEN--\":3771:3999   */\n      swap2\n      swap1\n      pop\n      jump\n        /* \"--CODEGEN--\":4008:4304   */\n    tag_196:\n      0x00\n        /* \"--CODEGEN--\":4185:4268   */\n      tag_197\n        /* \"--CODEGEN--\":4266:4267   */\n      0x00\n        /* \"--CODEGEN--\":4261:4264   */\n      dup4\n        /* \"--CODEGEN--\":4185:4268   */\n      jump(tag_198)\n    tag_197:\n        /* \"--CODEGEN--\":4178:4268   */\n      swap2\n      pop\n        /* \"--CODEGEN--\":4296:4297   */\n      0x00\n        /* \"--CODEGEN--\":4291:4294   */\n      dup3\n        /* \"--CODEGEN--\":4287:4298   */\n      add\n        /* \"--CODEGEN--\":4280:4298   */\n      swap1\n      pop\n        /* \"--CODEGEN--\":4171:4304   */\n      swap2\n      swap1\n      pop\n      jump\n        /* \"--CODEGEN--\":4313:4686   */\n    tag_199:\n      0x00\n        /* \"--CODEGEN--\":4473:4540   */\n      tag_200\n        /* \"--CODEGEN--\":4537:4539   */\n      0x24\n        /* \"--CODEGEN--\":4532:4535   */\n      dup4\n        /* \"--CODEGEN--\":4473:4540   */\n      jump(tag_183)\n    tag_200:\n        /* \"--CODEGEN--\":4466:4540   */\n      swap2\n      pop\n        /* \"--CODEGEN--\":4573:4607   */\n      0x45524332303a20617070726f76652066726f6d20746865207a65726f20616464\n        /* \"--CODEGEN--\":4569:4570   */\n      0x00\n        /* \"--CODEGEN--\":4564:4567   */\n      dup4\n        /* \"--CODEGEN--\":4560:4571   */\n      add\n        /* \"--CODEGEN--\":4553:4608   */\n      mstore\n        /* \"--CODEGEN--\":4642:4648   */\n      0x7265737300000000000000000000000000000000000000000000000000000000\n        /* \"--CODEGEN--\":4637:4639   */\n      0x20\n        /* \"--CODEGEN--\":4632:4635   */\n      dup4\n        /* \"--CODEGEN--\":4628:4640   */\n      add\n        /* \"--CODEGEN--\":4621:4649   */\n      mstore\n        /* \"--CODEGEN--\":4677:4679   */\n      0x40\n        /* \"--CODEGEN--\":4672:4675   */\n      dup3\n        /* \"--CODEGEN--\":4668:4680   */\n      add\n        /* \"--CODEGEN--\":4661:4680   */\n      swap1\n      pop\n        /* \"--CODEGEN--\":4459:4686   */\n      swap2\n      swap1\n      pop\n      jump\n        /* \"--CODEGEN--\":4695:5026   */\n    tag_201:\n      0x00\n        /* \"--CODEGEN--\":4855:4922   */\n      tag_202\n        /* \"--CODEGEN--\":4919:4921   */\n      0x1f\n        /* \"--CODEGEN--\":4914:4917   */\n      dup4\n        /* \"--CODEGEN--\":4855:4922   */\n      jump(tag_183)\n    tag_202:\n        /* \"--CODEGEN--\":4848:4922   */\n      swap2\n      pop\n        /* \"--CODEGEN--\":4955:4988   */\n      0x45524332303a206d696e7420746f20746865207a65726f206164647265737300\n        /* \"--CODEGEN--\":4951:4952   */\n      0x00\n        /* \"--CODEGEN--\":4946:4949   */\n      dup4\n        /* \"--CODEGEN--\":4942:4953   */\n      add\n        /* \"--CODEGEN--\":4935:4989   */\n      mstore\n        /* \"--CODEGEN--\":5017:5019   */\n      0x20\n        /* \"--CODEGEN--\":5012:5015   */\n      dup3\n        /* \"--CODEGEN--\":5008:5020   */\n      add\n        /* \"--CODEGEN--\":5001:5020   */\n      swap1\n      pop\n        /* \"--CODEGEN--\":4841:5026   */\n      swap2\n      swap1\n      pop\n      jump\n        /* \"--CODEGEN--\":5034:5147   */\n    tag_203:\n        /* \"--CODEGEN--\":5117:5141   */\n      tag_204\n        /* \"--CODEGEN--\":5135:5140   */\n      dup2\n        /* \"--CODEGEN--\":5117:5141   */\n      jump(tag_205)\n    tag_204:\n        /* \"--CODEGEN--\":5112:5115   */\n      dup3\n        /* \"--CODEGEN--\":5105:5142   */\n      mstore\n        /* \"--CODEGEN--\":5099:5147   */\n      pop\n      pop\n      jump\n        /* \"--CODEGEN--\":5154:5261   */\n    tag_206:\n        /* \"--CODEGEN--\":5233:5255   */\n      tag_207\n        /* \"--CODEGEN--\":5249:5254   */\n      dup2\n        /* \"--CODEGEN--\":5233:5255   */\n      jump(tag_208)\n    tag_207:\n        /* \"--CODEGEN--\":5228:5231   */\n      dup3\n        /* \"--CODEGEN--\":5221:5256   */\n      mstore\n        /* \"--CODEGEN--\":5215:5261   */\n      pop\n      pop\n      jump\n        /* \"--CODEGEN--\":5268:5638   */\n    tag_91:\n      0x00\n        /* \"--CODEGEN--\":5466:5613   */\n      tag_209\n        /* \"--CODEGEN--\":5609:5612   */\n      dup3\n        /* \"--CODEGEN--\":5466:5613   */\n      jump(tag_196)\n    tag_209:\n        /* \"--CODEGEN--\":5459:5613   */\n      swap2\n      pop\n        /* \"--CODEGEN--\":5630:5633   */\n      dup2\n        /* \"--CODEGEN--\":5623:5633   */\n      swap1\n      pop\n        /* \"--CODEGEN--\":5447:5638   */\n      swap2\n      swap1\n      pop\n      jump\n        /* \"--CODEGEN--\":5645:5846   */\n    tag_26:\n      0x00\n        /* \"--CODEGEN--\":5757:5759   */\n      0x20\n        /* \"--CODEGEN--\":5746:5755   */\n      dup3\n        /* \"--CODEGEN--\":5742:5760   */\n      add\n        /* \"--CODEGEN--\":5734:5760   */\n      swap1\n      pop\n        /* \"--CODEGEN--\":5771:5836   */\n      tag_210\n        /* \"--CODEGEN--\":5833:5834   */\n      0x00\n        /* \"--CODEGEN--\":5822:5831   */\n      dup4\n        /* \"--CODEGEN--\":5818:5835   */\n      add\n        /* \"--CODEGEN--\":5809:5815   */\n      dup5\n        /* \"--CODEGEN--\":5771:5836   */\n      jump(tag_176)\n    tag_210:\n        /* \"--CODEGEN--\":5728:5846   */\n      swap3\n      swap2\n      pop\n      pop\n      jump\n        /* \"--CODEGEN--\":5853:6154   */\n    tag_19:\n      0x00\n        /* \"--CODEGEN--\":5991:5993   */\n      0x20\n        /* \"--CODEGEN--\":5980:5989   */\n      dup3\n        /* \"--CODEGEN--\":5976:5994   */\n      add\n        /* \"--CODEGEN--\":5968:5994   */\n      swap1\n      pop\n        /* \"--CODEGEN--\":6041:6050   */\n      dup2\n        /* \"--CODEGEN--\":6035:6039   */\n      dup2\n        /* \"--CODEGEN--\":6031:6051   */\n      sub\n        /* \"--CODEGEN--\":6027:6028   */\n      0x00\n        /* \"--CODEGEN--\":6016:6025   */\n      dup4\n        /* \"--CODEGEN--\":6012:6029   */\n      add\n        /* \"--CODEGEN--\":6005:6052   */\n      mstore\n        /* \"--CODEGEN--\":6066:6144   */\n      tag_211\n        /* \"--CODEGEN--\":6139:6143   */\n      dup2\n        /* \"--CODEGEN--\":6130:6136   */\n      dup5\n        /* \"--CODEGEN--\":6066:6144   */\n      jump(tag_179)\n    tag_211:\n        /* \"--CODEGEN--\":6058:6144   */\n      swap1\n      pop\n        /* \"--CODEGEN--\":5962:6154   */\n      swap3\n      swap2\n      pop\n      pop\n      jump\n        /* \"--CODEGEN--\":6161:6568   */\n    tag_124:\n      0x00\n        /* \"--CODEGEN--\":6352:6354   */\n      0x20\n        /* \"--CODEGEN--\":6341:6350   */\n      dup3\n        /* \"--CODEGEN--\":6337:6355   */\n      add\n        /* \"--CODEGEN--\":6329:6355   */\n      swap1\n      pop\n        /* \"--CODEGEN--\":6402:6411   */\n      dup2\n        /* \"--CODEGEN--\":6396:6400   */\n      dup2\n        /* \"--CODEGEN--\":6392:6412   */\n      sub\n        /* \"--CODEGEN--\":6388:6389   */\n      0x00\n        /* \"--CODEGEN--\":6377:6386   */\n      dup4\n        /* \"--CODEGEN--\":6373:6390   */\n      add\n        /* \"--CODEGEN--\":6366:6413   */\n      mstore\n        /* \"--CODEGEN--\":6427:6558   */\n      tag_212\n        /* \"--CODEGEN--\":6553:6557   */\n      dup2\n        /* \"--CODEGEN--\":6427:6558   */\n      jump(tag_188)\n    tag_212:\n        /* \"--CODEGEN--\":6419:6558   */\n      swap1\n      pop\n        /* \"--CODEGEN--\":6323:6568   */\n      swap2\n      swap1\n      pop\n      jump\n        /* \"--CODEGEN--\":6575:6982   */\n    tag_116:\n      0x00\n        /* \"--CODEGEN--\":6766:6768   */\n      0x20\n        /* \"--CODEGEN--\":6755:6764   */\n      dup3\n        /* \"--CODEGEN--\":6751:6769   */\n      add\n        /* \"--CODEGEN--\":6743:6769   */\n      swap1\n      pop\n        /* \"--CODEGEN--\":6816:6825   */\n      dup2\n        /* \"--CODEGEN--\":6810:6814   */\n      dup2\n        /* \"--CODEGEN--\":6806:6826   */\n      sub\n        /* \"--CODEGEN--\":6802:6803   */\n      0x00\n        /* \"--CODEGEN--\":6791:6800   */\n      dup4\n        /* \"--CODEGEN--\":6787:6804   */\n      add\n        /* \"--CODEGEN--\":6780:6827   */\n      mstore\n        /* \"--CODEGEN--\":6841:6972   */\n      tag_213\n        /* \"--CODEGEN--\":6967:6971   */\n      dup2\n        /* \"--CODEGEN--\":6841:6972   */\n      jump(tag_190)\n    tag_213:\n        /* \"--CODEGEN--\":6833:6972   */\n      swap1\n      pop\n        /* \"--CODEGEN--\":6737:6982   */\n      swap2\n      swap1\n      pop\n      jump\n        /* \"--CODEGEN--\":6989:7396   */\n    tag_135:\n      0x00\n        /* \"--CODEGEN--\":7180:7182   */\n      0x20\n        /* \"--CODEGEN--\":7169:7178   */\n      dup3\n        /* \"--CODEGEN--\":7165:7183   */\n      add\n        /* \"--CODEGEN--\":7157:7183   */\n      swap1\n      pop\n        /* \"--CODEGEN--\":7230:7239   */\n      dup2\n        /* \"--CODEGEN--\":7224:7228   */\n      dup2\n        /* \"--CODEGEN--\":7220:7240   */\n      sub\n        /* \"--CODEGEN--\":7216:7217   */\n      0x00\n        /* \"--CODEGEN--\":7205:7214   */\n      dup4\n        /* \"--CODEGEN--\":7201:7218   */\n      add\n        /* \"--CODEGEN--\":7194:7241   */\n      mstore\n        /* \"--CODEGEN--\":7255:7386   */\n      tag_214\n        /* \"--CODEGEN--\":7381:7385   */\n      dup2\n        /* \"--CODEGEN--\":7255:7386   */\n      jump(tag_192)\n    tag_214:\n        /* \"--CODEGEN--\":7247:7386   */\n      swap1\n      pop\n        /* \"--CODEGEN--\":7151:7396   */\n      swap2\n      swap1\n      pop\n      jump\n        /* \"--CODEGEN--\":7403:7810   */\n    tag_121:\n      0x00\n        /* \"--CODEGEN--\":7594:7596   */\n      0x20\n        /* \"--CODEGEN--\":7583:7592   */\n      dup3\n        /* \"--CODEGEN--\":7579:7597   */\n      add\n        /* \"--CODEGEN--\":7571:7597   */\n      swap1\n      pop\n        /* \"--CODEGEN--\":7644:7653   */\n      dup2\n        /* \"--CODEGEN--\":7638:7642   */\n      dup2\n        /* \"--CODEGEN--\":7634:7654   */\n      sub\n        /* \"--CODEGEN--\":7630:7631   */\n      0x00\n        /* \"--CODEGEN--\":7619:7628   */\n      dup4\n        /* \"--CODEGEN--\":7615:7632   */\n      add\n        /* \"--CODEGEN--\":7608:7655   */\n      mstore\n        /* \"--CODEGEN--\":7669:7800   */\n      tag_215\n        /* \"--CODEGEN--\":7795:7799   */\n      dup2\n        /* \"--CODEGEN--\":7669:7800   */\n      jump(tag_194)\n    tag_215:\n        /* \"--CODEGEN--\":7661:7800   */\n      swap1\n      pop\n        /* \"--CODEGEN--\":7565:7810   */\n      swap2\n      swap1\n      pop\n      jump\n        /* \"--CODEGEN--\":7817:8224   */\n    tag_113:\n      0x00\n        /* \"--CODEGEN--\":8008:8010   */\n      0x20\n        /* \"--CODEGEN--\":7997:8006   */\n      dup3\n        /* \"--CODEGEN--\":7993:8011   */\n      add\n        /* \"--CODEGEN--\":7985:8011   */\n      swap1\n      pop\n        /* \"--CODEGEN--\":8058:8067   */\n      dup2\n        /* \"--CODEGEN--\":8052:8056   */\n      dup2\n        /* \"--CODEGEN--\":8048:8068   */\n      sub\n        /* \"--CODEGEN--\":8044:8045   */\n      0x00\n        /* \"--CODEGEN--\":8033:8042   */\n      dup4\n        /* \"--CODEGEN--\":8029:8046   */\n      add\n        /* \"--CODEGEN--\":8022:8069   */\n      mstore\n        /* \"--CODEGEN--\":8083:8214   */\n      tag_216\n        /* \"--CODEGEN--\":8209:8213   */\n      dup2\n        /* \"--CODEGEN--\":8083:8214   */\n      jump(tag_199)\n    tag_216:\n        /* \"--CODEGEN--\":8075:8214   */\n      swap1\n      pop\n        /* \"--CODEGEN--\":7979:8224   */\n      swap2\n      swap1\n      pop\n      jump\n        /* \"--CODEGEN--\":8231:8638   */\n    tag_143:\n      0x00\n        /* \"--CODEGEN--\":8422:8424   */\n      0x20\n        /* \"--CODEGEN--\":8411:8420   */\n      dup3\n        /* \"--CODEGEN--\":8407:8425   */\n      add\n        /* \"--CODEGEN--\":8399:8425   */\n      swap1\n      pop\n        /* \"--CODEGEN--\":8472:8481   */\n      dup2\n        /* \"--CODEGEN--\":8466:8470   */\n      dup2\n        /* \"--CODEGEN--\":8462:8482   */\n      sub\n        /* \"--CODEGEN--\":8458:8459   */\n      0x00\n        /* \"--CODEGEN--\":8447:8456   */\n      dup4\n        /* \"--CODEGEN--\":8443:8460   */\n      add\n        /* \"--CODEGEN--\":8436:8483   */\n      mstore\n        /* \"--CODEGEN--\":8497:8628   */\n      tag_217\n        /* \"--CODEGEN--\":8623:8627   */\n      dup2\n        /* \"--CODEGEN--\":8497:8628   */\n      jump(tag_201)\n    tag_217:\n        /* \"--CODEGEN--\":8489:8628   */\n      swap1\n      pop\n        /* \"--CODEGEN--\":8393:8638   */\n      swap2\n      swap1\n      pop\n      jump\n        /* \"--CODEGEN--\":8645:8858   */\n    tag_31:\n      0x00\n        /* \"--CODEGEN--\":8763:8765   */\n      0x20\n        /* \"--CODEGEN--\":8752:8761   */\n      dup3\n        /* \"--CODEGEN--\":8748:8766   */\n      add\n        /* \"--CODEGEN--\":8740:8766   */\n      swap1\n      pop\n        /* \"--CODEGEN--\":8777:8848   */\n      tag_218\n        /* \"--CODEGEN--\":8845:8846   */\n      0x00\n        /* \"--CODEGEN--\":8834:8843   */\n      dup4\n        /* \"--CODEGEN--\":8830:8847   */\n      add\n        /* \"--CODEGEN--\":8821:8827   */\n      dup5\n        /* \"--CODEGEN--\":8777:8848   */\n      jump(tag_203)\n    tag_218:\n        /* \"--CODEGEN--\":8734:8858   */\n      swap3\n      swap2\n      pop\n      pop\n      jump\n        /* \"--CODEGEN--\":8865:9070   */\n    tag_47:\n      0x00\n        /* \"--CODEGEN--\":8979:8981   */\n      0x20\n        /* \"--CODEGEN--\":8968:8977   */\n      dup3\n        /* \"--CODEGEN--\":8964:8982   */\n      add\n        /* \"--CODEGEN--\":8956:8982   */\n      swap1\n      pop\n        /* \"--CODEGEN--\":8993:9060   */\n      tag_219\n        /* \"--CODEGEN--\":9057:9058   */\n      0x00\n        /* \"--CODEGEN--\":9046:9055   */\n      dup4\n        /* \"--CODEGEN--\":9042:9059   */\n      add\n        /* \"--CODEGEN--\":9033:9039   */\n      dup5\n        /* \"--CODEGEN--\":8993:9060   */\n      jump(tag_206)\n    tag_219:\n        /* \"--CODEGEN--\":8950:9070   */\n      swap3\n      swap2\n      pop\n      pop\n      jump\n        /* \"--CODEGEN--\":9077:9199   */\n    tag_181:\n      0x00\n        /* \"--CODEGEN--\":9171:9176   */\n      dup2\n        /* \"--CODEGEN--\":9165:9177   */\n      mload\n        /* \"--CODEGEN--\":9155:9177   */\n      swap1\n      pop\n        /* \"--CODEGEN--\":9136:9199   */\n      swap2\n      swap1\n      pop\n      jump\n        /* \"--CODEGEN--\":9207:9351   */\n    tag_198:\n      0x00\n        /* \"--CODEGEN--\":9342:9345   */\n      dup2\n        /* \"--CODEGEN--\":9327:9345   */\n      swap1\n      pop\n        /* \"--CODEGEN--\":9320:9351   */\n      swap3\n      swap2\n      pop\n      pop\n      jump\n        /* \"--CODEGEN--\":9360:9523   */\n    tag_183:\n      0x00\n        /* \"--CODEGEN--\":9475:9481   */\n      dup3\n        /* \"--CODEGEN--\":9470:9473   */\n      dup3\n        /* \"--CODEGEN--\":9463:9482   */\n      mstore\n        /* \"--CODEGEN--\":9512:9516   */\n      0x20\n        /* \"--CODEGEN--\":9507:9510   */\n      dup3\n        /* \"--CODEGEN--\":9503:9517   */\n      add\n        /* \"--CODEGEN--\":9488:9517   */\n      swap1\n      pop\n        /* \"--CODEGEN--\":9456:9523   */\n      swap3\n      swap2\n      pop\n      pop\n      jump\n        /* \"--CODEGEN--\":9531:9622   */\n    tag_220:\n      0x00\n        /* \"--CODEGEN--\":9593:9617   */\n      tag_221\n        /* \"--CODEGEN--\":9611:9616   */\n      dup3\n        /* \"--CODEGEN--\":9593:9617   */\n      jump(tag_222)\n    tag_221:\n        /* \"--CODEGEN--\":9582:9617   */\n      swap1\n      pop\n        /* \"--CODEGEN--\":9576:9622   */\n      swap2\n      swap1\n      pop\n      jump\n        /* \"--CODEGEN--\":9629:9714   */\n    tag_178:\n      0x00\n        /* \"--CODEGEN--\":9702:9707   */\n      dup2\n        /* \"--CODEGEN--\":9695:9708   */\n      iszero\n        /* \"--CODEGEN--\":9688:9709   */\n      iszero\n        /* \"--CODEGEN--\":9677:9709   */\n      swap1\n      pop\n        /* \"--CODEGEN--\":9671:9714   */\n      swap2\n      swap1\n      pop\n      jump\n        /* \"--CODEGEN--\":9721:9842   */\n    tag_222:\n      0x00\n        /* \"--CODEGEN--\":9794:9836   */\n      0xffffffffffffffffffffffffffffffffffffffff\n        /* \"--CODEGEN--\":9787:9792   */\n      dup3\n        /* \"--CODEGEN--\":9783:9837   */\n      and\n        /* \"--CODEGEN--\":9772:9837   */\n      swap1\n      pop\n        /* \"--CODEGEN--\":9766:9842   */\n      swap2\n      swap1\n      pop\n      jump\n        /* \"--CODEGEN--\":9849:9921   */\n    tag_205:\n      0x00\n        /* \"--CODEGEN--\":9911:9916   */\n      dup2\n        /* \"--CODEGEN--\":9900:9916   */\n      swap1\n      pop\n        /* \"--CODEGEN--\":9894:9921   */\n      swap2\n      swap1\n      pop\n      jump\n        /* \"--CODEGEN--\":9928:10009   */\n    tag_208:\n      0x00\n        /* \"--CODEGEN--\":9999:10003   */\n      0xff\n        /* \"--CODEGEN--\":9992:9997   */\n      dup3\n        /* \"--CODEGEN--\":9988:10004   */\n      and\n        /* \"--CODEGEN--\":9977:10004   */\n      swap1\n      pop\n        /* \"--CODEGEN--\":9971:10009   */\n      swap2\n      swap1\n      pop\n      jump\n        /* \"--CODEGEN--\":10017:10285   */\n    tag_185:\n        /* \"--CODEGEN--\":10082:10083   */\n      0x00\n        /* \"--CODEGEN--\":10089:10190   */\n    tag_223:\n        /* \"--CODEGEN--\":10103:10109   */\n      dup4\n        /* \"--CODEGEN--\":10100:10101   */\n      dup2\n        /* \"--CODEGEN--\":10097:10110   */\n      lt\n        /* \"--CODEGEN--\":10089:10190   */\n      iszero\n      tag_225\n      jumpi\n        /* \"--CODEGEN--\":10179:10180   */\n      dup1\n        /* \"--CODEGEN--\":10174:10177   */\n      dup3\n        /* \"--CODEGEN--\":10170:10181   */\n      add\n        /* \"--CODEGEN--\":10164:10182   */\n      mload\n        /* \"--CODEGEN--\":10160:10161   */\n      dup2\n        /* \"--CODEGEN--\":10155:10158   */\n      dup5\n        /* \"--CODEGEN--\":10151:10162   */\n      add\n        /* \"--CODEGEN--\":10144:10183   */\n      mstore\n        /* \"--CODEGEN--\":10125:10127   */\n      0x20\n        /* \"--CODEGEN--\":10122:10123   */\n      dup2\n        /* \"--CODEGEN--\":10118:10128   */\n      add\n        /* \"--CODEGEN--\":10113:10128   */\n      swap1\n      pop\n        /* \"--CODEGEN--\":10089:10190   */\n      jump(tag_223)\n    tag_225:\n        /* \"--CODEGEN--\":10205:10211   */\n      dup4\n        /* \"--CODEGEN--\":10202:10203   */\n      dup2\n        /* \"--CODEGEN--\":10199:10212   */\n      gt\n        /* \"--CODEGEN--\":10196:10198   */\n      iszero\n      tag_226\n      jumpi\n        /* \"--CODEGEN--\":10270:10271   */\n      0x00\n        /* \"--CODEGEN--\":10261:10267   */\n      dup5\n        /* \"--CODEGEN--\":10256:10259   */\n      dup5\n        /* \"--CODEGEN--\":10252:10268   */\n      add\n        /* \"--CODEGEN--\":10245:10272   */\n      mstore\n        /* \"--CODEGEN--\":10196:10198   */\n    tag_226:\n        /* \"--CODEGEN--\":10066:10285   */\n      pop\n      pop\n      pop\n      pop\n      jump\n        /* \"--CODEGEN--\":10293:10390   */\n    tag_187:\n      0x00\n        /* \"--CODEGEN--\":10381:10383   */\n      0x1f\n        /* \"--CODEGEN--\":10377:10384   */\n      not\n        /* \"--CODEGEN--\":10372:10374   */\n      0x1f\n        /* \"--CODEGEN--\":10365:10370   */\n      dup4\n        /* \"--CODEGEN--\":10361:10375   */\n      add\n        /* \"--CODEGEN--\":10357:10385   */\n      and\n        /* \"--CODEGEN--\":10347:10385   */\n      swap1\n      pop\n        /* \"--CODEGEN--\":10341:10390   */\n      swap2\n      swap1\n      pop\n      jump\n        /* \"--CODEGEN--\":10398:10515   */\n    tag_158:\n        /* \"--CODEGEN--\":10467:10491   */\n      tag_227\n        /* \"--CODEGEN--\":10485:10490   */\n      dup2\n        /* \"--CODEGEN--\":10467:10491   */\n      jump(tag_220)\n    tag_227:\n        /* \"--CODEGEN--\":10460:10465   */\n      dup2\n        /* \"--CODEGEN--\":10457:10492   */\n      eq\n        /* \"--CODEGEN--\":10447:10449   */\n      tag_228\n      jumpi\n        /* \"--CODEGEN--\":10506:10507   */\n      0x00\n        /* \"--CODEGEN--\":10503:10504   */\n      dup1\n        /* \"--CODEGEN--\":10496:10508   */\n      revert\n        /* \"--CODEGEN--\":10447:10449   */\n    tag_228:\n        /* \"--CODEGEN--\":10441:10515   */\n      pop\n      jump\n        /* \"--CODEGEN--\":10522:10639   */\n    tag_161:\n        /* \"--CODEGEN--\":10591:10615   */\n      tag_229\n        /* \"--CODEGEN--\":10609:10614   */\n      dup2\n        /* \"--CODEGEN--\":10591:10615   */\n      jump(tag_205)\n    tag_229:\n        /* \"--CODEGEN--\":10584:10589   */\n      dup2\n        /* \"--CODEGEN--\":10581:10616   */\n      eq\n        /* \"--CODEGEN--\":10571:10573   */\n      tag_230\n      jumpi\n        /* \"--CODEGEN--\":10630:10631   */\n      0x00\n        /* \"--CODEGEN--\":10627:10628   */\n      dup1\n        /* \"--CODEGEN--\":10620:10632   */\n      revert\n        /* \"--CODEGEN--\":10571:10573   */\n    tag_230:\n        /* \"--CODEGEN--\":10565:10639   */\n      pop\n      jump\n    stop\n    data_149b126e7125232b4200af45303d04fba8b74653b1a295a6a561a528c33fefdd 45524332303a206275726e20616d6f756e7420657863656564732062616c616e6365\n    data_4107e8a8b9e94bf8ff83080ddec1c0bffe897ebc2241b89d44f66b3d274088b6 45524332303a207472616e7366657220616d6f756e7420657863656564732062616c616e6365\n    data_974d1b4421da69cc60b481194f0dad36a5bb4e23da810da7a7fb30cdba178330 45524332303a207472616e7366657220616d6f756e74206578636565647320616c6c6f77616e6365\n\n    auxdata: 0xa365627a7a72315820c1574b0247e40041b60635d468465e3afb06943be5997aa13f1a48ec38eadec36c6578706572696d656e74616cf564736f6c63430005100040\n}\n",
    "bytecode": {
      "linkReferences": {},
      "object": "60806040523480156200001190610ca75750600080fd5b5060006040518060400160405280600681526020017f657363726f77000000000000000000000000000000000000000000000000000081525060126040518060400160405280600681526020017f657363726f77000000000000000000000000000000000000000000000000000081525082600390805190602001906200009a92919062000340610ca7565b508060049080519060200190620000b392919062000340610ca7565b5081600560006101000a81600080604001519080602001519080600001519050836320966208600052602052602060406024601c600073a193e42526f1fea8c99af609dceabf30c1c29faa7f00000000000000000000000000000000fffffffffffffffffffffffffffffffff15060405183838360009081600001529081602001529081604001525093505050508160ff021916908360ff1602179060008060600151908060400151908060200151908060000151905085856328dcb2a0600052602052604052602060606044601c600073a193e42526f1fea8c99af609dceabf30c1c29faa7f00000000000000000000000000000000fffffffffffffffffffffffffffffffff150606051848484846000908160000152908160200152908160400152908160600152509550505050505050506000841115620000ec90610ca75750620000eb6000806020015190806000015190506373509064600052602060206004601c600073a193e42526f1fea8c99af609dceabf30c1c29faa7f00000000000000000000000000000000fffffffffffffffffffffffffffffffff150602051828260009081600001529081602001525091505085620000f660201b60201c610ca7565b5b5050505062000553610ca7565b600073ffffffffffffffffffffffffffffffffffffffff168273ffffffffffffffffffffffffffffffffffffffff1614156200016990610ca757506040517f08c379a00000000000000000000000000000000000000000000000000000000081526004016200016090620004a7610ca7565b60405180910390fd5b62000185816002600080604001519080602001519080600001519050836320966208600052602052602060406024601c600073a193e42526f1fea8c99af609dceabf30c1c29faa7f00000000000000000000000000000000fffffffffffffffffffffffffffffffff15060405183838360009081600001529081602001529081604001525093505050506200029160201b62000ea71790919060201c610ca7565b6002819060008060600151908060400151908060200151908060000151905085856328dcb2a0600052602052604052602060606044601c600073a193e42526f1fea8c99af609dceabf30c1c29faa7f00000000000000000000000000000000fffffffffffffffffffffffffffffffff15060605184848484600090816000015290816020015290816040015290816060015250955050505050505050620001e3816000808573ffffffffffffffffffffffffffffffffffffffff1673ffffffffffffffffffffffffffffffffffffffff168152602001908152602001600020600080604001519080602001519080600001519050836320966208600052602052602060406024601c600073a193e42526f1fea8c99af609dceabf30c1c29faa7f00000000000000000000000000000000fffffffffffffffffffffffffffffffff15060405183838360009081600001529081602001529081604001525093505050506200029160201b62000ea71790919060201c610ca7565b6000808473ffffffffffffffffffffffffffffffffffffffff1673ffffffffffffffffffffffffffffffffffffffff168152602001908152602001600020819060008060600151908060400151908060200151908060000151905085856328dcb2a0600052602052604052602060606044601c600073a193e42526f1fea8c99af609dceabf30c1c29faa7f00000000000000000000000000000000fffffffffffffffffffffffffffffffff150606051848484846000908160000152908160200152908160400152908160600152509550505050505050508173ffffffffffffffffffffffffffffffffffffffff16600073ffffffffffffffffffffffffffffffffffffffff167fddf252ad1be2c89b69c2b068fc378daa952ba7f163c4a11628f55a4df523b3ef83604051620002859190620004c9610ca7565b60405180910390a35050610ca7565b6000620002db83836040518060400160405280601b81526020017f536166654d6174683a206164646974696f6e206f766572666c6f770000000000815250620002e360201b60201c610ca7565b905092915050610ca7565b60008083850190508481101583906200033490610ca757506040517f08c379a00000000000000000000000000000000000000000000000000000000081526004016200032b919062000483610ca7565b60405180910390fd5b50809150509392505050610ca7565b8280600080604001519080602001519080600001519050836320966208600052602052602060406024601c600073a193e42526f1fea8c99af609dceabf30c1c29faa7f00000000000000000000000000000000fffffffffffffffffffffffffffffffff1506040518383836000908160000152908160200152908160400152509350505050600181600116156101000203166002900490600052602060002090601f016020900481019282601f106200038390610ca75750805160ff1916838001178560008060600151908060400151908060200151908060000151905085856328dcb2a0600052602052604052602060606044601c600073a193e42526f1fea8c99af609dceabf30c1c29faa7f00000000000000000000000000000000fffffffffffffffffffffffffffffffff150606051848484846000908160000152908160200152908160400152908160600152509550505050505050620003b4610ca7565b8280016001018560008060600151908060400151908060200151908060000151905085856328dcb2a0600052602052604052602060606044601c600073a193e42526f1fea8c99af609dceabf30c1c29faa7f00000000000000000000000000000000fffffffffffffffffffffffffffffffff1506060518484848460009081600001529081602001529081604001529081606001525095505050505050508215620003b490610ca757509182015b82811115620003b390610ca7575082518260008060600151908060400151908060200151908060000151905085856328dcb2a0600052602052604052602060606044601c600073a193e42526f1fea8c99af609dceabf30c1c29faa7f00000000000000000000000000000000fffffffffffffffffffffffffffffffff1506060518484848460009081600001529081602001529081604001529081606001525095505050505050509160200191906001019062000396610ca7565b5b509050620003c39190620003c7610ca7565b5090610ca7565b620003ec91905b80821115620003e890610ca7575060008160009060008060600151908060400151908060200151908060000151905085856328dcb2a0600052602052604052602060606044601c600073a193e42526f1fea8c99af609dceabf30c1c29faa7f00000000000000000000000000000000fffffffffffffffffffffffffffffffff15060605184848484600090816000015290816020015290816040015290816060015250955050505050505050600101620003ce610ca7565b5090610ca7565b90610ca7565b6000620003fc82620004e6610ca7565b620004088185620004f1610ca7565b93506200041a8185602086016200050c610ca7565b620004258162000542610ca7565b840191505092915050610ca7565b60006200043f601f83620004f1610ca7565b91507f45524332303a206d696e7420746f20746865207a65726f2061646472657373006000830152602082019050919050610ca7565b6200047d8162000502610ca7565b82525050610ca7565b600060208201905081810360008301526200049f8184620003ef610ca7565b905092915050610ca7565b60006020820190508181036000830152620004c28162000430610ca7565b9050919050610ca7565b6000602082019050620004e0600083018462000472610ca7565b92915050610ca7565b600081519050919050610ca7565b600082825260208201905092915050610ca7565b6000819050919050610ca7565b60005b838110156200052c90610ca7575080820151818401526020810190506200050f610ca7565b838111156200053c90610ca757506000848401525b50505050610ca7565b6000601f19601f8301169050919050610ca7565b62003a9c8063000010646000396000f3fe5b9050565b806103ec14610ade9062000ca35750806103ec1062000e9a57806102db146106bf9062000ca35750806102db1062000db45780610160146103059062000ca35750806101601062000d5b578060eb146102859062000ca357508060eb1062000d3d5780609a1460a29062000ca3575080609a1062000d2e578060111460169062000ca35750005b8060b31460be9062000ca35750005b8060f6146102939062000ca357508060ec146102869062000ca35750005b806101e3146105289062000ca35750806101e31062000d945780610185146103af9062000ca35750806101691461030e9062000ca35750005b80610291146106729062000ca3575080610285146106639062000ca35750005b806103b3146109fe9062000ca35750806103b31062000e415780610340146107329062000ca35750806103401062000e21578061032b1461071a9062000ca357508061032b1062000e1057806102e3146106ca9062000ca35750005b80610334146107239062000ca35750005b80610396146109439062000ca3575080610383146108959062000ca35750005b806103c714610a189062000ca35750806103c71062000e7a57806103c314610a119062000ca35750806103b4146109ff9062000ca35750005b806103e814610ad79062000ca35750806103ce14610a1f9062000ca35750005b806104c214610bdb9062000ca35750806104c21062000f99578061043f14610b469062000ca357508061043f1062000f40578061041a14610b189062000ca357508061041a1062000f2057806103fc14610af49062000ca35750806103fc1062000f0f57806103ef14610ae49062000ca35750005b8061040814610b039062000ca35750005b8061043014610b349062000ca357508061042514610b269062000ca35750005b8061048314610b939062000ca35750806104831062000f79578061047d14610b8a9062000ca357508061047214610b7c9062000ca35750005b806104a714610bbd9062000ca357508061049f14610bb29062000ca35750005b8061050c14610c379062000ca357508061050c106200100b57806104e614610c089062000ca35750806104e61062000feb57806104e014610bff9062000ca35750806104c914610be59062000ca35750005b8061050214610c2a9062000ca35750806104f114610c169062000ca35750005b8061053c14610c749062000ca357508061053c1062001044578061052c14610c5f9062000ca357508061050f14610c3a9062000ca35750005b8061055314610c919062000ca357508061054214610c7d9062000ca35750006080604052600436106100a790612abb575060003560e01c806370a082311161006490612abb5750806370a08231146101d090612abb5750806395d89b411461020d90612abb57508063a3e76c0f1461023890612abb57508063a9059cbb1461024290612abb57508063d0e30db01461027f90612abb57508063dd62ed3e1461028990612abb57506100a7612abb565b806306fdde03146100ac90612abb57508063095ea7b3146100d790612abb5750806318160ddd1461011490612abb5750806323b872dd1461013f90612abb575080632e1a7d4d1461017c90612abb57508063313ce567146101a590612abb57505b600080fd5b3480156100b890612abb5750600080fd5b506100c16102c6612abb565b6040516100ce91906113c6612abb565b60405180910390f35b3480156100e390612abb5750600080fd5b506100fe60048036036100f99190810190611073612abb565b610368612abb565b60405161010b91906113ab612abb565b60405180910390f35b34801561012090612abb5750600080fd5b5061012961037f612abb565b60405161013691906114a8612abb565b60405180910390f35b34801561014b90612abb5750600080fd5b5061016660048036036101619190810190611024612abb565b610389612abb565b60405161017391906113ab612abb565b60405180910390f35b34801561018890612abb5750600080fd5b506101a3600480360361019e91908101906110af612abb565b610454612abb565b005b3480156101b190612abb5750600080fd5b506101ba610516612abb565b6040516101c791906114c3612abb565b60405180910390f35b3480156101dc90612abb5750600080fd5b506101f760048036036101f29190810190610fbf612abb565b61052d612abb565b60405161020491906114a8612abb565b60405180910390f35b34801561021990612abb5750600080fd5b50610222610575612abb565b60405161022f91906113c6612abb565b60405180910390f35b610240610617612abb565b005b34801561024e90612abb5750600080fd5b5061026960048036036102649190810190611073612abb565b610623612abb565b60405161027691906113ab612abb565b60405180910390f35b61028761063a612abb565b005b34801561029590612abb5750600080fd5b506102b060048036036102ab9190810190610fe8612abb565b610646612abb565b6040516102bd91906114a8612abb565b60405180910390f35b6060600380600080604001519080602001519080600001519050836320966208600052602052602060406024601c600073a193e42526f1fea8c99af609dceabf30c1c29faa7f00000000000000000000000000000000fffffffffffffffffffffffffffffffff1506040518383836000908160000152908160200152908160400152509350505050600181600116156101000203166002900480601f01602080910402602001604051908101604052809291908181526020018280600080604001519080602001519080600001519050836320966208600052602052602060406024601c600073a193e42526f1fea8c99af609dceabf30c1c29faa7f00000000000000000000000000000000fffffffffffffffffffffffffffffffff15060405183838360009081600001529081602001529081604001525093505050506001816001161561010002031660029004801561035e90612abb575080601f1061033390612abb57506101008083600080604001519080602001519080600001519050836320966208600052602052602060406024601c600073a193e42526f1fea8c99af609dceabf30c1c29faa7f00000000000000000000000000000000fffffffffffffffffffffffffffffffff150604051838383600090816000015290816020015290816040015250935050505004028352916020019161035e612abb565b820191906000526020600020905b81600080604001519080602001519080600001519050836320966208600052602052602060406024601c600073a193e42526f1fea8c99af609dceabf30c1c29faa7f00000000000000000000000000000000fffffffffffffffffffffffffffffffff15060405183838360009081600001529081602001529081604001525093505050508152906001019060200180831161034190612abb5750829003601f168201915b5050505050905090612abb565b60006103756000806020015190806000015190506373509064600052602060206004601c600073a193e42526f1fea8c99af609dceabf30c1c29faa7f00000000000000000000000000000000fffffffffffffffffffffffffffffffff150602051828260009081600001529081602001525091505084846106cd612abb565b6001905092915050612abb565b60006002600080604001519080602001519080600001519050836320966208600052602052602060406024601c600073a193e42526f1fea8c99af609dceabf30c1c29faa7f00000000000000000000000000000000fffffffffffffffffffffffffffffffff1506040518383836000908160000152908160200152908160400152509350505050905090612abb565b6000610396848484610898612abb565b610449846000806020015190806000015190506373509064600052602060206004601c600073a193e42526f1fea8c99af609dceabf30c1c29faa7f00000000000000000000000000000000fffffffffffffffffffffffffffffffff15060205182826000908160000152908160200152509150506104448560405180606001604052806028815260200162002a8960289139600160008b73ffffffffffffffffffffffffffffffffffffffff1673ffffffffffffffffffffffffffffffffffffffff16815260200190815260200160002060006000806020015190806000015190506373509064600052602060206004601c600073a193e42526f1fea8c99af609dceabf30c1c29faa7f00000000000000000000000000000000fffffffffffffffffffffffffffffffff150602051828260009081600001529081602001525091505073ffffffffffffffffffffffffffffffffffffffff1673ffffffffffffffffffffffffffffffffffffffff168152602001908152602001600020600080604001519080602001519080600001519050836320966208600052602052602060406024601c600073a193e42526f1fea8c99af609dceabf30c1c29faa7f00000000000000000000000000000000fffffffffffffffffffffffffffffffff1506040518383836000908160000152908160200152908160400152509350505050610b229092919063ffffffff16612abb565b6106cd612abb565b600190509392505050612abb565b61045e6000806020015190806000015190506373509064600052602060206004601c600073a193e42526f1fea8c99af609dceabf30c1c29faa7f00000000000000000000000000000000fffffffffffffffffffffffffffffffff150602051828260009081600001529081602001525091505082610b7d612abb565b600060606000806020015190806000015190506373509064600052602060206004601c600073a193e42526f1fea8c99af609dceabf30c1c29faa7f00000000000000000000000000000000fffffffffffffffffffffffffffffffff150602051828260009081600001529081602001525091505073ffffffffffffffffffffffffffffffffffffffff168360405161048690611396612abb565b60006040518083038185875a604084038060200151908060000151908989898988634c6d7c848690816000015290816020015250602490039060240190600073a193e42526f1fea8c99af609dceabf30c1c29faa89f1995090816000015290816020015250505050505050925050503d80600081146104c390612abb57506040519150601f19603f3d011682016040523d82523d6000602084013e6104c8612abb565b606091505b509150915081819061051090612abb57506040517f08c379a000000000000000000000000000000000000000000000000000000000815260040161050791906113c6612abb565b60405180910390fd5b50505050612abb565b60006005600090600080604001519080602001519080600001519050836320966208600052602052602060406024601c600073a193e42526f1fea8c99af609dceabf30c1c29faa7f00000000000000000000000000000000fffffffffffffffffffffffffffffffff1506040518383836000908160000152908160200152908160400152509350505050906101000a900460ff16905090612abb565b60008060008373ffffffffffffffffffffffffffffffffffffffff1673ffffffffffffffffffffffffffffffffffffffff168152602001908152602001600020600080604001519080602001519080600001519050836320966208600052602052602060406024601c600073a193e42526f1fea8c99af609dceabf30c1c29faa7f00000000000000000000000000000000fffffffffffffffffffffffffffffffff15060405183838360009081600001529081602001529081604001525093505050509050919050612abb565b6060600480600080604001519080602001519080600001519050836320966208600052602052602060406024601c600073a193e42526f1fea8c99af609dceabf30c1c29faa7f00000000000000000000000000000000fffffffffffffffffffffffffffffffff1506040518383836000908160000152908160200152908160400152509350505050600181600116156101000203166002900480601f01602080910402602001604051908101604052809291908181526020018280600080604001519080602001519080600001519050836320966208600052602052602060406024601c600073a193e42526f1fea8c99af609dceabf30c1c29faa7f00000000000000000000000000000000fffffffffffffffffffffffffffffffff15060405183838360009081600001529081602001529081604001525093505050506001816001161561010002031660029004801561060d90612abb575080601f106105e290612abb57506101008083600080604001519080602001519080600001519050836320966208600052602052602060406024601c600073a193e42526f1fea8c99af609dceabf30c1c29faa7f00000000000000000000000000000000fffffffffffffffffffffffffffffffff150604051838383600090816000015290816020015290816040015250935050505004028352916020019161060d612abb565b820191906000526020600020905b81600080604001519080602001519080600001519050836320966208600052602052602060406024601c600073a193e42526f1fea8c99af609dceabf30c1c29faa7f00000000000000000000000000000000fffffffffffffffffffffffffffffffff1506040518383836000908160000152908160200152908160400152509350505050815290600101906020018083116105f090612abb5750829003601f168201915b5050505050905090612abb565b6106216000806020015190806000015190506373509064600052602060206004601c600073a193e42526f1fea8c99af609dceabf30c1c29faa7f00000000000000000000000000000000fffffffffffffffffffffffffffffffff150602051828260009081600001529081602001525091505034610d1f612abb565b612abb565b60006106306000806020015190806000015190506373509064600052602060206004601c600073a193e42526f1fea8c99af609dceabf30c1c29faa7f00000000000000000000000000000000fffffffffffffffffffffffffffffffff15060205182826000908160000152908160200152509150508484610898612abb565b6001905092915050612abb565b6106446000806020015190806000015190506373509064600052602060206004601c600073a193e42526f1fea8c99af609dceabf30c1c29faa7f00000000000000000000000000000000fffffffffffffffffffffffffffffffff150602051828260009081600001529081602001525091505034610d1f612abb565b612abb565b6000600160008473ffffffffffffffffffffffffffffffffffffffff1673ffffffffffffffffffffffffffffffffffffffff16815260200190815260200160002060008373ffffffffffffffffffffffffffffffffffffffff1673ffffffffffffffffffffffffffffffffffffffff168152602001908152602001600020600080604001519080602001519080600001519050836320966208600052602052602060406024601c600073a193e42526f1fea8c99af609dceabf30c1c29faa7f00000000000000000000000000000000fffffffffffffffffffffffffffffffff1506040518383836000908160000152908160200152908160400152509350505050905092915050612abb565b600073ffffffffffffffffffffffffffffffffffffffff168373ffffffffffffffffffffffffffffffffffffffff16141561073d90612abb57506040517f08c379a000000000000000000000000000000000000000000000000000000000815260040161073490611468612abb565b60405180910390fd5b600073ffffffffffffffffffffffffffffffffffffffff168273ffffffffffffffffffffffffffffffffffffffff1614156107ad90612abb57506040517f08c379a00000000000000000000000000000000000000000000000000000000081526004016107a490611408612abb565b60405180910390fd5b80600160008573ffffffffffffffffffffffffffffffffffffffff1673ffffffffffffffffffffffffffffffffffffffff16815260200190815260200160002060008473ffffffffffffffffffffffffffffffffffffffff1673ffffffffffffffffffffffffffffffffffffffff168152602001908152602001600020819060008060600151908060400151908060200151908060000151905085856328dcb2a0600052602052604052602060606044601c600073a193e42526f1fea8c99af609dceabf30c1c29faa7f00000000000000000000000000000000fffffffffffffffffffffffffffffffff150606051848484846000908160000152908160200152908160400152908160600152509550505050505050508173ffffffffffffffffffffffffffffffffffffffff168373ffffffffffffffffffffffffffffffffffffffff167f8c5be1e5ebec7d5bd14f71427d1e84f3dd0314c0f7b2291e5b200ac8c7c3b9258360405161088b91906114a8612abb565b60405180910390a3505050612abb565b600073ffffffffffffffffffffffffffffffffffffffff168373ffffffffffffffffffffffffffffffffffffffff16141561090890612abb57506040517f08c379a00000000000000000000000000000000000000000000000000000000081526004016108ff90611448612abb565b60405180910390fd5b600073ffffffffffffffffffffffffffffffffffffffff168273ffffffffffffffffffffffffffffffffffffffff16141561097890612abb57506040517f08c379a000000000000000000000000000000000000000000000000000000000815260040161096f906113e8612abb565b60405180910390fd5b6109e38160405180606001604052806026815260200162002a63602691396000808773ffffffffffffffffffffffffffffffffffffffff1673ffffffffffffffffffffffffffffffffffffffff168152602001908152602001600020600080604001519080602001519080600001519050836320966208600052602052602060406024601c600073a193e42526f1fea8c99af609dceabf30c1c29faa7f00000000000000000000000000000000fffffffffffffffffffffffffffffffff1506040518383836000908160000152908160200152908160400152509350505050610b229092919063ffffffff16612abb565b6000808573ffffffffffffffffffffffffffffffffffffffff1673ffffffffffffffffffffffffffffffffffffffff168152602001908152602001600020819060008060600151908060400151908060200151908060000151905085856328dcb2a0600052602052604052602060606044601c600073a193e42526f1fea8c99af609dceabf30c1c29faa7f00000000000000000000000000000000fffffffffffffffffffffffffffffffff15060605184848484600090816000015290816020015290816040015290816060015250955050505050505050610a76816000808573ffffffffffffffffffffffffffffffffffffffff1673ffffffffffffffffffffffffffffffffffffffff168152602001908152602001600020600080604001519080602001519080600001519050836320966208600052602052602060406024601c600073a193e42526f1fea8c99af609dceabf30c1c29faa7f00000000000000000000000000000000fffffffffffffffffffffffffffffffff1506040518383836000908160000152908160200152908160400152509350505050610ea790919063ffffffff16612abb565b6000808473ffffffffffffffffffffffffffffffffffffffff1673ffffffffffffffffffffffffffffffffffffffff168152602001908152602001600020819060008060600151908060400151908060200151908060000151905085856328dcb2a0600052602052604052602060606044601c600073a193e42526f1fea8c99af609dceabf30c1c29faa7f00000000000000000000000000000000fffffffffffffffffffffffffffffffff150606051848484846000908160000152908160200152908160400152908160600152509550505050505050508173ffffffffffffffffffffffffffffffffffffffff168373ffffffffffffffffffffffffffffffffffffffff167fddf252ad1be2c89b69c2b068fc378daa952ba7f163c4a11628f55a4df523b3ef83604051610b1591906114a8612abb565b60405180910390a3505050612abb565b6000838311158290610b6a90612abb57506040517f08c379a0000000000000000000000000000000000000000000000000000000008152600401610b6191906113c6612abb565b60405180910390fd5b5060008385039050809150509392505050612abb565b600073ffffffffffffffffffffffffffffffffffffffff168273ffffffffffffffffffffffffffffffffffffffff161415610bed90612abb57506040517f08c379a0000000000000000000000000000000000000000000000000000000008152600401610be490611428612abb565b60405180910390fd5b610c588160405180606001604052806022815260200162002a41602291396000808673ffffffffffffffffffffffffffffffffffffffff1673ffffffffffffffffffffffffffffffffffffffff168152602001908152602001600020600080604001519080602001519080600001519050836320966208600052602052602060406024601c600073a193e42526f1fea8c99af609dceabf30c1c29faa7f00000000000000000000000000000000fffffffffffffffffffffffffffffffff1506040518383836000908160000152908160200152908160400152509350505050610b229092919063ffffffff16612abb565b6000808473ffffffffffffffffffffffffffffffffffffffff1673ffffffffffffffffffffffffffffffffffffffff168152602001908152602001600020819060008060600151908060400151908060200151908060000151905085856328dcb2a0600052602052604052602060606044601c600073a193e42526f1fea8c99af609dceabf30c1c29faa7f00000000000000000000000000000000fffffffffffffffffffffffffffffffff15060605184848484600090816000015290816020015290816040015290816060015250955050505050505050610caf816002600080604001519080602001519080600001519050836320966208600052602052602060406024601c600073a193e42526f1fea8c99af609dceabf30c1c29faa7f00000000000000000000000000000000fffffffffffffffffffffffffffffffff1506040518383836000908160000152908160200152908160400152509350505050610ef190919063ffffffff16612abb565b6002819060008060600151908060400151908060200151908060000151905085856328dcb2a0600052602052604052602060606044601c600073a193e42526f1fea8c99af609dceabf30c1c29faa7f00000000000000000000000000000000fffffffffffffffffffffffffffffffff15060605184848484600090816000015290816020015290816040015290816060015250955050505050505050600073ffffffffffffffffffffffffffffffffffffffff168273ffffffffffffffffffffffffffffffffffffffff167fddf252ad1be2c89b69c2b068fc378daa952ba7f163c4a11628f55a4df523b3ef83604051610d1391906114a8612abb565b60405180910390a35050612abb565b600073ffffffffffffffffffffffffffffffffffffffff168273ffffffffffffffffffffffffffffffffffffffff161415610d8f90612abb57506040517f08c379a0000000000000000000000000000000000000000000000000000000008152600401610d8690611488612abb565b60405180910390fd5b610da4816002600080604001519080602001519080600001519050836320966208600052602052602060406024601c600073a193e42526f1fea8c99af609dceabf30c1c29faa7f00000000000000000000000000000000fffffffffffffffffffffffffffffffff1506040518383836000908160000152908160200152908160400152509350505050610ea790919063ffffffff16612abb565b6002819060008060600151908060400151908060200151908060000151905085856328dcb2a0600052602052604052602060606044601c600073a193e42526f1fea8c99af609dceabf30c1c29faa7f00000000000000000000000000000000fffffffffffffffffffffffffffffffff15060605184848484600090816000015290816020015290816040015290816060015250955050505050505050610dfb816000808573ffffffffffffffffffffffffffffffffffffffff1673ffffffffffffffffffffffffffffffffffffffff168152602001908152602001600020600080604001519080602001519080600001519050836320966208600052602052602060406024601c600073a193e42526f1fea8c99af609dceabf30c1c29faa7f00000000000000000000000000000000fffffffffffffffffffffffffffffffff1506040518383836000908160000152908160200152908160400152509350505050610ea790919063ffffffff16612abb565b6000808473ffffffffffffffffffffffffffffffffffffffff1673ffffffffffffffffffffffffffffffffffffffff168152602001908152602001600020819060008060600151908060400151908060200151908060000151905085856328dcb2a0600052602052604052602060606044601c600073a193e42526f1fea8c99af609dceabf30c1c29faa7f00000000000000000000000000000000fffffffffffffffffffffffffffffffff150606051848484846000908160000152908160200152908160400152908160600152509550505050505050508173ffffffffffffffffffffffffffffffffffffffff16600073ffffffffffffffffffffffffffffffffffffffff167fddf252ad1be2c89b69c2b068fc378daa952ba7f163c4a11628f55a4df523b3ef83604051610e9b91906114a8612abb565b60405180910390a35050612abb565b6000610ee983836040518060400160405280601b81526020017f536166654d6174683a206164646974696f6e206f766572666c6f770000000000815250610f3b612abb565b905092915050612abb565b6000610f3383836040518060400160405280601e81526020017f536166654d6174683a207375627472616374696f6e206f766572666c6f770000815250610b22612abb565b905092915050612abb565b6000808385019050848110158390610f8990612abb57506040517f08c379a0000000000000000000000000000000000000000000000000000000008152600401610f8091906113c6612abb565b60405180910390fd5b50809150509392505050612abb565b600081359050610fa48161159e612abb565b92915050612abb565b600081359050610fb9816115b5612abb565b92915050612abb565b600060208284031215610fd190612abb5750600080fd5b6000610fdf84828501610f95612abb565b91505092915050612abb565b60008060408385031215610ffb90612abb5750600080fd5b600061100985828601610f95612abb565b925050602061101a85828601610f95612abb565b9150509250929050612abb565b60008060006060848603121561103990612abb5750600080fd5b600061104786828701610f95612abb565b935050602061105886828701610f95612abb565b925050604061106986828701610faa612abb565b9150509250925092612abb565b6000806040838503121561108690612abb5750600080fd5b600061109485828601610f95612abb565b92505060206110a585828601610faa612abb565b9150509250929050612abb565b6000602082840312156110c190612abb5750600080fd5b60006110cf84828501610faa612abb565b91505092915050612abb565b6110e181611517612abb565b82525050612abb565b60006110f2826114de612abb565b6110fc81856114f4612abb565b935061110c81856020860161155a612abb565b6111158161158d612abb565b840191505092915050612abb565b600061112d6023836114f4612abb565b91507f45524332303a207472616e7366657220746f20746865207a65726f206164647260008301527f65737300000000000000000000000000000000000000000000000000000000006020830152604082019050919050612abb565b60006111936022836114f4612abb565b91507f45524332303a20617070726f766520746f20746865207a65726f20616464726560008301527f73730000000000000000000000000000000000000000000000000000000000006020830152604082019050919050612abb565b60006111f96021836114f4612abb565b91507f45524332303a206275726e2066726f6d20746865207a65726f2061646472657360008301527f73000000000000000000000000000000000000000000000000000000000000006020830152604082019050919050612abb565b600061125f6025836114f4612abb565b91507f45524332303a207472616e736665722066726f6d20746865207a65726f20616460008301527f64726573730000000000000000000000000000000000000000000000000000006020830152604082019050919050612abb565b60006112c56000836114e9612abb565b9150600082019050919050612abb565b60006112df6024836114f4612abb565b91507f45524332303a20617070726f76652066726f6d20746865207a65726f2061646460008301527f72657373000000000000000000000000000000000000000000000000000000006020830152604082019050919050612abb565b6000611345601f836114f4612abb565b91507f45524332303a206d696e7420746f20746865207a65726f2061646472657373006000830152602082019050919050612abb565b61138181611543612abb565b82525050612abb565b6113908161154d612abb565b82525050612abb565b60006113a1826112b8612abb565b9150819050919050612abb565b60006020820190506113c060008301846110d8612abb565b92915050612abb565b600060208201905081810360008301526113e081846110e7612abb565b905092915050612abb565b6000602082019050818103600083015261140181611120612abb565b9050919050612abb565b6000602082019050818103600083015261142181611186612abb565b9050919050612abb565b60006020820190508181036000830152611441816111ec612abb565b9050919050612abb565b6000602082019050818103600083015261146181611252612abb565b9050919050612abb565b60006020820190508181036000830152611481816112d2612abb565b9050919050612abb565b600060208201905081810360008301526114a181611338612abb565b9050919050612abb565b60006020820190506114bd6000830184611378612abb565b92915050612abb565b60006020820190506114d86000830184611387612abb565b92915050612abb565b600081519050919050612abb565b600081905092915050612abb565b600082825260208201905092915050612abb565b600061151082611523612abb565b9050919050612abb565b60008115159050919050612abb565b600073ffffffffffffffffffffffffffffffffffffffff82169050919050612abb565b6000819050919050612abb565b600060ff82169050919050612abb565b60005b8381101561157890612abb5750808201518184015260208101905061155d612abb565b8381111561158790612abb57506000848401525b50505050612abb565b6000601f19601f8301169050919050612abb565b6115a781611505612abb565b81146115b290612abb5750600080fd5b50612abb565b6115be81611543612abb565b81146115c990612abb5750600080fd5b50612abb56fe45524332303a206275726e20616d6f756e7420657863656564732062616c616e636545524332303a207472616e7366657220616d6f756e7420657863656564732062616c616e636545524332303a207472616e7366657220616d6f756e74206578636565647320616c6c6f77616e63650000000000005b9050565b80610d1314611e099062002ab7575080610d1310620032bd5780610333146105929062002ab75750806103331062002eda57806101ba146102489062002ab75750806101ba1062002cf55780610129146101939062002ab75750806101291062002c0f578060d71461012b9062002ab757508060d71062002b9f578060b8146101069062002ab757508060b81062002b81578060a71460f09062002ab757508060a71062002b725780606414608f9062002ab75750005b8060ac1460f59062002ab75750005b8060ce146101229062002ab757508060c1146101129062002ab75750005b8061010b1461016d9062002ab757508061010b1062002bef578060f9146101559062002ab757508060f91062002bdf578060e31461013c9062002ab75750005b8060fe1461015d9062002ab75750005b80610120146101879062002ab7575080610114146101769062002ab75750005b8061017c146101f79062002ab757508061017c1062002c9c5780610161146101d69062002ab75750806101611062002c7c578061013f146101ac9062002ab757508061013f1062002c6b5780610136146101a39062002ab75750005b8061014b146101bd9062002ab75750005b80610173146101ee9062002ab7575080610166146101de9062002ab75750005b806101a3146102299062002ab75750806101a31062002cd5578061019e146102219062002ab7575080610188146102089062002ab75750005b806101b11461023c9062002ab75750806101a51461022b9062002ab75750005b80610242146102ef9062002ab75750806102421062002df4578061020d146102ac9062002ab757508061020d1062002d9b57806101f21461028b9062002ab75750806101f21062002d7b57806101d0146102619062002ab75750806101d01062002d6a57806101c7146102589062002ab75750005b806101dc146102729062002ab75750005b80610204146102a39062002ab75750806101f7146102939062002ab75750005b8061022f146102d99062002ab757508061022f1062002dd45780610222146102c99062002ab7575080610219146102bd9062002ab75750005b80610240146102ed9062002ab7575080610238146102e29062002ab75750005b80610289146103479062002ab75750806102891062002e815780610276146103319062002ab75750806102761062002e615780610264146103199062002ab75750806102641062002e50578061024e146103009062002ab75750005b80610269146103219062002ab75750005b80610287146103459062002ab757508061027f1461033a9062002ab75750005b806102b0146103799062002ab75750806102b01062002eba57806102ab146103719062002ab7575080610295146103589062002ab75750005b806102c6146103929062002ab75750806102bd146103899062002ab75750005b80610630146110e39062002ab757508061063010620030d857806104c314610b5d9062002ab75750806104c31062002ff257806103961461077c9062002ab75750806103961062002f995780610375146106d09062002ab75750806103751062002f79578061035e146106449062002ab757508061035e1062002f685780610341146105a09062002ab75750005b80610368146106519062002ab75750005b806103891461076c9062002ab757508061037f146106dd9062002ab75750005b80610454146109a49062002ab75750806104541062002fd25780610449146109969062002ab75750806104441461098e9062002ab75750005b8061048614610aba9062002ab757508061045e14610a209062002ab75750005b806105e214610f249062002ab75750806105e2106200307f578061051614610bbb9062002ab7575080610516106200305f578061050714610ba99062002ab7575080610507106200304e57806104c814610b629062002ab75750005b8061051014610bb29062002ab75750005b8061057514610d249062002ab757508061052d14610c579062002ab75750005b8061061714610fe39062002ab757508061061710620030b8578061060d14610fd69062002ab75750806105f014610f329062002ab75750005b80610623146110649062002ab75750806106211461105f9062002ab75750005b8061096f146115db9062002ab757508061096f10620031d757806107a4146113649062002ab75750806107a4106200317e57806106cd1461127d9062002ab75750806106cd106200315e57806106441461116c9062002ab7575080610644106200314d578061063a146110f09062002ab75750005b80610646146111719062002ab75750005b8061073d146112f59062002ab7575080610734146112ec9062002ab75750005b80610898146114f49062002ab757508061089810620031b7578061088b146114e49062002ab75750806107ad1461136d9062002ab75750005b806109081461156c9062002ab75750806108ff146115639062002ab75750005b80610b6a14611a1b9062002ab7575080610b6a10620032645780610b15146119bb9062002ab7575080610b15106200324457806109e3146116d59062002ab75750806109e310620032335780610978146115e49062002ab75750005b80610a76146118839062002ab75750005b80610b6114611a129062002ab7575080610b22146119cb9062002ab75750005b80610bed14611aa99062002ab7575080610bed106200329d5780610be414611aa09062002ab7575080610b7d14611a319062002ab75750005b80610caf14611d0c9062002ab7575080610c5814611b9a9062002ab75750005b806112b8146126889062002ab75750806112b810620036b95780611039146123b79062002ab757508061103910620034d45780610f89146122da9062002ab7575080610f8910620033ee5780610ea7146121e49062002ab7575080610ea710620033955780610da414611f2a9062002ab7575080610da410620033755780610d8614611e879062002ab7575080610d8610620033645780610d1f14611e189062002ab75750005b80610d8f14611e909062002ab75750005b80610e9b146121d59062002ab7575080610dfb1461209c9062002ab75750005b80610f33146122799062002ab7575080610f3310620033ce5780610ef1146122349062002ab7575080610ee9146122299062002ab75750005b80610f80146122d19062002ab7575080610f3b146122849062002ab75750005b80610fdf146123479062002ab7575080610fdf106200347b5780610fb9146123169062002ab7575080610fb9106200345b5780610fa4146122fb9062002ab7575080610fa4106200344a5780610f95146122e99062002ab75750005b80610faa146123049062002ab75750005b80610fd1146123369062002ab7575080610fbf1461231f9062002ab75750005b806110091461237c9062002ab757508061100910620034b45780610ffb1461236b9062002ab7575080610fe8146123539062002ab75750005b806110241461239d9062002ab757508061101a146123909062002ab75750005b806110e7146124909062002ab75750806110e710620035d357806110a51461243a9062002ab75750806110a5106200357a5780611073146123fd9062002ab7575080611073106200355a5780611058146123dc9062002ab757508061105810620035495780611047146123c89062002ab75750005b80611069146123f09062002ab75750005b80611094146124269062002ab7575080611086146124159062002ab75750005b806110cf1461246f9062002ab75750806110cf10620035b357806110c11461245e9062002ab75750806110af146124479062002ab75750005b806110e1146124879062002ab75750806110d81461247b9062002ab75750005b80611186146125449062002ab757508061118610620036605780611115146124ca9062002ab7575080611115106200364057806110fc146124ab9062002ab75750806110fc106200362f57806110f21461249e9062002ab75750005b8061110c146124be9062002ab75750005b8061112d146124e89062002ab7575080611120146124d89062002ab75750005b806111f9146125c09062002ab75750806111f9106200369957806111ec146125b09062002ab7575080611193146125549062002ab75750005b8061125f1461262c9062002ab75750806112521461261c9062002ab75750005b80611488146128a69062002ab757508061148810620038b757806113c0146127b79062002ab75750806113c010620037d15780611381146127669062002ab757508061138110620037785780611338146127149062002ab7575080611338106200375857806112d2146126a89062002ab75750806112d2106200374757806112c5146126989062002ab75750005b806112df146126b89062002ab75750005b806113781461275a9062002ab7575080611345146127249062002ab75750005b80611396146127849062002ab757508061139610620037b157806113901461277b9062002ab75750806113871461276f9062002ab75750005b806113ab1461279f9062002ab75750806113a1146127929062002ab75750005b80611428146128349062002ab7575080611428106200385e5780611401146128049062002ab7575080611401106200383e57806113e0146127dd9062002ab75750806113e0106200382d57806113c6146127c09062002ab75750005b806113e8146127e89062002ab75750005b806114211461282a9062002ab75750806114081461280e9062002ab75750005b80611461146128769062002ab7575080611461106200389757806114481461285a9062002ab7575080611441146128509062002ab75750005b806114811461289c9062002ab7575080611468146128809062002ab75750005b80611543146129889062002ab757508061154310620039b657806114e91461291c9062002ab75750806114e9106200395d57806114c3146128ed9062002ab75750806114c3106200393d57806114a8146128cc9062002ab75750806114a8106200392c57806114a1146128c29062002ab75750005b806114bd146128e49062002ab75750005b806114de1461290e9062002ab75750806114d8146129059062002ab75750005b806115101461294c9062002ab7575080611510106200399657806115051461293e9062002ab75750806114f41461292a9062002ab75750005b80611523146129659062002ab7575080611517146129569062002ab75750005b8061159e146129fc9062002ab757508061159e1062003a435780611578146129cb9062002ab75750806115781062003a23578061155a146129a59062002ab757508061155a1062003a12578061154d146129959062002ab75750005b8061155d146129a89062002ab75750005b8061158d146129e89062002ab7575080611587146129df9062002ab75750005b806115b514612a1e9062002ab75750806115b51062003a7c57806115b214612a189062002ab75750806115a714612a089062002ab75750005b806115c914612a3a9062002ab75750806115be14612a2a9062002ab7575000",
      "opcodes": "PUSH1 0x80 PUSH1 0x40 MSTORE CALLVALUE DUP1 ISZERO PUSH3 0x11 JUMPI PUSH1 0x0 DUP1 REVERT JUMPDEST POP PUSH1 0x0 PUSH1 0x40 MLOAD DUP1 PUSH1 0x40 ADD PUSH1 0x40 MSTORE DUP1 PUSH1 0x6 DUP2 MSTORE PUSH1 0x20 ADD PUSH32 0x657363726F770000000000000000000000000000000000000000000000000000 DUP2 MSTORE POP PUSH1 0x12 PUSH1 0x40 MLOAD DUP1 PUSH1 0x40 ADD PUSH1 0x40 MSTORE DUP1 PUSH1 0x6 DUP2 MSTORE PUSH1 0x20 ADD PUSH32 0x657363726F770000000000000000000000000000000000000000000000000000 DUP2 MSTORE POP DUP3 PUSH1 0x3 SWAP1 DUP1 MLOAD SWAP1 PUSH1 0x20 ADD SWAP1 PUSH3 0x9A SWAP3 SWAP2 SWAP1 PUSH3 0x340 JUMP JUMPDEST POP DUP1 PUSH1 0x4 SWAP1 DUP1 MLOAD SWAP1 PUSH1 0x20 ADD SWAP1 PUSH3 0xB3 SWAP3 SWAP2 SWAP1 PUSH3 0x340 JUMP JUMPDEST POP DUP2 PUSH1 0x5 PUSH1 0x0 PUSH2 0x100 EXP DUP2 SLOAD DUP2 PUSH1 0xFF MUL NOT AND SWAP1 DUP4 PUSH1 0xFF AND MUL OR SWAP1 SSTORE POP PUSH1 0x0 DUP5 GT ISZERO PUSH3 0xEC JUMPI PUSH3 0xEB CALLER DUP6 PUSH3 0xF6 PUSH1 0x20 SHL PUSH1 0x20 SHR JUMP JUMPDEST JUMPDEST POP POP POP POP PUSH3 0x553 JUMP JUMPDEST PUSH1 0x0 PUSH20 0xFFFFFFFFFFFFFFFFFFFFFFFFFFFFFFFFFFFFFFFF AND DUP3 PUSH20 0xFFFFFFFFFFFFFFFFFFFFFFFFFFFFFFFFFFFFFFFF AND EQ ISZERO PUSH3 0x169 JUMPI PUSH1 0x40 MLOAD PUSH32 0x8C379A000000000000000000000000000000000000000000000000000000000 DUP2 MSTORE PUSH1 0x4 ADD PUSH3 0x160 SWAP1 PUSH3 0x4A7 JUMP JUMPDEST PUSH1 0x40 MLOAD DUP1 SWAP2 SUB SWAP1 REVERT JUMPDEST PUSH3 0x185 DUP2 PUSH1 0x2 SLOAD PUSH3 0x291 PUSH1 0x20 SHL PUSH3 0xEA7 OR SWAP1 SWAP2 SWAP1 PUSH1 0x20 SHR JUMP JUMPDEST PUSH1 0x2 DUP2 SWAP1 SSTORE POP PUSH3 0x1E3 DUP2 PUSH1 0x0 DUP1 DUP6 PUSH20 0xFFFFFFFFFFFFFFFFFFFFFFFFFFFFFFFFFFFFFFFF AND PUSH20 0xFFFFFFFFFFFFFFFFFFFFFFFFFFFFFFFFFFFFFFFF AND DUP2 MSTORE PUSH1 0x20 ADD SWAP1 DUP2 MSTORE PUSH1 0x20 ADD PUSH1 0x0 KECCAK256 SLOAD PUSH3 0x291 PUSH1 0x20 SHL PUSH3 0xEA7 OR SWAP1 SWAP2 SWAP1 PUSH1 0x20 SHR JUMP JUMPDEST PUSH1 0x0 DUP1 DUP5 PUSH20 0xFFFFFFFFFFFFFFFFFFFFFFFFFFFFFFFFFFFFFFFF AND PUSH20 0xFFFFFFFFFFFFFFFFFFFFFFFFFFFFFFFFFFFFFFFF AND DUP2 MSTORE PUSH1 0x20 ADD SWAP1 DUP2 MSTORE PUSH1 0x20 ADD PUSH1 0x0 KECCAK256 DUP2 SWAP1 SSTORE POP DUP2 PUSH20 0xFFFFFFFFFFFFFFFFFFFFFFFFFFFFFFFFFFFFFFFF AND PUSH1 0x0 PUSH20 0xFFFFFFFFFFFFFFFFFFFFFFFFFFFFFFFFFFFFFFFF AND PUSH32 0xDDF252AD1BE2C89B69C2B068FC378DAA952BA7F163C4A11628F55A4DF523B3EF DUP4 PUSH1 0x40 MLOAD PUSH3 0x285 SWAP2 SWAP1 PUSH3 0x4C9 JUMP JUMPDEST PUSH1 0x40 MLOAD DUP1 SWAP2 SUB SWAP1 LOG3 POP POP JUMP JUMPDEST PUSH1 0x0 PUSH3 0x2DB DUP4 DUP4 PUSH1 0x40 MLOAD DUP1 PUSH1 0x40 ADD PUSH1 0x40 MSTORE DUP1 PUSH1 0x1B DUP2 MSTORE PUSH1 0x20 ADD PUSH32 0x536166654D6174683A206164646974696F6E206F766572666C6F770000000000 DUP2 MSTORE POP PUSH3 0x2E3 PUSH1 0x20 SHL PUSH1 0x20 SHR JUMP JUMPDEST SWAP1 POP SWAP3 SWAP2 POP POP JUMP JUMPDEST PUSH1 0x0 DUP1 DUP4 DUP6 ADD SWAP1 POP DUP5 DUP2 LT ISZERO DUP4 SWAP1 PUSH3 0x334 JUMPI PUSH1 0x40 MLOAD PUSH32 0x8C379A000000000000000000000000000000000000000000000000000000000 DUP2 MSTORE PUSH1 0x4 ADD PUSH3 0x32B SWAP2 SWAP1 PUSH3 0x483 JUMP JUMPDEST PUSH1 0x40 MLOAD DUP1 SWAP2 SUB SWAP1 REVERT JUMPDEST POP DUP1 SWAP2 POP POP SWAP4 SWAP3 POP POP POP JUMP JUMPDEST DUP3 DUP1 SLOAD PUSH1 0x1 DUP2 PUSH1 0x1 AND ISZERO PUSH2 0x100 MUL SUB AND PUSH1 0x2 SWAP1 DIV SWAP1 PUSH1 0x0 MSTORE PUSH1 0x20 PUSH1 0x0 KECCAK256 SWAP1 PUSH1 0x1F ADD PUSH1 0x20 SWAP1 DIV DUP2 ADD SWAP3 DUP3 PUSH1 0x1F LT PUSH3 0x383 JUMPI DUP1 MLOAD PUSH1 0xFF NOT AND DUP4 DUP1 ADD OR DUP6 SSTORE PUSH3 0x3B4 JUMP JUMPDEST DUP3 DUP1 ADD PUSH1 0x1 ADD DUP6 SSTORE DUP3 ISZERO PUSH3 0x3B4 JUMPI SWAP2 DUP3 ADD JUMPDEST DUP3 DUP2 GT ISZERO PUSH3 0x3B3 JUMPI DUP3 MLOAD DUP3 SSTORE SWAP2 PUSH1 0x20 ADD SWAP2 SWAP1 PUSH1 0x1 ADD SWAP1 PUSH3 0x396 JUMP JUMPDEST JUMPDEST POP SWAP1 POP PUSH3 0x3C3 SWAP2 SWAP1 PUSH3 0x3C7 JUMP JUMPDEST POP SWAP1 JUMP JUMPDEST PUSH3 0x3EC SWAP2 SWAP1 JUMPDEST DUP1 DUP3 GT ISZERO PUSH3 0x3E8 JUMPI PUSH1 0x0 DUP2 PUSH1 0x0 SWAP1 SSTORE POP PUSH1 0x1 ADD PUSH3 0x3CE JUMP JUMPDEST POP SWAP1 JUMP JUMPDEST SWAP1 JUMP JUMPDEST PUSH1 0x0 PUSH3 0x3FC DUP3 PUSH3 0x4E6 JUMP JUMPDEST PUSH3 0x408 DUP2 DUP6 PUSH3 0x4F1 JUMP JUMPDEST SWAP4 POP PUSH3 0x41A DUP2 DUP6 PUSH1 0x20 DUP7 ADD PUSH3 0x50C JUMP JUMPDEST PUSH3 0x425 DUP2 PUSH3 0x542 JUMP JUMPDEST DUP5 ADD SWAP2 POP POP SWAP3 SWAP2 POP POP JUMP JUMPDEST PUSH1 0x0 PUSH3 0x43F PUSH1 0x1F DUP4 PUSH3 0x4F1 JUMP JUMPDEST SWAP2 POP PUSH32 0x45524332303A206D696E7420746F20746865207A65726F206164647265737300 PUSH1 0x0 DUP4 ADD MSTORE PUSH1 0x20 DUP3 ADD SWAP1 POP SWAP2 SWAP1 POP JUMP JUMPDEST PUSH3 0x47D DUP2 PUSH3 0x502 JUMP JUMPDEST DUP3 MSTORE POP POP JUMP JUMPDEST PUSH1 0x0 PUSH1 0x20 DUP3 ADD SWAP1 POP DUP2 DUP2 SUB PUSH1 0x0 DUP4 ADD MSTORE PUSH3 0x49F DUP2 DUP5 PUSH3 0x3EF JUMP JUMPDEST SWAP1 POP SWAP3 SWAP2 POP POP JUMP JUMPDEST PUSH1 0x0 PUSH1 0x20 DUP3 ADD SWAP1 POP DUP2 DUP2 SUB PUSH1 0x0 DUP4 ADD MSTORE PUSH3 0x4C2 DUP2 PUSH3 0x430 JUMP JUMPDEST SWAP1 POP SWAP2 SWAP1 POP JUMP JUMPDEST PUSH1 0x0 PUSH1 0x20 DUP3 ADD SWAP1 POP PUSH3 0x4E0 PUSH1 0x0 DUP4 ADD DUP5 PUSH3 0x472 JUMP JUMPDEST SWAP3 SWAP2 POP POP JUMP JUMPDEST PUSH1 0x0 DUP2 MLOAD SWAP1 POP SWAP2 SWAP1 POP JUMP JUMPDEST PUSH1 0x0 DUP3 DUP3 MSTORE PUSH1 0x20 DUP3 ADD SWAP1 POP SWAP3 SWAP2 POP POP JUMP JUMPDEST PUSH1 0x0 DUP2 SWAP1 POP SWAP2 SWAP1 POP JUMP JUMPDEST PUSH1 0x0 JUMPDEST DUP4 DUP2 LT ISZERO PUSH3 0x52C JUMPI DUP1 DUP3 ADD MLOAD DUP2 DUP5 ADD MSTORE PUSH1 0x20 DUP2 ADD SWAP1 POP PUSH3 0x50F JUMP JUMPDEST DUP4 DUP2 GT ISZERO PUSH3 0x53C JUMPI PUSH1 0x0 DUP5 DUP5 ADD MSTORE JUMPDEST POP POP POP POP JUMP JUMPDEST PUSH1 0x0 PUSH1 0x1F NOT PUSH1 0x1F DUP4 ADD AND SWAP1 POP SWAP2 SWAP1 POP JUMP JUMPDEST PUSH2 0x167F DUP1 PUSH3 0x563 PUSH1 0x0 CODECOPY PUSH1 0x0 RETURN INVALID PUSH1 0x80 PUSH1 0x40 MSTORE PUSH1 0x4 CALLDATASIZE LT PUSH2 0xA7 JUMPI PUSH1 0x0 CALLDATALOAD PUSH1 0xE0 SHR DUP1 PUSH4 0x70A08231 GT PUSH2 0x64 JUMPI DUP1 PUSH4 0x70A08231 EQ PUSH2 0x1D0 JUMPI DUP1 PUSH4 0x95D89B41 EQ PUSH2 0x20D JUMPI DUP1 PUSH4 0xA3E76C0F EQ PUSH2 0x238 JUMPI DUP1 PUSH4 0xA9059CBB EQ PUSH2 0x242 JUMPI DUP1 PUSH4 0xD0E30DB0 EQ PUSH2 0x27F JUMPI DUP1 PUSH4 0xDD62ED3E EQ PUSH2 0x289 JUMPI PUSH2 0xA7 JUMP JUMPDEST DUP1 PUSH4 0x6FDDE03 EQ PUSH2 0xAC JUMPI DUP1 PUSH4 0x95EA7B3 EQ PUSH2 0xD7 JUMPI DUP1 PUSH4 0x18160DDD EQ PUSH2 0x114 JUMPI DUP1 PUSH4 0x23B872DD EQ PUSH2 0x13F JUMPI DUP1 PUSH4 0x2E1A7D4D EQ PUSH2 0x17C JUMPI DUP1 PUSH4 0x313CE567 EQ PUSH2 0x1A5 JUMPI JUMPDEST PUSH1 0x0 DUP1 REVERT JUMPDEST CALLVALUE DUP1 ISZERO PUSH2 0xB8 JUMPI PUSH1 0x0 DUP1 REVERT JUMPDEST POP PUSH2 0xC1 PUSH2 0x2C6 JUMP JUMPDEST PUSH1 0x40 MLOAD PUSH2 0xCE SWAP2 SWAP1 PUSH2 0x13C6 JUMP JUMPDEST PUSH1 0x40 MLOAD DUP1 SWAP2 SUB SWAP1 RETURN JUMPDEST CALLVALUE DUP1 ISZERO PUSH2 0xE3 JUMPI PUSH1 0x0 DUP1 REVERT JUMPDEST POP PUSH2 0xFE PUSH1 0x4 DUP1 CALLDATASIZE SUB PUSH2 0xF9 SWAP2 SWAP1 DUP2 ADD SWAP1 PUSH2 0x1073 JUMP JUMPDEST PUSH2 0x368 JUMP JUMPDEST PUSH1 0x40 MLOAD PUSH2 0x10B SWAP2 SWAP1 PUSH2 0x13AB JUMP JUMPDEST PUSH1 0x40 MLOAD DUP1 SWAP2 SUB SWAP1 RETURN JUMPDEST CALLVALUE DUP1 ISZERO PUSH2 0x120 JUMPI PUSH1 0x0 DUP1 REVERT JUMPDEST POP PUSH2 0x129 PUSH2 0x37F JUMP JUMPDEST PUSH1 0x40 MLOAD PUSH2 0x136 SWAP2 SWAP1 PUSH2 0x14A8 JUMP JUMPDEST PUSH1 0x40 MLOAD DUP1 SWAP2 SUB SWAP1 RETURN JUMPDEST CALLVALUE DUP1 ISZERO PUSH2 0x14B JUMPI PUSH1 0x0 DUP1 REVERT JUMPDEST POP PUSH2 0x166 PUSH1 0x4 DUP1 CALLDATASIZE SUB PUSH2 0x161 SWAP2 SWAP1 DUP2 ADD SWAP1 PUSH2 0x1024 JUMP JUMPDEST PUSH2 0x389 JUMP JUMPDEST PUSH1 0x40 MLOAD PUSH2 0x173 SWAP2 SWAP1 PUSH2 0x13AB JUMP JUMPDEST PUSH1 0x40 MLOAD DUP1 SWAP2 SUB SWAP1 RETURN JUMPDEST CALLVALUE DUP1 ISZERO PUSH2 0x188 JUMPI PUSH1 0x0 DUP1 REVERT JUMPDEST POP PUSH2 0x1A3 PUSH1 0x4 DUP1 CALLDATASIZE SUB PUSH2 0x19E SWAP2 SWAP1 DUP2 ADD SWAP1 PUSH2 0x10AF JUMP JUMPDEST PUSH2 0x454 JUMP JUMPDEST STOP JUMPDEST CALLVALUE DUP1 ISZERO PUSH2 0x1B1 JUMPI PUSH1 0x0 DUP1 REVERT JUMPDEST POP PUSH2 0x1BA PUSH2 0x516 JUMP JUMPDEST PUSH1 0x40 MLOAD PUSH2 0x1C7 SWAP2 SWAP1 PUSH2 0x14C3 JUMP JUMPDEST PUSH1 0x40 MLOAD DUP1 SWAP2 SUB SWAP1 RETURN JUMPDEST CALLVALUE DUP1 ISZERO PUSH2 0x1DC JUMPI PUSH1 0x0 DUP1 REVERT JUMPDEST POP PUSH2 0x1F7 PUSH1 0x4 DUP1 CALLDATASIZE SUB PUSH2 0x1F2 SWAP2 SWAP1 DUP2 ADD SWAP1 PUSH2 0xFBF JUMP JUMPDEST PUSH2 0x52D JUMP JUMPDEST PUSH1 0x40 MLOAD PUSH2 0x204 SWAP2 SWAP1 PUSH2 0x14A8 JUMP JUMPDEST PUSH1 0x40 MLOAD DUP1 SWAP2 SUB SWAP1 RETURN JUMPDEST CALLVALUE DUP1 ISZERO PUSH2 0x219 JUMPI PUSH1 0x0 DUP1 REVERT JUMPDEST POP PUSH2 0x222 PUSH2 0x575 JUMP JUMPDEST PUSH1 0x40 MLOAD PUSH2 0x22F SWAP2 SWAP1 PUSH2 0x13C6 JUMP JUMPDEST PUSH1 0x40 MLOAD DUP1 SWAP2 SUB SWAP1 RETURN JUMPDEST PUSH2 0x240 PUSH2 0x617 JUMP JUMPDEST STOP JUMPDEST CALLVALUE DUP1 ISZERO PUSH2 0x24E JUMPI PUSH1 0x0 DUP1 REVERT JUMPDEST POP PUSH2 0x269 PUSH1 0x4 DUP1 CALLDATASIZE SUB PUSH2 0x264 SWAP2 SWAP1 DUP2 ADD SWAP1 PUSH2 0x1073 JUMP JUMPDEST PUSH2 0x623 JUMP JUMPDEST PUSH1 0x40 MLOAD PUSH2 0x276 SWAP2 SWAP1 PUSH2 0x13AB JUMP JUMPDEST PUSH1 0x40 MLOAD DUP1 SWAP2 SUB SWAP1 RETURN JUMPDEST PUSH2 0x287 PUSH2 0x63A JUMP JUMPDEST STOP JUMPDEST CALLVALUE DUP1 ISZERO PUSH2 0x295 JUMPI PUSH1 0x0 DUP1 REVERT JUMPDEST POP PUSH2 0x2B0 PUSH1 0x4 DUP1 CALLDATASIZE SUB PUSH2 0x2AB SWAP2 SWAP1 DUP2 ADD SWAP1 PUSH2 0xFE8 JUMP JUMPDEST PUSH2 0x646 JUMP JUMPDEST PUSH1 0x40 MLOAD PUSH2 0x2BD SWAP2 SWAP1 PUSH2 0x14A8 JUMP JUMPDEST PUSH1 0x40 MLOAD DUP1 SWAP2 SUB SWAP1 RETURN JUMPDEST PUSH1 0x60 PUSH1 0x3 DUP1 SLOAD PUSH1 0x1 DUP2 PUSH1 0x1 AND ISZERO PUSH2 0x100 MUL SUB AND PUSH1 0x2 SWAP1 DIV DUP1 PUSH1 0x1F ADD PUSH1 0x20 DUP1 SWAP2 DIV MUL PUSH1 0x20 ADD PUSH1 0x40 MLOAD SWAP1 DUP2 ADD PUSH1 0x40 MSTORE DUP1 SWAP3 SWAP2 SWAP1 DUP2 DUP2 MSTORE PUSH1 0x20 ADD DUP3 DUP1 SLOAD PUSH1 0x1 DUP2 PUSH1 0x1 AND ISZERO PUSH2 0x100 MUL SUB AND PUSH1 0x2 SWAP1 DIV DUP1 ISZERO PUSH2 0x35E JUMPI DUP1 PUSH1 0x1F LT PUSH2 0x333 JUMPI PUSH2 0x100 DUP1 DUP4 SLOAD DIV MUL DUP4 MSTORE SWAP2 PUSH1 0x20 ADD SWAP2 PUSH2 0x35E JUMP JUMPDEST DUP3 ADD SWAP2 SWAP1 PUSH1 0x0 MSTORE PUSH1 0x20 PUSH1 0x0 KECCAK256 SWAP1 JUMPDEST DUP2 SLOAD DUP2 MSTORE SWAP1 PUSH1 0x1 ADD SWAP1 PUSH1 0x20 ADD DUP1 DUP4 GT PUSH2 0x341 JUMPI DUP3 SWAP1 SUB PUSH1 0x1F AND DUP3 ADD SWAP2 JUMPDEST POP POP POP POP POP SWAP1 POP SWAP1 JUMP JUMPDEST PUSH1 0x0 PUSH2 0x375 CALLER DUP5 DUP5 PUSH2 0x6CD JUMP JUMPDEST PUSH1 0x1 SWAP1 POP SWAP3 SWAP2 POP POP JUMP JUMPDEST PUSH1 0x0 PUSH1 0x2 SLOAD SWAP1 POP SWAP1 JUMP JUMPDEST PUSH1 0x0 PUSH2 0x396 DUP5 DUP5 DUP5 PUSH2 0x898 JUMP JUMPDEST PUSH2 0x449 DUP5 CALLER PUSH2 0x444 DUP6 PUSH1 0x40 MLOAD DUP1 PUSH1 0x60 ADD PUSH1 0x40 MSTORE DUP1 PUSH1 0x28 DUP2 MSTORE PUSH1 0x20 ADD PUSH2 0x1615 PUSH1 0x28 SWAP2 CODECOPY PUSH1 0x1 PUSH1 0x0 DUP12 PUSH20 0xFFFFFFFFFFFFFFFFFFFFFFFFFFFFFFFFFFFFFFFF AND PUSH20 0xFFFFFFFFFFFFFFFFFFFFFFFFFFFFFFFFFFFFFFFF AND DUP2 MSTORE PUSH1 0x20 ADD SWAP1 DUP2 MSTORE PUSH1 0x20 ADD PUSH1 0x0 KECCAK256 PUSH1 0x0 CALLER PUSH20 0xFFFFFFFFFFFFFFFFFFFFFFFFFFFFFFFFFFFFFFFF AND PUSH20 0xFFFFFFFFFFFFFFFFFFFFFFFFFFFFFFFFFFFFFFFF AND DUP2 MSTORE PUSH1 0x20 ADD SWAP1 DUP2 MSTORE PUSH1 0x20 ADD PUSH1 0x0 KECCAK256 SLOAD PUSH2 0xB22 SWAP1 SWAP3 SWAP2 SWAP1 PUSH4 0xFFFFFFFF AND JUMP JUMPDEST PUSH2 0x6CD JUMP JUMPDEST PUSH1 0x1 SWAP1 POP SWAP4 SWAP3 POP POP POP JUMP JUMPDEST PUSH2 0x45E CALLER DUP3 PUSH2 0xB7D JUMP JUMPDEST PUSH1 0x0 PUSH1 0x60 CALLER PUSH20 0xFFFFFFFFFFFFFFFFFFFFFFFFFFFFFFFFFFFFFFFF AND DUP4 PUSH1 0x40 MLOAD PUSH2 0x486 SWAP1 PUSH2 0x1396 JUMP JUMPDEST PUSH1 0x0 PUSH1 0x40 MLOAD DUP1 DUP4 SUB DUP2 DUP6 DUP8 GAS CALL SWAP3 POP POP POP RETURNDATASIZE DUP1 PUSH1 0x0 DUP2 EQ PUSH2 0x4C3 JUMPI PUSH1 0x40 MLOAD SWAP2 POP PUSH1 0x1F NOT PUSH1 0x3F RETURNDATASIZE ADD AND DUP3 ADD PUSH1 0x40 MSTORE RETURNDATASIZE DUP3 MSTORE RETURNDATASIZE PUSH1 0x0 PUSH1 0x20 DUP5 ADD RETURNDATACOPY PUSH2 0x4C8 JUMP JUMPDEST PUSH1 0x60 SWAP2 POP JUMPDEST POP SWAP2 POP SWAP2 POP DUP2 DUP2 SWAP1 PUSH2 0x510 JUMPI PUSH1 0x40 MLOAD PUSH32 0x8C379A000000000000000000000000000000000000000000000000000000000 DUP2 MSTORE PUSH1 0x4 ADD PUSH2 0x507 SWAP2 SWAP1 PUSH2 0x13C6 JUMP JUMPDEST PUSH1 0x40 MLOAD DUP1 SWAP2 SUB SWAP1 REVERT JUMPDEST POP POP POP POP JUMP JUMPDEST PUSH1 0x0 PUSH1 0x5 PUSH1 0x0 SWAP1 SLOAD SWAP1 PUSH2 0x100 EXP SWAP1 DIV PUSH1 0xFF AND SWAP1 POP SWAP1 JUMP JUMPDEST PUSH1 0x0 DUP1 PUSH1 0x0 DUP4 PUSH20 0xFFFFFFFFFFFFFFFFFFFFFFFFFFFFFFFFFFFFFFFF AND PUSH20 0xFFFFFFFFFFFFFFFFFFFFFFFFFFFFFFFFFFFFFFFF AND DUP2 MSTORE PUSH1 0x20 ADD SWAP1 DUP2 MSTORE PUSH1 0x20 ADD PUSH1 0x0 KECCAK256 SLOAD SWAP1 POP SWAP2 SWAP1 POP JUMP JUMPDEST PUSH1 0x60 PUSH1 0x4 DUP1 SLOAD PUSH1 0x1 DUP2 PUSH1 0x1 AND ISZERO PUSH2 0x100 MUL SUB AND PUSH1 0x2 SWAP1 DIV DUP1 PUSH1 0x1F ADD PUSH1 0x20 DUP1 SWAP2 DIV MUL PUSH1 0x20 ADD PUSH1 0x40 MLOAD SWAP1 DUP2 ADD PUSH1 0x40 MSTORE DUP1 SWAP3 SWAP2 SWAP1 DUP2 DUP2 MSTORE PUSH1 0x20 ADD DUP3 DUP1 SLOAD PUSH1 0x1 DUP2 PUSH1 0x1 AND ISZERO PUSH2 0x100 MUL SUB AND PUSH1 0x2 SWAP1 DIV DUP1 ISZERO PUSH2 0x60D JUMPI DUP1 PUSH1 0x1F LT PUSH2 0x5E2 JUMPI PUSH2 0x100 DUP1 DUP4 SLOAD DIV MUL DUP4 MSTORE SWAP2 PUSH1 0x20 ADD SWAP2 PUSH2 0x60D JUMP JUMPDEST DUP3 ADD SWAP2 SWAP1 PUSH1 0x0 MSTORE PUSH1 0x20 PUSH1 0x0 KECCAK256 SWAP1 JUMPDEST DUP2 SLOAD DUP2 MSTORE SWAP1 PUSH1 0x1 ADD SWAP1 PUSH1 0x20 ADD DUP1 DUP4 GT PUSH2 0x5F0 JUMPI DUP3 SWAP1 SUB PUSH1 0x1F AND DUP3 ADD SWAP2 JUMPDEST POP POP POP POP POP SWAP1 POP SWAP1 JUMP JUMPDEST PUSH2 0x621 CALLER CALLVALUE PUSH2 0xD1F JUMP JUMPDEST JUMP JUMPDEST PUSH1 0x0 PUSH2 0x630 CALLER DUP5 DUP5 PUSH2 0x898 JUMP JUMPDEST PUSH1 0x1 SWAP1 POP SWAP3 SWAP2 POP POP JUMP JUMPDEST PUSH2 0x644 CALLER CALLVALUE PUSH2 0xD1F JUMP JUMPDEST JUMP JUMPDEST PUSH1 0x0 PUSH1 0x1 PUSH1 0x0 DUP5 PUSH20 0xFFFFFFFFFFFFFFFFFFFFFFFFFFFFFFFFFFFFFFFF AND PUSH20 0xFFFFFFFFFFFFFFFFFFFFFFFFFFFFFFFFFFFFFFFF AND DUP2 MSTORE PUSH1 0x20 ADD SWAP1 DUP2 MSTORE PUSH1 0x20 ADD PUSH1 0x0 KECCAK256 PUSH1 0x0 DUP4 PUSH20 0xFFFFFFFFFFFFFFFFFFFFFFFFFFFFFFFFFFFFFFFF AND PUSH20 0xFFFFFFFFFFFFFFFFFFFFFFFFFFFFFFFFFFFFFFFF AND DUP2 MSTORE PUSH1 0x20 ADD SWAP1 DUP2 MSTORE PUSH1 0x20 ADD PUSH1 0x0 KECCAK256 SLOAD SWAP1 POP SWAP3 SWAP2 POP POP JUMP JUMPDEST PUSH1 0x0 PUSH20 0xFFFFFFFFFFFFFFFFFFFFFFFFFFFFFFFFFFFFFFFF AND DUP4 PUSH20 0xFFFFFFFFFFFFFFFFFFFFFFFFFFFFFFFFFFFFFFFF AND EQ ISZERO PUSH2 0x73D JUMPI PUSH1 0x40 MLOAD PUSH32 0x8C379A000000000000000000000000000000000000000000000000000000000 DUP2 MSTORE PUSH1 0x4 ADD PUSH2 0x734 SWAP1 PUSH2 0x1468 JUMP JUMPDEST PUSH1 0x40 MLOAD DUP1 SWAP2 SUB SWAP1 REVERT JUMPDEST PUSH1 0x0 PUSH20 0xFFFFFFFFFFFFFFFFFFFFFFFFFFFFFFFFFFFFFFFF AND DUP3 PUSH20 0xFFFFFFFFFFFFFFFFFFFFFFFFFFFFFFFFFFFFFFFF AND EQ ISZERO PUSH2 0x7AD JUMPI PUSH1 0x40 MLOAD PUSH32 0x8C379A000000000000000000000000000000000000000000000000000000000 DUP2 MSTORE PUSH1 0x4 ADD PUSH2 0x7A4 SWAP1 PUSH2 0x1408 JUMP JUMPDEST PUSH1 0x40 MLOAD DUP1 SWAP2 SUB SWAP1 REVERT JUMPDEST DUP1 PUSH1 0x1 PUSH1 0x0 DUP6 PUSH20 0xFFFFFFFFFFFFFFFFFFFFFFFFFFFFFFFFFFFFFFFF AND PUSH20 0xFFFFFFFFFFFFFFFFFFFFFFFFFFFFFFFFFFFFFFFF AND DUP2 MSTORE PUSH1 0x20 ADD SWAP1 DUP2 MSTORE PUSH1 0x20 ADD PUSH1 0x0 KECCAK256 PUSH1 0x0 DUP5 PUSH20 0xFFFFFFFFFFFFFFFFFFFFFFFFFFFFFFFFFFFFFFFF AND PUSH20 0xFFFFFFFFFFFFFFFFFFFFFFFFFFFFFFFFFFFFFFFF AND DUP2 MSTORE PUSH1 0x20 ADD SWAP1 DUP2 MSTORE PUSH1 0x20 ADD PUSH1 0x0 KECCAK256 DUP2 SWAP1 SSTORE POP DUP2 PUSH20 0xFFFFFFFFFFFFFFFFFFFFFFFFFFFFFFFFFFFFFFFF AND DUP4 PUSH20 0xFFFFFFFFFFFFFFFFFFFFFFFFFFFFFFFFFFFFFFFF AND PUSH32 0x8C5BE1E5EBEC7D5BD14F71427D1E84F3DD0314C0F7B2291E5B200AC8C7C3B925 DUP4 PUSH1 0x40 MLOAD PUSH2 0x88B SWAP2 SWAP1 PUSH2 0x14A8 JUMP JUMPDEST PUSH1 0x40 MLOAD DUP1 SWAP2 SUB SWAP1 LOG3 POP POP POP JUMP JUMPDEST PUSH1 0x0 PUSH20 0xFFFFFFFFFFFFFFFFFFFFFFFFFFFFFFFFFFFFFFFF AND DUP4 PUSH20 0xFFFFFFFFFFFFFFFFFFFFFFFFFFFFFFFFFFFFFFFF AND EQ ISZERO PUSH2 0x908 JUMPI PUSH1 0x40 MLOAD PUSH32 0x8C379A000000000000000000000000000000000000000000000000000000000 DUP2 MSTORE PUSH1 0x4 ADD PUSH2 0x8FF SWAP1 PUSH2 0x1448 JUMP JUMPDEST PUSH1 0x40 MLOAD DUP1 SWAP2 SUB SWAP1 REVERT JUMPDEST PUSH1 0x0 PUSH20 0xFFFFFFFFFFFFFFFFFFFFFFFFFFFFFFFFFFFFFFFF AND DUP3 PUSH20 0xFFFFFFFFFFFFFFFFFFFFFFFFFFFFFFFFFFFFFFFF AND EQ ISZERO PUSH2 0x978 JUMPI PUSH1 0x40 MLOAD PUSH32 0x8C379A000000000000000000000000000000000000000000000000000000000 DUP2 MSTORE PUSH1 0x4 ADD PUSH2 0x96F SWAP1 PUSH2 0x13E8 JUMP JUMPDEST PUSH1 0x40 MLOAD DUP1 SWAP2 SUB SWAP1 REVERT JUMPDEST PUSH2 0x9E3 DUP2 PUSH1 0x40 MLOAD DUP1 PUSH1 0x60 ADD PUSH1 0x40 MSTORE DUP1 PUSH1 0x26 DUP2 MSTORE PUSH1 0x20 ADD PUSH2 0x15EF PUSH1 0x26 SWAP2 CODECOPY PUSH1 0x0 DUP1 DUP8 PUSH20 0xFFFFFFFFFFFFFFFFFFFFFFFFFFFFFFFFFFFFFFFF AND PUSH20 0xFFFFFFFFFFFFFFFFFFFFFFFFFFFFFFFFFFFFFFFF AND DUP2 MSTORE PUSH1 0x20 ADD SWAP1 DUP2 MSTORE PUSH1 0x20 ADD PUSH1 0x0 KECCAK256 SLOAD PUSH2 0xB22 SWAP1 SWAP3 SWAP2 SWAP1 PUSH4 0xFFFFFFFF AND JUMP JUMPDEST PUSH1 0x0 DUP1 DUP6 PUSH20 0xFFFFFFFFFFFFFFFFFFFFFFFFFFFFFFFFFFFFFFFF AND PUSH20 0xFFFFFFFFFFFFFFFFFFFFFFFFFFFFFFFFFFFFFFFF AND DUP2 MSTORE PUSH1 0x20 ADD SWAP1 DUP2 MSTORE PUSH1 0x20 ADD PUSH1 0x0 KECCAK256 DUP2 SWAP1 SSTORE POP PUSH2 0xA76 DUP2 PUSH1 0x0 DUP1 DUP6 PUSH20 0xFFFFFFFFFFFFFFFFFFFFFFFFFFFFFFFFFFFFFFFF AND PUSH20 0xFFFFFFFFFFFFFFFFFFFFFFFFFFFFFFFFFFFFFFFF AND DUP2 MSTORE PUSH1 0x20 ADD SWAP1 DUP2 MSTORE PUSH1 0x20 ADD PUSH1 0x0 KECCAK256 SLOAD PUSH2 0xEA7 SWAP1 SWAP2 SWAP1 PUSH4 0xFFFFFFFF AND JUMP JUMPDEST PUSH1 0x0 DUP1 DUP5 PUSH20 0xFFFFFFFFFFFFFFFFFFFFFFFFFFFFFFFFFFFFFFFF AND PUSH20 0xFFFFFFFFFFFFFFFFFFFFFFFFFFFFFFFFFFFFFFFF AND DUP2 MSTORE PUSH1 0x20 ADD SWAP1 DUP2 MSTORE PUSH1 0x20 ADD PUSH1 0x0 KECCAK256 DUP2 SWAP1 SSTORE POP DUP2 PUSH20 0xFFFFFFFFFFFFFFFFFFFFFFFFFFFFFFFFFFFFFFFF AND DUP4 PUSH20 0xFFFFFFFFFFFFFFFFFFFFFFFFFFFFFFFFFFFFFFFF AND PUSH32 0xDDF252AD1BE2C89B69C2B068FC378DAA952BA7F163C4A11628F55A4DF523B3EF DUP4 PUSH1 0x40 MLOAD PUSH2 0xB15 SWAP2 SWAP1 PUSH2 0x14A8 JUMP JUMPDEST PUSH1 0x40 MLOAD DUP1 SWAP2 SUB SWAP1 LOG3 POP POP POP JUMP JUMPDEST PUSH1 0x0 DUP4 DUP4 GT ISZERO DUP3 SWAP1 PUSH2 0xB6A JUMPI PUSH1 0x40 MLOAD PUSH32 0x8C379A000000000000000000000000000000000000000000000000000000000 DUP2 MSTORE PUSH1 0x4 ADD PUSH2 0xB61 SWAP2 SWAP1 PUSH2 0x13C6 JUMP JUMPDEST PUSH1 0x40 MLOAD DUP1 SWAP2 SUB SWAP1 REVERT JUMPDEST POP PUSH1 0x0 DUP4 DUP6 SUB SWAP1 POP DUP1 SWAP2 POP POP SWAP4 SWAP3 POP POP POP JUMP JUMPDEST PUSH1 0x0 PUSH20 0xFFFFFFFFFFFFFFFFFFFFFFFFFFFFFFFFFFFFFFFF AND DUP3 PUSH20 0xFFFFFFFFFFFFFFFFFFFFFFFFFFFFFFFFFFFFFFFF AND EQ ISZERO PUSH2 0xBED JUMPI PUSH1 0x40 MLOAD PUSH32 0x8C379A000000000000000000000000000000000000000000000000000000000 DUP2 MSTORE PUSH1 0x4 ADD PUSH2 0xBE4 SWAP1 PUSH2 0x1428 JUMP JUMPDEST PUSH1 0x40 MLOAD DUP1 SWAP2 SUB SWAP1 REVERT JUMPDEST PUSH2 0xC58 DUP2 PUSH1 0x40 MLOAD DUP1 PUSH1 0x60 ADD PUSH1 0x40 MSTORE DUP1 PUSH1 0x22 DUP2 MSTORE PUSH1 0x20 ADD PUSH2 0x15CD PUSH1 0x22 SWAP2 CODECOPY PUSH1 0x0 DUP1 DUP7 PUSH20 0xFFFFFFFFFFFFFFFFFFFFFFFFFFFFFFFFFFFFFFFF AND PUSH20 0xFFFFFFFFFFFFFFFFFFFFFFFFFFFFFFFFFFFFFFFF AND DUP2 MSTORE PUSH1 0x20 ADD SWAP1 DUP2 MSTORE PUSH1 0x20 ADD PUSH1 0x0 KECCAK256 SLOAD PUSH2 0xB22 SWAP1 SWAP3 SWAP2 SWAP1 PUSH4 0xFFFFFFFF AND JUMP JUMPDEST PUSH1 0x0 DUP1 DUP5 PUSH20 0xFFFFFFFFFFFFFFFFFFFFFFFFFFFFFFFFFFFFFFFF AND PUSH20 0xFFFFFFFFFFFFFFFFFFFFFFFFFFFFFFFFFFFFFFFF AND DUP2 MSTORE PUSH1 0x20 ADD SWAP1 DUP2 MSTORE PUSH1 0x20 ADD PUSH1 0x0 KECCAK256 DUP2 SWAP1 SSTORE POP PUSH2 0xCAF DUP2 PUSH1 0x2 SLOAD PUSH2 0xEF1 SWAP1 SWAP2 SWAP1 PUSH4 0xFFFFFFFF AND JUMP JUMPDEST PUSH1 0x2 DUP2 SWAP1 SSTORE POP PUSH1 0x0 PUSH20 0xFFFFFFFFFFFFFFFFFFFFFFFFFFFFFFFFFFFFFFFF AND DUP3 PUSH20 0xFFFFFFFFFFFFFFFFFFFFFFFFFFFFFFFFFFFFFFFF AND PUSH32 0xDDF252AD1BE2C89B69C2B068FC378DAA952BA7F163C4A11628F55A4DF523B3EF DUP4 PUSH1 0x40 MLOAD PUSH2 0xD13 SWAP2 SWAP1 PUSH2 0x14A8 JUMP JUMPDEST PUSH1 0x40 MLOAD DUP1 SWAP2 SUB SWAP1 LOG3 POP POP JUMP JUMPDEST PUSH1 0x0 PUSH20 0xFFFFFFFFFFFFFFFFFFFFFFFFFFFFFFFFFFFFFFFF AND DUP3 PUSH20 0xFFFFFFFFFFFFFFFFFFFFFFFFFFFFFFFFFFFFFFFF AND EQ ISZERO PUSH2 0xD8F JUMPI PUSH1 0x40 MLOAD PUSH32 0x8C379A000000000000000000000000000000000000000000000000000000000 DUP2 MSTORE PUSH1 0x4 ADD PUSH2 0xD86 SWAP1 PUSH2 0x1488 JUMP JUMPDEST PUSH1 0x40 MLOAD DUP1 SWAP2 SUB SWAP1 REVERT JUMPDEST PUSH2 0xDA4 DUP2 PUSH1 0x2 SLOAD PUSH2 0xEA7 SWAP1 SWAP2 SWAP1 PUSH4 0xFFFFFFFF AND JUMP JUMPDEST PUSH1 0x2 DUP2 SWAP1 SSTORE POP PUSH2 0xDFB DUP2 PUSH1 0x0 DUP1 DUP6 PUSH20 0xFFFFFFFFFFFFFFFFFFFFFFFFFFFFFFFFFFFFFFFF AND PUSH20 0xFFFFFFFFFFFFFFFFFFFFFFFFFFFFFFFFFFFFFFFF AND DUP2 MSTORE PUSH1 0x20 ADD SWAP1 DUP2 MSTORE PUSH1 0x20 ADD PUSH1 0x0 KECCAK256 SLOAD PUSH2 0xEA7 SWAP1 SWAP2 SWAP1 PUSH4 0xFFFFFFFF AND JUMP JUMPDEST PUSH1 0x0 DUP1 DUP5 PUSH20 0xFFFFFFFFFFFFFFFFFFFFFFFFFFFFFFFFFFFFFFFF AND PUSH20 0xFFFFFFFFFFFFFFFFFFFFFFFFFFFFFFFFFFFFFFFF AND DUP2 MSTORE PUSH1 0x20 ADD SWAP1 DUP2 MSTORE PUSH1 0x20 ADD PUSH1 0x0 KECCAK256 DUP2 SWAP1 SSTORE POP DUP2 PUSH20 0xFFFFFFFFFFFFFFFFFFFFFFFFFFFFFFFFFFFFFFFF AND PUSH1 0x0 PUSH20 0xFFFFFFFFFFFFFFFFFFFFFFFFFFFFFFFFFFFFFFFF AND PUSH32 0xDDF252AD1BE2C89B69C2B068FC378DAA952BA7F163C4A11628F55A4DF523B3EF DUP4 PUSH1 0x40 MLOAD PUSH2 0xE9B SWAP2 SWAP1 PUSH2 0x14A8 JUMP JUMPDEST PUSH1 0x40 MLOAD DUP1 SWAP2 SUB SWAP1 LOG3 POP POP JUMP JUMPDEST PUSH1 0x0 PUSH2 0xEE9 DUP4 DUP4 PUSH1 0x40 MLOAD DUP1 PUSH1 0x40 ADD PUSH1 0x40 MSTORE DUP1 PUSH1 0x1B DUP2 MSTORE PUSH1 0x20 ADD PUSH32 0x536166654D6174683A206164646974696F6E206F766572666C6F770000000000 DUP2 MSTORE POP PUSH2 0xF3B JUMP JUMPDEST SWAP1 POP SWAP3 SWAP2 POP POP JUMP JUMPDEST PUSH1 0x0 PUSH2 0xF33 DUP4 DUP4 PUSH1 0x40 MLOAD DUP1 PUSH1 0x40 ADD PUSH1 0x40 MSTORE DUP1 PUSH1 0x1E DUP2 MSTORE PUSH1 0x20 ADD PUSH32 0x536166654D6174683A207375627472616374696F6E206F766572666C6F770000 DUP2 MSTORE POP PUSH2 0xB22 JUMP JUMPDEST SWAP1 POP SWAP3 SWAP2 POP POP JUMP JUMPDEST PUSH1 0x0 DUP1 DUP4 DUP6 ADD SWAP1 POP DUP5 DUP2 LT ISZERO DUP4 SWAP1 PUSH2 0xF89 JUMPI PUSH1 0x40 MLOAD PUSH32 0x8C379A000000000000000000000000000000000000000000000000000000000 DUP2 MSTORE PUSH1 0x4 ADD PUSH2 0xF80 SWAP2 SWAP1 PUSH2 0x13C6 JUMP JUMPDEST PUSH1 0x40 MLOAD DUP1 SWAP2 SUB SWAP1 REVERT JUMPDEST POP DUP1 SWAP2 POP POP SWAP4 SWAP3 POP POP POP JUMP JUMPDEST PUSH1 0x0 DUP2 CALLDATALOAD SWAP1 POP PUSH2 0xFA4 DUP2 PUSH2 0x159E JUMP JUMPDEST SWAP3 SWAP2 POP POP JUMP JUMPDEST PUSH1 0x0 DUP2 CALLDATALOAD SWAP1 POP PUSH2 0xFB9 DUP2 PUSH2 0x15B5 JUMP JUMPDEST SWAP3 SWAP2 POP POP JUMP JUMPDEST PUSH1 0x0 PUSH1 0x20 DUP3 DUP5 SUB SLT ISZERO PUSH2 0xFD1 JUMPI PUSH1 0x0 DUP1 REVERT JUMPDEST PUSH1 0x0 PUSH2 0xFDF DUP5 DUP3 DUP6 ADD PUSH2 0xF95 JUMP JUMPDEST SWAP2 POP POP SWAP3 SWAP2 POP POP JUMP JUMPDEST PUSH1 0x0 DUP1 PUSH1 0x40 DUP4 DUP6 SUB SLT ISZERO PUSH2 0xFFB JUMPI PUSH1 0x0 DUP1 REVERT JUMPDEST PUSH1 0x0 PUSH2 0x1009 DUP6 DUP3 DUP7 ADD PUSH2 0xF95 JUMP JUMPDEST SWAP3 POP POP PUSH1 0x20 PUSH2 0x101A DUP6 DUP3 DUP7 ADD PUSH2 0xF95 JUMP JUMPDEST SWAP2 POP POP SWAP3 POP SWAP3 SWAP1 POP JUMP JUMPDEST PUSH1 0x0 DUP1 PUSH1 0x0 PUSH1 0x60 DUP5 DUP7 SUB SLT ISZERO PUSH2 0x1039 JUMPI PUSH1 0x0 DUP1 REVERT JUMPDEST PUSH1 0x0 PUSH2 0x1047 DUP7 DUP3 DUP8 ADD PUSH2 0xF95 JUMP JUMPDEST SWAP4 POP POP PUSH1 0x20 PUSH2 0x1058 DUP7 DUP3 DUP8 ADD PUSH2 0xF95 JUMP JUMPDEST SWAP3 POP POP PUSH1 0x40 PUSH2 0x1069 DUP7 DUP3 DUP8 ADD PUSH2 0xFAA JUMP JUMPDEST SWAP2 POP POP SWAP3 POP SWAP3 POP SWAP3 JUMP JUMPDEST PUSH1 0x0 DUP1 PUSH1 0x40 DUP4 DUP6 SUB SLT ISZERO PUSH2 0x1086 JUMPI PUSH1 0x0 DUP1 REVERT JUMPDEST PUSH1 0x0 PUSH2 0x1094 DUP6 DUP3 DUP7 ADD PUSH2 0xF95 JUMP JUMPDEST SWAP3 POP POP PUSH1 0x20 PUSH2 0x10A5 DUP6 DUP3 DUP7 ADD PUSH2 0xFAA JUMP JUMPDEST SWAP2 POP POP SWAP3 POP SWAP3 SWAP1 POP JUMP JUMPDEST PUSH1 0x0 PUSH1 0x20 DUP3 DUP5 SUB SLT ISZERO PUSH2 0x10C1 JUMPI PUSH1 0x0 DUP1 REVERT JUMPDEST PUSH1 0x0 PUSH2 0x10CF DUP5 DUP3 DUP6 ADD PUSH2 0xFAA JUMP JUMPDEST SWAP2 POP POP SWAP3 SWAP2 POP POP JUMP JUMPDEST PUSH2 0x10E1 DUP2 PUSH2 0x1517 JUMP JUMPDEST DUP3 MSTORE POP POP JUMP JUMPDEST PUSH1 0x0 PUSH2 0x10F2 DUP3 PUSH2 0x14DE JUMP JUMPDEST PUSH2 0x10FC DUP2 DUP6 PUSH2 0x14F4 JUMP JUMPDEST SWAP4 POP PUSH2 0x110C DUP2 DUP6 PUSH1 0x20 DUP7 ADD PUSH2 0x155A JUMP JUMPDEST PUSH2 0x1115 DUP2 PUSH2 0x158D JUMP JUMPDEST DUP5 ADD SWAP2 POP POP SWAP3 SWAP2 POP POP JUMP JUMPDEST PUSH1 0x0 PUSH2 0x112D PUSH1 0x23 DUP4 PUSH2 0x14F4 JUMP JUMPDEST SWAP2 POP PUSH32 0x45524332303A207472616E7366657220746F20746865207A65726F2061646472 PUSH1 0x0 DUP4 ADD MSTORE PUSH32 0x6573730000000000000000000000000000000000000000000000000000000000 PUSH1 0x20 DUP4 ADD MSTORE PUSH1 0x40 DUP3 ADD SWAP1 POP SWAP2 SWAP1 POP JUMP JUMPDEST PUSH1 0x0 PUSH2 0x1193 PUSH1 0x22 DUP4 PUSH2 0x14F4 JUMP JUMPDEST SWAP2 POP PUSH32 0x45524332303A20617070726F766520746F20746865207A65726F206164647265 PUSH1 0x0 DUP4 ADD MSTORE PUSH32 0x7373000000000000000000000000000000000000000000000000000000000000 PUSH1 0x20 DUP4 ADD MSTORE PUSH1 0x40 DUP3 ADD SWAP1 POP SWAP2 SWAP1 POP JUMP JUMPDEST PUSH1 0x0 PUSH2 0x11F9 PUSH1 0x21 DUP4 PUSH2 0x14F4 JUMP JUMPDEST SWAP2 POP PUSH32 0x45524332303A206275726E2066726F6D20746865207A65726F20616464726573 PUSH1 0x0 DUP4 ADD MSTORE PUSH32 0x7300000000000000000000000000000000000000000000000000000000000000 PUSH1 0x20 DUP4 ADD MSTORE PUSH1 0x40 DUP3 ADD SWAP1 POP SWAP2 SWAP1 POP JUMP JUMPDEST PUSH1 0x0 PUSH2 0x125F PUSH1 0x25 DUP4 PUSH2 0x14F4 JUMP JUMPDEST SWAP2 POP PUSH32 0x45524332303A207472616E736665722066726F6D20746865207A65726F206164 PUSH1 0x0 DUP4 ADD MSTORE PUSH32 0x6472657373000000000000000000000000000000000000000000000000000000 PUSH1 0x20 DUP4 ADD MSTORE PUSH1 0x40 DUP3 ADD SWAP1 POP SWAP2 SWAP1 POP JUMP JUMPDEST PUSH1 0x0 PUSH2 0x12C5 PUSH1 0x0 DUP4 PUSH2 0x14E9 JUMP JUMPDEST SWAP2 POP PUSH1 0x0 DUP3 ADD SWAP1 POP SWAP2 SWAP1 POP JUMP JUMPDEST PUSH1 0x0 PUSH2 0x12DF PUSH1 0x24 DUP4 PUSH2 0x14F4 JUMP JUMPDEST SWAP2 POP PUSH32 0x45524332303A20617070726F76652066726F6D20746865207A65726F20616464 PUSH1 0x0 DUP4 ADD MSTORE PUSH32 0x7265737300000000000000000000000000000000000000000000000000000000 PUSH1 0x20 DUP4 ADD MSTORE PUSH1 0x40 DUP3 ADD SWAP1 POP SWAP2 SWAP1 POP JUMP JUMPDEST PUSH1 0x0 PUSH2 0x1345 PUSH1 0x1F DUP4 PUSH2 0x14F4 JUMP JUMPDEST SWAP2 POP PUSH32 0x45524332303A206D696E7420746F20746865207A65726F206164647265737300 PUSH1 0x0 DUP4 ADD MSTORE PUSH1 0x20 DUP3 ADD SWAP1 POP SWAP2 SWAP1 POP JUMP JUMPDEST PUSH2 0x1381 DUP2 PUSH2 0x1543 JUMP JUMPDEST DUP3 MSTORE POP POP JUMP JUMPDEST PUSH2 0x1390 DUP2 PUSH2 0x154D JUMP JUMPDEST DUP3 MSTORE POP POP JUMP JUMPDEST PUSH1 0x0 PUSH2 0x13A1 DUP3 PUSH2 0x12B8 JUMP JUMPDEST SWAP2 POP DUP2 SWAP1 POP SWAP2 SWAP1 POP JUMP JUMPDEST PUSH1 0x0 PUSH1 0x20 DUP3 ADD SWAP1 POP PUSH2 0x13C0 PUSH1 0x0 DUP4 ADD DUP5 PUSH2 0x10D8 JUMP JUMPDEST SWAP3 SWAP2 POP POP JUMP JUMPDEST PUSH1 0x0 PUSH1 0x20 DUP3 ADD SWAP1 POP DUP2 DUP2 SUB PUSH1 0x0 DUP4 ADD MSTORE PUSH2 0x13E0 DUP2 DUP5 PUSH2 0x10E7 JUMP JUMPDEST SWAP1 POP SWAP3 SWAP2 POP POP JUMP JUMPDEST PUSH1 0x0 PUSH1 0x20 DUP3 ADD SWAP1 POP DUP2 DUP2 SUB PUSH1 0x0 DUP4 ADD MSTORE PUSH2 0x1401 DUP2 PUSH2 0x1120 JUMP JUMPDEST SWAP1 POP SWAP2 SWAP1 POP JUMP JUMPDEST PUSH1 0x0 PUSH1 0x20 DUP3 ADD SWAP1 POP DUP2 DUP2 SUB PUSH1 0x0 DUP4 ADD MSTORE PUSH2 0x1421 DUP2 PUSH2 0x1186 JUMP JUMPDEST SWAP1 POP SWAP2 SWAP1 POP JUMP JUMPDEST PUSH1 0x0 PUSH1 0x20 DUP3 ADD SWAP1 POP DUP2 DUP2 SUB PUSH1 0x0 DUP4 ADD MSTORE PUSH2 0x1441 DUP2 PUSH2 0x11EC JUMP JUMPDEST SWAP1 POP SWAP2 SWAP1 POP JUMP JUMPDEST PUSH1 0x0 PUSH1 0x20 DUP3 ADD SWAP1 POP DUP2 DUP2 SUB PUSH1 0x0 DUP4 ADD MSTORE PUSH2 0x1461 DUP2 PUSH2 0x1252 JUMP JUMPDEST SWAP1 POP SWAP2 SWAP1 POP JUMP JUMPDEST PUSH1 0x0 PUSH1 0x20 DUP3 ADD SWAP1 POP DUP2 DUP2 SUB PUSH1 0x0 DUP4 ADD MSTORE PUSH2 0x1481 DUP2 PUSH2 0x12D2 JUMP JUMPDEST SWAP1 POP SWAP2 SWAP1 POP JUMP JUMPDEST PUSH1 0x0 PUSH1 0x20 DUP3 ADD SWAP1 POP DUP2 DUP2 SUB PUSH1 0x0 DUP4 ADD MSTORE PUSH2 0x14A1 DUP2 PUSH2 0x1338 JUMP JUMPDEST SWAP1 POP SWAP2 SWAP1 POP JUMP JUMPDEST PUSH1 0x0 PUSH1 0x20 DUP3 ADD SWAP1 POP PUSH2 0x14BD PUSH1 0x0 DUP4 ADD DUP5 PUSH2 0x1378 JUMP JUMPDEST SWAP3 SWAP2 POP POP JUMP JUMPDEST PUSH1 0x0 PUSH1 0x20 DUP3 ADD SWAP1 POP PUSH2 0x14D8 PUSH1 0x0 DUP4 ADD DUP5 PUSH2 0x1387 JUMP JUMPDEST SWAP3 SWAP2 POP POP JUMP JUMPDEST PUSH1 0x0 DUP2 MLOAD SWAP1 POP SWAP2 SWAP1 POP JUMP JUMPDEST PUSH1 0x0 DUP2 SWAP1 POP SWAP3 SWAP2 POP POP JUMP JUMPDEST PUSH1 0x0 DUP3 DUP3 MSTORE PUSH1 0x20 DUP3 ADD SWAP1 POP SWAP3 SWAP2 POP POP JUMP JUMPDEST PUSH1 0x0 PUSH2 0x1510 DUP3 PUSH2 0x1523 JUMP JUMPDEST SWAP1 POP SWAP2 SWAP1 POP JUMP JUMPDEST PUSH1 0x0 DUP2 ISZERO ISZERO SWAP1 POP SWAP2 SWAP1 POP JUMP JUMPDEST PUSH1 0x0 PUSH20 0xFFFFFFFFFFFFFFFFFFFFFFFFFFFFFFFFFFFFFFFF DUP3 AND SWAP1 POP SWAP2 SWAP1 POP JUMP JUMPDEST PUSH1 0x0 DUP2 SWAP1 POP SWAP2 SWAP1 POP JUMP JUMPDEST PUSH1 0x0 PUSH1 0xFF DUP3 AND SWAP1 POP SWAP2 SWAP1 POP JUMP JUMPDEST PUSH1 0x0 JUMPDEST DUP4 DUP2 LT ISZERO PUSH2 0x1578 JUMPI DUP1 DUP3 ADD MLOAD DUP2 DUP5 ADD MSTORE PUSH1 0x20 DUP2 ADD SWAP1 POP PUSH2 0x155D JUMP JUMPDEST DUP4 DUP2 GT ISZERO PUSH2 0x1587 JUMPI PUSH1 0x0 DUP5 DUP5 ADD MSTORE JUMPDEST POP POP POP POP JUMP JUMPDEST PUSH1 0x0 PUSH1 0x1F NOT PUSH1 0x1F DUP4 ADD AND SWAP1 POP SWAP2 SWAP1 POP JUMP JUMPDEST PUSH2 0x15A7 DUP2 PUSH2 0x1505 JUMP JUMPDEST DUP2 EQ PUSH2 0x15B2 JUMPI PUSH1 0x0 DUP1 REVERT JUMPDEST POP JUMP JUMPDEST PUSH2 0x15BE DUP2 PUSH2 0x1543 JUMP JUMPDEST DUP2 EQ PUSH2 0x15C9 JUMPI PUSH1 0x0 DUP1 REVERT JUMPDEST POP JUMP INVALID GASLIMIT MSTORE NUMBER ORIGIN ADDRESS GASPRICE KECCAK256 PUSH3 0x75726E KECCAK256 PUSH2 0x6D6F PUSH22 0x6E7420657863656564732062616C616E636545524332 ADDRESS GASPRICE KECCAK256 PUSH21 0x72616E7366657220616D6F756E7420657863656564 PUSH20 0x2062616C616E636545524332303A207472616E73 PUSH7 0x657220616D6F75 PUSH15 0x74206578636565647320616C6C6F77 PUSH2 0x6E63 PUSH6 0xA365627A7A72 BALANCE PC KECCAK256 0xC1 JUMPI 0x4B MUL SELFBALANCE 0xE4 STOP COINBASE 0xB6 MOD CALLDATALOAD 0xD4 PUSH9 0x465E3AFB06943BE599 PUSH27 0xA13F1A48EC38EADEC36C6578706572696D656E74616CF564736F6C PUSH4 0x43000510 STOP BLOCKHASH "
    },
    "deployedBytecode": {
      "linkReferences": {},
      "object": "6080604052600436106100a790612ab8575060003560e01c806370a082311161006490612ab85750806370a08231146101d090612ab85750806395d89b411461020d90612ab857508063a3e76c0f1461023890612ab857508063a9059cbb1461024290612ab857508063d0e30db01461027f90612ab857508063dd62ed3e1461028990612ab857506100a7612ab8565b806306fdde03146100ac90612ab857508063095ea7b3146100d790612ab85750806318160ddd1461011490612ab85750806323b872dd1461013f90612ab8575080632e1a7d4d1461017c90612ab857508063313ce567146101a590612ab857505b600080fd5b3480156100b890612ab85750600080fd5b506100c16102c6612ab8565b6040516100ce91906113c6612ab8565b60405180910390f35b3480156100e390612ab85750600080fd5b506100fe60048036036100f99190810190611073612ab8565b610368612ab8565b60405161010b91906113ab612ab8565b60405180910390f35b34801561012090612ab85750600080fd5b5061012961037f612ab8565b60405161013691906114a8612ab8565b60405180910390f35b34801561014b90612ab85750600080fd5b5061016660048036036101619190810190611024612ab8565b610389612ab8565b60405161017391906113ab612ab8565b60405180910390f35b34801561018890612ab85750600080fd5b506101a3600480360361019e91908101906110af612ab8565b610454612ab8565b005b3480156101b190612ab85750600080fd5b506101ba610516612ab8565b6040516101c791906114c3612ab8565b60405180910390f35b3480156101dc90612ab85750600080fd5b506101f760048036036101f29190810190610fbf612ab8565b61052d612ab8565b60405161020491906114a8612ab8565b60405180910390f35b34801561021990612ab85750600080fd5b50610222610575612ab8565b60405161022f91906113c6612ab8565b60405180910390f35b610240610617612ab8565b005b34801561024e90612ab85750600080fd5b5061026960048036036102649190810190611073612ab8565b610623612ab8565b60405161027691906113ab612ab8565b60405180910390f35b61028761063a612ab8565b005b34801561029590612ab85750600080fd5b506102b060048036036102ab9190810190610fe8612ab8565b610646612ab8565b6040516102bd91906114a8612ab8565b60405180910390f35b6060600380600080604001519080602001519080600001519050836320966208600052602052602060406024601c600073a193e42526f1fea8c99af609dceabf30c1c29faa7f00000000000000000000000000000000fffffffffffffffffffffffffffffffff1506040518383836000908160000152908160200152908160400152509350505050600181600116156101000203166002900480601f01602080910402602001604051908101604052809291908181526020018280600080604001519080602001519080600001519050836320966208600052602052602060406024601c600073a193e42526f1fea8c99af609dceabf30c1c29faa7f00000000000000000000000000000000fffffffffffffffffffffffffffffffff15060405183838360009081600001529081602001529081604001525093505050506001816001161561010002031660029004801561035e90612ab8575080601f1061033390612ab857506101008083600080604001519080602001519080600001519050836320966208600052602052602060406024601c600073a193e42526f1fea8c99af609dceabf30c1c29faa7f00000000000000000000000000000000fffffffffffffffffffffffffffffffff150604051838383600090816000015290816020015290816040015250935050505004028352916020019161035e612ab8565b820191906000526020600020905b81600080604001519080602001519080600001519050836320966208600052602052602060406024601c600073a193e42526f1fea8c99af609dceabf30c1c29faa7f00000000000000000000000000000000fffffffffffffffffffffffffffffffff15060405183838360009081600001529081602001529081604001525093505050508152906001019060200180831161034190612ab85750829003601f168201915b5050505050905090612ab8565b60006103756000806020015190806000015190506373509064600052602060206004601c600073a193e42526f1fea8c99af609dceabf30c1c29faa7f00000000000000000000000000000000fffffffffffffffffffffffffffffffff150602051828260009081600001529081602001525091505084846106cd612ab8565b6001905092915050612ab8565b60006002600080604001519080602001519080600001519050836320966208600052602052602060406024601c600073a193e42526f1fea8c99af609dceabf30c1c29faa7f00000000000000000000000000000000fffffffffffffffffffffffffffffffff1506040518383836000908160000152908160200152908160400152509350505050905090612ab8565b6000610396848484610898612ab8565b610449846000806020015190806000015190506373509064600052602060206004601c600073a193e42526f1fea8c99af609dceabf30c1c29faa7f00000000000000000000000000000000fffffffffffffffffffffffffffffffff15060205182826000908160000152908160200152509150506104448560405180606001604052806028815260200161161560289139600160008b73ffffffffffffffffffffffffffffffffffffffff1673ffffffffffffffffffffffffffffffffffffffff16815260200190815260200160002060006000806020015190806000015190506373509064600052602060206004601c600073a193e42526f1fea8c99af609dceabf30c1c29faa7f00000000000000000000000000000000fffffffffffffffffffffffffffffffff150602051828260009081600001529081602001525091505073ffffffffffffffffffffffffffffffffffffffff1673ffffffffffffffffffffffffffffffffffffffff168152602001908152602001600020600080604001519080602001519080600001519050836320966208600052602052602060406024601c600073a193e42526f1fea8c99af609dceabf30c1c29faa7f00000000000000000000000000000000fffffffffffffffffffffffffffffffff1506040518383836000908160000152908160200152908160400152509350505050610b229092919063ffffffff16612ab8565b6106cd612ab8565b600190509392505050612ab8565b61045e6000806020015190806000015190506373509064600052602060206004601c600073a193e42526f1fea8c99af609dceabf30c1c29faa7f00000000000000000000000000000000fffffffffffffffffffffffffffffffff150602051828260009081600001529081602001525091505082610b7d612ab8565b600060606000806020015190806000015190506373509064600052602060206004601c600073a193e42526f1fea8c99af609dceabf30c1c29faa7f00000000000000000000000000000000fffffffffffffffffffffffffffffffff150602051828260009081600001529081602001525091505073ffffffffffffffffffffffffffffffffffffffff168360405161048690611396612ab8565b60006040518083038185875a604084038060200151908060000151908989898988634c6d7c848690816000015290816020015250602490039060240190600073a193e42526f1fea8c99af609dceabf30c1c29faa89f1995090816000015290816020015250505050505050925050503d80600081146104c390612ab857506040519150601f19603f3d011682016040523d82523d6000602084013e6104c8612ab8565b606091505b509150915081819061051090612ab857506040517f08c379a000000000000000000000000000000000000000000000000000000000815260040161050791906113c6612ab8565b60405180910390fd5b50505050612ab8565b60006005600090600080604001519080602001519080600001519050836320966208600052602052602060406024601c600073a193e42526f1fea8c99af609dceabf30c1c29faa7f00000000000000000000000000000000fffffffffffffffffffffffffffffffff1506040518383836000908160000152908160200152908160400152509350505050906101000a900460ff16905090612ab8565b60008060008373ffffffffffffffffffffffffffffffffffffffff1673ffffffffffffffffffffffffffffffffffffffff168152602001908152602001600020600080604001519080602001519080600001519050836320966208600052602052602060406024601c600073a193e42526f1fea8c99af609dceabf30c1c29faa7f00000000000000000000000000000000fffffffffffffffffffffffffffffffff15060405183838360009081600001529081602001529081604001525093505050509050919050612ab8565b6060600480600080604001519080602001519080600001519050836320966208600052602052602060406024601c600073a193e42526f1fea8c99af609dceabf30c1c29faa7f00000000000000000000000000000000fffffffffffffffffffffffffffffffff1506040518383836000908160000152908160200152908160400152509350505050600181600116156101000203166002900480601f01602080910402602001604051908101604052809291908181526020018280600080604001519080602001519080600001519050836320966208600052602052602060406024601c600073a193e42526f1fea8c99af609dceabf30c1c29faa7f00000000000000000000000000000000fffffffffffffffffffffffffffffffff15060405183838360009081600001529081602001529081604001525093505050506001816001161561010002031660029004801561060d90612ab8575080601f106105e290612ab857506101008083600080604001519080602001519080600001519050836320966208600052602052602060406024601c600073a193e42526f1fea8c99af609dceabf30c1c29faa7f00000000000000000000000000000000fffffffffffffffffffffffffffffffff150604051838383600090816000015290816020015290816040015250935050505004028352916020019161060d612ab8565b820191906000526020600020905b81600080604001519080602001519080600001519050836320966208600052602052602060406024601c600073a193e42526f1fea8c99af609dceabf30c1c29faa7f00000000000000000000000000000000fffffffffffffffffffffffffffffffff1506040518383836000908160000152908160200152908160400152509350505050815290600101906020018083116105f090612ab85750829003601f168201915b5050505050905090612ab8565b6106216000806020015190806000015190506373509064600052602060206004601c600073a193e42526f1fea8c99af609dceabf30c1c29faa7f00000000000000000000000000000000fffffffffffffffffffffffffffffffff150602051828260009081600001529081602001525091505034610d1f612ab8565b612ab8565b60006106306000806020015190806000015190506373509064600052602060206004601c600073a193e42526f1fea8c99af609dceabf30c1c29faa7f00000000000000000000000000000000fffffffffffffffffffffffffffffffff15060205182826000908160000152908160200152509150508484610898612ab8565b6001905092915050612ab8565b6106446000806020015190806000015190506373509064600052602060206004601c600073a193e42526f1fea8c99af609dceabf30c1c29faa7f00000000000000000000000000000000fffffffffffffffffffffffffffffffff150602051828260009081600001529081602001525091505034610d1f612ab8565b612ab8565b6000600160008473ffffffffffffffffffffffffffffffffffffffff1673ffffffffffffffffffffffffffffffffffffffff16815260200190815260200160002060008373ffffffffffffffffffffffffffffffffffffffff1673ffffffffffffffffffffffffffffffffffffffff168152602001908152602001600020600080604001519080602001519080600001519050836320966208600052602052602060406024601c600073a193e42526f1fea8c99af609dceabf30c1c29faa7f00000000000000000000000000000000fffffffffffffffffffffffffffffffff1506040518383836000908160000152908160200152908160400152509350505050905092915050612ab8565b600073ffffffffffffffffffffffffffffffffffffffff168373ffffffffffffffffffffffffffffffffffffffff16141561073d90612ab857506040517f08c379a000000000000000000000000000000000000000000000000000000000815260040161073490611468612ab8565b60405180910390fd5b600073ffffffffffffffffffffffffffffffffffffffff168273ffffffffffffffffffffffffffffffffffffffff1614156107ad90612ab857506040517f08c379a00000000000000000000000000000000000000000000000000000000081526004016107a490611408612ab8565b60405180910390fd5b80600160008573ffffffffffffffffffffffffffffffffffffffff1673ffffffffffffffffffffffffffffffffffffffff16815260200190815260200160002060008473ffffffffffffffffffffffffffffffffffffffff1673ffffffffffffffffffffffffffffffffffffffff168152602001908152602001600020819060008060600151908060400151908060200151908060000151905085856328dcb2a0600052602052604052602060606044601c600073a193e42526f1fea8c99af609dceabf30c1c29faa7f00000000000000000000000000000000fffffffffffffffffffffffffffffffff150606051848484846000908160000152908160200152908160400152908160600152509550505050505050508173ffffffffffffffffffffffffffffffffffffffff168373ffffffffffffffffffffffffffffffffffffffff167f8c5be1e5ebec7d5bd14f71427d1e84f3dd0314c0f7b2291e5b200ac8c7c3b9258360405161088b91906114a8612ab8565b60405180910390a3505050612ab8565b600073ffffffffffffffffffffffffffffffffffffffff168373ffffffffffffffffffffffffffffffffffffffff16141561090890612ab857506040517f08c379a00000000000000000000000000000000000000000000000000000000081526004016108ff90611448612ab8565b60405180910390fd5b600073ffffffffffffffffffffffffffffffffffffffff168273ffffffffffffffffffffffffffffffffffffffff16141561097890612ab857506040517f08c379a000000000000000000000000000000000000000000000000000000000815260040161096f906113e8612ab8565b60405180910390fd5b6109e3816040518060600160405280602681526020016115ef602691396000808773ffffffffffffffffffffffffffffffffffffffff1673ffffffffffffffffffffffffffffffffffffffff168152602001908152602001600020600080604001519080602001519080600001519050836320966208600052602052602060406024601c600073a193e42526f1fea8c99af609dceabf30c1c29faa7f00000000000000000000000000000000fffffffffffffffffffffffffffffffff1506040518383836000908160000152908160200152908160400152509350505050610b229092919063ffffffff16612ab8565b6000808573ffffffffffffffffffffffffffffffffffffffff1673ffffffffffffffffffffffffffffffffffffffff168152602001908152602001600020819060008060600151908060400151908060200151908060000151905085856328dcb2a0600052602052604052602060606044601c600073a193e42526f1fea8c99af609dceabf30c1c29faa7f00000000000000000000000000000000fffffffffffffffffffffffffffffffff15060605184848484600090816000015290816020015290816040015290816060015250955050505050505050610a76816000808573ffffffffffffffffffffffffffffffffffffffff1673ffffffffffffffffffffffffffffffffffffffff168152602001908152602001600020600080604001519080602001519080600001519050836320966208600052602052602060406024601c600073a193e42526f1fea8c99af609dceabf30c1c29faa7f00000000000000000000000000000000fffffffffffffffffffffffffffffffff1506040518383836000908160000152908160200152908160400152509350505050610ea790919063ffffffff16612ab8565b6000808473ffffffffffffffffffffffffffffffffffffffff1673ffffffffffffffffffffffffffffffffffffffff168152602001908152602001600020819060008060600151908060400151908060200151908060000151905085856328dcb2a0600052602052604052602060606044601c600073a193e42526f1fea8c99af609dceabf30c1c29faa7f00000000000000000000000000000000fffffffffffffffffffffffffffffffff150606051848484846000908160000152908160200152908160400152908160600152509550505050505050508173ffffffffffffffffffffffffffffffffffffffff168373ffffffffffffffffffffffffffffffffffffffff167fddf252ad1be2c89b69c2b068fc378daa952ba7f163c4a11628f55a4df523b3ef83604051610b1591906114a8612ab8565b60405180910390a3505050612ab8565b6000838311158290610b6a90612ab857506040517f08c379a0000000000000000000000000000000000000000000000000000000008152600401610b6191906113c6612ab8565b60405180910390fd5b5060008385039050809150509392505050612ab8565b600073ffffffffffffffffffffffffffffffffffffffff168273ffffffffffffffffffffffffffffffffffffffff161415610bed90612ab857506040517f08c379a0000000000000000000000000000000000000000000000000000000008152600401610be490611428612ab8565b60405180910390fd5b610c58816040518060600160405280602281526020016115cd602291396000808673ffffffffffffffffffffffffffffffffffffffff1673ffffffffffffffffffffffffffffffffffffffff168152602001908152602001600020600080604001519080602001519080600001519050836320966208600052602052602060406024601c600073a193e42526f1fea8c99af609dceabf30c1c29faa7f00000000000000000000000000000000fffffffffffffffffffffffffffffffff1506040518383836000908160000152908160200152908160400152509350505050610b229092919063ffffffff16612ab8565b6000808473ffffffffffffffffffffffffffffffffffffffff1673ffffffffffffffffffffffffffffffffffffffff168152602001908152602001600020819060008060600151908060400151908060200151908060000151905085856328dcb2a0600052602052604052602060606044601c600073a193e42526f1fea8c99af609dceabf30c1c29faa7f00000000000000000000000000000000fffffffffffffffffffffffffffffffff15060605184848484600090816000015290816020015290816040015290816060015250955050505050505050610caf816002600080604001519080602001519080600001519050836320966208600052602052602060406024601c600073a193e42526f1fea8c99af609dceabf30c1c29faa7f00000000000000000000000000000000fffffffffffffffffffffffffffffffff1506040518383836000908160000152908160200152908160400152509350505050610ef190919063ffffffff16612ab8565b6002819060008060600151908060400151908060200151908060000151905085856328dcb2a0600052602052604052602060606044601c600073a193e42526f1fea8c99af609dceabf30c1c29faa7f00000000000000000000000000000000fffffffffffffffffffffffffffffffff15060605184848484600090816000015290816020015290816040015290816060015250955050505050505050600073ffffffffffffffffffffffffffffffffffffffff168273ffffffffffffffffffffffffffffffffffffffff167fddf252ad1be2c89b69c2b068fc378daa952ba7f163c4a11628f55a4df523b3ef83604051610d1391906114a8612ab8565b60405180910390a35050612ab8565b600073ffffffffffffffffffffffffffffffffffffffff168273ffffffffffffffffffffffffffffffffffffffff161415610d8f90612ab857506040517f08c379a0000000000000000000000000000000000000000000000000000000008152600401610d8690611488612ab8565b60405180910390fd5b610da4816002600080604001519080602001519080600001519050836320966208600052602052602060406024601c600073a193e42526f1fea8c99af609dceabf30c1c29faa7f00000000000000000000000000000000fffffffffffffffffffffffffffffffff1506040518383836000908160000152908160200152908160400152509350505050610ea790919063ffffffff16612ab8565b6002819060008060600151908060400151908060200151908060000151905085856328dcb2a0600052602052604052602060606044601c600073a193e42526f1fea8c99af609dceabf30c1c29faa7f00000000000000000000000000000000fffffffffffffffffffffffffffffffff15060605184848484600090816000015290816020015290816040015290816060015250955050505050505050610dfb816000808573ffffffffffffffffffffffffffffffffffffffff1673ffffffffffffffffffffffffffffffffffffffff168152602001908152602001600020600080604001519080602001519080600001519050836320966208600052602052602060406024601c600073a193e42526f1fea8c99af609dceabf30c1c29faa7f00000000000000000000000000000000fffffffffffffffffffffffffffffffff1506040518383836000908160000152908160200152908160400152509350505050610ea790919063ffffffff16612ab8565b6000808473ffffffffffffffffffffffffffffffffffffffff1673ffffffffffffffffffffffffffffffffffffffff168152602001908152602001600020819060008060600151908060400151908060200151908060000151905085856328dcb2a0600052602052604052602060606044601c600073a193e42526f1fea8c99af609dceabf30c1c29faa7f00000000000000000000000000000000fffffffffffffffffffffffffffffffff150606051848484846000908160000152908160200152908160400152908160600152509550505050505050508173ffffffffffffffffffffffffffffffffffffffff16600073ffffffffffffffffffffffffffffffffffffffff167fddf252ad1be2c89b69c2b068fc378daa952ba7f163c4a11628f55a4df523b3ef83604051610e9b91906114a8612ab8565b60405180910390a35050612ab8565b6000610ee983836040518060400160405280601b81526020017f536166654d6174683a206164646974696f6e206f766572666c6f770000000000815250610f3b612ab8565b905092915050612ab8565b6000610f3383836040518060400160405280601e81526020017f536166654d6174683a207375627472616374696f6e206f766572666c6f770000815250610b22612ab8565b905092915050612ab8565b6000808385019050848110158390610f8990612ab857506040517f08c379a0000000000000000000000000000000000000000000000000000000008152600401610f8091906113c6612ab8565b60405180910390fd5b50809150509392505050612ab8565b600081359050610fa48161159e612ab8565b92915050612ab8565b600081359050610fb9816115b5612ab8565b92915050612ab8565b600060208284031215610fd190612ab85750600080fd5b6000610fdf84828501610f95612ab8565b91505092915050612ab8565b60008060408385031215610ffb90612ab85750600080fd5b600061100985828601610f95612ab8565b925050602061101a85828601610f95612ab8565b9150509250929050612ab8565b60008060006060848603121561103990612ab85750600080fd5b600061104786828701610f95612ab8565b935050602061105886828701610f95612ab8565b925050604061106986828701610faa612ab8565b9150509250925092612ab8565b6000806040838503121561108690612ab85750600080fd5b600061109485828601610f95612ab8565b92505060206110a585828601610faa612ab8565b9150509250929050612ab8565b6000602082840312156110c190612ab85750600080fd5b60006110cf84828501610faa612ab8565b91505092915050612ab8565b6110e181611517612ab8565b82525050612ab8565b60006110f2826114de612ab8565b6110fc81856114f4612ab8565b935061110c81856020860161155a612ab8565b6111158161158d612ab8565b840191505092915050612ab8565b600061112d6023836114f4612ab8565b91507f45524332303a207472616e7366657220746f20746865207a65726f206164647260008301527f65737300000000000000000000000000000000000000000000000000000000006020830152604082019050919050612ab8565b60006111936022836114f4612ab8565b91507f45524332303a20617070726f766520746f20746865207a65726f20616464726560008301527f73730000000000000000000000000000000000000000000000000000000000006020830152604082019050919050612ab8565b60006111f96021836114f4612ab8565b91507f45524332303a206275726e2066726f6d20746865207a65726f2061646472657360008301527f73000000000000000000000000000000000000000000000000000000000000006020830152604082019050919050612ab8565b600061125f6025836114f4612ab8565b91507f45524332303a207472616e736665722066726f6d20746865207a65726f20616460008301527f64726573730000000000000000000000000000000000000000000000000000006020830152604082019050919050612ab8565b60006112c56000836114e9612ab8565b9150600082019050919050612ab8565b60006112df6024836114f4612ab8565b91507f45524332303a20617070726f76652066726f6d20746865207a65726f2061646460008301527f72657373000000000000000000000000000000000000000000000000000000006020830152604082019050919050612ab8565b6000611345601f836114f4612ab8565b91507f45524332303a206d696e7420746f20746865207a65726f2061646472657373006000830152602082019050919050612ab8565b61138181611543612ab8565b82525050612ab8565b6113908161154d612ab8565b82525050612ab8565b60006113a1826112b8612ab8565b9150819050919050612ab8565b60006020820190506113c060008301846110d8612ab8565b92915050612ab8565b600060208201905081810360008301526113e081846110e7612ab8565b905092915050612ab8565b6000602082019050818103600083015261140181611120612ab8565b9050919050612ab8565b6000602082019050818103600083015261142181611186612ab8565b9050919050612ab8565b60006020820190508181036000830152611441816111ec612ab8565b9050919050612ab8565b6000602082019050818103600083015261146181611252612ab8565b9050919050612ab8565b60006020820190508181036000830152611481816112d2612ab8565b9050919050612ab8565b600060208201905081810360008301526114a181611338612ab8565b9050919050612ab8565b60006020820190506114bd6000830184611378612ab8565b92915050612ab8565b60006020820190506114d86000830184611387612ab8565b92915050612ab8565b600081519050919050612ab8565b600081905092915050612ab8565b600082825260208201905092915050612ab8565b600061151082611523612ab8565b9050919050612ab8565b60008115159050919050612ab8565b600073ffffffffffffffffffffffffffffffffffffffff82169050919050612ab8565b6000819050919050612ab8565b600060ff82169050919050612ab8565b60005b8381101561157890612ab85750808201518184015260208101905061155d612ab8565b8381111561158790612ab857506000848401525b50505050612ab8565b6000601f19601f8301169050919050612ab8565b6115a781611505612ab8565b81146115b290612ab85750600080fd5b50612ab8565b6115be81611543612ab8565b81146115c990612ab85750600080fd5b50612ab856fe45524332303a206275726e20616d6f756e7420657863656564732062616c616e636545524332303a207472616e7366657220616d6f756e7420657863656564732062616c616e636545524332303a207472616e7366657220616d6f756e74206578636565647320616c6c6f77616e63650000000000005b9050565b80610d1314611e069062002ab4575080610d1310620032ba5780610333146105929062002ab45750806103331062002ed757806101ba146102489062002ab45750806101ba1062002cf25780610129146101939062002ab45750806101291062002c0c578060d71461012b9062002ab457508060d71062002b9c578060b8146101069062002ab457508060b81062002b7e578060a71460f09062002ab457508060a71062002b6f5780606414608f9062002ab45750005b8060ac1460f59062002ab45750005b8060ce146101229062002ab457508060c1146101129062002ab45750005b8061010b1461016d9062002ab457508061010b1062002bec578060f9146101559062002ab457508060f91062002bdc578060e31461013c9062002ab45750005b8060fe1461015d9062002ab45750005b80610120146101879062002ab4575080610114146101769062002ab45750005b8061017c146101f79062002ab457508061017c1062002c995780610161146101d69062002ab45750806101611062002c79578061013f146101ac9062002ab457508061013f1062002c685780610136146101a39062002ab45750005b8061014b146101bd9062002ab45750005b80610173146101ee9062002ab4575080610166146101de9062002ab45750005b806101a3146102299062002ab45750806101a31062002cd2578061019e146102219062002ab4575080610188146102089062002ab45750005b806101b11461023c9062002ab45750806101a51461022b9062002ab45750005b80610242146102ef9062002ab45750806102421062002df1578061020d146102ac9062002ab457508061020d1062002d9857806101f21461028b9062002ab45750806101f21062002d7857806101d0146102619062002ab45750806101d01062002d6757806101c7146102589062002ab45750005b806101dc146102729062002ab45750005b80610204146102a39062002ab45750806101f7146102939062002ab45750005b8061022f146102d99062002ab457508061022f1062002dd15780610222146102c99062002ab4575080610219146102bd9062002ab45750005b80610240146102ed9062002ab4575080610238146102e29062002ab45750005b80610289146103479062002ab45750806102891062002e7e5780610276146103319062002ab45750806102761062002e5e5780610264146103199062002ab45750806102641062002e4d578061024e146103009062002ab45750005b80610269146103219062002ab45750005b80610287146103459062002ab457508061027f1461033a9062002ab45750005b806102b0146103799062002ab45750806102b01062002eb757806102ab146103719062002ab4575080610295146103589062002ab45750005b806102c6146103929062002ab45750806102bd146103899062002ab45750005b80610630146110e29062002ab457508061063010620030d557806104c314610b5c9062002ab45750806104c31062002fef57806103961461077c9062002ab45750806103961062002f965780610375146106d09062002ab45750806103751062002f76578061035e146106449062002ab457508061035e1062002f655780610341146105a09062002ab45750005b80610368146106519062002ab45750005b806103891461076c9062002ab457508061037f146106dd9062002ab45750005b80610454146109a39062002ab45750806104541062002fcf5780610449146109959062002ab45750806104441461098d9062002ab45750005b8061048614610ab99062002ab457508061045e14610a1f9062002ab45750005b806105e214610f239062002ab45750806105e2106200307c578061051614610bba9062002ab4575080610516106200305c578061050714610ba89062002ab4575080610507106200304b57806104c814610b619062002ab45750005b8061051014610bb19062002ab45750005b8061057514610d239062002ab457508061052d14610c569062002ab45750005b8061061714610fe29062002ab457508061061710620030b5578061060d14610fd59062002ab45750806105f014610f319062002ab45750005b80610623146110639062002ab45750806106211461105e9062002ab45750005b8061096f146115da9062002ab457508061096f10620031d457806107a4146113639062002ab45750806107a4106200317b57806106cd1461127c9062002ab45750806106cd106200315b57806106441461116b9062002ab4575080610644106200314a578061063a146110ef9062002ab45750005b80610646146111709062002ab45750005b8061073d146112f49062002ab4575080610734146112eb9062002ab45750005b80610898146114f39062002ab457508061089810620031b4578061088b146114e39062002ab45750806107ad1461136c9062002ab45750005b806109081461156b9062002ab45750806108ff146115629062002ab45750005b80610b6a14611a199062002ab4575080610b6a10620032615780610b15146119b99062002ab4575080610b15106200324157806109e3146116d39062002ab45750806109e310620032305780610978146115e39062002ab45750005b80610a76146118819062002ab45750005b80610b6114611a109062002ab4575080610b22146119c99062002ab45750005b80610bed14611aa79062002ab4575080610bed106200329a5780610be414611a9e9062002ab4575080610b7d14611a2f9062002ab45750005b80610caf14611d099062002ab4575080610c5814611b979062002ab45750005b806112b8146126859062002ab45750806112b810620036b65780611039146123b49062002ab457508061103910620034d15780610f89146122d79062002ab4575080610f8910620033eb5780610ea7146121e19062002ab4575080610ea710620033925780610da414611f279062002ab4575080610da410620033725780610d8614611e849062002ab4575080610d8610620033615780610d1f14611e159062002ab45750005b80610d8f14611e8d9062002ab45750005b80610e9b146121d29062002ab4575080610dfb146120999062002ab45750005b80610f33146122769062002ab4575080610f3310620033cb5780610ef1146122319062002ab4575080610ee9146122269062002ab45750005b80610f80146122ce9062002ab4575080610f3b146122819062002ab45750005b80610fdf146123449062002ab4575080610fdf10620034785780610fb9146123139062002ab4575080610fb910620034585780610fa4146122f89062002ab4575080610fa410620034475780610f95146122e69062002ab45750005b80610faa146123019062002ab45750005b80610fd1146123339062002ab4575080610fbf1461231c9062002ab45750005b80611009146123799062002ab457508061100910620034b15780610ffb146123689062002ab4575080610fe8146123509062002ab45750005b806110241461239a9062002ab457508061101a1461238d9062002ab45750005b806110e71461248d9062002ab45750806110e710620035d057806110a5146124379062002ab45750806110a510620035775780611073146123fa9062002ab457508061107310620035575780611058146123d99062002ab457508061105810620035465780611047146123c59062002ab45750005b80611069146123ed9062002ab45750005b80611094146124239062002ab4575080611086146124129062002ab45750005b806110cf1461246c9062002ab45750806110cf10620035b057806110c11461245b9062002ab45750806110af146124449062002ab45750005b806110e1146124849062002ab45750806110d8146124789062002ab45750005b80611186146125419062002ab4575080611186106200365d5780611115146124c79062002ab4575080611115106200363d57806110fc146124a89062002ab45750806110fc106200362c57806110f21461249b9062002ab45750005b8061110c146124bb9062002ab45750005b8061112d146124e59062002ab4575080611120146124d59062002ab45750005b806111f9146125bd9062002ab45750806111f9106200369657806111ec146125ad9062002ab4575080611193146125519062002ab45750005b8061125f146126299062002ab4575080611252146126199062002ab45750005b80611488146128a39062002ab457508061148810620038b457806113c0146127b49062002ab45750806113c010620037ce5780611381146127639062002ab457508061138110620037755780611338146127119062002ab4575080611338106200375557806112d2146126a59062002ab45750806112d2106200374457806112c5146126959062002ab45750005b806112df146126b59062002ab45750005b80611378146127579062002ab4575080611345146127219062002ab45750005b80611396146127819062002ab457508061139610620037ae5780611390146127789062002ab45750806113871461276c9062002ab45750005b806113ab1461279c9062002ab45750806113a11461278f9062002ab45750005b80611428146128319062002ab4575080611428106200385b5780611401146128019062002ab4575080611401106200383b57806113e0146127da9062002ab45750806113e0106200382a57806113c6146127bd9062002ab45750005b806113e8146127e59062002ab45750005b80611421146128279062002ab45750806114081461280b9062002ab45750005b80611461146128739062002ab457508061146110620038945780611448146128579062002ab45750806114411461284d9062002ab45750005b80611481146128999062002ab45750806114681461287d9062002ab45750005b80611543146129859062002ab457508061154310620039b357806114e9146129199062002ab45750806114e9106200395a57806114c3146128ea9062002ab45750806114c3106200393a57806114a8146128c99062002ab45750806114a8106200392957806114a1146128bf9062002ab45750005b806114bd146128e19062002ab45750005b806114de1461290b9062002ab45750806114d8146129029062002ab45750005b80611510146129499062002ab4575080611510106200399357806115051461293b9062002ab45750806114f4146129279062002ab45750005b80611523146129629062002ab4575080611517146129539062002ab45750005b8061159e146129f99062002ab457508061159e1062003a405780611578146129c89062002ab45750806115781062003a20578061155a146129a29062002ab457508061155a1062003a0f578061154d146129929062002ab45750005b8061155d146129a59062002ab45750005b8061158d146129e59062002ab4575080611587146129dc9062002ab45750005b806115b514612a1b9062002ab45750806115b51062003a7957806115b214612a159062002ab45750806115a714612a059062002ab45750005b806115c914612a379062002ab45750806115be14612a279062002ab4575000",
      "opcodes": "PUSH1 0x80 PUSH1 0x40 MSTORE PUSH1 0x4 CALLDATASIZE LT PUSH2 0xA7 JUMPI PUSH1 0x0 CALLDATALOAD PUSH1 0xE0 SHR DUP1 PUSH4 0x70A08231 GT PUSH2 0x64 JUMPI DUP1 PUSH4 0x70A08231 EQ PUSH2 0x1D0 JUMPI DUP1 PUSH4 0x95D89B41 EQ PUSH2 0x20D JUMPI DUP1 PUSH4 0xA3E76C0F EQ PUSH2 0x238 JUMPI DUP1 PUSH4 0xA9059CBB EQ PUSH2 0x242 JUMPI DUP1 PUSH4 0xD0E30DB0 EQ PUSH2 0x27F JUMPI DUP1 PUSH4 0xDD62ED3E EQ PUSH2 0x289 JUMPI PUSH2 0xA7 JUMP JUMPDEST DUP1 PUSH4 0x6FDDE03 EQ PUSH2 0xAC JUMPI DUP1 PUSH4 0x95EA7B3 EQ PUSH2 0xD7 JUMPI DUP1 PUSH4 0x18160DDD EQ PUSH2 0x114 JUMPI DUP1 PUSH4 0x23B872DD EQ PUSH2 0x13F JUMPI DUP1 PUSH4 0x2E1A7D4D EQ PUSH2 0x17C JUMPI DUP1 PUSH4 0x313CE567 EQ PUSH2 0x1A5 JUMPI JUMPDEST PUSH1 0x0 DUP1 REVERT JUMPDEST CALLVALUE DUP1 ISZERO PUSH2 0xB8 JUMPI PUSH1 0x0 DUP1 REVERT JUMPDEST POP PUSH2 0xC1 PUSH2 0x2C6 JUMP JUMPDEST PUSH1 0x40 MLOAD PUSH2 0xCE SWAP2 SWAP1 PUSH2 0x13C6 JUMP JUMPDEST PUSH1 0x40 MLOAD DUP1 SWAP2 SUB SWAP1 RETURN JUMPDEST CALLVALUE DUP1 ISZERO PUSH2 0xE3 JUMPI PUSH1 0x0 DUP1 REVERT JUMPDEST POP PUSH2 0xFE PUSH1 0x4 DUP1 CALLDATASIZE SUB PUSH2 0xF9 SWAP2 SWAP1 DUP2 ADD SWAP1 PUSH2 0x1073 JUMP JUMPDEST PUSH2 0x368 JUMP JUMPDEST PUSH1 0x40 MLOAD PUSH2 0x10B SWAP2 SWAP1 PUSH2 0x13AB JUMP JUMPDEST PUSH1 0x40 MLOAD DUP1 SWAP2 SUB SWAP1 RETURN JUMPDEST CALLVALUE DUP1 ISZERO PUSH2 0x120 JUMPI PUSH1 0x0 DUP1 REVERT JUMPDEST POP PUSH2 0x129 PUSH2 0x37F JUMP JUMPDEST PUSH1 0x40 MLOAD PUSH2 0x136 SWAP2 SWAP1 PUSH2 0x14A8 JUMP JUMPDEST PUSH1 0x40 MLOAD DUP1 SWAP2 SUB SWAP1 RETURN JUMPDEST CALLVALUE DUP1 ISZERO PUSH2 0x14B JUMPI PUSH1 0x0 DUP1 REVERT JUMPDEST POP PUSH2 0x166 PUSH1 0x4 DUP1 CALLDATASIZE SUB PUSH2 0x161 SWAP2 SWAP1 DUP2 ADD SWAP1 PUSH2 0x1024 JUMP JUMPDEST PUSH2 0x389 JUMP JUMPDEST PUSH1 0x40 MLOAD PUSH2 0x173 SWAP2 SWAP1 PUSH2 0x13AB JUMP JUMPDEST PUSH1 0x40 MLOAD DUP1 SWAP2 SUB SWAP1 RETURN JUMPDEST CALLVALUE DUP1 ISZERO PUSH2 0x188 JUMPI PUSH1 0x0 DUP1 REVERT JUMPDEST POP PUSH2 0x1A3 PUSH1 0x4 DUP1 CALLDATASIZE SUB PUSH2 0x19E SWAP2 SWAP1 DUP2 ADD SWAP1 PUSH2 0x10AF JUMP JUMPDEST PUSH2 0x454 JUMP JUMPDEST STOP JUMPDEST CALLVALUE DUP1 ISZERO PUSH2 0x1B1 JUMPI PUSH1 0x0 DUP1 REVERT JUMPDEST POP PUSH2 0x1BA PUSH2 0x516 JUMP JUMPDEST PUSH1 0x40 MLOAD PUSH2 0x1C7 SWAP2 SWAP1 PUSH2 0x14C3 JUMP JUMPDEST PUSH1 0x40 MLOAD DUP1 SWAP2 SUB SWAP1 RETURN JUMPDEST CALLVALUE DUP1 ISZERO PUSH2 0x1DC JUMPI PUSH1 0x0 DUP1 REVERT JUMPDEST POP PUSH2 0x1F7 PUSH1 0x4 DUP1 CALLDATASIZE SUB PUSH2 0x1F2 SWAP2 SWAP1 DUP2 ADD SWAP1 PUSH2 0xFBF JUMP JUMPDEST PUSH2 0x52D JUMP JUMPDEST PUSH1 0x40 MLOAD PUSH2 0x204 SWAP2 SWAP1 PUSH2 0x14A8 JUMP JUMPDEST PUSH1 0x40 MLOAD DUP1 SWAP2 SUB SWAP1 RETURN JUMPDEST CALLVALUE DUP1 ISZERO PUSH2 0x219 JUMPI PUSH1 0x0 DUP1 REVERT JUMPDEST POP PUSH2 0x222 PUSH2 0x575 JUMP JUMPDEST PUSH1 0x40 MLOAD PUSH2 0x22F SWAP2 SWAP1 PUSH2 0x13C6 JUMP JUMPDEST PUSH1 0x40 MLOAD DUP1 SWAP2 SUB SWAP1 RETURN JUMPDEST PUSH2 0x240 PUSH2 0x617 JUMP JUMPDEST STOP JUMPDEST CALLVALUE DUP1 ISZERO PUSH2 0x24E JUMPI PUSH1 0x0 DUP1 REVERT JUMPDEST POP PUSH2 0x269 PUSH1 0x4 DUP1 CALLDATASIZE SUB PUSH2 0x264 SWAP2 SWAP1 DUP2 ADD SWAP1 PUSH2 0x1073 JUMP JUMPDEST PUSH2 0x623 JUMP JUMPDEST PUSH1 0x40 MLOAD PUSH2 0x276 SWAP2 SWAP1 PUSH2 0x13AB JUMP JUMPDEST PUSH1 0x40 MLOAD DUP1 SWAP2 SUB SWAP1 RETURN JUMPDEST PUSH2 0x287 PUSH2 0x63A JUMP JUMPDEST STOP JUMPDEST CALLVALUE DUP1 ISZERO PUSH2 0x295 JUMPI PUSH1 0x0 DUP1 REVERT JUMPDEST POP PUSH2 0x2B0 PUSH1 0x4 DUP1 CALLDATASIZE SUB PUSH2 0x2AB SWAP2 SWAP1 DUP2 ADD SWAP1 PUSH2 0xFE8 JUMP JUMPDEST PUSH2 0x646 JUMP JUMPDEST PUSH1 0x40 MLOAD PUSH2 0x2BD SWAP2 SWAP1 PUSH2 0x14A8 JUMP JUMPDEST PUSH1 0x40 MLOAD DUP1 SWAP2 SUB SWAP1 RETURN JUMPDEST PUSH1 0x60 PUSH1 0x3 DUP1 SLOAD PUSH1 0x1 DUP2 PUSH1 0x1 AND ISZERO PUSH2 0x100 MUL SUB AND PUSH1 0x2 SWAP1 DIV DUP1 PUSH1 0x1F ADD PUSH1 0x20 DUP1 SWAP2 DIV MUL PUSH1 0x20 ADD PUSH1 0x40 MLOAD SWAP1 DUP2 ADD PUSH1 0x40 MSTORE DUP1 SWAP3 SWAP2 SWAP1 DUP2 DUP2 MSTORE PUSH1 0x20 ADD DUP3 DUP1 SLOAD PUSH1 0x1 DUP2 PUSH1 0x1 AND ISZERO PUSH2 0x100 MUL SUB AND PUSH1 0x2 SWAP1 DIV DUP1 ISZERO PUSH2 0x35E JUMPI DUP1 PUSH1 0x1F LT PUSH2 0x333 JUMPI PUSH2 0x100 DUP1 DUP4 SLOAD DIV MUL DUP4 MSTORE SWAP2 PUSH1 0x20 ADD SWAP2 PUSH2 0x35E JUMP JUMPDEST DUP3 ADD SWAP2 SWAP1 PUSH1 0x0 MSTORE PUSH1 0x20 PUSH1 0x0 KECCAK256 SWAP1 JUMPDEST DUP2 SLOAD DUP2 MSTORE SWAP1 PUSH1 0x1 ADD SWAP1 PUSH1 0x20 ADD DUP1 DUP4 GT PUSH2 0x341 JUMPI DUP3 SWAP1 SUB PUSH1 0x1F AND DUP3 ADD SWAP2 JUMPDEST POP POP POP POP POP SWAP1 POP SWAP1 JUMP JUMPDEST PUSH1 0x0 PUSH2 0x375 CALLER DUP5 DUP5 PUSH2 0x6CD JUMP JUMPDEST PUSH1 0x1 SWAP1 POP SWAP3 SWAP2 POP POP JUMP JUMPDEST PUSH1 0x0 PUSH1 0x2 SLOAD SWAP1 POP SWAP1 JUMP JUMPDEST PUSH1 0x0 PUSH2 0x396 DUP5 DUP5 DUP5 PUSH2 0x898 JUMP JUMPDEST PUSH2 0x449 DUP5 CALLER PUSH2 0x444 DUP6 PUSH1 0x40 MLOAD DUP1 PUSH1 0x60 ADD PUSH1 0x40 MSTORE DUP1 PUSH1 0x28 DUP2 MSTORE PUSH1 0x20 ADD PUSH2 0x1615 PUSH1 0x28 SWAP2 CODECOPY PUSH1 0x1 PUSH1 0x0 DUP12 PUSH20 0xFFFFFFFFFFFFFFFFFFFFFFFFFFFFFFFFFFFFFFFF AND PUSH20 0xFFFFFFFFFFFFFFFFFFFFFFFFFFFFFFFFFFFFFFFF AND DUP2 MSTORE PUSH1 0x20 ADD SWAP1 DUP2 MSTORE PUSH1 0x20 ADD PUSH1 0x0 KECCAK256 PUSH1 0x0 CALLER PUSH20 0xFFFFFFFFFFFFFFFFFFFFFFFFFFFFFFFFFFFFFFFF AND PUSH20 0xFFFFFFFFFFFFFFFFFFFFFFFFFFFFFFFFFFFFFFFF AND DUP2 MSTORE PUSH1 0x20 ADD SWAP1 DUP2 MSTORE PUSH1 0x20 ADD PUSH1 0x0 KECCAK256 SLOAD PUSH2 0xB22 SWAP1 SWAP3 SWAP2 SWAP1 PUSH4 0xFFFFFFFF AND JUMP JUMPDEST PUSH2 0x6CD JUMP JUMPDEST PUSH1 0x1 SWAP1 POP SWAP4 SWAP3 POP POP POP JUMP JUMPDEST PUSH2 0x45E CALLER DUP3 PUSH2 0xB7D JUMP JUMPDEST PUSH1 0x0 PUSH1 0x60 CALLER PUSH20 0xFFFFFFFFFFFFFFFFFFFFFFFFFFFFFFFFFFFFFFFF AND DUP4 PUSH1 0x40 MLOAD PUSH2 0x486 SWAP1 PUSH2 0x1396 JUMP JUMPDEST PUSH1 0x0 PUSH1 0x40 MLOAD DUP1 DUP4 SUB DUP2 DUP6 DUP8 GAS CALL SWAP3 POP POP POP RETURNDATASIZE DUP1 PUSH1 0x0 DUP2 EQ PUSH2 0x4C3 JUMPI PUSH1 0x40 MLOAD SWAP2 POP PUSH1 0x1F NOT PUSH1 0x3F RETURNDATASIZE ADD AND DUP3 ADD PUSH1 0x40 MSTORE RETURNDATASIZE DUP3 MSTORE RETURNDATASIZE PUSH1 0x0 PUSH1 0x20 DUP5 ADD RETURNDATACOPY PUSH2 0x4C8 JUMP JUMPDEST PUSH1 0x60 SWAP2 POP JUMPDEST POP SWAP2 POP SWAP2 POP DUP2 DUP2 SWAP1 PUSH2 0x510 JUMPI PUSH1 0x40 MLOAD PUSH32 0x8C379A000000000000000000000000000000000000000000000000000000000 DUP2 MSTORE PUSH1 0x4 ADD PUSH2 0x507 SWAP2 SWAP1 PUSH2 0x13C6 JUMP JUMPDEST PUSH1 0x40 MLOAD DUP1 SWAP2 SUB SWAP1 REVERT JUMPDEST POP POP POP POP JUMP JUMPDEST PUSH1 0x0 PUSH1 0x5 PUSH1 0x0 SWAP1 SLOAD SWAP1 PUSH2 0x100 EXP SWAP1 DIV PUSH1 0xFF AND SWAP1 POP SWAP1 JUMP JUMPDEST PUSH1 0x0 DUP1 PUSH1 0x0 DUP4 PUSH20 0xFFFFFFFFFFFFFFFFFFFFFFFFFFFFFFFFFFFFFFFF AND PUSH20 0xFFFFFFFFFFFFFFFFFFFFFFFFFFFFFFFFFFFFFFFF AND DUP2 MSTORE PUSH1 0x20 ADD SWAP1 DUP2 MSTORE PUSH1 0x20 ADD PUSH1 0x0 KECCAK256 SLOAD SWAP1 POP SWAP2 SWAP1 POP JUMP JUMPDEST PUSH1 0x60 PUSH1 0x4 DUP1 SLOAD PUSH1 0x1 DUP2 PUSH1 0x1 AND ISZERO PUSH2 0x100 MUL SUB AND PUSH1 0x2 SWAP1 DIV DUP1 PUSH1 0x1F ADD PUSH1 0x20 DUP1 SWAP2 DIV MUL PUSH1 0x20 ADD PUSH1 0x40 MLOAD SWAP1 DUP2 ADD PUSH1 0x40 MSTORE DUP1 SWAP3 SWAP2 SWAP1 DUP2 DUP2 MSTORE PUSH1 0x20 ADD DUP3 DUP1 SLOAD PUSH1 0x1 DUP2 PUSH1 0x1 AND ISZERO PUSH2 0x100 MUL SUB AND PUSH1 0x2 SWAP1 DIV DUP1 ISZERO PUSH2 0x60D JUMPI DUP1 PUSH1 0x1F LT PUSH2 0x5E2 JUMPI PUSH2 0x100 DUP1 DUP4 SLOAD DIV MUL DUP4 MSTORE SWAP2 PUSH1 0x20 ADD SWAP2 PUSH2 0x60D JUMP JUMPDEST DUP3 ADD SWAP2 SWAP1 PUSH1 0x0 MSTORE PUSH1 0x20 PUSH1 0x0 KECCAK256 SWAP1 JUMPDEST DUP2 SLOAD DUP2 MSTORE SWAP1 PUSH1 0x1 ADD SWAP1 PUSH1 0x20 ADD DUP1 DUP4 GT PUSH2 0x5F0 JUMPI DUP3 SWAP1 SUB PUSH1 0x1F AND DUP3 ADD SWAP2 JUMPDEST POP POP POP POP POP SWAP1 POP SWAP1 JUMP JUMPDEST PUSH2 0x621 CALLER CALLVALUE PUSH2 0xD1F JUMP JUMPDEST JUMP JUMPDEST PUSH1 0x0 PUSH2 0x630 CALLER DUP5 DUP5 PUSH2 0x898 JUMP JUMPDEST PUSH1 0x1 SWAP1 POP SWAP3 SWAP2 POP POP JUMP JUMPDEST PUSH2 0x644 CALLER CALLVALUE PUSH2 0xD1F JUMP JUMPDEST JUMP JUMPDEST PUSH1 0x0 PUSH1 0x1 PUSH1 0x0 DUP5 PUSH20 0xFFFFFFFFFFFFFFFFFFFFFFFFFFFFFFFFFFFFFFFF AND PUSH20 0xFFFFFFFFFFFFFFFFFFFFFFFFFFFFFFFFFFFFFFFF AND DUP2 MSTORE PUSH1 0x20 ADD SWAP1 DUP2 MSTORE PUSH1 0x20 ADD PUSH1 0x0 KECCAK256 PUSH1 0x0 DUP4 PUSH20 0xFFFFFFFFFFFFFFFFFFFFFFFFFFFFFFFFFFFFFFFF AND PUSH20 0xFFFFFFFFFFFFFFFFFFFFFFFFFFFFFFFFFFFFFFFF AND DUP2 MSTORE PUSH1 0x20 ADD SWAP1 DUP2 MSTORE PUSH1 0x20 ADD PUSH1 0x0 KECCAK256 SLOAD SWAP1 POP SWAP3 SWAP2 POP POP JUMP JUMPDEST PUSH1 0x0 PUSH20 0xFFFFFFFFFFFFFFFFFFFFFFFFFFFFFFFFFFFFFFFF AND DUP4 PUSH20 0xFFFFFFFFFFFFFFFFFFFFFFFFFFFFFFFFFFFFFFFF AND EQ ISZERO PUSH2 0x73D JUMPI PUSH1 0x40 MLOAD PUSH32 0x8C379A000000000000000000000000000000000000000000000000000000000 DUP2 MSTORE PUSH1 0x4 ADD PUSH2 0x734 SWAP1 PUSH2 0x1468 JUMP JUMPDEST PUSH1 0x40 MLOAD DUP1 SWAP2 SUB SWAP1 REVERT JUMPDEST PUSH1 0x0 PUSH20 0xFFFFFFFFFFFFFFFFFFFFFFFFFFFFFFFFFFFFFFFF AND DUP3 PUSH20 0xFFFFFFFFFFFFFFFFFFFFFFFFFFFFFFFFFFFFFFFF AND EQ ISZERO PUSH2 0x7AD JUMPI PUSH1 0x40 MLOAD PUSH32 0x8C379A000000000000000000000000000000000000000000000000000000000 DUP2 MSTORE PUSH1 0x4 ADD PUSH2 0x7A4 SWAP1 PUSH2 0x1408 JUMP JUMPDEST PUSH1 0x40 MLOAD DUP1 SWAP2 SUB SWAP1 REVERT JUMPDEST DUP1 PUSH1 0x1 PUSH1 0x0 DUP6 PUSH20 0xFFFFFFFFFFFFFFFFFFFFFFFFFFFFFFFFFFFFFFFF AND PUSH20 0xFFFFFFFFFFFFFFFFFFFFFFFFFFFFFFFFFFFFFFFF AND DUP2 MSTORE PUSH1 0x20 ADD SWAP1 DUP2 MSTORE PUSH1 0x20 ADD PUSH1 0x0 KECCAK256 PUSH1 0x0 DUP5 PUSH20 0xFFFFFFFFFFFFFFFFFFFFFFFFFFFFFFFFFFFFFFFF AND PUSH20 0xFFFFFFFFFFFFFFFFFFFFFFFFFFFFFFFFFFFFFFFF AND DUP2 MSTORE PUSH1 0x20 ADD SWAP1 DUP2 MSTORE PUSH1 0x20 ADD PUSH1 0x0 KECCAK256 DUP2 SWAP1 SSTORE POP DUP2 PUSH20 0xFFFFFFFFFFFFFFFFFFFFFFFFFFFFFFFFFFFFFFFF AND DUP4 PUSH20 0xFFFFFFFFFFFFFFFFFFFFFFFFFFFFFFFFFFFFFFFF AND PUSH32 0x8C5BE1E5EBEC7D5BD14F71427D1E84F3DD0314C0F7B2291E5B200AC8C7C3B925 DUP4 PUSH1 0x40 MLOAD PUSH2 0x88B SWAP2 SWAP1 PUSH2 0x14A8 JUMP JUMPDEST PUSH1 0x40 MLOAD DUP1 SWAP2 SUB SWAP1 LOG3 POP POP POP JUMP JUMPDEST PUSH1 0x0 PUSH20 0xFFFFFFFFFFFFFFFFFFFFFFFFFFFFFFFFFFFFFFFF AND DUP4 PUSH20 0xFFFFFFFFFFFFFFFFFFFFFFFFFFFFFFFFFFFFFFFF AND EQ ISZERO PUSH2 0x908 JUMPI PUSH1 0x40 MLOAD PUSH32 0x8C379A000000000000000000000000000000000000000000000000000000000 DUP2 MSTORE PUSH1 0x4 ADD PUSH2 0x8FF SWAP1 PUSH2 0x1448 JUMP JUMPDEST PUSH1 0x40 MLOAD DUP1 SWAP2 SUB SWAP1 REVERT JUMPDEST PUSH1 0x0 PUSH20 0xFFFFFFFFFFFFFFFFFFFFFFFFFFFFFFFFFFFFFFFF AND DUP3 PUSH20 0xFFFFFFFFFFFFFFFFFFFFFFFFFFFFFFFFFFFFFFFF AND EQ ISZERO PUSH2 0x978 JUMPI PUSH1 0x40 MLOAD PUSH32 0x8C379A000000000000000000000000000000000000000000000000000000000 DUP2 MSTORE PUSH1 0x4 ADD PUSH2 0x96F SWAP1 PUSH2 0x13E8 JUMP JUMPDEST PUSH1 0x40 MLOAD DUP1 SWAP2 SUB SWAP1 REVERT JUMPDEST PUSH2 0x9E3 DUP2 PUSH1 0x40 MLOAD DUP1 PUSH1 0x60 ADD PUSH1 0x40 MSTORE DUP1 PUSH1 0x26 DUP2 MSTORE PUSH1 0x20 ADD PUSH2 0x15EF PUSH1 0x26 SWAP2 CODECOPY PUSH1 0x0 DUP1 DUP8 PUSH20 0xFFFFFFFFFFFFFFFFFFFFFFFFFFFFFFFFFFFFFFFF AND PUSH20 0xFFFFFFFFFFFFFFFFFFFFFFFFFFFFFFFFFFFFFFFF AND DUP2 MSTORE PUSH1 0x20 ADD SWAP1 DUP2 MSTORE PUSH1 0x20 ADD PUSH1 0x0 KECCAK256 SLOAD PUSH2 0xB22 SWAP1 SWAP3 SWAP2 SWAP1 PUSH4 0xFFFFFFFF AND JUMP JUMPDEST PUSH1 0x0 DUP1 DUP6 PUSH20 0xFFFFFFFFFFFFFFFFFFFFFFFFFFFFFFFFFFFFFFFF AND PUSH20 0xFFFFFFFFFFFFFFFFFFFFFFFFFFFFFFFFFFFFFFFF AND DUP2 MSTORE PUSH1 0x20 ADD SWAP1 DUP2 MSTORE PUSH1 0x20 ADD PUSH1 0x0 KECCAK256 DUP2 SWAP1 SSTORE POP PUSH2 0xA76 DUP2 PUSH1 0x0 DUP1 DUP6 PUSH20 0xFFFFFFFFFFFFFFFFFFFFFFFFFFFFFFFFFFFFFFFF AND PUSH20 0xFFFFFFFFFFFFFFFFFFFFFFFFFFFFFFFFFFFFFFFF AND DUP2 MSTORE PUSH1 0x20 ADD SWAP1 DUP2 MSTORE PUSH1 0x20 ADD PUSH1 0x0 KECCAK256 SLOAD PUSH2 0xEA7 SWAP1 SWAP2 SWAP1 PUSH4 0xFFFFFFFF AND JUMP JUMPDEST PUSH1 0x0 DUP1 DUP5 PUSH20 0xFFFFFFFFFFFFFFFFFFFFFFFFFFFFFFFFFFFFFFFF AND PUSH20 0xFFFFFFFFFFFFFFFFFFFFFFFFFFFFFFFFFFFFFFFF AND DUP2 MSTORE PUSH1 0x20 ADD SWAP1 DUP2 MSTORE PUSH1 0x20 ADD PUSH1 0x0 KECCAK256 DUP2 SWAP1 SSTORE POP DUP2 PUSH20 0xFFFFFFFFFFFFFFFFFFFFFFFFFFFFFFFFFFFFFFFF AND DUP4 PUSH20 0xFFFFFFFFFFFFFFFFFFFFFFFFFFFFFFFFFFFFFFFF AND PUSH32 0xDDF252AD1BE2C89B69C2B068FC378DAA952BA7F163C4A11628F55A4DF523B3EF DUP4 PUSH1 0x40 MLOAD PUSH2 0xB15 SWAP2 SWAP1 PUSH2 0x14A8 JUMP JUMPDEST PUSH1 0x40 MLOAD DUP1 SWAP2 SUB SWAP1 LOG3 POP POP POP JUMP JUMPDEST PUSH1 0x0 DUP4 DUP4 GT ISZERO DUP3 SWAP1 PUSH2 0xB6A JUMPI PUSH1 0x40 MLOAD PUSH32 0x8C379A000000000000000000000000000000000000000000000000000000000 DUP2 MSTORE PUSH1 0x4 ADD PUSH2 0xB61 SWAP2 SWAP1 PUSH2 0x13C6 JUMP JUMPDEST PUSH1 0x40 MLOAD DUP1 SWAP2 SUB SWAP1 REVERT JUMPDEST POP PUSH1 0x0 DUP4 DUP6 SUB SWAP1 POP DUP1 SWAP2 POP POP SWAP4 SWAP3 POP POP POP JUMP JUMPDEST PUSH1 0x0 PUSH20 0xFFFFFFFFFFFFFFFFFFFFFFFFFFFFFFFFFFFFFFFF AND DUP3 PUSH20 0xFFFFFFFFFFFFFFFFFFFFFFFFFFFFFFFFFFFFFFFF AND EQ ISZERO PUSH2 0xBED JUMPI PUSH1 0x40 MLOAD PUSH32 0x8C379A000000000000000000000000000000000000000000000000000000000 DUP2 MSTORE PUSH1 0x4 ADD PUSH2 0xBE4 SWAP1 PUSH2 0x1428 JUMP JUMPDEST PUSH1 0x40 MLOAD DUP1 SWAP2 SUB SWAP1 REVERT JUMPDEST PUSH2 0xC58 DUP2 PUSH1 0x40 MLOAD DUP1 PUSH1 0x60 ADD PUSH1 0x40 MSTORE DUP1 PUSH1 0x22 DUP2 MSTORE PUSH1 0x20 ADD PUSH2 0x15CD PUSH1 0x22 SWAP2 CODECOPY PUSH1 0x0 DUP1 DUP7 PUSH20 0xFFFFFFFFFFFFFFFFFFFFFFFFFFFFFFFFFFFFFFFF AND PUSH20 0xFFFFFFFFFFFFFFFFFFFFFFFFFFFFFFFFFFFFFFFF AND DUP2 MSTORE PUSH1 0x20 ADD SWAP1 DUP2 MSTORE PUSH1 0x20 ADD PUSH1 0x0 KECCAK256 SLOAD PUSH2 0xB22 SWAP1 SWAP3 SWAP2 SWAP1 PUSH4 0xFFFFFFFF AND JUMP JUMPDEST PUSH1 0x0 DUP1 DUP5 PUSH20 0xFFFFFFFFFFFFFFFFFFFFFFFFFFFFFFFFFFFFFFFF AND PUSH20 0xFFFFFFFFFFFFFFFFFFFFFFFFFFFFFFFFFFFFFFFF AND DUP2 MSTORE PUSH1 0x20 ADD SWAP1 DUP2 MSTORE PUSH1 0x20 ADD PUSH1 0x0 KECCAK256 DUP2 SWAP1 SSTORE POP PUSH2 0xCAF DUP2 PUSH1 0x2 SLOAD PUSH2 0xEF1 SWAP1 SWAP2 SWAP1 PUSH4 0xFFFFFFFF AND JUMP JUMPDEST PUSH1 0x2 DUP2 SWAP1 SSTORE POP PUSH1 0x0 PUSH20 0xFFFFFFFFFFFFFFFFFFFFFFFFFFFFFFFFFFFFFFFF AND DUP3 PUSH20 0xFFFFFFFFFFFFFFFFFFFFFFFFFFFFFFFFFFFFFFFF AND PUSH32 0xDDF252AD1BE2C89B69C2B068FC378DAA952BA7F163C4A11628F55A4DF523B3EF DUP4 PUSH1 0x40 MLOAD PUSH2 0xD13 SWAP2 SWAP1 PUSH2 0x14A8 JUMP JUMPDEST PUSH1 0x40 MLOAD DUP1 SWAP2 SUB SWAP1 LOG3 POP POP JUMP JUMPDEST PUSH1 0x0 PUSH20 0xFFFFFFFFFFFFFFFFFFFFFFFFFFFFFFFFFFFFFFFF AND DUP3 PUSH20 0xFFFFFFFFFFFFFFFFFFFFFFFFFFFFFFFFFFFFFFFF AND EQ ISZERO PUSH2 0xD8F JUMPI PUSH1 0x40 MLOAD PUSH32 0x8C379A000000000000000000000000000000000000000000000000000000000 DUP2 MSTORE PUSH1 0x4 ADD PUSH2 0xD86 SWAP1 PUSH2 0x1488 JUMP JUMPDEST PUSH1 0x40 MLOAD DUP1 SWAP2 SUB SWAP1 REVERT JUMPDEST PUSH2 0xDA4 DUP2 PUSH1 0x2 SLOAD PUSH2 0xEA7 SWAP1 SWAP2 SWAP1 PUSH4 0xFFFFFFFF AND JUMP JUMPDEST PUSH1 0x2 DUP2 SWAP1 SSTORE POP PUSH2 0xDFB DUP2 PUSH1 0x0 DUP1 DUP6 PUSH20 0xFFFFFFFFFFFFFFFFFFFFFFFFFFFFFFFFFFFFFFFF AND PUSH20 0xFFFFFFFFFFFFFFFFFFFFFFFFFFFFFFFFFFFFFFFF AND DUP2 MSTORE PUSH1 0x20 ADD SWAP1 DUP2 MSTORE PUSH1 0x20 ADD PUSH1 0x0 KECCAK256 SLOAD PUSH2 0xEA7 SWAP1 SWAP2 SWAP1 PUSH4 0xFFFFFFFF AND JUMP JUMPDEST PUSH1 0x0 DUP1 DUP5 PUSH20 0xFFFFFFFFFFFFFFFFFFFFFFFFFFFFFFFFFFFFFFFF AND PUSH20 0xFFFFFFFFFFFFFFFFFFFFFFFFFFFFFFFFFFFFFFFF AND DUP2 MSTORE PUSH1 0x20 ADD SWAP1 DUP2 MSTORE PUSH1 0x20 ADD PUSH1 0x0 KECCAK256 DUP2 SWAP1 SSTORE POP DUP2 PUSH20 0xFFFFFFFFFFFFFFFFFFFFFFFFFFFFFFFFFFFFFFFF AND PUSH1 0x0 PUSH20 0xFFFFFFFFFFFFFFFFFFFFFFFFFFFFFFFFFFFFFFFF AND PUSH32 0xDDF252AD1BE2C89B69C2B068FC378DAA952BA7F163C4A11628F55A4DF523B3EF DUP4 PUSH1 0x40 MLOAD PUSH2 0xE9B SWAP2 SWAP1 PUSH2 0x14A8 JUMP JUMPDEST PUSH1 0x40 MLOAD DUP1 SWAP2 SUB SWAP1 LOG3 POP POP JUMP JUMPDEST PUSH1 0x0 PUSH2 0xEE9 DUP4 DUP4 PUSH1 0x40 MLOAD DUP1 PUSH1 0x40 ADD PUSH1 0x40 MSTORE DUP1 PUSH1 0x1B DUP2 MSTORE PUSH1 0x20 ADD PUSH32 0x536166654D6174683A206164646974696F6E206F766572666C6F770000000000 DUP2 MSTORE POP PUSH2 0xF3B JUMP JUMPDEST SWAP1 POP SWAP3 SWAP2 POP POP JUMP JUMPDEST PUSH1 0x0 PUSH2 0xF33 DUP4 DUP4 PUSH1 0x40 MLOAD DUP1 PUSH1 0x40 ADD PUSH1 0x40 MSTORE DUP1 PUSH1 0x1E DUP2 MSTORE PUSH1 0x20 ADD PUSH32 0x536166654D6174683A207375627472616374696F6E206F766572666C6F770000 DUP2 MSTORE POP PUSH2 0xB22 JUMP JUMPDEST SWAP1 POP SWAP3 SWAP2 POP POP JUMP JUMPDEST PUSH1 0x0 DUP1 DUP4 DUP6 ADD SWAP1 POP DUP5 DUP2 LT ISZERO DUP4 SWAP1 PUSH2 0xF89 JUMPI PUSH1 0x40 MLOAD PUSH32 0x8C379A000000000000000000000000000000000000000000000000000000000 DUP2 MSTORE PUSH1 0x4 ADD PUSH2 0xF80 SWAP2 SWAP1 PUSH2 0x13C6 JUMP JUMPDEST PUSH1 0x40 MLOAD DUP1 SWAP2 SUB SWAP1 REVERT JUMPDEST POP DUP1 SWAP2 POP POP SWAP4 SWAP3 POP POP POP JUMP JUMPDEST PUSH1 0x0 DUP2 CALLDATALOAD SWAP1 POP PUSH2 0xFA4 DUP2 PUSH2 0x159E JUMP JUMPDEST SWAP3 SWAP2 POP POP JUMP JUMPDEST PUSH1 0x0 DUP2 CALLDATALOAD SWAP1 POP PUSH2 0xFB9 DUP2 PUSH2 0x15B5 JUMP JUMPDEST SWAP3 SWAP2 POP POP JUMP JUMPDEST PUSH1 0x0 PUSH1 0x20 DUP3 DUP5 SUB SLT ISZERO PUSH2 0xFD1 JUMPI PUSH1 0x0 DUP1 REVERT JUMPDEST PUSH1 0x0 PUSH2 0xFDF DUP5 DUP3 DUP6 ADD PUSH2 0xF95 JUMP JUMPDEST SWAP2 POP POP SWAP3 SWAP2 POP POP JUMP JUMPDEST PUSH1 0x0 DUP1 PUSH1 0x40 DUP4 DUP6 SUB SLT ISZERO PUSH2 0xFFB JUMPI PUSH1 0x0 DUP1 REVERT JUMPDEST PUSH1 0x0 PUSH2 0x1009 DUP6 DUP3 DUP7 ADD PUSH2 0xF95 JUMP JUMPDEST SWAP3 POP POP PUSH1 0x20 PUSH2 0x101A DUP6 DUP3 DUP7 ADD PUSH2 0xF95 JUMP JUMPDEST SWAP2 POP POP SWAP3 POP SWAP3 SWAP1 POP JUMP JUMPDEST PUSH1 0x0 DUP1 PUSH1 0x0 PUSH1 0x60 DUP5 DUP7 SUB SLT ISZERO PUSH2 0x1039 JUMPI PUSH1 0x0 DUP1 REVERT JUMPDEST PUSH1 0x0 PUSH2 0x1047 DUP7 DUP3 DUP8 ADD PUSH2 0xF95 JUMP JUMPDEST SWAP4 POP POP PUSH1 0x20 PUSH2 0x1058 DUP7 DUP3 DUP8 ADD PUSH2 0xF95 JUMP JUMPDEST SWAP3 POP POP PUSH1 0x40 PUSH2 0x1069 DUP7 DUP3 DUP8 ADD PUSH2 0xFAA JUMP JUMPDEST SWAP2 POP POP SWAP3 POP SWAP3 POP SWAP3 JUMP JUMPDEST PUSH1 0x0 DUP1 PUSH1 0x40 DUP4 DUP6 SUB SLT ISZERO PUSH2 0x1086 JUMPI PUSH1 0x0 DUP1 REVERT JUMPDEST PUSH1 0x0 PUSH2 0x1094 DUP6 DUP3 DUP7 ADD PUSH2 0xF95 JUMP JUMPDEST SWAP3 POP POP PUSH1 0x20 PUSH2 0x10A5 DUP6 DUP3 DUP7 ADD PUSH2 0xFAA JUMP JUMPDEST SWAP2 POP POP SWAP3 POP SWAP3 SWAP1 POP JUMP JUMPDEST PUSH1 0x0 PUSH1 0x20 DUP3 DUP5 SUB SLT ISZERO PUSH2 0x10C1 JUMPI PUSH1 0x0 DUP1 REVERT JUMPDEST PUSH1 0x0 PUSH2 0x10CF DUP5 DUP3 DUP6 ADD PUSH2 0xFAA JUMP JUMPDEST SWAP2 POP POP SWAP3 SWAP2 POP POP JUMP JUMPDEST PUSH2 0x10E1 DUP2 PUSH2 0x1517 JUMP JUMPDEST DUP3 MSTORE POP POP JUMP JUMPDEST PUSH1 0x0 PUSH2 0x10F2 DUP3 PUSH2 0x14DE JUMP JUMPDEST PUSH2 0x10FC DUP2 DUP6 PUSH2 0x14F4 JUMP JUMPDEST SWAP4 POP PUSH2 0x110C DUP2 DUP6 PUSH1 0x20 DUP7 ADD PUSH2 0x155A JUMP JUMPDEST PUSH2 0x1115 DUP2 PUSH2 0x158D JUMP JUMPDEST DUP5 ADD SWAP2 POP POP SWAP3 SWAP2 POP POP JUMP JUMPDEST PUSH1 0x0 PUSH2 0x112D PUSH1 0x23 DUP4 PUSH2 0x14F4 JUMP JUMPDEST SWAP2 POP PUSH32 0x45524332303A207472616E7366657220746F20746865207A65726F2061646472 PUSH1 0x0 DUP4 ADD MSTORE PUSH32 0x6573730000000000000000000000000000000000000000000000000000000000 PUSH1 0x20 DUP4 ADD MSTORE PUSH1 0x40 DUP3 ADD SWAP1 POP SWAP2 SWAP1 POP JUMP JUMPDEST PUSH1 0x0 PUSH2 0x1193 PUSH1 0x22 DUP4 PUSH2 0x14F4 JUMP JUMPDEST SWAP2 POP PUSH32 0x45524332303A20617070726F766520746F20746865207A65726F206164647265 PUSH1 0x0 DUP4 ADD MSTORE PUSH32 0x7373000000000000000000000000000000000000000000000000000000000000 PUSH1 0x20 DUP4 ADD MSTORE PUSH1 0x40 DUP3 ADD SWAP1 POP SWAP2 SWAP1 POP JUMP JUMPDEST PUSH1 0x0 PUSH2 0x11F9 PUSH1 0x21 DUP4 PUSH2 0x14F4 JUMP JUMPDEST SWAP2 POP PUSH32 0x45524332303A206275726E2066726F6D20746865207A65726F20616464726573 PUSH1 0x0 DUP4 ADD MSTORE PUSH32 0x7300000000000000000000000000000000000000000000000000000000000000 PUSH1 0x20 DUP4 ADD MSTORE PUSH1 0x40 DUP3 ADD SWAP1 POP SWAP2 SWAP1 POP JUMP JUMPDEST PUSH1 0x0 PUSH2 0x125F PUSH1 0x25 DUP4 PUSH2 0x14F4 JUMP JUMPDEST SWAP2 POP PUSH32 0x45524332303A207472616E736665722066726F6D20746865207A65726F206164 PUSH1 0x0 DUP4 ADD MSTORE PUSH32 0x6472657373000000000000000000000000000000000000000000000000000000 PUSH1 0x20 DUP4 ADD MSTORE PUSH1 0x40 DUP3 ADD SWAP1 POP SWAP2 SWAP1 POP JUMP JUMPDEST PUSH1 0x0 PUSH2 0x12C5 PUSH1 0x0 DUP4 PUSH2 0x14E9 JUMP JUMPDEST SWAP2 POP PUSH1 0x0 DUP3 ADD SWAP1 POP SWAP2 SWAP1 POP JUMP JUMPDEST PUSH1 0x0 PUSH2 0x12DF PUSH1 0x24 DUP4 PUSH2 0x14F4 JUMP JUMPDEST SWAP2 POP PUSH32 0x45524332303A20617070726F76652066726F6D20746865207A65726F20616464 PUSH1 0x0 DUP4 ADD MSTORE PUSH32 0x7265737300000000000000000000000000000000000000000000000000000000 PUSH1 0x20 DUP4 ADD MSTORE PUSH1 0x40 DUP3 ADD SWAP1 POP SWAP2 SWAP1 POP JUMP JUMPDEST PUSH1 0x0 PUSH2 0x1345 PUSH1 0x1F DUP4 PUSH2 0x14F4 JUMP JUMPDEST SWAP2 POP PUSH32 0x45524332303A206D696E7420746F20746865207A65726F206164647265737300 PUSH1 0x0 DUP4 ADD MSTORE PUSH1 0x20 DUP3 ADD SWAP1 POP SWAP2 SWAP1 POP JUMP JUMPDEST PUSH2 0x1381 DUP2 PUSH2 0x1543 JUMP JUMPDEST DUP3 MSTORE POP POP JUMP JUMPDEST PUSH2 0x1390 DUP2 PUSH2 0x154D JUMP JUMPDEST DUP3 MSTORE POP POP JUMP JUMPDEST PUSH1 0x0 PUSH2 0x13A1 DUP3 PUSH2 0x12B8 JUMP JUMPDEST SWAP2 POP DUP2 SWAP1 POP SWAP2 SWAP1 POP JUMP JUMPDEST PUSH1 0x0 PUSH1 0x20 DUP3 ADD SWAP1 POP PUSH2 0x13C0 PUSH1 0x0 DUP4 ADD DUP5 PUSH2 0x10D8 JUMP JUMPDEST SWAP3 SWAP2 POP POP JUMP JUMPDEST PUSH1 0x0 PUSH1 0x20 DUP3 ADD SWAP1 POP DUP2 DUP2 SUB PUSH1 0x0 DUP4 ADD MSTORE PUSH2 0x13E0 DUP2 DUP5 PUSH2 0x10E7 JUMP JUMPDEST SWAP1 POP SWAP3 SWAP2 POP POP JUMP JUMPDEST PUSH1 0x0 PUSH1 0x20 DUP3 ADD SWAP1 POP DUP2 DUP2 SUB PUSH1 0x0 DUP4 ADD MSTORE PUSH2 0x1401 DUP2 PUSH2 0x1120 JUMP JUMPDEST SWAP1 POP SWAP2 SWAP1 POP JUMP JUMPDEST PUSH1 0x0 PUSH1 0x20 DUP3 ADD SWAP1 POP DUP2 DUP2 SUB PUSH1 0x0 DUP4 ADD MSTORE PUSH2 0x1421 DUP2 PUSH2 0x1186 JUMP JUMPDEST SWAP1 POP SWAP2 SWAP1 POP JUMP JUMPDEST PUSH1 0x0 PUSH1 0x20 DUP3 ADD SWAP1 POP DUP2 DUP2 SUB PUSH1 0x0 DUP4 ADD MSTORE PUSH2 0x1441 DUP2 PUSH2 0x11EC JUMP JUMPDEST SWAP1 POP SWAP2 SWAP1 POP JUMP JUMPDEST PUSH1 0x0 PUSH1 0x20 DUP3 ADD SWAP1 POP DUP2 DUP2 SUB PUSH1 0x0 DUP4 ADD MSTORE PUSH2 0x1461 DUP2 PUSH2 0x1252 JUMP JUMPDEST SWAP1 POP SWAP2 SWAP1 POP JUMP JUMPDEST PUSH1 0x0 PUSH1 0x20 DUP3 ADD SWAP1 POP DUP2 DUP2 SUB PUSH1 0x0 DUP4 ADD MSTORE PUSH2 0x1481 DUP2 PUSH2 0x12D2 JUMP JUMPDEST SWAP1 POP SWAP2 SWAP1 POP JUMP JUMPDEST PUSH1 0x0 PUSH1 0x20 DUP3 ADD SWAP1 POP DUP2 DUP2 SUB PUSH1 0x0 DUP4 ADD MSTORE PUSH2 0x14A1 DUP2 PUSH2 0x1338 JUMP JUMPDEST SWAP1 POP SWAP2 SWAP1 POP JUMP JUMPDEST PUSH1 0x0 PUSH1 0x20 DUP3 ADD SWAP1 POP PUSH2 0x14BD PUSH1 0x0 DUP4 ADD DUP5 PUSH2 0x1378 JUMP JUMPDEST SWAP3 SWAP2 POP POP JUMP JUMPDEST PUSH1 0x0 PUSH1 0x20 DUP3 ADD SWAP1 POP PUSH2 0x14D8 PUSH1 0x0 DUP4 ADD DUP5 PUSH2 0x1387 JUMP JUMPDEST SWAP3 SWAP2 POP POP JUMP JUMPDEST PUSH1 0x0 DUP2 MLOAD SWAP1 POP SWAP2 SWAP1 POP JUMP JUMPDEST PUSH1 0x0 DUP2 SWAP1 POP SWAP3 SWAP2 POP POP JUMP JUMPDEST PUSH1 0x0 DUP3 DUP3 MSTORE PUSH1 0x20 DUP3 ADD SWAP1 POP SWAP3 SWAP2 POP POP JUMP JUMPDEST PUSH1 0x0 PUSH2 0x1510 DUP3 PUSH2 0x1523 JUMP JUMPDEST SWAP1 POP SWAP2 SWAP1 POP JUMP JUMPDEST PUSH1 0x0 DUP2 ISZERO ISZERO SWAP1 POP SWAP2 SWAP1 POP JUMP JUMPDEST PUSH1 0x0 PUSH20 0xFFFFFFFFFFFFFFFFFFFFFFFFFFFFFFFFFFFFFFFF DUP3 AND SWAP1 POP SWAP2 SWAP1 POP JUMP JUMPDEST PUSH1 0x0 DUP2 SWAP1 POP SWAP2 SWAP1 POP JUMP JUMPDEST PUSH1 0x0 PUSH1 0xFF DUP3 AND SWAP1 POP SWAP2 SWAP1 POP JUMP JUMPDEST PUSH1 0x0 JUMPDEST DUP4 DUP2 LT ISZERO PUSH2 0x1578 JUMPI DUP1 DUP3 ADD MLOAD DUP2 DUP5 ADD MSTORE PUSH1 0x20 DUP2 ADD SWAP1 POP PUSH2 0x155D JUMP JUMPDEST DUP4 DUP2 GT ISZERO PUSH2 0x1587 JUMPI PUSH1 0x0 DUP5 DUP5 ADD MSTORE JUMPDEST POP POP POP POP JUMP JUMPDEST PUSH1 0x0 PUSH1 0x1F NOT PUSH1 0x1F DUP4 ADD AND SWAP1 POP SWAP2 SWAP1 POP JUMP JUMPDEST PUSH2 0x15A7 DUP2 PUSH2 0x1505 JUMP JUMPDEST DUP2 EQ PUSH2 0x15B2 JUMPI PUSH1 0x0 DUP1 REVERT JUMPDEST POP JUMP JUMPDEST PUSH2 0x15BE DUP2 PUSH2 0x1543 JUMP JUMPDEST DUP2 EQ PUSH2 0x15C9 JUMPI PUSH1 0x0 DUP1 REVERT JUMPDEST POP JUMP INVALID GASLIMIT MSTORE NUMBER ORIGIN ADDRESS GASPRICE KECCAK256 PUSH3 0x75726E KECCAK256 PUSH2 0x6D6F PUSH22 0x6E7420657863656564732062616C616E636545524332 ADDRESS GASPRICE KECCAK256 PUSH21 0x72616E7366657220616D6F756E7420657863656564 PUSH20 0x2062616C616E636545524332303A207472616E73 PUSH7 0x657220616D6F75 PUSH15 0x74206578636565647320616C6C6F77 PUSH2 0x6E63 PUSH6 0xA365627A7A72 BALANCE PC KECCAK256 0xC1 JUMPI 0x4B MUL SELFBALANCE 0xE4 STOP COINBASE 0xB6 MOD CALLDATALOAD 0xD4 PUSH9 0x465E3AFB06943BE599 PUSH27 0xA13F1A48EC38EADEC36C6578706572696D656E74616CF564736F6C PUSH4 0x43000510 STOP BLOCKHASH "
    },
    "gasEstimates": {
      "creation": {
        "codeDepositCost": "1151800",
        "executionCost": "infinite",
        "totalCost": "infinite"
      },
      "external": {
        "allowance(address,address)": "infinite",
        "approve(address,uint256)": "infinite",
        "balanceOf(address)": "1541",
        "decimals()": "1290",
        "deposit()": "infinite",
        "name()": "infinite",
        "receive()": "infinite",
        "symbol()": "infinite",
        "totalSupply()": "1182",
        "transfer(address,uint256)": "infinite",
        "transferFrom(address,address,uint256)": "infinite",
        "withdraw(uint256)": "infinite"
      },
      "internal": {
        "lock(address,uint256)": "infinite",
        "unlock(address,uint256)": "infinite"
      }
    },
    "methodIdentifiers": {
      "allowance(address,address)": "dd62ed3e",
      "approve(address,uint256)": "095ea7b3",
      "balanceOf(address)": "70a08231",
      "decimals()": "313ce567",
      "deposit()": "d0e30db0",
      "name()": "06fdde03",
      "receive()": "a3e76c0f",
      "symbol()": "95d89b41",
      "totalSupply()": "18160ddd",
      "transfer(address,uint256)": "a9059cbb",
      "transferFrom(address,address,uint256)": "23b872dd",
      "withdraw(uint256)": "2e1a7d4d"
    }
  },
  "storageLayout": {
    "storage": [
      {
        "astId": 528,
        "contract": "contracts/Escrow.sol:Escrow",
        "label": "_balances",
        "offset": 0,
        "slot": "0",
        "type": "t_mapping(t_address,t_uint256)"
      },
      {
        "astId": 534,
        "contract": "contracts/Escrow.sol:Escrow",
        "label": "_allowances",
        "offset": 0,
        "slot": "1",
        "type": "t_mapping(t_address,t_mapping(t_address,t_uint256))"
      },
      {
        "astId": 536,
        "contract": "contracts/Escrow.sol:Escrow",
        "label": "_totalSupply",
        "offset": 0,
        "slot": "2",
        "type": "t_uint256"
      },
      {
        "astId": 538,
        "contract": "contracts/Escrow.sol:Escrow",
        "label": "_name",
        "offset": 0,
        "slot": "3",
        "type": "t_string_storage"
      },
      {
        "astId": 540,
        "contract": "contracts/Escrow.sol:Escrow",
        "label": "_symbol",
        "offset": 0,
        "slot": "4",
        "type": "t_string_storage"
      },
      {
        "astId": 542,
        "contract": "contracts/Escrow.sol:Escrow",
        "label": "_decimals",
        "offset": 0,
        "slot": "5",
        "type": "t_uint8"
      }
    ],
    "types": {
      "t_address": {
        "encoding": "inplace",
        "label": "address",
        "numberOfBytes": "20"
      },
      "t_mapping(t_address,t_mapping(t_address,t_uint256))": {
        "encoding": "mapping",
        "key": "t_address",
        "label": "mapping(address => mapping(address => uint256))",
        "numberOfBytes": "32",
        "value": "t_mapping(t_address,t_uint256)"
      },
      "t_mapping(t_address,t_uint256)": {
        "encoding": "mapping",
        "key": "t_address",
        "label": "mapping(address => uint256)",
        "numberOfBytes": "32",
        "value": "t_uint256"
      },
      "t_string_storage": {
        "encoding": "bytes",
        "label": "string",
        "numberOfBytes": "32"
      },
      "t_uint256": {
        "encoding": "inplace",
        "label": "uint256",
        "numberOfBytes": "32"
      },
      "t_uint8": {
        "encoding": "inplace",
        "label": "uint8",
        "numberOfBytes": "1"
      }
    }
  },
  "userdoc": {
    "methods": {}
  },
  "interface": [
    {
      "inputs": [],
      "payable": false,
      "stateMutability": "nonpayable",
      "type": "constructor"
    },
    {
      "anonymous": false,
      "inputs": [
        {
          "indexed": true,
          "internalType": "address",
          "name": "owner",
          "type": "address"
        },
        {
          "indexed": true,
          "internalType": "address",
          "name": "spender",
          "type": "address"
        },
        {
          "indexed": false,
          "internalType": "uint256",
          "name": "value",
          "type": "uint256"
        }
      ],
      "name": "Approval",
      "type": "event"
    },
    {
      "anonymous": false,
      "inputs": [
        {
          "indexed": true,
          "internalType": "address",
          "name": "from",
          "type": "address"
        },
        {
          "indexed": true,
          "internalType": "address",
          "name": "to",
          "type": "address"
        },
        {
          "indexed": false,
          "internalType": "uint256",
          "name": "value",
          "type": "uint256"
        }
      ],
      "name": "Transfer",
      "type": "event"
    },
    {
      "constant": true,
      "inputs": [
        {
          "internalType": "address",
          "name": "owner",
          "type": "address"
        },
        {
          "internalType": "address",
          "name": "spender",
          "type": "address"
        }
      ],
      "name": "allowance",
      "outputs": [
        {
          "internalType": "uint256",
          "name": "",
          "type": "uint256"
        }
      ],
      "payable": false,
      "stateMutability": "view",
      "type": "function"
    },
    {
      "constant": false,
      "inputs": [
        {
          "internalType": "address",
          "name": "spender",
          "type": "address"
        },
        {
          "internalType": "uint256",
          "name": "amount",
          "type": "uint256"
        }
      ],
      "name": "approve",
      "outputs": [
        {
          "internalType": "bool",
          "name": "",
          "type": "bool"
        }
      ],
      "payable": false,
      "stateMutability": "nonpayable",
      "type": "function"
    },
    {
      "constant": true,
      "inputs": [
        {
          "internalType": "address",
          "name": "account",
          "type": "address"
        }
      ],
      "name": "balanceOf",
      "outputs": [
        {
          "internalType": "uint256",
          "name": "",
          "type": "uint256"
        }
      ],
      "payable": false,
      "stateMutability": "view",
      "type": "function"
    },
    {
      "constant": true,
      "inputs": [],
      "name": "decimals",
      "outputs": [
        {
          "internalType": "uint8",
          "name": "",
          "type": "uint8"
        }
      ],
      "payable": false,
      "stateMutability": "view",
      "type": "function"
    },
    {
      "constant": false,
      "inputs": [],
      "name": "deposit",
      "outputs": [],
      "payable": true,
      "stateMutability": "payable",
      "type": "function"
    },
    {
      "constant": true,
      "inputs": [],
      "name": "name",
      "outputs": [
        {
          "internalType": "string",
          "name": "",
          "type": "string"
        }
      ],
      "payable": false,
      "stateMutability": "view",
      "type": "function"
    },
    {
      "constant": false,
      "inputs": [],
      "name": "receive",
      "outputs": [],
      "payable": true,
      "stateMutability": "payable",
      "type": "function"
    },
    {
      "constant": true,
      "inputs": [],
      "name": "symbol",
      "outputs": [
        {
          "internalType": "string",
          "name": "",
          "type": "string"
        }
      ],
      "payable": false,
      "stateMutability": "view",
      "type": "function"
    },
    {
      "constant": true,
      "inputs": [],
      "name": "totalSupply",
      "outputs": [
        {
          "internalType": "uint256",
          "name": "",
          "type": "uint256"
        }
      ],
      "payable": false,
      "stateMutability": "view",
      "type": "function"
    },
    {
      "constant": false,
      "inputs": [
        {
          "internalType": "address",
          "name": "recipient",
          "type": "address"
        },
        {
          "internalType": "uint256",
          "name": "amount",
          "type": "uint256"
        }
      ],
      "name": "transfer",
      "outputs": [
        {
          "internalType": "bool",
          "name": "",
          "type": "bool"
        }
      ],
      "payable": false,
      "stateMutability": "nonpayable",
      "type": "function"
    },
    {
      "constant": false,
      "inputs": [
        {
          "internalType": "address",
          "name": "sender",
          "type": "address"
        },
        {
          "internalType": "address",
          "name": "recipient",
          "type": "address"
        },
        {
          "internalType": "uint256",
          "name": "amount",
          "type": "uint256"
        }
      ],
      "name": "transferFrom",
      "outputs": [
        {
          "internalType": "bool",
          "name": "",
          "type": "bool"
        }
      ],
      "payable": false,
      "stateMutability": "nonpayable",
      "type": "function"
    },
    {
      "constant": false,
      "inputs": [
        {
          "internalType": "uint256",
          "name": "amount",
          "type": "uint256"
        }
      ],
      "name": "withdraw",
      "outputs": [],
      "payable": false,
      "stateMutability": "nonpayable",
      "type": "function"
    }
  ],
  "bytecode": "60806040523480156200001190610ca75750600080fd5b5060006040518060400160405280600681526020017f657363726f77000000000000000000000000000000000000000000000000000081525060126040518060400160405280600681526020017f657363726f77000000000000000000000000000000000000000000000000000081525082600390805190602001906200009a92919062000340610ca7565b508060049080519060200190620000b392919062000340610ca7565b5081600560006101000a81600080604001519080602001519080600001519050836320966208600052602052602060406024601c600073a193e42526f1fea8c99af609dceabf30c1c29faa7f00000000000000000000000000000000fffffffffffffffffffffffffffffffff15060405183838360009081600001529081602001529081604001525093505050508160ff021916908360ff1602179060008060600151908060400151908060200151908060000151905085856328dcb2a0600052602052604052602060606044601c600073a193e42526f1fea8c99af609dceabf30c1c29faa7f00000000000000000000000000000000fffffffffffffffffffffffffffffffff150606051848484846000908160000152908160200152908160400152908160600152509550505050505050506000841115620000ec90610ca75750620000eb6000806020015190806000015190506373509064600052602060206004601c600073a193e42526f1fea8c99af609dceabf30c1c29faa7f00000000000000000000000000000000fffffffffffffffffffffffffffffffff150602051828260009081600001529081602001525091505085620000f660201b60201c610ca7565b5b5050505062000553610ca7565b600073ffffffffffffffffffffffffffffffffffffffff168273ffffffffffffffffffffffffffffffffffffffff1614156200016990610ca757506040517f08c379a00000000000000000000000000000000000000000000000000000000081526004016200016090620004a7610ca7565b60405180910390fd5b62000185816002600080604001519080602001519080600001519050836320966208600052602052602060406024601c600073a193e42526f1fea8c99af609dceabf30c1c29faa7f00000000000000000000000000000000fffffffffffffffffffffffffffffffff15060405183838360009081600001529081602001529081604001525093505050506200029160201b62000ea71790919060201c610ca7565b6002819060008060600151908060400151908060200151908060000151905085856328dcb2a0600052602052604052602060606044601c600073a193e42526f1fea8c99af609dceabf30c1c29faa7f00000000000000000000000000000000fffffffffffffffffffffffffffffffff15060605184848484600090816000015290816020015290816040015290816060015250955050505050505050620001e3816000808573ffffffffffffffffffffffffffffffffffffffff1673ffffffffffffffffffffffffffffffffffffffff168152602001908152602001600020600080604001519080602001519080600001519050836320966208600052602052602060406024601c600073a193e42526f1fea8c99af609dceabf30c1c29faa7f00000000000000000000000000000000fffffffffffffffffffffffffffffffff15060405183838360009081600001529081602001529081604001525093505050506200029160201b62000ea71790919060201c610ca7565b6000808473ffffffffffffffffffffffffffffffffffffffff1673ffffffffffffffffffffffffffffffffffffffff168152602001908152602001600020819060008060600151908060400151908060200151908060000151905085856328dcb2a0600052602052604052602060606044601c600073a193e42526f1fea8c99af609dceabf30c1c29faa7f00000000000000000000000000000000fffffffffffffffffffffffffffffffff150606051848484846000908160000152908160200152908160400152908160600152509550505050505050508173ffffffffffffffffffffffffffffffffffffffff16600073ffffffffffffffffffffffffffffffffffffffff167fddf252ad1be2c89b69c2b068fc378daa952ba7f163c4a11628f55a4df523b3ef83604051620002859190620004c9610ca7565b60405180910390a35050610ca7565b6000620002db83836040518060400160405280601b81526020017f536166654d6174683a206164646974696f6e206f766572666c6f770000000000815250620002e360201b60201c610ca7565b905092915050610ca7565b60008083850190508481101583906200033490610ca757506040517f08c379a00000000000000000000000000000000000000000000000000000000081526004016200032b919062000483610ca7565b60405180910390fd5b50809150509392505050610ca7565b8280600080604001519080602001519080600001519050836320966208600052602052602060406024601c600073a193e42526f1fea8c99af609dceabf30c1c29faa7f00000000000000000000000000000000fffffffffffffffffffffffffffffffff1506040518383836000908160000152908160200152908160400152509350505050600181600116156101000203166002900490600052602060002090601f016020900481019282601f106200038390610ca75750805160ff1916838001178560008060600151908060400151908060200151908060000151905085856328dcb2a0600052602052604052602060606044601c600073a193e42526f1fea8c99af609dceabf30c1c29faa7f00000000000000000000000000000000fffffffffffffffffffffffffffffffff150606051848484846000908160000152908160200152908160400152908160600152509550505050505050620003b4610ca7565b8280016001018560008060600151908060400151908060200151908060000151905085856328dcb2a0600052602052604052602060606044601c600073a193e42526f1fea8c99af609dceabf30c1c29faa7f00000000000000000000000000000000fffffffffffffffffffffffffffffffff1506060518484848460009081600001529081602001529081604001529081606001525095505050505050508215620003b490610ca757509182015b82811115620003b390610ca7575082518260008060600151908060400151908060200151908060000151905085856328dcb2a0600052602052604052602060606044601c600073a193e42526f1fea8c99af609dceabf30c1c29faa7f00000000000000000000000000000000fffffffffffffffffffffffffffffffff1506060518484848460009081600001529081602001529081604001529081606001525095505050505050509160200191906001019062000396610ca7565b5b509050620003c39190620003c7610ca7565b5090610ca7565b620003ec91905b80821115620003e890610ca7575060008160009060008060600151908060400151908060200151908060000151905085856328dcb2a0600052602052604052602060606044601c600073a193e42526f1fea8c99af609dceabf30c1c29faa7f00000000000000000000000000000000fffffffffffffffffffffffffffffffff15060605184848484600090816000015290816020015290816040015290816060015250955050505050505050600101620003ce610ca7565b5090610ca7565b90610ca7565b6000620003fc82620004e6610ca7565b620004088185620004f1610ca7565b93506200041a8185602086016200050c610ca7565b620004258162000542610ca7565b840191505092915050610ca7565b60006200043f601f83620004f1610ca7565b91507f45524332303a206d696e7420746f20746865207a65726f2061646472657373006000830152602082019050919050610ca7565b6200047d8162000502610ca7565b82525050610ca7565b600060208201905081810360008301526200049f8184620003ef610ca7565b905092915050610ca7565b60006020820190508181036000830152620004c28162000430610ca7565b9050919050610ca7565b6000602082019050620004e0600083018462000472610ca7565b92915050610ca7565b600081519050919050610ca7565b600082825260208201905092915050610ca7565b6000819050919050610ca7565b60005b838110156200052c90610ca7575080820151818401526020810190506200050f610ca7565b838111156200053c90610ca757506000848401525b50505050610ca7565b6000601f19601f8301169050919050610ca7565b62003a9c8063000010646000396000f3fe5b9050565b806103ec14610ade9062000ca35750806103ec1062000e9a57806102db146106bf9062000ca35750806102db1062000db45780610160146103059062000ca35750806101601062000d5b578060eb146102859062000ca357508060eb1062000d3d5780609a1460a29062000ca3575080609a1062000d2e578060111460169062000ca35750005b8060b31460be9062000ca35750005b8060f6146102939062000ca357508060ec146102869062000ca35750005b806101e3146105289062000ca35750806101e31062000d945780610185146103af9062000ca35750806101691461030e9062000ca35750005b80610291146106729062000ca3575080610285146106639062000ca35750005b806103b3146109fe9062000ca35750806103b31062000e415780610340146107329062000ca35750806103401062000e21578061032b1461071a9062000ca357508061032b1062000e1057806102e3146106ca9062000ca35750005b80610334146107239062000ca35750005b80610396146109439062000ca3575080610383146108959062000ca35750005b806103c714610a189062000ca35750806103c71062000e7a57806103c314610a119062000ca35750806103b4146109ff9062000ca35750005b806103e814610ad79062000ca35750806103ce14610a1f9062000ca35750005b806104c214610bdb9062000ca35750806104c21062000f99578061043f14610b469062000ca357508061043f1062000f40578061041a14610b189062000ca357508061041a1062000f2057806103fc14610af49062000ca35750806103fc1062000f0f57806103ef14610ae49062000ca35750005b8061040814610b039062000ca35750005b8061043014610b349062000ca357508061042514610b269062000ca35750005b8061048314610b939062000ca35750806104831062000f79578061047d14610b8a9062000ca357508061047214610b7c9062000ca35750005b806104a714610bbd9062000ca357508061049f14610bb29062000ca35750005b8061050c14610c379062000ca357508061050c106200100b57806104e614610c089062000ca35750806104e61062000feb57806104e014610bff9062000ca35750806104c914610be59062000ca35750005b8061050214610c2a9062000ca35750806104f114610c169062000ca35750005b8061053c14610c749062000ca357508061053c1062001044578061052c14610c5f9062000ca357508061050f14610c3a9062000ca35750005b8061055314610c919062000ca357508061054214610c7d9062000ca35750006080604052600436106100a790612abb575060003560e01c806370a082311161006490612abb5750806370a08231146101d090612abb5750806395d89b411461020d90612abb57508063a3e76c0f1461023890612abb57508063a9059cbb1461024290612abb57508063d0e30db01461027f90612abb57508063dd62ed3e1461028990612abb57506100a7612abb565b806306fdde03146100ac90612abb57508063095ea7b3146100d790612abb5750806318160ddd1461011490612abb5750806323b872dd1461013f90612abb575080632e1a7d4d1461017c90612abb57508063313ce567146101a590612abb57505b600080fd5b3480156100b890612abb5750600080fd5b506100c16102c6612abb565b6040516100ce91906113c6612abb565b60405180910390f35b3480156100e390612abb5750600080fd5b506100fe60048036036100f99190810190611073612abb565b610368612abb565b60405161010b91906113ab612abb565b60405180910390f35b34801561012090612abb5750600080fd5b5061012961037f612abb565b60405161013691906114a8612abb565b60405180910390f35b34801561014b90612abb5750600080fd5b5061016660048036036101619190810190611024612abb565b610389612abb565b60405161017391906113ab612abb565b60405180910390f35b34801561018890612abb5750600080fd5b506101a3600480360361019e91908101906110af612abb565b610454612abb565b005b3480156101b190612abb5750600080fd5b506101ba610516612abb565b6040516101c791906114c3612abb565b60405180910390f35b3480156101dc90612abb5750600080fd5b506101f760048036036101f29190810190610fbf612abb565b61052d612abb565b60405161020491906114a8612abb565b60405180910390f35b34801561021990612abb5750600080fd5b50610222610575612abb565b60405161022f91906113c6612abb565b60405180910390f35b610240610617612abb565b005b34801561024e90612abb5750600080fd5b5061026960048036036102649190810190611073612abb565b610623612abb565b60405161027691906113ab612abb565b60405180910390f35b61028761063a612abb565b005b34801561029590612abb5750600080fd5b506102b060048036036102ab9190810190610fe8612abb565b610646612abb565b6040516102bd91906114a8612abb565b60405180910390f35b6060600380600080604001519080602001519080600001519050836320966208600052602052602060406024601c600073a193e42526f1fea8c99af609dceabf30c1c29faa7f00000000000000000000000000000000fffffffffffffffffffffffffffffffff1506040518383836000908160000152908160200152908160400152509350505050600181600116156101000203166002900480601f01602080910402602001604051908101604052809291908181526020018280600080604001519080602001519080600001519050836320966208600052602052602060406024601c600073a193e42526f1fea8c99af609dceabf30c1c29faa7f00000000000000000000000000000000fffffffffffffffffffffffffffffffff15060405183838360009081600001529081602001529081604001525093505050506001816001161561010002031660029004801561035e90612abb575080601f1061033390612abb57506101008083600080604001519080602001519080600001519050836320966208600052602052602060406024601c600073a193e42526f1fea8c99af609dceabf30c1c29faa7f00000000000000000000000000000000fffffffffffffffffffffffffffffffff150604051838383600090816000015290816020015290816040015250935050505004028352916020019161035e612abb565b820191906000526020600020905b81600080604001519080602001519080600001519050836320966208600052602052602060406024601c600073a193e42526f1fea8c99af609dceabf30c1c29faa7f00000000000000000000000000000000fffffffffffffffffffffffffffffffff15060405183838360009081600001529081602001529081604001525093505050508152906001019060200180831161034190612abb5750829003601f168201915b5050505050905090612abb565b60006103756000806020015190806000015190506373509064600052602060206004601c600073a193e42526f1fea8c99af609dceabf30c1c29faa7f00000000000000000000000000000000fffffffffffffffffffffffffffffffff150602051828260009081600001529081602001525091505084846106cd612abb565b6001905092915050612abb565b60006002600080604001519080602001519080600001519050836320966208600052602052602060406024601c600073a193e42526f1fea8c99af609dceabf30c1c29faa7f00000000000000000000000000000000fffffffffffffffffffffffffffffffff1506040518383836000908160000152908160200152908160400152509350505050905090612abb565b6000610396848484610898612abb565b610449846000806020015190806000015190506373509064600052602060206004601c600073a193e42526f1fea8c99af609dceabf30c1c29faa7f00000000000000000000000000000000fffffffffffffffffffffffffffffffff15060205182826000908160000152908160200152509150506104448560405180606001604052806028815260200162002a8960289139600160008b73ffffffffffffffffffffffffffffffffffffffff1673ffffffffffffffffffffffffffffffffffffffff16815260200190815260200160002060006000806020015190806000015190506373509064600052602060206004601c600073a193e42526f1fea8c99af609dceabf30c1c29faa7f00000000000000000000000000000000fffffffffffffffffffffffffffffffff150602051828260009081600001529081602001525091505073ffffffffffffffffffffffffffffffffffffffff1673ffffffffffffffffffffffffffffffffffffffff168152602001908152602001600020600080604001519080602001519080600001519050836320966208600052602052602060406024601c600073a193e42526f1fea8c99af609dceabf30c1c29faa7f00000000000000000000000000000000fffffffffffffffffffffffffffffffff1506040518383836000908160000152908160200152908160400152509350505050610b229092919063ffffffff16612abb565b6106cd612abb565b600190509392505050612abb565b61045e6000806020015190806000015190506373509064600052602060206004601c600073a193e42526f1fea8c99af609dceabf30c1c29faa7f00000000000000000000000000000000fffffffffffffffffffffffffffffffff150602051828260009081600001529081602001525091505082610b7d612abb565b600060606000806020015190806000015190506373509064600052602060206004601c600073a193e42526f1fea8c99af609dceabf30c1c29faa7f00000000000000000000000000000000fffffffffffffffffffffffffffffffff150602051828260009081600001529081602001525091505073ffffffffffffffffffffffffffffffffffffffff168360405161048690611396612abb565b60006040518083038185875a604084038060200151908060000151908989898988634c6d7c848690816000015290816020015250602490039060240190600073a193e42526f1fea8c99af609dceabf30c1c29faa89f1995090816000015290816020015250505050505050925050503d80600081146104c390612abb57506040519150601f19603f3d011682016040523d82523d6000602084013e6104c8612abb565b606091505b509150915081819061051090612abb57506040517f08c379a000000000000000000000000000000000000000000000000000000000815260040161050791906113c6612abb565b60405180910390fd5b50505050612abb565b60006005600090600080604001519080602001519080600001519050836320966208600052602052602060406024601c600073a193e42526f1fea8c99af609dceabf30c1c29faa7f00000000000000000000000000000000fffffffffffffffffffffffffffffffff1506040518383836000908160000152908160200152908160400152509350505050906101000a900460ff16905090612abb565b60008060008373ffffffffffffffffffffffffffffffffffffffff1673ffffffffffffffffffffffffffffffffffffffff168152602001908152602001600020600080604001519080602001519080600001519050836320966208600052602052602060406024601c600073a193e42526f1fea8c99af609dceabf30c1c29faa7f00000000000000000000000000000000fffffffffffffffffffffffffffffffff15060405183838360009081600001529081602001529081604001525093505050509050919050612abb565b6060600480600080604001519080602001519080600001519050836320966208600052602052602060406024601c600073a193e42526f1fea8c99af609dceabf30c1c29faa7f00000000000000000000000000000000fffffffffffffffffffffffffffffffff1506040518383836000908160000152908160200152908160400152509350505050600181600116156101000203166002900480601f01602080910402602001604051908101604052809291908181526020018280600080604001519080602001519080600001519050836320966208600052602052602060406024601c600073a193e42526f1fea8c99af609dceabf30c1c29faa7f00000000000000000000000000000000fffffffffffffffffffffffffffffffff15060405183838360009081600001529081602001529081604001525093505050506001816001161561010002031660029004801561060d90612abb575080601f106105e290612abb57506101008083600080604001519080602001519080600001519050836320966208600052602052602060406024601c600073a193e42526f1fea8c99af609dceabf30c1c29faa7f00000000000000000000000000000000fffffffffffffffffffffffffffffffff150604051838383600090816000015290816020015290816040015250935050505004028352916020019161060d612abb565b820191906000526020600020905b81600080604001519080602001519080600001519050836320966208600052602052602060406024601c600073a193e42526f1fea8c99af609dceabf30c1c29faa7f00000000000000000000000000000000fffffffffffffffffffffffffffffffff1506040518383836000908160000152908160200152908160400152509350505050815290600101906020018083116105f090612abb5750829003601f168201915b5050505050905090612abb565b6106216000806020015190806000015190506373509064600052602060206004601c600073a193e42526f1fea8c99af609dceabf30c1c29faa7f00000000000000000000000000000000fffffffffffffffffffffffffffffffff150602051828260009081600001529081602001525091505034610d1f612abb565b612abb565b60006106306000806020015190806000015190506373509064600052602060206004601c600073a193e42526f1fea8c99af609dceabf30c1c29faa7f00000000000000000000000000000000fffffffffffffffffffffffffffffffff15060205182826000908160000152908160200152509150508484610898612abb565b6001905092915050612abb565b6106446000806020015190806000015190506373509064600052602060206004601c600073a193e42526f1fea8c99af609dceabf30c1c29faa7f00000000000000000000000000000000fffffffffffffffffffffffffffffffff150602051828260009081600001529081602001525091505034610d1f612abb565b612abb565b6000600160008473ffffffffffffffffffffffffffffffffffffffff1673ffffffffffffffffffffffffffffffffffffffff16815260200190815260200160002060008373ffffffffffffffffffffffffffffffffffffffff1673ffffffffffffffffffffffffffffffffffffffff168152602001908152602001600020600080604001519080602001519080600001519050836320966208600052602052602060406024601c600073a193e42526f1fea8c99af609dceabf30c1c29faa7f00000000000000000000000000000000fffffffffffffffffffffffffffffffff1506040518383836000908160000152908160200152908160400152509350505050905092915050612abb565b600073ffffffffffffffffffffffffffffffffffffffff168373ffffffffffffffffffffffffffffffffffffffff16141561073d90612abb57506040517f08c379a000000000000000000000000000000000000000000000000000000000815260040161073490611468612abb565b60405180910390fd5b600073ffffffffffffffffffffffffffffffffffffffff168273ffffffffffffffffffffffffffffffffffffffff1614156107ad90612abb57506040517f08c379a00000000000000000000000000000000000000000000000000000000081526004016107a490611408612abb565b60405180910390fd5b80600160008573ffffffffffffffffffffffffffffffffffffffff1673ffffffffffffffffffffffffffffffffffffffff16815260200190815260200160002060008473ffffffffffffffffffffffffffffffffffffffff1673ffffffffffffffffffffffffffffffffffffffff168152602001908152602001600020819060008060600151908060400151908060200151908060000151905085856328dcb2a0600052602052604052602060606044601c600073a193e42526f1fea8c99af609dceabf30c1c29faa7f00000000000000000000000000000000fffffffffffffffffffffffffffffffff150606051848484846000908160000152908160200152908160400152908160600152509550505050505050508173ffffffffffffffffffffffffffffffffffffffff168373ffffffffffffffffffffffffffffffffffffffff167f8c5be1e5ebec7d5bd14f71427d1e84f3dd0314c0f7b2291e5b200ac8c7c3b9258360405161088b91906114a8612abb565b60405180910390a3505050612abb565b600073ffffffffffffffffffffffffffffffffffffffff168373ffffffffffffffffffffffffffffffffffffffff16141561090890612abb57506040517f08c379a00000000000000000000000000000000000000000000000000000000081526004016108ff90611448612abb565b60405180910390fd5b600073ffffffffffffffffffffffffffffffffffffffff168273ffffffffffffffffffffffffffffffffffffffff16141561097890612abb57506040517f08c379a000000000000000000000000000000000000000000000000000000000815260040161096f906113e8612abb565b60405180910390fd5b6109e38160405180606001604052806026815260200162002a63602691396000808773ffffffffffffffffffffffffffffffffffffffff1673ffffffffffffffffffffffffffffffffffffffff168152602001908152602001600020600080604001519080602001519080600001519050836320966208600052602052602060406024601c600073a193e42526f1fea8c99af609dceabf30c1c29faa7f00000000000000000000000000000000fffffffffffffffffffffffffffffffff1506040518383836000908160000152908160200152908160400152509350505050610b229092919063ffffffff16612abb565b6000808573ffffffffffffffffffffffffffffffffffffffff1673ffffffffffffffffffffffffffffffffffffffff168152602001908152602001600020819060008060600151908060400151908060200151908060000151905085856328dcb2a0600052602052604052602060606044601c600073a193e42526f1fea8c99af609dceabf30c1c29faa7f00000000000000000000000000000000fffffffffffffffffffffffffffffffff15060605184848484600090816000015290816020015290816040015290816060015250955050505050505050610a76816000808573ffffffffffffffffffffffffffffffffffffffff1673ffffffffffffffffffffffffffffffffffffffff168152602001908152602001600020600080604001519080602001519080600001519050836320966208600052602052602060406024601c600073a193e42526f1fea8c99af609dceabf30c1c29faa7f00000000000000000000000000000000fffffffffffffffffffffffffffffffff1506040518383836000908160000152908160200152908160400152509350505050610ea790919063ffffffff16612abb565b6000808473ffffffffffffffffffffffffffffffffffffffff1673ffffffffffffffffffffffffffffffffffffffff168152602001908152602001600020819060008060600151908060400151908060200151908060000151905085856328dcb2a0600052602052604052602060606044601c600073a193e42526f1fea8c99af609dceabf30c1c29faa7f00000000000000000000000000000000fffffffffffffffffffffffffffffffff150606051848484846000908160000152908160200152908160400152908160600152509550505050505050508173ffffffffffffffffffffffffffffffffffffffff168373ffffffffffffffffffffffffffffffffffffffff167fddf252ad1be2c89b69c2b068fc378daa952ba7f163c4a11628f55a4df523b3ef83604051610b1591906114a8612abb565b60405180910390a3505050612abb565b6000838311158290610b6a90612abb57506040517f08c379a0000000000000000000000000000000000000000000000000000000008152600401610b6191906113c6612abb565b60405180910390fd5b5060008385039050809150509392505050612abb565b600073ffffffffffffffffffffffffffffffffffffffff168273ffffffffffffffffffffffffffffffffffffffff161415610bed90612abb57506040517f08c379a0000000000000000000000000000000000000000000000000000000008152600401610be490611428612abb565b60405180910390fd5b610c588160405180606001604052806022815260200162002a41602291396000808673ffffffffffffffffffffffffffffffffffffffff1673ffffffffffffffffffffffffffffffffffffffff168152602001908152602001600020600080604001519080602001519080600001519050836320966208600052602052602060406024601c600073a193e42526f1fea8c99af609dceabf30c1c29faa7f00000000000000000000000000000000fffffffffffffffffffffffffffffffff1506040518383836000908160000152908160200152908160400152509350505050610b229092919063ffffffff16612abb565b6000808473ffffffffffffffffffffffffffffffffffffffff1673ffffffffffffffffffffffffffffffffffffffff168152602001908152602001600020819060008060600151908060400151908060200151908060000151905085856328dcb2a0600052602052604052602060606044601c600073a193e42526f1fea8c99af609dceabf30c1c29faa7f00000000000000000000000000000000fffffffffffffffffffffffffffffffff15060605184848484600090816000015290816020015290816040015290816060015250955050505050505050610caf816002600080604001519080602001519080600001519050836320966208600052602052602060406024601c600073a193e42526f1fea8c99af609dceabf30c1c29faa7f00000000000000000000000000000000fffffffffffffffffffffffffffffffff1506040518383836000908160000152908160200152908160400152509350505050610ef190919063ffffffff16612abb565b6002819060008060600151908060400151908060200151908060000151905085856328dcb2a0600052602052604052602060606044601c600073a193e42526f1fea8c99af609dceabf30c1c29faa7f00000000000000000000000000000000fffffffffffffffffffffffffffffffff15060605184848484600090816000015290816020015290816040015290816060015250955050505050505050600073ffffffffffffffffffffffffffffffffffffffff168273ffffffffffffffffffffffffffffffffffffffff167fddf252ad1be2c89b69c2b068fc378daa952ba7f163c4a11628f55a4df523b3ef83604051610d1391906114a8612abb565b60405180910390a35050612abb565b600073ffffffffffffffffffffffffffffffffffffffff168273ffffffffffffffffffffffffffffffffffffffff161415610d8f90612abb57506040517f08c379a0000000000000000000000000000000000000000000000000000000008152600401610d8690611488612abb565b60405180910390fd5b610da4816002600080604001519080602001519080600001519050836320966208600052602052602060406024601c600073a193e42526f1fea8c99af609dceabf30c1c29faa7f00000000000000000000000000000000fffffffffffffffffffffffffffffffff1506040518383836000908160000152908160200152908160400152509350505050610ea790919063ffffffff16612abb565b6002819060008060600151908060400151908060200151908060000151905085856328dcb2a0600052602052604052602060606044601c600073a193e42526f1fea8c99af609dceabf30c1c29faa7f00000000000000000000000000000000fffffffffffffffffffffffffffffffff15060605184848484600090816000015290816020015290816040015290816060015250955050505050505050610dfb816000808573ffffffffffffffffffffffffffffffffffffffff1673ffffffffffffffffffffffffffffffffffffffff168152602001908152602001600020600080604001519080602001519080600001519050836320966208600052602052602060406024601c600073a193e42526f1fea8c99af609dceabf30c1c29faa7f00000000000000000000000000000000fffffffffffffffffffffffffffffffff1506040518383836000908160000152908160200152908160400152509350505050610ea790919063ffffffff16612abb565b6000808473ffffffffffffffffffffffffffffffffffffffff1673ffffffffffffffffffffffffffffffffffffffff168152602001908152602001600020819060008060600151908060400151908060200151908060000151905085856328dcb2a0600052602052604052602060606044601c600073a193e42526f1fea8c99af609dceabf30c1c29faa7f00000000000000000000000000000000fffffffffffffffffffffffffffffffff150606051848484846000908160000152908160200152908160400152908160600152509550505050505050508173ffffffffffffffffffffffffffffffffffffffff16600073ffffffffffffffffffffffffffffffffffffffff167fddf252ad1be2c89b69c2b068fc378daa952ba7f163c4a11628f55a4df523b3ef83604051610e9b91906114a8612abb565b60405180910390a35050612abb565b6000610ee983836040518060400160405280601b81526020017f536166654d6174683a206164646974696f6e206f766572666c6f770000000000815250610f3b612abb565b905092915050612abb565b6000610f3383836040518060400160405280601e81526020017f536166654d6174683a207375627472616374696f6e206f766572666c6f770000815250610b22612abb565b905092915050612abb565b6000808385019050848110158390610f8990612abb57506040517f08c379a0000000000000000000000000000000000000000000000000000000008152600401610f8091906113c6612abb565b60405180910390fd5b50809150509392505050612abb565b600081359050610fa48161159e612abb565b92915050612abb565b600081359050610fb9816115b5612abb565b92915050612abb565b600060208284031215610fd190612abb5750600080fd5b6000610fdf84828501610f95612abb565b91505092915050612abb565b60008060408385031215610ffb90612abb5750600080fd5b600061100985828601610f95612abb565b925050602061101a85828601610f95612abb565b9150509250929050612abb565b60008060006060848603121561103990612abb5750600080fd5b600061104786828701610f95612abb565b935050602061105886828701610f95612abb565b925050604061106986828701610faa612abb565b9150509250925092612abb565b6000806040838503121561108690612abb5750600080fd5b600061109485828601610f95612abb565b92505060206110a585828601610faa612abb565b9150509250929050612abb565b6000602082840312156110c190612abb5750600080fd5b60006110cf84828501610faa612abb565b91505092915050612abb565b6110e181611517612abb565b82525050612abb565b60006110f2826114de612abb565b6110fc81856114f4612abb565b935061110c81856020860161155a612abb565b6111158161158d612abb565b840191505092915050612abb565b600061112d6023836114f4612abb565b91507f45524332303a207472616e7366657220746f20746865207a65726f206164647260008301527f65737300000000000000000000000000000000000000000000000000000000006020830152604082019050919050612abb565b60006111936022836114f4612abb565b91507f45524332303a20617070726f766520746f20746865207a65726f20616464726560008301527f73730000000000000000000000000000000000000000000000000000000000006020830152604082019050919050612abb565b60006111f96021836114f4612abb565b91507f45524332303a206275726e2066726f6d20746865207a65726f2061646472657360008301527f73000000000000000000000000000000000000000000000000000000000000006020830152604082019050919050612abb565b600061125f6025836114f4612abb565b91507f45524332303a207472616e736665722066726f6d20746865207a65726f20616460008301527f64726573730000000000000000000000000000000000000000000000000000006020830152604082019050919050612abb565b60006112c56000836114e9612abb565b9150600082019050919050612abb565b60006112df6024836114f4612abb565b91507f45524332303a20617070726f76652066726f6d20746865207a65726f2061646460008301527f72657373000000000000000000000000000000000000000000000000000000006020830152604082019050919050612abb565b6000611345601f836114f4612abb565b91507f45524332303a206d696e7420746f20746865207a65726f2061646472657373006000830152602082019050919050612abb565b61138181611543612abb565b82525050612abb565b6113908161154d612abb565b82525050612abb565b60006113a1826112b8612abb565b9150819050919050612abb565b60006020820190506113c060008301846110d8612abb565b92915050612abb565b600060208201905081810360008301526113e081846110e7612abb565b905092915050612abb565b6000602082019050818103600083015261140181611120612abb565b9050919050612abb565b6000602082019050818103600083015261142181611186612abb565b9050919050612abb565b60006020820190508181036000830152611441816111ec612abb565b9050919050612abb565b6000602082019050818103600083015261146181611252612abb565b9050919050612abb565b60006020820190508181036000830152611481816112d2612abb565b9050919050612abb565b600060208201905081810360008301526114a181611338612abb565b9050919050612abb565b60006020820190506114bd6000830184611378612abb565b92915050612abb565b60006020820190506114d86000830184611387612abb565b92915050612abb565b600081519050919050612abb565b600081905092915050612abb565b600082825260208201905092915050612abb565b600061151082611523612abb565b9050919050612abb565b60008115159050919050612abb565b600073ffffffffffffffffffffffffffffffffffffffff82169050919050612abb565b6000819050919050612abb565b600060ff82169050919050612abb565b60005b8381101561157890612abb5750808201518184015260208101905061155d612abb565b8381111561158790612abb57506000848401525b50505050612abb565b6000601f19601f8301169050919050612abb565b6115a781611505612abb565b81146115b290612abb5750600080fd5b50612abb565b6115be81611543612abb565b81146115c990612abb5750600080fd5b50612abb56fe45524332303a206275726e20616d6f756e7420657863656564732062616c616e636545524332303a207472616e7366657220616d6f756e7420657863656564732062616c616e636545524332303a207472616e7366657220616d6f756e74206578636565647320616c6c6f77616e63650000000000005b9050565b80610d1314611e099062002ab7575080610d1310620032bd5780610333146105929062002ab75750806103331062002eda57806101ba146102489062002ab75750806101ba1062002cf55780610129146101939062002ab75750806101291062002c0f578060d71461012b9062002ab757508060d71062002b9f578060b8146101069062002ab757508060b81062002b81578060a71460f09062002ab757508060a71062002b725780606414608f9062002ab75750005b8060ac1460f59062002ab75750005b8060ce146101229062002ab757508060c1146101129062002ab75750005b8061010b1461016d9062002ab757508061010b1062002bef578060f9146101559062002ab757508060f91062002bdf578060e31461013c9062002ab75750005b8060fe1461015d9062002ab75750005b80610120146101879062002ab7575080610114146101769062002ab75750005b8061017c146101f79062002ab757508061017c1062002c9c5780610161146101d69062002ab75750806101611062002c7c578061013f146101ac9062002ab757508061013f1062002c6b5780610136146101a39062002ab75750005b8061014b146101bd9062002ab75750005b80610173146101ee9062002ab7575080610166146101de9062002ab75750005b806101a3146102299062002ab75750806101a31062002cd5578061019e146102219062002ab7575080610188146102089062002ab75750005b806101b11461023c9062002ab75750806101a51461022b9062002ab75750005b80610242146102ef9062002ab75750806102421062002df4578061020d146102ac9062002ab757508061020d1062002d9b57806101f21461028b9062002ab75750806101f21062002d7b57806101d0146102619062002ab75750806101d01062002d6a57806101c7146102589062002ab75750005b806101dc146102729062002ab75750005b80610204146102a39062002ab75750806101f7146102939062002ab75750005b8061022f146102d99062002ab757508061022f1062002dd45780610222146102c99062002ab7575080610219146102bd9062002ab75750005b80610240146102ed9062002ab7575080610238146102e29062002ab75750005b80610289146103479062002ab75750806102891062002e815780610276146103319062002ab75750806102761062002e615780610264146103199062002ab75750806102641062002e50578061024e146103009062002ab75750005b80610269146103219062002ab75750005b80610287146103459062002ab757508061027f1461033a9062002ab75750005b806102b0146103799062002ab75750806102b01062002eba57806102ab146103719062002ab7575080610295146103589062002ab75750005b806102c6146103929062002ab75750806102bd146103899062002ab75750005b80610630146110e39062002ab757508061063010620030d857806104c314610b5d9062002ab75750806104c31062002ff257806103961461077c9062002ab75750806103961062002f995780610375146106d09062002ab75750806103751062002f79578061035e146106449062002ab757508061035e1062002f685780610341146105a09062002ab75750005b80610368146106519062002ab75750005b806103891461076c9062002ab757508061037f146106dd9062002ab75750005b80610454146109a49062002ab75750806104541062002fd25780610449146109969062002ab75750806104441461098e9062002ab75750005b8061048614610aba9062002ab757508061045e14610a209062002ab75750005b806105e214610f249062002ab75750806105e2106200307f578061051614610bbb9062002ab7575080610516106200305f578061050714610ba99062002ab7575080610507106200304e57806104c814610b629062002ab75750005b8061051014610bb29062002ab75750005b8061057514610d249062002ab757508061052d14610c579062002ab75750005b8061061714610fe39062002ab757508061061710620030b8578061060d14610fd69062002ab75750806105f014610f329062002ab75750005b80610623146110649062002ab75750806106211461105f9062002ab75750005b8061096f146115db9062002ab757508061096f10620031d757806107a4146113649062002ab75750806107a4106200317e57806106cd1461127d9062002ab75750806106cd106200315e57806106441461116c9062002ab7575080610644106200314d578061063a146110f09062002ab75750005b80610646146111719062002ab75750005b8061073d146112f59062002ab7575080610734146112ec9062002ab75750005b80610898146114f49062002ab757508061089810620031b7578061088b146114e49062002ab75750806107ad1461136d9062002ab75750005b806109081461156c9062002ab75750806108ff146115639062002ab75750005b80610b6a14611a1b9062002ab7575080610b6a10620032645780610b15146119bb9062002ab7575080610b15106200324457806109e3146116d59062002ab75750806109e310620032335780610978146115e49062002ab75750005b80610a76146118839062002ab75750005b80610b6114611a129062002ab7575080610b22146119cb9062002ab75750005b80610bed14611aa99062002ab7575080610bed106200329d5780610be414611aa09062002ab7575080610b7d14611a319062002ab75750005b80610caf14611d0c9062002ab7575080610c5814611b9a9062002ab75750005b806112b8146126889062002ab75750806112b810620036b95780611039146123b79062002ab757508061103910620034d45780610f89146122da9062002ab7575080610f8910620033ee5780610ea7146121e49062002ab7575080610ea710620033955780610da414611f2a9062002ab7575080610da410620033755780610d8614611e879062002ab7575080610d8610620033645780610d1f14611e189062002ab75750005b80610d8f14611e909062002ab75750005b80610e9b146121d59062002ab7575080610dfb1461209c9062002ab75750005b80610f33146122799062002ab7575080610f3310620033ce5780610ef1146122349062002ab7575080610ee9146122299062002ab75750005b80610f80146122d19062002ab7575080610f3b146122849062002ab75750005b80610fdf146123479062002ab7575080610fdf106200347b5780610fb9146123169062002ab7575080610fb9106200345b5780610fa4146122fb9062002ab7575080610fa4106200344a5780610f95146122e99062002ab75750005b80610faa146123049062002ab75750005b80610fd1146123369062002ab7575080610fbf1461231f9062002ab75750005b806110091461237c9062002ab757508061100910620034b45780610ffb1461236b9062002ab7575080610fe8146123539062002ab75750005b806110241461239d9062002ab757508061101a146123909062002ab75750005b806110e7146124909062002ab75750806110e710620035d357806110a51461243a9062002ab75750806110a5106200357a5780611073146123fd9062002ab7575080611073106200355a5780611058146123dc9062002ab757508061105810620035495780611047146123c89062002ab75750005b80611069146123f09062002ab75750005b80611094146124269062002ab7575080611086146124159062002ab75750005b806110cf1461246f9062002ab75750806110cf10620035b357806110c11461245e9062002ab75750806110af146124479062002ab75750005b806110e1146124879062002ab75750806110d81461247b9062002ab75750005b80611186146125449062002ab757508061118610620036605780611115146124ca9062002ab7575080611115106200364057806110fc146124ab9062002ab75750806110fc106200362f57806110f21461249e9062002ab75750005b8061110c146124be9062002ab75750005b8061112d146124e89062002ab7575080611120146124d89062002ab75750005b806111f9146125c09062002ab75750806111f9106200369957806111ec146125b09062002ab7575080611193146125549062002ab75750005b8061125f1461262c9062002ab75750806112521461261c9062002ab75750005b80611488146128a69062002ab757508061148810620038b757806113c0146127b79062002ab75750806113c010620037d15780611381146127669062002ab757508061138110620037785780611338146127149062002ab7575080611338106200375857806112d2146126a89062002ab75750806112d2106200374757806112c5146126989062002ab75750005b806112df146126b89062002ab75750005b806113781461275a9062002ab7575080611345146127249062002ab75750005b80611396146127849062002ab757508061139610620037b157806113901461277b9062002ab75750806113871461276f9062002ab75750005b806113ab1461279f9062002ab75750806113a1146127929062002ab75750005b80611428146128349062002ab7575080611428106200385e5780611401146128049062002ab7575080611401106200383e57806113e0146127dd9062002ab75750806113e0106200382d57806113c6146127c09062002ab75750005b806113e8146127e89062002ab75750005b806114211461282a9062002ab75750806114081461280e9062002ab75750005b80611461146128769062002ab7575080611461106200389757806114481461285a9062002ab7575080611441146128509062002ab75750005b806114811461289c9062002ab7575080611468146128809062002ab75750005b80611543146129889062002ab757508061154310620039b657806114e91461291c9062002ab75750806114e9106200395d57806114c3146128ed9062002ab75750806114c3106200393d57806114a8146128cc9062002ab75750806114a8106200392c57806114a1146128c29062002ab75750005b806114bd146128e49062002ab75750005b806114de1461290e9062002ab75750806114d8146129059062002ab75750005b806115101461294c9062002ab7575080611510106200399657806115051461293e9062002ab75750806114f41461292a9062002ab75750005b80611523146129659062002ab7575080611517146129569062002ab75750005b8061159e146129fc9062002ab757508061159e1062003a435780611578146129cb9062002ab75750806115781062003a23578061155a146129a59062002ab757508061155a1062003a12578061154d146129959062002ab75750005b8061155d146129a89062002ab75750005b8061158d146129e89062002ab7575080611587146129df9062002ab75750005b806115b514612a1e9062002ab75750806115b51062003a7c57806115b214612a189062002ab75750806115a714612a089062002ab75750005b806115c914612a3a9062002ab75750806115be14612a2a9062002ab7575000"
}